{
	"contracts/CreatorsContent.sol": {
		"CreatorsContent": {
			"abi": [
				{
					"inputs": [],
					"stateMutability": "nonpayable",
					"type": "constructor"
				},
				{
					"inputs": [
						{
							"internalType": "uint256",
							"name": "",
							"type": "uint256"
						}
					],
					"name": "Contents",
					"outputs": [
						{
							"internalType": "uint256",
							"name": "id",
							"type": "uint256"
						},
						{
							"internalType": "address",
							"name": "author",
							"type": "address"
						},
						{
							"internalType": "string",
							"name": "title",
							"type": "string"
						},
						{
							"internalType": "string",
							"name": "description",
							"type": "string"
						},
						{
							"internalType": "uint256",
							"name": "price",
							"type": "uint256"
						},
						{
							"internalType": "string",
							"name": "video",
							"type": "string"
						},
						{
							"internalType": "bool",
							"name": "deleted",
							"type": "bool"
						},
						{
							"internalType": "string",
							"name": "mainImage",
							"type": "string"
						}
					],
					"stateMutability": "view",
					"type": "function"
				},
				{
					"inputs": [
						{
							"internalType": "uint256",
							"name": "",
							"type": "uint256"
						}
					],
					"name": "Profiles",
					"outputs": [
						{
							"internalType": "string",
							"name": "handle",
							"type": "string"
						},
						{
							"internalType": "address",
							"name": "addr",
							"type": "address"
						},
						{
							"internalType": "string",
							"name": "profilePic",
							"type": "string"
						}
					],
					"stateMutability": "view",
					"type": "function"
				},
				{
					"inputs": [
						{
							"internalType": "string",
							"name": "a",
							"type": "string"
						},
						{
							"internalType": "string",
							"name": "b",
							"type": "string"
						}
					],
					"name": "compareStrings",
					"outputs": [
						{
							"internalType": "bool",
							"name": "",
							"type": "bool"
						}
					],
					"stateMutability": "pure",
					"type": "function"
				},
				{
					"inputs": [
						{
							"internalType": "string",
							"name": "title",
							"type": "string"
						},
						{
							"internalType": "string",
							"name": "description",
							"type": "string"
						},
						{
							"internalType": "uint256",
							"name": "price",
							"type": "uint256"
						},
						{
							"internalType": "string",
							"name": "video",
							"type": "string"
						},
						{
							"internalType": "string",
							"name": "mainImage",
							"type": "string"
						}
					],
					"name": "createNewContent",
					"outputs": [],
					"stateMutability": "nonpayable",
					"type": "function"
				},
				{
					"inputs": [
						{
							"internalType": "string",
							"name": "handle",
							"type": "string"
						},
						{
							"internalType": "string",
							"name": "profilePic",
							"type": "string"
						}
					],
					"name": "createNewProfile",
					"outputs": [
						{
							"internalType": "bool",
							"name": "",
							"type": "bool"
						}
					],
					"stateMutability": "nonpayable",
					"type": "function"
				},
				{
					"inputs": [],
					"name": "getAllCourses",
					"outputs": [
						{
							"components": [
								{
									"internalType": "uint256",
									"name": "id",
									"type": "uint256"
								},
								{
									"internalType": "address",
									"name": "author",
									"type": "address"
								},
								{
									"internalType": "string",
									"name": "title",
									"type": "string"
								},
								{
									"internalType": "string",
									"name": "description",
									"type": "string"
								},
								{
									"internalType": "uint256",
									"name": "price",
									"type": "uint256"
								},
								{
									"internalType": "string",
									"name": "video",
									"type": "string"
								},
								{
									"internalType": "bool",
									"name": "deleted",
									"type": "bool"
								},
								{
									"internalType": "string",
									"name": "mainImage",
									"type": "string"
								}
							],
							"internalType": "struct CreatorsContent.Content[]",
							"name": "",
							"type": "tuple[]"
						}
					],
					"stateMutability": "view",
					"type": "function"
				},
				{
					"inputs": [
						{
							"internalType": "uint256",
							"name": "id",
							"type": "uint256"
						}
					],
					"name": "getCourseDetail",
					"outputs": [
						{
							"components": [
								{
									"internalType": "uint256",
									"name": "id",
									"type": "uint256"
								},
								{
									"internalType": "address",
									"name": "author",
									"type": "address"
								},
								{
									"internalType": "string",
									"name": "title",
									"type": "string"
								},
								{
									"internalType": "string",
									"name": "description",
									"type": "string"
								},
								{
									"internalType": "uint256",
									"name": "price",
									"type": "uint256"
								},
								{
									"internalType": "string",
									"name": "video",
									"type": "string"
								},
								{
									"internalType": "bool",
									"name": "deleted",
									"type": "bool"
								},
								{
									"internalType": "string",
									"name": "mainImage",
									"type": "string"
								}
							],
							"internalType": "struct CreatorsContent.Content",
							"name": "",
							"type": "tuple"
						}
					],
					"stateMutability": "view",
					"type": "function"
				},
				{
					"inputs": [],
					"name": "getMyCourses",
					"outputs": [
						{
							"components": [
								{
									"internalType": "uint256",
									"name": "id",
									"type": "uint256"
								},
								{
									"internalType": "address",
									"name": "author",
									"type": "address"
								},
								{
									"internalType": "string",
									"name": "title",
									"type": "string"
								},
								{
									"internalType": "string",
									"name": "description",
									"type": "string"
								},
								{
									"internalType": "uint256",
									"name": "price",
									"type": "uint256"
								},
								{
									"internalType": "string",
									"name": "video",
									"type": "string"
								},
								{
									"internalType": "bool",
									"name": "deleted",
									"type": "bool"
								},
								{
									"internalType": "string",
									"name": "mainImage",
									"type": "string"
								}
							],
							"internalType": "struct CreatorsContent.Content[]",
							"name": "",
							"type": "tuple[]"
						}
					],
					"stateMutability": "view",
					"type": "function"
				},
				{
					"inputs": [],
					"name": "getMyProfile",
					"outputs": [
						{
							"components": [
								{
									"internalType": "string",
									"name": "handle",
									"type": "string"
								},
								{
									"internalType": "address",
									"name": "addr",
									"type": "address"
								},
								{
									"internalType": "string",
									"name": "profilePic",
									"type": "string"
								}
							],
							"internalType": "struct CreatorsContent.Profile",
							"name": "",
							"type": "tuple"
						}
					],
					"stateMutability": "view",
					"type": "function"
				},
				{
					"inputs": [
						{
							"internalType": "string",
							"name": "handle",
							"type": "string"
						}
					],
					"name": "setProfileHandle",
					"outputs": [
						{
							"internalType": "bool",
							"name": "",
							"type": "bool"
						}
					],
					"stateMutability": "nonpayable",
					"type": "function"
				},
				{
					"inputs": [
						{
							"internalType": "string",
							"name": "image",
							"type": "string"
						}
					],
					"name": "setProfileImage",
					"outputs": [
						{
							"internalType": "bool",
							"name": "",
							"type": "bool"
						}
					],
					"stateMutability": "nonpayable",
					"type": "function"
				}
			],
			"devdoc": {
				"kind": "dev",
				"methods": {},
				"version": 1
			},
			"evm": {
				"assembly": "    /* \"contracts/CreatorsContent.sol\":124:4443  contract CreatorsContent {... */\n  mstore(0x40, 0x80)\n    /* \"contracts/CreatorsContent.sol\":650:698  constructor() {... */\n  callvalue\n  dup1\n  iszero\n  tag_1\n  jumpi\n  0x00\n  dup1\n  revert\ntag_1:\n  pop\n    /* \"contracts/CreatorsContent.sol\":674:691  idCourses.reset() */\n  tag_4\n    /* \"contracts/CreatorsContent.sol\":674:683  idCourses */\n  0x02\n    /* \"contracts/CreatorsContent.sol\":674:689  idCourses.reset */\n  or(tag_0_65, shl(0x20, tag_5))\n    /* \"contracts/CreatorsContent.sol\":674:691  idCourses.reset() */\n  0x20\n  shr\n  jump\t// in\ntag_4:\n    /* \"contracts/CreatorsContent.sol\":124:4443  contract CreatorsContent {... */\n  jump(tag_6)\n    /* \"@openzeppelin/contracts/utils/Counters.sol\":1309:1393  function reset(Counter storage counter) internal {... */\ntag_5:\n    /* \"@openzeppelin/contracts/utils/Counters.sol\":1385:1386  0 */\n  0x00\n    /* \"@openzeppelin/contracts/utils/Counters.sol\":1368:1375  counter */\n  dup2\n    /* \"@openzeppelin/contracts/utils/Counters.sol\":1368:1382  counter._value */\n  0x00\n  add\n    /* \"@openzeppelin/contracts/utils/Counters.sol\":1368:1386  counter._value = 0 */\n  dup2\n  swap1\n  sstore\n  pop\n    /* \"@openzeppelin/contracts/utils/Counters.sol\":1309:1393  function reset(Counter storage counter) internal {... */\n  pop\n  jump\t// out\n    /* \"contracts/CreatorsContent.sol\":124:4443  contract CreatorsContent {... */\ntag_6:\n  dataSize(sub_0)\n  dup1\n  dataOffset(sub_0)\n  0x00\n  codecopy\n  0x00\n  return\nstop\n\nsub_0: assembly {\n        /* \"contracts/CreatorsContent.sol\":124:4443  contract CreatorsContent {... */\n      mstore(0x40, 0x80)\n      callvalue\n      dup1\n      iszero\n      tag_1\n      jumpi\n      0x00\n      dup1\n      revert\n    tag_1:\n      pop\n      jumpi(tag_2, lt(calldatasize, 0x04))\n      shr(0xe0, calldataload(0x00))\n      dup1\n      0x3b342e8e\n      gt\n      tag_14\n      jumpi\n      dup1\n      0x3b342e8e\n      eq\n      tag_8\n      jumpi\n      dup1\n      0x4cea965e\n      eq\n      tag_9\n      jumpi\n      dup1\n      0xb79367c4\n      eq\n      tag_10\n      jumpi\n      dup1\n      0xbed34bba\n      eq\n      tag_11\n      jumpi\n      dup1\n      0xe44c76ea\n      eq\n      tag_12\n      jumpi\n      dup1\n      0xf70d205c\n      eq\n      tag_13\n      jumpi\n      jump(tag_2)\n    tag_14:\n      dup1\n      0x04e48bd1\n      eq\n      tag_3\n      jumpi\n      dup1\n      0x1fc25cdd\n      eq\n      tag_4\n      jumpi\n      dup1\n      0x21527e50\n      eq\n      tag_5\n      jumpi\n      dup1\n      0x2cc59076\n      eq\n      tag_6\n      jumpi\n      dup1\n      0x38880d55\n      eq\n      tag_7\n      jumpi\n    tag_2:\n      0x00\n      dup1\n      revert\n        /* \"contracts/CreatorsContent.sol\":1917:2013  function getAllCourses() public view returns (Content[] memory) {... */\n    tag_3:\n      tag_15\n      tag_16\n      jump\t// in\n    tag_15:\n      mload(0x40)\n      tag_17\n      swap2\n      swap1\n      tag_18\n      jump\t// in\n    tag_17:\n      mload(0x40)\n      dup1\n      swap2\n      sub\n      swap1\n      return\n        /* \"contracts/CreatorsContent.sol\":3182:3659  function createNewProfile(string memory handle, string memory profilePic) public returns (bool) {... */\n    tag_4:\n      tag_19\n      0x04\n      dup1\n      calldatasize\n      sub\n      dup2\n      add\n      swap1\n      tag_20\n      swap2\n      swap1\n      tag_21\n      jump\t// in\n    tag_20:\n      tag_22\n      jump\t// in\n    tag_19:\n      mload(0x40)\n      tag_23\n      swap2\n      swap1\n      tag_24\n      jump\t// in\n    tag_23:\n      mload(0x40)\n      dup1\n      swap2\n      sub\n      swap1\n      return\n        /* \"contracts/CreatorsContent.sol\":4270:4439  function getMyProfile() public view returns (Profile memory) {... */\n    tag_5:\n      tag_25\n      tag_26\n      jump\t// in\n    tag_25:\n      mload(0x40)\n      tag_27\n      swap2\n      swap1\n      tag_28\n      jump\t// in\n    tag_27:\n      mload(0x40)\n      dup1\n      swap2\n      sub\n      swap1\n      return\n        /* \"contracts/CreatorsContent.sol\":1282:1906  function getMyCourses() public view returns (Content[] memory) {... */\n    tag_6:\n      tag_29\n      tag_30\n      jump\t// in\n    tag_29:\n      mload(0x40)\n      tag_31\n      swap2\n      swap1\n      tag_18\n      jump\t// in\n    tag_31:\n      mload(0x40)\n      dup1\n      swap2\n      sub\n      swap1\n      return\n        /* \"contracts/CreatorsContent.sol\":2019:2365  function createNewContent(... */\n    tag_7:\n      tag_32\n      0x04\n      dup1\n      calldatasize\n      sub\n      dup2\n      add\n      swap1\n      tag_33\n      swap2\n      swap1\n      tag_34\n      jump\t// in\n    tag_33:\n      tag_35\n      jump\t// in\n    tag_32:\n      stop\n        /* \"contracts/CreatorsContent.sol\":554:579  Content[] public Contents */\n    tag_8:\n      tag_36\n      0x04\n      dup1\n      calldatasize\n      sub\n      dup2\n      add\n      swap1\n      tag_37\n      swap2\n      swap1\n      tag_38\n      jump\t// in\n    tag_37:\n      tag_39\n      jump\t// in\n    tag_36:\n      mload(0x40)\n      tag_40\n      swap9\n      swap8\n      swap7\n      swap6\n      swap5\n      swap4\n      swap3\n      swap2\n      swap1\n      tag_41\n      jump\t// in\n    tag_40:\n      mload(0x40)\n      dup1\n      swap2\n      sub\n      swap1\n      return\n        /* \"contracts/CreatorsContent.sol\":585:610  Profile[] public Profiles */\n    tag_9:\n      tag_42\n      0x04\n      dup1\n      calldatasize\n      sub\n      dup2\n      add\n      swap1\n      tag_43\n      swap2\n      swap1\n      tag_38\n      jump\t// in\n    tag_43:\n      tag_44\n      jump\t// in\n    tag_42:\n      mload(0x40)\n      tag_45\n      swap4\n      swap3\n      swap2\n      swap1\n      tag_46\n      jump\t// in\n    tag_45:\n      mload(0x40)\n      dup1\n      swap2\n      sub\n      swap1\n      return\n        /* \"contracts/CreatorsContent.sol\":983:1276  function getCourseDetail(uint256 id) public view returns (Content memory) {... */\n    tag_10:\n      tag_47\n      0x04\n      dup1\n      calldatasize\n      sub\n      dup2\n      add\n      swap1\n      tag_48\n      swap2\n      swap1\n      tag_38\n      jump\t// in\n    tag_48:\n      tag_49\n      jump\t// in\n    tag_47:\n      mload(0x40)\n      tag_50\n      swap2\n      swap1\n      tag_51\n      jump\t// in\n    tag_50:\n      mload(0x40)\n      dup1\n      swap2\n      sub\n      swap1\n      return\n        /* \"contracts/CreatorsContent.sol\":2371:2550  function compareStrings(string memory a, string memory b) public pure returns (bool) {... */\n    tag_11:\n      tag_52\n      0x04\n      dup1\n      calldatasize\n      sub\n      dup2\n      add\n      swap1\n      tag_53\n      swap2\n      swap1\n      tag_21\n      jump\t// in\n    tag_53:\n      tag_54\n      jump\t// in\n    tag_52:\n      mload(0x40)\n      tag_55\n      swap2\n      swap1\n      tag_24\n      jump\t// in\n    tag_55:\n      mload(0x40)\n      dup1\n      swap2\n      sub\n      swap1\n      return\n        /* \"contracts/CreatorsContent.sol\":3665:4053  function setProfileHandle(string memory handle) public returns (bool) {... */\n    tag_12:\n      tag_56\n      0x04\n      dup1\n      calldatasize\n      sub\n      dup2\n      add\n      swap1\n      tag_57\n      swap2\n      swap1\n      tag_58\n      jump\t// in\n    tag_57:\n      tag_59\n      jump\t// in\n    tag_56:\n      mload(0x40)\n      tag_60\n      swap2\n      swap1\n      tag_24\n      jump\t// in\n    tag_60:\n      mload(0x40)\n      dup1\n      swap2\n      sub\n      swap1\n      return\n        /* \"contracts/CreatorsContent.sol\":4059:4264  function setProfileImage(string memory image) public returns (bool) {... */\n    tag_13:\n      tag_61\n      0x04\n      dup1\n      calldatasize\n      sub\n      dup2\n      add\n      swap1\n      tag_62\n      swap2\n      swap1\n      tag_58\n      jump\t// in\n    tag_62:\n      tag_63\n      jump\t// in\n    tag_61:\n      mload(0x40)\n      tag_64\n      swap2\n      swap1\n      tag_24\n      jump\t// in\n    tag_64:\n      mload(0x40)\n      dup1\n      swap2\n      sub\n      swap1\n      return\n        /* \"contracts/CreatorsContent.sol\":1917:2013  function getAllCourses() public view returns (Content[] memory) {... */\n    tag_16:\n        /* \"contracts/CreatorsContent.sol\":1963:1979  Content[] memory */\n      0x60\n        /* \"contracts/CreatorsContent.sol\":1998:2006  Contents */\n      0x00\n        /* \"contracts/CreatorsContent.sol\":1991:2006  return Contents */\n      dup1\n      sload\n      dup1\n      0x20\n      mul\n      0x20\n      add\n      mload(0x40)\n      swap1\n      dup2\n      add\n      0x40\n      mstore\n      dup1\n      swap3\n      swap2\n      swap1\n      dup2\n      dup2\n      mstore\n      0x20\n      add\n      0x00\n      swap1\n    tag_67:\n      dup3\n      dup3\n      lt\n      iszero\n      tag_68\n      jumpi\n      dup4\n      dup3\n      swap1\n      0x00\n      mstore\n      keccak256(0x00, 0x20)\n      swap1\n      0x08\n      mul\n      add\n      mload(0x40)\n      dup1\n      0x0100\n      add\n      0x40\n      mstore\n      swap1\n      dup2\n      0x00\n      dup3\n      add\n      sload\n      dup2\n      mstore\n      0x20\n      add\n      0x01\n      dup3\n      add\n      0x00\n      swap1\n      sload\n      swap1\n      0x0100\n      exp\n      swap1\n      div\n      0xffffffffffffffffffffffffffffffffffffffff\n      and\n      0xffffffffffffffffffffffffffffffffffffffff\n      and\n      0xffffffffffffffffffffffffffffffffffffffff\n      and\n      dup2\n      mstore\n      0x20\n      add\n      0x02\n      dup3\n      add\n      dup1\n      sload\n      tag_70\n      swap1\n      tag_71\n      jump\t// in\n    tag_70:\n      dup1\n      0x1f\n      add\n      0x20\n      dup1\n      swap2\n      div\n      mul\n      0x20\n      add\n      mload(0x40)\n      swap1\n      dup2\n      add\n      0x40\n      mstore\n      dup1\n      swap3\n      swap2\n      swap1\n      dup2\n      dup2\n      mstore\n      0x20\n      add\n      dup3\n      dup1\n      sload\n      tag_72\n      swap1\n      tag_71\n      jump\t// in\n    tag_72:\n      dup1\n      iszero\n      tag_73\n      jumpi\n      dup1\n      0x1f\n      lt\n      tag_74\n      jumpi\n      0x0100\n      dup1\n      dup4\n      sload\n      div\n      mul\n      dup4\n      mstore\n      swap2\n      0x20\n      add\n      swap2\n      jump(tag_73)\n    tag_74:\n      dup3\n      add\n      swap2\n      swap1\n      0x00\n      mstore\n      keccak256(0x00, 0x20)\n      swap1\n    tag_75:\n      dup2\n      sload\n      dup2\n      mstore\n      swap1\n      0x01\n      add\n      swap1\n      0x20\n      add\n      dup1\n      dup4\n      gt\n      tag_75\n      jumpi\n      dup3\n      swap1\n      sub\n      0x1f\n      and\n      dup3\n      add\n      swap2\n    tag_73:\n      pop\n      pop\n      pop\n      pop\n      pop\n      dup2\n      mstore\n      0x20\n      add\n      0x03\n      dup3\n      add\n      dup1\n      sload\n      tag_76\n      swap1\n      tag_71\n      jump\t// in\n    tag_76:\n      dup1\n      0x1f\n      add\n      0x20\n      dup1\n      swap2\n      div\n      mul\n      0x20\n      add\n      mload(0x40)\n      swap1\n      dup2\n      add\n      0x40\n      mstore\n      dup1\n      swap3\n      swap2\n      swap1\n      dup2\n      dup2\n      mstore\n      0x20\n      add\n      dup3\n      dup1\n      sload\n      tag_77\n      swap1\n      tag_71\n      jump\t// in\n    tag_77:\n      dup1\n      iszero\n      tag_78\n      jumpi\n      dup1\n      0x1f\n      lt\n      tag_79\n      jumpi\n      0x0100\n      dup1\n      dup4\n      sload\n      div\n      mul\n      dup4\n      mstore\n      swap2\n      0x20\n      add\n      swap2\n      jump(tag_78)\n    tag_79:\n      dup3\n      add\n      swap2\n      swap1\n      0x00\n      mstore\n      keccak256(0x00, 0x20)\n      swap1\n    tag_80:\n      dup2\n      sload\n      dup2\n      mstore\n      swap1\n      0x01\n      add\n      swap1\n      0x20\n      add\n      dup1\n      dup4\n      gt\n      tag_80\n      jumpi\n      dup3\n      swap1\n      sub\n      0x1f\n      and\n      dup3\n      add\n      swap2\n    tag_78:\n      pop\n      pop\n      pop\n      pop\n      pop\n      dup2\n      mstore\n      0x20\n      add\n      0x04\n      dup3\n      add\n      sload\n      dup2\n      mstore\n      0x20\n      add\n      0x05\n      dup3\n      add\n      dup1\n      sload\n      tag_81\n      swap1\n      tag_71\n      jump\t// in\n    tag_81:\n      dup1\n      0x1f\n      add\n      0x20\n      dup1\n      swap2\n      div\n      mul\n      0x20\n      add\n      mload(0x40)\n      swap1\n      dup2\n      add\n      0x40\n      mstore\n      dup1\n      swap3\n      swap2\n      swap1\n      dup2\n      dup2\n      mstore\n      0x20\n      add\n      dup3\n      dup1\n      sload\n      tag_82\n      swap1\n      tag_71\n      jump\t// in\n    tag_82:\n      dup1\n      iszero\n      tag_83\n      jumpi\n      dup1\n      0x1f\n      lt\n      tag_84\n      jumpi\n      0x0100\n      dup1\n      dup4\n      sload\n      div\n      mul\n      dup4\n      mstore\n      swap2\n      0x20\n      add\n      swap2\n      jump(tag_83)\n    tag_84:\n      dup3\n      add\n      swap2\n      swap1\n      0x00\n      mstore\n      keccak256(0x00, 0x20)\n      swap1\n    tag_85:\n      dup2\n      sload\n      dup2\n      mstore\n      swap1\n      0x01\n      add\n      swap1\n      0x20\n      add\n      dup1\n      dup4\n      gt\n      tag_85\n      jumpi\n      dup3\n      swap1\n      sub\n      0x1f\n      and\n      dup3\n      add\n      swap2\n    tag_83:\n      pop\n      pop\n      pop\n      pop\n      pop\n      dup2\n      mstore\n      0x20\n      add\n      0x06\n      dup3\n      add\n      0x00\n      swap1\n      sload\n      swap1\n      0x0100\n      exp\n      swap1\n      div\n      0xff\n      and\n      iszero\n      iszero\n      iszero\n      iszero\n      dup2\n      mstore\n      0x20\n      add\n      0x07\n      dup3\n      add\n      dup1\n      sload\n      tag_86\n      swap1\n      tag_71\n      jump\t// in\n    tag_86:\n      dup1\n      0x1f\n      add\n      0x20\n      dup1\n      swap2\n      div\n      mul\n      0x20\n      add\n      mload(0x40)\n      swap1\n      dup2\n      add\n      0x40\n      mstore\n      dup1\n      swap3\n      swap2\n      swap1\n      dup2\n      dup2\n      mstore\n      0x20\n      add\n      dup3\n      dup1\n      sload\n      tag_87\n      swap1\n      tag_71\n      jump\t// in\n    tag_87:\n      dup1\n      iszero\n      tag_88\n      jumpi\n      dup1\n      0x1f\n      lt\n      tag_89\n      jumpi\n      0x0100\n      dup1\n      dup4\n      sload\n      div\n      mul\n      dup4\n      mstore\n      swap2\n      0x20\n      add\n      swap2\n      jump(tag_88)\n    tag_89:\n      dup3\n      add\n      swap2\n      swap1\n      0x00\n      mstore\n      keccak256(0x00, 0x20)\n      swap1\n    tag_90:\n      dup2\n      sload\n      dup2\n      mstore\n      swap1\n      0x01\n      add\n      swap1\n      0x20\n      add\n      dup1\n      dup4\n      gt\n      tag_90\n      jumpi\n      dup3\n      swap1\n      sub\n      0x1f\n      and\n      dup3\n      add\n      swap2\n    tag_88:\n      pop\n      pop\n      pop\n      pop\n      pop\n      dup2\n      mstore\n      pop\n      pop\n      dup2\n      mstore\n      0x20\n      add\n      swap1\n      0x01\n      add\n      swap1\n      jump(tag_67)\n    tag_68:\n      pop\n      pop\n      pop\n      pop\n      swap1\n      pop\n        /* \"contracts/CreatorsContent.sol\":1917:2013  function getAllCourses() public view returns (Content[] memory) {... */\n      swap1\n      jump\t// out\n        /* \"contracts/CreatorsContent.sol\":3182:3659  function createNewProfile(string memory handle, string memory profilePic) public returns (bool) {... */\n    tag_22:\n        /* \"contracts/CreatorsContent.sol\":3272:3276  bool */\n      0x00\n        /* \"contracts/CreatorsContent.sol\":3300:3309  uint256 i */\n      dup1\n        /* \"contracts/CreatorsContent.sol\":3310:3311  0 */\n      0x00\n        /* \"contracts/CreatorsContent.sol\":3300:3311  uint256 i=0 */\n      swap1\n      pop\n        /* \"contracts/CreatorsContent.sol\":3295:3550  for (uint256 i=0; i < Profiles.length; i++) {... */\n    tag_92:\n        /* \"contracts/CreatorsContent.sol\":3317:3325  Profiles */\n      0x01\n        /* \"contracts/CreatorsContent.sol\":3317:3332  Profiles.length */\n      dup1\n      sload\n      swap1\n      pop\n        /* \"contracts/CreatorsContent.sol\":3313:3314  i */\n      dup2\n        /* \"contracts/CreatorsContent.sol\":3313:3332  i < Profiles.length */\n      lt\n        /* \"contracts/CreatorsContent.sol\":3295:3550  for (uint256 i=0; i < Profiles.length; i++) {... */\n      iszero\n      tag_93\n      jumpi\n        /* \"contracts/CreatorsContent.sol\":3357:3399  compareStrings(Profiles[i].handle, handle) */\n      tag_95\n        /* \"contracts/CreatorsContent.sol\":3372:3380  Profiles */\n      0x01\n        /* \"contracts/CreatorsContent.sol\":3381:3382  i */\n      dup3\n        /* \"contracts/CreatorsContent.sol\":3372:3383  Profiles[i] */\n      dup2\n      sload\n      dup2\n      lt\n      tag_96\n      jumpi\n      tag_97\n      tag_98\n      jump\t// in\n    tag_97:\n    tag_96:\n      swap1\n      0x00\n      mstore\n      keccak256(0x00, 0x20)\n      swap1\n      0x03\n      mul\n      add\n        /* \"contracts/CreatorsContent.sol\":3372:3390  Profiles[i].handle */\n      0x00\n      add\n        /* \"contracts/CreatorsContent.sol\":3357:3399  compareStrings(Profiles[i].handle, handle) */\n      dup1\n      sload\n      tag_100\n      swap1\n      tag_71\n      jump\t// in\n    tag_100:\n      dup1\n      0x1f\n      add\n      0x20\n      dup1\n      swap2\n      div\n      mul\n      0x20\n      add\n      mload(0x40)\n      swap1\n      dup2\n      add\n      0x40\n      mstore\n      dup1\n      swap3\n      swap2\n      swap1\n      dup2\n      dup2\n      mstore\n      0x20\n      add\n      dup3\n      dup1\n      sload\n      tag_101\n      swap1\n      tag_71\n      jump\t// in\n    tag_101:\n      dup1\n      iszero\n      tag_102\n      jumpi\n      dup1\n      0x1f\n      lt\n      tag_103\n      jumpi\n      0x0100\n      dup1\n      dup4\n      sload\n      div\n      mul\n      dup4\n      mstore\n      swap2\n      0x20\n      add\n      swap2\n      jump(tag_102)\n    tag_103:\n      dup3\n      add\n      swap2\n      swap1\n      0x00\n      mstore\n      keccak256(0x00, 0x20)\n      swap1\n    tag_104:\n      dup2\n      sload\n      dup2\n      mstore\n      swap1\n      0x01\n      add\n      swap1\n      0x20\n      add\n      dup1\n      dup4\n      gt\n      tag_104\n      jumpi\n      dup3\n      swap1\n      sub\n      0x1f\n      and\n      dup3\n      add\n      swap2\n    tag_102:\n      pop\n      pop\n      pop\n      pop\n      pop\n        /* \"contracts/CreatorsContent.sol\":3392:3398  handle */\n      dup6\n        /* \"contracts/CreatorsContent.sol\":3357:3371  compareStrings */\n      tag_54\n        /* \"contracts/CreatorsContent.sol\":3357:3399  compareStrings(Profiles[i].handle, handle) */\n      jump\t// in\n    tag_95:\n        /* \"contracts/CreatorsContent.sol\":3353:3446  if (compareStrings(Profiles[i].handle, handle)) {... */\n      iszero\n      tag_105\n      jumpi\n        /* \"contracts/CreatorsContent.sol\":3426:3431  false */\n      0x00\n        /* \"contracts/CreatorsContent.sol\":3419:3431  return false */\n      swap2\n      pop\n      pop\n      jump(tag_91)\n        /* \"contracts/CreatorsContent.sol\":3353:3446  if (compareStrings(Profiles[i].handle, handle)) {... */\n    tag_105:\n        /* \"contracts/CreatorsContent.sol\":3483:3493  msg.sender */\n      caller\n        /* \"contracts/CreatorsContent.sol\":3463:3493  Profiles[i].addr == msg.sender */\n      0xffffffffffffffffffffffffffffffffffffffff\n      and\n        /* \"contracts/CreatorsContent.sol\":3463:3471  Profiles */\n      0x01\n        /* \"contracts/CreatorsContent.sol\":3472:3473  i */\n      dup3\n        /* \"contracts/CreatorsContent.sol\":3463:3474  Profiles[i] */\n      dup2\n      sload\n      dup2\n      lt\n      tag_106\n      jumpi\n      tag_107\n      tag_98\n      jump\t// in\n    tag_107:\n    tag_106:\n      swap1\n      0x00\n      mstore\n      keccak256(0x00, 0x20)\n      swap1\n      0x03\n      mul\n      add\n        /* \"contracts/CreatorsContent.sol\":3463:3479  Profiles[i].addr */\n      0x01\n      add\n      0x00\n      swap1\n      sload\n      swap1\n      0x0100\n      exp\n      swap1\n      div\n      0xffffffffffffffffffffffffffffffffffffffff\n      and\n        /* \"contracts/CreatorsContent.sol\":3463:3493  Profiles[i].addr == msg.sender */\n      0xffffffffffffffffffffffffffffffffffffffff\n      and\n      sub\n        /* \"contracts/CreatorsContent.sol\":3459:3540  if (Profiles[i].addr == msg.sender) {... */\n      tag_109\n      jumpi\n        /* \"contracts/CreatorsContent.sol\":3520:3525  false */\n      0x00\n        /* \"contracts/CreatorsContent.sol\":3513:3525  return false */\n      swap2\n      pop\n      pop\n      jump(tag_91)\n        /* \"contracts/CreatorsContent.sol\":3459:3540  if (Profiles[i].addr == msg.sender) {... */\n    tag_109:\n        /* \"contracts/CreatorsContent.sol\":3334:3337  i++ */\n      dup1\n      dup1\n      tag_110\n      swap1\n      tag_111\n      jump\t// in\n    tag_110:\n      swap2\n      pop\n      pop\n        /* \"contracts/CreatorsContent.sol\":3295:3550  for (uint256 i=0; i < Profiles.length; i++) {... */\n      jump(tag_92)\n    tag_93:\n      pop\n        /* \"contracts/CreatorsContent.sol\":3568:3576  Profiles */\n      0x01\n        /* \"contracts/CreatorsContent.sol\":3582:3621  Profile(handle, msg.sender, profilePic) */\n      mload(0x40)\n      dup1\n      0x60\n      add\n      0x40\n      mstore\n      dup1\n        /* \"contracts/CreatorsContent.sol\":3590:3596  handle */\n      dup6\n        /* \"contracts/CreatorsContent.sol\":3582:3621  Profile(handle, msg.sender, profilePic) */\n      dup2\n      mstore\n      0x20\n      add\n        /* \"contracts/CreatorsContent.sol\":3598:3608  msg.sender */\n      caller\n        /* \"contracts/CreatorsContent.sol\":3582:3621  Profile(handle, msg.sender, profilePic) */\n      0xffffffffffffffffffffffffffffffffffffffff\n      and\n      dup2\n      mstore\n      0x20\n      add\n        /* \"contracts/CreatorsContent.sol\":3610:3620  profilePic */\n      dup5\n        /* \"contracts/CreatorsContent.sol\":3582:3621  Profile(handle, msg.sender, profilePic) */\n      dup2\n      mstore\n      pop\n        /* \"contracts/CreatorsContent.sol\":3568:3622  Profiles.push(Profile(handle, msg.sender, profilePic)) */\n      swap1\n      dup1\n      0x01\n      dup2\n      sload\n      add\n      dup1\n      dup3\n      sstore\n      dup1\n      swap2\n      pop\n      pop\n      0x01\n      swap1\n      sub\n      swap1\n      0x00\n      mstore\n      keccak256(0x00, 0x20)\n      swap1\n      0x03\n      mul\n      add\n      0x00\n      swap1\n      swap2\n      swap1\n      swap2\n      swap1\n      swap2\n      pop\n      0x00\n      dup3\n      add\n      mload\n      dup2\n      0x00\n      add\n      swap1\n      dup2\n      tag_113\n      swap2\n      swap1\n      tag_114\n      jump\t// in\n    tag_113:\n      pop\n      0x20\n      dup3\n      add\n      mload\n      dup2\n      0x01\n      add\n      exp(0x0100, 0x00)\n      dup2\n      sload\n      dup2\n      0xffffffffffffffffffffffffffffffffffffffff\n      mul\n      not\n      and\n      swap1\n      dup4\n      0xffffffffffffffffffffffffffffffffffffffff\n      and\n      mul\n      or\n      swap1\n      sstore\n      pop\n      0x40\n      dup3\n      add\n      mload\n      dup2\n      0x02\n      add\n      swap1\n      dup2\n      tag_115\n      swap2\n      swap1\n      tag_114\n      jump\t// in\n    tag_115:\n      pop\n      pop\n      pop\n        /* \"contracts/CreatorsContent.sol\":3639:3643  true */\n      0x01\n        /* \"contracts/CreatorsContent.sol\":3632:3643  return true */\n      swap1\n      pop\n        /* \"contracts/CreatorsContent.sol\":3182:3659  function createNewProfile(string memory handle, string memory profilePic) public returns (bool) {... */\n    tag_91:\n      swap3\n      swap2\n      pop\n      pop\n      jump\t// out\n        /* \"contracts/CreatorsContent.sol\":4270:4439  function getMyProfile() public view returns (Profile memory) {... */\n    tag_26:\n        /* \"contracts/CreatorsContent.sol\":4315:4329  Profile memory */\n      tag_116\n      tag_117\n      jump\t// in\n    tag_116:\n        /* \"contracts/CreatorsContent.sol\":4341:4368  Profile memory localProfile */\n      0x00\n        /* \"contracts/CreatorsContent.sol\":4371:4402  getProfileByAddress(msg.sender) */\n      tag_119\n        /* \"contracts/CreatorsContent.sol\":4391:4401  msg.sender */\n      caller\n        /* \"contracts/CreatorsContent.sol\":4371:4390  getProfileByAddress */\n      tag_120\n        /* \"contracts/CreatorsContent.sol\":4371:4402  getProfileByAddress(msg.sender) */\n      jump\t// in\n    tag_119:\n        /* \"contracts/CreatorsContent.sol\":4341:4402  Profile memory localProfile = getProfileByAddress(msg.sender) */\n      swap1\n      pop\n        /* \"contracts/CreatorsContent.sol\":4420:4432  localProfile */\n      dup1\n        /* \"contracts/CreatorsContent.sol\":4413:4432  return localProfile */\n      swap2\n      pop\n      pop\n        /* \"contracts/CreatorsContent.sol\":4270:4439  function getMyProfile() public view returns (Profile memory) {... */\n      swap1\n      jump\t// out\n        /* \"contracts/CreatorsContent.sol\":1282:1906  function getMyCourses() public view returns (Content[] memory) {... */\n    tag_30:\n        /* \"contracts/CreatorsContent.sol\":1327:1343  Content[] memory */\n      0x60\n        /* \"contracts/CreatorsContent.sol\":1411:1422  uint256 len */\n      0x00\n        /* \"contracts/CreatorsContent.sol\":1425:1454  getUserCoursesLen(msg.sender) */\n      tag_122\n        /* \"contracts/CreatorsContent.sol\":1443:1453  msg.sender */\n      caller\n        /* \"contracts/CreatorsContent.sol\":1425:1442  getUserCoursesLen */\n      tag_123\n        /* \"contracts/CreatorsContent.sol\":1425:1454  getUserCoursesLen(msg.sender) */\n      jump\t// in\n    tag_122:\n        /* \"contracts/CreatorsContent.sol\":1411:1454  uint256 len = getUserCoursesLen(msg.sender) */\n      swap1\n      pop\n        /* \"contracts/CreatorsContent.sol\":1512:1532  uint256 indexCourses */\n      0x00\n        /* \"contracts/CreatorsContent.sol\":1599:1627  Content[] memory userCourses */\n      dup1\n        /* \"contracts/CreatorsContent.sol\":1644:1647  len */\n      dup3\n        /* \"contracts/CreatorsContent.sol\":1630:1648  new Content[](len) */\n      0xffffffffffffffff\n      dup2\n      gt\n      iszero\n      tag_124\n      jumpi\n      tag_125\n      tag_126\n      jump\t// in\n    tag_125:\n    tag_124:\n      mload(0x40)\n      swap1\n      dup1\n      dup3\n      mstore\n      dup1\n      0x20\n      mul\n      0x20\n      add\n      dup3\n      add\n      0x40\n      mstore\n      dup1\n      iszero\n      tag_127\n      jumpi\n      dup2\n      0x20\n      add\n    tag_128:\n      tag_129\n      tag_130\n      jump\t// in\n    tag_129:\n      dup2\n      mstore\n      0x20\n      add\n      swap1\n      0x01\n      swap1\n      sub\n      swap1\n      dup2\n      tag_128\n      jumpi\n      swap1\n      pop\n    tag_127:\n      pop\n        /* \"contracts/CreatorsContent.sol\":1599:1648  Content[] memory userCourses = new Content[](len) */\n      swap1\n      pop\n        /* \"contracts/CreatorsContent.sol\":1664:1673  uint256 i */\n      0x00\n        /* \"contracts/CreatorsContent.sol\":1659:1871  for (uint256 i=0; i < Contents.length ; i++) {... */\n    tag_131:\n        /* \"contracts/CreatorsContent.sol\":1681:1689  Contents */\n      0x00\n        /* \"contracts/CreatorsContent.sol\":1681:1696  Contents.length */\n      dup1\n      sload\n      swap1\n      pop\n        /* \"contracts/CreatorsContent.sol\":1677:1678  i */\n      dup2\n        /* \"contracts/CreatorsContent.sol\":1677:1696  i < Contents.length */\n      lt\n        /* \"contracts/CreatorsContent.sol\":1659:1871  for (uint256 i=0; i < Contents.length ; i++) {... */\n      iszero\n      tag_132\n      jumpi\n        /* \"contracts/CreatorsContent.sol\":1744:1754  msg.sender */\n      caller\n        /* \"contracts/CreatorsContent.sol\":1722:1754  Contents[i].author == msg.sender */\n      0xffffffffffffffffffffffffffffffffffffffff\n      and\n        /* \"contracts/CreatorsContent.sol\":1722:1730  Contents */\n      0x00\n        /* \"contracts/CreatorsContent.sol\":1731:1732  i */\n      dup3\n        /* \"contracts/CreatorsContent.sol\":1722:1733  Contents[i] */\n      dup2\n      sload\n      dup2\n      lt\n      tag_134\n      jumpi\n      tag_135\n      tag_98\n      jump\t// in\n    tag_135:\n    tag_134:\n      swap1\n      0x00\n      mstore\n      keccak256(0x00, 0x20)\n      swap1\n      0x08\n      mul\n      add\n        /* \"contracts/CreatorsContent.sol\":1722:1740  Contents[i].author */\n      0x01\n      add\n      0x00\n      swap1\n      sload\n      swap1\n      0x0100\n      exp\n      swap1\n      div\n      0xffffffffffffffffffffffffffffffffffffffff\n      and\n        /* \"contracts/CreatorsContent.sol\":1722:1754  Contents[i].author == msg.sender */\n      0xffffffffffffffffffffffffffffffffffffffff\n      and\n      sub\n        /* \"contracts/CreatorsContent.sol\":1718:1861  if (Contents[i].author == msg.sender) {... */\n      tag_137\n      jumpi\n        /* \"contracts/CreatorsContent.sol\":1802:1810  Contents */\n      0x00\n        /* \"contracts/CreatorsContent.sol\":1811:1812  i */\n      dup2\n        /* \"contracts/CreatorsContent.sol\":1802:1813  Contents[i] */\n      dup2\n      sload\n      dup2\n      lt\n      tag_138\n      jumpi\n      tag_139\n      tag_98\n      jump\t// in\n    tag_139:\n    tag_138:\n      swap1\n      0x00\n      mstore\n      keccak256(0x00, 0x20)\n      swap1\n      0x08\n      mul\n      add\n        /* \"contracts/CreatorsContent.sol\":1774:1813  userCourses[indexCourses] = Contents[i] */\n      mload(0x40)\n      dup1\n      0x0100\n      add\n      0x40\n      mstore\n      swap1\n      dup2\n      0x00\n      dup3\n      add\n      sload\n      dup2\n      mstore\n      0x20\n      add\n      0x01\n      dup3\n      add\n      0x00\n      swap1\n      sload\n      swap1\n      0x0100\n      exp\n      swap1\n      div\n      0xffffffffffffffffffffffffffffffffffffffff\n      and\n      0xffffffffffffffffffffffffffffffffffffffff\n      and\n      0xffffffffffffffffffffffffffffffffffffffff\n      and\n      dup2\n      mstore\n      0x20\n      add\n      0x02\n      dup3\n      add\n      dup1\n      sload\n      tag_141\n      swap1\n      tag_71\n      jump\t// in\n    tag_141:\n      dup1\n      0x1f\n      add\n      0x20\n      dup1\n      swap2\n      div\n      mul\n      0x20\n      add\n      mload(0x40)\n      swap1\n      dup2\n      add\n      0x40\n      mstore\n      dup1\n      swap3\n      swap2\n      swap1\n      dup2\n      dup2\n      mstore\n      0x20\n      add\n      dup3\n      dup1\n      sload\n      tag_142\n      swap1\n      tag_71\n      jump\t// in\n    tag_142:\n      dup1\n      iszero\n      tag_143\n      jumpi\n      dup1\n      0x1f\n      lt\n      tag_144\n      jumpi\n      0x0100\n      dup1\n      dup4\n      sload\n      div\n      mul\n      dup4\n      mstore\n      swap2\n      0x20\n      add\n      swap2\n      jump(tag_143)\n    tag_144:\n      dup3\n      add\n      swap2\n      swap1\n      0x00\n      mstore\n      keccak256(0x00, 0x20)\n      swap1\n    tag_145:\n      dup2\n      sload\n      dup2\n      mstore\n      swap1\n      0x01\n      add\n      swap1\n      0x20\n      add\n      dup1\n      dup4\n      gt\n      tag_145\n      jumpi\n      dup3\n      swap1\n      sub\n      0x1f\n      and\n      dup3\n      add\n      swap2\n    tag_143:\n      pop\n      pop\n      pop\n      pop\n      pop\n      dup2\n      mstore\n      0x20\n      add\n      0x03\n      dup3\n      add\n      dup1\n      sload\n      tag_146\n      swap1\n      tag_71\n      jump\t// in\n    tag_146:\n      dup1\n      0x1f\n      add\n      0x20\n      dup1\n      swap2\n      div\n      mul\n      0x20\n      add\n      mload(0x40)\n      swap1\n      dup2\n      add\n      0x40\n      mstore\n      dup1\n      swap3\n      swap2\n      swap1\n      dup2\n      dup2\n      mstore\n      0x20\n      add\n      dup3\n      dup1\n      sload\n      tag_147\n      swap1\n      tag_71\n      jump\t// in\n    tag_147:\n      dup1\n      iszero\n      tag_148\n      jumpi\n      dup1\n      0x1f\n      lt\n      tag_149\n      jumpi\n      0x0100\n      dup1\n      dup4\n      sload\n      div\n      mul\n      dup4\n      mstore\n      swap2\n      0x20\n      add\n      swap2\n      jump(tag_148)\n    tag_149:\n      dup3\n      add\n      swap2\n      swap1\n      0x00\n      mstore\n      keccak256(0x00, 0x20)\n      swap1\n    tag_150:\n      dup2\n      sload\n      dup2\n      mstore\n      swap1\n      0x01\n      add\n      swap1\n      0x20\n      add\n      dup1\n      dup4\n      gt\n      tag_150\n      jumpi\n      dup3\n      swap1\n      sub\n      0x1f\n      and\n      dup3\n      add\n      swap2\n    tag_148:\n      pop\n      pop\n      pop\n      pop\n      pop\n      dup2\n      mstore\n      0x20\n      add\n      0x04\n      dup3\n      add\n      sload\n      dup2\n      mstore\n      0x20\n      add\n      0x05\n      dup3\n      add\n      dup1\n      sload\n      tag_151\n      swap1\n      tag_71\n      jump\t// in\n    tag_151:\n      dup1\n      0x1f\n      add\n      0x20\n      dup1\n      swap2\n      div\n      mul\n      0x20\n      add\n      mload(0x40)\n      swap1\n      dup2\n      add\n      0x40\n      mstore\n      dup1\n      swap3\n      swap2\n      swap1\n      dup2\n      dup2\n      mstore\n      0x20\n      add\n      dup3\n      dup1\n      sload\n      tag_152\n      swap1\n      tag_71\n      jump\t// in\n    tag_152:\n      dup1\n      iszero\n      tag_153\n      jumpi\n      dup1\n      0x1f\n      lt\n      tag_154\n      jumpi\n      0x0100\n      dup1\n      dup4\n      sload\n      div\n      mul\n      dup4\n      mstore\n      swap2\n      0x20\n      add\n      swap2\n      jump(tag_153)\n    tag_154:\n      dup3\n      add\n      swap2\n      swap1\n      0x00\n      mstore\n      keccak256(0x00, 0x20)\n      swap1\n    tag_155:\n      dup2\n      sload\n      dup2\n      mstore\n      swap1\n      0x01\n      add\n      swap1\n      0x20\n      add\n      dup1\n      dup4\n      gt\n      tag_155\n      jumpi\n      dup3\n      swap1\n      sub\n      0x1f\n      and\n      dup3\n      add\n      swap2\n    tag_153:\n      pop\n      pop\n      pop\n      pop\n      pop\n      dup2\n      mstore\n      0x20\n      add\n      0x06\n      dup3\n      add\n      0x00\n      swap1\n      sload\n      swap1\n      0x0100\n      exp\n      swap1\n      div\n      0xff\n      and\n      iszero\n      iszero\n      iszero\n      iszero\n      dup2\n      mstore\n      0x20\n      add\n      0x07\n      dup3\n      add\n      dup1\n      sload\n      tag_156\n      swap1\n      tag_71\n      jump\t// in\n    tag_156:\n      dup1\n      0x1f\n      add\n      0x20\n      dup1\n      swap2\n      div\n      mul\n      0x20\n      add\n      mload(0x40)\n      swap1\n      dup2\n      add\n      0x40\n      mstore\n      dup1\n      swap3\n      swap2\n      swap1\n      dup2\n      dup2\n      mstore\n      0x20\n      add\n      dup3\n      dup1\n      sload\n      tag_157\n      swap1\n      tag_71\n      jump\t// in\n    tag_157:\n      dup1\n      iszero\n      tag_158\n      jumpi\n      dup1\n      0x1f\n      lt\n      tag_159\n      jumpi\n      0x0100\n      dup1\n      dup4\n      sload\n      div\n      mul\n      dup4\n      mstore\n      swap2\n      0x20\n      add\n      swap2\n      jump(tag_158)\n    tag_159:\n      dup3\n      add\n      swap2\n      swap1\n      0x00\n      mstore\n      keccak256(0x00, 0x20)\n      swap1\n    tag_160:\n      dup2\n      sload\n      dup2\n      mstore\n      swap1\n      0x01\n      add\n      swap1\n      0x20\n      add\n      dup1\n      dup4\n      gt\n      tag_160\n      jumpi\n      dup3\n      swap1\n      sub\n      0x1f\n      and\n      dup3\n      add\n      swap2\n    tag_158:\n      pop\n      pop\n      pop\n      pop\n      pop\n      dup2\n      mstore\n      pop\n      pop\n        /* \"contracts/CreatorsContent.sol\":1774:1785  userCourses */\n      dup3\n        /* \"contracts/CreatorsContent.sol\":1786:1798  indexCourses */\n      dup5\n        /* \"contracts/CreatorsContent.sol\":1774:1799  userCourses[indexCourses] */\n      dup2\n      mload\n      dup2\n      lt\n      tag_161\n      jumpi\n      tag_162\n      tag_98\n      jump\t// in\n    tag_162:\n    tag_161:\n      0x20\n      mul\n      0x20\n      add\n      add\n        /* \"contracts/CreatorsContent.sol\":1774:1813  userCourses[indexCourses] = Contents[i] */\n      dup2\n      swap1\n      mstore\n      pop\n        /* \"contracts/CreatorsContent.sol\":1831:1846  indexCourses ++ */\n      dup3\n      dup1\n      tag_163\n      swap1\n      tag_111\n      jump\t// in\n    tag_163:\n      swap4\n      pop\n      pop\n        /* \"contracts/CreatorsContent.sol\":1718:1861  if (Contents[i].author == msg.sender) {... */\n    tag_137:\n        /* \"contracts/CreatorsContent.sol\":1699:1702  i++ */\n      dup1\n      dup1\n      tag_164\n      swap1\n      tag_111\n      jump\t// in\n    tag_164:\n      swap2\n      pop\n      pop\n        /* \"contracts/CreatorsContent.sol\":1659:1871  for (uint256 i=0; i < Contents.length ; i++) {... */\n      jump(tag_131)\n    tag_132:\n      pop\n        /* \"contracts/CreatorsContent.sol\":1888:1899  userCourses */\n      dup1\n        /* \"contracts/CreatorsContent.sol\":1881:1899  return userCourses */\n      swap4\n      pop\n      pop\n      pop\n      pop\n        /* \"contracts/CreatorsContent.sol\":1282:1906  function getMyCourses() public view returns (Content[] memory) {... */\n      swap1\n      jump\t// out\n        /* \"contracts/CreatorsContent.sol\":2019:2365  function createNewContent(... */\n    tag_35:\n        /* \"contracts/CreatorsContent.sol\":2220:2228  Contents */\n      0x00\n        /* \"contracts/CreatorsContent.sol\":2234:2326  Content(idCourses.current(), msg.sender, title, description, price, video, false, mainImage) */\n      mload(0x40)\n      dup1\n      0x0100\n      add\n      0x40\n      mstore\n      dup1\n        /* \"contracts/CreatorsContent.sol\":2242:2261  idCourses.current() */\n      tag_166\n        /* \"contracts/CreatorsContent.sol\":2242:2251  idCourses */\n      0x02\n        /* \"contracts/CreatorsContent.sol\":2242:2259  idCourses.current */\n      tag_167\n        /* \"contracts/CreatorsContent.sol\":2242:2261  idCourses.current() */\n      jump\t// in\n    tag_166:\n        /* \"contracts/CreatorsContent.sol\":2234:2326  Content(idCourses.current(), msg.sender, title, description, price, video, false, mainImage) */\n      dup2\n      mstore\n      0x20\n      add\n        /* \"contracts/CreatorsContent.sol\":2263:2273  msg.sender */\n      caller\n        /* \"contracts/CreatorsContent.sol\":2234:2326  Content(idCourses.current(), msg.sender, title, description, price, video, false, mainImage) */\n      0xffffffffffffffffffffffffffffffffffffffff\n      and\n      dup2\n      mstore\n      0x20\n      add\n        /* \"contracts/CreatorsContent.sol\":2275:2280  title */\n      dup8\n        /* \"contracts/CreatorsContent.sol\":2234:2326  Content(idCourses.current(), msg.sender, title, description, price, video, false, mainImage) */\n      dup2\n      mstore\n      0x20\n      add\n        /* \"contracts/CreatorsContent.sol\":2282:2293  description */\n      dup7\n        /* \"contracts/CreatorsContent.sol\":2234:2326  Content(idCourses.current(), msg.sender, title, description, price, video, false, mainImage) */\n      dup2\n      mstore\n      0x20\n      add\n        /* \"contracts/CreatorsContent.sol\":2295:2300  price */\n      dup6\n        /* \"contracts/CreatorsContent.sol\":2234:2326  Content(idCourses.current(), msg.sender, title, description, price, video, false, mainImage) */\n      dup2\n      mstore\n      0x20\n      add\n        /* \"contracts/CreatorsContent.sol\":2302:2307  video */\n      dup5\n        /* \"contracts/CreatorsContent.sol\":2234:2326  Content(idCourses.current(), msg.sender, title, description, price, video, false, mainImage) */\n      dup2\n      mstore\n      0x20\n      add\n        /* \"contracts/CreatorsContent.sol\":2309:2314  false */\n      0x00\n        /* \"contracts/CreatorsContent.sol\":2234:2326  Content(idCourses.current(), msg.sender, title, description, price, video, false, mainImage) */\n      iszero\n      iszero\n      dup2\n      mstore\n      0x20\n      add\n        /* \"contracts/CreatorsContent.sol\":2316:2325  mainImage */\n      dup4\n        /* \"contracts/CreatorsContent.sol\":2234:2326  Content(idCourses.current(), msg.sender, title, description, price, video, false, mainImage) */\n      dup2\n      mstore\n      pop\n        /* \"contracts/CreatorsContent.sol\":2220:2327  Contents.push(Content(idCourses.current(), msg.sender, title, description, price, video, false, mainImage)) */\n      swap1\n      dup1\n      0x01\n      dup2\n      sload\n      add\n      dup1\n      dup3\n      sstore\n      dup1\n      swap2\n      pop\n      pop\n      0x01\n      swap1\n      sub\n      swap1\n      0x00\n      mstore\n      keccak256(0x00, 0x20)\n      swap1\n      0x08\n      mul\n      add\n      0x00\n      swap1\n      swap2\n      swap1\n      swap2\n      swap1\n      swap2\n      pop\n      0x00\n      dup3\n      add\n      mload\n      dup2\n      0x00\n      add\n      sstore\n      0x20\n      dup3\n      add\n      mload\n      dup2\n      0x01\n      add\n      exp(0x0100, 0x00)\n      dup2\n      sload\n      dup2\n      0xffffffffffffffffffffffffffffffffffffffff\n      mul\n      not\n      and\n      swap1\n      dup4\n      0xffffffffffffffffffffffffffffffffffffffff\n      and\n      mul\n      or\n      swap1\n      sstore\n      pop\n      0x40\n      dup3\n      add\n      mload\n      dup2\n      0x02\n      add\n      swap1\n      dup2\n      tag_169\n      swap2\n      swap1\n      tag_114\n      jump\t// in\n    tag_169:\n      pop\n      0x60\n      dup3\n      add\n      mload\n      dup2\n      0x03\n      add\n      swap1\n      dup2\n      tag_170\n      swap2\n      swap1\n      tag_114\n      jump\t// in\n    tag_170:\n      pop\n      0x80\n      dup3\n      add\n      mload\n      dup2\n      0x04\n      add\n      sstore\n      0xa0\n      dup3\n      add\n      mload\n      dup2\n      0x05\n      add\n      swap1\n      dup2\n      tag_171\n      swap2\n      swap1\n      tag_114\n      jump\t// in\n    tag_171:\n      pop\n      0xc0\n      dup3\n      add\n      mload\n      dup2\n      0x06\n      add\n      exp(0x0100, 0x00)\n      dup2\n      sload\n      dup2\n      0xff\n      mul\n      not\n      and\n      swap1\n      dup4\n      iszero\n      iszero\n      mul\n      or\n      swap1\n      sstore\n      pop\n      0xe0\n      dup3\n      add\n      mload\n      dup2\n      0x07\n      add\n      swap1\n      dup2\n      tag_172\n      swap2\n      swap1\n      tag_114\n      jump\t// in\n    tag_172:\n      pop\n      pop\n      pop\n        /* \"contracts/CreatorsContent.sol\":2337:2358  idCourses.increment() */\n      tag_173\n        /* \"contracts/CreatorsContent.sol\":2337:2346  idCourses */\n      0x02\n        /* \"contracts/CreatorsContent.sol\":2337:2356  idCourses.increment */\n      tag_174\n        /* \"contracts/CreatorsContent.sol\":2337:2358  idCourses.increment() */\n      jump\t// in\n    tag_173:\n        /* \"contracts/CreatorsContent.sol\":2019:2365  function createNewContent(... */\n      pop\n      pop\n      pop\n      pop\n      pop\n      jump\t// out\n        /* \"contracts/CreatorsContent.sol\":554:579  Content[] public Contents */\n    tag_39:\n      0x00\n      dup2\n      dup2\n      sload\n      dup2\n      lt\n      tag_175\n      jumpi\n      0x00\n      dup1\n      revert\n    tag_175:\n      swap1\n      0x00\n      mstore\n      keccak256(0x00, 0x20)\n      swap1\n      0x08\n      mul\n      add\n      0x00\n      swap2\n      pop\n      swap1\n      pop\n      dup1\n      0x00\n      add\n      sload\n      swap1\n      dup1\n      0x01\n      add\n      0x00\n      swap1\n      sload\n      swap1\n      0x0100\n      exp\n      swap1\n      div\n      0xffffffffffffffffffffffffffffffffffffffff\n      and\n      swap1\n      dup1\n      0x02\n      add\n      dup1\n      sload\n      tag_177\n      swap1\n      tag_71\n      jump\t// in\n    tag_177:\n      dup1\n      0x1f\n      add\n      0x20\n      dup1\n      swap2\n      div\n      mul\n      0x20\n      add\n      mload(0x40)\n      swap1\n      dup2\n      add\n      0x40\n      mstore\n      dup1\n      swap3\n      swap2\n      swap1\n      dup2\n      dup2\n      mstore\n      0x20\n      add\n      dup3\n      dup1\n      sload\n      tag_178\n      swap1\n      tag_71\n      jump\t// in\n    tag_178:\n      dup1\n      iszero\n      tag_179\n      jumpi\n      dup1\n      0x1f\n      lt\n      tag_180\n      jumpi\n      0x0100\n      dup1\n      dup4\n      sload\n      div\n      mul\n      dup4\n      mstore\n      swap2\n      0x20\n      add\n      swap2\n      jump(tag_179)\n    tag_180:\n      dup3\n      add\n      swap2\n      swap1\n      0x00\n      mstore\n      keccak256(0x00, 0x20)\n      swap1\n    tag_181:\n      dup2\n      sload\n      dup2\n      mstore\n      swap1\n      0x01\n      add\n      swap1\n      0x20\n      add\n      dup1\n      dup4\n      gt\n      tag_181\n      jumpi\n      dup3\n      swap1\n      sub\n      0x1f\n      and\n      dup3\n      add\n      swap2\n    tag_179:\n      pop\n      pop\n      pop\n      pop\n      pop\n      swap1\n      dup1\n      0x03\n      add\n      dup1\n      sload\n      tag_182\n      swap1\n      tag_71\n      jump\t// in\n    tag_182:\n      dup1\n      0x1f\n      add\n      0x20\n      dup1\n      swap2\n      div\n      mul\n      0x20\n      add\n      mload(0x40)\n      swap1\n      dup2\n      add\n      0x40\n      mstore\n      dup1\n      swap3\n      swap2\n      swap1\n      dup2\n      dup2\n      mstore\n      0x20\n      add\n      dup3\n      dup1\n      sload\n      tag_183\n      swap1\n      tag_71\n      jump\t// in\n    tag_183:\n      dup1\n      iszero\n      tag_184\n      jumpi\n      dup1\n      0x1f\n      lt\n      tag_185\n      jumpi\n      0x0100\n      dup1\n      dup4\n      sload\n      div\n      mul\n      dup4\n      mstore\n      swap2\n      0x20\n      add\n      swap2\n      jump(tag_184)\n    tag_185:\n      dup3\n      add\n      swap2\n      swap1\n      0x00\n      mstore\n      keccak256(0x00, 0x20)\n      swap1\n    tag_186:\n      dup2\n      sload\n      dup2\n      mstore\n      swap1\n      0x01\n      add\n      swap1\n      0x20\n      add\n      dup1\n      dup4\n      gt\n      tag_186\n      jumpi\n      dup3\n      swap1\n      sub\n      0x1f\n      and\n      dup3\n      add\n      swap2\n    tag_184:\n      pop\n      pop\n      pop\n      pop\n      pop\n      swap1\n      dup1\n      0x04\n      add\n      sload\n      swap1\n      dup1\n      0x05\n      add\n      dup1\n      sload\n      tag_187\n      swap1\n      tag_71\n      jump\t// in\n    tag_187:\n      dup1\n      0x1f\n      add\n      0x20\n      dup1\n      swap2\n      div\n      mul\n      0x20\n      add\n      mload(0x40)\n      swap1\n      dup2\n      add\n      0x40\n      mstore\n      dup1\n      swap3\n      swap2\n      swap1\n      dup2\n      dup2\n      mstore\n      0x20\n      add\n      dup3\n      dup1\n      sload\n      tag_188\n      swap1\n      tag_71\n      jump\t// in\n    tag_188:\n      dup1\n      iszero\n      tag_189\n      jumpi\n      dup1\n      0x1f\n      lt\n      tag_190\n      jumpi\n      0x0100\n      dup1\n      dup4\n      sload\n      div\n      mul\n      dup4\n      mstore\n      swap2\n      0x20\n      add\n      swap2\n      jump(tag_189)\n    tag_190:\n      dup3\n      add\n      swap2\n      swap1\n      0x00\n      mstore\n      keccak256(0x00, 0x20)\n      swap1\n    tag_191:\n      dup2\n      sload\n      dup2\n      mstore\n      swap1\n      0x01\n      add\n      swap1\n      0x20\n      add\n      dup1\n      dup4\n      gt\n      tag_191\n      jumpi\n      dup3\n      swap1\n      sub\n      0x1f\n      and\n      dup3\n      add\n      swap2\n    tag_189:\n      pop\n      pop\n      pop\n      pop\n      pop\n      swap1\n      dup1\n      0x06\n      add\n      0x00\n      swap1\n      sload\n      swap1\n      0x0100\n      exp\n      swap1\n      div\n      0xff\n      and\n      swap1\n      dup1\n      0x07\n      add\n      dup1\n      sload\n      tag_192\n      swap1\n      tag_71\n      jump\t// in\n    tag_192:\n      dup1\n      0x1f\n      add\n      0x20\n      dup1\n      swap2\n      div\n      mul\n      0x20\n      add\n      mload(0x40)\n      swap1\n      dup2\n      add\n      0x40\n      mstore\n      dup1\n      swap3\n      swap2\n      swap1\n      dup2\n      dup2\n      mstore\n      0x20\n      add\n      dup3\n      dup1\n      sload\n      tag_193\n      swap1\n      tag_71\n      jump\t// in\n    tag_193:\n      dup1\n      iszero\n      tag_194\n      jumpi\n      dup1\n      0x1f\n      lt\n      tag_195\n      jumpi\n      0x0100\n      dup1\n      dup4\n      sload\n      div\n      mul\n      dup4\n      mstore\n      swap2\n      0x20\n      add\n      swap2\n      jump(tag_194)\n    tag_195:\n      dup3\n      add\n      swap2\n      swap1\n      0x00\n      mstore\n      keccak256(0x00, 0x20)\n      swap1\n    tag_196:\n      dup2\n      sload\n      dup2\n      mstore\n      swap1\n      0x01\n      add\n      swap1\n      0x20\n      add\n      dup1\n      dup4\n      gt\n      tag_196\n      jumpi\n      dup3\n      swap1\n      sub\n      0x1f\n      and\n      dup3\n      add\n      swap2\n    tag_194:\n      pop\n      pop\n      pop\n      pop\n      pop\n      swap1\n      pop\n      dup9\n      jump\t// out\n        /* \"contracts/CreatorsContent.sol\":585:610  Profile[] public Profiles */\n    tag_44:\n      0x01\n      dup2\n      dup2\n      sload\n      dup2\n      lt\n      tag_197\n      jumpi\n      0x00\n      dup1\n      revert\n    tag_197:\n      swap1\n      0x00\n      mstore\n      keccak256(0x00, 0x20)\n      swap1\n      0x03\n      mul\n      add\n      0x00\n      swap2\n      pop\n      swap1\n      pop\n      dup1\n      0x00\n      add\n      dup1\n      sload\n      tag_199\n      swap1\n      tag_71\n      jump\t// in\n    tag_199:\n      dup1\n      0x1f\n      add\n      0x20\n      dup1\n      swap2\n      div\n      mul\n      0x20\n      add\n      mload(0x40)\n      swap1\n      dup2\n      add\n      0x40\n      mstore\n      dup1\n      swap3\n      swap2\n      swap1\n      dup2\n      dup2\n      mstore\n      0x20\n      add\n      dup3\n      dup1\n      sload\n      tag_200\n      swap1\n      tag_71\n      jump\t// in\n    tag_200:\n      dup1\n      iszero\n      tag_201\n      jumpi\n      dup1\n      0x1f\n      lt\n      tag_202\n      jumpi\n      0x0100\n      dup1\n      dup4\n      sload\n      div\n      mul\n      dup4\n      mstore\n      swap2\n      0x20\n      add\n      swap2\n      jump(tag_201)\n    tag_202:\n      dup3\n      add\n      swap2\n      swap1\n      0x00\n      mstore\n      keccak256(0x00, 0x20)\n      swap1\n    tag_203:\n      dup2\n      sload\n      dup2\n      mstore\n      swap1\n      0x01\n      add\n      swap1\n      0x20\n      add\n      dup1\n      dup4\n      gt\n      tag_203\n      jumpi\n      dup3\n      swap1\n      sub\n      0x1f\n      and\n      dup3\n      add\n      swap2\n    tag_201:\n      pop\n      pop\n      pop\n      pop\n      pop\n      swap1\n      dup1\n      0x01\n      add\n      0x00\n      swap1\n      sload\n      swap1\n      0x0100\n      exp\n      swap1\n      div\n      0xffffffffffffffffffffffffffffffffffffffff\n      and\n      swap1\n      dup1\n      0x02\n      add\n      dup1\n      sload\n      tag_204\n      swap1\n      tag_71\n      jump\t// in\n    tag_204:\n      dup1\n      0x1f\n      add\n      0x20\n      dup1\n      swap2\n      div\n      mul\n      0x20\n      add\n      mload(0x40)\n      swap1\n      dup2\n      add\n      0x40\n      mstore\n      dup1\n      swap3\n      swap2\n      swap1\n      dup2\n      dup2\n      mstore\n      0x20\n      add\n      dup3\n      dup1\n      sload\n      tag_205\n      swap1\n      tag_71\n      jump\t// in\n    tag_205:\n      dup1\n      iszero\n      tag_206\n      jumpi\n      dup1\n      0x1f\n      lt\n      tag_207\n      jumpi\n      0x0100\n      dup1\n      dup4\n      sload\n      div\n      mul\n      dup4\n      mstore\n      swap2\n      0x20\n      add\n      swap2\n      jump(tag_206)\n    tag_207:\n      dup3\n      add\n      swap2\n      swap1\n      0x00\n      mstore\n      keccak256(0x00, 0x20)\n      swap1\n    tag_208:\n      dup2\n      sload\n      dup2\n      mstore\n      swap1\n      0x01\n      add\n      swap1\n      0x20\n      add\n      dup1\n      dup4\n      gt\n      tag_208\n      jumpi\n      dup3\n      swap1\n      sub\n      0x1f\n      and\n      dup3\n      add\n      swap2\n    tag_206:\n      pop\n      pop\n      pop\n      pop\n      pop\n      swap1\n      pop\n      dup4\n      jump\t// out\n        /* \"contracts/CreatorsContent.sol\":983:1276  function getCourseDetail(uint256 id) public view returns (Content memory) {... */\n    tag_49:\n        /* \"contracts/CreatorsContent.sol\":1041:1055  Content memory */\n      tag_209\n      tag_130\n      jump\t// in\n    tag_209:\n        /* \"contracts/CreatorsContent.sol\":1067:1088  Content memory detail */\n      tag_211\n      tag_130\n      jump\t// in\n    tag_211:\n        /* \"contracts/CreatorsContent.sol\":1104:1113  uint256 i */\n      0x00\n        /* \"contracts/CreatorsContent.sol\":1099:1247  for (uint256 i=0; i < Contents.length ; i++) {... */\n    tag_212:\n        /* \"contracts/CreatorsContent.sol\":1121:1129  Contents */\n      0x00\n        /* \"contracts/CreatorsContent.sol\":1121:1136  Contents.length */\n      dup1\n      sload\n      swap1\n      pop\n        /* \"contracts/CreatorsContent.sol\":1117:1118  i */\n      dup2\n        /* \"contracts/CreatorsContent.sol\":1117:1136  i < Contents.length */\n      lt\n        /* \"contracts/CreatorsContent.sol\":1099:1247  for (uint256 i=0; i < Contents.length ; i++) {... */\n      iszero\n      tag_213\n      jumpi\n        /* \"contracts/CreatorsContent.sol\":1180:1182  id */\n      dup4\n        /* \"contracts/CreatorsContent.sol\":1162:1170  Contents */\n      0x00\n        /* \"contracts/CreatorsContent.sol\":1171:1172  i */\n      dup3\n        /* \"contracts/CreatorsContent.sol\":1162:1173  Contents[i] */\n      dup2\n      sload\n      dup2\n      lt\n      tag_215\n      jumpi\n      tag_216\n      tag_98\n      jump\t// in\n    tag_216:\n    tag_215:\n      swap1\n      0x00\n      mstore\n      keccak256(0x00, 0x20)\n      swap1\n      0x08\n      mul\n      add\n        /* \"contracts/CreatorsContent.sol\":1162:1176  Contents[i].id */\n      0x00\n      add\n      sload\n        /* \"contracts/CreatorsContent.sol\":1162:1182  Contents[i].id == id */\n      sub\n        /* \"contracts/CreatorsContent.sol\":1158:1237  if (Contents[i].id == id) {... */\n      tag_218\n      jumpi\n        /* \"contracts/CreatorsContent.sol\":1211:1219  Contents */\n      0x00\n        /* \"contracts/CreatorsContent.sol\":1220:1221  i */\n      dup2\n        /* \"contracts/CreatorsContent.sol\":1211:1222  Contents[i] */\n      dup2\n      sload\n      dup2\n      lt\n      tag_219\n      jumpi\n      tag_220\n      tag_98\n      jump\t// in\n    tag_220:\n    tag_219:\n      swap1\n      0x00\n      mstore\n      keccak256(0x00, 0x20)\n      swap1\n      0x08\n      mul\n      add\n        /* \"contracts/CreatorsContent.sol\":1202:1222  detail = Contents[i] */\n      mload(0x40)\n      dup1\n      0x0100\n      add\n      0x40\n      mstore\n      swap1\n      dup2\n      0x00\n      dup3\n      add\n      sload\n      dup2\n      mstore\n      0x20\n      add\n      0x01\n      dup3\n      add\n      0x00\n      swap1\n      sload\n      swap1\n      0x0100\n      exp\n      swap1\n      div\n      0xffffffffffffffffffffffffffffffffffffffff\n      and\n      0xffffffffffffffffffffffffffffffffffffffff\n      and\n      0xffffffffffffffffffffffffffffffffffffffff\n      and\n      dup2\n      mstore\n      0x20\n      add\n      0x02\n      dup3\n      add\n      dup1\n      sload\n      tag_222\n      swap1\n      tag_71\n      jump\t// in\n    tag_222:\n      dup1\n      0x1f\n      add\n      0x20\n      dup1\n      swap2\n      div\n      mul\n      0x20\n      add\n      mload(0x40)\n      swap1\n      dup2\n      add\n      0x40\n      mstore\n      dup1\n      swap3\n      swap2\n      swap1\n      dup2\n      dup2\n      mstore\n      0x20\n      add\n      dup3\n      dup1\n      sload\n      tag_223\n      swap1\n      tag_71\n      jump\t// in\n    tag_223:\n      dup1\n      iszero\n      tag_224\n      jumpi\n      dup1\n      0x1f\n      lt\n      tag_225\n      jumpi\n      0x0100\n      dup1\n      dup4\n      sload\n      div\n      mul\n      dup4\n      mstore\n      swap2\n      0x20\n      add\n      swap2\n      jump(tag_224)\n    tag_225:\n      dup3\n      add\n      swap2\n      swap1\n      0x00\n      mstore\n      keccak256(0x00, 0x20)\n      swap1\n    tag_226:\n      dup2\n      sload\n      dup2\n      mstore\n      swap1\n      0x01\n      add\n      swap1\n      0x20\n      add\n      dup1\n      dup4\n      gt\n      tag_226\n      jumpi\n      dup3\n      swap1\n      sub\n      0x1f\n      and\n      dup3\n      add\n      swap2\n    tag_224:\n      pop\n      pop\n      pop\n      pop\n      pop\n      dup2\n      mstore\n      0x20\n      add\n      0x03\n      dup3\n      add\n      dup1\n      sload\n      tag_227\n      swap1\n      tag_71\n      jump\t// in\n    tag_227:\n      dup1\n      0x1f\n      add\n      0x20\n      dup1\n      swap2\n      div\n      mul\n      0x20\n      add\n      mload(0x40)\n      swap1\n      dup2\n      add\n      0x40\n      mstore\n      dup1\n      swap3\n      swap2\n      swap1\n      dup2\n      dup2\n      mstore\n      0x20\n      add\n      dup3\n      dup1\n      sload\n      tag_228\n      swap1\n      tag_71\n      jump\t// in\n    tag_228:\n      dup1\n      iszero\n      tag_229\n      jumpi\n      dup1\n      0x1f\n      lt\n      tag_230\n      jumpi\n      0x0100\n      dup1\n      dup4\n      sload\n      div\n      mul\n      dup4\n      mstore\n      swap2\n      0x20\n      add\n      swap2\n      jump(tag_229)\n    tag_230:\n      dup3\n      add\n      swap2\n      swap1\n      0x00\n      mstore\n      keccak256(0x00, 0x20)\n      swap1\n    tag_231:\n      dup2\n      sload\n      dup2\n      mstore\n      swap1\n      0x01\n      add\n      swap1\n      0x20\n      add\n      dup1\n      dup4\n      gt\n      tag_231\n      jumpi\n      dup3\n      swap1\n      sub\n      0x1f\n      and\n      dup3\n      add\n      swap2\n    tag_229:\n      pop\n      pop\n      pop\n      pop\n      pop\n      dup2\n      mstore\n      0x20\n      add\n      0x04\n      dup3\n      add\n      sload\n      dup2\n      mstore\n      0x20\n      add\n      0x05\n      dup3\n      add\n      dup1\n      sload\n      tag_232\n      swap1\n      tag_71\n      jump\t// in\n    tag_232:\n      dup1\n      0x1f\n      add\n      0x20\n      dup1\n      swap2\n      div\n      mul\n      0x20\n      add\n      mload(0x40)\n      swap1\n      dup2\n      add\n      0x40\n      mstore\n      dup1\n      swap3\n      swap2\n      swap1\n      dup2\n      dup2\n      mstore\n      0x20\n      add\n      dup3\n      dup1\n      sload\n      tag_233\n      swap1\n      tag_71\n      jump\t// in\n    tag_233:\n      dup1\n      iszero\n      tag_234\n      jumpi\n      dup1\n      0x1f\n      lt\n      tag_235\n      jumpi\n      0x0100\n      dup1\n      dup4\n      sload\n      div\n      mul\n      dup4\n      mstore\n      swap2\n      0x20\n      add\n      swap2\n      jump(tag_234)\n    tag_235:\n      dup3\n      add\n      swap2\n      swap1\n      0x00\n      mstore\n      keccak256(0x00, 0x20)\n      swap1\n    tag_236:\n      dup2\n      sload\n      dup2\n      mstore\n      swap1\n      0x01\n      add\n      swap1\n      0x20\n      add\n      dup1\n      dup4\n      gt\n      tag_236\n      jumpi\n      dup3\n      swap1\n      sub\n      0x1f\n      and\n      dup3\n      add\n      swap2\n    tag_234:\n      pop\n      pop\n      pop\n      pop\n      pop\n      dup2\n      mstore\n      0x20\n      add\n      0x06\n      dup3\n      add\n      0x00\n      swap1\n      sload\n      swap1\n      0x0100\n      exp\n      swap1\n      div\n      0xff\n      and\n      iszero\n      iszero\n      iszero\n      iszero\n      dup2\n      mstore\n      0x20\n      add\n      0x07\n      dup3\n      add\n      dup1\n      sload\n      tag_237\n      swap1\n      tag_71\n      jump\t// in\n    tag_237:\n      dup1\n      0x1f\n      add\n      0x20\n      dup1\n      swap2\n      div\n      mul\n      0x20\n      add\n      mload(0x40)\n      swap1\n      dup2\n      add\n      0x40\n      mstore\n      dup1\n      swap3\n      swap2\n      swap1\n      dup2\n      dup2\n      mstore\n      0x20\n      add\n      dup3\n      dup1\n      sload\n      tag_238\n      swap1\n      tag_71\n      jump\t// in\n    tag_238:\n      dup1\n      iszero\n      tag_239\n      jumpi\n      dup1\n      0x1f\n      lt\n      tag_240\n      jumpi\n      0x0100\n      dup1\n      dup4\n      sload\n      div\n      mul\n      dup4\n      mstore\n      swap2\n      0x20\n      add\n      swap2\n      jump(tag_239)\n    tag_240:\n      dup3\n      add\n      swap2\n      swap1\n      0x00\n      mstore\n      keccak256(0x00, 0x20)\n      swap1\n    tag_241:\n      dup2\n      sload\n      dup2\n      mstore\n      swap1\n      0x01\n      add\n      swap1\n      0x20\n      add\n      dup1\n      dup4\n      gt\n      tag_241\n      jumpi\n      dup3\n      swap1\n      sub\n      0x1f\n      and\n      dup3\n      add\n      swap2\n    tag_239:\n      pop\n      pop\n      pop\n      pop\n      pop\n      dup2\n      mstore\n      pop\n      pop\n      swap2\n      pop\n        /* \"contracts/CreatorsContent.sol\":1158:1237  if (Contents[i].id == id) {... */\n    tag_218:\n        /* \"contracts/CreatorsContent.sol\":1139:1142  i++ */\n      dup1\n      dup1\n      tag_242\n      swap1\n      tag_111\n      jump\t// in\n    tag_242:\n      swap2\n      pop\n      pop\n        /* \"contracts/CreatorsContent.sol\":1099:1247  for (uint256 i=0; i < Contents.length ; i++) {... */\n      jump(tag_212)\n    tag_213:\n      pop\n        /* \"contracts/CreatorsContent.sol\":1263:1269  detail */\n      dup1\n        /* \"contracts/CreatorsContent.sol\":1256:1269  return detail */\n      swap2\n      pop\n      pop\n        /* \"contracts/CreatorsContent.sol\":983:1276  function getCourseDetail(uint256 id) public view returns (Content memory) {... */\n      swap2\n      swap1\n      pop\n      jump\t// out\n        /* \"contracts/CreatorsContent.sol\":2371:2550  function compareStrings(string memory a, string memory b) public pure returns (bool) {... */\n    tag_54:\n        /* \"contracts/CreatorsContent.sol\":2450:2454  bool */\n      0x00\n        /* \"contracts/CreatorsContent.sol\":2538:2539  b */\n      dup2\n        /* \"contracts/CreatorsContent.sol\":2520:2541  abi.encodePacked((b)) */\n      add(0x20, mload(0x40))\n      tag_244\n      swap2\n      swap1\n      tag_245\n      jump\t// in\n    tag_244:\n      mload(0x40)\n      0x20\n      dup2\n      dup4\n      sub\n      sub\n      dup2\n      mstore\n      swap1\n      0x40\n      mstore\n        /* \"contracts/CreatorsContent.sol\":2510:2542  keccak256(abi.encodePacked((b))) */\n      dup1\n      mload\n      swap1\n      0x20\n      add\n      keccak256\n        /* \"contracts/CreatorsContent.sol\":2502:2503  a */\n      dup4\n        /* \"contracts/CreatorsContent.sol\":2484:2505  abi.encodePacked((a)) */\n      add(0x20, mload(0x40))\n      tag_246\n      swap2\n      swap1\n      tag_245\n      jump\t// in\n    tag_246:\n      mload(0x40)\n      0x20\n      dup2\n      dup4\n      sub\n      sub\n      dup2\n      mstore\n      swap1\n      0x40\n      mstore\n        /* \"contracts/CreatorsContent.sol\":2474:2506  keccak256(abi.encodePacked((a))) */\n      dup1\n      mload\n      swap1\n      0x20\n      add\n      keccak256\n        /* \"contracts/CreatorsContent.sol\":2474:2542  keccak256(abi.encodePacked((a))) == keccak256(abi.encodePacked((b))) */\n      eq\n        /* \"contracts/CreatorsContent.sol\":2466:2543  return (keccak256(abi.encodePacked((a))) == keccak256(abi.encodePacked((b)))) */\n      swap1\n      pop\n        /* \"contracts/CreatorsContent.sol\":2371:2550  function compareStrings(string memory a, string memory b) public pure returns (bool) {... */\n      swap3\n      swap2\n      pop\n      pop\n      jump\t// out\n        /* \"contracts/CreatorsContent.sol\":3665:4053  function setProfileHandle(string memory handle) public returns (bool) {... */\n    tag_59:\n        /* \"contracts/CreatorsContent.sol\":3729:3733  bool */\n      0x00\n        /* \"contracts/CreatorsContent.sol\":3746:3759  uint256 index */\n      dup1\n        /* \"contracts/CreatorsContent.sol\":3762:3798  getProficeIndexByAddress(msg.sender) */\n      tag_248\n        /* \"contracts/CreatorsContent.sol\":3787:3797  msg.sender */\n      caller\n        /* \"contracts/CreatorsContent.sol\":3762:3786  getProficeIndexByAddress */\n      tag_249\n        /* \"contracts/CreatorsContent.sol\":3762:3798  getProficeIndexByAddress(msg.sender) */\n      jump\t// in\n    tag_248:\n        /* \"contracts/CreatorsContent.sol\":3746:3798  uint256 index = getProficeIndexByAddress(msg.sender) */\n      swap1\n      pop\n        /* \"contracts/CreatorsContent.sol\":3814:3823  uint256 i */\n      0x00\n        /* \"contracts/CreatorsContent.sol\":3809:3984  for (uint256 i=0; i < Profiles.length; i++) {... */\n    tag_250:\n        /* \"contracts/CreatorsContent.sol\":3831:3839  Profiles */\n      0x01\n        /* \"contracts/CreatorsContent.sol\":3831:3846  Profiles.length */\n      dup1\n      sload\n      swap1\n      pop\n        /* \"contracts/CreatorsContent.sol\":3827:3828  i */\n      dup2\n        /* \"contracts/CreatorsContent.sol\":3827:3846  i < Profiles.length */\n      lt\n        /* \"contracts/CreatorsContent.sol\":3809:3984  for (uint256 i=0; i < Profiles.length; i++) {... */\n      iszero\n      tag_251\n      jumpi\n        /* \"contracts/CreatorsContent.sol\":3871:3913  compareStrings(Profiles[i].handle, handle) */\n      tag_253\n        /* \"contracts/CreatorsContent.sol\":3886:3894  Profiles */\n      0x01\n        /* \"contracts/CreatorsContent.sol\":3895:3896  i */\n      dup3\n        /* \"contracts/CreatorsContent.sol\":3886:3897  Profiles[i] */\n      dup2\n      sload\n      dup2\n      lt\n      tag_254\n      jumpi\n      tag_255\n      tag_98\n      jump\t// in\n    tag_255:\n    tag_254:\n      swap1\n      0x00\n      mstore\n      keccak256(0x00, 0x20)\n      swap1\n      0x03\n      mul\n      add\n        /* \"contracts/CreatorsContent.sol\":3886:3904  Profiles[i].handle */\n      0x00\n      add\n        /* \"contracts/CreatorsContent.sol\":3871:3913  compareStrings(Profiles[i].handle, handle) */\n      dup1\n      sload\n      tag_257\n      swap1\n      tag_71\n      jump\t// in\n    tag_257:\n      dup1\n      0x1f\n      add\n      0x20\n      dup1\n      swap2\n      div\n      mul\n      0x20\n      add\n      mload(0x40)\n      swap1\n      dup2\n      add\n      0x40\n      mstore\n      dup1\n      swap3\n      swap2\n      swap1\n      dup2\n      dup2\n      mstore\n      0x20\n      add\n      dup3\n      dup1\n      sload\n      tag_258\n      swap1\n      tag_71\n      jump\t// in\n    tag_258:\n      dup1\n      iszero\n      tag_259\n      jumpi\n      dup1\n      0x1f\n      lt\n      tag_260\n      jumpi\n      0x0100\n      dup1\n      dup4\n      sload\n      div\n      mul\n      dup4\n      mstore\n      swap2\n      0x20\n      add\n      swap2\n      jump(tag_259)\n    tag_260:\n      dup3\n      add\n      swap2\n      swap1\n      0x00\n      mstore\n      keccak256(0x00, 0x20)\n      swap1\n    tag_261:\n      dup2\n      sload\n      dup2\n      mstore\n      swap1\n      0x01\n      add\n      swap1\n      0x20\n      add\n      dup1\n      dup4\n      gt\n      tag_261\n      jumpi\n      dup3\n      swap1\n      sub\n      0x1f\n      and\n      dup3\n      add\n      swap2\n    tag_259:\n      pop\n      pop\n      pop\n      pop\n      pop\n        /* \"contracts/CreatorsContent.sol\":3906:3912  handle */\n      dup6\n        /* \"contracts/CreatorsContent.sol\":3871:3885  compareStrings */\n      tag_54\n        /* \"contracts/CreatorsContent.sol\":3871:3913  compareStrings(Profiles[i].handle, handle) */\n      jump\t// in\n    tag_253:\n        /* \"contracts/CreatorsContent.sol\":3871:3927  compareStrings(Profiles[i].handle, handle) && i != index */\n      dup1\n      iszero\n      tag_262\n      jumpi\n      pop\n        /* \"contracts/CreatorsContent.sol\":3922:3927  index */\n      dup2\n        /* \"contracts/CreatorsContent.sol\":3917:3918  i */\n      dup2\n        /* \"contracts/CreatorsContent.sol\":3917:3927  i != index */\n      eq\n      iszero\n        /* \"contracts/CreatorsContent.sol\":3871:3927  compareStrings(Profiles[i].handle, handle) && i != index */\n    tag_262:\n        /* \"contracts/CreatorsContent.sol\":3867:3974  if (compareStrings(Profiles[i].handle, handle) && i != index) {... */\n      iszero\n      tag_263\n      jumpi\n        /* \"contracts/CreatorsContent.sol\":3954:3959  false */\n      0x00\n        /* \"contracts/CreatorsContent.sol\":3947:3959  return false */\n      swap3\n      pop\n      pop\n      pop\n      jump(tag_247)\n        /* \"contracts/CreatorsContent.sol\":3867:3974  if (compareStrings(Profiles[i].handle, handle) && i != index) {... */\n    tag_263:\n        /* \"contracts/CreatorsContent.sol\":3848:3851  i++ */\n      dup1\n      dup1\n      tag_264\n      swap1\n      tag_111\n      jump\t// in\n    tag_264:\n      swap2\n      pop\n      pop\n        /* \"contracts/CreatorsContent.sol\":3809:3984  for (uint256 i=0; i < Profiles.length; i++) {... */\n      jump(tag_250)\n    tag_251:\n      pop\n        /* \"contracts/CreatorsContent.sol\":4019:4025  handle */\n      dup3\n        /* \"contracts/CreatorsContent.sol\":3994:4002  Profiles */\n      0x01\n        /* \"contracts/CreatorsContent.sol\":4003:4008  index */\n      dup3\n        /* \"contracts/CreatorsContent.sol\":3994:4009  Profiles[index] */\n      dup2\n      sload\n      dup2\n      lt\n      tag_265\n      jumpi\n      tag_266\n      tag_98\n      jump\t// in\n    tag_266:\n    tag_265:\n      swap1\n      0x00\n      mstore\n      keccak256(0x00, 0x20)\n      swap1\n      0x03\n      mul\n      add\n        /* \"contracts/CreatorsContent.sol\":3994:4016  Profiles[index].handle */\n      0x00\n      add\n        /* \"contracts/CreatorsContent.sol\":3994:4025  Profiles[index].handle = handle */\n      swap1\n      dup2\n      tag_268\n      swap2\n      swap1\n      tag_114\n      jump\t// in\n    tag_268:\n      pop\n        /* \"contracts/CreatorsContent.sol\":4042:4046  true */\n      0x01\n        /* \"contracts/CreatorsContent.sol\":4035:4046  return true */\n      swap2\n      pop\n      pop\n        /* \"contracts/CreatorsContent.sol\":3665:4053  function setProfileHandle(string memory handle) public returns (bool) {... */\n    tag_247:\n      swap2\n      swap1\n      pop\n      jump\t// out\n        /* \"contracts/CreatorsContent.sol\":4059:4264  function setProfileImage(string memory image) public returns (bool) {... */\n    tag_63:\n        /* \"contracts/CreatorsContent.sol\":4121:4125  bool */\n      0x00\n        /* \"contracts/CreatorsContent.sol\":4138:4151  uint256 index */\n      dup1\n        /* \"contracts/CreatorsContent.sol\":4154:4190  getProficeIndexByAddress(msg.sender) */\n      tag_270\n        /* \"contracts/CreatorsContent.sol\":4179:4189  msg.sender */\n      caller\n        /* \"contracts/CreatorsContent.sol\":4154:4178  getProficeIndexByAddress */\n      tag_249\n        /* \"contracts/CreatorsContent.sol\":4154:4190  getProficeIndexByAddress(msg.sender) */\n      jump\t// in\n    tag_270:\n        /* \"contracts/CreatorsContent.sol\":4138:4190  uint256 index = getProficeIndexByAddress(msg.sender) */\n      swap1\n      pop\n        /* \"contracts/CreatorsContent.sol\":4230:4235  image */\n      dup3\n        /* \"contracts/CreatorsContent.sol\":4201:4209  Profiles */\n      0x01\n        /* \"contracts/CreatorsContent.sol\":4210:4215  index */\n      dup3\n        /* \"contracts/CreatorsContent.sol\":4201:4216  Profiles[index] */\n      dup2\n      sload\n      dup2\n      lt\n      tag_271\n      jumpi\n      tag_272\n      tag_98\n      jump\t// in\n    tag_272:\n    tag_271:\n      swap1\n      0x00\n      mstore\n      keccak256(0x00, 0x20)\n      swap1\n      0x03\n      mul\n      add\n        /* \"contracts/CreatorsContent.sol\":4201:4227  Profiles[index].profilePic */\n      0x02\n      add\n        /* \"contracts/CreatorsContent.sol\":4201:4235  Profiles[index].profilePic = image */\n      swap1\n      dup2\n      tag_274\n      swap2\n      swap1\n      tag_114\n      jump\t// in\n    tag_274:\n      pop\n        /* \"contracts/CreatorsContent.sol\":4253:4257  true */\n      0x01\n        /* \"contracts/CreatorsContent.sol\":4246:4257  return true */\n      swap2\n      pop\n      pop\n        /* \"contracts/CreatorsContent.sol\":4059:4264  function setProfileImage(string memory image) public returns (bool) {... */\n      swap2\n      swap1\n      pop\n      jump\t// out\n        /* \"@openzeppelin/contracts/utils/Counters.sol\":1309:1393  function reset(Counter storage counter) internal {... */\n    tag_65:\n        /* \"@openzeppelin/contracts/utils/Counters.sol\":1385:1386  0 */\n      0x00\n        /* \"@openzeppelin/contracts/utils/Counters.sol\":1368:1375  counter */\n      dup2\n        /* \"@openzeppelin/contracts/utils/Counters.sol\":1368:1382  counter._value */\n      0x00\n      add\n        /* \"@openzeppelin/contracts/utils/Counters.sol\":1368:1386  counter._value = 0 */\n      dup2\n      swap1\n      sstore\n      pop\n        /* \"@openzeppelin/contracts/utils/Counters.sol\":1309:1393  function reset(Counter storage counter) internal {... */\n      pop\n      jump\t// out\n        /* \"contracts/CreatorsContent.sol\":2556:2856  function getProfileByAddress(address addr) private view returns (Profile memory) {... */\n    tag_120:\n        /* \"contracts/CreatorsContent.sol\":2621:2635  Profile memory */\n      tag_276\n      tag_117\n      jump\t// in\n    tag_276:\n        /* \"contracts/CreatorsContent.sol\":2652:2661  uint256 i */\n      0x00\n        /* \"contracts/CreatorsContent.sol\":2647:2796  for (uint256 i=0; i < Profiles.length; i++) {... */\n    tag_278:\n        /* \"contracts/CreatorsContent.sol\":2669:2677  Profiles */\n      0x01\n        /* \"contracts/CreatorsContent.sol\":2669:2684  Profiles.length */\n      dup1\n      sload\n      swap1\n      pop\n        /* \"contracts/CreatorsContent.sol\":2665:2666  i */\n      dup2\n        /* \"contracts/CreatorsContent.sol\":2665:2684  i < Profiles.length */\n      lt\n        /* \"contracts/CreatorsContent.sol\":2647:2796  for (uint256 i=0; i < Profiles.length; i++) {... */\n      iszero\n      tag_279\n      jumpi\n        /* \"contracts/CreatorsContent.sol\":2729:2733  addr */\n      dup3\n        /* \"contracts/CreatorsContent.sol\":2709:2733  Profiles[i].addr == addr */\n      0xffffffffffffffffffffffffffffffffffffffff\n      and\n        /* \"contracts/CreatorsContent.sol\":2709:2717  Profiles */\n      0x01\n        /* \"contracts/CreatorsContent.sol\":2718:2719  i */\n      dup3\n        /* \"contracts/CreatorsContent.sol\":2709:2720  Profiles[i] */\n      dup2\n      sload\n      dup2\n      lt\n      tag_281\n      jumpi\n      tag_282\n      tag_98\n      jump\t// in\n    tag_282:\n    tag_281:\n      swap1\n      0x00\n      mstore\n      keccak256(0x00, 0x20)\n      swap1\n      0x03\n      mul\n      add\n        /* \"contracts/CreatorsContent.sol\":2709:2725  Profiles[i].addr */\n      0x01\n      add\n      0x00\n      swap1\n      sload\n      swap1\n      0x0100\n      exp\n      swap1\n      div\n      0xffffffffffffffffffffffffffffffffffffffff\n      and\n        /* \"contracts/CreatorsContent.sol\":2709:2733  Profiles[i].addr == addr */\n      0xffffffffffffffffffffffffffffffffffffffff\n      and\n      sub\n        /* \"contracts/CreatorsContent.sol\":2705:2786  if (Profiles[i].addr == addr) {... */\n      tag_284\n      jumpi\n        /* \"contracts/CreatorsContent.sol\":2760:2768  Profiles */\n      0x01\n        /* \"contracts/CreatorsContent.sol\":2769:2770  i */\n      dup2\n        /* \"contracts/CreatorsContent.sol\":2760:2771  Profiles[i] */\n      dup2\n      sload\n      dup2\n      lt\n      tag_285\n      jumpi\n      tag_286\n      tag_98\n      jump\t// in\n    tag_286:\n    tag_285:\n      swap1\n      0x00\n      mstore\n      keccak256(0x00, 0x20)\n      swap1\n      0x03\n      mul\n      add\n        /* \"contracts/CreatorsContent.sol\":2753:2771  return Profiles[i] */\n      mload(0x40)\n      dup1\n      0x60\n      add\n      0x40\n      mstore\n      swap1\n      dup2\n      0x00\n      dup3\n      add\n      dup1\n      sload\n      tag_288\n      swap1\n      tag_71\n      jump\t// in\n    tag_288:\n      dup1\n      0x1f\n      add\n      0x20\n      dup1\n      swap2\n      div\n      mul\n      0x20\n      add\n      mload(0x40)\n      swap1\n      dup2\n      add\n      0x40\n      mstore\n      dup1\n      swap3\n      swap2\n      swap1\n      dup2\n      dup2\n      mstore\n      0x20\n      add\n      dup3\n      dup1\n      sload\n      tag_289\n      swap1\n      tag_71\n      jump\t// in\n    tag_289:\n      dup1\n      iszero\n      tag_290\n      jumpi\n      dup1\n      0x1f\n      lt\n      tag_291\n      jumpi\n      0x0100\n      dup1\n      dup4\n      sload\n      div\n      mul\n      dup4\n      mstore\n      swap2\n      0x20\n      add\n      swap2\n      jump(tag_290)\n    tag_291:\n      dup3\n      add\n      swap2\n      swap1\n      0x00\n      mstore\n      keccak256(0x00, 0x20)\n      swap1\n    tag_292:\n      dup2\n      sload\n      dup2\n      mstore\n      swap1\n      0x01\n      add\n      swap1\n      0x20\n      add\n      dup1\n      dup4\n      gt\n      tag_292\n      jumpi\n      dup3\n      swap1\n      sub\n      0x1f\n      and\n      dup3\n      add\n      swap2\n    tag_290:\n      pop\n      pop\n      pop\n      pop\n      pop\n      dup2\n      mstore\n      0x20\n      add\n      0x01\n      dup3\n      add\n      0x00\n      swap1\n      sload\n      swap1\n      0x0100\n      exp\n      swap1\n      div\n      0xffffffffffffffffffffffffffffffffffffffff\n      and\n      0xffffffffffffffffffffffffffffffffffffffff\n      and\n      0xffffffffffffffffffffffffffffffffffffffff\n      and\n      dup2\n      mstore\n      0x20\n      add\n      0x02\n      dup3\n      add\n      dup1\n      sload\n      tag_293\n      swap1\n      tag_71\n      jump\t// in\n    tag_293:\n      dup1\n      0x1f\n      add\n      0x20\n      dup1\n      swap2\n      div\n      mul\n      0x20\n      add\n      mload(0x40)\n      swap1\n      dup2\n      add\n      0x40\n      mstore\n      dup1\n      swap3\n      swap2\n      swap1\n      dup2\n      dup2\n      mstore\n      0x20\n      add\n      dup3\n      dup1\n      sload\n      tag_294\n      swap1\n      tag_71\n      jump\t// in\n    tag_294:\n      dup1\n      iszero\n      tag_295\n      jumpi\n      dup1\n      0x1f\n      lt\n      tag_296\n      jumpi\n      0x0100\n      dup1\n      dup4\n      sload\n      div\n      mul\n      dup4\n      mstore\n      swap2\n      0x20\n      add\n      swap2\n      jump(tag_295)\n    tag_296:\n      dup3\n      add\n      swap2\n      swap1\n      0x00\n      mstore\n      keccak256(0x00, 0x20)\n      swap1\n    tag_297:\n      dup2\n      sload\n      dup2\n      mstore\n      swap1\n      0x01\n      add\n      swap1\n      0x20\n      add\n      dup1\n      dup4\n      gt\n      tag_297\n      jumpi\n      dup3\n      swap1\n      sub\n      0x1f\n      and\n      dup3\n      add\n      swap2\n    tag_295:\n      pop\n      pop\n      pop\n      pop\n      pop\n      dup2\n      mstore\n      pop\n      pop\n      swap2\n      pop\n      pop\n      jump(tag_277)\n        /* \"contracts/CreatorsContent.sol\":2705:2786  if (Profiles[i].addr == addr) {... */\n    tag_284:\n        /* \"contracts/CreatorsContent.sol\":2686:2689  i++ */\n      dup1\n      dup1\n      tag_298\n      swap1\n      tag_111\n      jump\t// in\n    tag_298:\n      swap2\n      pop\n      pop\n        /* \"contracts/CreatorsContent.sol\":2647:2796  for (uint256 i=0; i < Profiles.length; i++) {... */\n      jump(tag_278)\n    tag_279:\n      pop\n        /* \"contracts/CreatorsContent.sol\":2806:2826  Profile memory empty */\n      tag_299\n      tag_117\n      jump\t// in\n    tag_299:\n        /* \"contracts/CreatorsContent.sol\":2844:2849  empty */\n      dup1\n        /* \"contracts/CreatorsContent.sol\":2837:2849  return empty */\n      swap2\n      pop\n      pop\n        /* \"contracts/CreatorsContent.sol\":2556:2856  function getProfileByAddress(address addr) private view returns (Profile memory) {... */\n    tag_277:\n      swap2\n      swap1\n      pop\n      jump\t// out\n        /* \"contracts/CreatorsContent.sol\":704:977  function getUserCoursesLen(address user) private view returns (uint256) {... */\n    tag_123:\n        /* \"contracts/CreatorsContent.sol\":767:774  uint256 */\n      0x00\n        /* \"contracts/CreatorsContent.sol\":786:797  uint256 len */\n      dup1\n        /* \"contracts/CreatorsContent.sol\":800:801  0 */\n      0x00\n        /* \"contracts/CreatorsContent.sol\":786:801  uint256 len = 0 */\n      swap1\n      pop\n        /* \"contracts/CreatorsContent.sol\":816:825  uint256 i */\n      0x00\n        /* \"contracts/CreatorsContent.sol\":811:951  for (uint256 i=0; i < Contents.length ; i++) {... */\n    tag_301:\n        /* \"contracts/CreatorsContent.sol\":833:841  Contents */\n      0x00\n        /* \"contracts/CreatorsContent.sol\":833:848  Contents.length */\n      dup1\n      sload\n      swap1\n      pop\n        /* \"contracts/CreatorsContent.sol\":829:830  i */\n      dup2\n        /* \"contracts/CreatorsContent.sol\":829:848  i < Contents.length */\n      lt\n        /* \"contracts/CreatorsContent.sol\":811:951  for (uint256 i=0; i < Contents.length ; i++) {... */\n      iszero\n      tag_302\n      jumpi\n        /* \"contracts/CreatorsContent.sol\":896:900  user */\n      dup4\n        /* \"contracts/CreatorsContent.sol\":874:900  Contents[i].author == user */\n      0xffffffffffffffffffffffffffffffffffffffff\n      and\n        /* \"contracts/CreatorsContent.sol\":874:882  Contents */\n      0x00\n        /* \"contracts/CreatorsContent.sol\":883:884  i */\n      dup3\n        /* \"contracts/CreatorsContent.sol\":874:885  Contents[i] */\n      dup2\n      sload\n      dup2\n      lt\n      tag_304\n      jumpi\n      tag_305\n      tag_98\n      jump\t// in\n    tag_305:\n    tag_304:\n      swap1\n      0x00\n      mstore\n      keccak256(0x00, 0x20)\n      swap1\n      0x08\n      mul\n      add\n        /* \"contracts/CreatorsContent.sol\":874:892  Contents[i].author */\n      0x01\n      add\n      0x00\n      swap1\n      sload\n      swap1\n      0x0100\n      exp\n      swap1\n      div\n      0xffffffffffffffffffffffffffffffffffffffff\n      and\n        /* \"contracts/CreatorsContent.sol\":874:900  Contents[i].author == user */\n      0xffffffffffffffffffffffffffffffffffffffff\n      and\n      sub\n        /* \"contracts/CreatorsContent.sol\":870:941  if (Contents[i].author == user) {... */\n      tag_307\n      jumpi\n        /* \"contracts/CreatorsContent.sol\":920:926  len ++ */\n      dup2\n      dup1\n      tag_308\n      swap1\n      tag_111\n      jump\t// in\n    tag_308:\n      swap3\n      pop\n      pop\n        /* \"contracts/CreatorsContent.sol\":870:941  if (Contents[i].author == user) {... */\n    tag_307:\n        /* \"contracts/CreatorsContent.sol\":851:854  i++ */\n      dup1\n      dup1\n      tag_309\n      swap1\n      tag_111\n      jump\t// in\n    tag_309:\n      swap2\n      pop\n      pop\n        /* \"contracts/CreatorsContent.sol\":811:951  for (uint256 i=0; i < Contents.length ; i++) {... */\n      jump(tag_301)\n    tag_302:\n      pop\n        /* \"contracts/CreatorsContent.sol\":967:970  len */\n      dup1\n        /* \"contracts/CreatorsContent.sol\":960:970  return len */\n      swap2\n      pop\n      pop\n        /* \"contracts/CreatorsContent.sol\":704:977  function getUserCoursesLen(address user) private view returns (uint256) {... */\n      swap2\n      swap1\n      pop\n      jump\t// out\n        /* \"@openzeppelin/contracts/utils/Counters.sol\":827:939  function current(Counter storage counter) internal view returns (uint256) {... */\n    tag_167:\n        /* \"@openzeppelin/contracts/utils/Counters.sol\":892:899  uint256 */\n      0x00\n        /* \"@openzeppelin/contracts/utils/Counters.sol\":918:925  counter */\n      dup2\n        /* \"@openzeppelin/contracts/utils/Counters.sol\":918:932  counter._value */\n      0x00\n      add\n      sload\n        /* \"@openzeppelin/contracts/utils/Counters.sol\":911:932  return counter._value */\n      swap1\n      pop\n        /* \"@openzeppelin/contracts/utils/Counters.sol\":827:939  function current(Counter storage counter) internal view returns (uint256) {... */\n      swap2\n      swap1\n      pop\n      jump\t// out\n        /* \"@openzeppelin/contracts/utils/Counters.sol\":945:1068  function increment(Counter storage counter) internal {... */\n    tag_174:\n        /* \"@openzeppelin/contracts/utils/Counters.sol\":1050:1051  1 */\n      0x01\n        /* \"@openzeppelin/contracts/utils/Counters.sol\":1032:1039  counter */\n      dup2\n        /* \"@openzeppelin/contracts/utils/Counters.sol\":1032:1046  counter._value */\n      0x00\n      add\n      0x00\n        /* \"@openzeppelin/contracts/utils/Counters.sol\":1032:1051  counter._value += 1 */\n      dup3\n      dup3\n      sload\n      add\n      swap3\n      pop\n      pop\n      dup2\n      swap1\n      sstore\n      pop\n        /* \"@openzeppelin/contracts/utils/Counters.sol\":945:1068  function increment(Counter storage counter) internal {... */\n      pop\n      jump\t// out\n        /* \"contracts/CreatorsContent.sol\":2862:3176  function getProficeIndexByAddress(address addr) private view returns (uint256) {... */\n    tag_249:\n        /* \"contracts/CreatorsContent.sol\":2932:2939  uint256 */\n      0x00\n        /* \"contracts/CreatorsContent.sol\":2956:2965  uint256 i */\n      dup1\n        /* \"contracts/CreatorsContent.sol\":2966:2967  0 */\n      0x00\n        /* \"contracts/CreatorsContent.sol\":2956:2967  uint256 i=0 */\n      swap1\n      pop\n        /* \"contracts/CreatorsContent.sol\":2951:3090  for (uint256 i=0; i < Profiles.length; i++) {... */\n    tag_313:\n        /* \"contracts/CreatorsContent.sol\":2973:2981  Profiles */\n      0x01\n        /* \"contracts/CreatorsContent.sol\":2973:2988  Profiles.length */\n      dup1\n      sload\n      swap1\n      pop\n        /* \"contracts/CreatorsContent.sol\":2969:2970  i */\n      dup2\n        /* \"contracts/CreatorsContent.sol\":2969:2988  i < Profiles.length */\n      lt\n        /* \"contracts/CreatorsContent.sol\":2951:3090  for (uint256 i=0; i < Profiles.length; i++) {... */\n      iszero\n      tag_314\n      jumpi\n        /* \"contracts/CreatorsContent.sol\":3033:3037  addr */\n      dup3\n        /* \"contracts/CreatorsContent.sol\":3013:3037  Profiles[i].addr == addr */\n      0xffffffffffffffffffffffffffffffffffffffff\n      and\n        /* \"contracts/CreatorsContent.sol\":3013:3021  Profiles */\n      0x01\n        /* \"contracts/CreatorsContent.sol\":3022:3023  i */\n      dup3\n        /* \"contracts/CreatorsContent.sol\":3013:3024  Profiles[i] */\n      dup2\n      sload\n      dup2\n      lt\n      tag_316\n      jumpi\n      tag_317\n      tag_98\n      jump\t// in\n    tag_317:\n    tag_316:\n      swap1\n      0x00\n      mstore\n      keccak256(0x00, 0x20)\n      swap1\n      0x03\n      mul\n      add\n        /* \"contracts/CreatorsContent.sol\":3013:3029  Profiles[i].addr */\n      0x01\n      add\n      0x00\n      swap1\n      sload\n      swap1\n      0x0100\n      exp\n      swap1\n      div\n      0xffffffffffffffffffffffffffffffffffffffff\n      and\n        /* \"contracts/CreatorsContent.sol\":3013:3037  Profiles[i].addr == addr */\n      0xffffffffffffffffffffffffffffffffffffffff\n      and\n      sub\n        /* \"contracts/CreatorsContent.sol\":3009:3080  if (Profiles[i].addr == addr) {... */\n      tag_319\n      jumpi\n        /* \"contracts/CreatorsContent.sol\":3064:3065  i */\n      dup1\n        /* \"contracts/CreatorsContent.sol\":3057:3065  return i */\n      swap2\n      pop\n      pop\n      jump(tag_312)\n        /* \"contracts/CreatorsContent.sol\":3009:3080  if (Profiles[i].addr == addr) {... */\n    tag_319:\n        /* \"contracts/CreatorsContent.sol\":2990:2993  i++ */\n      dup1\n      dup1\n      tag_320\n      swap1\n      tag_111\n      jump\t// in\n    tag_320:\n      swap2\n      pop\n      pop\n        /* \"contracts/CreatorsContent.sol\":2951:3090  for (uint256 i=0; i < Profiles.length; i++) {... */\n      jump(tag_313)\n    tag_314:\n      pop\n        /* \"contracts/CreatorsContent.sol\":3154:3162  Profiles */\n      0x01\n        /* \"contracts/CreatorsContent.sol\":3154:3169  Profiles.length */\n      dup1\n      sload\n      swap1\n      pop\n        /* \"contracts/CreatorsContent.sol\":3147:3169  return Profiles.length */\n      swap1\n      pop\n        /* \"contracts/CreatorsContent.sol\":2862:3176  function getProficeIndexByAddress(address addr) private view returns (uint256) {... */\n    tag_312:\n      swap2\n      swap1\n      pop\n      jump\t// out\n    tag_117:\n      mload(0x40)\n      dup1\n      0x60\n      add\n      0x40\n      mstore\n      dup1\n      0x60\n      dup2\n      mstore\n      0x20\n      add\n      and(0xffffffffffffffffffffffffffffffffffffffff, 0x00)\n      dup2\n      mstore\n      0x20\n      add\n      0x60\n      dup2\n      mstore\n      pop\n      swap1\n      jump\t// out\n    tag_130:\n      mload(0x40)\n      dup1\n      0x0100\n      add\n      0x40\n      mstore\n      dup1\n      0x00\n      dup2\n      mstore\n      0x20\n      add\n      and(0xffffffffffffffffffffffffffffffffffffffff, 0x00)\n      dup2\n      mstore\n      0x20\n      add\n      0x60\n      dup2\n      mstore\n      0x20\n      add\n      0x60\n      dup2\n      mstore\n      0x20\n      add\n      0x00\n      dup2\n      mstore\n      0x20\n      add\n      0x60\n      dup2\n      mstore\n      0x20\n      add\n      iszero(iszero(0x00))\n      dup2\n      mstore\n      0x20\n      add\n      0x60\n      dup2\n      mstore\n      pop\n      swap1\n      jump\t// out\n        /* \"#utility.yul\":7:144   */\n    tag_321:\n        /* \"#utility.yul\":97:103   */\n      0x00\n        /* \"#utility.yul\":131:136   */\n      dup2\n        /* \"#utility.yul\":125:137   */\n      mload\n        /* \"#utility.yul\":115:137   */\n      swap1\n      pop\n        /* \"#utility.yul\":7:144   */\n      swap2\n      swap1\n      pop\n      jump\t// out\n        /* \"#utility.yul\":150:357   */\n    tag_322:\n        /* \"#utility.yul\":272:283   */\n      0x00\n        /* \"#utility.yul\":306:312   */\n      dup3\n        /* \"#utility.yul\":301:304   */\n      dup3\n        /* \"#utility.yul\":294:313   */\n      mstore\n        /* \"#utility.yul\":346:350   */\n      0x20\n        /* \"#utility.yul\":341:344   */\n      dup3\n        /* \"#utility.yul\":337:351   */\n      add\n        /* \"#utility.yul\":322:351   */\n      swap1\n      pop\n        /* \"#utility.yul\":150:357   */\n      swap3\n      swap2\n      pop\n      pop\n      jump\t// out\n        /* \"#utility.yul\":363:518   */\n    tag_323:\n        /* \"#utility.yul\":453:457   */\n      0x00\n        /* \"#utility.yul\":476:479   */\n      dup2\n        /* \"#utility.yul\":468:479   */\n      swap1\n      pop\n        /* \"#utility.yul\":506:510   */\n      0x20\n        /* \"#utility.yul\":501:504   */\n      dup3\n        /* \"#utility.yul\":497:511   */\n      add\n        /* \"#utility.yul\":489:511   */\n      swap1\n      pop\n        /* \"#utility.yul\":363:518   */\n      swap2\n      swap1\n      pop\n      jump\t// out\n        /* \"#utility.yul\":524:601   */\n    tag_324:\n        /* \"#utility.yul\":561:568   */\n      0x00\n        /* \"#utility.yul\":590:595   */\n      dup2\n        /* \"#utility.yul\":579:595   */\n      swap1\n      pop\n        /* \"#utility.yul\":524:601   */\n      swap2\n      swap1\n      pop\n      jump\t// out\n        /* \"#utility.yul\":607:715   */\n    tag_325:\n        /* \"#utility.yul\":684:708   */\n      tag_385\n        /* \"#utility.yul\":702:707   */\n      dup2\n        /* \"#utility.yul\":684:708   */\n      tag_324\n      jump\t// in\n    tag_385:\n        /* \"#utility.yul\":679:682   */\n      dup3\n        /* \"#utility.yul\":672:709   */\n      mstore\n        /* \"#utility.yul\":607:715   */\n      pop\n      pop\n      jump\t// out\n        /* \"#utility.yul\":721:847   */\n    tag_326:\n        /* \"#utility.yul\":758:765   */\n      0x00\n        /* \"#utility.yul\":798:840   */\n      0xffffffffffffffffffffffffffffffffffffffff\n        /* \"#utility.yul\":791:796   */\n      dup3\n        /* \"#utility.yul\":787:841   */\n      and\n        /* \"#utility.yul\":776:841   */\n      swap1\n      pop\n        /* \"#utility.yul\":721:847   */\n      swap2\n      swap1\n      pop\n      jump\t// out\n        /* \"#utility.yul\":853:949   */\n    tag_327:\n        /* \"#utility.yul\":890:897   */\n      0x00\n        /* \"#utility.yul\":919:943   */\n      tag_388\n        /* \"#utility.yul\":937:942   */\n      dup3\n        /* \"#utility.yul\":919:943   */\n      tag_326\n      jump\t// in\n    tag_388:\n        /* \"#utility.yul\":908:943   */\n      swap1\n      pop\n        /* \"#utility.yul\":853:949   */\n      swap2\n      swap1\n      pop\n      jump\t// out\n        /* \"#utility.yul\":955:1063   */\n    tag_328:\n        /* \"#utility.yul\":1032:1056   */\n      tag_390\n        /* \"#utility.yul\":1050:1055   */\n      dup2\n        /* \"#utility.yul\":1032:1056   */\n      tag_327\n      jump\t// in\n    tag_390:\n        /* \"#utility.yul\":1027:1030   */\n      dup3\n        /* \"#utility.yul\":1020:1057   */\n      mstore\n        /* \"#utility.yul\":955:1063   */\n      pop\n      pop\n      jump\t// out\n        /* \"#utility.yul\":1069:1168   */\n    tag_329:\n        /* \"#utility.yul\":1121:1127   */\n      0x00\n        /* \"#utility.yul\":1155:1160   */\n      dup2\n        /* \"#utility.yul\":1149:1161   */\n      mload\n        /* \"#utility.yul\":1139:1161   */\n      swap1\n      pop\n        /* \"#utility.yul\":1069:1168   */\n      swap2\n      swap1\n      pop\n      jump\t// out\n        /* \"#utility.yul\":1174:1333   */\n    tag_330:\n        /* \"#utility.yul\":1248:1259   */\n      0x00\n        /* \"#utility.yul\":1282:1288   */\n      dup3\n        /* \"#utility.yul\":1277:1280   */\n      dup3\n        /* \"#utility.yul\":1270:1289   */\n      mstore\n        /* \"#utility.yul\":1322:1326   */\n      0x20\n        /* \"#utility.yul\":1317:1320   */\n      dup3\n        /* \"#utility.yul\":1313:1327   */\n      add\n        /* \"#utility.yul\":1298:1327   */\n      swap1\n      pop\n        /* \"#utility.yul\":1174:1333   */\n      swap3\n      swap2\n      pop\n      pop\n      jump\t// out\n        /* \"#utility.yul\":1339:1585   */\n    tag_331:\n        /* \"#utility.yul\":1420:1421   */\n      0x00\n        /* \"#utility.yul\":1430:1543   */\n    tag_394:\n        /* \"#utility.yul\":1444:1450   */\n      dup4\n        /* \"#utility.yul\":1441:1442   */\n      dup2\n        /* \"#utility.yul\":1438:1451   */\n      lt\n        /* \"#utility.yul\":1430:1543   */\n      iszero\n      tag_396\n      jumpi\n        /* \"#utility.yul\":1529:1530   */\n      dup1\n        /* \"#utility.yul\":1524:1527   */\n      dup3\n        /* \"#utility.yul\":1520:1531   */\n      add\n        /* \"#utility.yul\":1514:1532   */\n      mload\n        /* \"#utility.yul\":1510:1511   */\n      dup2\n        /* \"#utility.yul\":1505:1508   */\n      dup5\n        /* \"#utility.yul\":1501:1512   */\n      add\n        /* \"#utility.yul\":1494:1533   */\n      mstore\n        /* \"#utility.yul\":1466:1468   */\n      0x20\n        /* \"#utility.yul\":1463:1464   */\n      dup2\n        /* \"#utility.yul\":1459:1469   */\n      add\n        /* \"#utility.yul\":1454:1469   */\n      swap1\n      pop\n        /* \"#utility.yul\":1430:1543   */\n      jump(tag_394)\n    tag_396:\n        /* \"#utility.yul\":1577:1578   */\n      0x00\n        /* \"#utility.yul\":1568:1574   */\n      dup5\n        /* \"#utility.yul\":1563:1566   */\n      dup5\n        /* \"#utility.yul\":1559:1575   */\n      add\n        /* \"#utility.yul\":1552:1579   */\n      mstore\n        /* \"#utility.yul\":1401:1585   */\n      pop\n        /* \"#utility.yul\":1339:1585   */\n      pop\n      pop\n      pop\n      jump\t// out\n        /* \"#utility.yul\":1591:1693   */\n    tag_332:\n        /* \"#utility.yul\":1632:1638   */\n      0x00\n        /* \"#utility.yul\":1683:1685   */\n      0x1f\n        /* \"#utility.yul\":1679:1686   */\n      not\n        /* \"#utility.yul\":1674:1676   */\n      0x1f\n        /* \"#utility.yul\":1667:1672   */\n      dup4\n        /* \"#utility.yul\":1663:1677   */\n      add\n        /* \"#utility.yul\":1659:1687   */\n      and\n        /* \"#utility.yul\":1649:1687   */\n      swap1\n      pop\n        /* \"#utility.yul\":1591:1693   */\n      swap2\n      swap1\n      pop\n      jump\t// out\n        /* \"#utility.yul\":1699:2056   */\n    tag_333:\n        /* \"#utility.yul\":1777:1780   */\n      0x00\n        /* \"#utility.yul\":1805:1844   */\n      tag_399\n        /* \"#utility.yul\":1838:1843   */\n      dup3\n        /* \"#utility.yul\":1805:1844   */\n      tag_329\n      jump\t// in\n    tag_399:\n        /* \"#utility.yul\":1860:1921   */\n      tag_400\n        /* \"#utility.yul\":1914:1920   */\n      dup2\n        /* \"#utility.yul\":1909:1912   */\n      dup6\n        /* \"#utility.yul\":1860:1921   */\n      tag_330\n      jump\t// in\n    tag_400:\n        /* \"#utility.yul\":1853:1921   */\n      swap4\n      pop\n        /* \"#utility.yul\":1930:1995   */\n      tag_401\n        /* \"#utility.yul\":1988:1994   */\n      dup2\n        /* \"#utility.yul\":1983:1986   */\n      dup6\n        /* \"#utility.yul\":1976:1980   */\n      0x20\n        /* \"#utility.yul\":1969:1974   */\n      dup7\n        /* \"#utility.yul\":1965:1981   */\n      add\n        /* \"#utility.yul\":1930:1995   */\n      tag_331\n      jump\t// in\n    tag_401:\n        /* \"#utility.yul\":2020:2049   */\n      tag_402\n        /* \"#utility.yul\":2042:2048   */\n      dup2\n        /* \"#utility.yul\":2020:2049   */\n      tag_332\n      jump\t// in\n    tag_402:\n        /* \"#utility.yul\":2015:2018   */\n      dup5\n        /* \"#utility.yul\":2011:2050   */\n      add\n        /* \"#utility.yul\":2004:2050   */\n      swap2\n      pop\n        /* \"#utility.yul\":1781:2056   */\n      pop\n        /* \"#utility.yul\":1699:2056   */\n      swap3\n      swap2\n      pop\n      pop\n      jump\t// out\n        /* \"#utility.yul\":2062:2152   */\n    tag_334:\n        /* \"#utility.yul\":2096:2103   */\n      0x00\n        /* \"#utility.yul\":2139:2144   */\n      dup2\n        /* \"#utility.yul\":2132:2145   */\n      iszero\n        /* \"#utility.yul\":2125:2146   */\n      iszero\n        /* \"#utility.yul\":2114:2146   */\n      swap1\n      pop\n        /* \"#utility.yul\":2062:2152   */\n      swap2\n      swap1\n      pop\n      jump\t// out\n        /* \"#utility.yul\":2158:2257   */\n    tag_335:\n        /* \"#utility.yul\":2229:2250   */\n      tag_405\n        /* \"#utility.yul\":2244:2249   */\n      dup2\n        /* \"#utility.yul\":2229:2250   */\n      tag_334\n      jump\t// in\n    tag_405:\n        /* \"#utility.yul\":2224:2227   */\n      dup3\n        /* \"#utility.yul\":2217:2251   */\n      mstore\n        /* \"#utility.yul\":2158:2257   */\n      pop\n      pop\n      jump\t// out\n        /* \"#utility.yul\":2335:4198   */\n    tag_336:\n        /* \"#utility.yul\":2440:2443   */\n      0x00\n        /* \"#utility.yul\":2476:2482   */\n      0x0100\n        /* \"#utility.yul\":2471:2474   */\n      dup4\n        /* \"#utility.yul\":2467:2483   */\n      add\n        /* \"#utility.yul\":2563:2567   */\n      0x00\n        /* \"#utility.yul\":2556:2561   */\n      dup4\n        /* \"#utility.yul\":2552:2568   */\n      add\n        /* \"#utility.yul\":2546:2569   */\n      mload\n        /* \"#utility.yul\":2582:2645   */\n      tag_407\n        /* \"#utility.yul\":2639:2643   */\n      0x00\n        /* \"#utility.yul\":2634:2637   */\n      dup7\n        /* \"#utility.yul\":2630:2644   */\n      add\n        /* \"#utility.yul\":2616:2628   */\n      dup3\n        /* \"#utility.yul\":2582:2645   */\n      tag_325\n      jump\t// in\n    tag_407:\n        /* \"#utility.yul\":2493:2655   */\n      pop\n        /* \"#utility.yul\":2739:2743   */\n      0x20\n        /* \"#utility.yul\":2732:2737   */\n      dup4\n        /* \"#utility.yul\":2728:2744   */\n      add\n        /* \"#utility.yul\":2722:2745   */\n      mload\n        /* \"#utility.yul\":2758:2821   */\n      tag_408\n        /* \"#utility.yul\":2815:2819   */\n      0x20\n        /* \"#utility.yul\":2810:2813   */\n      dup7\n        /* \"#utility.yul\":2806:2820   */\n      add\n        /* \"#utility.yul\":2792:2804   */\n      dup3\n        /* \"#utility.yul\":2758:2821   */\n      tag_328\n      jump\t// in\n    tag_408:\n        /* \"#utility.yul\":2665:2831   */\n      pop\n        /* \"#utility.yul\":2914:2918   */\n      0x40\n        /* \"#utility.yul\":2907:2912   */\n      dup4\n        /* \"#utility.yul\":2903:2919   */\n      add\n        /* \"#utility.yul\":2897:2920   */\n      mload\n        /* \"#utility.yul\":2967:2970   */\n      dup5\n        /* \"#utility.yul\":2961:2965   */\n      dup3\n        /* \"#utility.yul\":2957:2971   */\n      sub\n        /* \"#utility.yul\":2950:2954   */\n      0x40\n        /* \"#utility.yul\":2945:2948   */\n      dup7\n        /* \"#utility.yul\":2941:2955   */\n      add\n        /* \"#utility.yul\":2934:2972   */\n      mstore\n        /* \"#utility.yul\":2993:3066   */\n      tag_409\n        /* \"#utility.yul\":3061:3065   */\n      dup3\n        /* \"#utility.yul\":3047:3059   */\n      dup3\n        /* \"#utility.yul\":2993:3066   */\n      tag_333\n      jump\t// in\n    tag_409:\n        /* \"#utility.yul\":2985:3066   */\n      swap2\n      pop\n        /* \"#utility.yul\":2841:3077   */\n      pop\n        /* \"#utility.yul\":3166:3170   */\n      0x60\n        /* \"#utility.yul\":3159:3164   */\n      dup4\n        /* \"#utility.yul\":3155:3171   */\n      add\n        /* \"#utility.yul\":3149:3172   */\n      mload\n        /* \"#utility.yul\":3219:3222   */\n      dup5\n        /* \"#utility.yul\":3213:3217   */\n      dup3\n        /* \"#utility.yul\":3209:3223   */\n      sub\n        /* \"#utility.yul\":3202:3206   */\n      0x60\n        /* \"#utility.yul\":3197:3200   */\n      dup7\n        /* \"#utility.yul\":3193:3207   */\n      add\n        /* \"#utility.yul\":3186:3224   */\n      mstore\n        /* \"#utility.yul\":3245:3318   */\n      tag_410\n        /* \"#utility.yul\":3313:3317   */\n      dup3\n        /* \"#utility.yul\":3299:3311   */\n      dup3\n        /* \"#utility.yul\":3245:3318   */\n      tag_333\n      jump\t// in\n    tag_410:\n        /* \"#utility.yul\":3237:3318   */\n      swap2\n      pop\n        /* \"#utility.yul\":3087:3329   */\n      pop\n        /* \"#utility.yul\":3412:3416   */\n      0x80\n        /* \"#utility.yul\":3405:3410   */\n      dup4\n        /* \"#utility.yul\":3401:3417   */\n      add\n        /* \"#utility.yul\":3395:3418   */\n      mload\n        /* \"#utility.yul\":3431:3494   */\n      tag_411\n        /* \"#utility.yul\":3488:3492   */\n      0x80\n        /* \"#utility.yul\":3483:3486   */\n      dup7\n        /* \"#utility.yul\":3479:3493   */\n      add\n        /* \"#utility.yul\":3465:3477   */\n      dup3\n        /* \"#utility.yul\":3431:3494   */\n      tag_325\n      jump\t// in\n    tag_411:\n        /* \"#utility.yul\":3339:3504   */\n      pop\n        /* \"#utility.yul\":3587:3591   */\n      0xa0\n        /* \"#utility.yul\":3580:3585   */\n      dup4\n        /* \"#utility.yul\":3576:3592   */\n      add\n        /* \"#utility.yul\":3570:3593   */\n      mload\n        /* \"#utility.yul\":3640:3643   */\n      dup5\n        /* \"#utility.yul\":3634:3638   */\n      dup3\n        /* \"#utility.yul\":3630:3644   */\n      sub\n        /* \"#utility.yul\":3623:3627   */\n      0xa0\n        /* \"#utility.yul\":3618:3621   */\n      dup7\n        /* \"#utility.yul\":3614:3628   */\n      add\n        /* \"#utility.yul\":3607:3645   */\n      mstore\n        /* \"#utility.yul\":3666:3739   */\n      tag_412\n        /* \"#utility.yul\":3734:3738   */\n      dup3\n        /* \"#utility.yul\":3720:3732   */\n      dup3\n        /* \"#utility.yul\":3666:3739   */\n      tag_333\n      jump\t// in\n    tag_412:\n        /* \"#utility.yul\":3658:3739   */\n      swap2\n      pop\n        /* \"#utility.yul\":3514:3750   */\n      pop\n        /* \"#utility.yul\":3835:3839   */\n      0xc0\n        /* \"#utility.yul\":3828:3833   */\n      dup4\n        /* \"#utility.yul\":3824:3840   */\n      add\n        /* \"#utility.yul\":3818:3841   */\n      mload\n        /* \"#utility.yul\":3854:3911   */\n      tag_413\n        /* \"#utility.yul\":3905:3909   */\n      0xc0\n        /* \"#utility.yul\":3900:3903   */\n      dup7\n        /* \"#utility.yul\":3896:3910   */\n      add\n        /* \"#utility.yul\":3882:3894   */\n      dup3\n        /* \"#utility.yul\":3854:3911   */\n      tag_335\n      jump\t// in\n    tag_413:\n        /* \"#utility.yul\":3760:3921   */\n      pop\n        /* \"#utility.yul\":4008:4012   */\n      0xe0\n        /* \"#utility.yul\":4001:4006   */\n      dup4\n        /* \"#utility.yul\":3997:4013   */\n      add\n        /* \"#utility.yul\":3991:4014   */\n      mload\n        /* \"#utility.yul\":4061:4064   */\n      dup5\n        /* \"#utility.yul\":4055:4059   */\n      dup3\n        /* \"#utility.yul\":4051:4065   */\n      sub\n        /* \"#utility.yul\":4044:4048   */\n      0xe0\n        /* \"#utility.yul\":4039:4042   */\n      dup7\n        /* \"#utility.yul\":4035:4049   */\n      add\n        /* \"#utility.yul\":4028:4066   */\n      mstore\n        /* \"#utility.yul\":4087:4160   */\n      tag_414\n        /* \"#utility.yul\":4155:4159   */\n      dup3\n        /* \"#utility.yul\":4141:4153   */\n      dup3\n        /* \"#utility.yul\":4087:4160   */\n      tag_333\n      jump\t// in\n    tag_414:\n        /* \"#utility.yul\":4079:4160   */\n      swap2\n      pop\n        /* \"#utility.yul\":3931:4171   */\n      pop\n        /* \"#utility.yul\":4188:4192   */\n      dup1\n        /* \"#utility.yul\":4181:4192   */\n      swap2\n      pop\n        /* \"#utility.yul\":2445:4198   */\n      pop\n        /* \"#utility.yul\":2335:4198   */\n      swap3\n      swap2\n      pop\n      pop\n      jump\t// out\n        /* \"#utility.yul\":4204:4452   */\n    tag_337:\n        /* \"#utility.yul\":4319:4329   */\n      0x00\n        /* \"#utility.yul\":4354:4446   */\n      tag_416\n        /* \"#utility.yul\":4442:4445   */\n      dup4\n        /* \"#utility.yul\":4434:4440   */\n      dup4\n        /* \"#utility.yul\":4354:4446   */\n      tag_336\n      jump\t// in\n    tag_416:\n        /* \"#utility.yul\":4340:4446   */\n      swap1\n      pop\n        /* \"#utility.yul\":4204:4452   */\n      swap3\n      swap2\n      pop\n      pop\n      jump\t// out\n        /* \"#utility.yul\":4458:4594   */\n    tag_338:\n        /* \"#utility.yul\":4551:4555   */\n      0x00\n        /* \"#utility.yul\":4583:4587   */\n      0x20\n        /* \"#utility.yul\":4578:4581   */\n      dup3\n        /* \"#utility.yul\":4574:4588   */\n      add\n        /* \"#utility.yul\":4566:4588   */\n      swap1\n      pop\n        /* \"#utility.yul\":4458:4594   */\n      swap2\n      swap1\n      pop\n      jump\t// out\n        /* \"#utility.yul\":4676:5771   */\n    tag_339:\n        /* \"#utility.yul\":4841:4844   */\n      0x00\n        /* \"#utility.yul\":4870:4947   */\n      tag_419\n        /* \"#utility.yul\":4941:4946   */\n      dup3\n        /* \"#utility.yul\":4870:4947   */\n      tag_321\n      jump\t// in\n    tag_419:\n        /* \"#utility.yul\":4963:5072   */\n      tag_420\n        /* \"#utility.yul\":5065:5071   */\n      dup2\n        /* \"#utility.yul\":5060:5063   */\n      dup6\n        /* \"#utility.yul\":4963:5072   */\n      tag_322\n      jump\t// in\n    tag_420:\n        /* \"#utility.yul\":4956:5072   */\n      swap4\n      pop\n        /* \"#utility.yul\":5098:5101   */\n      dup4\n        /* \"#utility.yul\":5143:5147   */\n      0x20\n        /* \"#utility.yul\":5135:5141   */\n      dup3\n        /* \"#utility.yul\":5131:5148   */\n      mul\n        /* \"#utility.yul\":5126:5129   */\n      dup6\n        /* \"#utility.yul\":5122:5149   */\n      add\n        /* \"#utility.yul\":5173:5252   */\n      tag_421\n        /* \"#utility.yul\":5246:5251   */\n      dup6\n        /* \"#utility.yul\":5173:5252   */\n      tag_323\n      jump\t// in\n    tag_421:\n        /* \"#utility.yul\":5275:5282   */\n      dup1\n        /* \"#utility.yul\":5306:5307   */\n      0x00\n        /* \"#utility.yul\":5291:5726   */\n    tag_422:\n        /* \"#utility.yul\":5316:5322   */\n      dup6\n        /* \"#utility.yul\":5313:5314   */\n      dup2\n        /* \"#utility.yul\":5310:5323   */\n      lt\n        /* \"#utility.yul\":5291:5726   */\n      iszero\n      tag_424\n      jumpi\n        /* \"#utility.yul\":5387:5396   */\n      dup5\n        /* \"#utility.yul\":5381:5385   */\n      dup5\n        /* \"#utility.yul\":5377:5397   */\n      sub\n        /* \"#utility.yul\":5372:5375   */\n      dup10\n        /* \"#utility.yul\":5365:5398   */\n      mstore\n        /* \"#utility.yul\":5438:5444   */\n      dup2\n        /* \"#utility.yul\":5432:5445   */\n      mload\n        /* \"#utility.yul\":5466:5576   */\n      tag_425\n        /* \"#utility.yul\":5571:5575   */\n      dup6\n        /* \"#utility.yul\":5556:5569   */\n      dup3\n        /* \"#utility.yul\":5466:5576   */\n      tag_337\n      jump\t// in\n    tag_425:\n        /* \"#utility.yul\":5458:5576   */\n      swap5\n      pop\n        /* \"#utility.yul\":5599:5682   */\n      tag_426\n        /* \"#utility.yul\":5675:5681   */\n      dup4\n        /* \"#utility.yul\":5599:5682   */\n      tag_338\n      jump\t// in\n    tag_426:\n        /* \"#utility.yul\":5589:5682   */\n      swap3\n      pop\n        /* \"#utility.yul\":5711:5715   */\n      0x20\n        /* \"#utility.yul\":5706:5709   */\n      dup11\n        /* \"#utility.yul\":5702:5716   */\n      add\n        /* \"#utility.yul\":5695:5716   */\n      swap10\n      pop\n        /* \"#utility.yul\":5351:5726   */\n      pop\n        /* \"#utility.yul\":5338:5339   */\n      0x01\n        /* \"#utility.yul\":5335:5336   */\n      dup2\n        /* \"#utility.yul\":5331:5340   */\n      add\n        /* \"#utility.yul\":5326:5340   */\n      swap1\n      pop\n        /* \"#utility.yul\":5291:5726   */\n      jump(tag_422)\n    tag_424:\n        /* \"#utility.yul\":5295:5309   */\n      pop\n        /* \"#utility.yul\":5742:5746   */\n      dup3\n        /* \"#utility.yul\":5735:5746   */\n      swap8\n      pop\n        /* \"#utility.yul\":5762:5765   */\n      dup8\n        /* \"#utility.yul\":5755:5765   */\n      swap6\n      pop\n        /* \"#utility.yul\":4846:5771   */\n      pop\n      pop\n      pop\n      pop\n      pop\n        /* \"#utility.yul\":4676:5771   */\n      swap3\n      swap2\n      pop\n      pop\n      jump\t// out\n        /* \"#utility.yul\":5777:6242   */\n    tag_18:\n        /* \"#utility.yul\":5966:5970   */\n      0x00\n        /* \"#utility.yul\":6004:6006   */\n      0x20\n        /* \"#utility.yul\":5993:6002   */\n      dup3\n        /* \"#utility.yul\":5989:6007   */\n      add\n        /* \"#utility.yul\":5981:6007   */\n      swap1\n      pop\n        /* \"#utility.yul\":6053:6062   */\n      dup2\n        /* \"#utility.yul\":6047:6051   */\n      dup2\n        /* \"#utility.yul\":6043:6063   */\n      sub\n        /* \"#utility.yul\":6039:6040   */\n      0x00\n        /* \"#utility.yul\":6028:6037   */\n      dup4\n        /* \"#utility.yul\":6024:6041   */\n      add\n        /* \"#utility.yul\":6017:6064   */\n      mstore\n        /* \"#utility.yul\":6081:6235   */\n      tag_428\n        /* \"#utility.yul\":6230:6234   */\n      dup2\n        /* \"#utility.yul\":6221:6227   */\n      dup5\n        /* \"#utility.yul\":6081:6235   */\n      tag_339\n      jump\t// in\n    tag_428:\n        /* \"#utility.yul\":6073:6235   */\n      swap1\n      pop\n        /* \"#utility.yul\":5777:6242   */\n      swap3\n      swap2\n      pop\n      pop\n      jump\t// out\n        /* \"#utility.yul\":6248:6323   */\n    tag_340:\n        /* \"#utility.yul\":6281:6287   */\n      0x00\n        /* \"#utility.yul\":6314:6316   */\n      0x40\n        /* \"#utility.yul\":6308:6317   */\n      mload\n        /* \"#utility.yul\":6298:6317   */\n      swap1\n      pop\n        /* \"#utility.yul\":6248:6323   */\n      swap1\n      jump\t// out\n        /* \"#utility.yul\":6329:6446   */\n    tag_341:\n        /* \"#utility.yul\":6438:6439   */\n      0x00\n        /* \"#utility.yul\":6435:6436   */\n      dup1\n        /* \"#utility.yul\":6428:6440   */\n      revert\n        /* \"#utility.yul\":6452:6569   */\n    tag_342:\n        /* \"#utility.yul\":6561:6562   */\n      0x00\n        /* \"#utility.yul\":6558:6559   */\n      dup1\n        /* \"#utility.yul\":6551:6563   */\n      revert\n        /* \"#utility.yul\":6575:6692   */\n    tag_343:\n        /* \"#utility.yul\":6684:6685   */\n      0x00\n        /* \"#utility.yul\":6681:6682   */\n      dup1\n        /* \"#utility.yul\":6674:6686   */\n      revert\n        /* \"#utility.yul\":6698:6815   */\n    tag_344:\n        /* \"#utility.yul\":6807:6808   */\n      0x00\n        /* \"#utility.yul\":6804:6805   */\n      dup1\n        /* \"#utility.yul\":6797:6809   */\n      revert\n        /* \"#utility.yul\":6821:7001   */\n    tag_126:\n        /* \"#utility.yul\":6869:6946   */\n      0x4e487b7100000000000000000000000000000000000000000000000000000000\n        /* \"#utility.yul\":6866:6867   */\n      0x00\n        /* \"#utility.yul\":6859:6947   */\n      mstore\n        /* \"#utility.yul\":6966:6970   */\n      0x41\n        /* \"#utility.yul\":6963:6964   */\n      0x04\n        /* \"#utility.yul\":6956:6971   */\n      mstore\n        /* \"#utility.yul\":6990:6994   */\n      0x24\n        /* \"#utility.yul\":6987:6988   */\n      0x00\n        /* \"#utility.yul\":6980:6995   */\n      revert\n        /* \"#utility.yul\":7007:7288   */\n    tag_345:\n        /* \"#utility.yul\":7090:7117   */\n      tag_436\n        /* \"#utility.yul\":7112:7116   */\n      dup3\n        /* \"#utility.yul\":7090:7117   */\n      tag_332\n      jump\t// in\n    tag_436:\n        /* \"#utility.yul\":7082:7088   */\n      dup2\n        /* \"#utility.yul\":7078:7118   */\n      add\n        /* \"#utility.yul\":7220:7226   */\n      dup2\n        /* \"#utility.yul\":7208:7218   */\n      dup2\n        /* \"#utility.yul\":7205:7227   */\n      lt\n        /* \"#utility.yul\":7184:7202   */\n      0xffffffffffffffff\n        /* \"#utility.yul\":7172:7182   */\n      dup3\n        /* \"#utility.yul\":7169:7203   */\n      gt\n        /* \"#utility.yul\":7166:7228   */\n      or\n        /* \"#utility.yul\":7163:7251   */\n      iszero\n      tag_437\n      jumpi\n        /* \"#utility.yul\":7231:7249   */\n      tag_438\n      tag_126\n      jump\t// in\n    tag_438:\n        /* \"#utility.yul\":7163:7251   */\n    tag_437:\n        /* \"#utility.yul\":7271:7281   */\n      dup1\n        /* \"#utility.yul\":7267:7269   */\n      0x40\n        /* \"#utility.yul\":7260:7282   */\n      mstore\n        /* \"#utility.yul\":7050:7288   */\n      pop\n        /* \"#utility.yul\":7007:7288   */\n      pop\n      pop\n      jump\t// out\n        /* \"#utility.yul\":7294:7423   */\n    tag_346:\n        /* \"#utility.yul\":7328:7334   */\n      0x00\n        /* \"#utility.yul\":7355:7375   */\n      tag_440\n      tag_340\n      jump\t// in\n    tag_440:\n        /* \"#utility.yul\":7345:7375   */\n      swap1\n      pop\n        /* \"#utility.yul\":7384:7417   */\n      tag_441\n        /* \"#utility.yul\":7412:7416   */\n      dup3\n        /* \"#utility.yul\":7404:7410   */\n      dup3\n        /* \"#utility.yul\":7384:7417   */\n      tag_345\n      jump\t// in\n    tag_441:\n        /* \"#utility.yul\":7294:7423   */\n      swap2\n      swap1\n      pop\n      jump\t// out\n        /* \"#utility.yul\":7429:7737   */\n    tag_347:\n        /* \"#utility.yul\":7491:7495   */\n      0x00\n        /* \"#utility.yul\":7581:7599   */\n      0xffffffffffffffff\n        /* \"#utility.yul\":7573:7579   */\n      dup3\n        /* \"#utility.yul\":7570:7600   */\n      gt\n        /* \"#utility.yul\":7567:7623   */\n      iszero\n      tag_443\n      jumpi\n        /* \"#utility.yul\":7603:7621   */\n      tag_444\n      tag_126\n      jump\t// in\n    tag_444:\n        /* \"#utility.yul\":7567:7623   */\n    tag_443:\n        /* \"#utility.yul\":7641:7670   */\n      tag_445\n        /* \"#utility.yul\":7663:7669   */\n      dup3\n        /* \"#utility.yul\":7641:7670   */\n      tag_332\n      jump\t// in\n    tag_445:\n        /* \"#utility.yul\":7633:7670   */\n      swap1\n      pop\n        /* \"#utility.yul\":7725:7729   */\n      0x20\n        /* \"#utility.yul\":7719:7723   */\n      dup2\n        /* \"#utility.yul\":7715:7730   */\n      add\n        /* \"#utility.yul\":7707:7730   */\n      swap1\n      pop\n        /* \"#utility.yul\":7429:7737   */\n      swap2\n      swap1\n      pop\n      jump\t// out\n        /* \"#utility.yul\":7743:7889   */\n    tag_348:\n        /* \"#utility.yul\":7840:7846   */\n      dup3\n        /* \"#utility.yul\":7835:7838   */\n      dup2\n        /* \"#utility.yul\":7830:7833   */\n      dup4\n        /* \"#utility.yul\":7817:7847   */\n      calldatacopy\n        /* \"#utility.yul\":7881:7882   */\n      0x00\n        /* \"#utility.yul\":7872:7878   */\n      dup4\n        /* \"#utility.yul\":7867:7870   */\n      dup4\n        /* \"#utility.yul\":7863:7879   */\n      add\n        /* \"#utility.yul\":7856:7883   */\n      mstore\n        /* \"#utility.yul\":7743:7889   */\n      pop\n      pop\n      pop\n      jump\t// out\n        /* \"#utility.yul\":7895:8320   */\n    tag_349:\n        /* \"#utility.yul\":7973:7978   */\n      0x00\n        /* \"#utility.yul\":7998:8064   */\n      tag_448\n        /* \"#utility.yul\":8014:8063   */\n      tag_449\n        /* \"#utility.yul\":8056:8062   */\n      dup5\n        /* \"#utility.yul\":8014:8063   */\n      tag_347\n      jump\t// in\n    tag_449:\n        /* \"#utility.yul\":7998:8064   */\n      tag_346\n      jump\t// in\n    tag_448:\n        /* \"#utility.yul\":7989:8064   */\n      swap1\n      pop\n        /* \"#utility.yul\":8087:8093   */\n      dup3\n        /* \"#utility.yul\":8080:8085   */\n      dup2\n        /* \"#utility.yul\":8073:8094   */\n      mstore\n        /* \"#utility.yul\":8125:8129   */\n      0x20\n        /* \"#utility.yul\":8118:8123   */\n      dup2\n        /* \"#utility.yul\":8114:8130   */\n      add\n        /* \"#utility.yul\":8163:8166   */\n      dup5\n        /* \"#utility.yul\":8154:8160   */\n      dup5\n        /* \"#utility.yul\":8149:8152   */\n      dup5\n        /* \"#utility.yul\":8145:8161   */\n      add\n        /* \"#utility.yul\":8142:8167   */\n      gt\n        /* \"#utility.yul\":8139:8251   */\n      iszero\n      tag_450\n      jumpi\n        /* \"#utility.yul\":8170:8249   */\n      tag_451\n      tag_344\n      jump\t// in\n    tag_451:\n        /* \"#utility.yul\":8139:8251   */\n    tag_450:\n        /* \"#utility.yul\":8260:8314   */\n      tag_452\n        /* \"#utility.yul\":8307:8313   */\n      dup5\n        /* \"#utility.yul\":8302:8305   */\n      dup3\n        /* \"#utility.yul\":8297:8300   */\n      dup6\n        /* \"#utility.yul\":8260:8314   */\n      tag_348\n      jump\t// in\n    tag_452:\n        /* \"#utility.yul\":7979:8320   */\n      pop\n        /* \"#utility.yul\":7895:8320   */\n      swap4\n      swap3\n      pop\n      pop\n      pop\n      jump\t// out\n        /* \"#utility.yul\":8340:8680   */\n    tag_350:\n        /* \"#utility.yul\":8396:8401   */\n      0x00\n        /* \"#utility.yul\":8445:8448   */\n      dup3\n        /* \"#utility.yul\":8438:8442   */\n      0x1f\n        /* \"#utility.yul\":8430:8436   */\n      dup4\n        /* \"#utility.yul\":8426:8443   */\n      add\n        /* \"#utility.yul\":8422:8449   */\n      slt\n        /* \"#utility.yul\":8412:8534   */\n      tag_454\n      jumpi\n        /* \"#utility.yul\":8453:8532   */\n      tag_455\n      tag_343\n      jump\t// in\n    tag_455:\n        /* \"#utility.yul\":8412:8534   */\n    tag_454:\n        /* \"#utility.yul\":8570:8576   */\n      dup2\n        /* \"#utility.yul\":8557:8577   */\n      calldataload\n        /* \"#utility.yul\":8595:8674   */\n      tag_456\n        /* \"#utility.yul\":8670:8673   */\n      dup5\n        /* \"#utility.yul\":8662:8668   */\n      dup3\n        /* \"#utility.yul\":8655:8659   */\n      0x20\n        /* \"#utility.yul\":8647:8653   */\n      dup7\n        /* \"#utility.yul\":8643:8660   */\n      add\n        /* \"#utility.yul\":8595:8674   */\n      tag_349\n      jump\t// in\n    tag_456:\n        /* \"#utility.yul\":8586:8674   */\n      swap2\n      pop\n        /* \"#utility.yul\":8402:8680   */\n      pop\n        /* \"#utility.yul\":8340:8680   */\n      swap3\n      swap2\n      pop\n      pop\n      jump\t// out\n        /* \"#utility.yul\":8686:9520   */\n    tag_21:\n        /* \"#utility.yul\":8774:8780   */\n      0x00\n        /* \"#utility.yul\":8782:8788   */\n      dup1\n        /* \"#utility.yul\":8831:8833   */\n      0x40\n        /* \"#utility.yul\":8819:8828   */\n      dup4\n        /* \"#utility.yul\":8810:8817   */\n      dup6\n        /* \"#utility.yul\":8806:8829   */\n      sub\n        /* \"#utility.yul\":8802:8834   */\n      slt\n        /* \"#utility.yul\":8799:8918   */\n      iszero\n      tag_458\n      jumpi\n        /* \"#utility.yul\":8837:8916   */\n      tag_459\n      tag_341\n      jump\t// in\n    tag_459:\n        /* \"#utility.yul\":8799:8918   */\n    tag_458:\n        /* \"#utility.yul\":8985:8986   */\n      0x00\n        /* \"#utility.yul\":8974:8983   */\n      dup4\n        /* \"#utility.yul\":8970:8987   */\n      add\n        /* \"#utility.yul\":8957:8988   */\n      calldataload\n        /* \"#utility.yul\":9015:9033   */\n      0xffffffffffffffff\n        /* \"#utility.yul\":9007:9013   */\n      dup2\n        /* \"#utility.yul\":9004:9034   */\n      gt\n        /* \"#utility.yul\":9001:9118   */\n      iszero\n      tag_460\n      jumpi\n        /* \"#utility.yul\":9037:9116   */\n      tag_461\n      tag_342\n      jump\t// in\n    tag_461:\n        /* \"#utility.yul\":9001:9118   */\n    tag_460:\n        /* \"#utility.yul\":9142:9205   */\n      tag_462\n        /* \"#utility.yul\":9197:9204   */\n      dup6\n        /* \"#utility.yul\":9188:9194   */\n      dup3\n        /* \"#utility.yul\":9177:9186   */\n      dup7\n        /* \"#utility.yul\":9173:9195   */\n      add\n        /* \"#utility.yul\":9142:9205   */\n      tag_350\n      jump\t// in\n    tag_462:\n        /* \"#utility.yul\":9132:9205   */\n      swap3\n      pop\n        /* \"#utility.yul\":8928:9215   */\n      pop\n        /* \"#utility.yul\":9282:9284   */\n      0x20\n        /* \"#utility.yul\":9271:9280   */\n      dup4\n        /* \"#utility.yul\":9267:9285   */\n      add\n        /* \"#utility.yul\":9254:9286   */\n      calldataload\n        /* \"#utility.yul\":9313:9331   */\n      0xffffffffffffffff\n        /* \"#utility.yul\":9305:9311   */\n      dup2\n        /* \"#utility.yul\":9302:9332   */\n      gt\n        /* \"#utility.yul\":9299:9416   */\n      iszero\n      tag_463\n      jumpi\n        /* \"#utility.yul\":9335:9414   */\n      tag_464\n      tag_342\n      jump\t// in\n    tag_464:\n        /* \"#utility.yul\":9299:9416   */\n    tag_463:\n        /* \"#utility.yul\":9440:9503   */\n      tag_465\n        /* \"#utility.yul\":9495:9502   */\n      dup6\n        /* \"#utility.yul\":9486:9492   */\n      dup3\n        /* \"#utility.yul\":9475:9484   */\n      dup7\n        /* \"#utility.yul\":9471:9493   */\n      add\n        /* \"#utility.yul\":9440:9503   */\n      tag_350\n      jump\t// in\n    tag_465:\n        /* \"#utility.yul\":9430:9503   */\n      swap2\n      pop\n        /* \"#utility.yul\":9225:9513   */\n      pop\n        /* \"#utility.yul\":8686:9520   */\n      swap3\n      pop\n      swap3\n      swap1\n      pop\n      jump\t// out\n        /* \"#utility.yul\":9526:9635   */\n    tag_351:\n        /* \"#utility.yul\":9607:9628   */\n      tag_467\n        /* \"#utility.yul\":9622:9627   */\n      dup2\n        /* \"#utility.yul\":9607:9628   */\n      tag_334\n      jump\t// in\n    tag_467:\n        /* \"#utility.yul\":9602:9605   */\n      dup3\n        /* \"#utility.yul\":9595:9629   */\n      mstore\n        /* \"#utility.yul\":9526:9635   */\n      pop\n      pop\n      jump\t// out\n        /* \"#utility.yul\":9641:9851   */\n    tag_24:\n        /* \"#utility.yul\":9728:9732   */\n      0x00\n        /* \"#utility.yul\":9766:9768   */\n      0x20\n        /* \"#utility.yul\":9755:9764   */\n      dup3\n        /* \"#utility.yul\":9751:9769   */\n      add\n        /* \"#utility.yul\":9743:9769   */\n      swap1\n      pop\n        /* \"#utility.yul\":9779:9844   */\n      tag_469\n        /* \"#utility.yul\":9841:9842   */\n      0x00\n        /* \"#utility.yul\":9830:9839   */\n      dup4\n        /* \"#utility.yul\":9826:9843   */\n      add\n        /* \"#utility.yul\":9817:9823   */\n      dup5\n        /* \"#utility.yul\":9779:9844   */\n      tag_351\n      jump\t// in\n    tag_469:\n        /* \"#utility.yul\":9641:9851   */\n      swap3\n      swap2\n      pop\n      pop\n      jump\t// out\n        /* \"#utility.yul\":9929:10786   */\n    tag_352:\n        /* \"#utility.yul\":10046:10049   */\n      0x00\n        /* \"#utility.yul\":10082:10086   */\n      0x60\n        /* \"#utility.yul\":10077:10080   */\n      dup4\n        /* \"#utility.yul\":10073:10087   */\n      add\n        /* \"#utility.yul\":10171:10175   */\n      0x00\n        /* \"#utility.yul\":10164:10169   */\n      dup4\n        /* \"#utility.yul\":10160:10176   */\n      add\n        /* \"#utility.yul\":10154:10177   */\n      mload\n        /* \"#utility.yul\":10224:10227   */\n      dup5\n        /* \"#utility.yul\":10218:10222   */\n      dup3\n        /* \"#utility.yul\":10214:10228   */\n      sub\n        /* \"#utility.yul\":10207:10211   */\n      0x00\n        /* \"#utility.yul\":10202:10205   */\n      dup7\n        /* \"#utility.yul\":10198:10212   */\n      add\n        /* \"#utility.yul\":10191:10229   */\n      mstore\n        /* \"#utility.yul\":10250:10323   */\n      tag_471\n        /* \"#utility.yul\":10318:10322   */\n      dup3\n        /* \"#utility.yul\":10304:10316   */\n      dup3\n        /* \"#utility.yul\":10250:10323   */\n      tag_333\n      jump\t// in\n    tag_471:\n        /* \"#utility.yul\":10242:10323   */\n      swap2\n      pop\n        /* \"#utility.yul\":10097:10334   */\n      pop\n        /* \"#utility.yul\":10416:10420   */\n      0x20\n        /* \"#utility.yul\":10409:10414   */\n      dup4\n        /* \"#utility.yul\":10405:10421   */\n      add\n        /* \"#utility.yul\":10399:10422   */\n      mload\n        /* \"#utility.yul\":10435:10498   */\n      tag_472\n        /* \"#utility.yul\":10492:10496   */\n      0x20\n        /* \"#utility.yul\":10487:10490   */\n      dup7\n        /* \"#utility.yul\":10483:10497   */\n      add\n        /* \"#utility.yul\":10469:10481   */\n      dup3\n        /* \"#utility.yul\":10435:10498   */\n      tag_328\n      jump\t// in\n    tag_472:\n        /* \"#utility.yul\":10344:10508   */\n      pop\n        /* \"#utility.yul\":10596:10600   */\n      0x40\n        /* \"#utility.yul\":10589:10594   */\n      dup4\n        /* \"#utility.yul\":10585:10601   */\n      add\n        /* \"#utility.yul\":10579:10602   */\n      mload\n        /* \"#utility.yul\":10649:10652   */\n      dup5\n        /* \"#utility.yul\":10643:10647   */\n      dup3\n        /* \"#utility.yul\":10639:10653   */\n      sub\n        /* \"#utility.yul\":10632:10636   */\n      0x40\n        /* \"#utility.yul\":10627:10630   */\n      dup7\n        /* \"#utility.yul\":10623:10637   */\n      add\n        /* \"#utility.yul\":10616:10654   */\n      mstore\n        /* \"#utility.yul\":10675:10748   */\n      tag_473\n        /* \"#utility.yul\":10743:10747   */\n      dup3\n        /* \"#utility.yul\":10729:10741   */\n      dup3\n        /* \"#utility.yul\":10675:10748   */\n      tag_333\n      jump\t// in\n    tag_473:\n        /* \"#utility.yul\":10667:10748   */\n      swap2\n      pop\n        /* \"#utility.yul\":10518:10759   */\n      pop\n        /* \"#utility.yul\":10776:10780   */\n      dup1\n        /* \"#utility.yul\":10769:10780   */\n      swap2\n      pop\n        /* \"#utility.yul\":10051:10786   */\n      pop\n        /* \"#utility.yul\":9929:10786   */\n      swap3\n      swap2\n      pop\n      pop\n      jump\t// out\n        /* \"#utility.yul\":10792:11161   */\n    tag_28:\n        /* \"#utility.yul\":10933:10937   */\n      0x00\n        /* \"#utility.yul\":10971:10973   */\n      0x20\n        /* \"#utility.yul\":10960:10969   */\n      dup3\n        /* \"#utility.yul\":10956:10974   */\n      add\n        /* \"#utility.yul\":10948:10974   */\n      swap1\n      pop\n        /* \"#utility.yul\":11020:11029   */\n      dup2\n        /* \"#utility.yul\":11014:11018   */\n      dup2\n        /* \"#utility.yul\":11010:11030   */\n      sub\n        /* \"#utility.yul\":11006:11007   */\n      0x00\n        /* \"#utility.yul\":10995:11004   */\n      dup4\n        /* \"#utility.yul\":10991:11008   */\n      add\n        /* \"#utility.yul\":10984:11031   */\n      mstore\n        /* \"#utility.yul\":11048:11154   */\n      tag_475\n        /* \"#utility.yul\":11149:11153   */\n      dup2\n        /* \"#utility.yul\":11140:11146   */\n      dup5\n        /* \"#utility.yul\":11048:11154   */\n      tag_352\n      jump\t// in\n    tag_475:\n        /* \"#utility.yul\":11040:11154   */\n      swap1\n      pop\n        /* \"#utility.yul\":10792:11161   */\n      swap3\n      swap2\n      pop\n      pop\n      jump\t// out\n        /* \"#utility.yul\":11167:11289   */\n    tag_353:\n        /* \"#utility.yul\":11240:11264   */\n      tag_477\n        /* \"#utility.yul\":11258:11263   */\n      dup2\n        /* \"#utility.yul\":11240:11264   */\n      tag_324\n      jump\t// in\n    tag_477:\n        /* \"#utility.yul\":11233:11238   */\n      dup2\n        /* \"#utility.yul\":11230:11265   */\n      eq\n        /* \"#utility.yul\":11220:11283   */\n      tag_478\n      jumpi\n        /* \"#utility.yul\":11279:11280   */\n      0x00\n        /* \"#utility.yul\":11276:11277   */\n      dup1\n        /* \"#utility.yul\":11269:11281   */\n      revert\n        /* \"#utility.yul\":11220:11283   */\n    tag_478:\n        /* \"#utility.yul\":11167:11289   */\n      pop\n      jump\t// out\n        /* \"#utility.yul\":11295:11434   */\n    tag_354:\n        /* \"#utility.yul\":11341:11346   */\n      0x00\n        /* \"#utility.yul\":11379:11385   */\n      dup2\n        /* \"#utility.yul\":11366:11386   */\n      calldataload\n        /* \"#utility.yul\":11357:11386   */\n      swap1\n      pop\n        /* \"#utility.yul\":11395:11428   */\n      tag_480\n        /* \"#utility.yul\":11422:11427   */\n      dup2\n        /* \"#utility.yul\":11395:11428   */\n      tag_353\n      jump\t// in\n    tag_480:\n        /* \"#utility.yul\":11295:11434   */\n      swap3\n      swap2\n      pop\n      pop\n      jump\t// out\n        /* \"#utility.yul\":11440:13071   */\n    tag_34:\n        /* \"#utility.yul\":11575:11581   */\n      0x00\n        /* \"#utility.yul\":11583:11589   */\n      dup1\n        /* \"#utility.yul\":11591:11597   */\n      0x00\n        /* \"#utility.yul\":11599:11605   */\n      dup1\n        /* \"#utility.yul\":11607:11613   */\n      0x00\n        /* \"#utility.yul\":11656:11659   */\n      0xa0\n        /* \"#utility.yul\":11644:11653   */\n      dup7\n        /* \"#utility.yul\":11635:11642   */\n      dup9\n        /* \"#utility.yul\":11631:11654   */\n      sub\n        /* \"#utility.yul\":11627:11660   */\n      slt\n        /* \"#utility.yul\":11624:11744   */\n      iszero\n      tag_482\n      jumpi\n        /* \"#utility.yul\":11663:11742   */\n      tag_483\n      tag_341\n      jump\t// in\n    tag_483:\n        /* \"#utility.yul\":11624:11744   */\n    tag_482:\n        /* \"#utility.yul\":11811:11812   */\n      0x00\n        /* \"#utility.yul\":11800:11809   */\n      dup7\n        /* \"#utility.yul\":11796:11813   */\n      add\n        /* \"#utility.yul\":11783:11814   */\n      calldataload\n        /* \"#utility.yul\":11841:11859   */\n      0xffffffffffffffff\n        /* \"#utility.yul\":11833:11839   */\n      dup2\n        /* \"#utility.yul\":11830:11860   */\n      gt\n        /* \"#utility.yul\":11827:11944   */\n      iszero\n      tag_484\n      jumpi\n        /* \"#utility.yul\":11863:11942   */\n      tag_485\n      tag_342\n      jump\t// in\n    tag_485:\n        /* \"#utility.yul\":11827:11944   */\n    tag_484:\n        /* \"#utility.yul\":11968:12031   */\n      tag_486\n        /* \"#utility.yul\":12023:12030   */\n      dup9\n        /* \"#utility.yul\":12014:12020   */\n      dup3\n        /* \"#utility.yul\":12003:12012   */\n      dup10\n        /* \"#utility.yul\":11999:12021   */\n      add\n        /* \"#utility.yul\":11968:12031   */\n      tag_350\n      jump\t// in\n    tag_486:\n        /* \"#utility.yul\":11958:12031   */\n      swap6\n      pop\n        /* \"#utility.yul\":11754:12041   */\n      pop\n        /* \"#utility.yul\":12108:12110   */\n      0x20\n        /* \"#utility.yul\":12097:12106   */\n      dup7\n        /* \"#utility.yul\":12093:12111   */\n      add\n        /* \"#utility.yul\":12080:12112   */\n      calldataload\n        /* \"#utility.yul\":12139:12157   */\n      0xffffffffffffffff\n        /* \"#utility.yul\":12131:12137   */\n      dup2\n        /* \"#utility.yul\":12128:12158   */\n      gt\n        /* \"#utility.yul\":12125:12242   */\n      iszero\n      tag_487\n      jumpi\n        /* \"#utility.yul\":12161:12240   */\n      tag_488\n      tag_342\n      jump\t// in\n    tag_488:\n        /* \"#utility.yul\":12125:12242   */\n    tag_487:\n        /* \"#utility.yul\":12266:12329   */\n      tag_489\n        /* \"#utility.yul\":12321:12328   */\n      dup9\n        /* \"#utility.yul\":12312:12318   */\n      dup3\n        /* \"#utility.yul\":12301:12310   */\n      dup10\n        /* \"#utility.yul\":12297:12319   */\n      add\n        /* \"#utility.yul\":12266:12329   */\n      tag_350\n      jump\t// in\n    tag_489:\n        /* \"#utility.yul\":12256:12329   */\n      swap5\n      pop\n        /* \"#utility.yul\":12051:12339   */\n      pop\n        /* \"#utility.yul\":12378:12380   */\n      0x40\n        /* \"#utility.yul\":12404:12457   */\n      tag_490\n        /* \"#utility.yul\":12449:12456   */\n      dup9\n        /* \"#utility.yul\":12440:12446   */\n      dup3\n        /* \"#utility.yul\":12429:12438   */\n      dup10\n        /* \"#utility.yul\":12425:12447   */\n      add\n        /* \"#utility.yul\":12404:12457   */\n      tag_354\n      jump\t// in\n    tag_490:\n        /* \"#utility.yul\":12394:12457   */\n      swap4\n      pop\n        /* \"#utility.yul\":12349:12467   */\n      pop\n        /* \"#utility.yul\":12534:12536   */\n      0x60\n        /* \"#utility.yul\":12523:12532   */\n      dup7\n        /* \"#utility.yul\":12519:12537   */\n      add\n        /* \"#utility.yul\":12506:12538   */\n      calldataload\n        /* \"#utility.yul\":12565:12583   */\n      0xffffffffffffffff\n        /* \"#utility.yul\":12557:12563   */\n      dup2\n        /* \"#utility.yul\":12554:12584   */\n      gt\n        /* \"#utility.yul\":12551:12668   */\n      iszero\n      tag_491\n      jumpi\n        /* \"#utility.yul\":12587:12666   */\n      tag_492\n      tag_342\n      jump\t// in\n    tag_492:\n        /* \"#utility.yul\":12551:12668   */\n    tag_491:\n        /* \"#utility.yul\":12692:12755   */\n      tag_493\n        /* \"#utility.yul\":12747:12754   */\n      dup9\n        /* \"#utility.yul\":12738:12744   */\n      dup3\n        /* \"#utility.yul\":12727:12736   */\n      dup10\n        /* \"#utility.yul\":12723:12745   */\n      add\n        /* \"#utility.yul\":12692:12755   */\n      tag_350\n      jump\t// in\n    tag_493:\n        /* \"#utility.yul\":12682:12755   */\n      swap3\n      pop\n        /* \"#utility.yul\":12477:12765   */\n      pop\n        /* \"#utility.yul\":12832:12835   */\n      0x80\n        /* \"#utility.yul\":12821:12830   */\n      dup7\n        /* \"#utility.yul\":12817:12836   */\n      add\n        /* \"#utility.yul\":12804:12837   */\n      calldataload\n        /* \"#utility.yul\":12864:12882   */\n      0xffffffffffffffff\n        /* \"#utility.yul\":12856:12862   */\n      dup2\n        /* \"#utility.yul\":12853:12883   */\n      gt\n        /* \"#utility.yul\":12850:12967   */\n      iszero\n      tag_494\n      jumpi\n        /* \"#utility.yul\":12886:12965   */\n      tag_495\n      tag_342\n      jump\t// in\n    tag_495:\n        /* \"#utility.yul\":12850:12967   */\n    tag_494:\n        /* \"#utility.yul\":12991:13054   */\n      tag_496\n        /* \"#utility.yul\":13046:13053   */\n      dup9\n        /* \"#utility.yul\":13037:13043   */\n      dup3\n        /* \"#utility.yul\":13026:13035   */\n      dup10\n        /* \"#utility.yul\":13022:13044   */\n      add\n        /* \"#utility.yul\":12991:13054   */\n      tag_350\n      jump\t// in\n    tag_496:\n        /* \"#utility.yul\":12981:13054   */\n      swap2\n      pop\n        /* \"#utility.yul\":12775:13064   */\n      pop\n        /* \"#utility.yul\":11440:13071   */\n      swap3\n      swap6\n      pop\n      swap3\n      swap6\n      swap1\n      swap4\n      pop\n      jump\t// out\n        /* \"#utility.yul\":13077:13406   */\n    tag_38:\n        /* \"#utility.yul\":13136:13142   */\n      0x00\n        /* \"#utility.yul\":13185:13187   */\n      0x20\n        /* \"#utility.yul\":13173:13182   */\n      dup3\n        /* \"#utility.yul\":13164:13171   */\n      dup5\n        /* \"#utility.yul\":13160:13183   */\n      sub\n        /* \"#utility.yul\":13156:13188   */\n      slt\n        /* \"#utility.yul\":13153:13272   */\n      iszero\n      tag_498\n      jumpi\n        /* \"#utility.yul\":13191:13270   */\n      tag_499\n      tag_341\n      jump\t// in\n    tag_499:\n        /* \"#utility.yul\":13153:13272   */\n    tag_498:\n        /* \"#utility.yul\":13311:13312   */\n      0x00\n        /* \"#utility.yul\":13336:13389   */\n      tag_500\n        /* \"#utility.yul\":13381:13388   */\n      dup5\n        /* \"#utility.yul\":13372:13378   */\n      dup3\n        /* \"#utility.yul\":13361:13370   */\n      dup6\n        /* \"#utility.yul\":13357:13379   */\n      add\n        /* \"#utility.yul\":13336:13389   */\n      tag_354\n      jump\t// in\n    tag_500:\n        /* \"#utility.yul\":13326:13389   */\n      swap2\n      pop\n        /* \"#utility.yul\":13282:13399   */\n      pop\n        /* \"#utility.yul\":13077:13406   */\n      swap3\n      swap2\n      pop\n      pop\n      jump\t// out\n        /* \"#utility.yul\":13412:13530   */\n    tag_355:\n        /* \"#utility.yul\":13499:13523   */\n      tag_502\n        /* \"#utility.yul\":13517:13522   */\n      dup2\n        /* \"#utility.yul\":13499:13523   */\n      tag_324\n      jump\t// in\n    tag_502:\n        /* \"#utility.yul\":13494:13497   */\n      dup3\n        /* \"#utility.yul\":13487:13524   */\n      mstore\n        /* \"#utility.yul\":13412:13530   */\n      pop\n      pop\n      jump\t// out\n        /* \"#utility.yul\":13536:13654   */\n    tag_356:\n        /* \"#utility.yul\":13623:13647   */\n      tag_504\n        /* \"#utility.yul\":13641:13646   */\n      dup2\n        /* \"#utility.yul\":13623:13647   */\n      tag_327\n      jump\t// in\n    tag_504:\n        /* \"#utility.yul\":13618:13621   */\n      dup3\n        /* \"#utility.yul\":13611:13648   */\n      mstore\n        /* \"#utility.yul\":13536:13654   */\n      pop\n      pop\n      jump\t// out\n        /* \"#utility.yul\":13660:13829   */\n    tag_357:\n        /* \"#utility.yul\":13744:13755   */\n      0x00\n        /* \"#utility.yul\":13778:13784   */\n      dup3\n        /* \"#utility.yul\":13773:13776   */\n      dup3\n        /* \"#utility.yul\":13766:13785   */\n      mstore\n        /* \"#utility.yul\":13818:13822   */\n      0x20\n        /* \"#utility.yul\":13813:13816   */\n      dup3\n        /* \"#utility.yul\":13809:13823   */\n      add\n        /* \"#utility.yul\":13794:13823   */\n      swap1\n      pop\n        /* \"#utility.yul\":13660:13829   */\n      swap3\n      swap2\n      pop\n      pop\n      jump\t// out\n        /* \"#utility.yul\":13835:14212   */\n    tag_358:\n        /* \"#utility.yul\":13923:13926   */\n      0x00\n        /* \"#utility.yul\":13951:13990   */\n      tag_507\n        /* \"#utility.yul\":13984:13989   */\n      dup3\n        /* \"#utility.yul\":13951:13990   */\n      tag_329\n      jump\t// in\n    tag_507:\n        /* \"#utility.yul\":14006:14077   */\n      tag_508\n        /* \"#utility.yul\":14070:14076   */\n      dup2\n        /* \"#utility.yul\":14065:14068   */\n      dup6\n        /* \"#utility.yul\":14006:14077   */\n      tag_357\n      jump\t// in\n    tag_508:\n        /* \"#utility.yul\":13999:14077   */\n      swap4\n      pop\n        /* \"#utility.yul\":14086:14151   */\n      tag_509\n        /* \"#utility.yul\":14144:14150   */\n      dup2\n        /* \"#utility.yul\":14139:14142   */\n      dup6\n        /* \"#utility.yul\":14132:14136   */\n      0x20\n        /* \"#utility.yul\":14125:14130   */\n      dup7\n        /* \"#utility.yul\":14121:14137   */\n      add\n        /* \"#utility.yul\":14086:14151   */\n      tag_331\n      jump\t// in\n    tag_509:\n        /* \"#utility.yul\":14176:14205   */\n      tag_510\n        /* \"#utility.yul\":14198:14204   */\n      dup2\n        /* \"#utility.yul\":14176:14205   */\n      tag_332\n      jump\t// in\n    tag_510:\n        /* \"#utility.yul\":14171:14174   */\n      dup5\n        /* \"#utility.yul\":14167:14206   */\n      add\n        /* \"#utility.yul\":14160:14206   */\n      swap2\n      pop\n        /* \"#utility.yul\":13927:14212   */\n      pop\n        /* \"#utility.yul\":13835:14212   */\n      swap3\n      swap2\n      pop\n      pop\n      jump\t// out\n        /* \"#utility.yul\":14218:15567   */\n    tag_41:\n        /* \"#utility.yul\":14581:14585   */\n      0x00\n        /* \"#utility.yul\":14619:14622   */\n      0x0100\n        /* \"#utility.yul\":14608:14617   */\n      dup3\n        /* \"#utility.yul\":14604:14623   */\n      add\n        /* \"#utility.yul\":14596:14623   */\n      swap1\n      pop\n        /* \"#utility.yul\":14633:14704   */\n      tag_512\n        /* \"#utility.yul\":14701:14702   */\n      0x00\n        /* \"#utility.yul\":14690:14699   */\n      dup4\n        /* \"#utility.yul\":14686:14703   */\n      add\n        /* \"#utility.yul\":14677:14683   */\n      dup12\n        /* \"#utility.yul\":14633:14704   */\n      tag_355\n      jump\t// in\n    tag_512:\n        /* \"#utility.yul\":14714:14786   */\n      tag_513\n        /* \"#utility.yul\":14782:14784   */\n      0x20\n        /* \"#utility.yul\":14771:14780   */\n      dup4\n        /* \"#utility.yul\":14767:14785   */\n      add\n        /* \"#utility.yul\":14758:14764   */\n      dup11\n        /* \"#utility.yul\":14714:14786   */\n      tag_356\n      jump\t// in\n    tag_513:\n        /* \"#utility.yul\":14833:14842   */\n      dup2\n        /* \"#utility.yul\":14827:14831   */\n      dup2\n        /* \"#utility.yul\":14823:14843   */\n      sub\n        /* \"#utility.yul\":14818:14820   */\n      0x40\n        /* \"#utility.yul\":14807:14816   */\n      dup4\n        /* \"#utility.yul\":14803:14821   */\n      add\n        /* \"#utility.yul\":14796:14844   */\n      mstore\n        /* \"#utility.yul\":14861:14939   */\n      tag_514\n        /* \"#utility.yul\":14934:14938   */\n      dup2\n        /* \"#utility.yul\":14925:14931   */\n      dup10\n        /* \"#utility.yul\":14861:14939   */\n      tag_358\n      jump\t// in\n    tag_514:\n        /* \"#utility.yul\":14853:14939   */\n      swap1\n      pop\n        /* \"#utility.yul\":14986:14995   */\n      dup2\n        /* \"#utility.yul\":14980:14984   */\n      dup2\n        /* \"#utility.yul\":14976:14996   */\n      sub\n        /* \"#utility.yul\":14971:14973   */\n      0x60\n        /* \"#utility.yul\":14960:14969   */\n      dup4\n        /* \"#utility.yul\":14956:14974   */\n      add\n        /* \"#utility.yul\":14949:14997   */\n      mstore\n        /* \"#utility.yul\":15014:15092   */\n      tag_515\n        /* \"#utility.yul\":15087:15091   */\n      dup2\n        /* \"#utility.yul\":15078:15084   */\n      dup9\n        /* \"#utility.yul\":15014:15092   */\n      tag_358\n      jump\t// in\n    tag_515:\n        /* \"#utility.yul\":15006:15092   */\n      swap1\n      pop\n        /* \"#utility.yul\":15102:15175   */\n      tag_516\n        /* \"#utility.yul\":15170:15173   */\n      0x80\n        /* \"#utility.yul\":15159:15168   */\n      dup4\n        /* \"#utility.yul\":15155:15174   */\n      add\n        /* \"#utility.yul\":15146:15152   */\n      dup8\n        /* \"#utility.yul\":15102:15175   */\n      tag_355\n      jump\t// in\n    tag_516:\n        /* \"#utility.yul\":15223:15232   */\n      dup2\n        /* \"#utility.yul\":15217:15221   */\n      dup2\n        /* \"#utility.yul\":15213:15233   */\n      sub\n        /* \"#utility.yul\":15207:15210   */\n      0xa0\n        /* \"#utility.yul\":15196:15205   */\n      dup4\n        /* \"#utility.yul\":15192:15211   */\n      add\n        /* \"#utility.yul\":15185:15234   */\n      mstore\n        /* \"#utility.yul\":15251:15329   */\n      tag_517\n        /* \"#utility.yul\":15324:15328   */\n      dup2\n        /* \"#utility.yul\":15315:15321   */\n      dup7\n        /* \"#utility.yul\":15251:15329   */\n      tag_358\n      jump\t// in\n    tag_517:\n        /* \"#utility.yul\":15243:15329   */\n      swap1\n      pop\n        /* \"#utility.yul\":15339:15406   */\n      tag_518\n        /* \"#utility.yul\":15401:15404   */\n      0xc0\n        /* \"#utility.yul\":15390:15399   */\n      dup4\n        /* \"#utility.yul\":15386:15405   */\n      add\n        /* \"#utility.yul\":15377:15383   */\n      dup6\n        /* \"#utility.yul\":15339:15406   */\n      tag_351\n      jump\t// in\n    tag_518:\n        /* \"#utility.yul\":15454:15463   */\n      dup2\n        /* \"#utility.yul\":15448:15452   */\n      dup2\n        /* \"#utility.yul\":15444:15464   */\n      sub\n        /* \"#utility.yul\":15438:15441   */\n      0xe0\n        /* \"#utility.yul\":15427:15436   */\n      dup4\n        /* \"#utility.yul\":15423:15442   */\n      add\n        /* \"#utility.yul\":15416:15465   */\n      mstore\n        /* \"#utility.yul\":15482:15560   */\n      tag_519\n        /* \"#utility.yul\":15555:15559   */\n      dup2\n        /* \"#utility.yul\":15546:15552   */\n      dup5\n        /* \"#utility.yul\":15482:15560   */\n      tag_358\n      jump\t// in\n    tag_519:\n        /* \"#utility.yul\":15474:15560   */\n      swap1\n      pop\n        /* \"#utility.yul\":14218:15567   */\n      swap10\n      swap9\n      pop\n      pop\n      pop\n      pop\n      pop\n      pop\n      pop\n      pop\n      pop\n      jump\t// out\n        /* \"#utility.yul\":15573:16197   */\n    tag_46:\n        /* \"#utility.yul\":15762:15766   */\n      0x00\n        /* \"#utility.yul\":15800:15802   */\n      0x60\n        /* \"#utility.yul\":15789:15798   */\n      dup3\n        /* \"#utility.yul\":15785:15803   */\n      add\n        /* \"#utility.yul\":15777:15803   */\n      swap1\n      pop\n        /* \"#utility.yul\":15849:15858   */\n      dup2\n        /* \"#utility.yul\":15843:15847   */\n      dup2\n        /* \"#utility.yul\":15839:15859   */\n      sub\n        /* \"#utility.yul\":15835:15836   */\n      0x00\n        /* \"#utility.yul\":15824:15833   */\n      dup4\n        /* \"#utility.yul\":15820:15837   */\n      add\n        /* \"#utility.yul\":15813:15860   */\n      mstore\n        /* \"#utility.yul\":15877:15955   */\n      tag_521\n        /* \"#utility.yul\":15950:15954   */\n      dup2\n        /* \"#utility.yul\":15941:15947   */\n      dup7\n        /* \"#utility.yul\":15877:15955   */\n      tag_358\n      jump\t// in\n    tag_521:\n        /* \"#utility.yul\":15869:15955   */\n      swap1\n      pop\n        /* \"#utility.yul\":15965:16037   */\n      tag_522\n        /* \"#utility.yul\":16033:16035   */\n      0x20\n        /* \"#utility.yul\":16022:16031   */\n      dup4\n        /* \"#utility.yul\":16018:16036   */\n      add\n        /* \"#utility.yul\":16009:16015   */\n      dup6\n        /* \"#utility.yul\":15965:16037   */\n      tag_356\n      jump\t// in\n    tag_522:\n        /* \"#utility.yul\":16084:16093   */\n      dup2\n        /* \"#utility.yul\":16078:16082   */\n      dup2\n        /* \"#utility.yul\":16074:16094   */\n      sub\n        /* \"#utility.yul\":16069:16071   */\n      0x40\n        /* \"#utility.yul\":16058:16067   */\n      dup4\n        /* \"#utility.yul\":16054:16072   */\n      add\n        /* \"#utility.yul\":16047:16095   */\n      mstore\n        /* \"#utility.yul\":16112:16190   */\n      tag_523\n        /* \"#utility.yul\":16185:16189   */\n      dup2\n        /* \"#utility.yul\":16176:16182   */\n      dup5\n        /* \"#utility.yul\":16112:16190   */\n      tag_358\n      jump\t// in\n    tag_523:\n        /* \"#utility.yul\":16104:16190   */\n      swap1\n      pop\n        /* \"#utility.yul\":15573:16197   */\n      swap5\n      swap4\n      pop\n      pop\n      pop\n      pop\n      jump\t// out\n        /* \"#utility.yul\":16275:18148   */\n    tag_359:\n        /* \"#utility.yul\":16390:16393   */\n      0x00\n        /* \"#utility.yul\":16426:16432   */\n      0x0100\n        /* \"#utility.yul\":16421:16424   */\n      dup4\n        /* \"#utility.yul\":16417:16433   */\n      add\n        /* \"#utility.yul\":16513:16517   */\n      0x00\n        /* \"#utility.yul\":16506:16511   */\n      dup4\n        /* \"#utility.yul\":16502:16518   */\n      add\n        /* \"#utility.yul\":16496:16519   */\n      mload\n        /* \"#utility.yul\":16532:16595   */\n      tag_525\n        /* \"#utility.yul\":16589:16593   */\n      0x00\n        /* \"#utility.yul\":16584:16587   */\n      dup7\n        /* \"#utility.yul\":16580:16594   */\n      add\n        /* \"#utility.yul\":16566:16578   */\n      dup3\n        /* \"#utility.yul\":16532:16595   */\n      tag_325\n      jump\t// in\n    tag_525:\n        /* \"#utility.yul\":16443:16605   */\n      pop\n        /* \"#utility.yul\":16689:16693   */\n      0x20\n        /* \"#utility.yul\":16682:16687   */\n      dup4\n        /* \"#utility.yul\":16678:16694   */\n      add\n        /* \"#utility.yul\":16672:16695   */\n      mload\n        /* \"#utility.yul\":16708:16771   */\n      tag_526\n        /* \"#utility.yul\":16765:16769   */\n      0x20\n        /* \"#utility.yul\":16760:16763   */\n      dup7\n        /* \"#utility.yul\":16756:16770   */\n      add\n        /* \"#utility.yul\":16742:16754   */\n      dup3\n        /* \"#utility.yul\":16708:16771   */\n      tag_328\n      jump\t// in\n    tag_526:\n        /* \"#utility.yul\":16615:16781   */\n      pop\n        /* \"#utility.yul\":16864:16868   */\n      0x40\n        /* \"#utility.yul\":16857:16862   */\n      dup4\n        /* \"#utility.yul\":16853:16869   */\n      add\n        /* \"#utility.yul\":16847:16870   */\n      mload\n        /* \"#utility.yul\":16917:16920   */\n      dup5\n        /* \"#utility.yul\":16911:16915   */\n      dup3\n        /* \"#utility.yul\":16907:16921   */\n      sub\n        /* \"#utility.yul\":16900:16904   */\n      0x40\n        /* \"#utility.yul\":16895:16898   */\n      dup7\n        /* \"#utility.yul\":16891:16905   */\n      add\n        /* \"#utility.yul\":16884:16922   */\n      mstore\n        /* \"#utility.yul\":16943:17016   */\n      tag_527\n        /* \"#utility.yul\":17011:17015   */\n      dup3\n        /* \"#utility.yul\":16997:17009   */\n      dup3\n        /* \"#utility.yul\":16943:17016   */\n      tag_333\n      jump\t// in\n    tag_527:\n        /* \"#utility.yul\":16935:17016   */\n      swap2\n      pop\n        /* \"#utility.yul\":16791:17027   */\n      pop\n        /* \"#utility.yul\":17116:17120   */\n      0x60\n        /* \"#utility.yul\":17109:17114   */\n      dup4\n        /* \"#utility.yul\":17105:17121   */\n      add\n        /* \"#utility.yul\":17099:17122   */\n      mload\n        /* \"#utility.yul\":17169:17172   */\n      dup5\n        /* \"#utility.yul\":17163:17167   */\n      dup3\n        /* \"#utility.yul\":17159:17173   */\n      sub\n        /* \"#utility.yul\":17152:17156   */\n      0x60\n        /* \"#utility.yul\":17147:17150   */\n      dup7\n        /* \"#utility.yul\":17143:17157   */\n      add\n        /* \"#utility.yul\":17136:17174   */\n      mstore\n        /* \"#utility.yul\":17195:17268   */\n      tag_528\n        /* \"#utility.yul\":17263:17267   */\n      dup3\n        /* \"#utility.yul\":17249:17261   */\n      dup3\n        /* \"#utility.yul\":17195:17268   */\n      tag_333\n      jump\t// in\n    tag_528:\n        /* \"#utility.yul\":17187:17268   */\n      swap2\n      pop\n        /* \"#utility.yul\":17037:17279   */\n      pop\n        /* \"#utility.yul\":17362:17366   */\n      0x80\n        /* \"#utility.yul\":17355:17360   */\n      dup4\n        /* \"#utility.yul\":17351:17367   */\n      add\n        /* \"#utility.yul\":17345:17368   */\n      mload\n        /* \"#utility.yul\":17381:17444   */\n      tag_529\n        /* \"#utility.yul\":17438:17442   */\n      0x80\n        /* \"#utility.yul\":17433:17436   */\n      dup7\n        /* \"#utility.yul\":17429:17443   */\n      add\n        /* \"#utility.yul\":17415:17427   */\n      dup3\n        /* \"#utility.yul\":17381:17444   */\n      tag_325\n      jump\t// in\n    tag_529:\n        /* \"#utility.yul\":17289:17454   */\n      pop\n        /* \"#utility.yul\":17537:17541   */\n      0xa0\n        /* \"#utility.yul\":17530:17535   */\n      dup4\n        /* \"#utility.yul\":17526:17542   */\n      add\n        /* \"#utility.yul\":17520:17543   */\n      mload\n        /* \"#utility.yul\":17590:17593   */\n      dup5\n        /* \"#utility.yul\":17584:17588   */\n      dup3\n        /* \"#utility.yul\":17580:17594   */\n      sub\n        /* \"#utility.yul\":17573:17577   */\n      0xa0\n        /* \"#utility.yul\":17568:17571   */\n      dup7\n        /* \"#utility.yul\":17564:17578   */\n      add\n        /* \"#utility.yul\":17557:17595   */\n      mstore\n        /* \"#utility.yul\":17616:17689   */\n      tag_530\n        /* \"#utility.yul\":17684:17688   */\n      dup3\n        /* \"#utility.yul\":17670:17682   */\n      dup3\n        /* \"#utility.yul\":17616:17689   */\n      tag_333\n      jump\t// in\n    tag_530:\n        /* \"#utility.yul\":17608:17689   */\n      swap2\n      pop\n        /* \"#utility.yul\":17464:17700   */\n      pop\n        /* \"#utility.yul\":17785:17789   */\n      0xc0\n        /* \"#utility.yul\":17778:17783   */\n      dup4\n        /* \"#utility.yul\":17774:17790   */\n      add\n        /* \"#utility.yul\":17768:17791   */\n      mload\n        /* \"#utility.yul\":17804:17861   */\n      tag_531\n        /* \"#utility.yul\":17855:17859   */\n      0xc0\n        /* \"#utility.yul\":17850:17853   */\n      dup7\n        /* \"#utility.yul\":17846:17860   */\n      add\n        /* \"#utility.yul\":17832:17844   */\n      dup3\n        /* \"#utility.yul\":17804:17861   */\n      tag_335\n      jump\t// in\n    tag_531:\n        /* \"#utility.yul\":17710:17871   */\n      pop\n        /* \"#utility.yul\":17958:17962   */\n      0xe0\n        /* \"#utility.yul\":17951:17956   */\n      dup4\n        /* \"#utility.yul\":17947:17963   */\n      add\n        /* \"#utility.yul\":17941:17964   */\n      mload\n        /* \"#utility.yul\":18011:18014   */\n      dup5\n        /* \"#utility.yul\":18005:18009   */\n      dup3\n        /* \"#utility.yul\":18001:18015   */\n      sub\n        /* \"#utility.yul\":17994:17998   */\n      0xe0\n        /* \"#utility.yul\":17989:17992   */\n      dup7\n        /* \"#utility.yul\":17985:17999   */\n      add\n        /* \"#utility.yul\":17978:18016   */\n      mstore\n        /* \"#utility.yul\":18037:18110   */\n      tag_532\n        /* \"#utility.yul\":18105:18109   */\n      dup3\n        /* \"#utility.yul\":18091:18103   */\n      dup3\n        /* \"#utility.yul\":18037:18110   */\n      tag_333\n      jump\t// in\n    tag_532:\n        /* \"#utility.yul\":18029:18110   */\n      swap2\n      pop\n        /* \"#utility.yul\":17881:18121   */\n      pop\n        /* \"#utility.yul\":18138:18142   */\n      dup1\n        /* \"#utility.yul\":18131:18142   */\n      swap2\n      pop\n        /* \"#utility.yul\":16395:18148   */\n      pop\n        /* \"#utility.yul\":16275:18148   */\n      swap3\n      swap2\n      pop\n      pop\n      jump\t// out\n        /* \"#utility.yul\":18154:18519   */\n    tag_51:\n        /* \"#utility.yul\":18293:18297   */\n      0x00\n        /* \"#utility.yul\":18331:18333   */\n      0x20\n        /* \"#utility.yul\":18320:18329   */\n      dup3\n        /* \"#utility.yul\":18316:18334   */\n      add\n        /* \"#utility.yul\":18308:18334   */\n      swap1\n      pop\n        /* \"#utility.yul\":18380:18389   */\n      dup2\n        /* \"#utility.yul\":18374:18378   */\n      dup2\n        /* \"#utility.yul\":18370:18390   */\n      sub\n        /* \"#utility.yul\":18366:18367   */\n      0x00\n        /* \"#utility.yul\":18355:18364   */\n      dup4\n        /* \"#utility.yul\":18351:18368   */\n      add\n        /* \"#utility.yul\":18344:18391   */\n      mstore\n        /* \"#utility.yul\":18408:18512   */\n      tag_534\n        /* \"#utility.yul\":18507:18511   */\n      dup2\n        /* \"#utility.yul\":18498:18504   */\n      dup5\n        /* \"#utility.yul\":18408:18512   */\n      tag_359\n      jump\t// in\n    tag_534:\n        /* \"#utility.yul\":18400:18512   */\n      swap1\n      pop\n        /* \"#utility.yul\":18154:18519   */\n      swap3\n      swap2\n      pop\n      pop\n      jump\t// out\n        /* \"#utility.yul\":18525:19034   */\n    tag_58:\n        /* \"#utility.yul\":18594:18600   */\n      0x00\n        /* \"#utility.yul\":18643:18645   */\n      0x20\n        /* \"#utility.yul\":18631:18640   */\n      dup3\n        /* \"#utility.yul\":18622:18629   */\n      dup5\n        /* \"#utility.yul\":18618:18641   */\n      sub\n        /* \"#utility.yul\":18614:18646   */\n      slt\n        /* \"#utility.yul\":18611:18730   */\n      iszero\n      tag_536\n      jumpi\n        /* \"#utility.yul\":18649:18728   */\n      tag_537\n      tag_341\n      jump\t// in\n    tag_537:\n        /* \"#utility.yul\":18611:18730   */\n    tag_536:\n        /* \"#utility.yul\":18797:18798   */\n      0x00\n        /* \"#utility.yul\":18786:18795   */\n      dup3\n        /* \"#utility.yul\":18782:18799   */\n      add\n        /* \"#utility.yul\":18769:18800   */\n      calldataload\n        /* \"#utility.yul\":18827:18845   */\n      0xffffffffffffffff\n        /* \"#utility.yul\":18819:18825   */\n      dup2\n        /* \"#utility.yul\":18816:18846   */\n      gt\n        /* \"#utility.yul\":18813:18930   */\n      iszero\n      tag_538\n      jumpi\n        /* \"#utility.yul\":18849:18928   */\n      tag_539\n      tag_342\n      jump\t// in\n    tag_539:\n        /* \"#utility.yul\":18813:18930   */\n    tag_538:\n        /* \"#utility.yul\":18954:19017   */\n      tag_540\n        /* \"#utility.yul\":19009:19016   */\n      dup5\n        /* \"#utility.yul\":19000:19006   */\n      dup3\n        /* \"#utility.yul\":18989:18998   */\n      dup6\n        /* \"#utility.yul\":18985:19007   */\n      add\n        /* \"#utility.yul\":18954:19017   */\n      tag_350\n      jump\t// in\n    tag_540:\n        /* \"#utility.yul\":18944:19017   */\n      swap2\n      pop\n        /* \"#utility.yul\":18740:19027   */\n      pop\n        /* \"#utility.yul\":18525:19034   */\n      swap3\n      swap2\n      pop\n      pop\n      jump\t// out\n        /* \"#utility.yul\":19040:19220   */\n    tag_360:\n        /* \"#utility.yul\":19088:19165   */\n      0x4e487b7100000000000000000000000000000000000000000000000000000000\n        /* \"#utility.yul\":19085:19086   */\n      0x00\n        /* \"#utility.yul\":19078:19166   */\n      mstore\n        /* \"#utility.yul\":19185:19189   */\n      0x22\n        /* \"#utility.yul\":19182:19183   */\n      0x04\n        /* \"#utility.yul\":19175:19190   */\n      mstore\n        /* \"#utility.yul\":19209:19213   */\n      0x24\n        /* \"#utility.yul\":19206:19207   */\n      0x00\n        /* \"#utility.yul\":19199:19214   */\n      revert\n        /* \"#utility.yul\":19226:19546   */\n    tag_71:\n        /* \"#utility.yul\":19270:19276   */\n      0x00\n        /* \"#utility.yul\":19307:19308   */\n      0x02\n        /* \"#utility.yul\":19301:19305   */\n      dup3\n        /* \"#utility.yul\":19297:19309   */\n      div\n        /* \"#utility.yul\":19287:19309   */\n      swap1\n      pop\n        /* \"#utility.yul\":19354:19355   */\n      0x01\n        /* \"#utility.yul\":19348:19352   */\n      dup3\n        /* \"#utility.yul\":19344:19356   */\n      and\n        /* \"#utility.yul\":19375:19393   */\n      dup1\n        /* \"#utility.yul\":19365:19446   */\n      tag_543\n      jumpi\n        /* \"#utility.yul\":19431:19435   */\n      0x7f\n        /* \"#utility.yul\":19423:19429   */\n      dup3\n        /* \"#utility.yul\":19419:19436   */\n      and\n        /* \"#utility.yul\":19409:19436   */\n      swap2\n      pop\n        /* \"#utility.yul\":19365:19446   */\n    tag_543:\n        /* \"#utility.yul\":19493:19495   */\n      0x20\n        /* \"#utility.yul\":19485:19491   */\n      dup3\n        /* \"#utility.yul\":19482:19496   */\n      lt\n        /* \"#utility.yul\":19462:19480   */\n      dup2\n        /* \"#utility.yul\":19459:19497   */\n      sub\n        /* \"#utility.yul\":19456:19540   */\n      tag_544\n      jumpi\n        /* \"#utility.yul\":19512:19530   */\n      tag_545\n      tag_360\n      jump\t// in\n    tag_545:\n        /* \"#utility.yul\":19456:19540   */\n    tag_544:\n        /* \"#utility.yul\":19277:19546   */\n      pop\n        /* \"#utility.yul\":19226:19546   */\n      swap2\n      swap1\n      pop\n      jump\t// out\n        /* \"#utility.yul\":19552:19732   */\n    tag_98:\n        /* \"#utility.yul\":19600:19677   */\n      0x4e487b7100000000000000000000000000000000000000000000000000000000\n        /* \"#utility.yul\":19597:19598   */\n      0x00\n        /* \"#utility.yul\":19590:19678   */\n      mstore\n        /* \"#utility.yul\":19697:19701   */\n      0x32\n        /* \"#utility.yul\":19694:19695   */\n      0x04\n        /* \"#utility.yul\":19687:19702   */\n      mstore\n        /* \"#utility.yul\":19721:19725   */\n      0x24\n        /* \"#utility.yul\":19718:19719   */\n      0x00\n        /* \"#utility.yul\":19711:19726   */\n      revert\n        /* \"#utility.yul\":19738:19918   */\n    tag_361:\n        /* \"#utility.yul\":19786:19863   */\n      0x4e487b7100000000000000000000000000000000000000000000000000000000\n        /* \"#utility.yul\":19783:19784   */\n      0x00\n        /* \"#utility.yul\":19776:19864   */\n      mstore\n        /* \"#utility.yul\":19883:19887   */\n      0x11\n        /* \"#utility.yul\":19880:19881   */\n      0x04\n        /* \"#utility.yul\":19873:19888   */\n      mstore\n        /* \"#utility.yul\":19907:19911   */\n      0x24\n        /* \"#utility.yul\":19904:19905   */\n      0x00\n        /* \"#utility.yul\":19897:19912   */\n      revert\n        /* \"#utility.yul\":19924:20157   */\n    tag_111:\n        /* \"#utility.yul\":19963:19966   */\n      0x00\n        /* \"#utility.yul\":19986:20010   */\n      tag_549\n        /* \"#utility.yul\":20004:20009   */\n      dup3\n        /* \"#utility.yul\":19986:20010   */\n      tag_324\n      jump\t// in\n    tag_549:\n        /* \"#utility.yul\":19977:20010   */\n      swap2\n      pop\n        /* \"#utility.yul\":20032:20098   */\n      0xffffffffffffffffffffffffffffffffffffffffffffffffffffffffffffffff\n        /* \"#utility.yul\":20025:20030   */\n      dup3\n        /* \"#utility.yul\":20022:20099   */\n      sub\n        /* \"#utility.yul\":20019:20122   */\n      tag_550\n      jumpi\n        /* \"#utility.yul\":20102:20120   */\n      tag_551\n      tag_361\n      jump\t// in\n    tag_551:\n        /* \"#utility.yul\":20019:20122   */\n    tag_550:\n        /* \"#utility.yul\":20149:20150   */\n      0x01\n        /* \"#utility.yul\":20142:20147   */\n      dup3\n        /* \"#utility.yul\":20138:20151   */\n      add\n        /* \"#utility.yul\":20131:20151   */\n      swap1\n      pop\n        /* \"#utility.yul\":19924:20157   */\n      swap2\n      swap1\n      pop\n      jump\t// out\n        /* \"#utility.yul\":20163:20304   */\n    tag_362:\n        /* \"#utility.yul\":20212:20216   */\n      0x00\n        /* \"#utility.yul\":20235:20238   */\n      dup2\n        /* \"#utility.yul\":20227:20238   */\n      swap1\n      pop\n        /* \"#utility.yul\":20258:20261   */\n      dup2\n        /* \"#utility.yul\":20255:20256   */\n      0x00\n        /* \"#utility.yul\":20248:20262   */\n      mstore\n        /* \"#utility.yul\":20292:20296   */\n      0x20\n        /* \"#utility.yul\":20289:20290   */\n      0x00\n        /* \"#utility.yul\":20279:20297   */\n      keccak256\n        /* \"#utility.yul\":20271:20297   */\n      swap1\n      pop\n        /* \"#utility.yul\":20163:20304   */\n      swap2\n      swap1\n      pop\n      jump\t// out\n        /* \"#utility.yul\":20310:20403   */\n    tag_363:\n        /* \"#utility.yul\":20347:20353   */\n      0x00\n        /* \"#utility.yul\":20394:20396   */\n      0x20\n        /* \"#utility.yul\":20389:20391   */\n      0x1f\n        /* \"#utility.yul\":20382:20387   */\n      dup4\n        /* \"#utility.yul\":20378:20392   */\n      add\n        /* \"#utility.yul\":20374:20397   */\n      div\n        /* \"#utility.yul\":20364:20397   */\n      swap1\n      pop\n        /* \"#utility.yul\":20310:20403   */\n      swap2\n      swap1\n      pop\n      jump\t// out\n        /* \"#utility.yul\":20409:20516   */\n    tag_364:\n        /* \"#utility.yul\":20453:20461   */\n      0x00\n        /* \"#utility.yul\":20503:20508   */\n      dup3\n        /* \"#utility.yul\":20497:20501   */\n      dup3\n        /* \"#utility.yul\":20493:20509   */\n      shl\n        /* \"#utility.yul\":20472:20509   */\n      swap1\n      pop\n        /* \"#utility.yul\":20409:20516   */\n      swap3\n      swap2\n      pop\n      pop\n      jump\t// out\n        /* \"#utility.yul\":20522:20915   */\n    tag_365:\n        /* \"#utility.yul\":20591:20597   */\n      0x00\n        /* \"#utility.yul\":20641:20642   */\n      0x08\n        /* \"#utility.yul\":20629:20639   */\n      dup4\n        /* \"#utility.yul\":20625:20643   */\n      mul\n        /* \"#utility.yul\":20664:20761   */\n      tag_556\n        /* \"#utility.yul\":20694:20760   */\n      0xffffffffffffffffffffffffffffffffffffffffffffffffffffffffffffffff\n        /* \"#utility.yul\":20683:20692   */\n      dup3\n        /* \"#utility.yul\":20664:20761   */\n      tag_364\n      jump\t// in\n    tag_556:\n        /* \"#utility.yul\":20782:20821   */\n      tag_557\n        /* \"#utility.yul\":20812:20820   */\n      dup7\n        /* \"#utility.yul\":20801:20810   */\n      dup4\n        /* \"#utility.yul\":20782:20821   */\n      tag_364\n      jump\t// in\n    tag_557:\n        /* \"#utility.yul\":20770:20821   */\n      swap6\n      pop\n        /* \"#utility.yul\":20854:20858   */\n      dup1\n        /* \"#utility.yul\":20850:20859   */\n      not\n        /* \"#utility.yul\":20843:20848   */\n      dup5\n        /* \"#utility.yul\":20839:20860   */\n      and\n        /* \"#utility.yul\":20830:20860   */\n      swap4\n      pop\n        /* \"#utility.yul\":20903:20907   */\n      dup1\n        /* \"#utility.yul\":20893:20901   */\n      dup7\n        /* \"#utility.yul\":20889:20908   */\n      and\n        /* \"#utility.yul\":20882:20887   */\n      dup5\n        /* \"#utility.yul\":20879:20909   */\n      or\n        /* \"#utility.yul\":20869:20909   */\n      swap3\n      pop\n        /* \"#utility.yul\":20598:20915   */\n      pop\n      pop\n        /* \"#utility.yul\":20522:20915   */\n      swap4\n      swap3\n      pop\n      pop\n      pop\n      jump\t// out\n        /* \"#utility.yul\":20921:20981   */\n    tag_366:\n        /* \"#utility.yul\":20949:20952   */\n      0x00\n        /* \"#utility.yul\":20970:20975   */\n      dup2\n        /* \"#utility.yul\":20963:20975   */\n      swap1\n      pop\n        /* \"#utility.yul\":20921:20981   */\n      swap2\n      swap1\n      pop\n      jump\t// out\n        /* \"#utility.yul\":20987:21129   */\n    tag_367:\n        /* \"#utility.yul\":21037:21046   */\n      0x00\n        /* \"#utility.yul\":21070:21123   */\n      tag_560\n        /* \"#utility.yul\":21088:21122   */\n      tag_561\n        /* \"#utility.yul\":21097:21121   */\n      tag_562\n        /* \"#utility.yul\":21115:21120   */\n      dup5\n        /* \"#utility.yul\":21097:21121   */\n      tag_324\n      jump\t// in\n    tag_562:\n        /* \"#utility.yul\":21088:21122   */\n      tag_366\n      jump\t// in\n    tag_561:\n        /* \"#utility.yul\":21070:21123   */\n      tag_324\n      jump\t// in\n    tag_560:\n        /* \"#utility.yul\":21057:21123   */\n      swap1\n      pop\n        /* \"#utility.yul\":20987:21129   */\n      swap2\n      swap1\n      pop\n      jump\t// out\n        /* \"#utility.yul\":21135:21210   */\n    tag_368:\n        /* \"#utility.yul\":21178:21181   */\n      0x00\n        /* \"#utility.yul\":21199:21204   */\n      dup2\n        /* \"#utility.yul\":21192:21204   */\n      swap1\n      pop\n        /* \"#utility.yul\":21135:21210   */\n      swap2\n      swap1\n      pop\n      jump\t// out\n        /* \"#utility.yul\":21216:21485   */\n    tag_369:\n        /* \"#utility.yul\":21326:21365   */\n      tag_565\n        /* \"#utility.yul\":21357:21364   */\n      dup4\n        /* \"#utility.yul\":21326:21365   */\n      tag_367\n      jump\t// in\n    tag_565:\n        /* \"#utility.yul\":21387:21478   */\n      tag_566\n        /* \"#utility.yul\":21436:21477   */\n      tag_567\n        /* \"#utility.yul\":21460:21476   */\n      dup3\n        /* \"#utility.yul\":21436:21477   */\n      tag_368\n      jump\t// in\n    tag_567:\n        /* \"#utility.yul\":21428:21434   */\n      dup5\n        /* \"#utility.yul\":21421:21425   */\n      dup5\n        /* \"#utility.yul\":21415:21426   */\n      sload\n        /* \"#utility.yul\":21387:21478   */\n      tag_365\n      jump\t// in\n    tag_566:\n        /* \"#utility.yul\":21381:21385   */\n      dup3\n        /* \"#utility.yul\":21374:21479   */\n      sstore\n        /* \"#utility.yul\":21292:21485   */\n      pop\n        /* \"#utility.yul\":21216:21485   */\n      pop\n      pop\n      pop\n      jump\t// out\n        /* \"#utility.yul\":21491:21564   */\n    tag_370:\n        /* \"#utility.yul\":21536:21539   */\n      0x00\n        /* \"#utility.yul\":21491:21564   */\n      swap1\n      jump\t// out\n        /* \"#utility.yul\":21570:21759   */\n    tag_371:\n        /* \"#utility.yul\":21647:21679   */\n      tag_570\n      tag_370\n      jump\t// in\n    tag_570:\n        /* \"#utility.yul\":21688:21753   */\n      tag_571\n        /* \"#utility.yul\":21746:21752   */\n      dup2\n        /* \"#utility.yul\":21738:21744   */\n      dup5\n        /* \"#utility.yul\":21732:21736   */\n      dup5\n        /* \"#utility.yul\":21688:21753   */\n      tag_369\n      jump\t// in\n    tag_571:\n        /* \"#utility.yul\":21623:21759   */\n      pop\n        /* \"#utility.yul\":21570:21759   */\n      pop\n      pop\n      jump\t// out\n        /* \"#utility.yul\":21765:21951   */\n    tag_372:\n        /* \"#utility.yul\":21825:21945   */\n    tag_573:\n        /* \"#utility.yul\":21842:21845   */\n      dup2\n        /* \"#utility.yul\":21835:21840   */\n      dup2\n        /* \"#utility.yul\":21832:21846   */\n      lt\n        /* \"#utility.yul\":21825:21945   */\n      iszero\n      tag_575\n      jumpi\n        /* \"#utility.yul\":21896:21935   */\n      tag_576\n        /* \"#utility.yul\":21933:21934   */\n      0x00\n        /* \"#utility.yul\":21926:21931   */\n      dup3\n        /* \"#utility.yul\":21896:21935   */\n      tag_371\n      jump\t// in\n    tag_576:\n        /* \"#utility.yul\":21869:21870   */\n      0x01\n        /* \"#utility.yul\":21862:21867   */\n      dup2\n        /* \"#utility.yul\":21858:21871   */\n      add\n        /* \"#utility.yul\":21849:21871   */\n      swap1\n      pop\n        /* \"#utility.yul\":21825:21945   */\n      jump(tag_573)\n    tag_575:\n        /* \"#utility.yul\":21765:21951   */\n      pop\n      pop\n      jump\t// out\n        /* \"#utility.yul\":21957:22500   */\n    tag_373:\n        /* \"#utility.yul\":22058:22060   */\n      0x1f\n        /* \"#utility.yul\":22053:22056   */\n      dup3\n        /* \"#utility.yul\":22050:22061   */\n      gt\n        /* \"#utility.yul\":22047:22493   */\n      iszero\n      tag_578\n      jumpi\n        /* \"#utility.yul\":22092:22130   */\n      tag_579\n        /* \"#utility.yul\":22124:22129   */\n      dup2\n        /* \"#utility.yul\":22092:22130   */\n      tag_362\n      jump\t// in\n    tag_579:\n        /* \"#utility.yul\":22176:22205   */\n      tag_580\n        /* \"#utility.yul\":22194:22204   */\n      dup5\n        /* \"#utility.yul\":22176:22205   */\n      tag_363\n      jump\t// in\n    tag_580:\n        /* \"#utility.yul\":22166:22174   */\n      dup2\n        /* \"#utility.yul\":22162:22206   */\n      add\n        /* \"#utility.yul\":22359:22361   */\n      0x20\n        /* \"#utility.yul\":22347:22357   */\n      dup6\n        /* \"#utility.yul\":22344:22362   */\n      lt\n        /* \"#utility.yul\":22341:22390   */\n      iszero\n      tag_581\n      jumpi\n        /* \"#utility.yul\":22380:22388   */\n      dup2\n        /* \"#utility.yul\":22365:22388   */\n      swap1\n      pop\n        /* \"#utility.yul\":22341:22390   */\n    tag_581:\n        /* \"#utility.yul\":22403:22483   */\n      tag_582\n        /* \"#utility.yul\":22459:22481   */\n      tag_583\n        /* \"#utility.yul\":22477:22480   */\n      dup6\n        /* \"#utility.yul\":22459:22481   */\n      tag_363\n      jump\t// in\n    tag_583:\n        /* \"#utility.yul\":22449:22457   */\n      dup4\n        /* \"#utility.yul\":22445:22482   */\n      add\n        /* \"#utility.yul\":22432:22443   */\n      dup3\n        /* \"#utility.yul\":22403:22483   */\n      tag_372\n      jump\t// in\n    tag_582:\n        /* \"#utility.yul\":22062:22493   */\n      pop\n      pop\n        /* \"#utility.yul\":22047:22493   */\n    tag_578:\n        /* \"#utility.yul\":21957:22500   */\n      pop\n      pop\n      pop\n      jump\t// out\n        /* \"#utility.yul\":22506:22623   */\n    tag_374:\n        /* \"#utility.yul\":22560:22568   */\n      0x00\n        /* \"#utility.yul\":22610:22615   */\n      dup3\n        /* \"#utility.yul\":22604:22608   */\n      dup3\n        /* \"#utility.yul\":22600:22616   */\n      shr\n        /* \"#utility.yul\":22579:22616   */\n      swap1\n      pop\n        /* \"#utility.yul\":22506:22623   */\n      swap3\n      swap2\n      pop\n      pop\n      jump\t// out\n        /* \"#utility.yul\":22629:22798   */\n    tag_375:\n        /* \"#utility.yul\":22673:22679   */\n      0x00\n        /* \"#utility.yul\":22706:22757   */\n      tag_586\n        /* \"#utility.yul\":22754:22755   */\n      0x00\n        /* \"#utility.yul\":22750:22756   */\n      not\n        /* \"#utility.yul\":22742:22747   */\n      dup5\n        /* \"#utility.yul\":22739:22740   */\n      0x08\n        /* \"#utility.yul\":22735:22748   */\n      mul\n        /* \"#utility.yul\":22706:22757   */\n      tag_374\n      jump\t// in\n    tag_586:\n        /* \"#utility.yul\":22702:22758   */\n      not\n        /* \"#utility.yul\":22787:22791   */\n      dup1\n        /* \"#utility.yul\":22781:22785   */\n      dup4\n        /* \"#utility.yul\":22777:22792   */\n      and\n        /* \"#utility.yul\":22767:22792   */\n      swap2\n      pop\n        /* \"#utility.yul\":22680:22798   */\n      pop\n        /* \"#utility.yul\":22629:22798   */\n      swap3\n      swap2\n      pop\n      pop\n      jump\t// out\n        /* \"#utility.yul\":22803:23098   */\n    tag_376:\n        /* \"#utility.yul\":22879:22883   */\n      0x00\n        /* \"#utility.yul\":23025:23054   */\n      tag_588\n        /* \"#utility.yul\":23050:23053   */\n      dup4\n        /* \"#utility.yul\":23044:23048   */\n      dup4\n        /* \"#utility.yul\":23025:23054   */\n      tag_375\n      jump\t// in\n    tag_588:\n        /* \"#utility.yul\":23017:23054   */\n      swap2\n      pop\n        /* \"#utility.yul\":23087:23090   */\n      dup3\n        /* \"#utility.yul\":23084:23085   */\n      0x02\n        /* \"#utility.yul\":23080:23091   */\n      mul\n        /* \"#utility.yul\":23074:23078   */\n      dup3\n        /* \"#utility.yul\":23071:23092   */\n      or\n        /* \"#utility.yul\":23063:23092   */\n      swap1\n      pop\n        /* \"#utility.yul\":22803:23098   */\n      swap3\n      swap2\n      pop\n      pop\n      jump\t// out\n        /* \"#utility.yul\":23103:24498   */\n    tag_114:\n        /* \"#utility.yul\":23220:23257   */\n      tag_590\n        /* \"#utility.yul\":23253:23256   */\n      dup3\n        /* \"#utility.yul\":23220:23257   */\n      tag_329\n      jump\t// in\n    tag_590:\n        /* \"#utility.yul\":23322:23340   */\n      0xffffffffffffffff\n        /* \"#utility.yul\":23314:23320   */\n      dup2\n        /* \"#utility.yul\":23311:23341   */\n      gt\n        /* \"#utility.yul\":23308:23364   */\n      iszero\n      tag_591\n      jumpi\n        /* \"#utility.yul\":23344:23362   */\n      tag_592\n      tag_126\n      jump\t// in\n    tag_592:\n        /* \"#utility.yul\":23308:23364   */\n    tag_591:\n        /* \"#utility.yul\":23388:23426   */\n      tag_593\n        /* \"#utility.yul\":23420:23424   */\n      dup3\n        /* \"#utility.yul\":23414:23425   */\n      sload\n        /* \"#utility.yul\":23388:23426   */\n      tag_71\n      jump\t// in\n    tag_593:\n        /* \"#utility.yul\":23473:23540   */\n      tag_594\n        /* \"#utility.yul\":23533:23539   */\n      dup3\n        /* \"#utility.yul\":23525:23531   */\n      dup3\n        /* \"#utility.yul\":23519:23523   */\n      dup6\n        /* \"#utility.yul\":23473:23540   */\n      tag_373\n      jump\t// in\n    tag_594:\n        /* \"#utility.yul\":23567:23568   */\n      0x00\n        /* \"#utility.yul\":23591:23595   */\n      0x20\n        /* \"#utility.yul\":23578:23595   */\n      swap1\n      pop\n        /* \"#utility.yul\":23623:23625   */\n      0x1f\n        /* \"#utility.yul\":23615:23621   */\n      dup4\n        /* \"#utility.yul\":23612:23626   */\n      gt\n        /* \"#utility.yul\":23640:23641   */\n      0x01\n        /* \"#utility.yul\":23635:24253   */\n      dup2\n      eq\n      tag_596\n      jumpi\n        /* \"#utility.yul\":24297:24298   */\n      0x00\n        /* \"#utility.yul\":24314:24320   */\n      dup5\n        /* \"#utility.yul\":24311:24388   */\n      iszero\n      tag_597\n      jumpi\n        /* \"#utility.yul\":24363:24372   */\n      dup3\n        /* \"#utility.yul\":24358:24361   */\n      dup8\n        /* \"#utility.yul\":24354:24373   */\n      add\n        /* \"#utility.yul\":24348:24374   */\n      mload\n        /* \"#utility.yul\":24339:24374   */\n      swap1\n      pop\n        /* \"#utility.yul\":24311:24388   */\n    tag_597:\n        /* \"#utility.yul\":24414:24481   */\n      tag_598\n        /* \"#utility.yul\":24474:24480   */\n      dup6\n        /* \"#utility.yul\":24467:24472   */\n      dup3\n        /* \"#utility.yul\":24414:24481   */\n      tag_376\n      jump\t// in\n    tag_598:\n        /* \"#utility.yul\":24408:24412   */\n      dup7\n        /* \"#utility.yul\":24401:24482   */\n      sstore\n        /* \"#utility.yul\":24270:24492   */\n      pop\n        /* \"#utility.yul\":23605:24492   */\n      jump(tag_595)\n        /* \"#utility.yul\":23635:24253   */\n    tag_596:\n        /* \"#utility.yul\":23687:23691   */\n      0x1f\n        /* \"#utility.yul\":23683:23692   */\n      not\n        /* \"#utility.yul\":23675:23681   */\n      dup5\n        /* \"#utility.yul\":23671:23693   */\n      and\n        /* \"#utility.yul\":23721:23758   */\n      tag_599\n        /* \"#utility.yul\":23753:23757   */\n      dup7\n        /* \"#utility.yul\":23721:23758   */\n      tag_362\n      jump\t// in\n    tag_599:\n        /* \"#utility.yul\":23780:23781   */\n      0x00\n        /* \"#utility.yul\":23794:24002   */\n    tag_600:\n        /* \"#utility.yul\":23808:23815   */\n      dup3\n        /* \"#utility.yul\":23805:23806   */\n      dup2\n        /* \"#utility.yul\":23802:23816   */\n      lt\n        /* \"#utility.yul\":23794:24002   */\n      iszero\n      tag_602\n      jumpi\n        /* \"#utility.yul\":23887:23896   */\n      dup5\n        /* \"#utility.yul\":23882:23885   */\n      dup10\n        /* \"#utility.yul\":23878:23897   */\n      add\n        /* \"#utility.yul\":23872:23898   */\n      mload\n        /* \"#utility.yul\":23864:23870   */\n      dup3\n        /* \"#utility.yul\":23857:23899   */\n      sstore\n        /* \"#utility.yul\":23938:23939   */\n      0x01\n        /* \"#utility.yul\":23930:23936   */\n      dup3\n        /* \"#utility.yul\":23926:23940   */\n      add\n        /* \"#utility.yul\":23916:23940   */\n      swap2\n      pop\n        /* \"#utility.yul\":23985:23987   */\n      0x20\n        /* \"#utility.yul\":23974:23983   */\n      dup6\n        /* \"#utility.yul\":23970:23988   */\n      add\n        /* \"#utility.yul\":23957:23988   */\n      swap5\n      pop\n        /* \"#utility.yul\":23831:23835   */\n      0x20\n        /* \"#utility.yul\":23828:23829   */\n      dup2\n        /* \"#utility.yul\":23824:23836   */\n      add\n        /* \"#utility.yul\":23819:23836   */\n      swap1\n      pop\n        /* \"#utility.yul\":23794:24002   */\n      jump(tag_600)\n    tag_602:\n        /* \"#utility.yul\":24030:24036   */\n      dup7\n        /* \"#utility.yul\":24021:24028   */\n      dup4\n        /* \"#utility.yul\":24018:24037   */\n      lt\n        /* \"#utility.yul\":24015:24194   */\n      iszero\n      tag_603\n      jumpi\n        /* \"#utility.yul\":24088:24097   */\n      dup5\n        /* \"#utility.yul\":24083:24086   */\n      dup10\n        /* \"#utility.yul\":24079:24098   */\n      add\n        /* \"#utility.yul\":24073:24099   */\n      mload\n        /* \"#utility.yul\":24131:24179   */\n      tag_604\n        /* \"#utility.yul\":24173:24177   */\n      0x1f\n        /* \"#utility.yul\":24165:24171   */\n      dup10\n        /* \"#utility.yul\":24161:24178   */\n      and\n        /* \"#utility.yul\":24150:24159   */\n      dup3\n        /* \"#utility.yul\":24131:24179   */\n      tag_375\n      jump\t// in\n    tag_604:\n        /* \"#utility.yul\":24123:24129   */\n      dup4\n        /* \"#utility.yul\":24116:24180   */\n      sstore\n        /* \"#utility.yul\":24038:24194   */\n      pop\n        /* \"#utility.yul\":24015:24194   */\n    tag_603:\n        /* \"#utility.yul\":24240:24241   */\n      0x01\n        /* \"#utility.yul\":24236:24237   */\n      0x02\n        /* \"#utility.yul\":24228:24234   */\n      dup9\n        /* \"#utility.yul\":24224:24238   */\n      mul\n        /* \"#utility.yul\":24220:24242   */\n      add\n        /* \"#utility.yul\":24214:24218   */\n      dup9\n        /* \"#utility.yul\":24207:24243   */\n      sstore\n        /* \"#utility.yul\":23642:24253   */\n      pop\n      pop\n      pop\n        /* \"#utility.yul\":23605:24492   */\n    tag_595:\n      pop\n        /* \"#utility.yul\":23195:24498   */\n      pop\n      pop\n      pop\n        /* \"#utility.yul\":23103:24498   */\n      pop\n      pop\n      jump\t// out\n        /* \"#utility.yul\":24504:24652   */\n    tag_377:\n        /* \"#utility.yul\":24606:24617   */\n      0x00\n        /* \"#utility.yul\":24643:24646   */\n      dup2\n        /* \"#utility.yul\":24628:24646   */\n      swap1\n      pop\n        /* \"#utility.yul\":24504:24652   */\n      swap3\n      swap2\n      pop\n      pop\n      jump\t// out\n        /* \"#utility.yul\":24658:25048   */\n    tag_378:\n        /* \"#utility.yul\":24764:24767   */\n      0x00\n        /* \"#utility.yul\":24792:24831   */\n      tag_607\n        /* \"#utility.yul\":24825:24830   */\n      dup3\n        /* \"#utility.yul\":24792:24831   */\n      tag_329\n      jump\t// in\n    tag_607:\n        /* \"#utility.yul\":24847:24936   */\n      tag_608\n        /* \"#utility.yul\":24929:24935   */\n      dup2\n        /* \"#utility.yul\":24924:24927   */\n      dup6\n        /* \"#utility.yul\":24847:24936   */\n      tag_377\n      jump\t// in\n    tag_608:\n        /* \"#utility.yul\":24840:24936   */\n      swap4\n      pop\n        /* \"#utility.yul\":24945:25010   */\n      tag_609\n        /* \"#utility.yul\":25003:25009   */\n      dup2\n        /* \"#utility.yul\":24998:25001   */\n      dup6\n        /* \"#utility.yul\":24991:24995   */\n      0x20\n        /* \"#utility.yul\":24984:24989   */\n      dup7\n        /* \"#utility.yul\":24980:24996   */\n      add\n        /* \"#utility.yul\":24945:25010   */\n      tag_331\n      jump\t// in\n    tag_609:\n        /* \"#utility.yul\":25035:25041   */\n      dup1\n        /* \"#utility.yul\":25030:25033   */\n      dup5\n        /* \"#utility.yul\":25026:25042   */\n      add\n        /* \"#utility.yul\":25019:25042   */\n      swap2\n      pop\n        /* \"#utility.yul\":24768:25048   */\n      pop\n        /* \"#utility.yul\":24658:25048   */\n      swap3\n      swap2\n      pop\n      pop\n      jump\t// out\n        /* \"#utility.yul\":25054:25329   */\n    tag_245:\n        /* \"#utility.yul\":25186:25189   */\n      0x00\n        /* \"#utility.yul\":25208:25303   */\n      tag_611\n        /* \"#utility.yul\":25299:25302   */\n      dup3\n        /* \"#utility.yul\":25290:25296   */\n      dup5\n        /* \"#utility.yul\":25208:25303   */\n      tag_378\n      jump\t// in\n    tag_611:\n        /* \"#utility.yul\":25201:25303   */\n      swap2\n      pop\n        /* \"#utility.yul\":25320:25323   */\n      dup2\n        /* \"#utility.yul\":25313:25323   */\n      swap1\n      pop\n        /* \"#utility.yul\":25054:25329   */\n      swap3\n      swap2\n      pop\n      pop\n      jump\t// out\n\n    auxdata: 0xa26469706673582212208ceb866dae372b7d69f933c9d9bc1e07f8015c78baf039516aceb7a7434e15cb64736f6c63430008120033\n}\n",
				"bytecode": {
					"linkReferences": {},
					"object": "608060405234801561001057600080fd5b50610025600261002a60201b6117121760201c565b610037565b6000816000018190555050565b61288980620000476000396000f3fe608060405234801561001057600080fd5b50600436106100a95760003560e01c80633b342e8e116100715780633b342e8e146101545780634cea965e1461018b578063b79367c4146101bd578063bed34bba146101ed578063e44c76ea1461021d578063f70d205c1461024d576100a9565b806304e48bd1146100ae5780631fc25cdd146100cc57806321527e50146100fc5780632cc590761461011a57806338880d5514610138575b600080fd5b6100b661027d565b6040516100c39190611e3b565b60405180910390f35b6100e660048036038101906100e19190611fa6565b6105aa565b6040516100f3919061202d565b60405180910390f35b6101046107f7565b604051610111919061209f565b60405180910390f35b610122610813565b60405161012f9190611e3b565b60405180910390f35b610152600480360381019061014d91906120ed565b610c48565b005b61016e600480360381019061016991906121d8565b610db5565b60405161018298979695949392919061226d565b60405180910390f35b6101a560048036038101906101a091906121d8565b61105a565b6040516101b493929190612307565b60405180910390f35b6101d760048036038101906101d291906121d8565b6111c4565b6040516101e49190612411565b60405180910390f35b61020760048036038101906102029190611fa6565b61152b565b604051610214919061202d565b60405180910390f35b61023760048036038101906102329190612433565b611584565b604051610244919061202d565b60405180910390f35b61026760048036038101906102629190612433565b6116c7565b604051610274919061202d565b60405180910390f35b60606000805480602002602001604051908101604052809291908181526020016000905b828210156105a1578382906000526020600020906008020160405180610100016040529081600082015481526020016001820160009054906101000a900473ffffffffffffffffffffffffffffffffffffffff1673ffffffffffffffffffffffffffffffffffffffff1673ffffffffffffffffffffffffffffffffffffffff168152602001600282018054610335906124ab565b80601f0160208091040260200160405190810160405280929190818152602001828054610361906124ab565b80156103ae5780601f10610383576101008083540402835291602001916103ae565b820191906000526020600020905b81548152906001019060200180831161039157829003601f168201915b505050505081526020016003820180546103c7906124ab565b80601f01602080910402602001604051908101604052809291908181526020018280546103f3906124ab565b80156104405780601f1061041557610100808354040283529160200191610440565b820191906000526020600020905b81548152906001019060200180831161042357829003601f168201915b5050505050815260200160048201548152602001600582018054610463906124ab565b80601f016020809104026020016040519081016040528092919081815260200182805461048f906124ab565b80156104dc5780601f106104b1576101008083540402835291602001916104dc565b820191906000526020600020905b8154815290600101906020018083116104bf57829003601f168201915b505050505081526020016006820160009054906101000a900460ff16151515158152602001600782018054610510906124ab565b80601f016020809104026020016040519081016040528092919081815260200182805461053c906124ab565b80156105895780601f1061055e57610100808354040283529160200191610589565b820191906000526020600020905b81548152906001019060200180831161056c57829003601f168201915b505050505081525050815260200190600101906102a1565b50505050905090565b600080600090505b60018054905081101561071a57610676600182815481106105d6576105d56124dc565b5b906000526020600020906003020160000180546105f2906124ab565b80601f016020809104026020016040519081016040528092919081815260200182805461061e906124ab565b801561066b5780601f106106405761010080835404028352916020019161066b565b820191906000526020600020905b81548152906001019060200180831161064e57829003601f168201915b50505050508561152b565b156106855760009150506107f1565b3373ffffffffffffffffffffffffffffffffffffffff16600182815481106106b0576106af6124dc565b5b906000526020600020906003020160010160009054906101000a900473ffffffffffffffffffffffffffffffffffffffff1673ffffffffffffffffffffffffffffffffffffffff16036107075760009150506107f1565b80806107129061253a565b9150506105b2565b50600160405180606001604052808581526020013373ffffffffffffffffffffffffffffffffffffffff168152602001848152509080600181540180825580915050600190039060005260206000209060030201600090919091909150600082015181600001908161078c919061272e565b5060208201518160010160006101000a81548173ffffffffffffffffffffffffffffffffffffffff021916908373ffffffffffffffffffffffffffffffffffffffff16021790555060408201518160020190816107e9919061272e565b505050600190505b92915050565b6107ff611b1b565b600061080a3361171f565b90508091505090565b6060600061082033611984565b90506000808267ffffffffffffffff81111561083f5761083e611e7b565b5b60405190808252806020026020018201604052801561087857816020015b610865611b52565b81526020019060019003908161085d5790505b50905060005b600080549050811015610c3e573373ffffffffffffffffffffffffffffffffffffffff16600082815481106108b6576108b56124dc565b5b906000526020600020906008020160010160009054906101000a900473ffffffffffffffffffffffffffffffffffffffff1673ffffffffffffffffffffffffffffffffffffffff1603610c2b5760008181548110610917576109166124dc565b5b906000526020600020906008020160405180610100016040529081600082015481526020016001820160009054906101000a900473ffffffffffffffffffffffffffffffffffffffff1673ffffffffffffffffffffffffffffffffffffffff1673ffffffffffffffffffffffffffffffffffffffff1681526020016002820180546109a1906124ab565b80601f01602080910402602001604051908101604052809291908181526020018280546109cd906124ab565b8015610a1a5780601f106109ef57610100808354040283529160200191610a1a565b820191906000526020600020905b8154815290600101906020018083116109fd57829003601f168201915b50505050508152602001600382018054610a33906124ab565b80601f0160208091040260200160405190810160405280929190818152602001828054610a5f906124ab565b8015610aac5780601f10610a8157610100808354040283529160200191610aac565b820191906000526020600020905b815481529060010190602001808311610a8f57829003601f168201915b5050505050815260200160048201548152602001600582018054610acf906124ab565b80601f0160208091040260200160405190810160405280929190818152602001828054610afb906124ab565b8015610b485780601f10610b1d57610100808354040283529160200191610b48565b820191906000526020600020905b815481529060010190602001808311610b2b57829003601f168201915b505050505081526020016006820160009054906101000a900460ff16151515158152602001600782018054610b7c906124ab565b80601f0160208091040260200160405190810160405280929190818152602001828054610ba8906124ab565b8015610bf55780601f10610bca57610100808354040283529160200191610bf5565b820191906000526020600020905b815481529060010190602001808311610bd857829003601f168201915b505050505081525050828481518110610c1157610c106124dc565b5b60200260200101819052508280610c279061253a565b9350505b8080610c369061253a565b91505061087e565b5080935050505090565b6000604051806101000160405280610c606002611a3f565b81526020013373ffffffffffffffffffffffffffffffffffffffff1681526020018781526020018681526020018581526020018481526020016000151581526020018381525090806001815401808255809150506001900390600052602060002090600802016000909190919091506000820151816000015560208201518160010160006101000a81548173ffffffffffffffffffffffffffffffffffffffff021916908373ffffffffffffffffffffffffffffffffffffffff1602179055506040820151816002019081610d35919061272e565b506060820151816003019081610d4b919061272e565b506080820151816004015560a0820151816005019081610d6b919061272e565b5060c08201518160060160006101000a81548160ff02191690831515021790555060e0820151816007019081610da1919061272e565b505050610dae6002611a4d565b5050505050565b60008181548110610dc557600080fd5b90600052602060002090600802016000915090508060000154908060010160009054906101000a900473ffffffffffffffffffffffffffffffffffffffff1690806002018054610e14906124ab565b80601f0160208091040260200160405190810160405280929190818152602001828054610e40906124ab565b8015610e8d5780601f10610e6257610100808354040283529160200191610e8d565b820191906000526020600020905b815481529060010190602001808311610e7057829003601f168201915b505050505090806003018054610ea2906124ab565b80601f0160208091040260200160405190810160405280929190818152602001828054610ece906124ab565b8015610f1b5780601f10610ef057610100808354040283529160200191610f1b565b820191906000526020600020905b815481529060010190602001808311610efe57829003601f168201915b505050505090806004015490806005018054610f36906124ab565b80601f0160208091040260200160405190810160405280929190818152602001828054610f62906124ab565b8015610faf5780601f10610f8457610100808354040283529160200191610faf565b820191906000526020600020905b815481529060010190602001808311610f9257829003601f168201915b5050505050908060060160009054906101000a900460ff1690806007018054610fd7906124ab565b80601f0160208091040260200160405190810160405280929190818152602001828054611003906124ab565b80156110505780601f1061102557610100808354040283529160200191611050565b820191906000526020600020905b81548152906001019060200180831161103357829003601f168201915b5050505050905088565b6001818154811061106a57600080fd5b906000526020600020906003020160009150905080600001805461108d906124ab565b80601f01602080910402602001604051908101604052809291908181526020018280546110b9906124ab565b80156111065780601f106110db57610100808354040283529160200191611106565b820191906000526020600020905b8154815290600101906020018083116110e957829003601f168201915b5050505050908060010160009054906101000a900473ffffffffffffffffffffffffffffffffffffffff1690806002018054611141906124ab565b80601f016020809104026020016040519081016040528092919081815260200182805461116d906124ab565b80156111ba5780601f1061118f576101008083540402835291602001916111ba565b820191906000526020600020905b81548152906001019060200180831161119d57829003601f168201915b5050505050905083565b6111cc611b52565b6111d4611b52565b60005b6000805490508110156115215783600082815481106111f9576111f86124dc565b5b9060005260206000209060080201600001540361150e5760008181548110611224576112236124dc565b5b906000526020600020906008020160405180610100016040529081600082015481526020016001820160009054906101000a900473ffffffffffffffffffffffffffffffffffffffff1673ffffffffffffffffffffffffffffffffffffffff1673ffffffffffffffffffffffffffffffffffffffff1681526020016002820180546112ae906124ab565b80601f01602080910402602001604051908101604052809291908181526020018280546112da906124ab565b80156113275780601f106112fc57610100808354040283529160200191611327565b820191906000526020600020905b81548152906001019060200180831161130a57829003601f168201915b50505050508152602001600382018054611340906124ab565b80601f016020809104026020016040519081016040528092919081815260200182805461136c906124ab565b80156113b95780601f1061138e576101008083540402835291602001916113b9565b820191906000526020600020905b81548152906001019060200180831161139c57829003601f168201915b50505050508152602001600482015481526020016005820180546113dc906124ab565b80601f0160208091040260200160405190810160405280929190818152602001828054611408906124ab565b80156114555780601f1061142a57610100808354040283529160200191611455565b820191906000526020600020905b81548152906001019060200180831161143857829003601f168201915b505050505081526020016006820160009054906101000a900460ff16151515158152602001600782018054611489906124ab565b80601f01602080910402602001604051908101604052809291908181526020018280546114b5906124ab565b80156115025780601f106114d757610100808354040283529160200191611502565b820191906000526020600020905b8154815290600101906020018083116114e557829003601f168201915b50505050508152505091505b80806115199061253a565b9150506111d7565b5080915050919050565b60008160405160200161153e919061283c565b6040516020818303038152906040528051906020012083604051602001611565919061283c565b6040516020818303038152906040528051906020012014905092915050565b60008061159033611a63565b905060005b60018054905081101561168857611659600182815481106115b9576115b86124dc565b5b906000526020600020906003020160000180546115d5906124ab565b80601f0160208091040260200160405190810160405280929190818152602001828054611601906124ab565b801561164e5780601f106116235761010080835404028352916020019161164e565b820191906000526020600020905b81548152906001019060200180831161163157829003601f168201915b50505050508561152b565b80156116655750818114155b15611675576000925050506116c2565b80806116809061253a565b915050611595565b50826001828154811061169e5761169d6124dc565b5b906000526020600020906003020160000190816116bb919061272e565b5060019150505b919050565b6000806116d333611a63565b905082600182815481106116ea576116e96124dc565b5b90600052602060002090600302016002019081611707919061272e565b506001915050919050565b6000816000018190555050565b611727611b1b565b60005b600180549050811015611971578273ffffffffffffffffffffffffffffffffffffffff1660018281548110611762576117616124dc565b5b906000526020600020906003020160010160009054906101000a900473ffffffffffffffffffffffffffffffffffffffff1673ffffffffffffffffffffffffffffffffffffffff160361195e57600181815481106117c3576117c26124dc565b5b90600052602060002090600302016040518060600160405290816000820180546117ec906124ab565b80601f0160208091040260200160405190810160405280929190818152602001828054611818906124ab565b80156118655780601f1061183a57610100808354040283529160200191611865565b820191906000526020600020905b81548152906001019060200180831161184857829003601f168201915b505050505081526020016001820160009054906101000a900473ffffffffffffffffffffffffffffffffffffffff1673ffffffffffffffffffffffffffffffffffffffff1673ffffffffffffffffffffffffffffffffffffffff1681526020016002820180546118d4906124ab565b80601f0160208091040260200160405190810160405280929190818152602001828054611900906124ab565b801561194d5780601f106119225761010080835404028352916020019161194d565b820191906000526020600020905b81548152906001019060200180831161193057829003601f168201915b50505050508152505091505061197f565b80806119699061253a565b91505061172a565b5061197a611b1b565b809150505b919050565b6000806000905060005b600080549050811015611a35578373ffffffffffffffffffffffffffffffffffffffff16600082815481106119c6576119c56124dc565b5b906000526020600020906008020160010160009054906101000a900473ffffffffffffffffffffffffffffffffffffffff1673ffffffffffffffffffffffffffffffffffffffff1603611a22578180611a1e9061253a565b9250505b8080611a2d9061253a565b91505061198e565b5080915050919050565b600081600001549050919050565b6001816000016000828254019250508190555050565b600080600090505b600180549050811015611b0c578273ffffffffffffffffffffffffffffffffffffffff1660018281548110611aa357611aa26124dc565b5b906000526020600020906003020160010160009054906101000a900473ffffffffffffffffffffffffffffffffffffffff1673ffffffffffffffffffffffffffffffffffffffff1603611af95780915050611b16565b8080611b049061253a565b915050611a6b565b5060018054905090505b919050565b604051806060016040528060608152602001600073ffffffffffffffffffffffffffffffffffffffff168152602001606081525090565b60405180610100016040528060008152602001600073ffffffffffffffffffffffffffffffffffffffff16815260200160608152602001606081526020016000815260200160608152602001600015158152602001606081525090565b600081519050919050565b600082825260208201905092915050565b6000819050602082019050919050565b6000819050919050565b611bee81611bdb565b82525050565b600073ffffffffffffffffffffffffffffffffffffffff82169050919050565b6000611c1f82611bf4565b9050919050565b611c2f81611c14565b82525050565b600081519050919050565b600082825260208201905092915050565b60005b83811015611c6f578082015181840152602081019050611c54565b60008484015250505050565b6000601f19601f8301169050919050565b6000611c9782611c35565b611ca18185611c40565b9350611cb1818560208601611c51565b611cba81611c7b565b840191505092915050565b60008115159050919050565b611cda81611cc5565b82525050565b600061010083016000830151611cf96000860182611be5565b506020830151611d0c6020860182611c26565b5060408301518482036040860152611d248282611c8c565b91505060608301518482036060860152611d3e8282611c8c565b9150506080830151611d536080860182611be5565b5060a083015184820360a0860152611d6b8282611c8c565b91505060c0830151611d8060c0860182611cd1565b5060e083015184820360e0860152611d988282611c8c565b9150508091505092915050565b6000611db18383611ce0565b905092915050565b6000602082019050919050565b6000611dd182611baf565b611ddb8185611bba565b935083602082028501611ded85611bcb565b8060005b85811015611e295784840389528151611e0a8582611da5565b9450611e1583611db9565b925060208a01995050600181019050611df1565b50829750879550505050505092915050565b60006020820190508181036000830152611e558184611dc6565b905092915050565b6000604051905090565b600080fd5b600080fd5b600080fd5b600080fd5b7f4e487b7100000000000000000000000000000000000000000000000000000000600052604160045260246000fd5b611eb382611c7b565b810181811067ffffffffffffffff82111715611ed257611ed1611e7b565b5b80604052505050565b6000611ee5611e5d565b9050611ef18282611eaa565b919050565b600067ffffffffffffffff821115611f1157611f10611e7b565b5b611f1a82611c7b565b9050602081019050919050565b82818337600083830152505050565b6000611f49611f4484611ef6565b611edb565b905082815260208101848484011115611f6557611f64611e76565b5b611f70848285611f27565b509392505050565b600082601f830112611f8d57611f8c611e71565b5b8135611f9d848260208601611f36565b91505092915050565b60008060408385031215611fbd57611fbc611e67565b5b600083013567ffffffffffffffff811115611fdb57611fda611e6c565b5b611fe785828601611f78565b925050602083013567ffffffffffffffff81111561200857612007611e6c565b5b61201485828601611f78565b9150509250929050565b61202781611cc5565b82525050565b6000602082019050612042600083018461201e565b92915050565b600060608301600083015184820360008601526120658282611c8c565b915050602083015161207a6020860182611c26565b50604083015184820360408601526120928282611c8c565b9150508091505092915050565b600060208201905081810360008301526120b98184612048565b905092915050565b6120ca81611bdb565b81146120d557600080fd5b50565b6000813590506120e7816120c1565b92915050565b600080600080600060a0868803121561210957612108611e67565b5b600086013567ffffffffffffffff81111561212757612126611e6c565b5b61213388828901611f78565b955050602086013567ffffffffffffffff81111561215457612153611e6c565b5b61216088828901611f78565b9450506040612171888289016120d8565b935050606086013567ffffffffffffffff81111561219257612191611e6c565b5b61219e88828901611f78565b925050608086013567ffffffffffffffff8111156121bf576121be611e6c565b5b6121cb88828901611f78565b9150509295509295909350565b6000602082840312156121ee576121ed611e67565b5b60006121fc848285016120d8565b91505092915050565b61220e81611bdb565b82525050565b61221d81611c14565b82525050565b600082825260208201905092915050565b600061223f82611c35565b6122498185612223565b9350612259818560208601611c51565b61226281611c7b565b840191505092915050565b600061010082019050612283600083018b612205565b612290602083018a612214565b81810360408301526122a28189612234565b905081810360608301526122b68188612234565b90506122c56080830187612205565b81810360a08301526122d78186612234565b90506122e660c083018561201e565b81810360e08301526122f88184612234565b90509998505050505050505050565b600060608201905081810360008301526123218186612234565b90506123306020830185612214565b81810360408301526123428184612234565b9050949350505050565b6000610100830160008301516123656000860182611be5565b5060208301516123786020860182611c26565b50604083015184820360408601526123908282611c8c565b915050606083015184820360608601526123aa8282611c8c565b91505060808301516123bf6080860182611be5565b5060a083015184820360a08601526123d78282611c8c565b91505060c08301516123ec60c0860182611cd1565b5060e083015184820360e08601526124048282611c8c565b9150508091505092915050565b6000602082019050818103600083015261242b818461234c565b905092915050565b60006020828403121561244957612448611e67565b5b600082013567ffffffffffffffff81111561246757612466611e6c565b5b61247384828501611f78565b91505092915050565b7f4e487b7100000000000000000000000000000000000000000000000000000000600052602260045260246000fd5b600060028204905060018216806124c357607f821691505b6020821081036124d6576124d561247c565b5b50919050565b7f4e487b7100000000000000000000000000000000000000000000000000000000600052603260045260246000fd5b7f4e487b7100000000000000000000000000000000000000000000000000000000600052601160045260246000fd5b600061254582611bdb565b91507fffffffffffffffffffffffffffffffffffffffffffffffffffffffffffffffff82036125775761257661250b565b5b600182019050919050565b60008190508160005260206000209050919050565b60006020601f8301049050919050565b600082821b905092915050565b6000600883026125e47fffffffffffffffffffffffffffffffffffffffffffffffffffffffffffffffff826125a7565b6125ee86836125a7565b95508019841693508086168417925050509392505050565b6000819050919050565b600061262b61262661262184611bdb565b612606565b611bdb565b9050919050565b6000819050919050565b61264583612610565b61265961265182612632565b8484546125b4565b825550505050565b600090565b61266e612661565b61267981848461263c565b505050565b5b8181101561269d57612692600082612666565b60018101905061267f565b5050565b601f8211156126e2576126b381612582565b6126bc84612597565b810160208510156126cb578190505b6126df6126d785612597565b83018261267e565b50505b505050565b600082821c905092915050565b6000612705600019846008026126e7565b1980831691505092915050565b600061271e83836126f4565b9150826002028217905092915050565b61273782611c35565b67ffffffffffffffff8111156127505761274f611e7b565b5b61275a82546124ab565b6127658282856126a1565b600060209050601f8311600181146127985760008415612786578287015190505b6127908582612712565b8655506127f8565b601f1984166127a686612582565b60005b828110156127ce578489015182556001820191506020850194506020810190506127a9565b868310156127eb57848901516127e7601f8916826126f4565b8355505b6001600288020188555050505b505050505050565b600081905092915050565b600061281682611c35565b6128208185612800565b9350612830818560208601611c51565b80840191505092915050565b6000612848828461280b565b91508190509291505056fea26469706673582212208ceb866dae372b7d69f933c9d9bc1e07f8015c78baf039516aceb7a7434e15cb64736f6c63430008120033",
					"opcodes": "PUSH1 0x80 PUSH1 0x40 MSTORE CALLVALUE DUP1 ISZERO PUSH2 0x10 JUMPI PUSH1 0x0 DUP1 REVERT JUMPDEST POP PUSH2 0x25 PUSH1 0x2 PUSH2 0x2A PUSH1 0x20 SHL PUSH2 0x1712 OR PUSH1 0x20 SHR JUMP JUMPDEST PUSH2 0x37 JUMP JUMPDEST PUSH1 0x0 DUP2 PUSH1 0x0 ADD DUP2 SWAP1 SSTORE POP POP JUMP JUMPDEST PUSH2 0x2889 DUP1 PUSH3 0x47 PUSH1 0x0 CODECOPY PUSH1 0x0 RETURN INVALID PUSH1 0x80 PUSH1 0x40 MSTORE CALLVALUE DUP1 ISZERO PUSH2 0x10 JUMPI PUSH1 0x0 DUP1 REVERT JUMPDEST POP PUSH1 0x4 CALLDATASIZE LT PUSH2 0xA9 JUMPI PUSH1 0x0 CALLDATALOAD PUSH1 0xE0 SHR DUP1 PUSH4 0x3B342E8E GT PUSH2 0x71 JUMPI DUP1 PUSH4 0x3B342E8E EQ PUSH2 0x154 JUMPI DUP1 PUSH4 0x4CEA965E EQ PUSH2 0x18B JUMPI DUP1 PUSH4 0xB79367C4 EQ PUSH2 0x1BD JUMPI DUP1 PUSH4 0xBED34BBA EQ PUSH2 0x1ED JUMPI DUP1 PUSH4 0xE44C76EA EQ PUSH2 0x21D JUMPI DUP1 PUSH4 0xF70D205C EQ PUSH2 0x24D JUMPI PUSH2 0xA9 JUMP JUMPDEST DUP1 PUSH4 0x4E48BD1 EQ PUSH2 0xAE JUMPI DUP1 PUSH4 0x1FC25CDD EQ PUSH2 0xCC JUMPI DUP1 PUSH4 0x21527E50 EQ PUSH2 0xFC JUMPI DUP1 PUSH4 0x2CC59076 EQ PUSH2 0x11A JUMPI DUP1 PUSH4 0x38880D55 EQ PUSH2 0x138 JUMPI JUMPDEST PUSH1 0x0 DUP1 REVERT JUMPDEST PUSH2 0xB6 PUSH2 0x27D JUMP JUMPDEST PUSH1 0x40 MLOAD PUSH2 0xC3 SWAP2 SWAP1 PUSH2 0x1E3B JUMP JUMPDEST PUSH1 0x40 MLOAD DUP1 SWAP2 SUB SWAP1 RETURN JUMPDEST PUSH2 0xE6 PUSH1 0x4 DUP1 CALLDATASIZE SUB DUP2 ADD SWAP1 PUSH2 0xE1 SWAP2 SWAP1 PUSH2 0x1FA6 JUMP JUMPDEST PUSH2 0x5AA JUMP JUMPDEST PUSH1 0x40 MLOAD PUSH2 0xF3 SWAP2 SWAP1 PUSH2 0x202D JUMP JUMPDEST PUSH1 0x40 MLOAD DUP1 SWAP2 SUB SWAP1 RETURN JUMPDEST PUSH2 0x104 PUSH2 0x7F7 JUMP JUMPDEST PUSH1 0x40 MLOAD PUSH2 0x111 SWAP2 SWAP1 PUSH2 0x209F JUMP JUMPDEST PUSH1 0x40 MLOAD DUP1 SWAP2 SUB SWAP1 RETURN JUMPDEST PUSH2 0x122 PUSH2 0x813 JUMP JUMPDEST PUSH1 0x40 MLOAD PUSH2 0x12F SWAP2 SWAP1 PUSH2 0x1E3B JUMP JUMPDEST PUSH1 0x40 MLOAD DUP1 SWAP2 SUB SWAP1 RETURN JUMPDEST PUSH2 0x152 PUSH1 0x4 DUP1 CALLDATASIZE SUB DUP2 ADD SWAP1 PUSH2 0x14D SWAP2 SWAP1 PUSH2 0x20ED JUMP JUMPDEST PUSH2 0xC48 JUMP JUMPDEST STOP JUMPDEST PUSH2 0x16E PUSH1 0x4 DUP1 CALLDATASIZE SUB DUP2 ADD SWAP1 PUSH2 0x169 SWAP2 SWAP1 PUSH2 0x21D8 JUMP JUMPDEST PUSH2 0xDB5 JUMP JUMPDEST PUSH1 0x40 MLOAD PUSH2 0x182 SWAP9 SWAP8 SWAP7 SWAP6 SWAP5 SWAP4 SWAP3 SWAP2 SWAP1 PUSH2 0x226D JUMP JUMPDEST PUSH1 0x40 MLOAD DUP1 SWAP2 SUB SWAP1 RETURN JUMPDEST PUSH2 0x1A5 PUSH1 0x4 DUP1 CALLDATASIZE SUB DUP2 ADD SWAP1 PUSH2 0x1A0 SWAP2 SWAP1 PUSH2 0x21D8 JUMP JUMPDEST PUSH2 0x105A JUMP JUMPDEST PUSH1 0x40 MLOAD PUSH2 0x1B4 SWAP4 SWAP3 SWAP2 SWAP1 PUSH2 0x2307 JUMP JUMPDEST PUSH1 0x40 MLOAD DUP1 SWAP2 SUB SWAP1 RETURN JUMPDEST PUSH2 0x1D7 PUSH1 0x4 DUP1 CALLDATASIZE SUB DUP2 ADD SWAP1 PUSH2 0x1D2 SWAP2 SWAP1 PUSH2 0x21D8 JUMP JUMPDEST PUSH2 0x11C4 JUMP JUMPDEST PUSH1 0x40 MLOAD PUSH2 0x1E4 SWAP2 SWAP1 PUSH2 0x2411 JUMP JUMPDEST PUSH1 0x40 MLOAD DUP1 SWAP2 SUB SWAP1 RETURN JUMPDEST PUSH2 0x207 PUSH1 0x4 DUP1 CALLDATASIZE SUB DUP2 ADD SWAP1 PUSH2 0x202 SWAP2 SWAP1 PUSH2 0x1FA6 JUMP JUMPDEST PUSH2 0x152B JUMP JUMPDEST PUSH1 0x40 MLOAD PUSH2 0x214 SWAP2 SWAP1 PUSH2 0x202D JUMP JUMPDEST PUSH1 0x40 MLOAD DUP1 SWAP2 SUB SWAP1 RETURN JUMPDEST PUSH2 0x237 PUSH1 0x4 DUP1 CALLDATASIZE SUB DUP2 ADD SWAP1 PUSH2 0x232 SWAP2 SWAP1 PUSH2 0x2433 JUMP JUMPDEST PUSH2 0x1584 JUMP JUMPDEST PUSH1 0x40 MLOAD PUSH2 0x244 SWAP2 SWAP1 PUSH2 0x202D JUMP JUMPDEST PUSH1 0x40 MLOAD DUP1 SWAP2 SUB SWAP1 RETURN JUMPDEST PUSH2 0x267 PUSH1 0x4 DUP1 CALLDATASIZE SUB DUP2 ADD SWAP1 PUSH2 0x262 SWAP2 SWAP1 PUSH2 0x2433 JUMP JUMPDEST PUSH2 0x16C7 JUMP JUMPDEST PUSH1 0x40 MLOAD PUSH2 0x274 SWAP2 SWAP1 PUSH2 0x202D JUMP JUMPDEST PUSH1 0x40 MLOAD DUP1 SWAP2 SUB SWAP1 RETURN JUMPDEST PUSH1 0x60 PUSH1 0x0 DUP1 SLOAD DUP1 PUSH1 0x20 MUL PUSH1 0x20 ADD PUSH1 0x40 MLOAD SWAP1 DUP2 ADD PUSH1 0x40 MSTORE DUP1 SWAP3 SWAP2 SWAP1 DUP2 DUP2 MSTORE PUSH1 0x20 ADD PUSH1 0x0 SWAP1 JUMPDEST DUP3 DUP3 LT ISZERO PUSH2 0x5A1 JUMPI DUP4 DUP3 SWAP1 PUSH1 0x0 MSTORE PUSH1 0x20 PUSH1 0x0 KECCAK256 SWAP1 PUSH1 0x8 MUL ADD PUSH1 0x40 MLOAD DUP1 PUSH2 0x100 ADD PUSH1 0x40 MSTORE SWAP1 DUP2 PUSH1 0x0 DUP3 ADD SLOAD DUP2 MSTORE PUSH1 0x20 ADD PUSH1 0x1 DUP3 ADD PUSH1 0x0 SWAP1 SLOAD SWAP1 PUSH2 0x100 EXP SWAP1 DIV PUSH20 0xFFFFFFFFFFFFFFFFFFFFFFFFFFFFFFFFFFFFFFFF AND PUSH20 0xFFFFFFFFFFFFFFFFFFFFFFFFFFFFFFFFFFFFFFFF AND PUSH20 0xFFFFFFFFFFFFFFFFFFFFFFFFFFFFFFFFFFFFFFFF AND DUP2 MSTORE PUSH1 0x20 ADD PUSH1 0x2 DUP3 ADD DUP1 SLOAD PUSH2 0x335 SWAP1 PUSH2 0x24AB JUMP JUMPDEST DUP1 PUSH1 0x1F ADD PUSH1 0x20 DUP1 SWAP2 DIV MUL PUSH1 0x20 ADD PUSH1 0x40 MLOAD SWAP1 DUP2 ADD PUSH1 0x40 MSTORE DUP1 SWAP3 SWAP2 SWAP1 DUP2 DUP2 MSTORE PUSH1 0x20 ADD DUP3 DUP1 SLOAD PUSH2 0x361 SWAP1 PUSH2 0x24AB JUMP JUMPDEST DUP1 ISZERO PUSH2 0x3AE JUMPI DUP1 PUSH1 0x1F LT PUSH2 0x383 JUMPI PUSH2 0x100 DUP1 DUP4 SLOAD DIV MUL DUP4 MSTORE SWAP2 PUSH1 0x20 ADD SWAP2 PUSH2 0x3AE JUMP JUMPDEST DUP3 ADD SWAP2 SWAP1 PUSH1 0x0 MSTORE PUSH1 0x20 PUSH1 0x0 KECCAK256 SWAP1 JUMPDEST DUP2 SLOAD DUP2 MSTORE SWAP1 PUSH1 0x1 ADD SWAP1 PUSH1 0x20 ADD DUP1 DUP4 GT PUSH2 0x391 JUMPI DUP3 SWAP1 SUB PUSH1 0x1F AND DUP3 ADD SWAP2 JUMPDEST POP POP POP POP POP DUP2 MSTORE PUSH1 0x20 ADD PUSH1 0x3 DUP3 ADD DUP1 SLOAD PUSH2 0x3C7 SWAP1 PUSH2 0x24AB JUMP JUMPDEST DUP1 PUSH1 0x1F ADD PUSH1 0x20 DUP1 SWAP2 DIV MUL PUSH1 0x20 ADD PUSH1 0x40 MLOAD SWAP1 DUP2 ADD PUSH1 0x40 MSTORE DUP1 SWAP3 SWAP2 SWAP1 DUP2 DUP2 MSTORE PUSH1 0x20 ADD DUP3 DUP1 SLOAD PUSH2 0x3F3 SWAP1 PUSH2 0x24AB JUMP JUMPDEST DUP1 ISZERO PUSH2 0x440 JUMPI DUP1 PUSH1 0x1F LT PUSH2 0x415 JUMPI PUSH2 0x100 DUP1 DUP4 SLOAD DIV MUL DUP4 MSTORE SWAP2 PUSH1 0x20 ADD SWAP2 PUSH2 0x440 JUMP JUMPDEST DUP3 ADD SWAP2 SWAP1 PUSH1 0x0 MSTORE PUSH1 0x20 PUSH1 0x0 KECCAK256 SWAP1 JUMPDEST DUP2 SLOAD DUP2 MSTORE SWAP1 PUSH1 0x1 ADD SWAP1 PUSH1 0x20 ADD DUP1 DUP4 GT PUSH2 0x423 JUMPI DUP3 SWAP1 SUB PUSH1 0x1F AND DUP3 ADD SWAP2 JUMPDEST POP POP POP POP POP DUP2 MSTORE PUSH1 0x20 ADD PUSH1 0x4 DUP3 ADD SLOAD DUP2 MSTORE PUSH1 0x20 ADD PUSH1 0x5 DUP3 ADD DUP1 SLOAD PUSH2 0x463 SWAP1 PUSH2 0x24AB JUMP JUMPDEST DUP1 PUSH1 0x1F ADD PUSH1 0x20 DUP1 SWAP2 DIV MUL PUSH1 0x20 ADD PUSH1 0x40 MLOAD SWAP1 DUP2 ADD PUSH1 0x40 MSTORE DUP1 SWAP3 SWAP2 SWAP1 DUP2 DUP2 MSTORE PUSH1 0x20 ADD DUP3 DUP1 SLOAD PUSH2 0x48F SWAP1 PUSH2 0x24AB JUMP JUMPDEST DUP1 ISZERO PUSH2 0x4DC JUMPI DUP1 PUSH1 0x1F LT PUSH2 0x4B1 JUMPI PUSH2 0x100 DUP1 DUP4 SLOAD DIV MUL DUP4 MSTORE SWAP2 PUSH1 0x20 ADD SWAP2 PUSH2 0x4DC JUMP JUMPDEST DUP3 ADD SWAP2 SWAP1 PUSH1 0x0 MSTORE PUSH1 0x20 PUSH1 0x0 KECCAK256 SWAP1 JUMPDEST DUP2 SLOAD DUP2 MSTORE SWAP1 PUSH1 0x1 ADD SWAP1 PUSH1 0x20 ADD DUP1 DUP4 GT PUSH2 0x4BF JUMPI DUP3 SWAP1 SUB PUSH1 0x1F AND DUP3 ADD SWAP2 JUMPDEST POP POP POP POP POP DUP2 MSTORE PUSH1 0x20 ADD PUSH1 0x6 DUP3 ADD PUSH1 0x0 SWAP1 SLOAD SWAP1 PUSH2 0x100 EXP SWAP1 DIV PUSH1 0xFF AND ISZERO ISZERO ISZERO ISZERO DUP2 MSTORE PUSH1 0x20 ADD PUSH1 0x7 DUP3 ADD DUP1 SLOAD PUSH2 0x510 SWAP1 PUSH2 0x24AB JUMP JUMPDEST DUP1 PUSH1 0x1F ADD PUSH1 0x20 DUP1 SWAP2 DIV MUL PUSH1 0x20 ADD PUSH1 0x40 MLOAD SWAP1 DUP2 ADD PUSH1 0x40 MSTORE DUP1 SWAP3 SWAP2 SWAP1 DUP2 DUP2 MSTORE PUSH1 0x20 ADD DUP3 DUP1 SLOAD PUSH2 0x53C SWAP1 PUSH2 0x24AB JUMP JUMPDEST DUP1 ISZERO PUSH2 0x589 JUMPI DUP1 PUSH1 0x1F LT PUSH2 0x55E JUMPI PUSH2 0x100 DUP1 DUP4 SLOAD DIV MUL DUP4 MSTORE SWAP2 PUSH1 0x20 ADD SWAP2 PUSH2 0x589 JUMP JUMPDEST DUP3 ADD SWAP2 SWAP1 PUSH1 0x0 MSTORE PUSH1 0x20 PUSH1 0x0 KECCAK256 SWAP1 JUMPDEST DUP2 SLOAD DUP2 MSTORE SWAP1 PUSH1 0x1 ADD SWAP1 PUSH1 0x20 ADD DUP1 DUP4 GT PUSH2 0x56C JUMPI DUP3 SWAP1 SUB PUSH1 0x1F AND DUP3 ADD SWAP2 JUMPDEST POP POP POP POP POP DUP2 MSTORE POP POP DUP2 MSTORE PUSH1 0x20 ADD SWAP1 PUSH1 0x1 ADD SWAP1 PUSH2 0x2A1 JUMP JUMPDEST POP POP POP POP SWAP1 POP SWAP1 JUMP JUMPDEST PUSH1 0x0 DUP1 PUSH1 0x0 SWAP1 POP JUMPDEST PUSH1 0x1 DUP1 SLOAD SWAP1 POP DUP2 LT ISZERO PUSH2 0x71A JUMPI PUSH2 0x676 PUSH1 0x1 DUP3 DUP2 SLOAD DUP2 LT PUSH2 0x5D6 JUMPI PUSH2 0x5D5 PUSH2 0x24DC JUMP JUMPDEST JUMPDEST SWAP1 PUSH1 0x0 MSTORE PUSH1 0x20 PUSH1 0x0 KECCAK256 SWAP1 PUSH1 0x3 MUL ADD PUSH1 0x0 ADD DUP1 SLOAD PUSH2 0x5F2 SWAP1 PUSH2 0x24AB JUMP JUMPDEST DUP1 PUSH1 0x1F ADD PUSH1 0x20 DUP1 SWAP2 DIV MUL PUSH1 0x20 ADD PUSH1 0x40 MLOAD SWAP1 DUP2 ADD PUSH1 0x40 MSTORE DUP1 SWAP3 SWAP2 SWAP1 DUP2 DUP2 MSTORE PUSH1 0x20 ADD DUP3 DUP1 SLOAD PUSH2 0x61E SWAP1 PUSH2 0x24AB JUMP JUMPDEST DUP1 ISZERO PUSH2 0x66B JUMPI DUP1 PUSH1 0x1F LT PUSH2 0x640 JUMPI PUSH2 0x100 DUP1 DUP4 SLOAD DIV MUL DUP4 MSTORE SWAP2 PUSH1 0x20 ADD SWAP2 PUSH2 0x66B JUMP JUMPDEST DUP3 ADD SWAP2 SWAP1 PUSH1 0x0 MSTORE PUSH1 0x20 PUSH1 0x0 KECCAK256 SWAP1 JUMPDEST DUP2 SLOAD DUP2 MSTORE SWAP1 PUSH1 0x1 ADD SWAP1 PUSH1 0x20 ADD DUP1 DUP4 GT PUSH2 0x64E JUMPI DUP3 SWAP1 SUB PUSH1 0x1F AND DUP3 ADD SWAP2 JUMPDEST POP POP POP POP POP DUP6 PUSH2 0x152B JUMP JUMPDEST ISZERO PUSH2 0x685 JUMPI PUSH1 0x0 SWAP2 POP POP PUSH2 0x7F1 JUMP JUMPDEST CALLER PUSH20 0xFFFFFFFFFFFFFFFFFFFFFFFFFFFFFFFFFFFFFFFF AND PUSH1 0x1 DUP3 DUP2 SLOAD DUP2 LT PUSH2 0x6B0 JUMPI PUSH2 0x6AF PUSH2 0x24DC JUMP JUMPDEST JUMPDEST SWAP1 PUSH1 0x0 MSTORE PUSH1 0x20 PUSH1 0x0 KECCAK256 SWAP1 PUSH1 0x3 MUL ADD PUSH1 0x1 ADD PUSH1 0x0 SWAP1 SLOAD SWAP1 PUSH2 0x100 EXP SWAP1 DIV PUSH20 0xFFFFFFFFFFFFFFFFFFFFFFFFFFFFFFFFFFFFFFFF AND PUSH20 0xFFFFFFFFFFFFFFFFFFFFFFFFFFFFFFFFFFFFFFFF AND SUB PUSH2 0x707 JUMPI PUSH1 0x0 SWAP2 POP POP PUSH2 0x7F1 JUMP JUMPDEST DUP1 DUP1 PUSH2 0x712 SWAP1 PUSH2 0x253A JUMP JUMPDEST SWAP2 POP POP PUSH2 0x5B2 JUMP JUMPDEST POP PUSH1 0x1 PUSH1 0x40 MLOAD DUP1 PUSH1 0x60 ADD PUSH1 0x40 MSTORE DUP1 DUP6 DUP2 MSTORE PUSH1 0x20 ADD CALLER PUSH20 0xFFFFFFFFFFFFFFFFFFFFFFFFFFFFFFFFFFFFFFFF AND DUP2 MSTORE PUSH1 0x20 ADD DUP5 DUP2 MSTORE POP SWAP1 DUP1 PUSH1 0x1 DUP2 SLOAD ADD DUP1 DUP3 SSTORE DUP1 SWAP2 POP POP PUSH1 0x1 SWAP1 SUB SWAP1 PUSH1 0x0 MSTORE PUSH1 0x20 PUSH1 0x0 KECCAK256 SWAP1 PUSH1 0x3 MUL ADD PUSH1 0x0 SWAP1 SWAP2 SWAP1 SWAP2 SWAP1 SWAP2 POP PUSH1 0x0 DUP3 ADD MLOAD DUP2 PUSH1 0x0 ADD SWAP1 DUP2 PUSH2 0x78C SWAP2 SWAP1 PUSH2 0x272E JUMP JUMPDEST POP PUSH1 0x20 DUP3 ADD MLOAD DUP2 PUSH1 0x1 ADD PUSH1 0x0 PUSH2 0x100 EXP DUP2 SLOAD DUP2 PUSH20 0xFFFFFFFFFFFFFFFFFFFFFFFFFFFFFFFFFFFFFFFF MUL NOT AND SWAP1 DUP4 PUSH20 0xFFFFFFFFFFFFFFFFFFFFFFFFFFFFFFFFFFFFFFFF AND MUL OR SWAP1 SSTORE POP PUSH1 0x40 DUP3 ADD MLOAD DUP2 PUSH1 0x2 ADD SWAP1 DUP2 PUSH2 0x7E9 SWAP2 SWAP1 PUSH2 0x272E JUMP JUMPDEST POP POP POP PUSH1 0x1 SWAP1 POP JUMPDEST SWAP3 SWAP2 POP POP JUMP JUMPDEST PUSH2 0x7FF PUSH2 0x1B1B JUMP JUMPDEST PUSH1 0x0 PUSH2 0x80A CALLER PUSH2 0x171F JUMP JUMPDEST SWAP1 POP DUP1 SWAP2 POP POP SWAP1 JUMP JUMPDEST PUSH1 0x60 PUSH1 0x0 PUSH2 0x820 CALLER PUSH2 0x1984 JUMP JUMPDEST SWAP1 POP PUSH1 0x0 DUP1 DUP3 PUSH8 0xFFFFFFFFFFFFFFFF DUP2 GT ISZERO PUSH2 0x83F JUMPI PUSH2 0x83E PUSH2 0x1E7B JUMP JUMPDEST JUMPDEST PUSH1 0x40 MLOAD SWAP1 DUP1 DUP3 MSTORE DUP1 PUSH1 0x20 MUL PUSH1 0x20 ADD DUP3 ADD PUSH1 0x40 MSTORE DUP1 ISZERO PUSH2 0x878 JUMPI DUP2 PUSH1 0x20 ADD JUMPDEST PUSH2 0x865 PUSH2 0x1B52 JUMP JUMPDEST DUP2 MSTORE PUSH1 0x20 ADD SWAP1 PUSH1 0x1 SWAP1 SUB SWAP1 DUP2 PUSH2 0x85D JUMPI SWAP1 POP JUMPDEST POP SWAP1 POP PUSH1 0x0 JUMPDEST PUSH1 0x0 DUP1 SLOAD SWAP1 POP DUP2 LT ISZERO PUSH2 0xC3E JUMPI CALLER PUSH20 0xFFFFFFFFFFFFFFFFFFFFFFFFFFFFFFFFFFFFFFFF AND PUSH1 0x0 DUP3 DUP2 SLOAD DUP2 LT PUSH2 0x8B6 JUMPI PUSH2 0x8B5 PUSH2 0x24DC JUMP JUMPDEST JUMPDEST SWAP1 PUSH1 0x0 MSTORE PUSH1 0x20 PUSH1 0x0 KECCAK256 SWAP1 PUSH1 0x8 MUL ADD PUSH1 0x1 ADD PUSH1 0x0 SWAP1 SLOAD SWAP1 PUSH2 0x100 EXP SWAP1 DIV PUSH20 0xFFFFFFFFFFFFFFFFFFFFFFFFFFFFFFFFFFFFFFFF AND PUSH20 0xFFFFFFFFFFFFFFFFFFFFFFFFFFFFFFFFFFFFFFFF AND SUB PUSH2 0xC2B JUMPI PUSH1 0x0 DUP2 DUP2 SLOAD DUP2 LT PUSH2 0x917 JUMPI PUSH2 0x916 PUSH2 0x24DC JUMP JUMPDEST JUMPDEST SWAP1 PUSH1 0x0 MSTORE PUSH1 0x20 PUSH1 0x0 KECCAK256 SWAP1 PUSH1 0x8 MUL ADD PUSH1 0x40 MLOAD DUP1 PUSH2 0x100 ADD PUSH1 0x40 MSTORE SWAP1 DUP2 PUSH1 0x0 DUP3 ADD SLOAD DUP2 MSTORE PUSH1 0x20 ADD PUSH1 0x1 DUP3 ADD PUSH1 0x0 SWAP1 SLOAD SWAP1 PUSH2 0x100 EXP SWAP1 DIV PUSH20 0xFFFFFFFFFFFFFFFFFFFFFFFFFFFFFFFFFFFFFFFF AND PUSH20 0xFFFFFFFFFFFFFFFFFFFFFFFFFFFFFFFFFFFFFFFF AND PUSH20 0xFFFFFFFFFFFFFFFFFFFFFFFFFFFFFFFFFFFFFFFF AND DUP2 MSTORE PUSH1 0x20 ADD PUSH1 0x2 DUP3 ADD DUP1 SLOAD PUSH2 0x9A1 SWAP1 PUSH2 0x24AB JUMP JUMPDEST DUP1 PUSH1 0x1F ADD PUSH1 0x20 DUP1 SWAP2 DIV MUL PUSH1 0x20 ADD PUSH1 0x40 MLOAD SWAP1 DUP2 ADD PUSH1 0x40 MSTORE DUP1 SWAP3 SWAP2 SWAP1 DUP2 DUP2 MSTORE PUSH1 0x20 ADD DUP3 DUP1 SLOAD PUSH2 0x9CD SWAP1 PUSH2 0x24AB JUMP JUMPDEST DUP1 ISZERO PUSH2 0xA1A JUMPI DUP1 PUSH1 0x1F LT PUSH2 0x9EF JUMPI PUSH2 0x100 DUP1 DUP4 SLOAD DIV MUL DUP4 MSTORE SWAP2 PUSH1 0x20 ADD SWAP2 PUSH2 0xA1A JUMP JUMPDEST DUP3 ADD SWAP2 SWAP1 PUSH1 0x0 MSTORE PUSH1 0x20 PUSH1 0x0 KECCAK256 SWAP1 JUMPDEST DUP2 SLOAD DUP2 MSTORE SWAP1 PUSH1 0x1 ADD SWAP1 PUSH1 0x20 ADD DUP1 DUP4 GT PUSH2 0x9FD JUMPI DUP3 SWAP1 SUB PUSH1 0x1F AND DUP3 ADD SWAP2 JUMPDEST POP POP POP POP POP DUP2 MSTORE PUSH1 0x20 ADD PUSH1 0x3 DUP3 ADD DUP1 SLOAD PUSH2 0xA33 SWAP1 PUSH2 0x24AB JUMP JUMPDEST DUP1 PUSH1 0x1F ADD PUSH1 0x20 DUP1 SWAP2 DIV MUL PUSH1 0x20 ADD PUSH1 0x40 MLOAD SWAP1 DUP2 ADD PUSH1 0x40 MSTORE DUP1 SWAP3 SWAP2 SWAP1 DUP2 DUP2 MSTORE PUSH1 0x20 ADD DUP3 DUP1 SLOAD PUSH2 0xA5F SWAP1 PUSH2 0x24AB JUMP JUMPDEST DUP1 ISZERO PUSH2 0xAAC JUMPI DUP1 PUSH1 0x1F LT PUSH2 0xA81 JUMPI PUSH2 0x100 DUP1 DUP4 SLOAD DIV MUL DUP4 MSTORE SWAP2 PUSH1 0x20 ADD SWAP2 PUSH2 0xAAC JUMP JUMPDEST DUP3 ADD SWAP2 SWAP1 PUSH1 0x0 MSTORE PUSH1 0x20 PUSH1 0x0 KECCAK256 SWAP1 JUMPDEST DUP2 SLOAD DUP2 MSTORE SWAP1 PUSH1 0x1 ADD SWAP1 PUSH1 0x20 ADD DUP1 DUP4 GT PUSH2 0xA8F JUMPI DUP3 SWAP1 SUB PUSH1 0x1F AND DUP3 ADD SWAP2 JUMPDEST POP POP POP POP POP DUP2 MSTORE PUSH1 0x20 ADD PUSH1 0x4 DUP3 ADD SLOAD DUP2 MSTORE PUSH1 0x20 ADD PUSH1 0x5 DUP3 ADD DUP1 SLOAD PUSH2 0xACF SWAP1 PUSH2 0x24AB JUMP JUMPDEST DUP1 PUSH1 0x1F ADD PUSH1 0x20 DUP1 SWAP2 DIV MUL PUSH1 0x20 ADD PUSH1 0x40 MLOAD SWAP1 DUP2 ADD PUSH1 0x40 MSTORE DUP1 SWAP3 SWAP2 SWAP1 DUP2 DUP2 MSTORE PUSH1 0x20 ADD DUP3 DUP1 SLOAD PUSH2 0xAFB SWAP1 PUSH2 0x24AB JUMP JUMPDEST DUP1 ISZERO PUSH2 0xB48 JUMPI DUP1 PUSH1 0x1F LT PUSH2 0xB1D JUMPI PUSH2 0x100 DUP1 DUP4 SLOAD DIV MUL DUP4 MSTORE SWAP2 PUSH1 0x20 ADD SWAP2 PUSH2 0xB48 JUMP JUMPDEST DUP3 ADD SWAP2 SWAP1 PUSH1 0x0 MSTORE PUSH1 0x20 PUSH1 0x0 KECCAK256 SWAP1 JUMPDEST DUP2 SLOAD DUP2 MSTORE SWAP1 PUSH1 0x1 ADD SWAP1 PUSH1 0x20 ADD DUP1 DUP4 GT PUSH2 0xB2B JUMPI DUP3 SWAP1 SUB PUSH1 0x1F AND DUP3 ADD SWAP2 JUMPDEST POP POP POP POP POP DUP2 MSTORE PUSH1 0x20 ADD PUSH1 0x6 DUP3 ADD PUSH1 0x0 SWAP1 SLOAD SWAP1 PUSH2 0x100 EXP SWAP1 DIV PUSH1 0xFF AND ISZERO ISZERO ISZERO ISZERO DUP2 MSTORE PUSH1 0x20 ADD PUSH1 0x7 DUP3 ADD DUP1 SLOAD PUSH2 0xB7C SWAP1 PUSH2 0x24AB JUMP JUMPDEST DUP1 PUSH1 0x1F ADD PUSH1 0x20 DUP1 SWAP2 DIV MUL PUSH1 0x20 ADD PUSH1 0x40 MLOAD SWAP1 DUP2 ADD PUSH1 0x40 MSTORE DUP1 SWAP3 SWAP2 SWAP1 DUP2 DUP2 MSTORE PUSH1 0x20 ADD DUP3 DUP1 SLOAD PUSH2 0xBA8 SWAP1 PUSH2 0x24AB JUMP JUMPDEST DUP1 ISZERO PUSH2 0xBF5 JUMPI DUP1 PUSH1 0x1F LT PUSH2 0xBCA JUMPI PUSH2 0x100 DUP1 DUP4 SLOAD DIV MUL DUP4 MSTORE SWAP2 PUSH1 0x20 ADD SWAP2 PUSH2 0xBF5 JUMP JUMPDEST DUP3 ADD SWAP2 SWAP1 PUSH1 0x0 MSTORE PUSH1 0x20 PUSH1 0x0 KECCAK256 SWAP1 JUMPDEST DUP2 SLOAD DUP2 MSTORE SWAP1 PUSH1 0x1 ADD SWAP1 PUSH1 0x20 ADD DUP1 DUP4 GT PUSH2 0xBD8 JUMPI DUP3 SWAP1 SUB PUSH1 0x1F AND DUP3 ADD SWAP2 JUMPDEST POP POP POP POP POP DUP2 MSTORE POP POP DUP3 DUP5 DUP2 MLOAD DUP2 LT PUSH2 0xC11 JUMPI PUSH2 0xC10 PUSH2 0x24DC JUMP JUMPDEST JUMPDEST PUSH1 0x20 MUL PUSH1 0x20 ADD ADD DUP2 SWAP1 MSTORE POP DUP3 DUP1 PUSH2 0xC27 SWAP1 PUSH2 0x253A JUMP JUMPDEST SWAP4 POP POP JUMPDEST DUP1 DUP1 PUSH2 0xC36 SWAP1 PUSH2 0x253A JUMP JUMPDEST SWAP2 POP POP PUSH2 0x87E JUMP JUMPDEST POP DUP1 SWAP4 POP POP POP POP SWAP1 JUMP JUMPDEST PUSH1 0x0 PUSH1 0x40 MLOAD DUP1 PUSH2 0x100 ADD PUSH1 0x40 MSTORE DUP1 PUSH2 0xC60 PUSH1 0x2 PUSH2 0x1A3F JUMP JUMPDEST DUP2 MSTORE PUSH1 0x20 ADD CALLER PUSH20 0xFFFFFFFFFFFFFFFFFFFFFFFFFFFFFFFFFFFFFFFF AND DUP2 MSTORE PUSH1 0x20 ADD DUP8 DUP2 MSTORE PUSH1 0x20 ADD DUP7 DUP2 MSTORE PUSH1 0x20 ADD DUP6 DUP2 MSTORE PUSH1 0x20 ADD DUP5 DUP2 MSTORE PUSH1 0x20 ADD PUSH1 0x0 ISZERO ISZERO DUP2 MSTORE PUSH1 0x20 ADD DUP4 DUP2 MSTORE POP SWAP1 DUP1 PUSH1 0x1 DUP2 SLOAD ADD DUP1 DUP3 SSTORE DUP1 SWAP2 POP POP PUSH1 0x1 SWAP1 SUB SWAP1 PUSH1 0x0 MSTORE PUSH1 0x20 PUSH1 0x0 KECCAK256 SWAP1 PUSH1 0x8 MUL ADD PUSH1 0x0 SWAP1 SWAP2 SWAP1 SWAP2 SWAP1 SWAP2 POP PUSH1 0x0 DUP3 ADD MLOAD DUP2 PUSH1 0x0 ADD SSTORE PUSH1 0x20 DUP3 ADD MLOAD DUP2 PUSH1 0x1 ADD PUSH1 0x0 PUSH2 0x100 EXP DUP2 SLOAD DUP2 PUSH20 0xFFFFFFFFFFFFFFFFFFFFFFFFFFFFFFFFFFFFFFFF MUL NOT AND SWAP1 DUP4 PUSH20 0xFFFFFFFFFFFFFFFFFFFFFFFFFFFFFFFFFFFFFFFF AND MUL OR SWAP1 SSTORE POP PUSH1 0x40 DUP3 ADD MLOAD DUP2 PUSH1 0x2 ADD SWAP1 DUP2 PUSH2 0xD35 SWAP2 SWAP1 PUSH2 0x272E JUMP JUMPDEST POP PUSH1 0x60 DUP3 ADD MLOAD DUP2 PUSH1 0x3 ADD SWAP1 DUP2 PUSH2 0xD4B SWAP2 SWAP1 PUSH2 0x272E JUMP JUMPDEST POP PUSH1 0x80 DUP3 ADD MLOAD DUP2 PUSH1 0x4 ADD SSTORE PUSH1 0xA0 DUP3 ADD MLOAD DUP2 PUSH1 0x5 ADD SWAP1 DUP2 PUSH2 0xD6B SWAP2 SWAP1 PUSH2 0x272E JUMP JUMPDEST POP PUSH1 0xC0 DUP3 ADD MLOAD DUP2 PUSH1 0x6 ADD PUSH1 0x0 PUSH2 0x100 EXP DUP2 SLOAD DUP2 PUSH1 0xFF MUL NOT AND SWAP1 DUP4 ISZERO ISZERO MUL OR SWAP1 SSTORE POP PUSH1 0xE0 DUP3 ADD MLOAD DUP2 PUSH1 0x7 ADD SWAP1 DUP2 PUSH2 0xDA1 SWAP2 SWAP1 PUSH2 0x272E JUMP JUMPDEST POP POP POP PUSH2 0xDAE PUSH1 0x2 PUSH2 0x1A4D JUMP JUMPDEST POP POP POP POP POP JUMP JUMPDEST PUSH1 0x0 DUP2 DUP2 SLOAD DUP2 LT PUSH2 0xDC5 JUMPI PUSH1 0x0 DUP1 REVERT JUMPDEST SWAP1 PUSH1 0x0 MSTORE PUSH1 0x20 PUSH1 0x0 KECCAK256 SWAP1 PUSH1 0x8 MUL ADD PUSH1 0x0 SWAP2 POP SWAP1 POP DUP1 PUSH1 0x0 ADD SLOAD SWAP1 DUP1 PUSH1 0x1 ADD PUSH1 0x0 SWAP1 SLOAD SWAP1 PUSH2 0x100 EXP SWAP1 DIV PUSH20 0xFFFFFFFFFFFFFFFFFFFFFFFFFFFFFFFFFFFFFFFF AND SWAP1 DUP1 PUSH1 0x2 ADD DUP1 SLOAD PUSH2 0xE14 SWAP1 PUSH2 0x24AB JUMP JUMPDEST DUP1 PUSH1 0x1F ADD PUSH1 0x20 DUP1 SWAP2 DIV MUL PUSH1 0x20 ADD PUSH1 0x40 MLOAD SWAP1 DUP2 ADD PUSH1 0x40 MSTORE DUP1 SWAP3 SWAP2 SWAP1 DUP2 DUP2 MSTORE PUSH1 0x20 ADD DUP3 DUP1 SLOAD PUSH2 0xE40 SWAP1 PUSH2 0x24AB JUMP JUMPDEST DUP1 ISZERO PUSH2 0xE8D JUMPI DUP1 PUSH1 0x1F LT PUSH2 0xE62 JUMPI PUSH2 0x100 DUP1 DUP4 SLOAD DIV MUL DUP4 MSTORE SWAP2 PUSH1 0x20 ADD SWAP2 PUSH2 0xE8D JUMP JUMPDEST DUP3 ADD SWAP2 SWAP1 PUSH1 0x0 MSTORE PUSH1 0x20 PUSH1 0x0 KECCAK256 SWAP1 JUMPDEST DUP2 SLOAD DUP2 MSTORE SWAP1 PUSH1 0x1 ADD SWAP1 PUSH1 0x20 ADD DUP1 DUP4 GT PUSH2 0xE70 JUMPI DUP3 SWAP1 SUB PUSH1 0x1F AND DUP3 ADD SWAP2 JUMPDEST POP POP POP POP POP SWAP1 DUP1 PUSH1 0x3 ADD DUP1 SLOAD PUSH2 0xEA2 SWAP1 PUSH2 0x24AB JUMP JUMPDEST DUP1 PUSH1 0x1F ADD PUSH1 0x20 DUP1 SWAP2 DIV MUL PUSH1 0x20 ADD PUSH1 0x40 MLOAD SWAP1 DUP2 ADD PUSH1 0x40 MSTORE DUP1 SWAP3 SWAP2 SWAP1 DUP2 DUP2 MSTORE PUSH1 0x20 ADD DUP3 DUP1 SLOAD PUSH2 0xECE SWAP1 PUSH2 0x24AB JUMP JUMPDEST DUP1 ISZERO PUSH2 0xF1B JUMPI DUP1 PUSH1 0x1F LT PUSH2 0xEF0 JUMPI PUSH2 0x100 DUP1 DUP4 SLOAD DIV MUL DUP4 MSTORE SWAP2 PUSH1 0x20 ADD SWAP2 PUSH2 0xF1B JUMP JUMPDEST DUP3 ADD SWAP2 SWAP1 PUSH1 0x0 MSTORE PUSH1 0x20 PUSH1 0x0 KECCAK256 SWAP1 JUMPDEST DUP2 SLOAD DUP2 MSTORE SWAP1 PUSH1 0x1 ADD SWAP1 PUSH1 0x20 ADD DUP1 DUP4 GT PUSH2 0xEFE JUMPI DUP3 SWAP1 SUB PUSH1 0x1F AND DUP3 ADD SWAP2 JUMPDEST POP POP POP POP POP SWAP1 DUP1 PUSH1 0x4 ADD SLOAD SWAP1 DUP1 PUSH1 0x5 ADD DUP1 SLOAD PUSH2 0xF36 SWAP1 PUSH2 0x24AB JUMP JUMPDEST DUP1 PUSH1 0x1F ADD PUSH1 0x20 DUP1 SWAP2 DIV MUL PUSH1 0x20 ADD PUSH1 0x40 MLOAD SWAP1 DUP2 ADD PUSH1 0x40 MSTORE DUP1 SWAP3 SWAP2 SWAP1 DUP2 DUP2 MSTORE PUSH1 0x20 ADD DUP3 DUP1 SLOAD PUSH2 0xF62 SWAP1 PUSH2 0x24AB JUMP JUMPDEST DUP1 ISZERO PUSH2 0xFAF JUMPI DUP1 PUSH1 0x1F LT PUSH2 0xF84 JUMPI PUSH2 0x100 DUP1 DUP4 SLOAD DIV MUL DUP4 MSTORE SWAP2 PUSH1 0x20 ADD SWAP2 PUSH2 0xFAF JUMP JUMPDEST DUP3 ADD SWAP2 SWAP1 PUSH1 0x0 MSTORE PUSH1 0x20 PUSH1 0x0 KECCAK256 SWAP1 JUMPDEST DUP2 SLOAD DUP2 MSTORE SWAP1 PUSH1 0x1 ADD SWAP1 PUSH1 0x20 ADD DUP1 DUP4 GT PUSH2 0xF92 JUMPI DUP3 SWAP1 SUB PUSH1 0x1F AND DUP3 ADD SWAP2 JUMPDEST POP POP POP POP POP SWAP1 DUP1 PUSH1 0x6 ADD PUSH1 0x0 SWAP1 SLOAD SWAP1 PUSH2 0x100 EXP SWAP1 DIV PUSH1 0xFF AND SWAP1 DUP1 PUSH1 0x7 ADD DUP1 SLOAD PUSH2 0xFD7 SWAP1 PUSH2 0x24AB JUMP JUMPDEST DUP1 PUSH1 0x1F ADD PUSH1 0x20 DUP1 SWAP2 DIV MUL PUSH1 0x20 ADD PUSH1 0x40 MLOAD SWAP1 DUP2 ADD PUSH1 0x40 MSTORE DUP1 SWAP3 SWAP2 SWAP1 DUP2 DUP2 MSTORE PUSH1 0x20 ADD DUP3 DUP1 SLOAD PUSH2 0x1003 SWAP1 PUSH2 0x24AB JUMP JUMPDEST DUP1 ISZERO PUSH2 0x1050 JUMPI DUP1 PUSH1 0x1F LT PUSH2 0x1025 JUMPI PUSH2 0x100 DUP1 DUP4 SLOAD DIV MUL DUP4 MSTORE SWAP2 PUSH1 0x20 ADD SWAP2 PUSH2 0x1050 JUMP JUMPDEST DUP3 ADD SWAP2 SWAP1 PUSH1 0x0 MSTORE PUSH1 0x20 PUSH1 0x0 KECCAK256 SWAP1 JUMPDEST DUP2 SLOAD DUP2 MSTORE SWAP1 PUSH1 0x1 ADD SWAP1 PUSH1 0x20 ADD DUP1 DUP4 GT PUSH2 0x1033 JUMPI DUP3 SWAP1 SUB PUSH1 0x1F AND DUP3 ADD SWAP2 JUMPDEST POP POP POP POP POP SWAP1 POP DUP9 JUMP JUMPDEST PUSH1 0x1 DUP2 DUP2 SLOAD DUP2 LT PUSH2 0x106A JUMPI PUSH1 0x0 DUP1 REVERT JUMPDEST SWAP1 PUSH1 0x0 MSTORE PUSH1 0x20 PUSH1 0x0 KECCAK256 SWAP1 PUSH1 0x3 MUL ADD PUSH1 0x0 SWAP2 POP SWAP1 POP DUP1 PUSH1 0x0 ADD DUP1 SLOAD PUSH2 0x108D SWAP1 PUSH2 0x24AB JUMP JUMPDEST DUP1 PUSH1 0x1F ADD PUSH1 0x20 DUP1 SWAP2 DIV MUL PUSH1 0x20 ADD PUSH1 0x40 MLOAD SWAP1 DUP2 ADD PUSH1 0x40 MSTORE DUP1 SWAP3 SWAP2 SWAP1 DUP2 DUP2 MSTORE PUSH1 0x20 ADD DUP3 DUP1 SLOAD PUSH2 0x10B9 SWAP1 PUSH2 0x24AB JUMP JUMPDEST DUP1 ISZERO PUSH2 0x1106 JUMPI DUP1 PUSH1 0x1F LT PUSH2 0x10DB JUMPI PUSH2 0x100 DUP1 DUP4 SLOAD DIV MUL DUP4 MSTORE SWAP2 PUSH1 0x20 ADD SWAP2 PUSH2 0x1106 JUMP JUMPDEST DUP3 ADD SWAP2 SWAP1 PUSH1 0x0 MSTORE PUSH1 0x20 PUSH1 0x0 KECCAK256 SWAP1 JUMPDEST DUP2 SLOAD DUP2 MSTORE SWAP1 PUSH1 0x1 ADD SWAP1 PUSH1 0x20 ADD DUP1 DUP4 GT PUSH2 0x10E9 JUMPI DUP3 SWAP1 SUB PUSH1 0x1F AND DUP3 ADD SWAP2 JUMPDEST POP POP POP POP POP SWAP1 DUP1 PUSH1 0x1 ADD PUSH1 0x0 SWAP1 SLOAD SWAP1 PUSH2 0x100 EXP SWAP1 DIV PUSH20 0xFFFFFFFFFFFFFFFFFFFFFFFFFFFFFFFFFFFFFFFF AND SWAP1 DUP1 PUSH1 0x2 ADD DUP1 SLOAD PUSH2 0x1141 SWAP1 PUSH2 0x24AB JUMP JUMPDEST DUP1 PUSH1 0x1F ADD PUSH1 0x20 DUP1 SWAP2 DIV MUL PUSH1 0x20 ADD PUSH1 0x40 MLOAD SWAP1 DUP2 ADD PUSH1 0x40 MSTORE DUP1 SWAP3 SWAP2 SWAP1 DUP2 DUP2 MSTORE PUSH1 0x20 ADD DUP3 DUP1 SLOAD PUSH2 0x116D SWAP1 PUSH2 0x24AB JUMP JUMPDEST DUP1 ISZERO PUSH2 0x11BA JUMPI DUP1 PUSH1 0x1F LT PUSH2 0x118F JUMPI PUSH2 0x100 DUP1 DUP4 SLOAD DIV MUL DUP4 MSTORE SWAP2 PUSH1 0x20 ADD SWAP2 PUSH2 0x11BA JUMP JUMPDEST DUP3 ADD SWAP2 SWAP1 PUSH1 0x0 MSTORE PUSH1 0x20 PUSH1 0x0 KECCAK256 SWAP1 JUMPDEST DUP2 SLOAD DUP2 MSTORE SWAP1 PUSH1 0x1 ADD SWAP1 PUSH1 0x20 ADD DUP1 DUP4 GT PUSH2 0x119D JUMPI DUP3 SWAP1 SUB PUSH1 0x1F AND DUP3 ADD SWAP2 JUMPDEST POP POP POP POP POP SWAP1 POP DUP4 JUMP JUMPDEST PUSH2 0x11CC PUSH2 0x1B52 JUMP JUMPDEST PUSH2 0x11D4 PUSH2 0x1B52 JUMP JUMPDEST PUSH1 0x0 JUMPDEST PUSH1 0x0 DUP1 SLOAD SWAP1 POP DUP2 LT ISZERO PUSH2 0x1521 JUMPI DUP4 PUSH1 0x0 DUP3 DUP2 SLOAD DUP2 LT PUSH2 0x11F9 JUMPI PUSH2 0x11F8 PUSH2 0x24DC JUMP JUMPDEST JUMPDEST SWAP1 PUSH1 0x0 MSTORE PUSH1 0x20 PUSH1 0x0 KECCAK256 SWAP1 PUSH1 0x8 MUL ADD PUSH1 0x0 ADD SLOAD SUB PUSH2 0x150E JUMPI PUSH1 0x0 DUP2 DUP2 SLOAD DUP2 LT PUSH2 0x1224 JUMPI PUSH2 0x1223 PUSH2 0x24DC JUMP JUMPDEST JUMPDEST SWAP1 PUSH1 0x0 MSTORE PUSH1 0x20 PUSH1 0x0 KECCAK256 SWAP1 PUSH1 0x8 MUL ADD PUSH1 0x40 MLOAD DUP1 PUSH2 0x100 ADD PUSH1 0x40 MSTORE SWAP1 DUP2 PUSH1 0x0 DUP3 ADD SLOAD DUP2 MSTORE PUSH1 0x20 ADD PUSH1 0x1 DUP3 ADD PUSH1 0x0 SWAP1 SLOAD SWAP1 PUSH2 0x100 EXP SWAP1 DIV PUSH20 0xFFFFFFFFFFFFFFFFFFFFFFFFFFFFFFFFFFFFFFFF AND PUSH20 0xFFFFFFFFFFFFFFFFFFFFFFFFFFFFFFFFFFFFFFFF AND PUSH20 0xFFFFFFFFFFFFFFFFFFFFFFFFFFFFFFFFFFFFFFFF AND DUP2 MSTORE PUSH1 0x20 ADD PUSH1 0x2 DUP3 ADD DUP1 SLOAD PUSH2 0x12AE SWAP1 PUSH2 0x24AB JUMP JUMPDEST DUP1 PUSH1 0x1F ADD PUSH1 0x20 DUP1 SWAP2 DIV MUL PUSH1 0x20 ADD PUSH1 0x40 MLOAD SWAP1 DUP2 ADD PUSH1 0x40 MSTORE DUP1 SWAP3 SWAP2 SWAP1 DUP2 DUP2 MSTORE PUSH1 0x20 ADD DUP3 DUP1 SLOAD PUSH2 0x12DA SWAP1 PUSH2 0x24AB JUMP JUMPDEST DUP1 ISZERO PUSH2 0x1327 JUMPI DUP1 PUSH1 0x1F LT PUSH2 0x12FC JUMPI PUSH2 0x100 DUP1 DUP4 SLOAD DIV MUL DUP4 MSTORE SWAP2 PUSH1 0x20 ADD SWAP2 PUSH2 0x1327 JUMP JUMPDEST DUP3 ADD SWAP2 SWAP1 PUSH1 0x0 MSTORE PUSH1 0x20 PUSH1 0x0 KECCAK256 SWAP1 JUMPDEST DUP2 SLOAD DUP2 MSTORE SWAP1 PUSH1 0x1 ADD SWAP1 PUSH1 0x20 ADD DUP1 DUP4 GT PUSH2 0x130A JUMPI DUP3 SWAP1 SUB PUSH1 0x1F AND DUP3 ADD SWAP2 JUMPDEST POP POP POP POP POP DUP2 MSTORE PUSH1 0x20 ADD PUSH1 0x3 DUP3 ADD DUP1 SLOAD PUSH2 0x1340 SWAP1 PUSH2 0x24AB JUMP JUMPDEST DUP1 PUSH1 0x1F ADD PUSH1 0x20 DUP1 SWAP2 DIV MUL PUSH1 0x20 ADD PUSH1 0x40 MLOAD SWAP1 DUP2 ADD PUSH1 0x40 MSTORE DUP1 SWAP3 SWAP2 SWAP1 DUP2 DUP2 MSTORE PUSH1 0x20 ADD DUP3 DUP1 SLOAD PUSH2 0x136C SWAP1 PUSH2 0x24AB JUMP JUMPDEST DUP1 ISZERO PUSH2 0x13B9 JUMPI DUP1 PUSH1 0x1F LT PUSH2 0x138E JUMPI PUSH2 0x100 DUP1 DUP4 SLOAD DIV MUL DUP4 MSTORE SWAP2 PUSH1 0x20 ADD SWAP2 PUSH2 0x13B9 JUMP JUMPDEST DUP3 ADD SWAP2 SWAP1 PUSH1 0x0 MSTORE PUSH1 0x20 PUSH1 0x0 KECCAK256 SWAP1 JUMPDEST DUP2 SLOAD DUP2 MSTORE SWAP1 PUSH1 0x1 ADD SWAP1 PUSH1 0x20 ADD DUP1 DUP4 GT PUSH2 0x139C JUMPI DUP3 SWAP1 SUB PUSH1 0x1F AND DUP3 ADD SWAP2 JUMPDEST POP POP POP POP POP DUP2 MSTORE PUSH1 0x20 ADD PUSH1 0x4 DUP3 ADD SLOAD DUP2 MSTORE PUSH1 0x20 ADD PUSH1 0x5 DUP3 ADD DUP1 SLOAD PUSH2 0x13DC SWAP1 PUSH2 0x24AB JUMP JUMPDEST DUP1 PUSH1 0x1F ADD PUSH1 0x20 DUP1 SWAP2 DIV MUL PUSH1 0x20 ADD PUSH1 0x40 MLOAD SWAP1 DUP2 ADD PUSH1 0x40 MSTORE DUP1 SWAP3 SWAP2 SWAP1 DUP2 DUP2 MSTORE PUSH1 0x20 ADD DUP3 DUP1 SLOAD PUSH2 0x1408 SWAP1 PUSH2 0x24AB JUMP JUMPDEST DUP1 ISZERO PUSH2 0x1455 JUMPI DUP1 PUSH1 0x1F LT PUSH2 0x142A JUMPI PUSH2 0x100 DUP1 DUP4 SLOAD DIV MUL DUP4 MSTORE SWAP2 PUSH1 0x20 ADD SWAP2 PUSH2 0x1455 JUMP JUMPDEST DUP3 ADD SWAP2 SWAP1 PUSH1 0x0 MSTORE PUSH1 0x20 PUSH1 0x0 KECCAK256 SWAP1 JUMPDEST DUP2 SLOAD DUP2 MSTORE SWAP1 PUSH1 0x1 ADD SWAP1 PUSH1 0x20 ADD DUP1 DUP4 GT PUSH2 0x1438 JUMPI DUP3 SWAP1 SUB PUSH1 0x1F AND DUP3 ADD SWAP2 JUMPDEST POP POP POP POP POP DUP2 MSTORE PUSH1 0x20 ADD PUSH1 0x6 DUP3 ADD PUSH1 0x0 SWAP1 SLOAD SWAP1 PUSH2 0x100 EXP SWAP1 DIV PUSH1 0xFF AND ISZERO ISZERO ISZERO ISZERO DUP2 MSTORE PUSH1 0x20 ADD PUSH1 0x7 DUP3 ADD DUP1 SLOAD PUSH2 0x1489 SWAP1 PUSH2 0x24AB JUMP JUMPDEST DUP1 PUSH1 0x1F ADD PUSH1 0x20 DUP1 SWAP2 DIV MUL PUSH1 0x20 ADD PUSH1 0x40 MLOAD SWAP1 DUP2 ADD PUSH1 0x40 MSTORE DUP1 SWAP3 SWAP2 SWAP1 DUP2 DUP2 MSTORE PUSH1 0x20 ADD DUP3 DUP1 SLOAD PUSH2 0x14B5 SWAP1 PUSH2 0x24AB JUMP JUMPDEST DUP1 ISZERO PUSH2 0x1502 JUMPI DUP1 PUSH1 0x1F LT PUSH2 0x14D7 JUMPI PUSH2 0x100 DUP1 DUP4 SLOAD DIV MUL DUP4 MSTORE SWAP2 PUSH1 0x20 ADD SWAP2 PUSH2 0x1502 JUMP JUMPDEST DUP3 ADD SWAP2 SWAP1 PUSH1 0x0 MSTORE PUSH1 0x20 PUSH1 0x0 KECCAK256 SWAP1 JUMPDEST DUP2 SLOAD DUP2 MSTORE SWAP1 PUSH1 0x1 ADD SWAP1 PUSH1 0x20 ADD DUP1 DUP4 GT PUSH2 0x14E5 JUMPI DUP3 SWAP1 SUB PUSH1 0x1F AND DUP3 ADD SWAP2 JUMPDEST POP POP POP POP POP DUP2 MSTORE POP POP SWAP2 POP JUMPDEST DUP1 DUP1 PUSH2 0x1519 SWAP1 PUSH2 0x253A JUMP JUMPDEST SWAP2 POP POP PUSH2 0x11D7 JUMP JUMPDEST POP DUP1 SWAP2 POP POP SWAP2 SWAP1 POP JUMP JUMPDEST PUSH1 0x0 DUP2 PUSH1 0x40 MLOAD PUSH1 0x20 ADD PUSH2 0x153E SWAP2 SWAP1 PUSH2 0x283C JUMP JUMPDEST PUSH1 0x40 MLOAD PUSH1 0x20 DUP2 DUP4 SUB SUB DUP2 MSTORE SWAP1 PUSH1 0x40 MSTORE DUP1 MLOAD SWAP1 PUSH1 0x20 ADD KECCAK256 DUP4 PUSH1 0x40 MLOAD PUSH1 0x20 ADD PUSH2 0x1565 SWAP2 SWAP1 PUSH2 0x283C JUMP JUMPDEST PUSH1 0x40 MLOAD PUSH1 0x20 DUP2 DUP4 SUB SUB DUP2 MSTORE SWAP1 PUSH1 0x40 MSTORE DUP1 MLOAD SWAP1 PUSH1 0x20 ADD KECCAK256 EQ SWAP1 POP SWAP3 SWAP2 POP POP JUMP JUMPDEST PUSH1 0x0 DUP1 PUSH2 0x1590 CALLER PUSH2 0x1A63 JUMP JUMPDEST SWAP1 POP PUSH1 0x0 JUMPDEST PUSH1 0x1 DUP1 SLOAD SWAP1 POP DUP2 LT ISZERO PUSH2 0x1688 JUMPI PUSH2 0x1659 PUSH1 0x1 DUP3 DUP2 SLOAD DUP2 LT PUSH2 0x15B9 JUMPI PUSH2 0x15B8 PUSH2 0x24DC JUMP JUMPDEST JUMPDEST SWAP1 PUSH1 0x0 MSTORE PUSH1 0x20 PUSH1 0x0 KECCAK256 SWAP1 PUSH1 0x3 MUL ADD PUSH1 0x0 ADD DUP1 SLOAD PUSH2 0x15D5 SWAP1 PUSH2 0x24AB JUMP JUMPDEST DUP1 PUSH1 0x1F ADD PUSH1 0x20 DUP1 SWAP2 DIV MUL PUSH1 0x20 ADD PUSH1 0x40 MLOAD SWAP1 DUP2 ADD PUSH1 0x40 MSTORE DUP1 SWAP3 SWAP2 SWAP1 DUP2 DUP2 MSTORE PUSH1 0x20 ADD DUP3 DUP1 SLOAD PUSH2 0x1601 SWAP1 PUSH2 0x24AB JUMP JUMPDEST DUP1 ISZERO PUSH2 0x164E JUMPI DUP1 PUSH1 0x1F LT PUSH2 0x1623 JUMPI PUSH2 0x100 DUP1 DUP4 SLOAD DIV MUL DUP4 MSTORE SWAP2 PUSH1 0x20 ADD SWAP2 PUSH2 0x164E JUMP JUMPDEST DUP3 ADD SWAP2 SWAP1 PUSH1 0x0 MSTORE PUSH1 0x20 PUSH1 0x0 KECCAK256 SWAP1 JUMPDEST DUP2 SLOAD DUP2 MSTORE SWAP1 PUSH1 0x1 ADD SWAP1 PUSH1 0x20 ADD DUP1 DUP4 GT PUSH2 0x1631 JUMPI DUP3 SWAP1 SUB PUSH1 0x1F AND DUP3 ADD SWAP2 JUMPDEST POP POP POP POP POP DUP6 PUSH2 0x152B JUMP JUMPDEST DUP1 ISZERO PUSH2 0x1665 JUMPI POP DUP2 DUP2 EQ ISZERO JUMPDEST ISZERO PUSH2 0x1675 JUMPI PUSH1 0x0 SWAP3 POP POP POP PUSH2 0x16C2 JUMP JUMPDEST DUP1 DUP1 PUSH2 0x1680 SWAP1 PUSH2 0x253A JUMP JUMPDEST SWAP2 POP POP PUSH2 0x1595 JUMP JUMPDEST POP DUP3 PUSH1 0x1 DUP3 DUP2 SLOAD DUP2 LT PUSH2 0x169E JUMPI PUSH2 0x169D PUSH2 0x24DC JUMP JUMPDEST JUMPDEST SWAP1 PUSH1 0x0 MSTORE PUSH1 0x20 PUSH1 0x0 KECCAK256 SWAP1 PUSH1 0x3 MUL ADD PUSH1 0x0 ADD SWAP1 DUP2 PUSH2 0x16BB SWAP2 SWAP1 PUSH2 0x272E JUMP JUMPDEST POP PUSH1 0x1 SWAP2 POP POP JUMPDEST SWAP2 SWAP1 POP JUMP JUMPDEST PUSH1 0x0 DUP1 PUSH2 0x16D3 CALLER PUSH2 0x1A63 JUMP JUMPDEST SWAP1 POP DUP3 PUSH1 0x1 DUP3 DUP2 SLOAD DUP2 LT PUSH2 0x16EA JUMPI PUSH2 0x16E9 PUSH2 0x24DC JUMP JUMPDEST JUMPDEST SWAP1 PUSH1 0x0 MSTORE PUSH1 0x20 PUSH1 0x0 KECCAK256 SWAP1 PUSH1 0x3 MUL ADD PUSH1 0x2 ADD SWAP1 DUP2 PUSH2 0x1707 SWAP2 SWAP1 PUSH2 0x272E JUMP JUMPDEST POP PUSH1 0x1 SWAP2 POP POP SWAP2 SWAP1 POP JUMP JUMPDEST PUSH1 0x0 DUP2 PUSH1 0x0 ADD DUP2 SWAP1 SSTORE POP POP JUMP JUMPDEST PUSH2 0x1727 PUSH2 0x1B1B JUMP JUMPDEST PUSH1 0x0 JUMPDEST PUSH1 0x1 DUP1 SLOAD SWAP1 POP DUP2 LT ISZERO PUSH2 0x1971 JUMPI DUP3 PUSH20 0xFFFFFFFFFFFFFFFFFFFFFFFFFFFFFFFFFFFFFFFF AND PUSH1 0x1 DUP3 DUP2 SLOAD DUP2 LT PUSH2 0x1762 JUMPI PUSH2 0x1761 PUSH2 0x24DC JUMP JUMPDEST JUMPDEST SWAP1 PUSH1 0x0 MSTORE PUSH1 0x20 PUSH1 0x0 KECCAK256 SWAP1 PUSH1 0x3 MUL ADD PUSH1 0x1 ADD PUSH1 0x0 SWAP1 SLOAD SWAP1 PUSH2 0x100 EXP SWAP1 DIV PUSH20 0xFFFFFFFFFFFFFFFFFFFFFFFFFFFFFFFFFFFFFFFF AND PUSH20 0xFFFFFFFFFFFFFFFFFFFFFFFFFFFFFFFFFFFFFFFF AND SUB PUSH2 0x195E JUMPI PUSH1 0x1 DUP2 DUP2 SLOAD DUP2 LT PUSH2 0x17C3 JUMPI PUSH2 0x17C2 PUSH2 0x24DC JUMP JUMPDEST JUMPDEST SWAP1 PUSH1 0x0 MSTORE PUSH1 0x20 PUSH1 0x0 KECCAK256 SWAP1 PUSH1 0x3 MUL ADD PUSH1 0x40 MLOAD DUP1 PUSH1 0x60 ADD PUSH1 0x40 MSTORE SWAP1 DUP2 PUSH1 0x0 DUP3 ADD DUP1 SLOAD PUSH2 0x17EC SWAP1 PUSH2 0x24AB JUMP JUMPDEST DUP1 PUSH1 0x1F ADD PUSH1 0x20 DUP1 SWAP2 DIV MUL PUSH1 0x20 ADD PUSH1 0x40 MLOAD SWAP1 DUP2 ADD PUSH1 0x40 MSTORE DUP1 SWAP3 SWAP2 SWAP1 DUP2 DUP2 MSTORE PUSH1 0x20 ADD DUP3 DUP1 SLOAD PUSH2 0x1818 SWAP1 PUSH2 0x24AB JUMP JUMPDEST DUP1 ISZERO PUSH2 0x1865 JUMPI DUP1 PUSH1 0x1F LT PUSH2 0x183A JUMPI PUSH2 0x100 DUP1 DUP4 SLOAD DIV MUL DUP4 MSTORE SWAP2 PUSH1 0x20 ADD SWAP2 PUSH2 0x1865 JUMP JUMPDEST DUP3 ADD SWAP2 SWAP1 PUSH1 0x0 MSTORE PUSH1 0x20 PUSH1 0x0 KECCAK256 SWAP1 JUMPDEST DUP2 SLOAD DUP2 MSTORE SWAP1 PUSH1 0x1 ADD SWAP1 PUSH1 0x20 ADD DUP1 DUP4 GT PUSH2 0x1848 JUMPI DUP3 SWAP1 SUB PUSH1 0x1F AND DUP3 ADD SWAP2 JUMPDEST POP POP POP POP POP DUP2 MSTORE PUSH1 0x20 ADD PUSH1 0x1 DUP3 ADD PUSH1 0x0 SWAP1 SLOAD SWAP1 PUSH2 0x100 EXP SWAP1 DIV PUSH20 0xFFFFFFFFFFFFFFFFFFFFFFFFFFFFFFFFFFFFFFFF AND PUSH20 0xFFFFFFFFFFFFFFFFFFFFFFFFFFFFFFFFFFFFFFFF AND PUSH20 0xFFFFFFFFFFFFFFFFFFFFFFFFFFFFFFFFFFFFFFFF AND DUP2 MSTORE PUSH1 0x20 ADD PUSH1 0x2 DUP3 ADD DUP1 SLOAD PUSH2 0x18D4 SWAP1 PUSH2 0x24AB JUMP JUMPDEST DUP1 PUSH1 0x1F ADD PUSH1 0x20 DUP1 SWAP2 DIV MUL PUSH1 0x20 ADD PUSH1 0x40 MLOAD SWAP1 DUP2 ADD PUSH1 0x40 MSTORE DUP1 SWAP3 SWAP2 SWAP1 DUP2 DUP2 MSTORE PUSH1 0x20 ADD DUP3 DUP1 SLOAD PUSH2 0x1900 SWAP1 PUSH2 0x24AB JUMP JUMPDEST DUP1 ISZERO PUSH2 0x194D JUMPI DUP1 PUSH1 0x1F LT PUSH2 0x1922 JUMPI PUSH2 0x100 DUP1 DUP4 SLOAD DIV MUL DUP4 MSTORE SWAP2 PUSH1 0x20 ADD SWAP2 PUSH2 0x194D JUMP JUMPDEST DUP3 ADD SWAP2 SWAP1 PUSH1 0x0 MSTORE PUSH1 0x20 PUSH1 0x0 KECCAK256 SWAP1 JUMPDEST DUP2 SLOAD DUP2 MSTORE SWAP1 PUSH1 0x1 ADD SWAP1 PUSH1 0x20 ADD DUP1 DUP4 GT PUSH2 0x1930 JUMPI DUP3 SWAP1 SUB PUSH1 0x1F AND DUP3 ADD SWAP2 JUMPDEST POP POP POP POP POP DUP2 MSTORE POP POP SWAP2 POP POP PUSH2 0x197F JUMP JUMPDEST DUP1 DUP1 PUSH2 0x1969 SWAP1 PUSH2 0x253A JUMP JUMPDEST SWAP2 POP POP PUSH2 0x172A JUMP JUMPDEST POP PUSH2 0x197A PUSH2 0x1B1B JUMP JUMPDEST DUP1 SWAP2 POP POP JUMPDEST SWAP2 SWAP1 POP JUMP JUMPDEST PUSH1 0x0 DUP1 PUSH1 0x0 SWAP1 POP PUSH1 0x0 JUMPDEST PUSH1 0x0 DUP1 SLOAD SWAP1 POP DUP2 LT ISZERO PUSH2 0x1A35 JUMPI DUP4 PUSH20 0xFFFFFFFFFFFFFFFFFFFFFFFFFFFFFFFFFFFFFFFF AND PUSH1 0x0 DUP3 DUP2 SLOAD DUP2 LT PUSH2 0x19C6 JUMPI PUSH2 0x19C5 PUSH2 0x24DC JUMP JUMPDEST JUMPDEST SWAP1 PUSH1 0x0 MSTORE PUSH1 0x20 PUSH1 0x0 KECCAK256 SWAP1 PUSH1 0x8 MUL ADD PUSH1 0x1 ADD PUSH1 0x0 SWAP1 SLOAD SWAP1 PUSH2 0x100 EXP SWAP1 DIV PUSH20 0xFFFFFFFFFFFFFFFFFFFFFFFFFFFFFFFFFFFFFFFF AND PUSH20 0xFFFFFFFFFFFFFFFFFFFFFFFFFFFFFFFFFFFFFFFF AND SUB PUSH2 0x1A22 JUMPI DUP2 DUP1 PUSH2 0x1A1E SWAP1 PUSH2 0x253A JUMP JUMPDEST SWAP3 POP POP JUMPDEST DUP1 DUP1 PUSH2 0x1A2D SWAP1 PUSH2 0x253A JUMP JUMPDEST SWAP2 POP POP PUSH2 0x198E JUMP JUMPDEST POP DUP1 SWAP2 POP POP SWAP2 SWAP1 POP JUMP JUMPDEST PUSH1 0x0 DUP2 PUSH1 0x0 ADD SLOAD SWAP1 POP SWAP2 SWAP1 POP JUMP JUMPDEST PUSH1 0x1 DUP2 PUSH1 0x0 ADD PUSH1 0x0 DUP3 DUP3 SLOAD ADD SWAP3 POP POP DUP2 SWAP1 SSTORE POP POP JUMP JUMPDEST PUSH1 0x0 DUP1 PUSH1 0x0 SWAP1 POP JUMPDEST PUSH1 0x1 DUP1 SLOAD SWAP1 POP DUP2 LT ISZERO PUSH2 0x1B0C JUMPI DUP3 PUSH20 0xFFFFFFFFFFFFFFFFFFFFFFFFFFFFFFFFFFFFFFFF AND PUSH1 0x1 DUP3 DUP2 SLOAD DUP2 LT PUSH2 0x1AA3 JUMPI PUSH2 0x1AA2 PUSH2 0x24DC JUMP JUMPDEST JUMPDEST SWAP1 PUSH1 0x0 MSTORE PUSH1 0x20 PUSH1 0x0 KECCAK256 SWAP1 PUSH1 0x3 MUL ADD PUSH1 0x1 ADD PUSH1 0x0 SWAP1 SLOAD SWAP1 PUSH2 0x100 EXP SWAP1 DIV PUSH20 0xFFFFFFFFFFFFFFFFFFFFFFFFFFFFFFFFFFFFFFFF AND PUSH20 0xFFFFFFFFFFFFFFFFFFFFFFFFFFFFFFFFFFFFFFFF AND SUB PUSH2 0x1AF9 JUMPI DUP1 SWAP2 POP POP PUSH2 0x1B16 JUMP JUMPDEST DUP1 DUP1 PUSH2 0x1B04 SWAP1 PUSH2 0x253A JUMP JUMPDEST SWAP2 POP POP PUSH2 0x1A6B JUMP JUMPDEST POP PUSH1 0x1 DUP1 SLOAD SWAP1 POP SWAP1 POP JUMPDEST SWAP2 SWAP1 POP JUMP JUMPDEST PUSH1 0x40 MLOAD DUP1 PUSH1 0x60 ADD PUSH1 0x40 MSTORE DUP1 PUSH1 0x60 DUP2 MSTORE PUSH1 0x20 ADD PUSH1 0x0 PUSH20 0xFFFFFFFFFFFFFFFFFFFFFFFFFFFFFFFFFFFFFFFF AND DUP2 MSTORE PUSH1 0x20 ADD PUSH1 0x60 DUP2 MSTORE POP SWAP1 JUMP JUMPDEST PUSH1 0x40 MLOAD DUP1 PUSH2 0x100 ADD PUSH1 0x40 MSTORE DUP1 PUSH1 0x0 DUP2 MSTORE PUSH1 0x20 ADD PUSH1 0x0 PUSH20 0xFFFFFFFFFFFFFFFFFFFFFFFFFFFFFFFFFFFFFFFF AND DUP2 MSTORE PUSH1 0x20 ADD PUSH1 0x60 DUP2 MSTORE PUSH1 0x20 ADD PUSH1 0x60 DUP2 MSTORE PUSH1 0x20 ADD PUSH1 0x0 DUP2 MSTORE PUSH1 0x20 ADD PUSH1 0x60 DUP2 MSTORE PUSH1 0x20 ADD PUSH1 0x0 ISZERO ISZERO DUP2 MSTORE PUSH1 0x20 ADD PUSH1 0x60 DUP2 MSTORE POP SWAP1 JUMP JUMPDEST PUSH1 0x0 DUP2 MLOAD SWAP1 POP SWAP2 SWAP1 POP JUMP JUMPDEST PUSH1 0x0 DUP3 DUP3 MSTORE PUSH1 0x20 DUP3 ADD SWAP1 POP SWAP3 SWAP2 POP POP JUMP JUMPDEST PUSH1 0x0 DUP2 SWAP1 POP PUSH1 0x20 DUP3 ADD SWAP1 POP SWAP2 SWAP1 POP JUMP JUMPDEST PUSH1 0x0 DUP2 SWAP1 POP SWAP2 SWAP1 POP JUMP JUMPDEST PUSH2 0x1BEE DUP2 PUSH2 0x1BDB JUMP JUMPDEST DUP3 MSTORE POP POP JUMP JUMPDEST PUSH1 0x0 PUSH20 0xFFFFFFFFFFFFFFFFFFFFFFFFFFFFFFFFFFFFFFFF DUP3 AND SWAP1 POP SWAP2 SWAP1 POP JUMP JUMPDEST PUSH1 0x0 PUSH2 0x1C1F DUP3 PUSH2 0x1BF4 JUMP JUMPDEST SWAP1 POP SWAP2 SWAP1 POP JUMP JUMPDEST PUSH2 0x1C2F DUP2 PUSH2 0x1C14 JUMP JUMPDEST DUP3 MSTORE POP POP JUMP JUMPDEST PUSH1 0x0 DUP2 MLOAD SWAP1 POP SWAP2 SWAP1 POP JUMP JUMPDEST PUSH1 0x0 DUP3 DUP3 MSTORE PUSH1 0x20 DUP3 ADD SWAP1 POP SWAP3 SWAP2 POP POP JUMP JUMPDEST PUSH1 0x0 JUMPDEST DUP4 DUP2 LT ISZERO PUSH2 0x1C6F JUMPI DUP1 DUP3 ADD MLOAD DUP2 DUP5 ADD MSTORE PUSH1 0x20 DUP2 ADD SWAP1 POP PUSH2 0x1C54 JUMP JUMPDEST PUSH1 0x0 DUP5 DUP5 ADD MSTORE POP POP POP POP JUMP JUMPDEST PUSH1 0x0 PUSH1 0x1F NOT PUSH1 0x1F DUP4 ADD AND SWAP1 POP SWAP2 SWAP1 POP JUMP JUMPDEST PUSH1 0x0 PUSH2 0x1C97 DUP3 PUSH2 0x1C35 JUMP JUMPDEST PUSH2 0x1CA1 DUP2 DUP6 PUSH2 0x1C40 JUMP JUMPDEST SWAP4 POP PUSH2 0x1CB1 DUP2 DUP6 PUSH1 0x20 DUP7 ADD PUSH2 0x1C51 JUMP JUMPDEST PUSH2 0x1CBA DUP2 PUSH2 0x1C7B JUMP JUMPDEST DUP5 ADD SWAP2 POP POP SWAP3 SWAP2 POP POP JUMP JUMPDEST PUSH1 0x0 DUP2 ISZERO ISZERO SWAP1 POP SWAP2 SWAP1 POP JUMP JUMPDEST PUSH2 0x1CDA DUP2 PUSH2 0x1CC5 JUMP JUMPDEST DUP3 MSTORE POP POP JUMP JUMPDEST PUSH1 0x0 PUSH2 0x100 DUP4 ADD PUSH1 0x0 DUP4 ADD MLOAD PUSH2 0x1CF9 PUSH1 0x0 DUP7 ADD DUP3 PUSH2 0x1BE5 JUMP JUMPDEST POP PUSH1 0x20 DUP4 ADD MLOAD PUSH2 0x1D0C PUSH1 0x20 DUP7 ADD DUP3 PUSH2 0x1C26 JUMP JUMPDEST POP PUSH1 0x40 DUP4 ADD MLOAD DUP5 DUP3 SUB PUSH1 0x40 DUP7 ADD MSTORE PUSH2 0x1D24 DUP3 DUP3 PUSH2 0x1C8C JUMP JUMPDEST SWAP2 POP POP PUSH1 0x60 DUP4 ADD MLOAD DUP5 DUP3 SUB PUSH1 0x60 DUP7 ADD MSTORE PUSH2 0x1D3E DUP3 DUP3 PUSH2 0x1C8C JUMP JUMPDEST SWAP2 POP POP PUSH1 0x80 DUP4 ADD MLOAD PUSH2 0x1D53 PUSH1 0x80 DUP7 ADD DUP3 PUSH2 0x1BE5 JUMP JUMPDEST POP PUSH1 0xA0 DUP4 ADD MLOAD DUP5 DUP3 SUB PUSH1 0xA0 DUP7 ADD MSTORE PUSH2 0x1D6B DUP3 DUP3 PUSH2 0x1C8C JUMP JUMPDEST SWAP2 POP POP PUSH1 0xC0 DUP4 ADD MLOAD PUSH2 0x1D80 PUSH1 0xC0 DUP7 ADD DUP3 PUSH2 0x1CD1 JUMP JUMPDEST POP PUSH1 0xE0 DUP4 ADD MLOAD DUP5 DUP3 SUB PUSH1 0xE0 DUP7 ADD MSTORE PUSH2 0x1D98 DUP3 DUP3 PUSH2 0x1C8C JUMP JUMPDEST SWAP2 POP POP DUP1 SWAP2 POP POP SWAP3 SWAP2 POP POP JUMP JUMPDEST PUSH1 0x0 PUSH2 0x1DB1 DUP4 DUP4 PUSH2 0x1CE0 JUMP JUMPDEST SWAP1 POP SWAP3 SWAP2 POP POP JUMP JUMPDEST PUSH1 0x0 PUSH1 0x20 DUP3 ADD SWAP1 POP SWAP2 SWAP1 POP JUMP JUMPDEST PUSH1 0x0 PUSH2 0x1DD1 DUP3 PUSH2 0x1BAF JUMP JUMPDEST PUSH2 0x1DDB DUP2 DUP6 PUSH2 0x1BBA JUMP JUMPDEST SWAP4 POP DUP4 PUSH1 0x20 DUP3 MUL DUP6 ADD PUSH2 0x1DED DUP6 PUSH2 0x1BCB JUMP JUMPDEST DUP1 PUSH1 0x0 JUMPDEST DUP6 DUP2 LT ISZERO PUSH2 0x1E29 JUMPI DUP5 DUP5 SUB DUP10 MSTORE DUP2 MLOAD PUSH2 0x1E0A DUP6 DUP3 PUSH2 0x1DA5 JUMP JUMPDEST SWAP5 POP PUSH2 0x1E15 DUP4 PUSH2 0x1DB9 JUMP JUMPDEST SWAP3 POP PUSH1 0x20 DUP11 ADD SWAP10 POP POP PUSH1 0x1 DUP2 ADD SWAP1 POP PUSH2 0x1DF1 JUMP JUMPDEST POP DUP3 SWAP8 POP DUP8 SWAP6 POP POP POP POP POP POP SWAP3 SWAP2 POP POP JUMP JUMPDEST PUSH1 0x0 PUSH1 0x20 DUP3 ADD SWAP1 POP DUP2 DUP2 SUB PUSH1 0x0 DUP4 ADD MSTORE PUSH2 0x1E55 DUP2 DUP5 PUSH2 0x1DC6 JUMP JUMPDEST SWAP1 POP SWAP3 SWAP2 POP POP JUMP JUMPDEST PUSH1 0x0 PUSH1 0x40 MLOAD SWAP1 POP SWAP1 JUMP JUMPDEST PUSH1 0x0 DUP1 REVERT JUMPDEST PUSH1 0x0 DUP1 REVERT JUMPDEST PUSH1 0x0 DUP1 REVERT JUMPDEST PUSH1 0x0 DUP1 REVERT JUMPDEST PUSH32 0x4E487B7100000000000000000000000000000000000000000000000000000000 PUSH1 0x0 MSTORE PUSH1 0x41 PUSH1 0x4 MSTORE PUSH1 0x24 PUSH1 0x0 REVERT JUMPDEST PUSH2 0x1EB3 DUP3 PUSH2 0x1C7B JUMP JUMPDEST DUP2 ADD DUP2 DUP2 LT PUSH8 0xFFFFFFFFFFFFFFFF DUP3 GT OR ISZERO PUSH2 0x1ED2 JUMPI PUSH2 0x1ED1 PUSH2 0x1E7B JUMP JUMPDEST JUMPDEST DUP1 PUSH1 0x40 MSTORE POP POP POP JUMP JUMPDEST PUSH1 0x0 PUSH2 0x1EE5 PUSH2 0x1E5D JUMP JUMPDEST SWAP1 POP PUSH2 0x1EF1 DUP3 DUP3 PUSH2 0x1EAA JUMP JUMPDEST SWAP2 SWAP1 POP JUMP JUMPDEST PUSH1 0x0 PUSH8 0xFFFFFFFFFFFFFFFF DUP3 GT ISZERO PUSH2 0x1F11 JUMPI PUSH2 0x1F10 PUSH2 0x1E7B JUMP JUMPDEST JUMPDEST PUSH2 0x1F1A DUP3 PUSH2 0x1C7B JUMP JUMPDEST SWAP1 POP PUSH1 0x20 DUP2 ADD SWAP1 POP SWAP2 SWAP1 POP JUMP JUMPDEST DUP3 DUP2 DUP4 CALLDATACOPY PUSH1 0x0 DUP4 DUP4 ADD MSTORE POP POP POP JUMP JUMPDEST PUSH1 0x0 PUSH2 0x1F49 PUSH2 0x1F44 DUP5 PUSH2 0x1EF6 JUMP JUMPDEST PUSH2 0x1EDB JUMP JUMPDEST SWAP1 POP DUP3 DUP2 MSTORE PUSH1 0x20 DUP2 ADD DUP5 DUP5 DUP5 ADD GT ISZERO PUSH2 0x1F65 JUMPI PUSH2 0x1F64 PUSH2 0x1E76 JUMP JUMPDEST JUMPDEST PUSH2 0x1F70 DUP5 DUP3 DUP6 PUSH2 0x1F27 JUMP JUMPDEST POP SWAP4 SWAP3 POP POP POP JUMP JUMPDEST PUSH1 0x0 DUP3 PUSH1 0x1F DUP4 ADD SLT PUSH2 0x1F8D JUMPI PUSH2 0x1F8C PUSH2 0x1E71 JUMP JUMPDEST JUMPDEST DUP2 CALLDATALOAD PUSH2 0x1F9D DUP5 DUP3 PUSH1 0x20 DUP7 ADD PUSH2 0x1F36 JUMP JUMPDEST SWAP2 POP POP SWAP3 SWAP2 POP POP JUMP JUMPDEST PUSH1 0x0 DUP1 PUSH1 0x40 DUP4 DUP6 SUB SLT ISZERO PUSH2 0x1FBD JUMPI PUSH2 0x1FBC PUSH2 0x1E67 JUMP JUMPDEST JUMPDEST PUSH1 0x0 DUP4 ADD CALLDATALOAD PUSH8 0xFFFFFFFFFFFFFFFF DUP2 GT ISZERO PUSH2 0x1FDB JUMPI PUSH2 0x1FDA PUSH2 0x1E6C JUMP JUMPDEST JUMPDEST PUSH2 0x1FE7 DUP6 DUP3 DUP7 ADD PUSH2 0x1F78 JUMP JUMPDEST SWAP3 POP POP PUSH1 0x20 DUP4 ADD CALLDATALOAD PUSH8 0xFFFFFFFFFFFFFFFF DUP2 GT ISZERO PUSH2 0x2008 JUMPI PUSH2 0x2007 PUSH2 0x1E6C JUMP JUMPDEST JUMPDEST PUSH2 0x2014 DUP6 DUP3 DUP7 ADD PUSH2 0x1F78 JUMP JUMPDEST SWAP2 POP POP SWAP3 POP SWAP3 SWAP1 POP JUMP JUMPDEST PUSH2 0x2027 DUP2 PUSH2 0x1CC5 JUMP JUMPDEST DUP3 MSTORE POP POP JUMP JUMPDEST PUSH1 0x0 PUSH1 0x20 DUP3 ADD SWAP1 POP PUSH2 0x2042 PUSH1 0x0 DUP4 ADD DUP5 PUSH2 0x201E JUMP JUMPDEST SWAP3 SWAP2 POP POP JUMP JUMPDEST PUSH1 0x0 PUSH1 0x60 DUP4 ADD PUSH1 0x0 DUP4 ADD MLOAD DUP5 DUP3 SUB PUSH1 0x0 DUP7 ADD MSTORE PUSH2 0x2065 DUP3 DUP3 PUSH2 0x1C8C JUMP JUMPDEST SWAP2 POP POP PUSH1 0x20 DUP4 ADD MLOAD PUSH2 0x207A PUSH1 0x20 DUP7 ADD DUP3 PUSH2 0x1C26 JUMP JUMPDEST POP PUSH1 0x40 DUP4 ADD MLOAD DUP5 DUP3 SUB PUSH1 0x40 DUP7 ADD MSTORE PUSH2 0x2092 DUP3 DUP3 PUSH2 0x1C8C JUMP JUMPDEST SWAP2 POP POP DUP1 SWAP2 POP POP SWAP3 SWAP2 POP POP JUMP JUMPDEST PUSH1 0x0 PUSH1 0x20 DUP3 ADD SWAP1 POP DUP2 DUP2 SUB PUSH1 0x0 DUP4 ADD MSTORE PUSH2 0x20B9 DUP2 DUP5 PUSH2 0x2048 JUMP JUMPDEST SWAP1 POP SWAP3 SWAP2 POP POP JUMP JUMPDEST PUSH2 0x20CA DUP2 PUSH2 0x1BDB JUMP JUMPDEST DUP2 EQ PUSH2 0x20D5 JUMPI PUSH1 0x0 DUP1 REVERT JUMPDEST POP JUMP JUMPDEST PUSH1 0x0 DUP2 CALLDATALOAD SWAP1 POP PUSH2 0x20E7 DUP2 PUSH2 0x20C1 JUMP JUMPDEST SWAP3 SWAP2 POP POP JUMP JUMPDEST PUSH1 0x0 DUP1 PUSH1 0x0 DUP1 PUSH1 0x0 PUSH1 0xA0 DUP7 DUP9 SUB SLT ISZERO PUSH2 0x2109 JUMPI PUSH2 0x2108 PUSH2 0x1E67 JUMP JUMPDEST JUMPDEST PUSH1 0x0 DUP7 ADD CALLDATALOAD PUSH8 0xFFFFFFFFFFFFFFFF DUP2 GT ISZERO PUSH2 0x2127 JUMPI PUSH2 0x2126 PUSH2 0x1E6C JUMP JUMPDEST JUMPDEST PUSH2 0x2133 DUP9 DUP3 DUP10 ADD PUSH2 0x1F78 JUMP JUMPDEST SWAP6 POP POP PUSH1 0x20 DUP7 ADD CALLDATALOAD PUSH8 0xFFFFFFFFFFFFFFFF DUP2 GT ISZERO PUSH2 0x2154 JUMPI PUSH2 0x2153 PUSH2 0x1E6C JUMP JUMPDEST JUMPDEST PUSH2 0x2160 DUP9 DUP3 DUP10 ADD PUSH2 0x1F78 JUMP JUMPDEST SWAP5 POP POP PUSH1 0x40 PUSH2 0x2171 DUP9 DUP3 DUP10 ADD PUSH2 0x20D8 JUMP JUMPDEST SWAP4 POP POP PUSH1 0x60 DUP7 ADD CALLDATALOAD PUSH8 0xFFFFFFFFFFFFFFFF DUP2 GT ISZERO PUSH2 0x2192 JUMPI PUSH2 0x2191 PUSH2 0x1E6C JUMP JUMPDEST JUMPDEST PUSH2 0x219E DUP9 DUP3 DUP10 ADD PUSH2 0x1F78 JUMP JUMPDEST SWAP3 POP POP PUSH1 0x80 DUP7 ADD CALLDATALOAD PUSH8 0xFFFFFFFFFFFFFFFF DUP2 GT ISZERO PUSH2 0x21BF JUMPI PUSH2 0x21BE PUSH2 0x1E6C JUMP JUMPDEST JUMPDEST PUSH2 0x21CB DUP9 DUP3 DUP10 ADD PUSH2 0x1F78 JUMP JUMPDEST SWAP2 POP POP SWAP3 SWAP6 POP SWAP3 SWAP6 SWAP1 SWAP4 POP JUMP JUMPDEST PUSH1 0x0 PUSH1 0x20 DUP3 DUP5 SUB SLT ISZERO PUSH2 0x21EE JUMPI PUSH2 0x21ED PUSH2 0x1E67 JUMP JUMPDEST JUMPDEST PUSH1 0x0 PUSH2 0x21FC DUP5 DUP3 DUP6 ADD PUSH2 0x20D8 JUMP JUMPDEST SWAP2 POP POP SWAP3 SWAP2 POP POP JUMP JUMPDEST PUSH2 0x220E DUP2 PUSH2 0x1BDB JUMP JUMPDEST DUP3 MSTORE POP POP JUMP JUMPDEST PUSH2 0x221D DUP2 PUSH2 0x1C14 JUMP JUMPDEST DUP3 MSTORE POP POP JUMP JUMPDEST PUSH1 0x0 DUP3 DUP3 MSTORE PUSH1 0x20 DUP3 ADD SWAP1 POP SWAP3 SWAP2 POP POP JUMP JUMPDEST PUSH1 0x0 PUSH2 0x223F DUP3 PUSH2 0x1C35 JUMP JUMPDEST PUSH2 0x2249 DUP2 DUP6 PUSH2 0x2223 JUMP JUMPDEST SWAP4 POP PUSH2 0x2259 DUP2 DUP6 PUSH1 0x20 DUP7 ADD PUSH2 0x1C51 JUMP JUMPDEST PUSH2 0x2262 DUP2 PUSH2 0x1C7B JUMP JUMPDEST DUP5 ADD SWAP2 POP POP SWAP3 SWAP2 POP POP JUMP JUMPDEST PUSH1 0x0 PUSH2 0x100 DUP3 ADD SWAP1 POP PUSH2 0x2283 PUSH1 0x0 DUP4 ADD DUP12 PUSH2 0x2205 JUMP JUMPDEST PUSH2 0x2290 PUSH1 0x20 DUP4 ADD DUP11 PUSH2 0x2214 JUMP JUMPDEST DUP2 DUP2 SUB PUSH1 0x40 DUP4 ADD MSTORE PUSH2 0x22A2 DUP2 DUP10 PUSH2 0x2234 JUMP JUMPDEST SWAP1 POP DUP2 DUP2 SUB PUSH1 0x60 DUP4 ADD MSTORE PUSH2 0x22B6 DUP2 DUP9 PUSH2 0x2234 JUMP JUMPDEST SWAP1 POP PUSH2 0x22C5 PUSH1 0x80 DUP4 ADD DUP8 PUSH2 0x2205 JUMP JUMPDEST DUP2 DUP2 SUB PUSH1 0xA0 DUP4 ADD MSTORE PUSH2 0x22D7 DUP2 DUP7 PUSH2 0x2234 JUMP JUMPDEST SWAP1 POP PUSH2 0x22E6 PUSH1 0xC0 DUP4 ADD DUP6 PUSH2 0x201E JUMP JUMPDEST DUP2 DUP2 SUB PUSH1 0xE0 DUP4 ADD MSTORE PUSH2 0x22F8 DUP2 DUP5 PUSH2 0x2234 JUMP JUMPDEST SWAP1 POP SWAP10 SWAP9 POP POP POP POP POP POP POP POP POP JUMP JUMPDEST PUSH1 0x0 PUSH1 0x60 DUP3 ADD SWAP1 POP DUP2 DUP2 SUB PUSH1 0x0 DUP4 ADD MSTORE PUSH2 0x2321 DUP2 DUP7 PUSH2 0x2234 JUMP JUMPDEST SWAP1 POP PUSH2 0x2330 PUSH1 0x20 DUP4 ADD DUP6 PUSH2 0x2214 JUMP JUMPDEST DUP2 DUP2 SUB PUSH1 0x40 DUP4 ADD MSTORE PUSH2 0x2342 DUP2 DUP5 PUSH2 0x2234 JUMP JUMPDEST SWAP1 POP SWAP5 SWAP4 POP POP POP POP JUMP JUMPDEST PUSH1 0x0 PUSH2 0x100 DUP4 ADD PUSH1 0x0 DUP4 ADD MLOAD PUSH2 0x2365 PUSH1 0x0 DUP7 ADD DUP3 PUSH2 0x1BE5 JUMP JUMPDEST POP PUSH1 0x20 DUP4 ADD MLOAD PUSH2 0x2378 PUSH1 0x20 DUP7 ADD DUP3 PUSH2 0x1C26 JUMP JUMPDEST POP PUSH1 0x40 DUP4 ADD MLOAD DUP5 DUP3 SUB PUSH1 0x40 DUP7 ADD MSTORE PUSH2 0x2390 DUP3 DUP3 PUSH2 0x1C8C JUMP JUMPDEST SWAP2 POP POP PUSH1 0x60 DUP4 ADD MLOAD DUP5 DUP3 SUB PUSH1 0x60 DUP7 ADD MSTORE PUSH2 0x23AA DUP3 DUP3 PUSH2 0x1C8C JUMP JUMPDEST SWAP2 POP POP PUSH1 0x80 DUP4 ADD MLOAD PUSH2 0x23BF PUSH1 0x80 DUP7 ADD DUP3 PUSH2 0x1BE5 JUMP JUMPDEST POP PUSH1 0xA0 DUP4 ADD MLOAD DUP5 DUP3 SUB PUSH1 0xA0 DUP7 ADD MSTORE PUSH2 0x23D7 DUP3 DUP3 PUSH2 0x1C8C JUMP JUMPDEST SWAP2 POP POP PUSH1 0xC0 DUP4 ADD MLOAD PUSH2 0x23EC PUSH1 0xC0 DUP7 ADD DUP3 PUSH2 0x1CD1 JUMP JUMPDEST POP PUSH1 0xE0 DUP4 ADD MLOAD DUP5 DUP3 SUB PUSH1 0xE0 DUP7 ADD MSTORE PUSH2 0x2404 DUP3 DUP3 PUSH2 0x1C8C JUMP JUMPDEST SWAP2 POP POP DUP1 SWAP2 POP POP SWAP3 SWAP2 POP POP JUMP JUMPDEST PUSH1 0x0 PUSH1 0x20 DUP3 ADD SWAP1 POP DUP2 DUP2 SUB PUSH1 0x0 DUP4 ADD MSTORE PUSH2 0x242B DUP2 DUP5 PUSH2 0x234C JUMP JUMPDEST SWAP1 POP SWAP3 SWAP2 POP POP JUMP JUMPDEST PUSH1 0x0 PUSH1 0x20 DUP3 DUP5 SUB SLT ISZERO PUSH2 0x2449 JUMPI PUSH2 0x2448 PUSH2 0x1E67 JUMP JUMPDEST JUMPDEST PUSH1 0x0 DUP3 ADD CALLDATALOAD PUSH8 0xFFFFFFFFFFFFFFFF DUP2 GT ISZERO PUSH2 0x2467 JUMPI PUSH2 0x2466 PUSH2 0x1E6C JUMP JUMPDEST JUMPDEST PUSH2 0x2473 DUP5 DUP3 DUP6 ADD PUSH2 0x1F78 JUMP JUMPDEST SWAP2 POP POP SWAP3 SWAP2 POP POP JUMP JUMPDEST PUSH32 0x4E487B7100000000000000000000000000000000000000000000000000000000 PUSH1 0x0 MSTORE PUSH1 0x22 PUSH1 0x4 MSTORE PUSH1 0x24 PUSH1 0x0 REVERT JUMPDEST PUSH1 0x0 PUSH1 0x2 DUP3 DIV SWAP1 POP PUSH1 0x1 DUP3 AND DUP1 PUSH2 0x24C3 JUMPI PUSH1 0x7F DUP3 AND SWAP2 POP JUMPDEST PUSH1 0x20 DUP3 LT DUP2 SUB PUSH2 0x24D6 JUMPI PUSH2 0x24D5 PUSH2 0x247C JUMP JUMPDEST JUMPDEST POP SWAP2 SWAP1 POP JUMP JUMPDEST PUSH32 0x4E487B7100000000000000000000000000000000000000000000000000000000 PUSH1 0x0 MSTORE PUSH1 0x32 PUSH1 0x4 MSTORE PUSH1 0x24 PUSH1 0x0 REVERT JUMPDEST PUSH32 0x4E487B7100000000000000000000000000000000000000000000000000000000 PUSH1 0x0 MSTORE PUSH1 0x11 PUSH1 0x4 MSTORE PUSH1 0x24 PUSH1 0x0 REVERT JUMPDEST PUSH1 0x0 PUSH2 0x2545 DUP3 PUSH2 0x1BDB JUMP JUMPDEST SWAP2 POP PUSH32 0xFFFFFFFFFFFFFFFFFFFFFFFFFFFFFFFFFFFFFFFFFFFFFFFFFFFFFFFFFFFFFFFF DUP3 SUB PUSH2 0x2577 JUMPI PUSH2 0x2576 PUSH2 0x250B JUMP JUMPDEST JUMPDEST PUSH1 0x1 DUP3 ADD SWAP1 POP SWAP2 SWAP1 POP JUMP JUMPDEST PUSH1 0x0 DUP2 SWAP1 POP DUP2 PUSH1 0x0 MSTORE PUSH1 0x20 PUSH1 0x0 KECCAK256 SWAP1 POP SWAP2 SWAP1 POP JUMP JUMPDEST PUSH1 0x0 PUSH1 0x20 PUSH1 0x1F DUP4 ADD DIV SWAP1 POP SWAP2 SWAP1 POP JUMP JUMPDEST PUSH1 0x0 DUP3 DUP3 SHL SWAP1 POP SWAP3 SWAP2 POP POP JUMP JUMPDEST PUSH1 0x0 PUSH1 0x8 DUP4 MUL PUSH2 0x25E4 PUSH32 0xFFFFFFFFFFFFFFFFFFFFFFFFFFFFFFFFFFFFFFFFFFFFFFFFFFFFFFFFFFFFFFFF DUP3 PUSH2 0x25A7 JUMP JUMPDEST PUSH2 0x25EE DUP7 DUP4 PUSH2 0x25A7 JUMP JUMPDEST SWAP6 POP DUP1 NOT DUP5 AND SWAP4 POP DUP1 DUP7 AND DUP5 OR SWAP3 POP POP POP SWAP4 SWAP3 POP POP POP JUMP JUMPDEST PUSH1 0x0 DUP2 SWAP1 POP SWAP2 SWAP1 POP JUMP JUMPDEST PUSH1 0x0 PUSH2 0x262B PUSH2 0x2626 PUSH2 0x2621 DUP5 PUSH2 0x1BDB JUMP JUMPDEST PUSH2 0x2606 JUMP JUMPDEST PUSH2 0x1BDB JUMP JUMPDEST SWAP1 POP SWAP2 SWAP1 POP JUMP JUMPDEST PUSH1 0x0 DUP2 SWAP1 POP SWAP2 SWAP1 POP JUMP JUMPDEST PUSH2 0x2645 DUP4 PUSH2 0x2610 JUMP JUMPDEST PUSH2 0x2659 PUSH2 0x2651 DUP3 PUSH2 0x2632 JUMP JUMPDEST DUP5 DUP5 SLOAD PUSH2 0x25B4 JUMP JUMPDEST DUP3 SSTORE POP POP POP POP JUMP JUMPDEST PUSH1 0x0 SWAP1 JUMP JUMPDEST PUSH2 0x266E PUSH2 0x2661 JUMP JUMPDEST PUSH2 0x2679 DUP2 DUP5 DUP5 PUSH2 0x263C JUMP JUMPDEST POP POP POP JUMP JUMPDEST JUMPDEST DUP2 DUP2 LT ISZERO PUSH2 0x269D JUMPI PUSH2 0x2692 PUSH1 0x0 DUP3 PUSH2 0x2666 JUMP JUMPDEST PUSH1 0x1 DUP2 ADD SWAP1 POP PUSH2 0x267F JUMP JUMPDEST POP POP JUMP JUMPDEST PUSH1 0x1F DUP3 GT ISZERO PUSH2 0x26E2 JUMPI PUSH2 0x26B3 DUP2 PUSH2 0x2582 JUMP JUMPDEST PUSH2 0x26BC DUP5 PUSH2 0x2597 JUMP JUMPDEST DUP2 ADD PUSH1 0x20 DUP6 LT ISZERO PUSH2 0x26CB JUMPI DUP2 SWAP1 POP JUMPDEST PUSH2 0x26DF PUSH2 0x26D7 DUP6 PUSH2 0x2597 JUMP JUMPDEST DUP4 ADD DUP3 PUSH2 0x267E JUMP JUMPDEST POP POP JUMPDEST POP POP POP JUMP JUMPDEST PUSH1 0x0 DUP3 DUP3 SHR SWAP1 POP SWAP3 SWAP2 POP POP JUMP JUMPDEST PUSH1 0x0 PUSH2 0x2705 PUSH1 0x0 NOT DUP5 PUSH1 0x8 MUL PUSH2 0x26E7 JUMP JUMPDEST NOT DUP1 DUP4 AND SWAP2 POP POP SWAP3 SWAP2 POP POP JUMP JUMPDEST PUSH1 0x0 PUSH2 0x271E DUP4 DUP4 PUSH2 0x26F4 JUMP JUMPDEST SWAP2 POP DUP3 PUSH1 0x2 MUL DUP3 OR SWAP1 POP SWAP3 SWAP2 POP POP JUMP JUMPDEST PUSH2 0x2737 DUP3 PUSH2 0x1C35 JUMP JUMPDEST PUSH8 0xFFFFFFFFFFFFFFFF DUP2 GT ISZERO PUSH2 0x2750 JUMPI PUSH2 0x274F PUSH2 0x1E7B JUMP JUMPDEST JUMPDEST PUSH2 0x275A DUP3 SLOAD PUSH2 0x24AB JUMP JUMPDEST PUSH2 0x2765 DUP3 DUP3 DUP6 PUSH2 0x26A1 JUMP JUMPDEST PUSH1 0x0 PUSH1 0x20 SWAP1 POP PUSH1 0x1F DUP4 GT PUSH1 0x1 DUP2 EQ PUSH2 0x2798 JUMPI PUSH1 0x0 DUP5 ISZERO PUSH2 0x2786 JUMPI DUP3 DUP8 ADD MLOAD SWAP1 POP JUMPDEST PUSH2 0x2790 DUP6 DUP3 PUSH2 0x2712 JUMP JUMPDEST DUP7 SSTORE POP PUSH2 0x27F8 JUMP JUMPDEST PUSH1 0x1F NOT DUP5 AND PUSH2 0x27A6 DUP7 PUSH2 0x2582 JUMP JUMPDEST PUSH1 0x0 JUMPDEST DUP3 DUP2 LT ISZERO PUSH2 0x27CE JUMPI DUP5 DUP10 ADD MLOAD DUP3 SSTORE PUSH1 0x1 DUP3 ADD SWAP2 POP PUSH1 0x20 DUP6 ADD SWAP5 POP PUSH1 0x20 DUP2 ADD SWAP1 POP PUSH2 0x27A9 JUMP JUMPDEST DUP7 DUP4 LT ISZERO PUSH2 0x27EB JUMPI DUP5 DUP10 ADD MLOAD PUSH2 0x27E7 PUSH1 0x1F DUP10 AND DUP3 PUSH2 0x26F4 JUMP JUMPDEST DUP4 SSTORE POP JUMPDEST PUSH1 0x1 PUSH1 0x2 DUP9 MUL ADD DUP9 SSTORE POP POP POP JUMPDEST POP POP POP POP POP POP JUMP JUMPDEST PUSH1 0x0 DUP2 SWAP1 POP SWAP3 SWAP2 POP POP JUMP JUMPDEST PUSH1 0x0 PUSH2 0x2816 DUP3 PUSH2 0x1C35 JUMP JUMPDEST PUSH2 0x2820 DUP2 DUP6 PUSH2 0x2800 JUMP JUMPDEST SWAP4 POP PUSH2 0x2830 DUP2 DUP6 PUSH1 0x20 DUP7 ADD PUSH2 0x1C51 JUMP JUMPDEST DUP1 DUP5 ADD SWAP2 POP POP SWAP3 SWAP2 POP POP JUMP JUMPDEST PUSH1 0x0 PUSH2 0x2848 DUP3 DUP5 PUSH2 0x280B JUMP JUMPDEST SWAP2 POP DUP2 SWAP1 POP SWAP3 SWAP2 POP POP JUMP INVALID LOG2 PUSH5 0x6970667358 0x22 SLT KECCAK256 DUP13 0xEB DUP7 PUSH14 0xAE372B7D69F933C9D9BC1E07F801 0x5C PUSH25 0xBAF039516ACEB7A7434E15CB64736F6C634300081200330000 "
				},
				"gasEstimates": {
					"creation": {
						"codeDepositCost": "2075400",
						"executionCost": "infinite",
						"totalCost": "infinite"
					},
					"external": {
						"Contents(uint256)": "infinite",
						"Profiles(uint256)": "infinite",
						"compareStrings(string,string)": "infinite",
						"createNewContent(string,string,uint256,string,string)": "infinite",
						"createNewProfile(string,string)": "infinite",
						"getAllCourses()": "infinite",
						"getCourseDetail(uint256)": "infinite",
						"getMyCourses()": "infinite",
						"getMyProfile()": "infinite",
						"setProfileHandle(string)": "infinite",
						"setProfileImage(string)": "infinite"
					},
					"internal": {
						"getProficeIndexByAddress(address)": "infinite",
						"getProfileByAddress(address)": "infinite",
						"getUserCoursesLen(address)": "infinite"
					}
				},
				"methodIdentifiers": {
					"Contents(uint256)": "3b342e8e",
					"Profiles(uint256)": "4cea965e",
					"compareStrings(string,string)": "bed34bba",
					"createNewContent(string,string,uint256,string,string)": "38880d55",
					"createNewProfile(string,string)": "1fc25cdd",
					"getAllCourses()": "04e48bd1",
					"getCourseDetail(uint256)": "b79367c4",
					"getMyCourses()": "2cc59076",
					"getMyProfile()": "21527e50",
					"setProfileHandle(string)": "e44c76ea",
					"setProfileImage(string)": "f70d205c"
				}
			},
			"storageLayout": {
				"storage": [
					{
						"astId": 108,
						"contract": "contracts/CreatorsContent.sol:CreatorsContent",
						"label": "Contents",
						"offset": 0,
						"slot": "0",
						"type": "t_array(t_struct(Content)97_storage)dyn_storage"
					},
					{
						"astId": 112,
						"contract": "contracts/CreatorsContent.sol:CreatorsContent",
						"label": "Profiles",
						"offset": 0,
						"slot": "1",
						"type": "t_array(t_struct(Profile)104_storage)dyn_storage"
					},
					{
						"astId": 115,
						"contract": "contracts/CreatorsContent.sol:CreatorsContent",
						"label": "idCourses",
						"offset": 0,
						"slot": "2",
						"type": "t_struct(Counter)5_storage"
					}
				],
				"types": {
					"t_address": {
						"encoding": "inplace",
						"label": "address",
						"numberOfBytes": "20"
					},
					"t_array(t_struct(Content)97_storage)dyn_storage": {
						"base": "t_struct(Content)97_storage",
						"encoding": "dynamic_array",
						"label": "struct CreatorsContent.Content[]",
						"numberOfBytes": "32"
					},
					"t_array(t_struct(Profile)104_storage)dyn_storage": {
						"base": "t_struct(Profile)104_storage",
						"encoding": "dynamic_array",
						"label": "struct CreatorsContent.Profile[]",
						"numberOfBytes": "32"
					},
					"t_bool": {
						"encoding": "inplace",
						"label": "bool",
						"numberOfBytes": "1"
					},
					"t_string_storage": {
						"encoding": "bytes",
						"label": "string",
						"numberOfBytes": "32"
					},
					"t_struct(Content)97_storage": {
						"encoding": "inplace",
						"label": "struct CreatorsContent.Content",
						"members": [
							{
								"astId": 82,
								"contract": "contracts/CreatorsContent.sol:CreatorsContent",
								"label": "id",
								"offset": 0,
								"slot": "0",
								"type": "t_uint256"
							},
							{
								"astId": 84,
								"contract": "contracts/CreatorsContent.sol:CreatorsContent",
								"label": "author",
								"offset": 0,
								"slot": "1",
								"type": "t_address"
							},
							{
								"astId": 86,
								"contract": "contracts/CreatorsContent.sol:CreatorsContent",
								"label": "title",
								"offset": 0,
								"slot": "2",
								"type": "t_string_storage"
							},
							{
								"astId": 88,
								"contract": "contracts/CreatorsContent.sol:CreatorsContent",
								"label": "description",
								"offset": 0,
								"slot": "3",
								"type": "t_string_storage"
							},
							{
								"astId": 90,
								"contract": "contracts/CreatorsContent.sol:CreatorsContent",
								"label": "price",
								"offset": 0,
								"slot": "4",
								"type": "t_uint256"
							},
							{
								"astId": 92,
								"contract": "contracts/CreatorsContent.sol:CreatorsContent",
								"label": "video",
								"offset": 0,
								"slot": "5",
								"type": "t_string_storage"
							},
							{
								"astId": 94,
								"contract": "contracts/CreatorsContent.sol:CreatorsContent",
								"label": "deleted",
								"offset": 0,
								"slot": "6",
								"type": "t_bool"
							},
							{
								"astId": 96,
								"contract": "contracts/CreatorsContent.sol:CreatorsContent",
								"label": "mainImage",
								"offset": 0,
								"slot": "7",
								"type": "t_string_storage"
							}
						],
						"numberOfBytes": "256"
					},
					"t_struct(Counter)5_storage": {
						"encoding": "inplace",
						"label": "struct Counters.Counter",
						"members": [
							{
								"astId": 4,
								"contract": "contracts/CreatorsContent.sol:CreatorsContent",
								"label": "_value",
								"offset": 0,
								"slot": "0",
								"type": "t_uint256"
							}
						],
						"numberOfBytes": "32"
					},
					"t_struct(Profile)104_storage": {
						"encoding": "inplace",
						"label": "struct CreatorsContent.Profile",
						"members": [
							{
								"astId": 99,
								"contract": "contracts/CreatorsContent.sol:CreatorsContent",
								"label": "handle",
								"offset": 0,
								"slot": "0",
								"type": "t_string_storage"
							},
							{
								"astId": 101,
								"contract": "contracts/CreatorsContent.sol:CreatorsContent",
								"label": "addr",
								"offset": 0,
								"slot": "1",
								"type": "t_address"
							},
							{
								"astId": 103,
								"contract": "contracts/CreatorsContent.sol:CreatorsContent",
								"label": "profilePic",
								"offset": 0,
								"slot": "2",
								"type": "t_string_storage"
							}
						],
						"numberOfBytes": "96"
					},
					"t_uint256": {
						"encoding": "inplace",
						"label": "uint256",
						"numberOfBytes": "32"
					}
				}
			},
			"userdoc": {
				"kind": "user",
				"methods": {},
				"version": 1
			}
		}
	}
}