{
	"contracts/CreatorsContent.sol": {
		"CreatorsContent": {
			"abi": [
				{
					"inputs": [],
					"stateMutability": "payable",
					"type": "constructor"
				},
				{
					"inputs": [
						{
							"internalType": "uint256",
							"name": "",
							"type": "uint256"
						}
					],
					"name": "ContentBuys",
					"outputs": [
						{
							"internalType": "address",
							"name": "from",
							"type": "address"
						},
						{
							"internalType": "address",
							"name": "to",
							"type": "address"
						},
						{
							"internalType": "uint256",
							"name": "idContent",
							"type": "uint256"
						},
						{
							"internalType": "uint256",
							"name": "ammount",
							"type": "uint256"
						},
						{
							"internalType": "bool",
							"name": "isPayed",
							"type": "bool"
						},
						{
							"internalType": "uint256",
							"name": "id",
							"type": "uint256"
						}
					],
					"stateMutability": "view",
					"type": "function"
				},
				{
					"inputs": [
						{
							"internalType": "uint256",
							"name": "",
							"type": "uint256"
						}
					],
					"name": "Contents",
					"outputs": [
						{
							"internalType": "uint256",
							"name": "id",
							"type": "uint256"
						},
						{
							"internalType": "address",
							"name": "author",
							"type": "address"
						},
						{
							"internalType": "string",
							"name": "title",
							"type": "string"
						},
						{
							"internalType": "string",
							"name": "description",
							"type": "string"
						},
						{
							"internalType": "uint256",
							"name": "price",
							"type": "uint256"
						},
						{
							"internalType": "string",
							"name": "video",
							"type": "string"
						},
						{
							"internalType": "bool",
							"name": "deleted",
							"type": "bool"
						},
						{
							"internalType": "string",
							"name": "mainImage",
							"type": "string"
						}
					],
					"stateMutability": "view",
					"type": "function"
				},
				{
					"inputs": [
						{
							"internalType": "uint256",
							"name": "",
							"type": "uint256"
						}
					],
					"name": "Profiles",
					"outputs": [
						{
							"internalType": "string",
							"name": "handle",
							"type": "string"
						},
						{
							"internalType": "address",
							"name": "addr",
							"type": "address"
						},
						{
							"internalType": "string",
							"name": "profilePic",
							"type": "string"
						}
					],
					"stateMutability": "view",
					"type": "function"
				},
				{
					"inputs": [
						{
							"internalType": "uint256",
							"name": "idCourse",
							"type": "uint256"
						}
					],
					"name": "buyContent",
					"outputs": [],
					"stateMutability": "payable",
					"type": "function"
				},
				{
					"inputs": [
						{
							"internalType": "string",
							"name": "a",
							"type": "string"
						},
						{
							"internalType": "string",
							"name": "b",
							"type": "string"
						}
					],
					"name": "compareStrings",
					"outputs": [
						{
							"internalType": "bool",
							"name": "",
							"type": "bool"
						}
					],
					"stateMutability": "pure",
					"type": "function"
				},
				{
					"inputs": [
						{
							"internalType": "string",
							"name": "title",
							"type": "string"
						},
						{
							"internalType": "string",
							"name": "description",
							"type": "string"
						},
						{
							"internalType": "uint256",
							"name": "price",
							"type": "uint256"
						},
						{
							"internalType": "string",
							"name": "video",
							"type": "string"
						},
						{
							"internalType": "string",
							"name": "mainImage",
							"type": "string"
						}
					],
					"name": "createNewContent",
					"outputs": [],
					"stateMutability": "nonpayable",
					"type": "function"
				},
				{
					"inputs": [
						{
							"internalType": "string",
							"name": "handle",
							"type": "string"
						},
						{
							"internalType": "string",
							"name": "profilePic",
							"type": "string"
						}
					],
					"name": "createNewProfile",
					"outputs": [
						{
							"internalType": "bool",
							"name": "",
							"type": "bool"
						}
					],
					"stateMutability": "nonpayable",
					"type": "function"
				},
				{
					"inputs": [
						{
							"internalType": "address payable",
							"name": "addr",
							"type": "address"
						}
					],
					"name": "getAllBalanceForCreator",
					"outputs": [],
					"stateMutability": "payable",
					"type": "function"
				},
				{
					"inputs": [],
					"name": "getAllBuys",
					"outputs": [
						{
							"components": [
								{
									"internalType": "address",
									"name": "from",
									"type": "address"
								},
								{
									"internalType": "address",
									"name": "to",
									"type": "address"
								},
								{
									"internalType": "uint256",
									"name": "idContent",
									"type": "uint256"
								},
								{
									"internalType": "uint256",
									"name": "ammount",
									"type": "uint256"
								},
								{
									"internalType": "bool",
									"name": "isPayed",
									"type": "bool"
								},
								{
									"internalType": "uint256",
									"name": "id",
									"type": "uint256"
								}
							],
							"internalType": "struct CreatorsContent.ContentBuy[]",
							"name": "",
							"type": "tuple[]"
						}
					],
					"stateMutability": "view",
					"type": "function"
				},
				{
					"inputs": [],
					"name": "getAllCourses",
					"outputs": [
						{
							"components": [
								{
									"internalType": "uint256",
									"name": "id",
									"type": "uint256"
								},
								{
									"internalType": "address",
									"name": "author",
									"type": "address"
								},
								{
									"internalType": "string",
									"name": "title",
									"type": "string"
								},
								{
									"internalType": "string",
									"name": "description",
									"type": "string"
								},
								{
									"internalType": "uint256",
									"name": "price",
									"type": "uint256"
								},
								{
									"internalType": "string",
									"name": "video",
									"type": "string"
								},
								{
									"internalType": "bool",
									"name": "deleted",
									"type": "bool"
								},
								{
									"internalType": "string",
									"name": "mainImage",
									"type": "string"
								}
							],
							"internalType": "struct CreatorsContent.Content[]",
							"name": "",
							"type": "tuple[]"
						}
					],
					"stateMutability": "view",
					"type": "function"
				},
				{
					"inputs": [],
					"name": "getAvailableBalance",
					"outputs": [
						{
							"internalType": "uint256",
							"name": "",
							"type": "uint256"
						}
					],
					"stateMutability": "view",
					"type": "function"
				},
				{
					"inputs": [
						{
							"internalType": "address payable",
							"name": "addr",
							"type": "address"
						},
						{
							"internalType": "uint256",
							"name": "indexBuy",
							"type": "uint256"
						}
					],
					"name": "getBalanceForSingleBuy",
					"outputs": [],
					"stateMutability": "payable",
					"type": "function"
				},
				{
					"inputs": [],
					"name": "getBuysFromAuthor",
					"outputs": [
						{
							"components": [
								{
									"internalType": "address",
									"name": "from",
									"type": "address"
								},
								{
									"internalType": "address",
									"name": "to",
									"type": "address"
								},
								{
									"internalType": "uint256",
									"name": "idContent",
									"type": "uint256"
								},
								{
									"internalType": "uint256",
									"name": "ammount",
									"type": "uint256"
								},
								{
									"internalType": "bool",
									"name": "isPayed",
									"type": "bool"
								},
								{
									"internalType": "uint256",
									"name": "id",
									"type": "uint256"
								}
							],
							"internalType": "struct CreatorsContent.ContentBuy[]",
							"name": "",
							"type": "tuple[]"
						}
					],
					"stateMutability": "view",
					"type": "function"
				},
				{
					"inputs": [],
					"name": "getContractBalance",
					"outputs": [
						{
							"internalType": "uint256",
							"name": "",
							"type": "uint256"
						}
					],
					"stateMutability": "view",
					"type": "function"
				},
				{
					"inputs": [
						{
							"internalType": "uint256",
							"name": "id",
							"type": "uint256"
						}
					],
					"name": "getCourseDetail",
					"outputs": [
						{
							"components": [
								{
									"internalType": "uint256",
									"name": "id",
									"type": "uint256"
								},
								{
									"internalType": "address",
									"name": "author",
									"type": "address"
								},
								{
									"internalType": "string",
									"name": "title",
									"type": "string"
								},
								{
									"internalType": "string",
									"name": "description",
									"type": "string"
								},
								{
									"internalType": "uint256",
									"name": "price",
									"type": "uint256"
								},
								{
									"internalType": "string",
									"name": "video",
									"type": "string"
								},
								{
									"internalType": "bool",
									"name": "deleted",
									"type": "bool"
								},
								{
									"internalType": "string",
									"name": "mainImage",
									"type": "string"
								}
							],
							"internalType": "struct CreatorsContent.Content",
							"name": "",
							"type": "tuple"
						}
					],
					"stateMutability": "view",
					"type": "function"
				},
				{
					"inputs": [],
					"name": "getMyCourses",
					"outputs": [
						{
							"components": [
								{
									"internalType": "uint256",
									"name": "id",
									"type": "uint256"
								},
								{
									"internalType": "address",
									"name": "author",
									"type": "address"
								},
								{
									"internalType": "string",
									"name": "title",
									"type": "string"
								},
								{
									"internalType": "string",
									"name": "description",
									"type": "string"
								},
								{
									"internalType": "uint256",
									"name": "price",
									"type": "uint256"
								},
								{
									"internalType": "string",
									"name": "video",
									"type": "string"
								},
								{
									"internalType": "bool",
									"name": "deleted",
									"type": "bool"
								},
								{
									"internalType": "string",
									"name": "mainImage",
									"type": "string"
								}
							],
							"internalType": "struct CreatorsContent.Content[]",
							"name": "",
							"type": "tuple[]"
						}
					],
					"stateMutability": "view",
					"type": "function"
				},
				{
					"inputs": [],
					"name": "getMyProfile",
					"outputs": [
						{
							"components": [
								{
									"internalType": "string",
									"name": "handle",
									"type": "string"
								},
								{
									"internalType": "address",
									"name": "addr",
									"type": "address"
								},
								{
									"internalType": "string",
									"name": "profilePic",
									"type": "string"
								}
							],
							"internalType": "struct CreatorsContent.Profile",
							"name": "",
							"type": "tuple"
						}
					],
					"stateMutability": "view",
					"type": "function"
				},
				{
					"inputs": [
						{
							"internalType": "string",
							"name": "handle",
							"type": "string"
						}
					],
					"name": "setProfileHandle",
					"outputs": [
						{
							"internalType": "bool",
							"name": "",
							"type": "bool"
						}
					],
					"stateMutability": "nonpayable",
					"type": "function"
				},
				{
					"inputs": [
						{
							"internalType": "string",
							"name": "image",
							"type": "string"
						}
					],
					"name": "setProfileImage",
					"outputs": [],
					"stateMutability": "nonpayable",
					"type": "function"
				}
			],
			"devdoc": {
				"kind": "dev",
				"methods": {},
				"version": 1
			},
			"evm": {
				"assembly": "    /* \"contracts/CreatorsContent.sol\":124:7154  contract CreatorsContent {... */\n  mstore(0x40, 0x80)\n    /* \"contracts/CreatorsContent.sol\":916:933  idCourses.reset() */\n  tag_3\n    /* \"contracts/CreatorsContent.sol\":916:925  idCourses */\n  0x03\n    /* \"contracts/CreatorsContent.sol\":916:931  idCourses.reset */\n  or(tag_0_119, shl(0x20, tag_4))\n    /* \"contracts/CreatorsContent.sol\":916:933  idCourses.reset() */\n  0x20\n  shr\n  jump\t// in\ntag_3:\n    /* \"contracts/CreatorsContent.sol\":943:957  idBuys.reset() */\n  tag_5\n    /* \"contracts/CreatorsContent.sol\":943:949  idBuys */\n  0x04\n    /* \"contracts/CreatorsContent.sol\":943:955  idBuys.reset */\n  or(tag_0_119, shl(0x20, tag_4))\n    /* \"contracts/CreatorsContent.sol\":943:957  idBuys.reset() */\n  0x20\n  shr\n  jump\t// in\ntag_5:\n    /* \"contracts/CreatorsContent.sol\":124:7154  contract CreatorsContent {... */\n  jump(tag_6)\n    /* \"@openzeppelin/contracts/utils/Counters.sol\":1309:1393  function reset(Counter storage counter) internal {... */\ntag_4:\n    /* \"@openzeppelin/contracts/utils/Counters.sol\":1385:1386  0 */\n  0x00\n    /* \"@openzeppelin/contracts/utils/Counters.sol\":1368:1375  counter */\n  dup2\n    /* \"@openzeppelin/contracts/utils/Counters.sol\":1368:1382  counter._value */\n  0x00\n  add\n    /* \"@openzeppelin/contracts/utils/Counters.sol\":1368:1386  counter._value = 0 */\n  dup2\n  swap1\n  sstore\n  pop\n    /* \"@openzeppelin/contracts/utils/Counters.sol\":1309:1393  function reset(Counter storage counter) internal {... */\n  pop\n  jump\t// out\n    /* \"contracts/CreatorsContent.sol\":124:7154  contract CreatorsContent {... */\ntag_6:\n  dataSize(sub_0)\n  dup1\n  dataOffset(sub_0)\n  0x00\n  codecopy\n  0x00\n  return\nstop\n\nsub_0: assembly {\n        /* \"contracts/CreatorsContent.sol\":124:7154  contract CreatorsContent {... */\n      mstore(0x40, 0x80)\n      jumpi(tag_1, lt(calldatasize, 0x04))\n      shr(0xe0, calldataload(0x00))\n      dup1\n      0x7ec1061a\n      gt\n      tag_21\n      jumpi\n      dup1\n      0xcf6361de\n      gt\n      tag_22\n      jumpi\n      dup1\n      0xcf6361de\n      eq\n      tag_16\n      jumpi\n      dup1\n      0xd6cfa440\n      eq\n      tag_17\n      jumpi\n      dup1\n      0xe44c76ea\n      eq\n      tag_18\n      jumpi\n      dup1\n      0xf70d205c\n      eq\n      tag_19\n      jumpi\n      dup1\n      0xfb5d7a1f\n      eq\n      tag_20\n      jumpi\n      jump(tag_1)\n    tag_22:\n      dup1\n      0x7ec1061a\n      eq\n      tag_11\n      jumpi\n      dup1\n      0x809dab6a\n      eq\n      tag_12\n      jumpi\n      dup1\n      0x8e4a6680\n      eq\n      tag_13\n      jumpi\n      dup1\n      0xb79367c4\n      eq\n      tag_14\n      jumpi\n      dup1\n      0xbed34bba\n      eq\n      tag_15\n      jumpi\n      jump(tag_1)\n    tag_21:\n      dup1\n      0x2cc59076\n      gt\n      tag_23\n      jumpi\n      dup1\n      0x2cc59076\n      eq\n      tag_6\n      jumpi\n      dup1\n      0x38880d55\n      eq\n      tag_7\n      jumpi\n      dup1\n      0x3b342e8e\n      eq\n      tag_8\n      jumpi\n      dup1\n      0x4cea965e\n      eq\n      tag_9\n      jumpi\n      dup1\n      0x6f9fb98a\n      eq\n      tag_10\n      jumpi\n      jump(tag_1)\n    tag_23:\n      dup1\n      0x04e48bd1\n      eq\n      tag_2\n      jumpi\n      dup1\n      0x0e61a0ee\n      eq\n      tag_3\n      jumpi\n      dup1\n      0x1fc25cdd\n      eq\n      tag_4\n      jumpi\n      dup1\n      0x21527e50\n      eq\n      tag_5\n      jumpi\n    tag_1:\n      0x00\n      dup1\n      revert\n        /* \"contracts/CreatorsContent.sol\":2183:2279  function getAllCourses() public view returns (Content[] memory) {... */\n    tag_2:\n      callvalue\n      dup1\n      iszero\n      tag_24\n      jumpi\n      0x00\n      dup1\n      revert\n    tag_24:\n      pop\n      tag_25\n      tag_26\n      jump\t// in\n    tag_25:\n      mload(0x40)\n      tag_27\n      swap2\n      swap1\n      tag_28\n      jump\t// in\n    tag_27:\n      mload(0x40)\n      dup1\n      swap2\n      sub\n      swap1\n      return\n        /* \"contracts/CreatorsContent.sol\":6430:6740  function getAllBalanceForCreator(address payable addr) public payable {... */\n    tag_3:\n      tag_29\n      0x04\n      dup1\n      calldatasize\n      sub\n      dup2\n      add\n      swap1\n      tag_30\n      swap2\n      swap1\n      tag_31\n      jump\t// in\n    tag_30:\n      tag_32\n      jump\t// in\n    tag_29:\n      stop\n        /* \"contracts/CreatorsContent.sol\":3448:3925  function createNewProfile(string memory handle, string memory profilePic) public returns (bool) {... */\n    tag_4:\n      callvalue\n      dup1\n      iszero\n      tag_33\n      jumpi\n      0x00\n      dup1\n      revert\n    tag_33:\n      pop\n      tag_34\n      0x04\n      dup1\n      calldatasize\n      sub\n      dup2\n      add\n      swap1\n      tag_35\n      swap2\n      swap1\n      tag_36\n      jump\t// in\n    tag_35:\n      tag_37\n      jump\t// in\n    tag_34:\n      mload(0x40)\n      tag_38\n      swap2\n      swap1\n      tag_39\n      jump\t// in\n    tag_38:\n      mload(0x40)\n      dup1\n      swap2\n      sub\n      swap1\n      return\n        /* \"contracts/CreatorsContent.sol\":4499:4668  function getMyProfile() public view returns (Profile memory) {... */\n    tag_5:\n      callvalue\n      dup1\n      iszero\n      tag_40\n      jumpi\n      0x00\n      dup1\n      revert\n    tag_40:\n      pop\n      tag_41\n      tag_42\n      jump\t// in\n    tag_41:\n      mload(0x40)\n      tag_43\n      swap2\n      swap1\n      tag_44\n      jump\t// in\n    tag_43:\n      mload(0x40)\n      dup1\n      swap2\n      sub\n      swap1\n      return\n        /* \"contracts/CreatorsContent.sol\":1548:2172  function getMyCourses() public view returns (Content[] memory) {... */\n    tag_6:\n      callvalue\n      dup1\n      iszero\n      tag_45\n      jumpi\n      0x00\n      dup1\n      revert\n    tag_45:\n      pop\n      tag_46\n      tag_47\n      jump\t// in\n    tag_46:\n      mload(0x40)\n      tag_48\n      swap2\n      swap1\n      tag_28\n      jump\t// in\n    tag_48:\n      mload(0x40)\n      dup1\n      swap2\n      sub\n      swap1\n      return\n        /* \"contracts/CreatorsContent.sol\":2285:2631  function createNewContent(... */\n    tag_7:\n      callvalue\n      dup1\n      iszero\n      tag_49\n      jumpi\n      0x00\n      dup1\n      revert\n    tag_49:\n      pop\n      tag_50\n      0x04\n      dup1\n      calldatasize\n      sub\n      dup2\n      add\n      swap1\n      tag_51\n      swap2\n      swap1\n      tag_52\n      jump\t// in\n    tag_51:\n      tag_53\n      jump\t// in\n    tag_50:\n      stop\n        /* \"contracts/CreatorsContent.sol\":722:747  Content[] public Contents */\n    tag_8:\n      callvalue\n      dup1\n      iszero\n      tag_54\n      jumpi\n      0x00\n      dup1\n      revert\n    tag_54:\n      pop\n      tag_55\n      0x04\n      dup1\n      calldatasize\n      sub\n      dup2\n      add\n      swap1\n      tag_56\n      swap2\n      swap1\n      tag_57\n      jump\t// in\n    tag_56:\n      tag_58\n      jump\t// in\n    tag_55:\n      mload(0x40)\n      tag_59\n      swap9\n      swap8\n      swap7\n      swap6\n      swap5\n      swap4\n      swap3\n      swap2\n      swap1\n      tag_60\n      jump\t// in\n    tag_59:\n      mload(0x40)\n      dup1\n      swap2\n      sub\n      swap1\n      return\n        /* \"contracts/CreatorsContent.sol\":753:778  Profile[] public Profiles */\n    tag_9:\n      callvalue\n      dup1\n      iszero\n      tag_61\n      jumpi\n      0x00\n      dup1\n      revert\n    tag_61:\n      pop\n      tag_62\n      0x04\n      dup1\n      calldatasize\n      sub\n      dup2\n      add\n      swap1\n      tag_63\n      swap2\n      swap1\n      tag_57\n      jump\t// in\n    tag_63:\n      tag_64\n      jump\t// in\n    tag_62:\n      mload(0x40)\n      tag_65\n      swap4\n      swap3\n      swap2\n      swap1\n      tag_66\n      jump\t// in\n    tag_65:\n      mload(0x40)\n      dup1\n      swap2\n      sub\n      swap1\n      return\n        /* \"contracts/CreatorsContent.sol\":4678:4783  function getContractBalance() public view returns (uint256) {... */\n    tag_10:\n      callvalue\n      dup1\n      iszero\n      tag_67\n      jumpi\n      0x00\n      dup1\n      revert\n    tag_67:\n      pop\n      tag_68\n      tag_69\n      jump\t// in\n    tag_68:\n      mload(0x40)\n      tag_70\n      swap2\n      swap1\n      tag_71\n      jump\t// in\n    tag_70:\n      mload(0x40)\n      dup1\n      swap2\n      sub\n      swap1\n      return\n        /* \"contracts/CreatorsContent.sol\":784:815  ContentBuy[] public ContentBuys */\n    tag_11:\n      callvalue\n      dup1\n      iszero\n      tag_72\n      jumpi\n      0x00\n      dup1\n      revert\n    tag_72:\n      pop\n      tag_73\n      0x04\n      dup1\n      calldatasize\n      sub\n      dup2\n      add\n      swap1\n      tag_74\n      swap2\n      swap1\n      tag_57\n      jump\t// in\n    tag_74:\n      tag_75\n      jump\t// in\n    tag_73:\n      mload(0x40)\n      tag_76\n      swap7\n      swap6\n      swap5\n      swap4\n      swap3\n      swap2\n      swap1\n      tag_77\n      jump\t// in\n    tag_76:\n      mload(0x40)\n      dup1\n      swap2\n      sub\n      swap1\n      return\n        /* \"contracts/CreatorsContent.sol\":4789:5128  function getAvailableBalance() public view returns (uint256) {... */\n    tag_12:\n      callvalue\n      dup1\n      iszero\n      tag_78\n      jumpi\n      0x00\n      dup1\n      revert\n    tag_78:\n      pop\n      tag_79\n      tag_80\n      jump\t// in\n    tag_79:\n      mload(0x40)\n      tag_81\n      swap2\n      swap1\n      tag_71\n      jump\t// in\n    tag_81:\n      mload(0x40)\n      dup1\n      swap2\n      sub\n      swap1\n      return\n        /* \"contracts/CreatorsContent.sol\":5240:5813  function getBuysFromAuthor() public view returns (ContentBuy[] memory) {... */\n    tag_13:\n      callvalue\n      dup1\n      iszero\n      tag_82\n      jumpi\n      0x00\n      dup1\n      revert\n    tag_82:\n      pop\n      tag_83\n      tag_84\n      jump\t// in\n    tag_83:\n      mload(0x40)\n      tag_85\n      swap2\n      swap1\n      tag_86\n      jump\t// in\n    tag_85:\n      mload(0x40)\n      dup1\n      swap2\n      sub\n      swap1\n      return\n        /* \"contracts/CreatorsContent.sol\":1249:1542  function getCourseDetail(uint256 id) public view returns (Content memory) {... */\n    tag_14:\n      callvalue\n      dup1\n      iszero\n      tag_87\n      jumpi\n      0x00\n      dup1\n      revert\n    tag_87:\n      pop\n      tag_88\n      0x04\n      dup1\n      calldatasize\n      sub\n      dup2\n      add\n      swap1\n      tag_89\n      swap2\n      swap1\n      tag_57\n      jump\t// in\n    tag_89:\n      tag_90\n      jump\t// in\n    tag_88:\n      mload(0x40)\n      tag_91\n      swap2\n      swap1\n      tag_92\n      jump\t// in\n    tag_91:\n      mload(0x40)\n      dup1\n      swap2\n      sub\n      swap1\n      return\n        /* \"contracts/CreatorsContent.sol\":2637:2816  function compareStrings(string memory a, string memory b) public pure returns (bool) {... */\n    tag_15:\n      callvalue\n      dup1\n      iszero\n      tag_93\n      jumpi\n      0x00\n      dup1\n      revert\n    tag_93:\n      pop\n      tag_94\n      0x04\n      dup1\n      calldatasize\n      sub\n      dup2\n      add\n      swap1\n      tag_95\n      swap2\n      swap1\n      tag_36\n      jump\t// in\n    tag_95:\n      tag_96\n      jump\t// in\n    tag_94:\n      mload(0x40)\n      tag_97\n      swap2\n      swap1\n      tag_39\n      jump\t// in\n    tag_97:\n      mload(0x40)\n      dup1\n      swap2\n      sub\n      swap1\n      return\n        /* \"contracts/CreatorsContent.sol\":5136:5234  function getAllBuys() public view returns(ContentBuy[] memory) {... */\n    tag_16:\n      callvalue\n      dup1\n      iszero\n      tag_98\n      jumpi\n      0x00\n      dup1\n      revert\n    tag_98:\n      pop\n      tag_99\n      tag_100\n      jump\t// in\n    tag_99:\n      mload(0x40)\n      tag_101\n      swap2\n      swap1\n      tag_86\n      jump\t// in\n    tag_101:\n      mload(0x40)\n      dup1\n      swap2\n      sub\n      swap1\n      return\n        /* \"contracts/CreatorsContent.sol\":6746:7151  function buyContent(uint256 idCourse) payable public {... */\n    tag_17:\n      tag_102\n      0x04\n      dup1\n      calldatasize\n      sub\n      dup2\n      add\n      swap1\n      tag_103\n      swap2\n      swap1\n      tag_57\n      jump\t// in\n    tag_103:\n      tag_104\n      jump\t// in\n    tag_102:\n      stop\n        /* \"contracts/CreatorsContent.sol\":3931:4319  function setProfileHandle(string memory handle) public returns (bool) {... */\n    tag_18:\n      callvalue\n      dup1\n      iszero\n      tag_105\n      jumpi\n      0x00\n      dup1\n      revert\n    tag_105:\n      pop\n      tag_106\n      0x04\n      dup1\n      calldatasize\n      sub\n      dup2\n      add\n      swap1\n      tag_107\n      swap2\n      swap1\n      tag_108\n      jump\t// in\n    tag_107:\n      tag_109\n      jump\t// in\n    tag_106:\n      mload(0x40)\n      tag_110\n      swap2\n      swap1\n      tag_39\n      jump\t// in\n    tag_110:\n      mload(0x40)\n      dup1\n      swap2\n      sub\n      swap1\n      return\n        /* \"contracts/CreatorsContent.sol\":4325:4493  function setProfileImage(string memory image) public {... */\n    tag_19:\n      callvalue\n      dup1\n      iszero\n      tag_111\n      jumpi\n      0x00\n      dup1\n      revert\n    tag_111:\n      pop\n      tag_112\n      0x04\n      dup1\n      calldatasize\n      sub\n      dup2\n      add\n      swap1\n      tag_113\n      swap2\n      swap1\n      tag_108\n      jump\t// in\n    tag_113:\n      tag_114\n      jump\t// in\n    tag_112:\n      stop\n        /* \"contracts/CreatorsContent.sol\":5819:6423  function getBalanceForSingleBuy(address payable addr, uint256 indexBuy) public payable {... */\n    tag_20:\n      tag_115\n      0x04\n      dup1\n      calldatasize\n      sub\n      dup2\n      add\n      swap1\n      tag_116\n      swap2\n      swap1\n      tag_117\n      jump\t// in\n    tag_116:\n      tag_118\n      jump\t// in\n    tag_115:\n      stop\n        /* \"contracts/CreatorsContent.sol\":2183:2279  function getAllCourses() public view returns (Content[] memory) {... */\n    tag_26:\n        /* \"contracts/CreatorsContent.sol\":2229:2245  Content[] memory */\n      0x60\n        /* \"contracts/CreatorsContent.sol\":2264:2272  Contents */\n      0x00\n        /* \"contracts/CreatorsContent.sol\":2257:2272  return Contents */\n      dup1\n      sload\n      dup1\n      0x20\n      mul\n      0x20\n      add\n      mload(0x40)\n      swap1\n      dup2\n      add\n      0x40\n      mstore\n      dup1\n      swap3\n      swap2\n      swap1\n      dup2\n      dup2\n      mstore\n      0x20\n      add\n      0x00\n      swap1\n    tag_121:\n      dup3\n      dup3\n      lt\n      iszero\n      tag_122\n      jumpi\n      dup4\n      dup3\n      swap1\n      0x00\n      mstore\n      keccak256(0x00, 0x20)\n      swap1\n      0x08\n      mul\n      add\n      mload(0x40)\n      dup1\n      0x0100\n      add\n      0x40\n      mstore\n      swap1\n      dup2\n      0x00\n      dup3\n      add\n      sload\n      dup2\n      mstore\n      0x20\n      add\n      0x01\n      dup3\n      add\n      0x00\n      swap1\n      sload\n      swap1\n      0x0100\n      exp\n      swap1\n      div\n      0xffffffffffffffffffffffffffffffffffffffff\n      and\n      0xffffffffffffffffffffffffffffffffffffffff\n      and\n      0xffffffffffffffffffffffffffffffffffffffff\n      and\n      dup2\n      mstore\n      0x20\n      add\n      0x02\n      dup3\n      add\n      dup1\n      sload\n      tag_124\n      swap1\n      tag_125\n      jump\t// in\n    tag_124:\n      dup1\n      0x1f\n      add\n      0x20\n      dup1\n      swap2\n      div\n      mul\n      0x20\n      add\n      mload(0x40)\n      swap1\n      dup2\n      add\n      0x40\n      mstore\n      dup1\n      swap3\n      swap2\n      swap1\n      dup2\n      dup2\n      mstore\n      0x20\n      add\n      dup3\n      dup1\n      sload\n      tag_126\n      swap1\n      tag_125\n      jump\t// in\n    tag_126:\n      dup1\n      iszero\n      tag_127\n      jumpi\n      dup1\n      0x1f\n      lt\n      tag_128\n      jumpi\n      0x0100\n      dup1\n      dup4\n      sload\n      div\n      mul\n      dup4\n      mstore\n      swap2\n      0x20\n      add\n      swap2\n      jump(tag_127)\n    tag_128:\n      dup3\n      add\n      swap2\n      swap1\n      0x00\n      mstore\n      keccak256(0x00, 0x20)\n      swap1\n    tag_129:\n      dup2\n      sload\n      dup2\n      mstore\n      swap1\n      0x01\n      add\n      swap1\n      0x20\n      add\n      dup1\n      dup4\n      gt\n      tag_129\n      jumpi\n      dup3\n      swap1\n      sub\n      0x1f\n      and\n      dup3\n      add\n      swap2\n    tag_127:\n      pop\n      pop\n      pop\n      pop\n      pop\n      dup2\n      mstore\n      0x20\n      add\n      0x03\n      dup3\n      add\n      dup1\n      sload\n      tag_130\n      swap1\n      tag_125\n      jump\t// in\n    tag_130:\n      dup1\n      0x1f\n      add\n      0x20\n      dup1\n      swap2\n      div\n      mul\n      0x20\n      add\n      mload(0x40)\n      swap1\n      dup2\n      add\n      0x40\n      mstore\n      dup1\n      swap3\n      swap2\n      swap1\n      dup2\n      dup2\n      mstore\n      0x20\n      add\n      dup3\n      dup1\n      sload\n      tag_131\n      swap1\n      tag_125\n      jump\t// in\n    tag_131:\n      dup1\n      iszero\n      tag_132\n      jumpi\n      dup1\n      0x1f\n      lt\n      tag_133\n      jumpi\n      0x0100\n      dup1\n      dup4\n      sload\n      div\n      mul\n      dup4\n      mstore\n      swap2\n      0x20\n      add\n      swap2\n      jump(tag_132)\n    tag_133:\n      dup3\n      add\n      swap2\n      swap1\n      0x00\n      mstore\n      keccak256(0x00, 0x20)\n      swap1\n    tag_134:\n      dup2\n      sload\n      dup2\n      mstore\n      swap1\n      0x01\n      add\n      swap1\n      0x20\n      add\n      dup1\n      dup4\n      gt\n      tag_134\n      jumpi\n      dup3\n      swap1\n      sub\n      0x1f\n      and\n      dup3\n      add\n      swap2\n    tag_132:\n      pop\n      pop\n      pop\n      pop\n      pop\n      dup2\n      mstore\n      0x20\n      add\n      0x04\n      dup3\n      add\n      sload\n      dup2\n      mstore\n      0x20\n      add\n      0x05\n      dup3\n      add\n      dup1\n      sload\n      tag_135\n      swap1\n      tag_125\n      jump\t// in\n    tag_135:\n      dup1\n      0x1f\n      add\n      0x20\n      dup1\n      swap2\n      div\n      mul\n      0x20\n      add\n      mload(0x40)\n      swap1\n      dup2\n      add\n      0x40\n      mstore\n      dup1\n      swap3\n      swap2\n      swap1\n      dup2\n      dup2\n      mstore\n      0x20\n      add\n      dup3\n      dup1\n      sload\n      tag_136\n      swap1\n      tag_125\n      jump\t// in\n    tag_136:\n      dup1\n      iszero\n      tag_137\n      jumpi\n      dup1\n      0x1f\n      lt\n      tag_138\n      jumpi\n      0x0100\n      dup1\n      dup4\n      sload\n      div\n      mul\n      dup4\n      mstore\n      swap2\n      0x20\n      add\n      swap2\n      jump(tag_137)\n    tag_138:\n      dup3\n      add\n      swap2\n      swap1\n      0x00\n      mstore\n      keccak256(0x00, 0x20)\n      swap1\n    tag_139:\n      dup2\n      sload\n      dup2\n      mstore\n      swap1\n      0x01\n      add\n      swap1\n      0x20\n      add\n      dup1\n      dup4\n      gt\n      tag_139\n      jumpi\n      dup3\n      swap1\n      sub\n      0x1f\n      and\n      dup3\n      add\n      swap2\n    tag_137:\n      pop\n      pop\n      pop\n      pop\n      pop\n      dup2\n      mstore\n      0x20\n      add\n      0x06\n      dup3\n      add\n      0x00\n      swap1\n      sload\n      swap1\n      0x0100\n      exp\n      swap1\n      div\n      0xff\n      and\n      iszero\n      iszero\n      iszero\n      iszero\n      dup2\n      mstore\n      0x20\n      add\n      0x07\n      dup3\n      add\n      dup1\n      sload\n      tag_140\n      swap1\n      tag_125\n      jump\t// in\n    tag_140:\n      dup1\n      0x1f\n      add\n      0x20\n      dup1\n      swap2\n      div\n      mul\n      0x20\n      add\n      mload(0x40)\n      swap1\n      dup2\n      add\n      0x40\n      mstore\n      dup1\n      swap3\n      swap2\n      swap1\n      dup2\n      dup2\n      mstore\n      0x20\n      add\n      dup3\n      dup1\n      sload\n      tag_141\n      swap1\n      tag_125\n      jump\t// in\n    tag_141:\n      dup1\n      iszero\n      tag_142\n      jumpi\n      dup1\n      0x1f\n      lt\n      tag_143\n      jumpi\n      0x0100\n      dup1\n      dup4\n      sload\n      div\n      mul\n      dup4\n      mstore\n      swap2\n      0x20\n      add\n      swap2\n      jump(tag_142)\n    tag_143:\n      dup3\n      add\n      swap2\n      swap1\n      0x00\n      mstore\n      keccak256(0x00, 0x20)\n      swap1\n    tag_144:\n      dup2\n      sload\n      dup2\n      mstore\n      swap1\n      0x01\n      add\n      swap1\n      0x20\n      add\n      dup1\n      dup4\n      gt\n      tag_144\n      jumpi\n      dup3\n      swap1\n      sub\n      0x1f\n      and\n      dup3\n      add\n      swap2\n    tag_142:\n      pop\n      pop\n      pop\n      pop\n      pop\n      dup2\n      mstore\n      pop\n      pop\n      dup2\n      mstore\n      0x20\n      add\n      swap1\n      0x01\n      add\n      swap1\n      jump(tag_121)\n    tag_122:\n      pop\n      pop\n      pop\n      pop\n      swap1\n      pop\n        /* \"contracts/CreatorsContent.sol\":2183:2279  function getAllCourses() public view returns (Content[] memory) {... */\n      swap1\n      jump\t// out\n        /* \"contracts/CreatorsContent.sol\":6430:6740  function getAllBalanceForCreator(address payable addr) public payable {... */\n    tag_32:\n        /* \"contracts/CreatorsContent.sol\":6510:6525  uint256 ammount */\n      0x00\n        /* \"contracts/CreatorsContent.sol\":6550:6571  getAvailableBalance() */\n      tag_146\n        /* \"contracts/CreatorsContent.sol\":6550:6569  getAvailableBalance */\n      tag_80\n        /* \"contracts/CreatorsContent.sol\":6550:6571  getAvailableBalance() */\n      jump\t// in\n    tag_146:\n        /* \"contracts/CreatorsContent.sol\":6540:6571  ammount = getAvailableBalance() */\n      swap1\n      pop\n        /* \"contracts/CreatorsContent.sol\":6582:6586  addr */\n      dup2\n        /* \"contracts/CreatorsContent.sol\":6582:6595  addr.transfer */\n      0xffffffffffffffffffffffffffffffffffffffff\n      and\n        /* \"contracts/CreatorsContent.sol\":6582:6604  addr.transfer(ammount) */\n      0x08fc\n        /* \"contracts/CreatorsContent.sol\":6596:6603  ammount */\n      dup3\n        /* \"contracts/CreatorsContent.sol\":6582:6604  addr.transfer(ammount) */\n      swap1\n      dup2\n      iszero\n      mul\n      swap1\n      mload(0x40)\n      0x00\n      mload(0x40)\n      dup1\n      dup4\n      sub\n      dup2\n      dup6\n      dup9\n      dup9\n      call\n      swap4\n      pop\n      pop\n      pop\n      pop\n      iszero\n      dup1\n      iszero\n      tag_148\n      jumpi\n      returndatasize\n      0x00\n      dup1\n      returndatacopy\n      revert(0x00, returndatasize)\n    tag_148:\n      pop\n        /* \"contracts/CreatorsContent.sol\":6620:6629  uint256 i */\n      0x00\n        /* \"contracts/CreatorsContent.sol\":6615:6718  for (uint256 i = 0; i < ContentBuys.length; i++) {... */\n    tag_149:\n        /* \"contracts/CreatorsContent.sol\":6639:6650  ContentBuys */\n      0x02\n        /* \"contracts/CreatorsContent.sol\":6639:6657  ContentBuys.length */\n      dup1\n      sload\n      swap1\n      pop\n        /* \"contracts/CreatorsContent.sol\":6635:6636  i */\n      dup2\n        /* \"contracts/CreatorsContent.sol\":6635:6657  i < ContentBuys.length */\n      lt\n        /* \"contracts/CreatorsContent.sol\":6615:6718  for (uint256 i = 0; i < ContentBuys.length; i++) {... */\n      iszero\n      tag_150\n      jumpi\n        /* \"contracts/CreatorsContent.sol\":6703:6707  true */\n      0x01\n        /* \"contracts/CreatorsContent.sol\":6678:6689  ContentBuys */\n      0x02\n        /* \"contracts/CreatorsContent.sol\":6690:6691  i */\n      dup3\n        /* \"contracts/CreatorsContent.sol\":6678:6692  ContentBuys[i] */\n      dup2\n      sload\n      dup2\n      lt\n      tag_152\n      jumpi\n      tag_153\n      tag_154\n      jump\t// in\n    tag_153:\n    tag_152:\n      swap1\n      0x00\n      mstore\n      keccak256(0x00, 0x20)\n      swap1\n      0x06\n      mul\n      add\n        /* \"contracts/CreatorsContent.sol\":6678:6700  ContentBuys[i].isPayed */\n      0x04\n      add\n      0x00\n        /* \"contracts/CreatorsContent.sol\":6678:6707  ContentBuys[i].isPayed = true */\n      0x0100\n      exp\n      dup2\n      sload\n      dup2\n      0xff\n      mul\n      not\n      and\n      swap1\n      dup4\n      iszero\n      iszero\n      mul\n      or\n      swap1\n      sstore\n      pop\n        /* \"contracts/CreatorsContent.sol\":6659:6662  i++ */\n      dup1\n      dup1\n      tag_156\n      swap1\n      tag_157\n      jump\t// in\n    tag_156:\n      swap2\n      pop\n      pop\n        /* \"contracts/CreatorsContent.sol\":6615:6718  for (uint256 i = 0; i < ContentBuys.length; i++) {... */\n      jump(tag_149)\n    tag_150:\n      pop\n        /* \"contracts/CreatorsContent.sol\":6727:6734  return; */\n      pop\n        /* \"contracts/CreatorsContent.sol\":6430:6740  function getAllBalanceForCreator(address payable addr) public payable {... */\n      pop\n      jump\t// out\n        /* \"contracts/CreatorsContent.sol\":3448:3925  function createNewProfile(string memory handle, string memory profilePic) public returns (bool) {... */\n    tag_37:\n        /* \"contracts/CreatorsContent.sol\":3538:3542  bool */\n      0x00\n        /* \"contracts/CreatorsContent.sol\":3566:3575  uint256 i */\n      dup1\n        /* \"contracts/CreatorsContent.sol\":3576:3577  0 */\n      0x00\n        /* \"contracts/CreatorsContent.sol\":3566:3577  uint256 i=0 */\n      swap1\n      pop\n        /* \"contracts/CreatorsContent.sol\":3561:3816  for (uint256 i=0; i < Profiles.length; i++) {... */\n    tag_159:\n        /* \"contracts/CreatorsContent.sol\":3583:3591  Profiles */\n      0x01\n        /* \"contracts/CreatorsContent.sol\":3583:3598  Profiles.length */\n      dup1\n      sload\n      swap1\n      pop\n        /* \"contracts/CreatorsContent.sol\":3579:3580  i */\n      dup2\n        /* \"contracts/CreatorsContent.sol\":3579:3598  i < Profiles.length */\n      lt\n        /* \"contracts/CreatorsContent.sol\":3561:3816  for (uint256 i=0; i < Profiles.length; i++) {... */\n      iszero\n      tag_160\n      jumpi\n        /* \"contracts/CreatorsContent.sol\":3623:3665  compareStrings(Profiles[i].handle, handle) */\n      tag_162\n        /* \"contracts/CreatorsContent.sol\":3638:3646  Profiles */\n      0x01\n        /* \"contracts/CreatorsContent.sol\":3647:3648  i */\n      dup3\n        /* \"contracts/CreatorsContent.sol\":3638:3649  Profiles[i] */\n      dup2\n      sload\n      dup2\n      lt\n      tag_163\n      jumpi\n      tag_164\n      tag_154\n      jump\t// in\n    tag_164:\n    tag_163:\n      swap1\n      0x00\n      mstore\n      keccak256(0x00, 0x20)\n      swap1\n      0x03\n      mul\n      add\n        /* \"contracts/CreatorsContent.sol\":3638:3656  Profiles[i].handle */\n      0x00\n      add\n        /* \"contracts/CreatorsContent.sol\":3623:3665  compareStrings(Profiles[i].handle, handle) */\n      dup1\n      sload\n      tag_166\n      swap1\n      tag_125\n      jump\t// in\n    tag_166:\n      dup1\n      0x1f\n      add\n      0x20\n      dup1\n      swap2\n      div\n      mul\n      0x20\n      add\n      mload(0x40)\n      swap1\n      dup2\n      add\n      0x40\n      mstore\n      dup1\n      swap3\n      swap2\n      swap1\n      dup2\n      dup2\n      mstore\n      0x20\n      add\n      dup3\n      dup1\n      sload\n      tag_167\n      swap1\n      tag_125\n      jump\t// in\n    tag_167:\n      dup1\n      iszero\n      tag_168\n      jumpi\n      dup1\n      0x1f\n      lt\n      tag_169\n      jumpi\n      0x0100\n      dup1\n      dup4\n      sload\n      div\n      mul\n      dup4\n      mstore\n      swap2\n      0x20\n      add\n      swap2\n      jump(tag_168)\n    tag_169:\n      dup3\n      add\n      swap2\n      swap1\n      0x00\n      mstore\n      keccak256(0x00, 0x20)\n      swap1\n    tag_170:\n      dup2\n      sload\n      dup2\n      mstore\n      swap1\n      0x01\n      add\n      swap1\n      0x20\n      add\n      dup1\n      dup4\n      gt\n      tag_170\n      jumpi\n      dup3\n      swap1\n      sub\n      0x1f\n      and\n      dup3\n      add\n      swap2\n    tag_168:\n      pop\n      pop\n      pop\n      pop\n      pop\n        /* \"contracts/CreatorsContent.sol\":3658:3664  handle */\n      dup6\n        /* \"contracts/CreatorsContent.sol\":3623:3637  compareStrings */\n      tag_96\n        /* \"contracts/CreatorsContent.sol\":3623:3665  compareStrings(Profiles[i].handle, handle) */\n      jump\t// in\n    tag_162:\n        /* \"contracts/CreatorsContent.sol\":3619:3712  if (compareStrings(Profiles[i].handle, handle)) {... */\n      iszero\n      tag_171\n      jumpi\n        /* \"contracts/CreatorsContent.sol\":3692:3697  false */\n      0x00\n        /* \"contracts/CreatorsContent.sol\":3685:3697  return false */\n      swap2\n      pop\n      pop\n      jump(tag_158)\n        /* \"contracts/CreatorsContent.sol\":3619:3712  if (compareStrings(Profiles[i].handle, handle)) {... */\n    tag_171:\n        /* \"contracts/CreatorsContent.sol\":3749:3759  msg.sender */\n      caller\n        /* \"contracts/CreatorsContent.sol\":3729:3759  Profiles[i].addr == msg.sender */\n      0xffffffffffffffffffffffffffffffffffffffff\n      and\n        /* \"contracts/CreatorsContent.sol\":3729:3737  Profiles */\n      0x01\n        /* \"contracts/CreatorsContent.sol\":3738:3739  i */\n      dup3\n        /* \"contracts/CreatorsContent.sol\":3729:3740  Profiles[i] */\n      dup2\n      sload\n      dup2\n      lt\n      tag_172\n      jumpi\n      tag_173\n      tag_154\n      jump\t// in\n    tag_173:\n    tag_172:\n      swap1\n      0x00\n      mstore\n      keccak256(0x00, 0x20)\n      swap1\n      0x03\n      mul\n      add\n        /* \"contracts/CreatorsContent.sol\":3729:3745  Profiles[i].addr */\n      0x01\n      add\n      0x00\n      swap1\n      sload\n      swap1\n      0x0100\n      exp\n      swap1\n      div\n      0xffffffffffffffffffffffffffffffffffffffff\n      and\n        /* \"contracts/CreatorsContent.sol\":3729:3759  Profiles[i].addr == msg.sender */\n      0xffffffffffffffffffffffffffffffffffffffff\n      and\n      sub\n        /* \"contracts/CreatorsContent.sol\":3725:3806  if (Profiles[i].addr == msg.sender) {... */\n      tag_175\n      jumpi\n        /* \"contracts/CreatorsContent.sol\":3786:3791  false */\n      0x00\n        /* \"contracts/CreatorsContent.sol\":3779:3791  return false */\n      swap2\n      pop\n      pop\n      jump(tag_158)\n        /* \"contracts/CreatorsContent.sol\":3725:3806  if (Profiles[i].addr == msg.sender) {... */\n    tag_175:\n        /* \"contracts/CreatorsContent.sol\":3600:3603  i++ */\n      dup1\n      dup1\n      tag_176\n      swap1\n      tag_157\n      jump\t// in\n    tag_176:\n      swap2\n      pop\n      pop\n        /* \"contracts/CreatorsContent.sol\":3561:3816  for (uint256 i=0; i < Profiles.length; i++) {... */\n      jump(tag_159)\n    tag_160:\n      pop\n        /* \"contracts/CreatorsContent.sol\":3834:3842  Profiles */\n      0x01\n        /* \"contracts/CreatorsContent.sol\":3848:3887  Profile(handle, msg.sender, profilePic) */\n      mload(0x40)\n      dup1\n      0x60\n      add\n      0x40\n      mstore\n      dup1\n        /* \"contracts/CreatorsContent.sol\":3856:3862  handle */\n      dup6\n        /* \"contracts/CreatorsContent.sol\":3848:3887  Profile(handle, msg.sender, profilePic) */\n      dup2\n      mstore\n      0x20\n      add\n        /* \"contracts/CreatorsContent.sol\":3864:3874  msg.sender */\n      caller\n        /* \"contracts/CreatorsContent.sol\":3848:3887  Profile(handle, msg.sender, profilePic) */\n      0xffffffffffffffffffffffffffffffffffffffff\n      and\n      dup2\n      mstore\n      0x20\n      add\n        /* \"contracts/CreatorsContent.sol\":3876:3886  profilePic */\n      dup5\n        /* \"contracts/CreatorsContent.sol\":3848:3887  Profile(handle, msg.sender, profilePic) */\n      dup2\n      mstore\n      pop\n        /* \"contracts/CreatorsContent.sol\":3834:3888  Profiles.push(Profile(handle, msg.sender, profilePic)) */\n      swap1\n      dup1\n      0x01\n      dup2\n      sload\n      add\n      dup1\n      dup3\n      sstore\n      dup1\n      swap2\n      pop\n      pop\n      0x01\n      swap1\n      sub\n      swap1\n      0x00\n      mstore\n      keccak256(0x00, 0x20)\n      swap1\n      0x03\n      mul\n      add\n      0x00\n      swap1\n      swap2\n      swap1\n      swap2\n      swap1\n      swap2\n      pop\n      0x00\n      dup3\n      add\n      mload\n      dup2\n      0x00\n      add\n      swap1\n      dup2\n      tag_178\n      swap2\n      swap1\n      tag_179\n      jump\t// in\n    tag_178:\n      pop\n      0x20\n      dup3\n      add\n      mload\n      dup2\n      0x01\n      add\n      exp(0x0100, 0x00)\n      dup2\n      sload\n      dup2\n      0xffffffffffffffffffffffffffffffffffffffff\n      mul\n      not\n      and\n      swap1\n      dup4\n      0xffffffffffffffffffffffffffffffffffffffff\n      and\n      mul\n      or\n      swap1\n      sstore\n      pop\n      0x40\n      dup3\n      add\n      mload\n      dup2\n      0x02\n      add\n      swap1\n      dup2\n      tag_180\n      swap2\n      swap1\n      tag_179\n      jump\t// in\n    tag_180:\n      pop\n      pop\n      pop\n        /* \"contracts/CreatorsContent.sol\":3905:3909  true */\n      0x01\n        /* \"contracts/CreatorsContent.sol\":3898:3909  return true */\n      swap1\n      pop\n        /* \"contracts/CreatorsContent.sol\":3448:3925  function createNewProfile(string memory handle, string memory profilePic) public returns (bool) {... */\n    tag_158:\n      swap3\n      swap2\n      pop\n      pop\n      jump\t// out\n        /* \"contracts/CreatorsContent.sol\":4499:4668  function getMyProfile() public view returns (Profile memory) {... */\n    tag_42:\n        /* \"contracts/CreatorsContent.sol\":4544:4558  Profile memory */\n      tag_181\n      tag_182\n      jump\t// in\n    tag_181:\n        /* \"contracts/CreatorsContent.sol\":4570:4597  Profile memory localProfile */\n      0x00\n        /* \"contracts/CreatorsContent.sol\":4600:4631  getProfileByAddress(msg.sender) */\n      tag_184\n        /* \"contracts/CreatorsContent.sol\":4620:4630  msg.sender */\n      caller\n        /* \"contracts/CreatorsContent.sol\":4600:4619  getProfileByAddress */\n      tag_185\n        /* \"contracts/CreatorsContent.sol\":4600:4631  getProfileByAddress(msg.sender) */\n      jump\t// in\n    tag_184:\n        /* \"contracts/CreatorsContent.sol\":4570:4631  Profile memory localProfile = getProfileByAddress(msg.sender) */\n      swap1\n      pop\n        /* \"contracts/CreatorsContent.sol\":4649:4661  localProfile */\n      dup1\n        /* \"contracts/CreatorsContent.sol\":4642:4661  return localProfile */\n      swap2\n      pop\n      pop\n        /* \"contracts/CreatorsContent.sol\":4499:4668  function getMyProfile() public view returns (Profile memory) {... */\n      swap1\n      jump\t// out\n        /* \"contracts/CreatorsContent.sol\":1548:2172  function getMyCourses() public view returns (Content[] memory) {... */\n    tag_47:\n        /* \"contracts/CreatorsContent.sol\":1593:1609  Content[] memory */\n      0x60\n        /* \"contracts/CreatorsContent.sol\":1677:1688  uint256 len */\n      0x00\n        /* \"contracts/CreatorsContent.sol\":1691:1720  getUserCoursesLen(msg.sender) */\n      tag_187\n        /* \"contracts/CreatorsContent.sol\":1709:1719  msg.sender */\n      caller\n        /* \"contracts/CreatorsContent.sol\":1691:1708  getUserCoursesLen */\n      tag_188\n        /* \"contracts/CreatorsContent.sol\":1691:1720  getUserCoursesLen(msg.sender) */\n      jump\t// in\n    tag_187:\n        /* \"contracts/CreatorsContent.sol\":1677:1720  uint256 len = getUserCoursesLen(msg.sender) */\n      swap1\n      pop\n        /* \"contracts/CreatorsContent.sol\":1778:1798  uint256 indexCourses */\n      0x00\n        /* \"contracts/CreatorsContent.sol\":1865:1893  Content[] memory userCourses */\n      dup1\n        /* \"contracts/CreatorsContent.sol\":1910:1913  len */\n      dup3\n        /* \"contracts/CreatorsContent.sol\":1896:1914  new Content[](len) */\n      0xffffffffffffffff\n      dup2\n      gt\n      iszero\n      tag_189\n      jumpi\n      tag_190\n      tag_191\n      jump\t// in\n    tag_190:\n    tag_189:\n      mload(0x40)\n      swap1\n      dup1\n      dup3\n      mstore\n      dup1\n      0x20\n      mul\n      0x20\n      add\n      dup3\n      add\n      0x40\n      mstore\n      dup1\n      iszero\n      tag_192\n      jumpi\n      dup2\n      0x20\n      add\n    tag_193:\n      tag_194\n      tag_195\n      jump\t// in\n    tag_194:\n      dup2\n      mstore\n      0x20\n      add\n      swap1\n      0x01\n      swap1\n      sub\n      swap1\n      dup2\n      tag_193\n      jumpi\n      swap1\n      pop\n    tag_192:\n      pop\n        /* \"contracts/CreatorsContent.sol\":1865:1914  Content[] memory userCourses = new Content[](len) */\n      swap1\n      pop\n        /* \"contracts/CreatorsContent.sol\":1930:1939  uint256 i */\n      0x00\n        /* \"contracts/CreatorsContent.sol\":1925:2137  for (uint256 i=0; i < Contents.length ; i++) {... */\n    tag_196:\n        /* \"contracts/CreatorsContent.sol\":1947:1955  Contents */\n      0x00\n        /* \"contracts/CreatorsContent.sol\":1947:1962  Contents.length */\n      dup1\n      sload\n      swap1\n      pop\n        /* \"contracts/CreatorsContent.sol\":1943:1944  i */\n      dup2\n        /* \"contracts/CreatorsContent.sol\":1943:1962  i < Contents.length */\n      lt\n        /* \"contracts/CreatorsContent.sol\":1925:2137  for (uint256 i=0; i < Contents.length ; i++) {... */\n      iszero\n      tag_197\n      jumpi\n        /* \"contracts/CreatorsContent.sol\":2010:2020  msg.sender */\n      caller\n        /* \"contracts/CreatorsContent.sol\":1988:2020  Contents[i].author == msg.sender */\n      0xffffffffffffffffffffffffffffffffffffffff\n      and\n        /* \"contracts/CreatorsContent.sol\":1988:1996  Contents */\n      0x00\n        /* \"contracts/CreatorsContent.sol\":1997:1998  i */\n      dup3\n        /* \"contracts/CreatorsContent.sol\":1988:1999  Contents[i] */\n      dup2\n      sload\n      dup2\n      lt\n      tag_199\n      jumpi\n      tag_200\n      tag_154\n      jump\t// in\n    tag_200:\n    tag_199:\n      swap1\n      0x00\n      mstore\n      keccak256(0x00, 0x20)\n      swap1\n      0x08\n      mul\n      add\n        /* \"contracts/CreatorsContent.sol\":1988:2006  Contents[i].author */\n      0x01\n      add\n      0x00\n      swap1\n      sload\n      swap1\n      0x0100\n      exp\n      swap1\n      div\n      0xffffffffffffffffffffffffffffffffffffffff\n      and\n        /* \"contracts/CreatorsContent.sol\":1988:2020  Contents[i].author == msg.sender */\n      0xffffffffffffffffffffffffffffffffffffffff\n      and\n      sub\n        /* \"contracts/CreatorsContent.sol\":1984:2127  if (Contents[i].author == msg.sender) {... */\n      tag_202\n      jumpi\n        /* \"contracts/CreatorsContent.sol\":2068:2076  Contents */\n      0x00\n        /* \"contracts/CreatorsContent.sol\":2077:2078  i */\n      dup2\n        /* \"contracts/CreatorsContent.sol\":2068:2079  Contents[i] */\n      dup2\n      sload\n      dup2\n      lt\n      tag_203\n      jumpi\n      tag_204\n      tag_154\n      jump\t// in\n    tag_204:\n    tag_203:\n      swap1\n      0x00\n      mstore\n      keccak256(0x00, 0x20)\n      swap1\n      0x08\n      mul\n      add\n        /* \"contracts/CreatorsContent.sol\":2040:2079  userCourses[indexCourses] = Contents[i] */\n      mload(0x40)\n      dup1\n      0x0100\n      add\n      0x40\n      mstore\n      swap1\n      dup2\n      0x00\n      dup3\n      add\n      sload\n      dup2\n      mstore\n      0x20\n      add\n      0x01\n      dup3\n      add\n      0x00\n      swap1\n      sload\n      swap1\n      0x0100\n      exp\n      swap1\n      div\n      0xffffffffffffffffffffffffffffffffffffffff\n      and\n      0xffffffffffffffffffffffffffffffffffffffff\n      and\n      0xffffffffffffffffffffffffffffffffffffffff\n      and\n      dup2\n      mstore\n      0x20\n      add\n      0x02\n      dup3\n      add\n      dup1\n      sload\n      tag_206\n      swap1\n      tag_125\n      jump\t// in\n    tag_206:\n      dup1\n      0x1f\n      add\n      0x20\n      dup1\n      swap2\n      div\n      mul\n      0x20\n      add\n      mload(0x40)\n      swap1\n      dup2\n      add\n      0x40\n      mstore\n      dup1\n      swap3\n      swap2\n      swap1\n      dup2\n      dup2\n      mstore\n      0x20\n      add\n      dup3\n      dup1\n      sload\n      tag_207\n      swap1\n      tag_125\n      jump\t// in\n    tag_207:\n      dup1\n      iszero\n      tag_208\n      jumpi\n      dup1\n      0x1f\n      lt\n      tag_209\n      jumpi\n      0x0100\n      dup1\n      dup4\n      sload\n      div\n      mul\n      dup4\n      mstore\n      swap2\n      0x20\n      add\n      swap2\n      jump(tag_208)\n    tag_209:\n      dup3\n      add\n      swap2\n      swap1\n      0x00\n      mstore\n      keccak256(0x00, 0x20)\n      swap1\n    tag_210:\n      dup2\n      sload\n      dup2\n      mstore\n      swap1\n      0x01\n      add\n      swap1\n      0x20\n      add\n      dup1\n      dup4\n      gt\n      tag_210\n      jumpi\n      dup3\n      swap1\n      sub\n      0x1f\n      and\n      dup3\n      add\n      swap2\n    tag_208:\n      pop\n      pop\n      pop\n      pop\n      pop\n      dup2\n      mstore\n      0x20\n      add\n      0x03\n      dup3\n      add\n      dup1\n      sload\n      tag_211\n      swap1\n      tag_125\n      jump\t// in\n    tag_211:\n      dup1\n      0x1f\n      add\n      0x20\n      dup1\n      swap2\n      div\n      mul\n      0x20\n      add\n      mload(0x40)\n      swap1\n      dup2\n      add\n      0x40\n      mstore\n      dup1\n      swap3\n      swap2\n      swap1\n      dup2\n      dup2\n      mstore\n      0x20\n      add\n      dup3\n      dup1\n      sload\n      tag_212\n      swap1\n      tag_125\n      jump\t// in\n    tag_212:\n      dup1\n      iszero\n      tag_213\n      jumpi\n      dup1\n      0x1f\n      lt\n      tag_214\n      jumpi\n      0x0100\n      dup1\n      dup4\n      sload\n      div\n      mul\n      dup4\n      mstore\n      swap2\n      0x20\n      add\n      swap2\n      jump(tag_213)\n    tag_214:\n      dup3\n      add\n      swap2\n      swap1\n      0x00\n      mstore\n      keccak256(0x00, 0x20)\n      swap1\n    tag_215:\n      dup2\n      sload\n      dup2\n      mstore\n      swap1\n      0x01\n      add\n      swap1\n      0x20\n      add\n      dup1\n      dup4\n      gt\n      tag_215\n      jumpi\n      dup3\n      swap1\n      sub\n      0x1f\n      and\n      dup3\n      add\n      swap2\n    tag_213:\n      pop\n      pop\n      pop\n      pop\n      pop\n      dup2\n      mstore\n      0x20\n      add\n      0x04\n      dup3\n      add\n      sload\n      dup2\n      mstore\n      0x20\n      add\n      0x05\n      dup3\n      add\n      dup1\n      sload\n      tag_216\n      swap1\n      tag_125\n      jump\t// in\n    tag_216:\n      dup1\n      0x1f\n      add\n      0x20\n      dup1\n      swap2\n      div\n      mul\n      0x20\n      add\n      mload(0x40)\n      swap1\n      dup2\n      add\n      0x40\n      mstore\n      dup1\n      swap3\n      swap2\n      swap1\n      dup2\n      dup2\n      mstore\n      0x20\n      add\n      dup3\n      dup1\n      sload\n      tag_217\n      swap1\n      tag_125\n      jump\t// in\n    tag_217:\n      dup1\n      iszero\n      tag_218\n      jumpi\n      dup1\n      0x1f\n      lt\n      tag_219\n      jumpi\n      0x0100\n      dup1\n      dup4\n      sload\n      div\n      mul\n      dup4\n      mstore\n      swap2\n      0x20\n      add\n      swap2\n      jump(tag_218)\n    tag_219:\n      dup3\n      add\n      swap2\n      swap1\n      0x00\n      mstore\n      keccak256(0x00, 0x20)\n      swap1\n    tag_220:\n      dup2\n      sload\n      dup2\n      mstore\n      swap1\n      0x01\n      add\n      swap1\n      0x20\n      add\n      dup1\n      dup4\n      gt\n      tag_220\n      jumpi\n      dup3\n      swap1\n      sub\n      0x1f\n      and\n      dup3\n      add\n      swap2\n    tag_218:\n      pop\n      pop\n      pop\n      pop\n      pop\n      dup2\n      mstore\n      0x20\n      add\n      0x06\n      dup3\n      add\n      0x00\n      swap1\n      sload\n      swap1\n      0x0100\n      exp\n      swap1\n      div\n      0xff\n      and\n      iszero\n      iszero\n      iszero\n      iszero\n      dup2\n      mstore\n      0x20\n      add\n      0x07\n      dup3\n      add\n      dup1\n      sload\n      tag_221\n      swap1\n      tag_125\n      jump\t// in\n    tag_221:\n      dup1\n      0x1f\n      add\n      0x20\n      dup1\n      swap2\n      div\n      mul\n      0x20\n      add\n      mload(0x40)\n      swap1\n      dup2\n      add\n      0x40\n      mstore\n      dup1\n      swap3\n      swap2\n      swap1\n      dup2\n      dup2\n      mstore\n      0x20\n      add\n      dup3\n      dup1\n      sload\n      tag_222\n      swap1\n      tag_125\n      jump\t// in\n    tag_222:\n      dup1\n      iszero\n      tag_223\n      jumpi\n      dup1\n      0x1f\n      lt\n      tag_224\n      jumpi\n      0x0100\n      dup1\n      dup4\n      sload\n      div\n      mul\n      dup4\n      mstore\n      swap2\n      0x20\n      add\n      swap2\n      jump(tag_223)\n    tag_224:\n      dup3\n      add\n      swap2\n      swap1\n      0x00\n      mstore\n      keccak256(0x00, 0x20)\n      swap1\n    tag_225:\n      dup2\n      sload\n      dup2\n      mstore\n      swap1\n      0x01\n      add\n      swap1\n      0x20\n      add\n      dup1\n      dup4\n      gt\n      tag_225\n      jumpi\n      dup3\n      swap1\n      sub\n      0x1f\n      and\n      dup3\n      add\n      swap2\n    tag_223:\n      pop\n      pop\n      pop\n      pop\n      pop\n      dup2\n      mstore\n      pop\n      pop\n        /* \"contracts/CreatorsContent.sol\":2040:2051  userCourses */\n      dup3\n        /* \"contracts/CreatorsContent.sol\":2052:2064  indexCourses */\n      dup5\n        /* \"contracts/CreatorsContent.sol\":2040:2065  userCourses[indexCourses] */\n      dup2\n      mload\n      dup2\n      lt\n      tag_226\n      jumpi\n      tag_227\n      tag_154\n      jump\t// in\n    tag_227:\n    tag_226:\n      0x20\n      mul\n      0x20\n      add\n      add\n        /* \"contracts/CreatorsContent.sol\":2040:2079  userCourses[indexCourses] = Contents[i] */\n      dup2\n      swap1\n      mstore\n      pop\n        /* \"contracts/CreatorsContent.sol\":2097:2112  indexCourses ++ */\n      dup3\n      dup1\n      tag_228\n      swap1\n      tag_157\n      jump\t// in\n    tag_228:\n      swap4\n      pop\n      pop\n        /* \"contracts/CreatorsContent.sol\":1984:2127  if (Contents[i].author == msg.sender) {... */\n    tag_202:\n        /* \"contracts/CreatorsContent.sol\":1965:1968  i++ */\n      dup1\n      dup1\n      tag_229\n      swap1\n      tag_157\n      jump\t// in\n    tag_229:\n      swap2\n      pop\n      pop\n        /* \"contracts/CreatorsContent.sol\":1925:2137  for (uint256 i=0; i < Contents.length ; i++) {... */\n      jump(tag_196)\n    tag_197:\n      pop\n        /* \"contracts/CreatorsContent.sol\":2154:2165  userCourses */\n      dup1\n        /* \"contracts/CreatorsContent.sol\":2147:2165  return userCourses */\n      swap4\n      pop\n      pop\n      pop\n      pop\n        /* \"contracts/CreatorsContent.sol\":1548:2172  function getMyCourses() public view returns (Content[] memory) {... */\n      swap1\n      jump\t// out\n        /* \"contracts/CreatorsContent.sol\":2285:2631  function createNewContent(... */\n    tag_53:\n        /* \"contracts/CreatorsContent.sol\":2486:2494  Contents */\n      0x00\n        /* \"contracts/CreatorsContent.sol\":2500:2592  Content(idCourses.current(), msg.sender, title, description, price, video, false, mainImage) */\n      mload(0x40)\n      dup1\n      0x0100\n      add\n      0x40\n      mstore\n      dup1\n        /* \"contracts/CreatorsContent.sol\":2508:2527  idCourses.current() */\n      tag_231\n        /* \"contracts/CreatorsContent.sol\":2508:2517  idCourses */\n      0x03\n        /* \"contracts/CreatorsContent.sol\":2508:2525  idCourses.current */\n      tag_232\n        /* \"contracts/CreatorsContent.sol\":2508:2527  idCourses.current() */\n      jump\t// in\n    tag_231:\n        /* \"contracts/CreatorsContent.sol\":2500:2592  Content(idCourses.current(), msg.sender, title, description, price, video, false, mainImage) */\n      dup2\n      mstore\n      0x20\n      add\n        /* \"contracts/CreatorsContent.sol\":2529:2539  msg.sender */\n      caller\n        /* \"contracts/CreatorsContent.sol\":2500:2592  Content(idCourses.current(), msg.sender, title, description, price, video, false, mainImage) */\n      0xffffffffffffffffffffffffffffffffffffffff\n      and\n      dup2\n      mstore\n      0x20\n      add\n        /* \"contracts/CreatorsContent.sol\":2541:2546  title */\n      dup8\n        /* \"contracts/CreatorsContent.sol\":2500:2592  Content(idCourses.current(), msg.sender, title, description, price, video, false, mainImage) */\n      dup2\n      mstore\n      0x20\n      add\n        /* \"contracts/CreatorsContent.sol\":2548:2559  description */\n      dup7\n        /* \"contracts/CreatorsContent.sol\":2500:2592  Content(idCourses.current(), msg.sender, title, description, price, video, false, mainImage) */\n      dup2\n      mstore\n      0x20\n      add\n        /* \"contracts/CreatorsContent.sol\":2561:2566  price */\n      dup6\n        /* \"contracts/CreatorsContent.sol\":2500:2592  Content(idCourses.current(), msg.sender, title, description, price, video, false, mainImage) */\n      dup2\n      mstore\n      0x20\n      add\n        /* \"contracts/CreatorsContent.sol\":2568:2573  video */\n      dup5\n        /* \"contracts/CreatorsContent.sol\":2500:2592  Content(idCourses.current(), msg.sender, title, description, price, video, false, mainImage) */\n      dup2\n      mstore\n      0x20\n      add\n        /* \"contracts/CreatorsContent.sol\":2575:2580  false */\n      0x00\n        /* \"contracts/CreatorsContent.sol\":2500:2592  Content(idCourses.current(), msg.sender, title, description, price, video, false, mainImage) */\n      iszero\n      iszero\n      dup2\n      mstore\n      0x20\n      add\n        /* \"contracts/CreatorsContent.sol\":2582:2591  mainImage */\n      dup4\n        /* \"contracts/CreatorsContent.sol\":2500:2592  Content(idCourses.current(), msg.sender, title, description, price, video, false, mainImage) */\n      dup2\n      mstore\n      pop\n        /* \"contracts/CreatorsContent.sol\":2486:2593  Contents.push(Content(idCourses.current(), msg.sender, title, description, price, video, false, mainImage)) */\n      swap1\n      dup1\n      0x01\n      dup2\n      sload\n      add\n      dup1\n      dup3\n      sstore\n      dup1\n      swap2\n      pop\n      pop\n      0x01\n      swap1\n      sub\n      swap1\n      0x00\n      mstore\n      keccak256(0x00, 0x20)\n      swap1\n      0x08\n      mul\n      add\n      0x00\n      swap1\n      swap2\n      swap1\n      swap2\n      swap1\n      swap2\n      pop\n      0x00\n      dup3\n      add\n      mload\n      dup2\n      0x00\n      add\n      sstore\n      0x20\n      dup3\n      add\n      mload\n      dup2\n      0x01\n      add\n      exp(0x0100, 0x00)\n      dup2\n      sload\n      dup2\n      0xffffffffffffffffffffffffffffffffffffffff\n      mul\n      not\n      and\n      swap1\n      dup4\n      0xffffffffffffffffffffffffffffffffffffffff\n      and\n      mul\n      or\n      swap1\n      sstore\n      pop\n      0x40\n      dup3\n      add\n      mload\n      dup2\n      0x02\n      add\n      swap1\n      dup2\n      tag_234\n      swap2\n      swap1\n      tag_179\n      jump\t// in\n    tag_234:\n      pop\n      0x60\n      dup3\n      add\n      mload\n      dup2\n      0x03\n      add\n      swap1\n      dup2\n      tag_235\n      swap2\n      swap1\n      tag_179\n      jump\t// in\n    tag_235:\n      pop\n      0x80\n      dup3\n      add\n      mload\n      dup2\n      0x04\n      add\n      sstore\n      0xa0\n      dup3\n      add\n      mload\n      dup2\n      0x05\n      add\n      swap1\n      dup2\n      tag_236\n      swap2\n      swap1\n      tag_179\n      jump\t// in\n    tag_236:\n      pop\n      0xc0\n      dup3\n      add\n      mload\n      dup2\n      0x06\n      add\n      exp(0x0100, 0x00)\n      dup2\n      sload\n      dup2\n      0xff\n      mul\n      not\n      and\n      swap1\n      dup4\n      iszero\n      iszero\n      mul\n      or\n      swap1\n      sstore\n      pop\n      0xe0\n      dup3\n      add\n      mload\n      dup2\n      0x07\n      add\n      swap1\n      dup2\n      tag_237\n      swap2\n      swap1\n      tag_179\n      jump\t// in\n    tag_237:\n      pop\n      pop\n      pop\n        /* \"contracts/CreatorsContent.sol\":2603:2624  idCourses.increment() */\n      tag_238\n        /* \"contracts/CreatorsContent.sol\":2603:2612  idCourses */\n      0x03\n        /* \"contracts/CreatorsContent.sol\":2603:2622  idCourses.increment */\n      tag_239\n        /* \"contracts/CreatorsContent.sol\":2603:2624  idCourses.increment() */\n      jump\t// in\n    tag_238:\n        /* \"contracts/CreatorsContent.sol\":2285:2631  function createNewContent(... */\n      pop\n      pop\n      pop\n      pop\n      pop\n      jump\t// out\n        /* \"contracts/CreatorsContent.sol\":722:747  Content[] public Contents */\n    tag_58:\n      0x00\n      dup2\n      dup2\n      sload\n      dup2\n      lt\n      tag_240\n      jumpi\n      0x00\n      dup1\n      revert\n    tag_240:\n      swap1\n      0x00\n      mstore\n      keccak256(0x00, 0x20)\n      swap1\n      0x08\n      mul\n      add\n      0x00\n      swap2\n      pop\n      swap1\n      pop\n      dup1\n      0x00\n      add\n      sload\n      swap1\n      dup1\n      0x01\n      add\n      0x00\n      swap1\n      sload\n      swap1\n      0x0100\n      exp\n      swap1\n      div\n      0xffffffffffffffffffffffffffffffffffffffff\n      and\n      swap1\n      dup1\n      0x02\n      add\n      dup1\n      sload\n      tag_242\n      swap1\n      tag_125\n      jump\t// in\n    tag_242:\n      dup1\n      0x1f\n      add\n      0x20\n      dup1\n      swap2\n      div\n      mul\n      0x20\n      add\n      mload(0x40)\n      swap1\n      dup2\n      add\n      0x40\n      mstore\n      dup1\n      swap3\n      swap2\n      swap1\n      dup2\n      dup2\n      mstore\n      0x20\n      add\n      dup3\n      dup1\n      sload\n      tag_243\n      swap1\n      tag_125\n      jump\t// in\n    tag_243:\n      dup1\n      iszero\n      tag_244\n      jumpi\n      dup1\n      0x1f\n      lt\n      tag_245\n      jumpi\n      0x0100\n      dup1\n      dup4\n      sload\n      div\n      mul\n      dup4\n      mstore\n      swap2\n      0x20\n      add\n      swap2\n      jump(tag_244)\n    tag_245:\n      dup3\n      add\n      swap2\n      swap1\n      0x00\n      mstore\n      keccak256(0x00, 0x20)\n      swap1\n    tag_246:\n      dup2\n      sload\n      dup2\n      mstore\n      swap1\n      0x01\n      add\n      swap1\n      0x20\n      add\n      dup1\n      dup4\n      gt\n      tag_246\n      jumpi\n      dup3\n      swap1\n      sub\n      0x1f\n      and\n      dup3\n      add\n      swap2\n    tag_244:\n      pop\n      pop\n      pop\n      pop\n      pop\n      swap1\n      dup1\n      0x03\n      add\n      dup1\n      sload\n      tag_247\n      swap1\n      tag_125\n      jump\t// in\n    tag_247:\n      dup1\n      0x1f\n      add\n      0x20\n      dup1\n      swap2\n      div\n      mul\n      0x20\n      add\n      mload(0x40)\n      swap1\n      dup2\n      add\n      0x40\n      mstore\n      dup1\n      swap3\n      swap2\n      swap1\n      dup2\n      dup2\n      mstore\n      0x20\n      add\n      dup3\n      dup1\n      sload\n      tag_248\n      swap1\n      tag_125\n      jump\t// in\n    tag_248:\n      dup1\n      iszero\n      tag_249\n      jumpi\n      dup1\n      0x1f\n      lt\n      tag_250\n      jumpi\n      0x0100\n      dup1\n      dup4\n      sload\n      div\n      mul\n      dup4\n      mstore\n      swap2\n      0x20\n      add\n      swap2\n      jump(tag_249)\n    tag_250:\n      dup3\n      add\n      swap2\n      swap1\n      0x00\n      mstore\n      keccak256(0x00, 0x20)\n      swap1\n    tag_251:\n      dup2\n      sload\n      dup2\n      mstore\n      swap1\n      0x01\n      add\n      swap1\n      0x20\n      add\n      dup1\n      dup4\n      gt\n      tag_251\n      jumpi\n      dup3\n      swap1\n      sub\n      0x1f\n      and\n      dup3\n      add\n      swap2\n    tag_249:\n      pop\n      pop\n      pop\n      pop\n      pop\n      swap1\n      dup1\n      0x04\n      add\n      sload\n      swap1\n      dup1\n      0x05\n      add\n      dup1\n      sload\n      tag_252\n      swap1\n      tag_125\n      jump\t// in\n    tag_252:\n      dup1\n      0x1f\n      add\n      0x20\n      dup1\n      swap2\n      div\n      mul\n      0x20\n      add\n      mload(0x40)\n      swap1\n      dup2\n      add\n      0x40\n      mstore\n      dup1\n      swap3\n      swap2\n      swap1\n      dup2\n      dup2\n      mstore\n      0x20\n      add\n      dup3\n      dup1\n      sload\n      tag_253\n      swap1\n      tag_125\n      jump\t// in\n    tag_253:\n      dup1\n      iszero\n      tag_254\n      jumpi\n      dup1\n      0x1f\n      lt\n      tag_255\n      jumpi\n      0x0100\n      dup1\n      dup4\n      sload\n      div\n      mul\n      dup4\n      mstore\n      swap2\n      0x20\n      add\n      swap2\n      jump(tag_254)\n    tag_255:\n      dup3\n      add\n      swap2\n      swap1\n      0x00\n      mstore\n      keccak256(0x00, 0x20)\n      swap1\n    tag_256:\n      dup2\n      sload\n      dup2\n      mstore\n      swap1\n      0x01\n      add\n      swap1\n      0x20\n      add\n      dup1\n      dup4\n      gt\n      tag_256\n      jumpi\n      dup3\n      swap1\n      sub\n      0x1f\n      and\n      dup3\n      add\n      swap2\n    tag_254:\n      pop\n      pop\n      pop\n      pop\n      pop\n      swap1\n      dup1\n      0x06\n      add\n      0x00\n      swap1\n      sload\n      swap1\n      0x0100\n      exp\n      swap1\n      div\n      0xff\n      and\n      swap1\n      dup1\n      0x07\n      add\n      dup1\n      sload\n      tag_257\n      swap1\n      tag_125\n      jump\t// in\n    tag_257:\n      dup1\n      0x1f\n      add\n      0x20\n      dup1\n      swap2\n      div\n      mul\n      0x20\n      add\n      mload(0x40)\n      swap1\n      dup2\n      add\n      0x40\n      mstore\n      dup1\n      swap3\n      swap2\n      swap1\n      dup2\n      dup2\n      mstore\n      0x20\n      add\n      dup3\n      dup1\n      sload\n      tag_258\n      swap1\n      tag_125\n      jump\t// in\n    tag_258:\n      dup1\n      iszero\n      tag_259\n      jumpi\n      dup1\n      0x1f\n      lt\n      tag_260\n      jumpi\n      0x0100\n      dup1\n      dup4\n      sload\n      div\n      mul\n      dup4\n      mstore\n      swap2\n      0x20\n      add\n      swap2\n      jump(tag_259)\n    tag_260:\n      dup3\n      add\n      swap2\n      swap1\n      0x00\n      mstore\n      keccak256(0x00, 0x20)\n      swap1\n    tag_261:\n      dup2\n      sload\n      dup2\n      mstore\n      swap1\n      0x01\n      add\n      swap1\n      0x20\n      add\n      dup1\n      dup4\n      gt\n      tag_261\n      jumpi\n      dup3\n      swap1\n      sub\n      0x1f\n      and\n      dup3\n      add\n      swap2\n    tag_259:\n      pop\n      pop\n      pop\n      pop\n      pop\n      swap1\n      pop\n      dup9\n      jump\t// out\n        /* \"contracts/CreatorsContent.sol\":753:778  Profile[] public Profiles */\n    tag_64:\n      0x01\n      dup2\n      dup2\n      sload\n      dup2\n      lt\n      tag_262\n      jumpi\n      0x00\n      dup1\n      revert\n    tag_262:\n      swap1\n      0x00\n      mstore\n      keccak256(0x00, 0x20)\n      swap1\n      0x03\n      mul\n      add\n      0x00\n      swap2\n      pop\n      swap1\n      pop\n      dup1\n      0x00\n      add\n      dup1\n      sload\n      tag_264\n      swap1\n      tag_125\n      jump\t// in\n    tag_264:\n      dup1\n      0x1f\n      add\n      0x20\n      dup1\n      swap2\n      div\n      mul\n      0x20\n      add\n      mload(0x40)\n      swap1\n      dup2\n      add\n      0x40\n      mstore\n      dup1\n      swap3\n      swap2\n      swap1\n      dup2\n      dup2\n      mstore\n      0x20\n      add\n      dup3\n      dup1\n      sload\n      tag_265\n      swap1\n      tag_125\n      jump\t// in\n    tag_265:\n      dup1\n      iszero\n      tag_266\n      jumpi\n      dup1\n      0x1f\n      lt\n      tag_267\n      jumpi\n      0x0100\n      dup1\n      dup4\n      sload\n      div\n      mul\n      dup4\n      mstore\n      swap2\n      0x20\n      add\n      swap2\n      jump(tag_266)\n    tag_267:\n      dup3\n      add\n      swap2\n      swap1\n      0x00\n      mstore\n      keccak256(0x00, 0x20)\n      swap1\n    tag_268:\n      dup2\n      sload\n      dup2\n      mstore\n      swap1\n      0x01\n      add\n      swap1\n      0x20\n      add\n      dup1\n      dup4\n      gt\n      tag_268\n      jumpi\n      dup3\n      swap1\n      sub\n      0x1f\n      and\n      dup3\n      add\n      swap2\n    tag_266:\n      pop\n      pop\n      pop\n      pop\n      pop\n      swap1\n      dup1\n      0x01\n      add\n      0x00\n      swap1\n      sload\n      swap1\n      0x0100\n      exp\n      swap1\n      div\n      0xffffffffffffffffffffffffffffffffffffffff\n      and\n      swap1\n      dup1\n      0x02\n      add\n      dup1\n      sload\n      tag_269\n      swap1\n      tag_125\n      jump\t// in\n    tag_269:\n      dup1\n      0x1f\n      add\n      0x20\n      dup1\n      swap2\n      div\n      mul\n      0x20\n      add\n      mload(0x40)\n      swap1\n      dup2\n      add\n      0x40\n      mstore\n      dup1\n      swap3\n      swap2\n      swap1\n      dup2\n      dup2\n      mstore\n      0x20\n      add\n      dup3\n      dup1\n      sload\n      tag_270\n      swap1\n      tag_125\n      jump\t// in\n    tag_270:\n      dup1\n      iszero\n      tag_271\n      jumpi\n      dup1\n      0x1f\n      lt\n      tag_272\n      jumpi\n      0x0100\n      dup1\n      dup4\n      sload\n      div\n      mul\n      dup4\n      mstore\n      swap2\n      0x20\n      add\n      swap2\n      jump(tag_271)\n    tag_272:\n      dup3\n      add\n      swap2\n      swap1\n      0x00\n      mstore\n      keccak256(0x00, 0x20)\n      swap1\n    tag_273:\n      dup2\n      sload\n      dup2\n      mstore\n      swap1\n      0x01\n      add\n      swap1\n      0x20\n      add\n      dup1\n      dup4\n      gt\n      tag_273\n      jumpi\n      dup3\n      swap1\n      sub\n      0x1f\n      and\n      dup3\n      add\n      swap2\n    tag_271:\n      pop\n      pop\n      pop\n      pop\n      pop\n      swap1\n      pop\n      dup4\n      jump\t// out\n        /* \"contracts/CreatorsContent.sol\":4678:4783  function getContractBalance() public view returns (uint256) {... */\n    tag_69:\n        /* \"contracts/CreatorsContent.sol\":4729:4736  uint256 */\n      0x00\n        /* \"contracts/CreatorsContent.sol\":4755:4776  address(this).balance */\n      selfbalance\n        /* \"contracts/CreatorsContent.sol\":4748:4776  return address(this).balance */\n      swap1\n      pop\n        /* \"contracts/CreatorsContent.sol\":4678:4783  function getContractBalance() public view returns (uint256) {... */\n      swap1\n      jump\t// out\n        /* \"contracts/CreatorsContent.sol\":784:815  ContentBuy[] public ContentBuys */\n    tag_75:\n      0x02\n      dup2\n      dup2\n      sload\n      dup2\n      lt\n      tag_275\n      jumpi\n      0x00\n      dup1\n      revert\n    tag_275:\n      swap1\n      0x00\n      mstore\n      keccak256(0x00, 0x20)\n      swap1\n      0x06\n      mul\n      add\n      0x00\n      swap2\n      pop\n      swap1\n      pop\n      dup1\n      0x00\n      add\n      0x00\n      swap1\n      sload\n      swap1\n      0x0100\n      exp\n      swap1\n      div\n      0xffffffffffffffffffffffffffffffffffffffff\n      and\n      swap1\n      dup1\n      0x01\n      add\n      0x00\n      swap1\n      sload\n      swap1\n      0x0100\n      exp\n      swap1\n      div\n      0xffffffffffffffffffffffffffffffffffffffff\n      and\n      swap1\n      dup1\n      0x02\n      add\n      sload\n      swap1\n      dup1\n      0x03\n      add\n      sload\n      swap1\n      dup1\n      0x04\n      add\n      0x00\n      swap1\n      sload\n      swap1\n      0x0100\n      exp\n      swap1\n      div\n      0xff\n      and\n      swap1\n      dup1\n      0x05\n      add\n      sload\n      swap1\n      pop\n      dup7\n      jump\t// out\n        /* \"contracts/CreatorsContent.sol\":4789:5128  function getAvailableBalance() public view returns (uint256) {... */\n    tag_80:\n        /* \"contracts/CreatorsContent.sol\":4841:4848  uint256 */\n      0x00\n        /* \"contracts/CreatorsContent.sol\":4860:4875  uint256 ammount */\n      dup1\n        /* \"contracts/CreatorsContent.sol\":4891:4900  uint256 i */\n      0x00\n        /* \"contracts/CreatorsContent.sol\":4886:5097  for (uint256 i = 0; i < ContentBuys.length; i++) {... */\n    tag_278:\n        /* \"contracts/CreatorsContent.sol\":4910:4921  ContentBuys */\n      0x02\n        /* \"contracts/CreatorsContent.sol\":4910:4928  ContentBuys.length */\n      dup1\n      sload\n      swap1\n      pop\n        /* \"contracts/CreatorsContent.sol\":4906:4907  i */\n      dup2\n        /* \"contracts/CreatorsContent.sol\":4906:4928  i < ContentBuys.length */\n      lt\n        /* \"contracts/CreatorsContent.sol\":4886:5097  for (uint256 i = 0; i < ContentBuys.length; i++) {... */\n      iszero\n      tag_279\n      jumpi\n        /* \"contracts/CreatorsContent.sol\":4974:4984  msg.sender */\n      caller\n        /* \"contracts/CreatorsContent.sol\":4953:4984  ContentBuys[i].to == msg.sender */\n      0xffffffffffffffffffffffffffffffffffffffff\n      and\n        /* \"contracts/CreatorsContent.sol\":4953:4964  ContentBuys */\n      0x02\n        /* \"contracts/CreatorsContent.sol\":4965:4966  i */\n      dup3\n        /* \"contracts/CreatorsContent.sol\":4953:4967  ContentBuys[i] */\n      dup2\n      sload\n      dup2\n      lt\n      tag_281\n      jumpi\n      tag_282\n      tag_154\n      jump\t// in\n    tag_282:\n    tag_281:\n      swap1\n      0x00\n      mstore\n      keccak256(0x00, 0x20)\n      swap1\n      0x06\n      mul\n      add\n        /* \"contracts/CreatorsContent.sol\":4953:4970  ContentBuys[i].to */\n      0x01\n      add\n      0x00\n      swap1\n      sload\n      swap1\n      0x0100\n      exp\n      swap1\n      div\n      0xffffffffffffffffffffffffffffffffffffffff\n      and\n        /* \"contracts/CreatorsContent.sol\":4953:4984  ContentBuys[i].to == msg.sender */\n      0xffffffffffffffffffffffffffffffffffffffff\n      and\n      eq\n        /* \"contracts/CreatorsContent.sol\":4953:5019  ContentBuys[i].to == msg.sender && ContentBuys[i].isPayed == false */\n      dup1\n      iszero\n      tag_284\n      jumpi\n      pop\n        /* \"contracts/CreatorsContent.sol\":5014:5019  false */\n      0x00\n        /* \"contracts/CreatorsContent.sol\":4988:5019  ContentBuys[i].isPayed == false */\n      iszero\n      iszero\n        /* \"contracts/CreatorsContent.sol\":4988:4999  ContentBuys */\n      0x02\n        /* \"contracts/CreatorsContent.sol\":5000:5001  i */\n      dup3\n        /* \"contracts/CreatorsContent.sol\":4988:5002  ContentBuys[i] */\n      dup2\n      sload\n      dup2\n      lt\n      tag_285\n      jumpi\n      tag_286\n      tag_154\n      jump\t// in\n    tag_286:\n    tag_285:\n      swap1\n      0x00\n      mstore\n      keccak256(0x00, 0x20)\n      swap1\n      0x06\n      mul\n      add\n        /* \"contracts/CreatorsContent.sol\":4988:5010  ContentBuys[i].isPayed */\n      0x04\n      add\n      0x00\n      swap1\n      sload\n      swap1\n      0x0100\n      exp\n      swap1\n      div\n      0xff\n      and\n        /* \"contracts/CreatorsContent.sol\":4988:5019  ContentBuys[i].isPayed == false */\n      iszero\n      iszero\n      eq\n        /* \"contracts/CreatorsContent.sol\":4953:5019  ContentBuys[i].to == msg.sender && ContentBuys[i].isPayed == false */\n    tag_284:\n        /* \"contracts/CreatorsContent.sol\":4949:5087  if (ContentBuys[i].to == msg.sender && ContentBuys[i].isPayed == false) {... */\n      iszero\n      tag_288\n      jumpi\n        /* \"contracts/CreatorsContent.sol\":5050:5061  ContentBuys */\n      0x02\n        /* \"contracts/CreatorsContent.sol\":5062:5063  i */\n      dup2\n        /* \"contracts/CreatorsContent.sol\":5050:5064  ContentBuys[i] */\n      dup2\n      sload\n      dup2\n      lt\n      tag_289\n      jumpi\n      tag_290\n      tag_154\n      jump\t// in\n    tag_290:\n    tag_289:\n      swap1\n      0x00\n      mstore\n      keccak256(0x00, 0x20)\n      swap1\n      0x06\n      mul\n      add\n        /* \"contracts/CreatorsContent.sol\":5050:5072  ContentBuys[i].ammount */\n      0x03\n      add\n      sload\n        /* \"contracts/CreatorsContent.sol\":5039:5072  ammount += ContentBuys[i].ammount */\n      dup3\n      tag_292\n      swap2\n      swap1\n      tag_293\n      jump\t// in\n    tag_292:\n      swap2\n      pop\n        /* \"contracts/CreatorsContent.sol\":4949:5087  if (ContentBuys[i].to == msg.sender && ContentBuys[i].isPayed == false) {... */\n    tag_288:\n        /* \"contracts/CreatorsContent.sol\":4930:4933  i++ */\n      dup1\n      dup1\n      tag_294\n      swap1\n      tag_157\n      jump\t// in\n    tag_294:\n      swap2\n      pop\n      pop\n        /* \"contracts/CreatorsContent.sol\":4886:5097  for (uint256 i = 0; i < ContentBuys.length; i++) {... */\n      jump(tag_278)\n    tag_279:\n      pop\n        /* \"contracts/CreatorsContent.sol\":5114:5121  ammount */\n      dup1\n        /* \"contracts/CreatorsContent.sol\":5107:5121  return ammount */\n      swap2\n      pop\n      pop\n        /* \"contracts/CreatorsContent.sol\":4789:5128  function getAvailableBalance() public view returns (uint256) {... */\n      swap1\n      jump\t// out\n        /* \"contracts/CreatorsContent.sol\":5240:5813  function getBuysFromAuthor() public view returns (ContentBuy[] memory) {... */\n    tag_84:\n        /* \"contracts/CreatorsContent.sol\":5290:5309  ContentBuy[] memory */\n      0x60\n        /* \"contracts/CreatorsContent.sol\":5321:5334  uint256 index */\n      0x00\n        /* \"contracts/CreatorsContent.sol\":5353:5362  uint256 i */\n      dup1\n        /* \"contracts/CreatorsContent.sol\":5349:5498  for(uint256 i = 0; i < ContentBuys.length; i++) {... */\n    tag_296:\n        /* \"contracts/CreatorsContent.sol\":5372:5383  ContentBuys */\n      0x02\n        /* \"contracts/CreatorsContent.sol\":5372:5390  ContentBuys.length */\n      dup1\n      sload\n      swap1\n      pop\n        /* \"contracts/CreatorsContent.sol\":5368:5369  i */\n      dup2\n        /* \"contracts/CreatorsContent.sol\":5368:5390  i < ContentBuys.length */\n      lt\n        /* \"contracts/CreatorsContent.sol\":5349:5498  for(uint256 i = 0; i < ContentBuys.length; i++) {... */\n      iszero\n      tag_297\n      jumpi\n        /* \"contracts/CreatorsContent.sol\":5436:5446  msg.sender */\n      caller\n        /* \"contracts/CreatorsContent.sol\":5415:5446  ContentBuys[i].to == msg.sender */\n      0xffffffffffffffffffffffffffffffffffffffff\n      and\n        /* \"contracts/CreatorsContent.sol\":5415:5426  ContentBuys */\n      0x02\n        /* \"contracts/CreatorsContent.sol\":5427:5428  i */\n      dup3\n        /* \"contracts/CreatorsContent.sol\":5415:5429  ContentBuys[i] */\n      dup2\n      sload\n      dup2\n      lt\n      tag_299\n      jumpi\n      tag_300\n      tag_154\n      jump\t// in\n    tag_300:\n    tag_299:\n      swap1\n      0x00\n      mstore\n      keccak256(0x00, 0x20)\n      swap1\n      0x06\n      mul\n      add\n        /* \"contracts/CreatorsContent.sol\":5415:5432  ContentBuys[i].to */\n      0x01\n      add\n      0x00\n      swap1\n      sload\n      swap1\n      0x0100\n      exp\n      swap1\n      div\n      0xffffffffffffffffffffffffffffffffffffffff\n      and\n        /* \"contracts/CreatorsContent.sol\":5415:5446  ContentBuys[i].to == msg.sender */\n      0xffffffffffffffffffffffffffffffffffffffff\n      and\n      sub\n        /* \"contracts/CreatorsContent.sol\":5411:5488  if (ContentBuys[i].to == msg.sender) {... */\n      tag_302\n      jumpi\n        /* \"contracts/CreatorsContent.sol\":5466:5473  index++ */\n      dup2\n      dup1\n      tag_303\n      swap1\n      tag_157\n      jump\t// in\n    tag_303:\n      swap3\n      pop\n      pop\n        /* \"contracts/CreatorsContent.sol\":5411:5488  if (ContentBuys[i].to == msg.sender) {... */\n    tag_302:\n        /* \"contracts/CreatorsContent.sol\":5392:5395  i++ */\n      dup1\n      dup1\n      tag_304\n      swap1\n      tag_157\n      jump\t// in\n    tag_304:\n      swap2\n      pop\n      pop\n        /* \"contracts/CreatorsContent.sol\":5349:5498  for(uint256 i = 0; i < ContentBuys.length; i++) {... */\n      jump(tag_296)\n    tag_297:\n      pop\n        /* \"contracts/CreatorsContent.sol\":5508:5532  ContentBuy[] memory list */\n      0x00\n        /* \"contracts/CreatorsContent.sol\":5552:5557  index */\n      dup2\n        /* \"contracts/CreatorsContent.sol\":5535:5558  new ContentBuy[](index) */\n      0xffffffffffffffff\n      dup2\n      gt\n      iszero\n      tag_305\n      jumpi\n      tag_306\n      tag_191\n      jump\t// in\n    tag_306:\n    tag_305:\n      mload(0x40)\n      swap1\n      dup1\n      dup3\n      mstore\n      dup1\n      0x20\n      mul\n      0x20\n      add\n      dup3\n      add\n      0x40\n      mstore\n      dup1\n      iszero\n      tag_307\n      jumpi\n      dup2\n      0x20\n      add\n    tag_308:\n      tag_309\n      tag_310\n      jump\t// in\n    tag_309:\n      dup2\n      mstore\n      0x20\n      add\n      swap1\n      0x01\n      swap1\n      sub\n      swap1\n      dup2\n      tag_308\n      jumpi\n      swap1\n      pop\n    tag_307:\n      pop\n        /* \"contracts/CreatorsContent.sol\":5508:5558  ContentBuy[] memory list = new ContentBuy[](index) */\n      swap1\n      pop\n        /* \"contracts/CreatorsContent.sol\":5577:5578  0 */\n      0x00\n        /* \"contracts/CreatorsContent.sol\":5569:5578  index = 0 */\n      swap2\n      pop\n        /* \"contracts/CreatorsContent.sol\":5592:5601  uint256 i */\n      0x00\n        /* \"contracts/CreatorsContent.sol\":5588:5785  for(uint256 i = 0; i < ContentBuys.length; i++) {... */\n    tag_311:\n        /* \"contracts/CreatorsContent.sol\":5611:5622  ContentBuys */\n      0x02\n        /* \"contracts/CreatorsContent.sol\":5611:5629  ContentBuys.length */\n      dup1\n      sload\n      swap1\n      pop\n        /* \"contracts/CreatorsContent.sol\":5607:5608  i */\n      dup2\n        /* \"contracts/CreatorsContent.sol\":5607:5629  i < ContentBuys.length */\n      lt\n        /* \"contracts/CreatorsContent.sol\":5588:5785  for(uint256 i = 0; i < ContentBuys.length; i++) {... */\n      iszero\n      tag_312\n      jumpi\n        /* \"contracts/CreatorsContent.sol\":5675:5685  msg.sender */\n      caller\n        /* \"contracts/CreatorsContent.sol\":5654:5685  ContentBuys[i].to == msg.sender */\n      0xffffffffffffffffffffffffffffffffffffffff\n      and\n        /* \"contracts/CreatorsContent.sol\":5654:5665  ContentBuys */\n      0x02\n        /* \"contracts/CreatorsContent.sol\":5666:5667  i */\n      dup3\n        /* \"contracts/CreatorsContent.sol\":5654:5668  ContentBuys[i] */\n      dup2\n      sload\n      dup2\n      lt\n      tag_314\n      jumpi\n      tag_315\n      tag_154\n      jump\t// in\n    tag_315:\n    tag_314:\n      swap1\n      0x00\n      mstore\n      keccak256(0x00, 0x20)\n      swap1\n      0x06\n      mul\n      add\n        /* \"contracts/CreatorsContent.sol\":5654:5671  ContentBuys[i].to */\n      0x01\n      add\n      0x00\n      swap1\n      sload\n      swap1\n      0x0100\n      exp\n      swap1\n      div\n      0xffffffffffffffffffffffffffffffffffffffff\n      and\n        /* \"contracts/CreatorsContent.sol\":5654:5685  ContentBuys[i].to == msg.sender */\n      0xffffffffffffffffffffffffffffffffffffffff\n      and\n      sub\n        /* \"contracts/CreatorsContent.sol\":5650:5775  if (ContentBuys[i].to == msg.sender) {... */\n      tag_317\n      jumpi\n        /* \"contracts/CreatorsContent.sol\":5720:5731  ContentBuys */\n      0x02\n        /* \"contracts/CreatorsContent.sol\":5732:5733  i */\n      dup2\n        /* \"contracts/CreatorsContent.sol\":5720:5734  ContentBuys[i] */\n      dup2\n      sload\n      dup2\n      lt\n      tag_318\n      jumpi\n      tag_319\n      tag_154\n      jump\t// in\n    tag_319:\n    tag_318:\n      swap1\n      0x00\n      mstore\n      keccak256(0x00, 0x20)\n      swap1\n      0x06\n      mul\n      add\n        /* \"contracts/CreatorsContent.sol\":5705:5735  list[index] = (ContentBuys[i]) */\n      mload(0x40)\n      dup1\n      0xc0\n      add\n      0x40\n      mstore\n      swap1\n      dup2\n      0x00\n      dup3\n      add\n      0x00\n      swap1\n      sload\n      swap1\n      0x0100\n      exp\n      swap1\n      div\n      0xffffffffffffffffffffffffffffffffffffffff\n      and\n      0xffffffffffffffffffffffffffffffffffffffff\n      and\n      0xffffffffffffffffffffffffffffffffffffffff\n      and\n      dup2\n      mstore\n      0x20\n      add\n      0x01\n      dup3\n      add\n      0x00\n      swap1\n      sload\n      swap1\n      0x0100\n      exp\n      swap1\n      div\n      0xffffffffffffffffffffffffffffffffffffffff\n      and\n      0xffffffffffffffffffffffffffffffffffffffff\n      and\n      0xffffffffffffffffffffffffffffffffffffffff\n      and\n      dup2\n      mstore\n      0x20\n      add\n      0x02\n      dup3\n      add\n      sload\n      dup2\n      mstore\n      0x20\n      add\n      0x03\n      dup3\n      add\n      sload\n      dup2\n      mstore\n      0x20\n      add\n      0x04\n      dup3\n      add\n      0x00\n      swap1\n      sload\n      swap1\n      0x0100\n      exp\n      swap1\n      div\n      0xff\n      and\n      iszero\n      iszero\n      iszero\n      iszero\n      dup2\n      mstore\n      0x20\n      add\n      0x05\n      dup3\n      add\n      sload\n      dup2\n      mstore\n      pop\n      pop\n        /* \"contracts/CreatorsContent.sol\":5705:5709  list */\n      dup3\n        /* \"contracts/CreatorsContent.sol\":5710:5715  index */\n      dup5\n        /* \"contracts/CreatorsContent.sol\":5705:5716  list[index] */\n      dup2\n      mload\n      dup2\n      lt\n      tag_321\n      jumpi\n      tag_322\n      tag_154\n      jump\t// in\n    tag_322:\n    tag_321:\n      0x20\n      mul\n      0x20\n      add\n      add\n        /* \"contracts/CreatorsContent.sol\":5705:5735  list[index] = (ContentBuys[i]) */\n      dup2\n      swap1\n      mstore\n      pop\n        /* \"contracts/CreatorsContent.sol\":5753:5760  index++ */\n      dup3\n      dup1\n      tag_323\n      swap1\n      tag_157\n      jump\t// in\n    tag_323:\n      swap4\n      pop\n      pop\n        /* \"contracts/CreatorsContent.sol\":5650:5775  if (ContentBuys[i].to == msg.sender) {... */\n    tag_317:\n        /* \"contracts/CreatorsContent.sol\":5631:5634  i++ */\n      dup1\n      dup1\n      tag_324\n      swap1\n      tag_157\n      jump\t// in\n    tag_324:\n      swap2\n      pop\n      pop\n        /* \"contracts/CreatorsContent.sol\":5588:5785  for(uint256 i = 0; i < ContentBuys.length; i++) {... */\n      jump(tag_311)\n    tag_312:\n      pop\n        /* \"contracts/CreatorsContent.sol\":5802:5806  list */\n      dup1\n        /* \"contracts/CreatorsContent.sol\":5795:5806  return list */\n      swap3\n      pop\n      pop\n      pop\n        /* \"contracts/CreatorsContent.sol\":5240:5813  function getBuysFromAuthor() public view returns (ContentBuy[] memory) {... */\n      swap1\n      jump\t// out\n        /* \"contracts/CreatorsContent.sol\":1249:1542  function getCourseDetail(uint256 id) public view returns (Content memory) {... */\n    tag_90:\n        /* \"contracts/CreatorsContent.sol\":1307:1321  Content memory */\n      tag_325\n      tag_195\n      jump\t// in\n    tag_325:\n        /* \"contracts/CreatorsContent.sol\":1333:1354  Content memory detail */\n      tag_327\n      tag_195\n      jump\t// in\n    tag_327:\n        /* \"contracts/CreatorsContent.sol\":1370:1379  uint256 i */\n      0x00\n        /* \"contracts/CreatorsContent.sol\":1365:1513  for (uint256 i=0; i < Contents.length ; i++) {... */\n    tag_328:\n        /* \"contracts/CreatorsContent.sol\":1387:1395  Contents */\n      0x00\n        /* \"contracts/CreatorsContent.sol\":1387:1402  Contents.length */\n      dup1\n      sload\n      swap1\n      pop\n        /* \"contracts/CreatorsContent.sol\":1383:1384  i */\n      dup2\n        /* \"contracts/CreatorsContent.sol\":1383:1402  i < Contents.length */\n      lt\n        /* \"contracts/CreatorsContent.sol\":1365:1513  for (uint256 i=0; i < Contents.length ; i++) {... */\n      iszero\n      tag_329\n      jumpi\n        /* \"contracts/CreatorsContent.sol\":1446:1448  id */\n      dup4\n        /* \"contracts/CreatorsContent.sol\":1428:1436  Contents */\n      0x00\n        /* \"contracts/CreatorsContent.sol\":1437:1438  i */\n      dup3\n        /* \"contracts/CreatorsContent.sol\":1428:1439  Contents[i] */\n      dup2\n      sload\n      dup2\n      lt\n      tag_331\n      jumpi\n      tag_332\n      tag_154\n      jump\t// in\n    tag_332:\n    tag_331:\n      swap1\n      0x00\n      mstore\n      keccak256(0x00, 0x20)\n      swap1\n      0x08\n      mul\n      add\n        /* \"contracts/CreatorsContent.sol\":1428:1442  Contents[i].id */\n      0x00\n      add\n      sload\n        /* \"contracts/CreatorsContent.sol\":1428:1448  Contents[i].id == id */\n      sub\n        /* \"contracts/CreatorsContent.sol\":1424:1503  if (Contents[i].id == id) {... */\n      tag_334\n      jumpi\n        /* \"contracts/CreatorsContent.sol\":1477:1485  Contents */\n      0x00\n        /* \"contracts/CreatorsContent.sol\":1486:1487  i */\n      dup2\n        /* \"contracts/CreatorsContent.sol\":1477:1488  Contents[i] */\n      dup2\n      sload\n      dup2\n      lt\n      tag_335\n      jumpi\n      tag_336\n      tag_154\n      jump\t// in\n    tag_336:\n    tag_335:\n      swap1\n      0x00\n      mstore\n      keccak256(0x00, 0x20)\n      swap1\n      0x08\n      mul\n      add\n        /* \"contracts/CreatorsContent.sol\":1468:1488  detail = Contents[i] */\n      mload(0x40)\n      dup1\n      0x0100\n      add\n      0x40\n      mstore\n      swap1\n      dup2\n      0x00\n      dup3\n      add\n      sload\n      dup2\n      mstore\n      0x20\n      add\n      0x01\n      dup3\n      add\n      0x00\n      swap1\n      sload\n      swap1\n      0x0100\n      exp\n      swap1\n      div\n      0xffffffffffffffffffffffffffffffffffffffff\n      and\n      0xffffffffffffffffffffffffffffffffffffffff\n      and\n      0xffffffffffffffffffffffffffffffffffffffff\n      and\n      dup2\n      mstore\n      0x20\n      add\n      0x02\n      dup3\n      add\n      dup1\n      sload\n      tag_338\n      swap1\n      tag_125\n      jump\t// in\n    tag_338:\n      dup1\n      0x1f\n      add\n      0x20\n      dup1\n      swap2\n      div\n      mul\n      0x20\n      add\n      mload(0x40)\n      swap1\n      dup2\n      add\n      0x40\n      mstore\n      dup1\n      swap3\n      swap2\n      swap1\n      dup2\n      dup2\n      mstore\n      0x20\n      add\n      dup3\n      dup1\n      sload\n      tag_339\n      swap1\n      tag_125\n      jump\t// in\n    tag_339:\n      dup1\n      iszero\n      tag_340\n      jumpi\n      dup1\n      0x1f\n      lt\n      tag_341\n      jumpi\n      0x0100\n      dup1\n      dup4\n      sload\n      div\n      mul\n      dup4\n      mstore\n      swap2\n      0x20\n      add\n      swap2\n      jump(tag_340)\n    tag_341:\n      dup3\n      add\n      swap2\n      swap1\n      0x00\n      mstore\n      keccak256(0x00, 0x20)\n      swap1\n    tag_342:\n      dup2\n      sload\n      dup2\n      mstore\n      swap1\n      0x01\n      add\n      swap1\n      0x20\n      add\n      dup1\n      dup4\n      gt\n      tag_342\n      jumpi\n      dup3\n      swap1\n      sub\n      0x1f\n      and\n      dup3\n      add\n      swap2\n    tag_340:\n      pop\n      pop\n      pop\n      pop\n      pop\n      dup2\n      mstore\n      0x20\n      add\n      0x03\n      dup3\n      add\n      dup1\n      sload\n      tag_343\n      swap1\n      tag_125\n      jump\t// in\n    tag_343:\n      dup1\n      0x1f\n      add\n      0x20\n      dup1\n      swap2\n      div\n      mul\n      0x20\n      add\n      mload(0x40)\n      swap1\n      dup2\n      add\n      0x40\n      mstore\n      dup1\n      swap3\n      swap2\n      swap1\n      dup2\n      dup2\n      mstore\n      0x20\n      add\n      dup3\n      dup1\n      sload\n      tag_344\n      swap1\n      tag_125\n      jump\t// in\n    tag_344:\n      dup1\n      iszero\n      tag_345\n      jumpi\n      dup1\n      0x1f\n      lt\n      tag_346\n      jumpi\n      0x0100\n      dup1\n      dup4\n      sload\n      div\n      mul\n      dup4\n      mstore\n      swap2\n      0x20\n      add\n      swap2\n      jump(tag_345)\n    tag_346:\n      dup3\n      add\n      swap2\n      swap1\n      0x00\n      mstore\n      keccak256(0x00, 0x20)\n      swap1\n    tag_347:\n      dup2\n      sload\n      dup2\n      mstore\n      swap1\n      0x01\n      add\n      swap1\n      0x20\n      add\n      dup1\n      dup4\n      gt\n      tag_347\n      jumpi\n      dup3\n      swap1\n      sub\n      0x1f\n      and\n      dup3\n      add\n      swap2\n    tag_345:\n      pop\n      pop\n      pop\n      pop\n      pop\n      dup2\n      mstore\n      0x20\n      add\n      0x04\n      dup3\n      add\n      sload\n      dup2\n      mstore\n      0x20\n      add\n      0x05\n      dup3\n      add\n      dup1\n      sload\n      tag_348\n      swap1\n      tag_125\n      jump\t// in\n    tag_348:\n      dup1\n      0x1f\n      add\n      0x20\n      dup1\n      swap2\n      div\n      mul\n      0x20\n      add\n      mload(0x40)\n      swap1\n      dup2\n      add\n      0x40\n      mstore\n      dup1\n      swap3\n      swap2\n      swap1\n      dup2\n      dup2\n      mstore\n      0x20\n      add\n      dup3\n      dup1\n      sload\n      tag_349\n      swap1\n      tag_125\n      jump\t// in\n    tag_349:\n      dup1\n      iszero\n      tag_350\n      jumpi\n      dup1\n      0x1f\n      lt\n      tag_351\n      jumpi\n      0x0100\n      dup1\n      dup4\n      sload\n      div\n      mul\n      dup4\n      mstore\n      swap2\n      0x20\n      add\n      swap2\n      jump(tag_350)\n    tag_351:\n      dup3\n      add\n      swap2\n      swap1\n      0x00\n      mstore\n      keccak256(0x00, 0x20)\n      swap1\n    tag_352:\n      dup2\n      sload\n      dup2\n      mstore\n      swap1\n      0x01\n      add\n      swap1\n      0x20\n      add\n      dup1\n      dup4\n      gt\n      tag_352\n      jumpi\n      dup3\n      swap1\n      sub\n      0x1f\n      and\n      dup3\n      add\n      swap2\n    tag_350:\n      pop\n      pop\n      pop\n      pop\n      pop\n      dup2\n      mstore\n      0x20\n      add\n      0x06\n      dup3\n      add\n      0x00\n      swap1\n      sload\n      swap1\n      0x0100\n      exp\n      swap1\n      div\n      0xff\n      and\n      iszero\n      iszero\n      iszero\n      iszero\n      dup2\n      mstore\n      0x20\n      add\n      0x07\n      dup3\n      add\n      dup1\n      sload\n      tag_353\n      swap1\n      tag_125\n      jump\t// in\n    tag_353:\n      dup1\n      0x1f\n      add\n      0x20\n      dup1\n      swap2\n      div\n      mul\n      0x20\n      add\n      mload(0x40)\n      swap1\n      dup2\n      add\n      0x40\n      mstore\n      dup1\n      swap3\n      swap2\n      swap1\n      dup2\n      dup2\n      mstore\n      0x20\n      add\n      dup3\n      dup1\n      sload\n      tag_354\n      swap1\n      tag_125\n      jump\t// in\n    tag_354:\n      dup1\n      iszero\n      tag_355\n      jumpi\n      dup1\n      0x1f\n      lt\n      tag_356\n      jumpi\n      0x0100\n      dup1\n      dup4\n      sload\n      div\n      mul\n      dup4\n      mstore\n      swap2\n      0x20\n      add\n      swap2\n      jump(tag_355)\n    tag_356:\n      dup3\n      add\n      swap2\n      swap1\n      0x00\n      mstore\n      keccak256(0x00, 0x20)\n      swap1\n    tag_357:\n      dup2\n      sload\n      dup2\n      mstore\n      swap1\n      0x01\n      add\n      swap1\n      0x20\n      add\n      dup1\n      dup4\n      gt\n      tag_357\n      jumpi\n      dup3\n      swap1\n      sub\n      0x1f\n      and\n      dup3\n      add\n      swap2\n    tag_355:\n      pop\n      pop\n      pop\n      pop\n      pop\n      dup2\n      mstore\n      pop\n      pop\n      swap2\n      pop\n        /* \"contracts/CreatorsContent.sol\":1424:1503  if (Contents[i].id == id) {... */\n    tag_334:\n        /* \"contracts/CreatorsContent.sol\":1405:1408  i++ */\n      dup1\n      dup1\n      tag_358\n      swap1\n      tag_157\n      jump\t// in\n    tag_358:\n      swap2\n      pop\n      pop\n        /* \"contracts/CreatorsContent.sol\":1365:1513  for (uint256 i=0; i < Contents.length ; i++) {... */\n      jump(tag_328)\n    tag_329:\n      pop\n        /* \"contracts/CreatorsContent.sol\":1529:1535  detail */\n      dup1\n        /* \"contracts/CreatorsContent.sol\":1522:1535  return detail */\n      swap2\n      pop\n      pop\n        /* \"contracts/CreatorsContent.sol\":1249:1542  function getCourseDetail(uint256 id) public view returns (Content memory) {... */\n      swap2\n      swap1\n      pop\n      jump\t// out\n        /* \"contracts/CreatorsContent.sol\":2637:2816  function compareStrings(string memory a, string memory b) public pure returns (bool) {... */\n    tag_96:\n        /* \"contracts/CreatorsContent.sol\":2716:2720  bool */\n      0x00\n        /* \"contracts/CreatorsContent.sol\":2804:2805  b */\n      dup2\n        /* \"contracts/CreatorsContent.sol\":2786:2807  abi.encodePacked((b)) */\n      add(0x20, mload(0x40))\n      tag_360\n      swap2\n      swap1\n      tag_361\n      jump\t// in\n    tag_360:\n      mload(0x40)\n      0x20\n      dup2\n      dup4\n      sub\n      sub\n      dup2\n      mstore\n      swap1\n      0x40\n      mstore\n        /* \"contracts/CreatorsContent.sol\":2776:2808  keccak256(abi.encodePacked((b))) */\n      dup1\n      mload\n      swap1\n      0x20\n      add\n      keccak256\n        /* \"contracts/CreatorsContent.sol\":2768:2769  a */\n      dup4\n        /* \"contracts/CreatorsContent.sol\":2750:2771  abi.encodePacked((a)) */\n      add(0x20, mload(0x40))\n      tag_362\n      swap2\n      swap1\n      tag_361\n      jump\t// in\n    tag_362:\n      mload(0x40)\n      0x20\n      dup2\n      dup4\n      sub\n      sub\n      dup2\n      mstore\n      swap1\n      0x40\n      mstore\n        /* \"contracts/CreatorsContent.sol\":2740:2772  keccak256(abi.encodePacked((a))) */\n      dup1\n      mload\n      swap1\n      0x20\n      add\n      keccak256\n        /* \"contracts/CreatorsContent.sol\":2740:2808  keccak256(abi.encodePacked((a))) == keccak256(abi.encodePacked((b))) */\n      eq\n        /* \"contracts/CreatorsContent.sol\":2732:2809  return (keccak256(abi.encodePacked((a))) == keccak256(abi.encodePacked((b)))) */\n      swap1\n      pop\n        /* \"contracts/CreatorsContent.sol\":2637:2816  function compareStrings(string memory a, string memory b) public pure returns (bool) {... */\n      swap3\n      swap2\n      pop\n      pop\n      jump\t// out\n        /* \"contracts/CreatorsContent.sol\":5136:5234  function getAllBuys() public view returns(ContentBuy[] memory) {... */\n    tag_100:\n        /* \"contracts/CreatorsContent.sol\":5178:5197  ContentBuy[] memory */\n      0x60\n        /* \"contracts/CreatorsContent.sol\":5216:5227  ContentBuys */\n      0x02\n        /* \"contracts/CreatorsContent.sol\":5209:5227  return ContentBuys */\n      dup1\n      sload\n      dup1\n      0x20\n      mul\n      0x20\n      add\n      mload(0x40)\n      swap1\n      dup2\n      add\n      0x40\n      mstore\n      dup1\n      swap3\n      swap2\n      swap1\n      dup2\n      dup2\n      mstore\n      0x20\n      add\n      0x00\n      swap1\n    tag_364:\n      dup3\n      dup3\n      lt\n      iszero\n      tag_365\n      jumpi\n      dup4\n      dup3\n      swap1\n      0x00\n      mstore\n      keccak256(0x00, 0x20)\n      swap1\n      0x06\n      mul\n      add\n      mload(0x40)\n      dup1\n      0xc0\n      add\n      0x40\n      mstore\n      swap1\n      dup2\n      0x00\n      dup3\n      add\n      0x00\n      swap1\n      sload\n      swap1\n      0x0100\n      exp\n      swap1\n      div\n      0xffffffffffffffffffffffffffffffffffffffff\n      and\n      0xffffffffffffffffffffffffffffffffffffffff\n      and\n      0xffffffffffffffffffffffffffffffffffffffff\n      and\n      dup2\n      mstore\n      0x20\n      add\n      0x01\n      dup3\n      add\n      0x00\n      swap1\n      sload\n      swap1\n      0x0100\n      exp\n      swap1\n      div\n      0xffffffffffffffffffffffffffffffffffffffff\n      and\n      0xffffffffffffffffffffffffffffffffffffffff\n      and\n      0xffffffffffffffffffffffffffffffffffffffff\n      and\n      dup2\n      mstore\n      0x20\n      add\n      0x02\n      dup3\n      add\n      sload\n      dup2\n      mstore\n      0x20\n      add\n      0x03\n      dup3\n      add\n      sload\n      dup2\n      mstore\n      0x20\n      add\n      0x04\n      dup3\n      add\n      0x00\n      swap1\n      sload\n      swap1\n      0x0100\n      exp\n      swap1\n      div\n      0xff\n      and\n      iszero\n      iszero\n      iszero\n      iszero\n      dup2\n      mstore\n      0x20\n      add\n      0x05\n      dup3\n      add\n      sload\n      dup2\n      mstore\n      pop\n      pop\n      dup2\n      mstore\n      0x20\n      add\n      swap1\n      0x01\n      add\n      swap1\n      jump(tag_364)\n    tag_365:\n      pop\n      pop\n      pop\n      pop\n      swap1\n      pop\n        /* \"contracts/CreatorsContent.sol\":5136:5234  function getAllBuys() public view returns(ContentBuy[] memory) {... */\n      swap1\n      jump\t// out\n        /* \"contracts/CreatorsContent.sol\":6746:7151  function buyContent(uint256 idCourse) payable public {... */\n    tag_104:\n        /* \"contracts/CreatorsContent.sol\":6863:6885  Content memory content */\n      0x00\n        /* \"contracts/CreatorsContent.sol\":6888:6913  getCourseDetail(idCourse) */\n      tag_368\n        /* \"contracts/CreatorsContent.sol\":6904:6912  idCourse */\n      dup3\n        /* \"contracts/CreatorsContent.sol\":6888:6903  getCourseDetail */\n      tag_90\n        /* \"contracts/CreatorsContent.sol\":6888:6913  getCourseDetail(idCourse) */\n      jump\t// in\n    tag_368:\n        /* \"contracts/CreatorsContent.sol\":6863:6913  Content memory content = getCourseDetail(idCourse) */\n      swap1\n      pop\n        /* \"contracts/CreatorsContent.sol\":6996:7007  ContentBuys */\n      0x02\n        /* \"contracts/CreatorsContent.sol\":7014:7098  ContentBuy(msg.sender, content.author, idCourse, msg.value, false, idBuys.current()) */\n      mload(0x40)\n      dup1\n      0xc0\n      add\n      0x40\n      mstore\n      dup1\n        /* \"contracts/CreatorsContent.sol\":7025:7035  msg.sender */\n      caller\n        /* \"contracts/CreatorsContent.sol\":7014:7098  ContentBuy(msg.sender, content.author, idCourse, msg.value, false, idBuys.current()) */\n      0xffffffffffffffffffffffffffffffffffffffff\n      and\n      dup2\n      mstore\n      0x20\n      add\n        /* \"contracts/CreatorsContent.sol\":7037:7044  content */\n      dup4\n        /* \"contracts/CreatorsContent.sol\":7037:7051  content.author */\n      0x20\n      add\n      mload\n        /* \"contracts/CreatorsContent.sol\":7014:7098  ContentBuy(msg.sender, content.author, idCourse, msg.value, false, idBuys.current()) */\n      0xffffffffffffffffffffffffffffffffffffffff\n      and\n      dup2\n      mstore\n      0x20\n      add\n        /* \"contracts/CreatorsContent.sol\":7053:7061  idCourse */\n      dup5\n        /* \"contracts/CreatorsContent.sol\":7014:7098  ContentBuy(msg.sender, content.author, idCourse, msg.value, false, idBuys.current()) */\n      dup2\n      mstore\n      0x20\n      add\n        /* \"contracts/CreatorsContent.sol\":7063:7072  msg.value */\n      callvalue\n        /* \"contracts/CreatorsContent.sol\":7014:7098  ContentBuy(msg.sender, content.author, idCourse, msg.value, false, idBuys.current()) */\n      dup2\n      mstore\n      0x20\n      add\n        /* \"contracts/CreatorsContent.sol\":7074:7079  false */\n      0x00\n        /* \"contracts/CreatorsContent.sol\":7014:7098  ContentBuy(msg.sender, content.author, idCourse, msg.value, false, idBuys.current()) */\n      iszero\n      iszero\n      dup2\n      mstore\n      0x20\n      add\n        /* \"contracts/CreatorsContent.sol\":7081:7097  idBuys.current() */\n      tag_369\n        /* \"contracts/CreatorsContent.sol\":7081:7087  idBuys */\n      0x04\n        /* \"contracts/CreatorsContent.sol\":7081:7095  idBuys.current */\n      tag_232\n        /* \"contracts/CreatorsContent.sol\":7081:7097  idBuys.current() */\n      jump\t// in\n    tag_369:\n        /* \"contracts/CreatorsContent.sol\":7014:7098  ContentBuy(msg.sender, content.author, idCourse, msg.value, false, idBuys.current()) */\n      dup2\n      mstore\n      pop\n        /* \"contracts/CreatorsContent.sol\":6996:7099  ContentBuys.push( ContentBuy(msg.sender, content.author, idCourse, msg.value, false, idBuys.current())) */\n      swap1\n      dup1\n      0x01\n      dup2\n      sload\n      add\n      dup1\n      dup3\n      sstore\n      dup1\n      swap2\n      pop\n      pop\n      0x01\n      swap1\n      sub\n      swap1\n      0x00\n      mstore\n      keccak256(0x00, 0x20)\n      swap1\n      0x06\n      mul\n      add\n      0x00\n      swap1\n      swap2\n      swap1\n      swap2\n      swap1\n      swap2\n      pop\n      0x00\n      dup3\n      add\n      mload\n      dup2\n      0x00\n      add\n      exp(0x0100, 0x00)\n      dup2\n      sload\n      dup2\n      0xffffffffffffffffffffffffffffffffffffffff\n      mul\n      not\n      and\n      swap1\n      dup4\n      0xffffffffffffffffffffffffffffffffffffffff\n      and\n      mul\n      or\n      swap1\n      sstore\n      pop\n      0x20\n      dup3\n      add\n      mload\n      dup2\n      0x01\n      add\n      exp(0x0100, 0x00)\n      dup2\n      sload\n      dup2\n      0xffffffffffffffffffffffffffffffffffffffff\n      mul\n      not\n      and\n      swap1\n      dup4\n      0xffffffffffffffffffffffffffffffffffffffff\n      and\n      mul\n      or\n      swap1\n      sstore\n      pop\n      0x40\n      dup3\n      add\n      mload\n      dup2\n      0x02\n      add\n      sstore\n      0x60\n      dup3\n      add\n      mload\n      dup2\n      0x03\n      add\n      sstore\n      0x80\n      dup3\n      add\n      mload\n      dup2\n      0x04\n      add\n      exp(0x0100, 0x00)\n      dup2\n      sload\n      dup2\n      0xff\n      mul\n      not\n      and\n      swap1\n      dup4\n      iszero\n      iszero\n      mul\n      or\n      swap1\n      sstore\n      pop\n      0xa0\n      dup3\n      add\n      mload\n      dup2\n      0x05\n      add\n      sstore\n      pop\n      pop\n        /* \"contracts/CreatorsContent.sol\":7109:7127  idBuys.increment() */\n      tag_371\n        /* \"contracts/CreatorsContent.sol\":7109:7115  idBuys */\n      0x04\n        /* \"contracts/CreatorsContent.sol\":7109:7125  idBuys.increment */\n      tag_239\n        /* \"contracts/CreatorsContent.sol\":7109:7127  idBuys.increment() */\n      jump\t// in\n    tag_371:\n        /* \"contracts/CreatorsContent.sol\":7137:7144  return; */\n      pop\n        /* \"contracts/CreatorsContent.sol\":6746:7151  function buyContent(uint256 idCourse) payable public {... */\n      pop\n      jump\t// out\n        /* \"contracts/CreatorsContent.sol\":3931:4319  function setProfileHandle(string memory handle) public returns (bool) {... */\n    tag_109:\n        /* \"contracts/CreatorsContent.sol\":3995:3999  bool */\n      0x00\n        /* \"contracts/CreatorsContent.sol\":4012:4025  uint256 index */\n      dup1\n        /* \"contracts/CreatorsContent.sol\":4028:4064  getProficeIndexByAddress(msg.sender) */\n      tag_373\n        /* \"contracts/CreatorsContent.sol\":4053:4063  msg.sender */\n      caller\n        /* \"contracts/CreatorsContent.sol\":4028:4052  getProficeIndexByAddress */\n      tag_374\n        /* \"contracts/CreatorsContent.sol\":4028:4064  getProficeIndexByAddress(msg.sender) */\n      jump\t// in\n    tag_373:\n        /* \"contracts/CreatorsContent.sol\":4012:4064  uint256 index = getProficeIndexByAddress(msg.sender) */\n      swap1\n      pop\n        /* \"contracts/CreatorsContent.sol\":4080:4089  uint256 i */\n      0x00\n        /* \"contracts/CreatorsContent.sol\":4075:4250  for (uint256 i=0; i < Profiles.length; i++) {... */\n    tag_375:\n        /* \"contracts/CreatorsContent.sol\":4097:4105  Profiles */\n      0x01\n        /* \"contracts/CreatorsContent.sol\":4097:4112  Profiles.length */\n      dup1\n      sload\n      swap1\n      pop\n        /* \"contracts/CreatorsContent.sol\":4093:4094  i */\n      dup2\n        /* \"contracts/CreatorsContent.sol\":4093:4112  i < Profiles.length */\n      lt\n        /* \"contracts/CreatorsContent.sol\":4075:4250  for (uint256 i=0; i < Profiles.length; i++) {... */\n      iszero\n      tag_376\n      jumpi\n        /* \"contracts/CreatorsContent.sol\":4137:4179  compareStrings(Profiles[i].handle, handle) */\n      tag_378\n        /* \"contracts/CreatorsContent.sol\":4152:4160  Profiles */\n      0x01\n        /* \"contracts/CreatorsContent.sol\":4161:4162  i */\n      dup3\n        /* \"contracts/CreatorsContent.sol\":4152:4163  Profiles[i] */\n      dup2\n      sload\n      dup2\n      lt\n      tag_379\n      jumpi\n      tag_380\n      tag_154\n      jump\t// in\n    tag_380:\n    tag_379:\n      swap1\n      0x00\n      mstore\n      keccak256(0x00, 0x20)\n      swap1\n      0x03\n      mul\n      add\n        /* \"contracts/CreatorsContent.sol\":4152:4170  Profiles[i].handle */\n      0x00\n      add\n        /* \"contracts/CreatorsContent.sol\":4137:4179  compareStrings(Profiles[i].handle, handle) */\n      dup1\n      sload\n      tag_382\n      swap1\n      tag_125\n      jump\t// in\n    tag_382:\n      dup1\n      0x1f\n      add\n      0x20\n      dup1\n      swap2\n      div\n      mul\n      0x20\n      add\n      mload(0x40)\n      swap1\n      dup2\n      add\n      0x40\n      mstore\n      dup1\n      swap3\n      swap2\n      swap1\n      dup2\n      dup2\n      mstore\n      0x20\n      add\n      dup3\n      dup1\n      sload\n      tag_383\n      swap1\n      tag_125\n      jump\t// in\n    tag_383:\n      dup1\n      iszero\n      tag_384\n      jumpi\n      dup1\n      0x1f\n      lt\n      tag_385\n      jumpi\n      0x0100\n      dup1\n      dup4\n      sload\n      div\n      mul\n      dup4\n      mstore\n      swap2\n      0x20\n      add\n      swap2\n      jump(tag_384)\n    tag_385:\n      dup3\n      add\n      swap2\n      swap1\n      0x00\n      mstore\n      keccak256(0x00, 0x20)\n      swap1\n    tag_386:\n      dup2\n      sload\n      dup2\n      mstore\n      swap1\n      0x01\n      add\n      swap1\n      0x20\n      add\n      dup1\n      dup4\n      gt\n      tag_386\n      jumpi\n      dup3\n      swap1\n      sub\n      0x1f\n      and\n      dup3\n      add\n      swap2\n    tag_384:\n      pop\n      pop\n      pop\n      pop\n      pop\n        /* \"contracts/CreatorsContent.sol\":4172:4178  handle */\n      dup6\n        /* \"contracts/CreatorsContent.sol\":4137:4151  compareStrings */\n      tag_96\n        /* \"contracts/CreatorsContent.sol\":4137:4179  compareStrings(Profiles[i].handle, handle) */\n      jump\t// in\n    tag_378:\n        /* \"contracts/CreatorsContent.sol\":4137:4193  compareStrings(Profiles[i].handle, handle) && i != index */\n      dup1\n      iszero\n      tag_387\n      jumpi\n      pop\n        /* \"contracts/CreatorsContent.sol\":4188:4193  index */\n      dup2\n        /* \"contracts/CreatorsContent.sol\":4183:4184  i */\n      dup2\n        /* \"contracts/CreatorsContent.sol\":4183:4193  i != index */\n      eq\n      iszero\n        /* \"contracts/CreatorsContent.sol\":4137:4193  compareStrings(Profiles[i].handle, handle) && i != index */\n    tag_387:\n        /* \"contracts/CreatorsContent.sol\":4133:4240  if (compareStrings(Profiles[i].handle, handle) && i != index) {... */\n      iszero\n      tag_388\n      jumpi\n        /* \"contracts/CreatorsContent.sol\":4220:4225  false */\n      0x00\n        /* \"contracts/CreatorsContent.sol\":4213:4225  return false */\n      swap3\n      pop\n      pop\n      pop\n      jump(tag_372)\n        /* \"contracts/CreatorsContent.sol\":4133:4240  if (compareStrings(Profiles[i].handle, handle) && i != index) {... */\n    tag_388:\n        /* \"contracts/CreatorsContent.sol\":4114:4117  i++ */\n      dup1\n      dup1\n      tag_389\n      swap1\n      tag_157\n      jump\t// in\n    tag_389:\n      swap2\n      pop\n      pop\n        /* \"contracts/CreatorsContent.sol\":4075:4250  for (uint256 i=0; i < Profiles.length; i++) {... */\n      jump(tag_375)\n    tag_376:\n      pop\n        /* \"contracts/CreatorsContent.sol\":4285:4291  handle */\n      dup3\n        /* \"contracts/CreatorsContent.sol\":4260:4268  Profiles */\n      0x01\n        /* \"contracts/CreatorsContent.sol\":4269:4274  index */\n      dup3\n        /* \"contracts/CreatorsContent.sol\":4260:4275  Profiles[index] */\n      dup2\n      sload\n      dup2\n      lt\n      tag_390\n      jumpi\n      tag_391\n      tag_154\n      jump\t// in\n    tag_391:\n    tag_390:\n      swap1\n      0x00\n      mstore\n      keccak256(0x00, 0x20)\n      swap1\n      0x03\n      mul\n      add\n        /* \"contracts/CreatorsContent.sol\":4260:4282  Profiles[index].handle */\n      0x00\n      add\n        /* \"contracts/CreatorsContent.sol\":4260:4291  Profiles[index].handle = handle */\n      swap1\n      dup2\n      tag_393\n      swap2\n      swap1\n      tag_179\n      jump\t// in\n    tag_393:\n      pop\n        /* \"contracts/CreatorsContent.sol\":4308:4312  true */\n      0x01\n        /* \"contracts/CreatorsContent.sol\":4301:4312  return true */\n      swap2\n      pop\n      pop\n        /* \"contracts/CreatorsContent.sol\":3931:4319  function setProfileHandle(string memory handle) public returns (bool) {... */\n    tag_372:\n      swap2\n      swap1\n      pop\n      jump\t// out\n        /* \"contracts/CreatorsContent.sol\":4325:4493  function setProfileImage(string memory image) public {... */\n    tag_114:\n        /* \"contracts/CreatorsContent.sol\":4389:4402  uint256 index */\n      0x00\n        /* \"contracts/CreatorsContent.sol\":4405:4441  getProficeIndexByAddress(msg.sender) */\n      tag_395\n        /* \"contracts/CreatorsContent.sol\":4430:4440  msg.sender */\n      caller\n        /* \"contracts/CreatorsContent.sol\":4405:4429  getProficeIndexByAddress */\n      tag_374\n        /* \"contracts/CreatorsContent.sol\":4405:4441  getProficeIndexByAddress(msg.sender) */\n      jump\t// in\n    tag_395:\n        /* \"contracts/CreatorsContent.sol\":4389:4441  uint256 index = getProficeIndexByAddress(msg.sender) */\n      swap1\n      pop\n        /* \"contracts/CreatorsContent.sol\":4481:4486  image */\n      dup2\n        /* \"contracts/CreatorsContent.sol\":4452:4460  Profiles */\n      0x01\n        /* \"contracts/CreatorsContent.sol\":4461:4466  index */\n      dup3\n        /* \"contracts/CreatorsContent.sol\":4452:4467  Profiles[index] */\n      dup2\n      sload\n      dup2\n      lt\n      tag_396\n      jumpi\n      tag_397\n      tag_154\n      jump\t// in\n    tag_397:\n    tag_396:\n      swap1\n      0x00\n      mstore\n      keccak256(0x00, 0x20)\n      swap1\n      0x03\n      mul\n      add\n        /* \"contracts/CreatorsContent.sol\":4452:4478  Profiles[index].profilePic */\n      0x02\n      add\n        /* \"contracts/CreatorsContent.sol\":4452:4486  Profiles[index].profilePic = image */\n      swap1\n      dup2\n      tag_399\n      swap2\n      swap1\n      tag_179\n      jump\t// in\n    tag_399:\n      pop\n        /* \"contracts/CreatorsContent.sol\":4378:4493  {... */\n      pop\n        /* \"contracts/CreatorsContent.sol\":4325:4493  function setProfileImage(string memory image) public {... */\n      pop\n      jump\t// out\n        /* \"contracts/CreatorsContent.sol\":5819:6423  function getBalanceForSingleBuy(address payable addr, uint256 indexBuy) public payable {... */\n    tag_118:\n        /* \"contracts/CreatorsContent.sol\":5916:5936  uint256 indexToClaim */\n      0x00\n        /* \"contracts/CreatorsContent.sol\":5939:5950  ContentBuys */\n      0x02\n        /* \"contracts/CreatorsContent.sol\":5939:5957  ContentBuys.length */\n      dup1\n      sload\n      swap1\n      pop\n        /* \"contracts/CreatorsContent.sol\":5916:5957  uint256 indexToClaim = ContentBuys.length */\n      swap1\n      pop\n        /* \"contracts/CreatorsContent.sol\":5973:5982  uint256 i */\n      0x00\n        /* \"contracts/CreatorsContent.sol\":5968:6166  for (uint256 i = 0; i < ContentBuys.length; i++ ) {... */\n    tag_401:\n        /* \"contracts/CreatorsContent.sol\":5992:6003  ContentBuys */\n      0x02\n        /* \"contracts/CreatorsContent.sol\":5992:6010  ContentBuys.length */\n      dup1\n      sload\n      swap1\n      pop\n        /* \"contracts/CreatorsContent.sol\":5988:5989  i */\n      dup2\n        /* \"contracts/CreatorsContent.sol\":5988:6010  i < ContentBuys.length */\n      lt\n        /* \"contracts/CreatorsContent.sol\":5968:6166  for (uint256 i = 0; i < ContentBuys.length; i++ ) {... */\n      iszero\n      tag_402\n      jumpi\n        /* \"contracts/CreatorsContent.sol\":6057:6065  indexBuy */\n      dup3\n        /* \"contracts/CreatorsContent.sol\":6036:6047  ContentBuys */\n      0x02\n        /* \"contracts/CreatorsContent.sol\":6048:6049  i */\n      dup3\n        /* \"contracts/CreatorsContent.sol\":6036:6050  ContentBuys[i] */\n      dup2\n      sload\n      dup2\n      lt\n      tag_404\n      jumpi\n      tag_405\n      tag_154\n      jump\t// in\n    tag_405:\n    tag_404:\n      swap1\n      0x00\n      mstore\n      keccak256(0x00, 0x20)\n      swap1\n      0x06\n      mul\n      add\n        /* \"contracts/CreatorsContent.sol\":6036:6053  ContentBuys[i].id */\n      0x05\n      add\n      sload\n        /* \"contracts/CreatorsContent.sol\":6036:6065  ContentBuys[i].id == indexBuy */\n      sub\n        /* \"contracts/CreatorsContent.sol\":6032:6156  if (ContentBuys[i].id == indexBuy) {... */\n      tag_407\n      jumpi\n        /* \"contracts/CreatorsContent.sol\":6100:6101  i */\n      dup1\n        /* \"contracts/CreatorsContent.sol\":6085:6101  indexToClaim = i */\n      swap2\n      pop\n        /* \"contracts/CreatorsContent.sol\":6123:6134  ContentBuys */\n      0x02\n        /* \"contracts/CreatorsContent.sol\":6123:6141  ContentBuys.length */\n      dup1\n      sload\n      swap1\n      pop\n        /* \"contracts/CreatorsContent.sol\":6119:6141  i = ContentBuys.length */\n      swap1\n      pop\n        /* \"contracts/CreatorsContent.sol\":6032:6156  if (ContentBuys[i].id == indexBuy) {... */\n    tag_407:\n        /* \"contracts/CreatorsContent.sol\":6012:6015  i++ */\n      dup1\n      dup1\n      tag_408\n      swap1\n      tag_157\n      jump\t// in\n    tag_408:\n      swap2\n      pop\n      pop\n        /* \"contracts/CreatorsContent.sol\":5968:6166  for (uint256 i = 0; i < ContentBuys.length; i++ ) {... */\n      jump(tag_401)\n    tag_402:\n      pop\n        /* \"contracts/CreatorsContent.sol\":6199:6210  ContentBuys */\n      0x02\n        /* \"contracts/CreatorsContent.sol\":6199:6217  ContentBuys.length */\n      dup1\n      sload\n      swap1\n      pop\n        /* \"contracts/CreatorsContent.sol\":6184:6196  indexToClaim */\n      dup2\n        /* \"contracts/CreatorsContent.sol\":6184:6217  indexToClaim < ContentBuys.length */\n      lt\n        /* \"contracts/CreatorsContent.sol\":6176:6218  require(indexToClaim < ContentBuys.length) */\n      tag_409\n      jumpi\n      0x00\n      dup1\n      revert\n    tag_409:\n        /* \"contracts/CreatorsContent.sol\":6268:6272  addr */\n      dup3\n        /* \"contracts/CreatorsContent.sol\":6236:6272  ContentBuys[indexToClaim].to == addr */\n      0xffffffffffffffffffffffffffffffffffffffff\n      and\n        /* \"contracts/CreatorsContent.sol\":6236:6247  ContentBuys */\n      0x02\n        /* \"contracts/CreatorsContent.sol\":6248:6260  indexToClaim */\n      dup3\n        /* \"contracts/CreatorsContent.sol\":6236:6261  ContentBuys[indexToClaim] */\n      dup2\n      sload\n      dup2\n      lt\n      tag_410\n      jumpi\n      tag_411\n      tag_154\n      jump\t// in\n    tag_411:\n    tag_410:\n      swap1\n      0x00\n      mstore\n      keccak256(0x00, 0x20)\n      swap1\n      0x06\n      mul\n      add\n        /* \"contracts/CreatorsContent.sol\":6236:6264  ContentBuys[indexToClaim].to */\n      0x01\n      add\n      0x00\n      swap1\n      sload\n      swap1\n      0x0100\n      exp\n      swap1\n      div\n      0xffffffffffffffffffffffffffffffffffffffff\n      and\n        /* \"contracts/CreatorsContent.sol\":6236:6272  ContentBuys[indexToClaim].to == addr */\n      0xffffffffffffffffffffffffffffffffffffffff\n      and\n      eq\n        /* \"contracts/CreatorsContent.sol\":6236:6314  ContentBuys[indexToClaim].to == addr && ContentBuys[indexBuy].isPayed == false */\n      dup1\n      iszero\n      tag_413\n      jumpi\n      pop\n        /* \"contracts/CreatorsContent.sol\":6309:6314  false */\n      0x00\n        /* \"contracts/CreatorsContent.sol\":6276:6314  ContentBuys[indexBuy].isPayed == false */\n      iszero\n      iszero\n        /* \"contracts/CreatorsContent.sol\":6276:6287  ContentBuys */\n      0x02\n        /* \"contracts/CreatorsContent.sol\":6288:6296  indexBuy */\n      dup4\n        /* \"contracts/CreatorsContent.sol\":6276:6297  ContentBuys[indexBuy] */\n      dup2\n      sload\n      dup2\n      lt\n      tag_414\n      jumpi\n      tag_415\n      tag_154\n      jump\t// in\n    tag_415:\n    tag_414:\n      swap1\n      0x00\n      mstore\n      keccak256(0x00, 0x20)\n      swap1\n      0x06\n      mul\n      add\n        /* \"contracts/CreatorsContent.sol\":6276:6305  ContentBuys[indexBuy].isPayed */\n      0x04\n      add\n      0x00\n      swap1\n      sload\n      swap1\n      0x0100\n      exp\n      swap1\n      div\n      0xff\n      and\n        /* \"contracts/CreatorsContent.sol\":6276:6314  ContentBuys[indexBuy].isPayed == false */\n      iszero\n      iszero\n      eq\n        /* \"contracts/CreatorsContent.sol\":6236:6314  ContentBuys[indexToClaim].to == addr && ContentBuys[indexBuy].isPayed == false */\n    tag_413:\n        /* \"contracts/CreatorsContent.sol\":6228:6315  require(ContentBuys[indexToClaim].to == addr && ContentBuys[indexBuy].isPayed == false) */\n      tag_417\n      jumpi\n      0x00\n      dup1\n      revert\n    tag_417:\n        /* \"contracts/CreatorsContent.sol\":6326:6330  addr */\n      dup3\n        /* \"contracts/CreatorsContent.sol\":6326:6339  addr.transfer */\n      0xffffffffffffffffffffffffffffffffffffffff\n      and\n        /* \"contracts/CreatorsContent.sol\":6326:6370  addr.transfer(ContentBuys[indexBuy].ammount) */\n      0x08fc\n        /* \"contracts/CreatorsContent.sol\":6340:6351  ContentBuys */\n      0x02\n        /* \"contracts/CreatorsContent.sol\":6352:6360  indexBuy */\n      dup5\n        /* \"contracts/CreatorsContent.sol\":6340:6361  ContentBuys[indexBuy] */\n      dup2\n      sload\n      dup2\n      lt\n      tag_418\n      jumpi\n      tag_419\n      tag_154\n      jump\t// in\n    tag_419:\n    tag_418:\n      swap1\n      0x00\n      mstore\n      keccak256(0x00, 0x20)\n      swap1\n      0x06\n      mul\n      add\n        /* \"contracts/CreatorsContent.sol\":6340:6369  ContentBuys[indexBuy].ammount */\n      0x03\n      add\n      sload\n        /* \"contracts/CreatorsContent.sol\":6326:6370  addr.transfer(ContentBuys[indexBuy].ammount) */\n      swap1\n      dup2\n      iszero\n      mul\n      swap1\n      mload(0x40)\n      0x00\n      mload(0x40)\n      dup1\n      dup4\n      sub\n      dup2\n      dup6\n      dup9\n      dup9\n      call\n      swap4\n      pop\n      pop\n      pop\n      pop\n      iszero\n      dup1\n      iszero\n      tag_422\n      jumpi\n      returndatasize\n      0x00\n      dup1\n      returndatacopy\n      revert(0x00, returndatasize)\n    tag_422:\n      pop\n        /* \"contracts/CreatorsContent.sol\":6412:6416  true */\n      0x01\n        /* \"contracts/CreatorsContent.sol\":6380:6391  ContentBuys */\n      0x02\n        /* \"contracts/CreatorsContent.sol\":6392:6400  indexBuy */\n      dup4\n        /* \"contracts/CreatorsContent.sol\":6380:6401  ContentBuys[indexBuy] */\n      dup2\n      sload\n      dup2\n      lt\n      tag_423\n      jumpi\n      tag_424\n      tag_154\n      jump\t// in\n    tag_424:\n    tag_423:\n      swap1\n      0x00\n      mstore\n      keccak256(0x00, 0x20)\n      swap1\n      0x06\n      mul\n      add\n        /* \"contracts/CreatorsContent.sol\":6380:6409  ContentBuys[indexBuy].isPayed */\n      0x04\n      add\n      0x00\n        /* \"contracts/CreatorsContent.sol\":6380:6416  ContentBuys[indexBuy].isPayed = true */\n      0x0100\n      exp\n      dup2\n      sload\n      dup2\n      0xff\n      mul\n      not\n      and\n      swap1\n      dup4\n      iszero\n      iszero\n      mul\n      or\n      swap1\n      sstore\n      pop\n        /* \"contracts/CreatorsContent.sol\":5906:6423  {... */\n      pop\n        /* \"contracts/CreatorsContent.sol\":5819:6423  function getBalanceForSingleBuy(address payable addr, uint256 indexBuy) public payable {... */\n      pop\n      pop\n      jump\t// out\n        /* \"@openzeppelin/contracts/utils/Counters.sol\":1309:1393  function reset(Counter storage counter) internal {... */\n    tag_119:\n        /* \"@openzeppelin/contracts/utils/Counters.sol\":1385:1386  0 */\n      0x00\n        /* \"@openzeppelin/contracts/utils/Counters.sol\":1368:1375  counter */\n      dup2\n        /* \"@openzeppelin/contracts/utils/Counters.sol\":1368:1382  counter._value */\n      0x00\n      add\n        /* \"@openzeppelin/contracts/utils/Counters.sol\":1368:1386  counter._value = 0 */\n      dup2\n      swap1\n      sstore\n      pop\n        /* \"@openzeppelin/contracts/utils/Counters.sol\":1309:1393  function reset(Counter storage counter) internal {... */\n      pop\n      jump\t// out\n        /* \"contracts/CreatorsContent.sol\":2822:3122  function getProfileByAddress(address addr) private view returns (Profile memory) {... */\n    tag_185:\n        /* \"contracts/CreatorsContent.sol\":2887:2901  Profile memory */\n      tag_427\n      tag_182\n      jump\t// in\n    tag_427:\n        /* \"contracts/CreatorsContent.sol\":2918:2927  uint256 i */\n      0x00\n        /* \"contracts/CreatorsContent.sol\":2913:3062  for (uint256 i=0; i < Profiles.length; i++) {... */\n    tag_429:\n        /* \"contracts/CreatorsContent.sol\":2935:2943  Profiles */\n      0x01\n        /* \"contracts/CreatorsContent.sol\":2935:2950  Profiles.length */\n      dup1\n      sload\n      swap1\n      pop\n        /* \"contracts/CreatorsContent.sol\":2931:2932  i */\n      dup2\n        /* \"contracts/CreatorsContent.sol\":2931:2950  i < Profiles.length */\n      lt\n        /* \"contracts/CreatorsContent.sol\":2913:3062  for (uint256 i=0; i < Profiles.length; i++) {... */\n      iszero\n      tag_430\n      jumpi\n        /* \"contracts/CreatorsContent.sol\":2995:2999  addr */\n      dup3\n        /* \"contracts/CreatorsContent.sol\":2975:2999  Profiles[i].addr == addr */\n      0xffffffffffffffffffffffffffffffffffffffff\n      and\n        /* \"contracts/CreatorsContent.sol\":2975:2983  Profiles */\n      0x01\n        /* \"contracts/CreatorsContent.sol\":2984:2985  i */\n      dup3\n        /* \"contracts/CreatorsContent.sol\":2975:2986  Profiles[i] */\n      dup2\n      sload\n      dup2\n      lt\n      tag_432\n      jumpi\n      tag_433\n      tag_154\n      jump\t// in\n    tag_433:\n    tag_432:\n      swap1\n      0x00\n      mstore\n      keccak256(0x00, 0x20)\n      swap1\n      0x03\n      mul\n      add\n        /* \"contracts/CreatorsContent.sol\":2975:2991  Profiles[i].addr */\n      0x01\n      add\n      0x00\n      swap1\n      sload\n      swap1\n      0x0100\n      exp\n      swap1\n      div\n      0xffffffffffffffffffffffffffffffffffffffff\n      and\n        /* \"contracts/CreatorsContent.sol\":2975:2999  Profiles[i].addr == addr */\n      0xffffffffffffffffffffffffffffffffffffffff\n      and\n      sub\n        /* \"contracts/CreatorsContent.sol\":2971:3052  if (Profiles[i].addr == addr) {... */\n      tag_435\n      jumpi\n        /* \"contracts/CreatorsContent.sol\":3026:3034  Profiles */\n      0x01\n        /* \"contracts/CreatorsContent.sol\":3035:3036  i */\n      dup2\n        /* \"contracts/CreatorsContent.sol\":3026:3037  Profiles[i] */\n      dup2\n      sload\n      dup2\n      lt\n      tag_436\n      jumpi\n      tag_437\n      tag_154\n      jump\t// in\n    tag_437:\n    tag_436:\n      swap1\n      0x00\n      mstore\n      keccak256(0x00, 0x20)\n      swap1\n      0x03\n      mul\n      add\n        /* \"contracts/CreatorsContent.sol\":3019:3037  return Profiles[i] */\n      mload(0x40)\n      dup1\n      0x60\n      add\n      0x40\n      mstore\n      swap1\n      dup2\n      0x00\n      dup3\n      add\n      dup1\n      sload\n      tag_439\n      swap1\n      tag_125\n      jump\t// in\n    tag_439:\n      dup1\n      0x1f\n      add\n      0x20\n      dup1\n      swap2\n      div\n      mul\n      0x20\n      add\n      mload(0x40)\n      swap1\n      dup2\n      add\n      0x40\n      mstore\n      dup1\n      swap3\n      swap2\n      swap1\n      dup2\n      dup2\n      mstore\n      0x20\n      add\n      dup3\n      dup1\n      sload\n      tag_440\n      swap1\n      tag_125\n      jump\t// in\n    tag_440:\n      dup1\n      iszero\n      tag_441\n      jumpi\n      dup1\n      0x1f\n      lt\n      tag_442\n      jumpi\n      0x0100\n      dup1\n      dup4\n      sload\n      div\n      mul\n      dup4\n      mstore\n      swap2\n      0x20\n      add\n      swap2\n      jump(tag_441)\n    tag_442:\n      dup3\n      add\n      swap2\n      swap1\n      0x00\n      mstore\n      keccak256(0x00, 0x20)\n      swap1\n    tag_443:\n      dup2\n      sload\n      dup2\n      mstore\n      swap1\n      0x01\n      add\n      swap1\n      0x20\n      add\n      dup1\n      dup4\n      gt\n      tag_443\n      jumpi\n      dup3\n      swap1\n      sub\n      0x1f\n      and\n      dup3\n      add\n      swap2\n    tag_441:\n      pop\n      pop\n      pop\n      pop\n      pop\n      dup2\n      mstore\n      0x20\n      add\n      0x01\n      dup3\n      add\n      0x00\n      swap1\n      sload\n      swap1\n      0x0100\n      exp\n      swap1\n      div\n      0xffffffffffffffffffffffffffffffffffffffff\n      and\n      0xffffffffffffffffffffffffffffffffffffffff\n      and\n      0xffffffffffffffffffffffffffffffffffffffff\n      and\n      dup2\n      mstore\n      0x20\n      add\n      0x02\n      dup3\n      add\n      dup1\n      sload\n      tag_444\n      swap1\n      tag_125\n      jump\t// in\n    tag_444:\n      dup1\n      0x1f\n      add\n      0x20\n      dup1\n      swap2\n      div\n      mul\n      0x20\n      add\n      mload(0x40)\n      swap1\n      dup2\n      add\n      0x40\n      mstore\n      dup1\n      swap3\n      swap2\n      swap1\n      dup2\n      dup2\n      mstore\n      0x20\n      add\n      dup3\n      dup1\n      sload\n      tag_445\n      swap1\n      tag_125\n      jump\t// in\n    tag_445:\n      dup1\n      iszero\n      tag_446\n      jumpi\n      dup1\n      0x1f\n      lt\n      tag_447\n      jumpi\n      0x0100\n      dup1\n      dup4\n      sload\n      div\n      mul\n      dup4\n      mstore\n      swap2\n      0x20\n      add\n      swap2\n      jump(tag_446)\n    tag_447:\n      dup3\n      add\n      swap2\n      swap1\n      0x00\n      mstore\n      keccak256(0x00, 0x20)\n      swap1\n    tag_448:\n      dup2\n      sload\n      dup2\n      mstore\n      swap1\n      0x01\n      add\n      swap1\n      0x20\n      add\n      dup1\n      dup4\n      gt\n      tag_448\n      jumpi\n      dup3\n      swap1\n      sub\n      0x1f\n      and\n      dup3\n      add\n      swap2\n    tag_446:\n      pop\n      pop\n      pop\n      pop\n      pop\n      dup2\n      mstore\n      pop\n      pop\n      swap2\n      pop\n      pop\n      jump(tag_428)\n        /* \"contracts/CreatorsContent.sol\":2971:3052  if (Profiles[i].addr == addr) {... */\n    tag_435:\n        /* \"contracts/CreatorsContent.sol\":2952:2955  i++ */\n      dup1\n      dup1\n      tag_449\n      swap1\n      tag_157\n      jump\t// in\n    tag_449:\n      swap2\n      pop\n      pop\n        /* \"contracts/CreatorsContent.sol\":2913:3062  for (uint256 i=0; i < Profiles.length; i++) {... */\n      jump(tag_429)\n    tag_430:\n      pop\n        /* \"contracts/CreatorsContent.sol\":3072:3092  Profile memory empty */\n      tag_450\n      tag_182\n      jump\t// in\n    tag_450:\n        /* \"contracts/CreatorsContent.sol\":3110:3115  empty */\n      dup1\n        /* \"contracts/CreatorsContent.sol\":3103:3115  return empty */\n      swap2\n      pop\n      pop\n        /* \"contracts/CreatorsContent.sol\":2822:3122  function getProfileByAddress(address addr) private view returns (Profile memory) {... */\n    tag_428:\n      swap2\n      swap1\n      pop\n      jump\t// out\n        /* \"contracts/CreatorsContent.sol\":970:1243  function getUserCoursesLen(address user) private view returns (uint256) {... */\n    tag_188:\n        /* \"contracts/CreatorsContent.sol\":1033:1040  uint256 */\n      0x00\n        /* \"contracts/CreatorsContent.sol\":1052:1063  uint256 len */\n      dup1\n        /* \"contracts/CreatorsContent.sol\":1066:1067  0 */\n      0x00\n        /* \"contracts/CreatorsContent.sol\":1052:1067  uint256 len = 0 */\n      swap1\n      pop\n        /* \"contracts/CreatorsContent.sol\":1082:1091  uint256 i */\n      0x00\n        /* \"contracts/CreatorsContent.sol\":1077:1217  for (uint256 i=0; i < Contents.length ; i++) {... */\n    tag_452:\n        /* \"contracts/CreatorsContent.sol\":1099:1107  Contents */\n      0x00\n        /* \"contracts/CreatorsContent.sol\":1099:1114  Contents.length */\n      dup1\n      sload\n      swap1\n      pop\n        /* \"contracts/CreatorsContent.sol\":1095:1096  i */\n      dup2\n        /* \"contracts/CreatorsContent.sol\":1095:1114  i < Contents.length */\n      lt\n        /* \"contracts/CreatorsContent.sol\":1077:1217  for (uint256 i=0; i < Contents.length ; i++) {... */\n      iszero\n      tag_453\n      jumpi\n        /* \"contracts/CreatorsContent.sol\":1162:1166  user */\n      dup4\n        /* \"contracts/CreatorsContent.sol\":1140:1166  Contents[i].author == user */\n      0xffffffffffffffffffffffffffffffffffffffff\n      and\n        /* \"contracts/CreatorsContent.sol\":1140:1148  Contents */\n      0x00\n        /* \"contracts/CreatorsContent.sol\":1149:1150  i */\n      dup3\n        /* \"contracts/CreatorsContent.sol\":1140:1151  Contents[i] */\n      dup2\n      sload\n      dup2\n      lt\n      tag_455\n      jumpi\n      tag_456\n      tag_154\n      jump\t// in\n    tag_456:\n    tag_455:\n      swap1\n      0x00\n      mstore\n      keccak256(0x00, 0x20)\n      swap1\n      0x08\n      mul\n      add\n        /* \"contracts/CreatorsContent.sol\":1140:1158  Contents[i].author */\n      0x01\n      add\n      0x00\n      swap1\n      sload\n      swap1\n      0x0100\n      exp\n      swap1\n      div\n      0xffffffffffffffffffffffffffffffffffffffff\n      and\n        /* \"contracts/CreatorsContent.sol\":1140:1166  Contents[i].author == user */\n      0xffffffffffffffffffffffffffffffffffffffff\n      and\n      sub\n        /* \"contracts/CreatorsContent.sol\":1136:1207  if (Contents[i].author == user) {... */\n      tag_458\n      jumpi\n        /* \"contracts/CreatorsContent.sol\":1186:1192  len ++ */\n      dup2\n      dup1\n      tag_459\n      swap1\n      tag_157\n      jump\t// in\n    tag_459:\n      swap3\n      pop\n      pop\n        /* \"contracts/CreatorsContent.sol\":1136:1207  if (Contents[i].author == user) {... */\n    tag_458:\n        /* \"contracts/CreatorsContent.sol\":1117:1120  i++ */\n      dup1\n      dup1\n      tag_460\n      swap1\n      tag_157\n      jump\t// in\n    tag_460:\n      swap2\n      pop\n      pop\n        /* \"contracts/CreatorsContent.sol\":1077:1217  for (uint256 i=0; i < Contents.length ; i++) {... */\n      jump(tag_452)\n    tag_453:\n      pop\n        /* \"contracts/CreatorsContent.sol\":1233:1236  len */\n      dup1\n        /* \"contracts/CreatorsContent.sol\":1226:1236  return len */\n      swap2\n      pop\n      pop\n        /* \"contracts/CreatorsContent.sol\":970:1243  function getUserCoursesLen(address user) private view returns (uint256) {... */\n      swap2\n      swap1\n      pop\n      jump\t// out\n        /* \"@openzeppelin/contracts/utils/Counters.sol\":827:939  function current(Counter storage counter) internal view returns (uint256) {... */\n    tag_232:\n        /* \"@openzeppelin/contracts/utils/Counters.sol\":892:899  uint256 */\n      0x00\n        /* \"@openzeppelin/contracts/utils/Counters.sol\":918:925  counter */\n      dup2\n        /* \"@openzeppelin/contracts/utils/Counters.sol\":918:932  counter._value */\n      0x00\n      add\n      sload\n        /* \"@openzeppelin/contracts/utils/Counters.sol\":911:932  return counter._value */\n      swap1\n      pop\n        /* \"@openzeppelin/contracts/utils/Counters.sol\":827:939  function current(Counter storage counter) internal view returns (uint256) {... */\n      swap2\n      swap1\n      pop\n      jump\t// out\n        /* \"@openzeppelin/contracts/utils/Counters.sol\":945:1068  function increment(Counter storage counter) internal {... */\n    tag_239:\n        /* \"@openzeppelin/contracts/utils/Counters.sol\":1050:1051  1 */\n      0x01\n        /* \"@openzeppelin/contracts/utils/Counters.sol\":1032:1039  counter */\n      dup2\n        /* \"@openzeppelin/contracts/utils/Counters.sol\":1032:1046  counter._value */\n      0x00\n      add\n      0x00\n        /* \"@openzeppelin/contracts/utils/Counters.sol\":1032:1051  counter._value += 1 */\n      dup3\n      dup3\n      sload\n      add\n      swap3\n      pop\n      pop\n      dup2\n      swap1\n      sstore\n      pop\n        /* \"@openzeppelin/contracts/utils/Counters.sol\":945:1068  function increment(Counter storage counter) internal {... */\n      pop\n      jump\t// out\n        /* \"contracts/CreatorsContent.sol\":3128:3442  function getProficeIndexByAddress(address addr) private view returns (uint256) {... */\n    tag_374:\n        /* \"contracts/CreatorsContent.sol\":3198:3205  uint256 */\n      0x00\n        /* \"contracts/CreatorsContent.sol\":3222:3231  uint256 i */\n      dup1\n        /* \"contracts/CreatorsContent.sol\":3232:3233  0 */\n      0x00\n        /* \"contracts/CreatorsContent.sol\":3222:3233  uint256 i=0 */\n      swap1\n      pop\n        /* \"contracts/CreatorsContent.sol\":3217:3356  for (uint256 i=0; i < Profiles.length; i++) {... */\n    tag_464:\n        /* \"contracts/CreatorsContent.sol\":3239:3247  Profiles */\n      0x01\n        /* \"contracts/CreatorsContent.sol\":3239:3254  Profiles.length */\n      dup1\n      sload\n      swap1\n      pop\n        /* \"contracts/CreatorsContent.sol\":3235:3236  i */\n      dup2\n        /* \"contracts/CreatorsContent.sol\":3235:3254  i < Profiles.length */\n      lt\n        /* \"contracts/CreatorsContent.sol\":3217:3356  for (uint256 i=0; i < Profiles.length; i++) {... */\n      iszero\n      tag_465\n      jumpi\n        /* \"contracts/CreatorsContent.sol\":3299:3303  addr */\n      dup3\n        /* \"contracts/CreatorsContent.sol\":3279:3303  Profiles[i].addr == addr */\n      0xffffffffffffffffffffffffffffffffffffffff\n      and\n        /* \"contracts/CreatorsContent.sol\":3279:3287  Profiles */\n      0x01\n        /* \"contracts/CreatorsContent.sol\":3288:3289  i */\n      dup3\n        /* \"contracts/CreatorsContent.sol\":3279:3290  Profiles[i] */\n      dup2\n      sload\n      dup2\n      lt\n      tag_467\n      jumpi\n      tag_468\n      tag_154\n      jump\t// in\n    tag_468:\n    tag_467:\n      swap1\n      0x00\n      mstore\n      keccak256(0x00, 0x20)\n      swap1\n      0x03\n      mul\n      add\n        /* \"contracts/CreatorsContent.sol\":3279:3295  Profiles[i].addr */\n      0x01\n      add\n      0x00\n      swap1\n      sload\n      swap1\n      0x0100\n      exp\n      swap1\n      div\n      0xffffffffffffffffffffffffffffffffffffffff\n      and\n        /* \"contracts/CreatorsContent.sol\":3279:3303  Profiles[i].addr == addr */\n      0xffffffffffffffffffffffffffffffffffffffff\n      and\n      sub\n        /* \"contracts/CreatorsContent.sol\":3275:3346  if (Profiles[i].addr == addr) {... */\n      tag_470\n      jumpi\n        /* \"contracts/CreatorsContent.sol\":3330:3331  i */\n      dup1\n        /* \"contracts/CreatorsContent.sol\":3323:3331  return i */\n      swap2\n      pop\n      pop\n      jump(tag_463)\n        /* \"contracts/CreatorsContent.sol\":3275:3346  if (Profiles[i].addr == addr) {... */\n    tag_470:\n        /* \"contracts/CreatorsContent.sol\":3256:3259  i++ */\n      dup1\n      dup1\n      tag_471\n      swap1\n      tag_157\n      jump\t// in\n    tag_471:\n      swap2\n      pop\n      pop\n        /* \"contracts/CreatorsContent.sol\":3217:3356  for (uint256 i=0; i < Profiles.length; i++) {... */\n      jump(tag_464)\n    tag_465:\n      pop\n        /* \"contracts/CreatorsContent.sol\":3420:3428  Profiles */\n      0x01\n        /* \"contracts/CreatorsContent.sol\":3420:3435  Profiles.length */\n      dup1\n      sload\n      swap1\n      pop\n        /* \"contracts/CreatorsContent.sol\":3413:3435  return Profiles.length */\n      swap1\n      pop\n        /* \"contracts/CreatorsContent.sol\":3128:3442  function getProficeIndexByAddress(address addr) private view returns (uint256) {... */\n    tag_463:\n      swap2\n      swap1\n      pop\n      jump\t// out\n    tag_182:\n      mload(0x40)\n      dup1\n      0x60\n      add\n      0x40\n      mstore\n      dup1\n      0x60\n      dup2\n      mstore\n      0x20\n      add\n      and(0xffffffffffffffffffffffffffffffffffffffff, 0x00)\n      dup2\n      mstore\n      0x20\n      add\n      0x60\n      dup2\n      mstore\n      pop\n      swap1\n      jump\t// out\n    tag_195:\n      mload(0x40)\n      dup1\n      0x0100\n      add\n      0x40\n      mstore\n      dup1\n      0x00\n      dup2\n      mstore\n      0x20\n      add\n      and(0xffffffffffffffffffffffffffffffffffffffff, 0x00)\n      dup2\n      mstore\n      0x20\n      add\n      0x60\n      dup2\n      mstore\n      0x20\n      add\n      0x60\n      dup2\n      mstore\n      0x20\n      add\n      0x00\n      dup2\n      mstore\n      0x20\n      add\n      0x60\n      dup2\n      mstore\n      0x20\n      add\n      iszero(iszero(0x00))\n      dup2\n      mstore\n      0x20\n      add\n      0x60\n      dup2\n      mstore\n      pop\n      swap1\n      jump\t// out\n    tag_310:\n      mload(0x40)\n      dup1\n      0xc0\n      add\n      0x40\n      mstore\n      dup1\n      and(0xffffffffffffffffffffffffffffffffffffffff, 0x00)\n      dup2\n      mstore\n      0x20\n      add\n      and(0xffffffffffffffffffffffffffffffffffffffff, 0x00)\n      dup2\n      mstore\n      0x20\n      add\n      0x00\n      dup2\n      mstore\n      0x20\n      add\n      0x00\n      dup2\n      mstore\n      0x20\n      add\n      iszero(iszero(0x00))\n      dup2\n      mstore\n      0x20\n      add\n      0x00\n      dup2\n      mstore\n      pop\n      swap1\n      jump\t// out\n        /* \"#utility.yul\":7:144   */\n    tag_472:\n        /* \"#utility.yul\":97:103   */\n      0x00\n        /* \"#utility.yul\":131:136   */\n      dup2\n        /* \"#utility.yul\":125:137   */\n      mload\n        /* \"#utility.yul\":115:137   */\n      swap1\n      pop\n        /* \"#utility.yul\":7:144   */\n      swap2\n      swap1\n      pop\n      jump\t// out\n        /* \"#utility.yul\":150:357   */\n    tag_473:\n        /* \"#utility.yul\":272:283   */\n      0x00\n        /* \"#utility.yul\":306:312   */\n      dup3\n        /* \"#utility.yul\":301:304   */\n      dup3\n        /* \"#utility.yul\":294:313   */\n      mstore\n        /* \"#utility.yul\":346:350   */\n      0x20\n        /* \"#utility.yul\":341:344   */\n      dup3\n        /* \"#utility.yul\":337:351   */\n      add\n        /* \"#utility.yul\":322:351   */\n      swap1\n      pop\n        /* \"#utility.yul\":150:357   */\n      swap3\n      swap2\n      pop\n      pop\n      jump\t// out\n        /* \"#utility.yul\":363:518   */\n    tag_474:\n        /* \"#utility.yul\":453:457   */\n      0x00\n        /* \"#utility.yul\":476:479   */\n      dup2\n        /* \"#utility.yul\":468:479   */\n      swap1\n      pop\n        /* \"#utility.yul\":506:510   */\n      0x20\n        /* \"#utility.yul\":501:504   */\n      dup3\n        /* \"#utility.yul\":497:511   */\n      add\n        /* \"#utility.yul\":489:511   */\n      swap1\n      pop\n        /* \"#utility.yul\":363:518   */\n      swap2\n      swap1\n      pop\n      jump\t// out\n        /* \"#utility.yul\":524:601   */\n    tag_475:\n        /* \"#utility.yul\":561:568   */\n      0x00\n        /* \"#utility.yul\":590:595   */\n      dup2\n        /* \"#utility.yul\":579:595   */\n      swap1\n      pop\n        /* \"#utility.yul\":524:601   */\n      swap2\n      swap1\n      pop\n      jump\t// out\n        /* \"#utility.yul\":607:715   */\n    tag_476:\n        /* \"#utility.yul\":684:708   */\n      tag_546\n        /* \"#utility.yul\":702:707   */\n      dup2\n        /* \"#utility.yul\":684:708   */\n      tag_475\n      jump\t// in\n    tag_546:\n        /* \"#utility.yul\":679:682   */\n      dup3\n        /* \"#utility.yul\":672:709   */\n      mstore\n        /* \"#utility.yul\":607:715   */\n      pop\n      pop\n      jump\t// out\n        /* \"#utility.yul\":721:847   */\n    tag_477:\n        /* \"#utility.yul\":758:765   */\n      0x00\n        /* \"#utility.yul\":798:840   */\n      0xffffffffffffffffffffffffffffffffffffffff\n        /* \"#utility.yul\":791:796   */\n      dup3\n        /* \"#utility.yul\":787:841   */\n      and\n        /* \"#utility.yul\":776:841   */\n      swap1\n      pop\n        /* \"#utility.yul\":721:847   */\n      swap2\n      swap1\n      pop\n      jump\t// out\n        /* \"#utility.yul\":853:949   */\n    tag_478:\n        /* \"#utility.yul\":890:897   */\n      0x00\n        /* \"#utility.yul\":919:943   */\n      tag_549\n        /* \"#utility.yul\":937:942   */\n      dup3\n        /* \"#utility.yul\":919:943   */\n      tag_477\n      jump\t// in\n    tag_549:\n        /* \"#utility.yul\":908:943   */\n      swap1\n      pop\n        /* \"#utility.yul\":853:949   */\n      swap2\n      swap1\n      pop\n      jump\t// out\n        /* \"#utility.yul\":955:1063   */\n    tag_479:\n        /* \"#utility.yul\":1032:1056   */\n      tag_551\n        /* \"#utility.yul\":1050:1055   */\n      dup2\n        /* \"#utility.yul\":1032:1056   */\n      tag_478\n      jump\t// in\n    tag_551:\n        /* \"#utility.yul\":1027:1030   */\n      dup3\n        /* \"#utility.yul\":1020:1057   */\n      mstore\n        /* \"#utility.yul\":955:1063   */\n      pop\n      pop\n      jump\t// out\n        /* \"#utility.yul\":1069:1168   */\n    tag_480:\n        /* \"#utility.yul\":1121:1127   */\n      0x00\n        /* \"#utility.yul\":1155:1160   */\n      dup2\n        /* \"#utility.yul\":1149:1161   */\n      mload\n        /* \"#utility.yul\":1139:1161   */\n      swap1\n      pop\n        /* \"#utility.yul\":1069:1168   */\n      swap2\n      swap1\n      pop\n      jump\t// out\n        /* \"#utility.yul\":1174:1333   */\n    tag_481:\n        /* \"#utility.yul\":1248:1259   */\n      0x00\n        /* \"#utility.yul\":1282:1288   */\n      dup3\n        /* \"#utility.yul\":1277:1280   */\n      dup3\n        /* \"#utility.yul\":1270:1289   */\n      mstore\n        /* \"#utility.yul\":1322:1326   */\n      0x20\n        /* \"#utility.yul\":1317:1320   */\n      dup3\n        /* \"#utility.yul\":1313:1327   */\n      add\n        /* \"#utility.yul\":1298:1327   */\n      swap1\n      pop\n        /* \"#utility.yul\":1174:1333   */\n      swap3\n      swap2\n      pop\n      pop\n      jump\t// out\n        /* \"#utility.yul\":1339:1585   */\n    tag_482:\n        /* \"#utility.yul\":1420:1421   */\n      0x00\n        /* \"#utility.yul\":1430:1543   */\n    tag_555:\n        /* \"#utility.yul\":1444:1450   */\n      dup4\n        /* \"#utility.yul\":1441:1442   */\n      dup2\n        /* \"#utility.yul\":1438:1451   */\n      lt\n        /* \"#utility.yul\":1430:1543   */\n      iszero\n      tag_557\n      jumpi\n        /* \"#utility.yul\":1529:1530   */\n      dup1\n        /* \"#utility.yul\":1524:1527   */\n      dup3\n        /* \"#utility.yul\":1520:1531   */\n      add\n        /* \"#utility.yul\":1514:1532   */\n      mload\n        /* \"#utility.yul\":1510:1511   */\n      dup2\n        /* \"#utility.yul\":1505:1508   */\n      dup5\n        /* \"#utility.yul\":1501:1512   */\n      add\n        /* \"#utility.yul\":1494:1533   */\n      mstore\n        /* \"#utility.yul\":1466:1468   */\n      0x20\n        /* \"#utility.yul\":1463:1464   */\n      dup2\n        /* \"#utility.yul\":1459:1469   */\n      add\n        /* \"#utility.yul\":1454:1469   */\n      swap1\n      pop\n        /* \"#utility.yul\":1430:1543   */\n      jump(tag_555)\n    tag_557:\n        /* \"#utility.yul\":1577:1578   */\n      0x00\n        /* \"#utility.yul\":1568:1574   */\n      dup5\n        /* \"#utility.yul\":1563:1566   */\n      dup5\n        /* \"#utility.yul\":1559:1575   */\n      add\n        /* \"#utility.yul\":1552:1579   */\n      mstore\n        /* \"#utility.yul\":1401:1585   */\n      pop\n        /* \"#utility.yul\":1339:1585   */\n      pop\n      pop\n      pop\n      jump\t// out\n        /* \"#utility.yul\":1591:1693   */\n    tag_483:\n        /* \"#utility.yul\":1632:1638   */\n      0x00\n        /* \"#utility.yul\":1683:1685   */\n      0x1f\n        /* \"#utility.yul\":1679:1686   */\n      not\n        /* \"#utility.yul\":1674:1676   */\n      0x1f\n        /* \"#utility.yul\":1667:1672   */\n      dup4\n        /* \"#utility.yul\":1663:1677   */\n      add\n        /* \"#utility.yul\":1659:1687   */\n      and\n        /* \"#utility.yul\":1649:1687   */\n      swap1\n      pop\n        /* \"#utility.yul\":1591:1693   */\n      swap2\n      swap1\n      pop\n      jump\t// out\n        /* \"#utility.yul\":1699:2056   */\n    tag_484:\n        /* \"#utility.yul\":1777:1780   */\n      0x00\n        /* \"#utility.yul\":1805:1844   */\n      tag_560\n        /* \"#utility.yul\":1838:1843   */\n      dup3\n        /* \"#utility.yul\":1805:1844   */\n      tag_480\n      jump\t// in\n    tag_560:\n        /* \"#utility.yul\":1860:1921   */\n      tag_561\n        /* \"#utility.yul\":1914:1920   */\n      dup2\n        /* \"#utility.yul\":1909:1912   */\n      dup6\n        /* \"#utility.yul\":1860:1921   */\n      tag_481\n      jump\t// in\n    tag_561:\n        /* \"#utility.yul\":1853:1921   */\n      swap4\n      pop\n        /* \"#utility.yul\":1930:1995   */\n      tag_562\n        /* \"#utility.yul\":1988:1994   */\n      dup2\n        /* \"#utility.yul\":1983:1986   */\n      dup6\n        /* \"#utility.yul\":1976:1980   */\n      0x20\n        /* \"#utility.yul\":1969:1974   */\n      dup7\n        /* \"#utility.yul\":1965:1981   */\n      add\n        /* \"#utility.yul\":1930:1995   */\n      tag_482\n      jump\t// in\n    tag_562:\n        /* \"#utility.yul\":2020:2049   */\n      tag_563\n        /* \"#utility.yul\":2042:2048   */\n      dup2\n        /* \"#utility.yul\":2020:2049   */\n      tag_483\n      jump\t// in\n    tag_563:\n        /* \"#utility.yul\":2015:2018   */\n      dup5\n        /* \"#utility.yul\":2011:2050   */\n      add\n        /* \"#utility.yul\":2004:2050   */\n      swap2\n      pop\n        /* \"#utility.yul\":1781:2056   */\n      pop\n        /* \"#utility.yul\":1699:2056   */\n      swap3\n      swap2\n      pop\n      pop\n      jump\t// out\n        /* \"#utility.yul\":2062:2152   */\n    tag_485:\n        /* \"#utility.yul\":2096:2103   */\n      0x00\n        /* \"#utility.yul\":2139:2144   */\n      dup2\n        /* \"#utility.yul\":2132:2145   */\n      iszero\n        /* \"#utility.yul\":2125:2146   */\n      iszero\n        /* \"#utility.yul\":2114:2146   */\n      swap1\n      pop\n        /* \"#utility.yul\":2062:2152   */\n      swap2\n      swap1\n      pop\n      jump\t// out\n        /* \"#utility.yul\":2158:2257   */\n    tag_486:\n        /* \"#utility.yul\":2229:2250   */\n      tag_566\n        /* \"#utility.yul\":2244:2249   */\n      dup2\n        /* \"#utility.yul\":2229:2250   */\n      tag_485\n      jump\t// in\n    tag_566:\n        /* \"#utility.yul\":2224:2227   */\n      dup3\n        /* \"#utility.yul\":2217:2251   */\n      mstore\n        /* \"#utility.yul\":2158:2257   */\n      pop\n      pop\n      jump\t// out\n        /* \"#utility.yul\":2335:4198   */\n    tag_487:\n        /* \"#utility.yul\":2440:2443   */\n      0x00\n        /* \"#utility.yul\":2476:2482   */\n      0x0100\n        /* \"#utility.yul\":2471:2474   */\n      dup4\n        /* \"#utility.yul\":2467:2483   */\n      add\n        /* \"#utility.yul\":2563:2567   */\n      0x00\n        /* \"#utility.yul\":2556:2561   */\n      dup4\n        /* \"#utility.yul\":2552:2568   */\n      add\n        /* \"#utility.yul\":2546:2569   */\n      mload\n        /* \"#utility.yul\":2582:2645   */\n      tag_568\n        /* \"#utility.yul\":2639:2643   */\n      0x00\n        /* \"#utility.yul\":2634:2637   */\n      dup7\n        /* \"#utility.yul\":2630:2644   */\n      add\n        /* \"#utility.yul\":2616:2628   */\n      dup3\n        /* \"#utility.yul\":2582:2645   */\n      tag_476\n      jump\t// in\n    tag_568:\n        /* \"#utility.yul\":2493:2655   */\n      pop\n        /* \"#utility.yul\":2739:2743   */\n      0x20\n        /* \"#utility.yul\":2732:2737   */\n      dup4\n        /* \"#utility.yul\":2728:2744   */\n      add\n        /* \"#utility.yul\":2722:2745   */\n      mload\n        /* \"#utility.yul\":2758:2821   */\n      tag_569\n        /* \"#utility.yul\":2815:2819   */\n      0x20\n        /* \"#utility.yul\":2810:2813   */\n      dup7\n        /* \"#utility.yul\":2806:2820   */\n      add\n        /* \"#utility.yul\":2792:2804   */\n      dup3\n        /* \"#utility.yul\":2758:2821   */\n      tag_479\n      jump\t// in\n    tag_569:\n        /* \"#utility.yul\":2665:2831   */\n      pop\n        /* \"#utility.yul\":2914:2918   */\n      0x40\n        /* \"#utility.yul\":2907:2912   */\n      dup4\n        /* \"#utility.yul\":2903:2919   */\n      add\n        /* \"#utility.yul\":2897:2920   */\n      mload\n        /* \"#utility.yul\":2967:2970   */\n      dup5\n        /* \"#utility.yul\":2961:2965   */\n      dup3\n        /* \"#utility.yul\":2957:2971   */\n      sub\n        /* \"#utility.yul\":2950:2954   */\n      0x40\n        /* \"#utility.yul\":2945:2948   */\n      dup7\n        /* \"#utility.yul\":2941:2955   */\n      add\n        /* \"#utility.yul\":2934:2972   */\n      mstore\n        /* \"#utility.yul\":2993:3066   */\n      tag_570\n        /* \"#utility.yul\":3061:3065   */\n      dup3\n        /* \"#utility.yul\":3047:3059   */\n      dup3\n        /* \"#utility.yul\":2993:3066   */\n      tag_484\n      jump\t// in\n    tag_570:\n        /* \"#utility.yul\":2985:3066   */\n      swap2\n      pop\n        /* \"#utility.yul\":2841:3077   */\n      pop\n        /* \"#utility.yul\":3166:3170   */\n      0x60\n        /* \"#utility.yul\":3159:3164   */\n      dup4\n        /* \"#utility.yul\":3155:3171   */\n      add\n        /* \"#utility.yul\":3149:3172   */\n      mload\n        /* \"#utility.yul\":3219:3222   */\n      dup5\n        /* \"#utility.yul\":3213:3217   */\n      dup3\n        /* \"#utility.yul\":3209:3223   */\n      sub\n        /* \"#utility.yul\":3202:3206   */\n      0x60\n        /* \"#utility.yul\":3197:3200   */\n      dup7\n        /* \"#utility.yul\":3193:3207   */\n      add\n        /* \"#utility.yul\":3186:3224   */\n      mstore\n        /* \"#utility.yul\":3245:3318   */\n      tag_571\n        /* \"#utility.yul\":3313:3317   */\n      dup3\n        /* \"#utility.yul\":3299:3311   */\n      dup3\n        /* \"#utility.yul\":3245:3318   */\n      tag_484\n      jump\t// in\n    tag_571:\n        /* \"#utility.yul\":3237:3318   */\n      swap2\n      pop\n        /* \"#utility.yul\":3087:3329   */\n      pop\n        /* \"#utility.yul\":3412:3416   */\n      0x80\n        /* \"#utility.yul\":3405:3410   */\n      dup4\n        /* \"#utility.yul\":3401:3417   */\n      add\n        /* \"#utility.yul\":3395:3418   */\n      mload\n        /* \"#utility.yul\":3431:3494   */\n      tag_572\n        /* \"#utility.yul\":3488:3492   */\n      0x80\n        /* \"#utility.yul\":3483:3486   */\n      dup7\n        /* \"#utility.yul\":3479:3493   */\n      add\n        /* \"#utility.yul\":3465:3477   */\n      dup3\n        /* \"#utility.yul\":3431:3494   */\n      tag_476\n      jump\t// in\n    tag_572:\n        /* \"#utility.yul\":3339:3504   */\n      pop\n        /* \"#utility.yul\":3587:3591   */\n      0xa0\n        /* \"#utility.yul\":3580:3585   */\n      dup4\n        /* \"#utility.yul\":3576:3592   */\n      add\n        /* \"#utility.yul\":3570:3593   */\n      mload\n        /* \"#utility.yul\":3640:3643   */\n      dup5\n        /* \"#utility.yul\":3634:3638   */\n      dup3\n        /* \"#utility.yul\":3630:3644   */\n      sub\n        /* \"#utility.yul\":3623:3627   */\n      0xa0\n        /* \"#utility.yul\":3618:3621   */\n      dup7\n        /* \"#utility.yul\":3614:3628   */\n      add\n        /* \"#utility.yul\":3607:3645   */\n      mstore\n        /* \"#utility.yul\":3666:3739   */\n      tag_573\n        /* \"#utility.yul\":3734:3738   */\n      dup3\n        /* \"#utility.yul\":3720:3732   */\n      dup3\n        /* \"#utility.yul\":3666:3739   */\n      tag_484\n      jump\t// in\n    tag_573:\n        /* \"#utility.yul\":3658:3739   */\n      swap2\n      pop\n        /* \"#utility.yul\":3514:3750   */\n      pop\n        /* \"#utility.yul\":3835:3839   */\n      0xc0\n        /* \"#utility.yul\":3828:3833   */\n      dup4\n        /* \"#utility.yul\":3824:3840   */\n      add\n        /* \"#utility.yul\":3818:3841   */\n      mload\n        /* \"#utility.yul\":3854:3911   */\n      tag_574\n        /* \"#utility.yul\":3905:3909   */\n      0xc0\n        /* \"#utility.yul\":3900:3903   */\n      dup7\n        /* \"#utility.yul\":3896:3910   */\n      add\n        /* \"#utility.yul\":3882:3894   */\n      dup3\n        /* \"#utility.yul\":3854:3911   */\n      tag_486\n      jump\t// in\n    tag_574:\n        /* \"#utility.yul\":3760:3921   */\n      pop\n        /* \"#utility.yul\":4008:4012   */\n      0xe0\n        /* \"#utility.yul\":4001:4006   */\n      dup4\n        /* \"#utility.yul\":3997:4013   */\n      add\n        /* \"#utility.yul\":3991:4014   */\n      mload\n        /* \"#utility.yul\":4061:4064   */\n      dup5\n        /* \"#utility.yul\":4055:4059   */\n      dup3\n        /* \"#utility.yul\":4051:4065   */\n      sub\n        /* \"#utility.yul\":4044:4048   */\n      0xe0\n        /* \"#utility.yul\":4039:4042   */\n      dup7\n        /* \"#utility.yul\":4035:4049   */\n      add\n        /* \"#utility.yul\":4028:4066   */\n      mstore\n        /* \"#utility.yul\":4087:4160   */\n      tag_575\n        /* \"#utility.yul\":4155:4159   */\n      dup3\n        /* \"#utility.yul\":4141:4153   */\n      dup3\n        /* \"#utility.yul\":4087:4160   */\n      tag_484\n      jump\t// in\n    tag_575:\n        /* \"#utility.yul\":4079:4160   */\n      swap2\n      pop\n        /* \"#utility.yul\":3931:4171   */\n      pop\n        /* \"#utility.yul\":4188:4192   */\n      dup1\n        /* \"#utility.yul\":4181:4192   */\n      swap2\n      pop\n        /* \"#utility.yul\":2445:4198   */\n      pop\n        /* \"#utility.yul\":2335:4198   */\n      swap3\n      swap2\n      pop\n      pop\n      jump\t// out\n        /* \"#utility.yul\":4204:4452   */\n    tag_488:\n        /* \"#utility.yul\":4319:4329   */\n      0x00\n        /* \"#utility.yul\":4354:4446   */\n      tag_577\n        /* \"#utility.yul\":4442:4445   */\n      dup4\n        /* \"#utility.yul\":4434:4440   */\n      dup4\n        /* \"#utility.yul\":4354:4446   */\n      tag_487\n      jump\t// in\n    tag_577:\n        /* \"#utility.yul\":4340:4446   */\n      swap1\n      pop\n        /* \"#utility.yul\":4204:4452   */\n      swap3\n      swap2\n      pop\n      pop\n      jump\t// out\n        /* \"#utility.yul\":4458:4594   */\n    tag_489:\n        /* \"#utility.yul\":4551:4555   */\n      0x00\n        /* \"#utility.yul\":4583:4587   */\n      0x20\n        /* \"#utility.yul\":4578:4581   */\n      dup3\n        /* \"#utility.yul\":4574:4588   */\n      add\n        /* \"#utility.yul\":4566:4588   */\n      swap1\n      pop\n        /* \"#utility.yul\":4458:4594   */\n      swap2\n      swap1\n      pop\n      jump\t// out\n        /* \"#utility.yul\":4676:5771   */\n    tag_490:\n        /* \"#utility.yul\":4841:4844   */\n      0x00\n        /* \"#utility.yul\":4870:4947   */\n      tag_580\n        /* \"#utility.yul\":4941:4946   */\n      dup3\n        /* \"#utility.yul\":4870:4947   */\n      tag_472\n      jump\t// in\n    tag_580:\n        /* \"#utility.yul\":4963:5072   */\n      tag_581\n        /* \"#utility.yul\":5065:5071   */\n      dup2\n        /* \"#utility.yul\":5060:5063   */\n      dup6\n        /* \"#utility.yul\":4963:5072   */\n      tag_473\n      jump\t// in\n    tag_581:\n        /* \"#utility.yul\":4956:5072   */\n      swap4\n      pop\n        /* \"#utility.yul\":5098:5101   */\n      dup4\n        /* \"#utility.yul\":5143:5147   */\n      0x20\n        /* \"#utility.yul\":5135:5141   */\n      dup3\n        /* \"#utility.yul\":5131:5148   */\n      mul\n        /* \"#utility.yul\":5126:5129   */\n      dup6\n        /* \"#utility.yul\":5122:5149   */\n      add\n        /* \"#utility.yul\":5173:5252   */\n      tag_582\n        /* \"#utility.yul\":5246:5251   */\n      dup6\n        /* \"#utility.yul\":5173:5252   */\n      tag_474\n      jump\t// in\n    tag_582:\n        /* \"#utility.yul\":5275:5282   */\n      dup1\n        /* \"#utility.yul\":5306:5307   */\n      0x00\n        /* \"#utility.yul\":5291:5726   */\n    tag_583:\n        /* \"#utility.yul\":5316:5322   */\n      dup6\n        /* \"#utility.yul\":5313:5314   */\n      dup2\n        /* \"#utility.yul\":5310:5323   */\n      lt\n        /* \"#utility.yul\":5291:5726   */\n      iszero\n      tag_585\n      jumpi\n        /* \"#utility.yul\":5387:5396   */\n      dup5\n        /* \"#utility.yul\":5381:5385   */\n      dup5\n        /* \"#utility.yul\":5377:5397   */\n      sub\n        /* \"#utility.yul\":5372:5375   */\n      dup10\n        /* \"#utility.yul\":5365:5398   */\n      mstore\n        /* \"#utility.yul\":5438:5444   */\n      dup2\n        /* \"#utility.yul\":5432:5445   */\n      mload\n        /* \"#utility.yul\":5466:5576   */\n      tag_586\n        /* \"#utility.yul\":5571:5575   */\n      dup6\n        /* \"#utility.yul\":5556:5569   */\n      dup3\n        /* \"#utility.yul\":5466:5576   */\n      tag_488\n      jump\t// in\n    tag_586:\n        /* \"#utility.yul\":5458:5576   */\n      swap5\n      pop\n        /* \"#utility.yul\":5599:5682   */\n      tag_587\n        /* \"#utility.yul\":5675:5681   */\n      dup4\n        /* \"#utility.yul\":5599:5682   */\n      tag_489\n      jump\t// in\n    tag_587:\n        /* \"#utility.yul\":5589:5682   */\n      swap3\n      pop\n        /* \"#utility.yul\":5711:5715   */\n      0x20\n        /* \"#utility.yul\":5706:5709   */\n      dup11\n        /* \"#utility.yul\":5702:5716   */\n      add\n        /* \"#utility.yul\":5695:5716   */\n      swap10\n      pop\n        /* \"#utility.yul\":5351:5726   */\n      pop\n        /* \"#utility.yul\":5338:5339   */\n      0x01\n        /* \"#utility.yul\":5335:5336   */\n      dup2\n        /* \"#utility.yul\":5331:5340   */\n      add\n        /* \"#utility.yul\":5326:5340   */\n      swap1\n      pop\n        /* \"#utility.yul\":5291:5726   */\n      jump(tag_583)\n    tag_585:\n        /* \"#utility.yul\":5295:5309   */\n      pop\n        /* \"#utility.yul\":5742:5746   */\n      dup3\n        /* \"#utility.yul\":5735:5746   */\n      swap8\n      pop\n        /* \"#utility.yul\":5762:5765   */\n      dup8\n        /* \"#utility.yul\":5755:5765   */\n      swap6\n      pop\n        /* \"#utility.yul\":4846:5771   */\n      pop\n      pop\n      pop\n      pop\n      pop\n        /* \"#utility.yul\":4676:5771   */\n      swap3\n      swap2\n      pop\n      pop\n      jump\t// out\n        /* \"#utility.yul\":5777:6242   */\n    tag_28:\n        /* \"#utility.yul\":5966:5970   */\n      0x00\n        /* \"#utility.yul\":6004:6006   */\n      0x20\n        /* \"#utility.yul\":5993:6002   */\n      dup3\n        /* \"#utility.yul\":5989:6007   */\n      add\n        /* \"#utility.yul\":5981:6007   */\n      swap1\n      pop\n        /* \"#utility.yul\":6053:6062   */\n      dup2\n        /* \"#utility.yul\":6047:6051   */\n      dup2\n        /* \"#utility.yul\":6043:6063   */\n      sub\n        /* \"#utility.yul\":6039:6040   */\n      0x00\n        /* \"#utility.yul\":6028:6037   */\n      dup4\n        /* \"#utility.yul\":6024:6041   */\n      add\n        /* \"#utility.yul\":6017:6064   */\n      mstore\n        /* \"#utility.yul\":6081:6235   */\n      tag_589\n        /* \"#utility.yul\":6230:6234   */\n      dup2\n        /* \"#utility.yul\":6221:6227   */\n      dup5\n        /* \"#utility.yul\":6081:6235   */\n      tag_490\n      jump\t// in\n    tag_589:\n        /* \"#utility.yul\":6073:6235   */\n      swap1\n      pop\n        /* \"#utility.yul\":5777:6242   */\n      swap3\n      swap2\n      pop\n      pop\n      jump\t// out\n        /* \"#utility.yul\":6248:6323   */\n    tag_491:\n        /* \"#utility.yul\":6281:6287   */\n      0x00\n        /* \"#utility.yul\":6314:6316   */\n      0x40\n        /* \"#utility.yul\":6308:6317   */\n      mload\n        /* \"#utility.yul\":6298:6317   */\n      swap1\n      pop\n        /* \"#utility.yul\":6248:6323   */\n      swap1\n      jump\t// out\n        /* \"#utility.yul\":6329:6446   */\n    tag_492:\n        /* \"#utility.yul\":6438:6439   */\n      0x00\n        /* \"#utility.yul\":6435:6436   */\n      dup1\n        /* \"#utility.yul\":6428:6440   */\n      revert\n        /* \"#utility.yul\":6452:6569   */\n    tag_493:\n        /* \"#utility.yul\":6561:6562   */\n      0x00\n        /* \"#utility.yul\":6558:6559   */\n      dup1\n        /* \"#utility.yul\":6551:6563   */\n      revert\n        /* \"#utility.yul\":6575:6679   */\n    tag_494:\n        /* \"#utility.yul\":6620:6627   */\n      0x00\n        /* \"#utility.yul\":6649:6673   */\n      tag_594\n        /* \"#utility.yul\":6667:6672   */\n      dup3\n        /* \"#utility.yul\":6649:6673   */\n      tag_477\n      jump\t// in\n    tag_594:\n        /* \"#utility.yul\":6638:6673   */\n      swap1\n      pop\n        /* \"#utility.yul\":6575:6679   */\n      swap2\n      swap1\n      pop\n      jump\t// out\n        /* \"#utility.yul\":6685:6823   */\n    tag_495:\n        /* \"#utility.yul\":6766:6798   */\n      tag_596\n        /* \"#utility.yul\":6792:6797   */\n      dup2\n        /* \"#utility.yul\":6766:6798   */\n      tag_494\n      jump\t// in\n    tag_596:\n        /* \"#utility.yul\":6759:6764   */\n      dup2\n        /* \"#utility.yul\":6756:6799   */\n      eq\n        /* \"#utility.yul\":6746:6817   */\n      tag_597\n      jumpi\n        /* \"#utility.yul\":6813:6814   */\n      0x00\n        /* \"#utility.yul\":6810:6811   */\n      dup1\n        /* \"#utility.yul\":6803:6815   */\n      revert\n        /* \"#utility.yul\":6746:6817   */\n    tag_597:\n        /* \"#utility.yul\":6685:6823   */\n      pop\n      jump\t// out\n        /* \"#utility.yul\":6829:6984   */\n    tag_496:\n        /* \"#utility.yul\":6883:6888   */\n      0x00\n        /* \"#utility.yul\":6921:6927   */\n      dup2\n        /* \"#utility.yul\":6908:6928   */\n      calldataload\n        /* \"#utility.yul\":6899:6928   */\n      swap1\n      pop\n        /* \"#utility.yul\":6937:6978   */\n      tag_599\n        /* \"#utility.yul\":6972:6977   */\n      dup2\n        /* \"#utility.yul\":6937:6978   */\n      tag_495\n      jump\t// in\n    tag_599:\n        /* \"#utility.yul\":6829:6984   */\n      swap3\n      swap2\n      pop\n      pop\n      jump\t// out\n        /* \"#utility.yul\":6990:7335   */\n    tag_31:\n        /* \"#utility.yul\":7057:7063   */\n      0x00\n        /* \"#utility.yul\":7106:7108   */\n      0x20\n        /* \"#utility.yul\":7094:7103   */\n      dup3\n        /* \"#utility.yul\":7085:7092   */\n      dup5\n        /* \"#utility.yul\":7081:7104   */\n      sub\n        /* \"#utility.yul\":7077:7109   */\n      slt\n        /* \"#utility.yul\":7074:7193   */\n      iszero\n      tag_601\n      jumpi\n        /* \"#utility.yul\":7112:7191   */\n      tag_602\n      tag_492\n      jump\t// in\n    tag_602:\n        /* \"#utility.yul\":7074:7193   */\n    tag_601:\n        /* \"#utility.yul\":7232:7233   */\n      0x00\n        /* \"#utility.yul\":7257:7318   */\n      tag_603\n        /* \"#utility.yul\":7310:7317   */\n      dup5\n        /* \"#utility.yul\":7301:7307   */\n      dup3\n        /* \"#utility.yul\":7290:7299   */\n      dup6\n        /* \"#utility.yul\":7286:7308   */\n      add\n        /* \"#utility.yul\":7257:7318   */\n      tag_496\n      jump\t// in\n    tag_603:\n        /* \"#utility.yul\":7247:7318   */\n      swap2\n      pop\n        /* \"#utility.yul\":7203:7328   */\n      pop\n        /* \"#utility.yul\":6990:7335   */\n      swap3\n      swap2\n      pop\n      pop\n      jump\t// out\n        /* \"#utility.yul\":7341:7458   */\n    tag_497:\n        /* \"#utility.yul\":7450:7451   */\n      0x00\n        /* \"#utility.yul\":7447:7448   */\n      dup1\n        /* \"#utility.yul\":7440:7452   */\n      revert\n        /* \"#utility.yul\":7464:7581   */\n    tag_498:\n        /* \"#utility.yul\":7573:7574   */\n      0x00\n        /* \"#utility.yul\":7570:7571   */\n      dup1\n        /* \"#utility.yul\":7563:7575   */\n      revert\n        /* \"#utility.yul\":7587:7767   */\n    tag_191:\n        /* \"#utility.yul\":7635:7712   */\n      0x4e487b7100000000000000000000000000000000000000000000000000000000\n        /* \"#utility.yul\":7632:7633   */\n      0x00\n        /* \"#utility.yul\":7625:7713   */\n      mstore\n        /* \"#utility.yul\":7732:7736   */\n      0x41\n        /* \"#utility.yul\":7729:7730   */\n      0x04\n        /* \"#utility.yul\":7722:7737   */\n      mstore\n        /* \"#utility.yul\":7756:7760   */\n      0x24\n        /* \"#utility.yul\":7753:7754   */\n      0x00\n        /* \"#utility.yul\":7746:7761   */\n      revert\n        /* \"#utility.yul\":7773:8054   */\n    tag_499:\n        /* \"#utility.yul\":7856:7883   */\n      tag_608\n        /* \"#utility.yul\":7878:7882   */\n      dup3\n        /* \"#utility.yul\":7856:7883   */\n      tag_483\n      jump\t// in\n    tag_608:\n        /* \"#utility.yul\":7848:7854   */\n      dup2\n        /* \"#utility.yul\":7844:7884   */\n      add\n        /* \"#utility.yul\":7986:7992   */\n      dup2\n        /* \"#utility.yul\":7974:7984   */\n      dup2\n        /* \"#utility.yul\":7971:7993   */\n      lt\n        /* \"#utility.yul\":7950:7968   */\n      0xffffffffffffffff\n        /* \"#utility.yul\":7938:7948   */\n      dup3\n        /* \"#utility.yul\":7935:7969   */\n      gt\n        /* \"#utility.yul\":7932:7994   */\n      or\n        /* \"#utility.yul\":7929:8017   */\n      iszero\n      tag_609\n      jumpi\n        /* \"#utility.yul\":7997:8015   */\n      tag_610\n      tag_191\n      jump\t// in\n    tag_610:\n        /* \"#utility.yul\":7929:8017   */\n    tag_609:\n        /* \"#utility.yul\":8037:8047   */\n      dup1\n        /* \"#utility.yul\":8033:8035   */\n      0x40\n        /* \"#utility.yul\":8026:8048   */\n      mstore\n        /* \"#utility.yul\":7816:8054   */\n      pop\n        /* \"#utility.yul\":7773:8054   */\n      pop\n      pop\n      jump\t// out\n        /* \"#utility.yul\":8060:8189   */\n    tag_500:\n        /* \"#utility.yul\":8094:8100   */\n      0x00\n        /* \"#utility.yul\":8121:8141   */\n      tag_612\n      tag_491\n      jump\t// in\n    tag_612:\n        /* \"#utility.yul\":8111:8141   */\n      swap1\n      pop\n        /* \"#utility.yul\":8150:8183   */\n      tag_613\n        /* \"#utility.yul\":8178:8182   */\n      dup3\n        /* \"#utility.yul\":8170:8176   */\n      dup3\n        /* \"#utility.yul\":8150:8183   */\n      tag_499\n      jump\t// in\n    tag_613:\n        /* \"#utility.yul\":8060:8189   */\n      swap2\n      swap1\n      pop\n      jump\t// out\n        /* \"#utility.yul\":8195:8503   */\n    tag_501:\n        /* \"#utility.yul\":8257:8261   */\n      0x00\n        /* \"#utility.yul\":8347:8365   */\n      0xffffffffffffffff\n        /* \"#utility.yul\":8339:8345   */\n      dup3\n        /* \"#utility.yul\":8336:8366   */\n      gt\n        /* \"#utility.yul\":8333:8389   */\n      iszero\n      tag_615\n      jumpi\n        /* \"#utility.yul\":8369:8387   */\n      tag_616\n      tag_191\n      jump\t// in\n    tag_616:\n        /* \"#utility.yul\":8333:8389   */\n    tag_615:\n        /* \"#utility.yul\":8407:8436   */\n      tag_617\n        /* \"#utility.yul\":8429:8435   */\n      dup3\n        /* \"#utility.yul\":8407:8436   */\n      tag_483\n      jump\t// in\n    tag_617:\n        /* \"#utility.yul\":8399:8436   */\n      swap1\n      pop\n        /* \"#utility.yul\":8491:8495   */\n      0x20\n        /* \"#utility.yul\":8485:8489   */\n      dup2\n        /* \"#utility.yul\":8481:8496   */\n      add\n        /* \"#utility.yul\":8473:8496   */\n      swap1\n      pop\n        /* \"#utility.yul\":8195:8503   */\n      swap2\n      swap1\n      pop\n      jump\t// out\n        /* \"#utility.yul\":8509:8655   */\n    tag_502:\n        /* \"#utility.yul\":8606:8612   */\n      dup3\n        /* \"#utility.yul\":8601:8604   */\n      dup2\n        /* \"#utility.yul\":8596:8599   */\n      dup4\n        /* \"#utility.yul\":8583:8613   */\n      calldatacopy\n        /* \"#utility.yul\":8647:8648   */\n      0x00\n        /* \"#utility.yul\":8638:8644   */\n      dup4\n        /* \"#utility.yul\":8633:8636   */\n      dup4\n        /* \"#utility.yul\":8629:8645   */\n      add\n        /* \"#utility.yul\":8622:8649   */\n      mstore\n        /* \"#utility.yul\":8509:8655   */\n      pop\n      pop\n      pop\n      jump\t// out\n        /* \"#utility.yul\":8661:9086   */\n    tag_503:\n        /* \"#utility.yul\":8739:8744   */\n      0x00\n        /* \"#utility.yul\":8764:8830   */\n      tag_620\n        /* \"#utility.yul\":8780:8829   */\n      tag_621\n        /* \"#utility.yul\":8822:8828   */\n      dup5\n        /* \"#utility.yul\":8780:8829   */\n      tag_501\n      jump\t// in\n    tag_621:\n        /* \"#utility.yul\":8764:8830   */\n      tag_500\n      jump\t// in\n    tag_620:\n        /* \"#utility.yul\":8755:8830   */\n      swap1\n      pop\n        /* \"#utility.yul\":8853:8859   */\n      dup3\n        /* \"#utility.yul\":8846:8851   */\n      dup2\n        /* \"#utility.yul\":8839:8860   */\n      mstore\n        /* \"#utility.yul\":8891:8895   */\n      0x20\n        /* \"#utility.yul\":8884:8889   */\n      dup2\n        /* \"#utility.yul\":8880:8896   */\n      add\n        /* \"#utility.yul\":8929:8932   */\n      dup5\n        /* \"#utility.yul\":8920:8926   */\n      dup5\n        /* \"#utility.yul\":8915:8918   */\n      dup5\n        /* \"#utility.yul\":8911:8927   */\n      add\n        /* \"#utility.yul\":8908:8933   */\n      gt\n        /* \"#utility.yul\":8905:9017   */\n      iszero\n      tag_622\n      jumpi\n        /* \"#utility.yul\":8936:9015   */\n      tag_623\n      tag_498\n      jump\t// in\n    tag_623:\n        /* \"#utility.yul\":8905:9017   */\n    tag_622:\n        /* \"#utility.yul\":9026:9080   */\n      tag_624\n        /* \"#utility.yul\":9073:9079   */\n      dup5\n        /* \"#utility.yul\":9068:9071   */\n      dup3\n        /* \"#utility.yul\":9063:9066   */\n      dup6\n        /* \"#utility.yul\":9026:9080   */\n      tag_502\n      jump\t// in\n    tag_624:\n        /* \"#utility.yul\":8745:9086   */\n      pop\n        /* \"#utility.yul\":8661:9086   */\n      swap4\n      swap3\n      pop\n      pop\n      pop\n      jump\t// out\n        /* \"#utility.yul\":9106:9446   */\n    tag_504:\n        /* \"#utility.yul\":9162:9167   */\n      0x00\n        /* \"#utility.yul\":9211:9214   */\n      dup3\n        /* \"#utility.yul\":9204:9208   */\n      0x1f\n        /* \"#utility.yul\":9196:9202   */\n      dup4\n        /* \"#utility.yul\":9192:9209   */\n      add\n        /* \"#utility.yul\":9188:9215   */\n      slt\n        /* \"#utility.yul\":9178:9300   */\n      tag_626\n      jumpi\n        /* \"#utility.yul\":9219:9298   */\n      tag_627\n      tag_497\n      jump\t// in\n    tag_627:\n        /* \"#utility.yul\":9178:9300   */\n    tag_626:\n        /* \"#utility.yul\":9336:9342   */\n      dup2\n        /* \"#utility.yul\":9323:9343   */\n      calldataload\n        /* \"#utility.yul\":9361:9440   */\n      tag_628\n        /* \"#utility.yul\":9436:9439   */\n      dup5\n        /* \"#utility.yul\":9428:9434   */\n      dup3\n        /* \"#utility.yul\":9421:9425   */\n      0x20\n        /* \"#utility.yul\":9413:9419   */\n      dup7\n        /* \"#utility.yul\":9409:9426   */\n      add\n        /* \"#utility.yul\":9361:9440   */\n      tag_503\n      jump\t// in\n    tag_628:\n        /* \"#utility.yul\":9352:9440   */\n      swap2\n      pop\n        /* \"#utility.yul\":9168:9446   */\n      pop\n        /* \"#utility.yul\":9106:9446   */\n      swap3\n      swap2\n      pop\n      pop\n      jump\t// out\n        /* \"#utility.yul\":9452:10286   */\n    tag_36:\n        /* \"#utility.yul\":9540:9546   */\n      0x00\n        /* \"#utility.yul\":9548:9554   */\n      dup1\n        /* \"#utility.yul\":9597:9599   */\n      0x40\n        /* \"#utility.yul\":9585:9594   */\n      dup4\n        /* \"#utility.yul\":9576:9583   */\n      dup6\n        /* \"#utility.yul\":9572:9595   */\n      sub\n        /* \"#utility.yul\":9568:9600   */\n      slt\n        /* \"#utility.yul\":9565:9684   */\n      iszero\n      tag_630\n      jumpi\n        /* \"#utility.yul\":9603:9682   */\n      tag_631\n      tag_492\n      jump\t// in\n    tag_631:\n        /* \"#utility.yul\":9565:9684   */\n    tag_630:\n        /* \"#utility.yul\":9751:9752   */\n      0x00\n        /* \"#utility.yul\":9740:9749   */\n      dup4\n        /* \"#utility.yul\":9736:9753   */\n      add\n        /* \"#utility.yul\":9723:9754   */\n      calldataload\n        /* \"#utility.yul\":9781:9799   */\n      0xffffffffffffffff\n        /* \"#utility.yul\":9773:9779   */\n      dup2\n        /* \"#utility.yul\":9770:9800   */\n      gt\n        /* \"#utility.yul\":9767:9884   */\n      iszero\n      tag_632\n      jumpi\n        /* \"#utility.yul\":9803:9882   */\n      tag_633\n      tag_493\n      jump\t// in\n    tag_633:\n        /* \"#utility.yul\":9767:9884   */\n    tag_632:\n        /* \"#utility.yul\":9908:9971   */\n      tag_634\n        /* \"#utility.yul\":9963:9970   */\n      dup6\n        /* \"#utility.yul\":9954:9960   */\n      dup3\n        /* \"#utility.yul\":9943:9952   */\n      dup7\n        /* \"#utility.yul\":9939:9961   */\n      add\n        /* \"#utility.yul\":9908:9971   */\n      tag_504\n      jump\t// in\n    tag_634:\n        /* \"#utility.yul\":9898:9971   */\n      swap3\n      pop\n        /* \"#utility.yul\":9694:9981   */\n      pop\n        /* \"#utility.yul\":10048:10050   */\n      0x20\n        /* \"#utility.yul\":10037:10046   */\n      dup4\n        /* \"#utility.yul\":10033:10051   */\n      add\n        /* \"#utility.yul\":10020:10052   */\n      calldataload\n        /* \"#utility.yul\":10079:10097   */\n      0xffffffffffffffff\n        /* \"#utility.yul\":10071:10077   */\n      dup2\n        /* \"#utility.yul\":10068:10098   */\n      gt\n        /* \"#utility.yul\":10065:10182   */\n      iszero\n      tag_635\n      jumpi\n        /* \"#utility.yul\":10101:10180   */\n      tag_636\n      tag_493\n      jump\t// in\n    tag_636:\n        /* \"#utility.yul\":10065:10182   */\n    tag_635:\n        /* \"#utility.yul\":10206:10269   */\n      tag_637\n        /* \"#utility.yul\":10261:10268   */\n      dup6\n        /* \"#utility.yul\":10252:10258   */\n      dup3\n        /* \"#utility.yul\":10241:10250   */\n      dup7\n        /* \"#utility.yul\":10237:10259   */\n      add\n        /* \"#utility.yul\":10206:10269   */\n      tag_504\n      jump\t// in\n    tag_637:\n        /* \"#utility.yul\":10196:10269   */\n      swap2\n      pop\n        /* \"#utility.yul\":9991:10279   */\n      pop\n        /* \"#utility.yul\":9452:10286   */\n      swap3\n      pop\n      swap3\n      swap1\n      pop\n      jump\t// out\n        /* \"#utility.yul\":10292:10401   */\n    tag_505:\n        /* \"#utility.yul\":10373:10394   */\n      tag_639\n        /* \"#utility.yul\":10388:10393   */\n      dup2\n        /* \"#utility.yul\":10373:10394   */\n      tag_485\n      jump\t// in\n    tag_639:\n        /* \"#utility.yul\":10368:10371   */\n      dup3\n        /* \"#utility.yul\":10361:10395   */\n      mstore\n        /* \"#utility.yul\":10292:10401   */\n      pop\n      pop\n      jump\t// out\n        /* \"#utility.yul\":10407:10617   */\n    tag_39:\n        /* \"#utility.yul\":10494:10498   */\n      0x00\n        /* \"#utility.yul\":10532:10534   */\n      0x20\n        /* \"#utility.yul\":10521:10530   */\n      dup3\n        /* \"#utility.yul\":10517:10535   */\n      add\n        /* \"#utility.yul\":10509:10535   */\n      swap1\n      pop\n        /* \"#utility.yul\":10545:10610   */\n      tag_641\n        /* \"#utility.yul\":10607:10608   */\n      0x00\n        /* \"#utility.yul\":10596:10605   */\n      dup4\n        /* \"#utility.yul\":10592:10609   */\n      add\n        /* \"#utility.yul\":10583:10589   */\n      dup5\n        /* \"#utility.yul\":10545:10610   */\n      tag_505\n      jump\t// in\n    tag_641:\n        /* \"#utility.yul\":10407:10617   */\n      swap3\n      swap2\n      pop\n      pop\n      jump\t// out\n        /* \"#utility.yul\":10695:11552   */\n    tag_506:\n        /* \"#utility.yul\":10812:10815   */\n      0x00\n        /* \"#utility.yul\":10848:10852   */\n      0x60\n        /* \"#utility.yul\":10843:10846   */\n      dup4\n        /* \"#utility.yul\":10839:10853   */\n      add\n        /* \"#utility.yul\":10937:10941   */\n      0x00\n        /* \"#utility.yul\":10930:10935   */\n      dup4\n        /* \"#utility.yul\":10926:10942   */\n      add\n        /* \"#utility.yul\":10920:10943   */\n      mload\n        /* \"#utility.yul\":10990:10993   */\n      dup5\n        /* \"#utility.yul\":10984:10988   */\n      dup3\n        /* \"#utility.yul\":10980:10994   */\n      sub\n        /* \"#utility.yul\":10973:10977   */\n      0x00\n        /* \"#utility.yul\":10968:10971   */\n      dup7\n        /* \"#utility.yul\":10964:10978   */\n      add\n        /* \"#utility.yul\":10957:10995   */\n      mstore\n        /* \"#utility.yul\":11016:11089   */\n      tag_643\n        /* \"#utility.yul\":11084:11088   */\n      dup3\n        /* \"#utility.yul\":11070:11082   */\n      dup3\n        /* \"#utility.yul\":11016:11089   */\n      tag_484\n      jump\t// in\n    tag_643:\n        /* \"#utility.yul\":11008:11089   */\n      swap2\n      pop\n        /* \"#utility.yul\":10863:11100   */\n      pop\n        /* \"#utility.yul\":11182:11186   */\n      0x20\n        /* \"#utility.yul\":11175:11180   */\n      dup4\n        /* \"#utility.yul\":11171:11187   */\n      add\n        /* \"#utility.yul\":11165:11188   */\n      mload\n        /* \"#utility.yul\":11201:11264   */\n      tag_644\n        /* \"#utility.yul\":11258:11262   */\n      0x20\n        /* \"#utility.yul\":11253:11256   */\n      dup7\n        /* \"#utility.yul\":11249:11263   */\n      add\n        /* \"#utility.yul\":11235:11247   */\n      dup3\n        /* \"#utility.yul\":11201:11264   */\n      tag_479\n      jump\t// in\n    tag_644:\n        /* \"#utility.yul\":11110:11274   */\n      pop\n        /* \"#utility.yul\":11362:11366   */\n      0x40\n        /* \"#utility.yul\":11355:11360   */\n      dup4\n        /* \"#utility.yul\":11351:11367   */\n      add\n        /* \"#utility.yul\":11345:11368   */\n      mload\n        /* \"#utility.yul\":11415:11418   */\n      dup5\n        /* \"#utility.yul\":11409:11413   */\n      dup3\n        /* \"#utility.yul\":11405:11419   */\n      sub\n        /* \"#utility.yul\":11398:11402   */\n      0x40\n        /* \"#utility.yul\":11393:11396   */\n      dup7\n        /* \"#utility.yul\":11389:11403   */\n      add\n        /* \"#utility.yul\":11382:11420   */\n      mstore\n        /* \"#utility.yul\":11441:11514   */\n      tag_645\n        /* \"#utility.yul\":11509:11513   */\n      dup3\n        /* \"#utility.yul\":11495:11507   */\n      dup3\n        /* \"#utility.yul\":11441:11514   */\n      tag_484\n      jump\t// in\n    tag_645:\n        /* \"#utility.yul\":11433:11514   */\n      swap2\n      pop\n        /* \"#utility.yul\":11284:11525   */\n      pop\n        /* \"#utility.yul\":11542:11546   */\n      dup1\n        /* \"#utility.yul\":11535:11546   */\n      swap2\n      pop\n        /* \"#utility.yul\":10817:11552   */\n      pop\n        /* \"#utility.yul\":10695:11552   */\n      swap3\n      swap2\n      pop\n      pop\n      jump\t// out\n        /* \"#utility.yul\":11558:11927   */\n    tag_44:\n        /* \"#utility.yul\":11699:11703   */\n      0x00\n        /* \"#utility.yul\":11737:11739   */\n      0x20\n        /* \"#utility.yul\":11726:11735   */\n      dup3\n        /* \"#utility.yul\":11722:11740   */\n      add\n        /* \"#utility.yul\":11714:11740   */\n      swap1\n      pop\n        /* \"#utility.yul\":11786:11795   */\n      dup2\n        /* \"#utility.yul\":11780:11784   */\n      dup2\n        /* \"#utility.yul\":11776:11796   */\n      sub\n        /* \"#utility.yul\":11772:11773   */\n      0x00\n        /* \"#utility.yul\":11761:11770   */\n      dup4\n        /* \"#utility.yul\":11757:11774   */\n      add\n        /* \"#utility.yul\":11750:11797   */\n      mstore\n        /* \"#utility.yul\":11814:11920   */\n      tag_647\n        /* \"#utility.yul\":11915:11919   */\n      dup2\n        /* \"#utility.yul\":11906:11912   */\n      dup5\n        /* \"#utility.yul\":11814:11920   */\n      tag_506\n      jump\t// in\n    tag_647:\n        /* \"#utility.yul\":11806:11920   */\n      swap1\n      pop\n        /* \"#utility.yul\":11558:11927   */\n      swap3\n      swap2\n      pop\n      pop\n      jump\t// out\n        /* \"#utility.yul\":11933:12055   */\n    tag_507:\n        /* \"#utility.yul\":12006:12030   */\n      tag_649\n        /* \"#utility.yul\":12024:12029   */\n      dup2\n        /* \"#utility.yul\":12006:12030   */\n      tag_475\n      jump\t// in\n    tag_649:\n        /* \"#utility.yul\":11999:12004   */\n      dup2\n        /* \"#utility.yul\":11996:12031   */\n      eq\n        /* \"#utility.yul\":11986:12049   */\n      tag_650\n      jumpi\n        /* \"#utility.yul\":12045:12046   */\n      0x00\n        /* \"#utility.yul\":12042:12043   */\n      dup1\n        /* \"#utility.yul\":12035:12047   */\n      revert\n        /* \"#utility.yul\":11986:12049   */\n    tag_650:\n        /* \"#utility.yul\":11933:12055   */\n      pop\n      jump\t// out\n        /* \"#utility.yul\":12061:12200   */\n    tag_508:\n        /* \"#utility.yul\":12107:12112   */\n      0x00\n        /* \"#utility.yul\":12145:12151   */\n      dup2\n        /* \"#utility.yul\":12132:12152   */\n      calldataload\n        /* \"#utility.yul\":12123:12152   */\n      swap1\n      pop\n        /* \"#utility.yul\":12161:12194   */\n      tag_652\n        /* \"#utility.yul\":12188:12193   */\n      dup2\n        /* \"#utility.yul\":12161:12194   */\n      tag_507\n      jump\t// in\n    tag_652:\n        /* \"#utility.yul\":12061:12200   */\n      swap3\n      swap2\n      pop\n      pop\n      jump\t// out\n        /* \"#utility.yul\":12206:13837   */\n    tag_52:\n        /* \"#utility.yul\":12341:12347   */\n      0x00\n        /* \"#utility.yul\":12349:12355   */\n      dup1\n        /* \"#utility.yul\":12357:12363   */\n      0x00\n        /* \"#utility.yul\":12365:12371   */\n      dup1\n        /* \"#utility.yul\":12373:12379   */\n      0x00\n        /* \"#utility.yul\":12422:12425   */\n      0xa0\n        /* \"#utility.yul\":12410:12419   */\n      dup7\n        /* \"#utility.yul\":12401:12408   */\n      dup9\n        /* \"#utility.yul\":12397:12420   */\n      sub\n        /* \"#utility.yul\":12393:12426   */\n      slt\n        /* \"#utility.yul\":12390:12510   */\n      iszero\n      tag_654\n      jumpi\n        /* \"#utility.yul\":12429:12508   */\n      tag_655\n      tag_492\n      jump\t// in\n    tag_655:\n        /* \"#utility.yul\":12390:12510   */\n    tag_654:\n        /* \"#utility.yul\":12577:12578   */\n      0x00\n        /* \"#utility.yul\":12566:12575   */\n      dup7\n        /* \"#utility.yul\":12562:12579   */\n      add\n        /* \"#utility.yul\":12549:12580   */\n      calldataload\n        /* \"#utility.yul\":12607:12625   */\n      0xffffffffffffffff\n        /* \"#utility.yul\":12599:12605   */\n      dup2\n        /* \"#utility.yul\":12596:12626   */\n      gt\n        /* \"#utility.yul\":12593:12710   */\n      iszero\n      tag_656\n      jumpi\n        /* \"#utility.yul\":12629:12708   */\n      tag_657\n      tag_493\n      jump\t// in\n    tag_657:\n        /* \"#utility.yul\":12593:12710   */\n    tag_656:\n        /* \"#utility.yul\":12734:12797   */\n      tag_658\n        /* \"#utility.yul\":12789:12796   */\n      dup9\n        /* \"#utility.yul\":12780:12786   */\n      dup3\n        /* \"#utility.yul\":12769:12778   */\n      dup10\n        /* \"#utility.yul\":12765:12787   */\n      add\n        /* \"#utility.yul\":12734:12797   */\n      tag_504\n      jump\t// in\n    tag_658:\n        /* \"#utility.yul\":12724:12797   */\n      swap6\n      pop\n        /* \"#utility.yul\":12520:12807   */\n      pop\n        /* \"#utility.yul\":12874:12876   */\n      0x20\n        /* \"#utility.yul\":12863:12872   */\n      dup7\n        /* \"#utility.yul\":12859:12877   */\n      add\n        /* \"#utility.yul\":12846:12878   */\n      calldataload\n        /* \"#utility.yul\":12905:12923   */\n      0xffffffffffffffff\n        /* \"#utility.yul\":12897:12903   */\n      dup2\n        /* \"#utility.yul\":12894:12924   */\n      gt\n        /* \"#utility.yul\":12891:13008   */\n      iszero\n      tag_659\n      jumpi\n        /* \"#utility.yul\":12927:13006   */\n      tag_660\n      tag_493\n      jump\t// in\n    tag_660:\n        /* \"#utility.yul\":12891:13008   */\n    tag_659:\n        /* \"#utility.yul\":13032:13095   */\n      tag_661\n        /* \"#utility.yul\":13087:13094   */\n      dup9\n        /* \"#utility.yul\":13078:13084   */\n      dup3\n        /* \"#utility.yul\":13067:13076   */\n      dup10\n        /* \"#utility.yul\":13063:13085   */\n      add\n        /* \"#utility.yul\":13032:13095   */\n      tag_504\n      jump\t// in\n    tag_661:\n        /* \"#utility.yul\":13022:13095   */\n      swap5\n      pop\n        /* \"#utility.yul\":12817:13105   */\n      pop\n        /* \"#utility.yul\":13144:13146   */\n      0x40\n        /* \"#utility.yul\":13170:13223   */\n      tag_662\n        /* \"#utility.yul\":13215:13222   */\n      dup9\n        /* \"#utility.yul\":13206:13212   */\n      dup3\n        /* \"#utility.yul\":13195:13204   */\n      dup10\n        /* \"#utility.yul\":13191:13213   */\n      add\n        /* \"#utility.yul\":13170:13223   */\n      tag_508\n      jump\t// in\n    tag_662:\n        /* \"#utility.yul\":13160:13223   */\n      swap4\n      pop\n        /* \"#utility.yul\":13115:13233   */\n      pop\n        /* \"#utility.yul\":13300:13302   */\n      0x60\n        /* \"#utility.yul\":13289:13298   */\n      dup7\n        /* \"#utility.yul\":13285:13303   */\n      add\n        /* \"#utility.yul\":13272:13304   */\n      calldataload\n        /* \"#utility.yul\":13331:13349   */\n      0xffffffffffffffff\n        /* \"#utility.yul\":13323:13329   */\n      dup2\n        /* \"#utility.yul\":13320:13350   */\n      gt\n        /* \"#utility.yul\":13317:13434   */\n      iszero\n      tag_663\n      jumpi\n        /* \"#utility.yul\":13353:13432   */\n      tag_664\n      tag_493\n      jump\t// in\n    tag_664:\n        /* \"#utility.yul\":13317:13434   */\n    tag_663:\n        /* \"#utility.yul\":13458:13521   */\n      tag_665\n        /* \"#utility.yul\":13513:13520   */\n      dup9\n        /* \"#utility.yul\":13504:13510   */\n      dup3\n        /* \"#utility.yul\":13493:13502   */\n      dup10\n        /* \"#utility.yul\":13489:13511   */\n      add\n        /* \"#utility.yul\":13458:13521   */\n      tag_504\n      jump\t// in\n    tag_665:\n        /* \"#utility.yul\":13448:13521   */\n      swap3\n      pop\n        /* \"#utility.yul\":13243:13531   */\n      pop\n        /* \"#utility.yul\":13598:13601   */\n      0x80\n        /* \"#utility.yul\":13587:13596   */\n      dup7\n        /* \"#utility.yul\":13583:13602   */\n      add\n        /* \"#utility.yul\":13570:13603   */\n      calldataload\n        /* \"#utility.yul\":13630:13648   */\n      0xffffffffffffffff\n        /* \"#utility.yul\":13622:13628   */\n      dup2\n        /* \"#utility.yul\":13619:13649   */\n      gt\n        /* \"#utility.yul\":13616:13733   */\n      iszero\n      tag_666\n      jumpi\n        /* \"#utility.yul\":13652:13731   */\n      tag_667\n      tag_493\n      jump\t// in\n    tag_667:\n        /* \"#utility.yul\":13616:13733   */\n    tag_666:\n        /* \"#utility.yul\":13757:13820   */\n      tag_668\n        /* \"#utility.yul\":13812:13819   */\n      dup9\n        /* \"#utility.yul\":13803:13809   */\n      dup3\n        /* \"#utility.yul\":13792:13801   */\n      dup10\n        /* \"#utility.yul\":13788:13810   */\n      add\n        /* \"#utility.yul\":13757:13820   */\n      tag_504\n      jump\t// in\n    tag_668:\n        /* \"#utility.yul\":13747:13820   */\n      swap2\n      pop\n        /* \"#utility.yul\":13541:13830   */\n      pop\n        /* \"#utility.yul\":12206:13837   */\n      swap3\n      swap6\n      pop\n      swap3\n      swap6\n      swap1\n      swap4\n      pop\n      jump\t// out\n        /* \"#utility.yul\":13843:14172   */\n    tag_57:\n        /* \"#utility.yul\":13902:13908   */\n      0x00\n        /* \"#utility.yul\":13951:13953   */\n      0x20\n        /* \"#utility.yul\":13939:13948   */\n      dup3\n        /* \"#utility.yul\":13930:13937   */\n      dup5\n        /* \"#utility.yul\":13926:13949   */\n      sub\n        /* \"#utility.yul\":13922:13954   */\n      slt\n        /* \"#utility.yul\":13919:14038   */\n      iszero\n      tag_670\n      jumpi\n        /* \"#utility.yul\":13957:14036   */\n      tag_671\n      tag_492\n      jump\t// in\n    tag_671:\n        /* \"#utility.yul\":13919:14038   */\n    tag_670:\n        /* \"#utility.yul\":14077:14078   */\n      0x00\n        /* \"#utility.yul\":14102:14155   */\n      tag_672\n        /* \"#utility.yul\":14147:14154   */\n      dup5\n        /* \"#utility.yul\":14138:14144   */\n      dup3\n        /* \"#utility.yul\":14127:14136   */\n      dup6\n        /* \"#utility.yul\":14123:14145   */\n      add\n        /* \"#utility.yul\":14102:14155   */\n      tag_508\n      jump\t// in\n    tag_672:\n        /* \"#utility.yul\":14092:14155   */\n      swap2\n      pop\n        /* \"#utility.yul\":14048:14165   */\n      pop\n        /* \"#utility.yul\":13843:14172   */\n      swap3\n      swap2\n      pop\n      pop\n      jump\t// out\n        /* \"#utility.yul\":14178:14296   */\n    tag_509:\n        /* \"#utility.yul\":14265:14289   */\n      tag_674\n        /* \"#utility.yul\":14283:14288   */\n      dup2\n        /* \"#utility.yul\":14265:14289   */\n      tag_475\n      jump\t// in\n    tag_674:\n        /* \"#utility.yul\":14260:14263   */\n      dup3\n        /* \"#utility.yul\":14253:14290   */\n      mstore\n        /* \"#utility.yul\":14178:14296   */\n      pop\n      pop\n      jump\t// out\n        /* \"#utility.yul\":14302:14420   */\n    tag_510:\n        /* \"#utility.yul\":14389:14413   */\n      tag_676\n        /* \"#utility.yul\":14407:14412   */\n      dup2\n        /* \"#utility.yul\":14389:14413   */\n      tag_478\n      jump\t// in\n    tag_676:\n        /* \"#utility.yul\":14384:14387   */\n      dup3\n        /* \"#utility.yul\":14377:14414   */\n      mstore\n        /* \"#utility.yul\":14302:14420   */\n      pop\n      pop\n      jump\t// out\n        /* \"#utility.yul\":14426:14595   */\n    tag_511:\n        /* \"#utility.yul\":14510:14521   */\n      0x00\n        /* \"#utility.yul\":14544:14550   */\n      dup3\n        /* \"#utility.yul\":14539:14542   */\n      dup3\n        /* \"#utility.yul\":14532:14551   */\n      mstore\n        /* \"#utility.yul\":14584:14588   */\n      0x20\n        /* \"#utility.yul\":14579:14582   */\n      dup3\n        /* \"#utility.yul\":14575:14589   */\n      add\n        /* \"#utility.yul\":14560:14589   */\n      swap1\n      pop\n        /* \"#utility.yul\":14426:14595   */\n      swap3\n      swap2\n      pop\n      pop\n      jump\t// out\n        /* \"#utility.yul\":14601:14978   */\n    tag_512:\n        /* \"#utility.yul\":14689:14692   */\n      0x00\n        /* \"#utility.yul\":14717:14756   */\n      tag_679\n        /* \"#utility.yul\":14750:14755   */\n      dup3\n        /* \"#utility.yul\":14717:14756   */\n      tag_480\n      jump\t// in\n    tag_679:\n        /* \"#utility.yul\":14772:14843   */\n      tag_680\n        /* \"#utility.yul\":14836:14842   */\n      dup2\n        /* \"#utility.yul\":14831:14834   */\n      dup6\n        /* \"#utility.yul\":14772:14843   */\n      tag_511\n      jump\t// in\n    tag_680:\n        /* \"#utility.yul\":14765:14843   */\n      swap4\n      pop\n        /* \"#utility.yul\":14852:14917   */\n      tag_681\n        /* \"#utility.yul\":14910:14916   */\n      dup2\n        /* \"#utility.yul\":14905:14908   */\n      dup6\n        /* \"#utility.yul\":14898:14902   */\n      0x20\n        /* \"#utility.yul\":14891:14896   */\n      dup7\n        /* \"#utility.yul\":14887:14903   */\n      add\n        /* \"#utility.yul\":14852:14917   */\n      tag_482\n      jump\t// in\n    tag_681:\n        /* \"#utility.yul\":14942:14971   */\n      tag_682\n        /* \"#utility.yul\":14964:14970   */\n      dup2\n        /* \"#utility.yul\":14942:14971   */\n      tag_483\n      jump\t// in\n    tag_682:\n        /* \"#utility.yul\":14937:14940   */\n      dup5\n        /* \"#utility.yul\":14933:14972   */\n      add\n        /* \"#utility.yul\":14926:14972   */\n      swap2\n      pop\n        /* \"#utility.yul\":14693:14978   */\n      pop\n        /* \"#utility.yul\":14601:14978   */\n      swap3\n      swap2\n      pop\n      pop\n      jump\t// out\n        /* \"#utility.yul\":14984:16333   */\n    tag_60:\n        /* \"#utility.yul\":15347:15351   */\n      0x00\n        /* \"#utility.yul\":15385:15388   */\n      0x0100\n        /* \"#utility.yul\":15374:15383   */\n      dup3\n        /* \"#utility.yul\":15370:15389   */\n      add\n        /* \"#utility.yul\":15362:15389   */\n      swap1\n      pop\n        /* \"#utility.yul\":15399:15470   */\n      tag_684\n        /* \"#utility.yul\":15467:15468   */\n      0x00\n        /* \"#utility.yul\":15456:15465   */\n      dup4\n        /* \"#utility.yul\":15452:15469   */\n      add\n        /* \"#utility.yul\":15443:15449   */\n      dup12\n        /* \"#utility.yul\":15399:15470   */\n      tag_509\n      jump\t// in\n    tag_684:\n        /* \"#utility.yul\":15480:15552   */\n      tag_685\n        /* \"#utility.yul\":15548:15550   */\n      0x20\n        /* \"#utility.yul\":15537:15546   */\n      dup4\n        /* \"#utility.yul\":15533:15551   */\n      add\n        /* \"#utility.yul\":15524:15530   */\n      dup11\n        /* \"#utility.yul\":15480:15552   */\n      tag_510\n      jump\t// in\n    tag_685:\n        /* \"#utility.yul\":15599:15608   */\n      dup2\n        /* \"#utility.yul\":15593:15597   */\n      dup2\n        /* \"#utility.yul\":15589:15609   */\n      sub\n        /* \"#utility.yul\":15584:15586   */\n      0x40\n        /* \"#utility.yul\":15573:15582   */\n      dup4\n        /* \"#utility.yul\":15569:15587   */\n      add\n        /* \"#utility.yul\":15562:15610   */\n      mstore\n        /* \"#utility.yul\":15627:15705   */\n      tag_686\n        /* \"#utility.yul\":15700:15704   */\n      dup2\n        /* \"#utility.yul\":15691:15697   */\n      dup10\n        /* \"#utility.yul\":15627:15705   */\n      tag_512\n      jump\t// in\n    tag_686:\n        /* \"#utility.yul\":15619:15705   */\n      swap1\n      pop\n        /* \"#utility.yul\":15752:15761   */\n      dup2\n        /* \"#utility.yul\":15746:15750   */\n      dup2\n        /* \"#utility.yul\":15742:15762   */\n      sub\n        /* \"#utility.yul\":15737:15739   */\n      0x60\n        /* \"#utility.yul\":15726:15735   */\n      dup4\n        /* \"#utility.yul\":15722:15740   */\n      add\n        /* \"#utility.yul\":15715:15763   */\n      mstore\n        /* \"#utility.yul\":15780:15858   */\n      tag_687\n        /* \"#utility.yul\":15853:15857   */\n      dup2\n        /* \"#utility.yul\":15844:15850   */\n      dup9\n        /* \"#utility.yul\":15780:15858   */\n      tag_512\n      jump\t// in\n    tag_687:\n        /* \"#utility.yul\":15772:15858   */\n      swap1\n      pop\n        /* \"#utility.yul\":15868:15941   */\n      tag_688\n        /* \"#utility.yul\":15936:15939   */\n      0x80\n        /* \"#utility.yul\":15925:15934   */\n      dup4\n        /* \"#utility.yul\":15921:15940   */\n      add\n        /* \"#utility.yul\":15912:15918   */\n      dup8\n        /* \"#utility.yul\":15868:15941   */\n      tag_509\n      jump\t// in\n    tag_688:\n        /* \"#utility.yul\":15989:15998   */\n      dup2\n        /* \"#utility.yul\":15983:15987   */\n      dup2\n        /* \"#utility.yul\":15979:15999   */\n      sub\n        /* \"#utility.yul\":15973:15976   */\n      0xa0\n        /* \"#utility.yul\":15962:15971   */\n      dup4\n        /* \"#utility.yul\":15958:15977   */\n      add\n        /* \"#utility.yul\":15951:16000   */\n      mstore\n        /* \"#utility.yul\":16017:16095   */\n      tag_689\n        /* \"#utility.yul\":16090:16094   */\n      dup2\n        /* \"#utility.yul\":16081:16087   */\n      dup7\n        /* \"#utility.yul\":16017:16095   */\n      tag_512\n      jump\t// in\n    tag_689:\n        /* \"#utility.yul\":16009:16095   */\n      swap1\n      pop\n        /* \"#utility.yul\":16105:16172   */\n      tag_690\n        /* \"#utility.yul\":16167:16170   */\n      0xc0\n        /* \"#utility.yul\":16156:16165   */\n      dup4\n        /* \"#utility.yul\":16152:16171   */\n      add\n        /* \"#utility.yul\":16143:16149   */\n      dup6\n        /* \"#utility.yul\":16105:16172   */\n      tag_505\n      jump\t// in\n    tag_690:\n        /* \"#utility.yul\":16220:16229   */\n      dup2\n        /* \"#utility.yul\":16214:16218   */\n      dup2\n        /* \"#utility.yul\":16210:16230   */\n      sub\n        /* \"#utility.yul\":16204:16207   */\n      0xe0\n        /* \"#utility.yul\":16193:16202   */\n      dup4\n        /* \"#utility.yul\":16189:16208   */\n      add\n        /* \"#utility.yul\":16182:16231   */\n      mstore\n        /* \"#utility.yul\":16248:16326   */\n      tag_691\n        /* \"#utility.yul\":16321:16325   */\n      dup2\n        /* \"#utility.yul\":16312:16318   */\n      dup5\n        /* \"#utility.yul\":16248:16326   */\n      tag_512\n      jump\t// in\n    tag_691:\n        /* \"#utility.yul\":16240:16326   */\n      swap1\n      pop\n        /* \"#utility.yul\":14984:16333   */\n      swap10\n      swap9\n      pop\n      pop\n      pop\n      pop\n      pop\n      pop\n      pop\n      pop\n      pop\n      jump\t// out\n        /* \"#utility.yul\":16339:16963   */\n    tag_66:\n        /* \"#utility.yul\":16528:16532   */\n      0x00\n        /* \"#utility.yul\":16566:16568   */\n      0x60\n        /* \"#utility.yul\":16555:16564   */\n      dup3\n        /* \"#utility.yul\":16551:16569   */\n      add\n        /* \"#utility.yul\":16543:16569   */\n      swap1\n      pop\n        /* \"#utility.yul\":16615:16624   */\n      dup2\n        /* \"#utility.yul\":16609:16613   */\n      dup2\n        /* \"#utility.yul\":16605:16625   */\n      sub\n        /* \"#utility.yul\":16601:16602   */\n      0x00\n        /* \"#utility.yul\":16590:16599   */\n      dup4\n        /* \"#utility.yul\":16586:16603   */\n      add\n        /* \"#utility.yul\":16579:16626   */\n      mstore\n        /* \"#utility.yul\":16643:16721   */\n      tag_693\n        /* \"#utility.yul\":16716:16720   */\n      dup2\n        /* \"#utility.yul\":16707:16713   */\n      dup7\n        /* \"#utility.yul\":16643:16721   */\n      tag_512\n      jump\t// in\n    tag_693:\n        /* \"#utility.yul\":16635:16721   */\n      swap1\n      pop\n        /* \"#utility.yul\":16731:16803   */\n      tag_694\n        /* \"#utility.yul\":16799:16801   */\n      0x20\n        /* \"#utility.yul\":16788:16797   */\n      dup4\n        /* \"#utility.yul\":16784:16802   */\n      add\n        /* \"#utility.yul\":16775:16781   */\n      dup6\n        /* \"#utility.yul\":16731:16803   */\n      tag_510\n      jump\t// in\n    tag_694:\n        /* \"#utility.yul\":16850:16859   */\n      dup2\n        /* \"#utility.yul\":16844:16848   */\n      dup2\n        /* \"#utility.yul\":16840:16860   */\n      sub\n        /* \"#utility.yul\":16835:16837   */\n      0x40\n        /* \"#utility.yul\":16824:16833   */\n      dup4\n        /* \"#utility.yul\":16820:16838   */\n      add\n        /* \"#utility.yul\":16813:16861   */\n      mstore\n        /* \"#utility.yul\":16878:16956   */\n      tag_695\n        /* \"#utility.yul\":16951:16955   */\n      dup2\n        /* \"#utility.yul\":16942:16948   */\n      dup5\n        /* \"#utility.yul\":16878:16956   */\n      tag_512\n      jump\t// in\n    tag_695:\n        /* \"#utility.yul\":16870:16956   */\n      swap1\n      pop\n        /* \"#utility.yul\":16339:16963   */\n      swap5\n      swap4\n      pop\n      pop\n      pop\n      pop\n      jump\t// out\n        /* \"#utility.yul\":16969:17191   */\n    tag_71:\n        /* \"#utility.yul\":17062:17066   */\n      0x00\n        /* \"#utility.yul\":17100:17102   */\n      0x20\n        /* \"#utility.yul\":17089:17098   */\n      dup3\n        /* \"#utility.yul\":17085:17103   */\n      add\n        /* \"#utility.yul\":17077:17103   */\n      swap1\n      pop\n        /* \"#utility.yul\":17113:17184   */\n      tag_697\n        /* \"#utility.yul\":17181:17182   */\n      0x00\n        /* \"#utility.yul\":17170:17179   */\n      dup4\n        /* \"#utility.yul\":17166:17183   */\n      add\n        /* \"#utility.yul\":17157:17163   */\n      dup5\n        /* \"#utility.yul\":17113:17184   */\n      tag_509\n      jump\t// in\n    tag_697:\n        /* \"#utility.yul\":16969:17191   */\n      swap3\n      swap2\n      pop\n      pop\n      jump\t// out\n        /* \"#utility.yul\":17197:17960   */\n    tag_77:\n        /* \"#utility.yul\":17424:17428   */\n      0x00\n        /* \"#utility.yul\":17462:17465   */\n      0xc0\n        /* \"#utility.yul\":17451:17460   */\n      dup3\n        /* \"#utility.yul\":17447:17466   */\n      add\n        /* \"#utility.yul\":17439:17466   */\n      swap1\n      pop\n        /* \"#utility.yul\":17476:17547   */\n      tag_699\n        /* \"#utility.yul\":17544:17545   */\n      0x00\n        /* \"#utility.yul\":17533:17542   */\n      dup4\n        /* \"#utility.yul\":17529:17546   */\n      add\n        /* \"#utility.yul\":17520:17526   */\n      dup10\n        /* \"#utility.yul\":17476:17547   */\n      tag_510\n      jump\t// in\n    tag_699:\n        /* \"#utility.yul\":17557:17629   */\n      tag_700\n        /* \"#utility.yul\":17625:17627   */\n      0x20\n        /* \"#utility.yul\":17614:17623   */\n      dup4\n        /* \"#utility.yul\":17610:17628   */\n      add\n        /* \"#utility.yul\":17601:17607   */\n      dup9\n        /* \"#utility.yul\":17557:17629   */\n      tag_510\n      jump\t// in\n    tag_700:\n        /* \"#utility.yul\":17639:17711   */\n      tag_701\n        /* \"#utility.yul\":17707:17709   */\n      0x40\n        /* \"#utility.yul\":17696:17705   */\n      dup4\n        /* \"#utility.yul\":17692:17710   */\n      add\n        /* \"#utility.yul\":17683:17689   */\n      dup8\n        /* \"#utility.yul\":17639:17711   */\n      tag_509\n      jump\t// in\n    tag_701:\n        /* \"#utility.yul\":17721:17793   */\n      tag_702\n        /* \"#utility.yul\":17789:17791   */\n      0x60\n        /* \"#utility.yul\":17778:17787   */\n      dup4\n        /* \"#utility.yul\":17774:17792   */\n      add\n        /* \"#utility.yul\":17765:17771   */\n      dup7\n        /* \"#utility.yul\":17721:17793   */\n      tag_509\n      jump\t// in\n    tag_702:\n        /* \"#utility.yul\":17803:17870   */\n      tag_703\n        /* \"#utility.yul\":17865:17868   */\n      0x80\n        /* \"#utility.yul\":17854:17863   */\n      dup4\n        /* \"#utility.yul\":17850:17869   */\n      add\n        /* \"#utility.yul\":17841:17847   */\n      dup6\n        /* \"#utility.yul\":17803:17870   */\n      tag_505\n      jump\t// in\n    tag_703:\n        /* \"#utility.yul\":17880:17953   */\n      tag_704\n        /* \"#utility.yul\":17948:17951   */\n      0xa0\n        /* \"#utility.yul\":17937:17946   */\n      dup4\n        /* \"#utility.yul\":17933:17952   */\n      add\n        /* \"#utility.yul\":17924:17930   */\n      dup5\n        /* \"#utility.yul\":17880:17953   */\n      tag_509\n      jump\t// in\n    tag_704:\n        /* \"#utility.yul\":17197:17960   */\n      swap8\n      swap7\n      pop\n      pop\n      pop\n      pop\n      pop\n      pop\n      pop\n      jump\t// out\n        /* \"#utility.yul\":17966:18107   */\n    tag_513:\n        /* \"#utility.yul\":18060:18066   */\n      0x00\n        /* \"#utility.yul\":18094:18099   */\n      dup2\n        /* \"#utility.yul\":18088:18100   */\n      mload\n        /* \"#utility.yul\":18078:18100   */\n      swap1\n      pop\n        /* \"#utility.yul\":17966:18107   */\n      swap2\n      swap1\n      pop\n      jump\t// out\n        /* \"#utility.yul\":18113:18324   */\n    tag_514:\n        /* \"#utility.yul\":18239:18250   */\n      0x00\n        /* \"#utility.yul\":18273:18279   */\n      dup3\n        /* \"#utility.yul\":18268:18271   */\n      dup3\n        /* \"#utility.yul\":18261:18280   */\n      mstore\n        /* \"#utility.yul\":18313:18317   */\n      0x20\n        /* \"#utility.yul\":18308:18311   */\n      dup3\n        /* \"#utility.yul\":18304:18318   */\n      add\n        /* \"#utility.yul\":18289:18318   */\n      swap1\n      pop\n        /* \"#utility.yul\":18113:18324   */\n      swap3\n      swap2\n      pop\n      pop\n      jump\t// out\n        /* \"#utility.yul\":18330:18489   */\n    tag_515:\n        /* \"#utility.yul\":18424:18428   */\n      0x00\n        /* \"#utility.yul\":18447:18450   */\n      dup2\n        /* \"#utility.yul\":18439:18450   */\n      swap1\n      pop\n        /* \"#utility.yul\":18477:18481   */\n      0x20\n        /* \"#utility.yul\":18472:18475   */\n      dup3\n        /* \"#utility.yul\":18468:18482   */\n      add\n        /* \"#utility.yul\":18460:18482   */\n      swap1\n      pop\n        /* \"#utility.yul\":18330:18489   */\n      swap2\n      swap1\n      pop\n      jump\t// out\n        /* \"#utility.yul\":18573:19771   */\n    tag_516:\n        /* \"#utility.yul\":18714:18718   */\n      0xc0\n        /* \"#utility.yul\":18709:18712   */\n      dup3\n        /* \"#utility.yul\":18705:18719   */\n      add\n        /* \"#utility.yul\":18801:18805   */\n      0x00\n        /* \"#utility.yul\":18794:18799   */\n      dup3\n        /* \"#utility.yul\":18790:18806   */\n      add\n        /* \"#utility.yul\":18784:18807   */\n      mload\n        /* \"#utility.yul\":18820:18883   */\n      tag_709\n        /* \"#utility.yul\":18877:18881   */\n      0x00\n        /* \"#utility.yul\":18872:18875   */\n      dup6\n        /* \"#utility.yul\":18868:18882   */\n      add\n        /* \"#utility.yul\":18854:18866   */\n      dup3\n        /* \"#utility.yul\":18820:18883   */\n      tag_479\n      jump\t// in\n    tag_709:\n        /* \"#utility.yul\":18729:18893   */\n      pop\n        /* \"#utility.yul\":18973:18977   */\n      0x20\n        /* \"#utility.yul\":18966:18971   */\n      dup3\n        /* \"#utility.yul\":18962:18978   */\n      add\n        /* \"#utility.yul\":18956:18979   */\n      mload\n        /* \"#utility.yul\":18992:19055   */\n      tag_710\n        /* \"#utility.yul\":19049:19053   */\n      0x20\n        /* \"#utility.yul\":19044:19047   */\n      dup6\n        /* \"#utility.yul\":19040:19054   */\n      add\n        /* \"#utility.yul\":19026:19038   */\n      dup3\n        /* \"#utility.yul\":18992:19055   */\n      tag_479\n      jump\t// in\n    tag_710:\n        /* \"#utility.yul\":18903:19065   */\n      pop\n        /* \"#utility.yul\":19152:19156   */\n      0x40\n        /* \"#utility.yul\":19145:19150   */\n      dup3\n        /* \"#utility.yul\":19141:19157   */\n      add\n        /* \"#utility.yul\":19135:19158   */\n      mload\n        /* \"#utility.yul\":19171:19234   */\n      tag_711\n        /* \"#utility.yul\":19228:19232   */\n      0x40\n        /* \"#utility.yul\":19223:19226   */\n      dup6\n        /* \"#utility.yul\":19219:19233   */\n      add\n        /* \"#utility.yul\":19205:19217   */\n      dup3\n        /* \"#utility.yul\":19171:19234   */\n      tag_476\n      jump\t// in\n    tag_711:\n        /* \"#utility.yul\":19075:19244   */\n      pop\n        /* \"#utility.yul\":19329:19333   */\n      0x60\n        /* \"#utility.yul\":19322:19327   */\n      dup3\n        /* \"#utility.yul\":19318:19334   */\n      add\n        /* \"#utility.yul\":19312:19335   */\n      mload\n        /* \"#utility.yul\":19348:19411   */\n      tag_712\n        /* \"#utility.yul\":19405:19409   */\n      0x60\n        /* \"#utility.yul\":19400:19403   */\n      dup6\n        /* \"#utility.yul\":19396:19410   */\n      add\n        /* \"#utility.yul\":19382:19394   */\n      dup3\n        /* \"#utility.yul\":19348:19411   */\n      tag_476\n      jump\t// in\n    tag_712:\n        /* \"#utility.yul\":19254:19421   */\n      pop\n        /* \"#utility.yul\":19506:19510   */\n      0x80\n        /* \"#utility.yul\":19499:19504   */\n      dup3\n        /* \"#utility.yul\":19495:19511   */\n      add\n        /* \"#utility.yul\":19489:19512   */\n      mload\n        /* \"#utility.yul\":19525:19582   */\n      tag_713\n        /* \"#utility.yul\":19576:19580   */\n      0x80\n        /* \"#utility.yul\":19571:19574   */\n      dup6\n        /* \"#utility.yul\":19567:19581   */\n      add\n        /* \"#utility.yul\":19553:19565   */\n      dup3\n        /* \"#utility.yul\":19525:19582   */\n      tag_486\n      jump\t// in\n    tag_713:\n        /* \"#utility.yul\":19431:19592   */\n      pop\n        /* \"#utility.yul\":19672:19676   */\n      0xa0\n        /* \"#utility.yul\":19665:19670   */\n      dup3\n        /* \"#utility.yul\":19661:19677   */\n      add\n        /* \"#utility.yul\":19655:19678   */\n      mload\n        /* \"#utility.yul\":19691:19754   */\n      tag_714\n        /* \"#utility.yul\":19748:19752   */\n      0xa0\n        /* \"#utility.yul\":19743:19746   */\n      dup6\n        /* \"#utility.yul\":19739:19753   */\n      add\n        /* \"#utility.yul\":19725:19737   */\n      dup3\n        /* \"#utility.yul\":19691:19754   */\n      tag_476\n      jump\t// in\n    tag_714:\n        /* \"#utility.yul\":19602:19764   */\n      pop\n        /* \"#utility.yul\":18683:19771   */\n      pop\n        /* \"#utility.yul\":18573:19771   */\n      pop\n      pop\n      jump\t// out\n        /* \"#utility.yul\":19777:20064   */\n    tag_517:\n        /* \"#utility.yul\":19900:19910   */\n      0x00\n        /* \"#utility.yul\":19921:20021   */\n      tag_716\n        /* \"#utility.yul\":20017:20020   */\n      dup4\n        /* \"#utility.yul\":20009:20015   */\n      dup4\n        /* \"#utility.yul\":19921:20021   */\n      tag_516\n      jump\t// in\n    tag_716:\n        /* \"#utility.yul\":20053:20057   */\n      0xc0\n        /* \"#utility.yul\":20048:20051   */\n      dup4\n        /* \"#utility.yul\":20044:20058   */\n      add\n        /* \"#utility.yul\":20030:20058   */\n      swap1\n      pop\n        /* \"#utility.yul\":19777:20064   */\n      swap3\n      swap2\n      pop\n      pop\n      jump\t// out\n        /* \"#utility.yul\":20070:20210   */\n    tag_518:\n        /* \"#utility.yul\":20167:20171   */\n      0x00\n        /* \"#utility.yul\":20199:20203   */\n      0x20\n        /* \"#utility.yul\":20194:20197   */\n      dup3\n        /* \"#utility.yul\":20190:20204   */\n      add\n        /* \"#utility.yul\":20182:20204   */\n      swap1\n      pop\n        /* \"#utility.yul\":20070:20210   */\n      swap2\n      swap1\n      pop\n      jump\t// out\n        /* \"#utility.yul\":20298:21246   */\n    tag_519:\n        /* \"#utility.yul\":20471:20474   */\n      0x00\n        /* \"#utility.yul\":20500:20581   */\n      tag_719\n        /* \"#utility.yul\":20575:20580   */\n      dup3\n        /* \"#utility.yul\":20500:20581   */\n      tag_513\n      jump\t// in\n    tag_719:\n        /* \"#utility.yul\":20597:20710   */\n      tag_720\n        /* \"#utility.yul\":20703:20709   */\n      dup2\n        /* \"#utility.yul\":20698:20701   */\n      dup6\n        /* \"#utility.yul\":20597:20710   */\n      tag_514\n      jump\t// in\n    tag_720:\n        /* \"#utility.yul\":20590:20710   */\n      swap4\n      pop\n        /* \"#utility.yul\":20734:20817   */\n      tag_721\n        /* \"#utility.yul\":20811:20816   */\n      dup4\n        /* \"#utility.yul\":20734:20817   */\n      tag_515\n      jump\t// in\n    tag_721:\n        /* \"#utility.yul\":20840:20847   */\n      dup1\n        /* \"#utility.yul\":20871:20872   */\n      0x00\n        /* \"#utility.yul\":20856:21221   */\n    tag_722:\n        /* \"#utility.yul\":20881:20887   */\n      dup4\n        /* \"#utility.yul\":20878:20879   */\n      dup2\n        /* \"#utility.yul\":20875:20888   */\n      lt\n        /* \"#utility.yul\":20856:21221   */\n      iszero\n      tag_724\n      jumpi\n        /* \"#utility.yul\":20957:20963   */\n      dup2\n        /* \"#utility.yul\":20951:20964   */\n      mload\n        /* \"#utility.yul\":20984:21101   */\n      tag_725\n        /* \"#utility.yul\":21097:21100   */\n      dup9\n        /* \"#utility.yul\":21082:21095   */\n      dup3\n        /* \"#utility.yul\":20984:21101   */\n      tag_517\n      jump\t// in\n    tag_725:\n        /* \"#utility.yul\":20977:21101   */\n      swap8\n      pop\n        /* \"#utility.yul\":21124:21211   */\n      tag_726\n        /* \"#utility.yul\":21204:21210   */\n      dup4\n        /* \"#utility.yul\":21124:21211   */\n      tag_518\n      jump\t// in\n    tag_726:\n        /* \"#utility.yul\":21114:21211   */\n      swap3\n      pop\n        /* \"#utility.yul\":20916:21221   */\n      pop\n        /* \"#utility.yul\":20903:20904   */\n      0x01\n        /* \"#utility.yul\":20900:20901   */\n      dup2\n        /* \"#utility.yul\":20896:20905   */\n      add\n        /* \"#utility.yul\":20891:20905   */\n      swap1\n      pop\n        /* \"#utility.yul\":20856:21221   */\n      jump(tag_722)\n    tag_724:\n        /* \"#utility.yul\":20860:20874   */\n      pop\n        /* \"#utility.yul\":21237:21240   */\n      dup6\n        /* \"#utility.yul\":21230:21240   */\n      swap4\n      pop\n        /* \"#utility.yul\":20476:21246   */\n      pop\n      pop\n      pop\n        /* \"#utility.yul\":20298:21246   */\n      swap3\n      swap2\n      pop\n      pop\n      jump\t// out\n        /* \"#utility.yul\":21252:21733   */\n    tag_86:\n        /* \"#utility.yul\":21449:21453   */\n      0x00\n        /* \"#utility.yul\":21487:21489   */\n      0x20\n        /* \"#utility.yul\":21476:21485   */\n      dup3\n        /* \"#utility.yul\":21472:21490   */\n      add\n        /* \"#utility.yul\":21464:21490   */\n      swap1\n      pop\n        /* \"#utility.yul\":21536:21545   */\n      dup2\n        /* \"#utility.yul\":21530:21534   */\n      dup2\n        /* \"#utility.yul\":21526:21546   */\n      sub\n        /* \"#utility.yul\":21522:21523   */\n      0x00\n        /* \"#utility.yul\":21511:21520   */\n      dup4\n        /* \"#utility.yul\":21507:21524   */\n      add\n        /* \"#utility.yul\":21500:21547   */\n      mstore\n        /* \"#utility.yul\":21564:21726   */\n      tag_728\n        /* \"#utility.yul\":21721:21725   */\n      dup2\n        /* \"#utility.yul\":21712:21718   */\n      dup5\n        /* \"#utility.yul\":21564:21726   */\n      tag_519\n      jump\t// in\n    tag_728:\n        /* \"#utility.yul\":21556:21726   */\n      swap1\n      pop\n        /* \"#utility.yul\":21252:21733   */\n      swap3\n      swap2\n      pop\n      pop\n      jump\t// out\n        /* \"#utility.yul\":21811:23684   */\n    tag_520:\n        /* \"#utility.yul\":21926:21929   */\n      0x00\n        /* \"#utility.yul\":21962:21968   */\n      0x0100\n        /* \"#utility.yul\":21957:21960   */\n      dup4\n        /* \"#utility.yul\":21953:21969   */\n      add\n        /* \"#utility.yul\":22049:22053   */\n      0x00\n        /* \"#utility.yul\":22042:22047   */\n      dup4\n        /* \"#utility.yul\":22038:22054   */\n      add\n        /* \"#utility.yul\":22032:22055   */\n      mload\n        /* \"#utility.yul\":22068:22131   */\n      tag_730\n        /* \"#utility.yul\":22125:22129   */\n      0x00\n        /* \"#utility.yul\":22120:22123   */\n      dup7\n        /* \"#utility.yul\":22116:22130   */\n      add\n        /* \"#utility.yul\":22102:22114   */\n      dup3\n        /* \"#utility.yul\":22068:22131   */\n      tag_476\n      jump\t// in\n    tag_730:\n        /* \"#utility.yul\":21979:22141   */\n      pop\n        /* \"#utility.yul\":22225:22229   */\n      0x20\n        /* \"#utility.yul\":22218:22223   */\n      dup4\n        /* \"#utility.yul\":22214:22230   */\n      add\n        /* \"#utility.yul\":22208:22231   */\n      mload\n        /* \"#utility.yul\":22244:22307   */\n      tag_731\n        /* \"#utility.yul\":22301:22305   */\n      0x20\n        /* \"#utility.yul\":22296:22299   */\n      dup7\n        /* \"#utility.yul\":22292:22306   */\n      add\n        /* \"#utility.yul\":22278:22290   */\n      dup3\n        /* \"#utility.yul\":22244:22307   */\n      tag_479\n      jump\t// in\n    tag_731:\n        /* \"#utility.yul\":22151:22317   */\n      pop\n        /* \"#utility.yul\":22400:22404   */\n      0x40\n        /* \"#utility.yul\":22393:22398   */\n      dup4\n        /* \"#utility.yul\":22389:22405   */\n      add\n        /* \"#utility.yul\":22383:22406   */\n      mload\n        /* \"#utility.yul\":22453:22456   */\n      dup5\n        /* \"#utility.yul\":22447:22451   */\n      dup3\n        /* \"#utility.yul\":22443:22457   */\n      sub\n        /* \"#utility.yul\":22436:22440   */\n      0x40\n        /* \"#utility.yul\":22431:22434   */\n      dup7\n        /* \"#utility.yul\":22427:22441   */\n      add\n        /* \"#utility.yul\":22420:22458   */\n      mstore\n        /* \"#utility.yul\":22479:22552   */\n      tag_732\n        /* \"#utility.yul\":22547:22551   */\n      dup3\n        /* \"#utility.yul\":22533:22545   */\n      dup3\n        /* \"#utility.yul\":22479:22552   */\n      tag_484\n      jump\t// in\n    tag_732:\n        /* \"#utility.yul\":22471:22552   */\n      swap2\n      pop\n        /* \"#utility.yul\":22327:22563   */\n      pop\n        /* \"#utility.yul\":22652:22656   */\n      0x60\n        /* \"#utility.yul\":22645:22650   */\n      dup4\n        /* \"#utility.yul\":22641:22657   */\n      add\n        /* \"#utility.yul\":22635:22658   */\n      mload\n        /* \"#utility.yul\":22705:22708   */\n      dup5\n        /* \"#utility.yul\":22699:22703   */\n      dup3\n        /* \"#utility.yul\":22695:22709   */\n      sub\n        /* \"#utility.yul\":22688:22692   */\n      0x60\n        /* \"#utility.yul\":22683:22686   */\n      dup7\n        /* \"#utility.yul\":22679:22693   */\n      add\n        /* \"#utility.yul\":22672:22710   */\n      mstore\n        /* \"#utility.yul\":22731:22804   */\n      tag_733\n        /* \"#utility.yul\":22799:22803   */\n      dup3\n        /* \"#utility.yul\":22785:22797   */\n      dup3\n        /* \"#utility.yul\":22731:22804   */\n      tag_484\n      jump\t// in\n    tag_733:\n        /* \"#utility.yul\":22723:22804   */\n      swap2\n      pop\n        /* \"#utility.yul\":22573:22815   */\n      pop\n        /* \"#utility.yul\":22898:22902   */\n      0x80\n        /* \"#utility.yul\":22891:22896   */\n      dup4\n        /* \"#utility.yul\":22887:22903   */\n      add\n        /* \"#utility.yul\":22881:22904   */\n      mload\n        /* \"#utility.yul\":22917:22980   */\n      tag_734\n        /* \"#utility.yul\":22974:22978   */\n      0x80\n        /* \"#utility.yul\":22969:22972   */\n      dup7\n        /* \"#utility.yul\":22965:22979   */\n      add\n        /* \"#utility.yul\":22951:22963   */\n      dup3\n        /* \"#utility.yul\":22917:22980   */\n      tag_476\n      jump\t// in\n    tag_734:\n        /* \"#utility.yul\":22825:22990   */\n      pop\n        /* \"#utility.yul\":23073:23077   */\n      0xa0\n        /* \"#utility.yul\":23066:23071   */\n      dup4\n        /* \"#utility.yul\":23062:23078   */\n      add\n        /* \"#utility.yul\":23056:23079   */\n      mload\n        /* \"#utility.yul\":23126:23129   */\n      dup5\n        /* \"#utility.yul\":23120:23124   */\n      dup3\n        /* \"#utility.yul\":23116:23130   */\n      sub\n        /* \"#utility.yul\":23109:23113   */\n      0xa0\n        /* \"#utility.yul\":23104:23107   */\n      dup7\n        /* \"#utility.yul\":23100:23114   */\n      add\n        /* \"#utility.yul\":23093:23131   */\n      mstore\n        /* \"#utility.yul\":23152:23225   */\n      tag_735\n        /* \"#utility.yul\":23220:23224   */\n      dup3\n        /* \"#utility.yul\":23206:23218   */\n      dup3\n        /* \"#utility.yul\":23152:23225   */\n      tag_484\n      jump\t// in\n    tag_735:\n        /* \"#utility.yul\":23144:23225   */\n      swap2\n      pop\n        /* \"#utility.yul\":23000:23236   */\n      pop\n        /* \"#utility.yul\":23321:23325   */\n      0xc0\n        /* \"#utility.yul\":23314:23319   */\n      dup4\n        /* \"#utility.yul\":23310:23326   */\n      add\n        /* \"#utility.yul\":23304:23327   */\n      mload\n        /* \"#utility.yul\":23340:23397   */\n      tag_736\n        /* \"#utility.yul\":23391:23395   */\n      0xc0\n        /* \"#utility.yul\":23386:23389   */\n      dup7\n        /* \"#utility.yul\":23382:23396   */\n      add\n        /* \"#utility.yul\":23368:23380   */\n      dup3\n        /* \"#utility.yul\":23340:23397   */\n      tag_486\n      jump\t// in\n    tag_736:\n        /* \"#utility.yul\":23246:23407   */\n      pop\n        /* \"#utility.yul\":23494:23498   */\n      0xe0\n        /* \"#utility.yul\":23487:23492   */\n      dup4\n        /* \"#utility.yul\":23483:23499   */\n      add\n        /* \"#utility.yul\":23477:23500   */\n      mload\n        /* \"#utility.yul\":23547:23550   */\n      dup5\n        /* \"#utility.yul\":23541:23545   */\n      dup3\n        /* \"#utility.yul\":23537:23551   */\n      sub\n        /* \"#utility.yul\":23530:23534   */\n      0xe0\n        /* \"#utility.yul\":23525:23528   */\n      dup7\n        /* \"#utility.yul\":23521:23535   */\n      add\n        /* \"#utility.yul\":23514:23552   */\n      mstore\n        /* \"#utility.yul\":23573:23646   */\n      tag_737\n        /* \"#utility.yul\":23641:23645   */\n      dup3\n        /* \"#utility.yul\":23627:23639   */\n      dup3\n        /* \"#utility.yul\":23573:23646   */\n      tag_484\n      jump\t// in\n    tag_737:\n        /* \"#utility.yul\":23565:23646   */\n      swap2\n      pop\n        /* \"#utility.yul\":23417:23657   */\n      pop\n        /* \"#utility.yul\":23674:23678   */\n      dup1\n        /* \"#utility.yul\":23667:23678   */\n      swap2\n      pop\n        /* \"#utility.yul\":21931:23684   */\n      pop\n        /* \"#utility.yul\":21811:23684   */\n      swap3\n      swap2\n      pop\n      pop\n      jump\t// out\n        /* \"#utility.yul\":23690:24055   */\n    tag_92:\n        /* \"#utility.yul\":23829:23833   */\n      0x00\n        /* \"#utility.yul\":23867:23869   */\n      0x20\n        /* \"#utility.yul\":23856:23865   */\n      dup3\n        /* \"#utility.yul\":23852:23870   */\n      add\n        /* \"#utility.yul\":23844:23870   */\n      swap1\n      pop\n        /* \"#utility.yul\":23916:23925   */\n      dup2\n        /* \"#utility.yul\":23910:23914   */\n      dup2\n        /* \"#utility.yul\":23906:23926   */\n      sub\n        /* \"#utility.yul\":23902:23903   */\n      0x00\n        /* \"#utility.yul\":23891:23900   */\n      dup4\n        /* \"#utility.yul\":23887:23904   */\n      add\n        /* \"#utility.yul\":23880:23927   */\n      mstore\n        /* \"#utility.yul\":23944:24048   */\n      tag_739\n        /* \"#utility.yul\":24043:24047   */\n      dup2\n        /* \"#utility.yul\":24034:24040   */\n      dup5\n        /* \"#utility.yul\":23944:24048   */\n      tag_520\n      jump\t// in\n    tag_739:\n        /* \"#utility.yul\":23936:24048   */\n      swap1\n      pop\n        /* \"#utility.yul\":23690:24055   */\n      swap3\n      swap2\n      pop\n      pop\n      jump\t// out\n        /* \"#utility.yul\":24061:24570   */\n    tag_108:\n        /* \"#utility.yul\":24130:24136   */\n      0x00\n        /* \"#utility.yul\":24179:24181   */\n      0x20\n        /* \"#utility.yul\":24167:24176   */\n      dup3\n        /* \"#utility.yul\":24158:24165   */\n      dup5\n        /* \"#utility.yul\":24154:24177   */\n      sub\n        /* \"#utility.yul\":24150:24182   */\n      slt\n        /* \"#utility.yul\":24147:24266   */\n      iszero\n      tag_741\n      jumpi\n        /* \"#utility.yul\":24185:24264   */\n      tag_742\n      tag_492\n      jump\t// in\n    tag_742:\n        /* \"#utility.yul\":24147:24266   */\n    tag_741:\n        /* \"#utility.yul\":24333:24334   */\n      0x00\n        /* \"#utility.yul\":24322:24331   */\n      dup3\n        /* \"#utility.yul\":24318:24335   */\n      add\n        /* \"#utility.yul\":24305:24336   */\n      calldataload\n        /* \"#utility.yul\":24363:24381   */\n      0xffffffffffffffff\n        /* \"#utility.yul\":24355:24361   */\n      dup2\n        /* \"#utility.yul\":24352:24382   */\n      gt\n        /* \"#utility.yul\":24349:24466   */\n      iszero\n      tag_743\n      jumpi\n        /* \"#utility.yul\":24385:24464   */\n      tag_744\n      tag_493\n      jump\t// in\n    tag_744:\n        /* \"#utility.yul\":24349:24466   */\n    tag_743:\n        /* \"#utility.yul\":24490:24553   */\n      tag_745\n        /* \"#utility.yul\":24545:24552   */\n      dup5\n        /* \"#utility.yul\":24536:24542   */\n      dup3\n        /* \"#utility.yul\":24525:24534   */\n      dup6\n        /* \"#utility.yul\":24521:24543   */\n      add\n        /* \"#utility.yul\":24490:24553   */\n      tag_504\n      jump\t// in\n    tag_745:\n        /* \"#utility.yul\":24480:24553   */\n      swap2\n      pop\n        /* \"#utility.yul\":24276:24563   */\n      pop\n        /* \"#utility.yul\":24061:24570   */\n      swap3\n      swap2\n      pop\n      pop\n      jump\t// out\n        /* \"#utility.yul\":24576:25066   */\n    tag_117:\n        /* \"#utility.yul\":24652:24658   */\n      0x00\n        /* \"#utility.yul\":24660:24666   */\n      dup1\n        /* \"#utility.yul\":24709:24711   */\n      0x40\n        /* \"#utility.yul\":24697:24706   */\n      dup4\n        /* \"#utility.yul\":24688:24695   */\n      dup6\n        /* \"#utility.yul\":24684:24707   */\n      sub\n        /* \"#utility.yul\":24680:24712   */\n      slt\n        /* \"#utility.yul\":24677:24796   */\n      iszero\n      tag_747\n      jumpi\n        /* \"#utility.yul\":24715:24794   */\n      tag_748\n      tag_492\n      jump\t// in\n    tag_748:\n        /* \"#utility.yul\":24677:24796   */\n    tag_747:\n        /* \"#utility.yul\":24835:24836   */\n      0x00\n        /* \"#utility.yul\":24860:24921   */\n      tag_749\n        /* \"#utility.yul\":24913:24920   */\n      dup6\n        /* \"#utility.yul\":24904:24910   */\n      dup3\n        /* \"#utility.yul\":24893:24902   */\n      dup7\n        /* \"#utility.yul\":24889:24911   */\n      add\n        /* \"#utility.yul\":24860:24921   */\n      tag_496\n      jump\t// in\n    tag_749:\n        /* \"#utility.yul\":24850:24921   */\n      swap3\n      pop\n        /* \"#utility.yul\":24806:24931   */\n      pop\n        /* \"#utility.yul\":24970:24972   */\n      0x20\n        /* \"#utility.yul\":24996:25049   */\n      tag_750\n        /* \"#utility.yul\":25041:25048   */\n      dup6\n        /* \"#utility.yul\":25032:25038   */\n      dup3\n        /* \"#utility.yul\":25021:25030   */\n      dup7\n        /* \"#utility.yul\":25017:25039   */\n      add\n        /* \"#utility.yul\":24996:25049   */\n      tag_508\n      jump\t// in\n    tag_750:\n        /* \"#utility.yul\":24986:25049   */\n      swap2\n      pop\n        /* \"#utility.yul\":24941:25059   */\n      pop\n        /* \"#utility.yul\":24576:25066   */\n      swap3\n      pop\n      swap3\n      swap1\n      pop\n      jump\t// out\n        /* \"#utility.yul\":25072:25252   */\n    tag_521:\n        /* \"#utility.yul\":25120:25197   */\n      0x4e487b7100000000000000000000000000000000000000000000000000000000\n        /* \"#utility.yul\":25117:25118   */\n      0x00\n        /* \"#utility.yul\":25110:25198   */\n      mstore\n        /* \"#utility.yul\":25217:25221   */\n      0x22\n        /* \"#utility.yul\":25214:25215   */\n      0x04\n        /* \"#utility.yul\":25207:25222   */\n      mstore\n        /* \"#utility.yul\":25241:25245   */\n      0x24\n        /* \"#utility.yul\":25238:25239   */\n      0x00\n        /* \"#utility.yul\":25231:25246   */\n      revert\n        /* \"#utility.yul\":25258:25578   */\n    tag_125:\n        /* \"#utility.yul\":25302:25308   */\n      0x00\n        /* \"#utility.yul\":25339:25340   */\n      0x02\n        /* \"#utility.yul\":25333:25337   */\n      dup3\n        /* \"#utility.yul\":25329:25341   */\n      div\n        /* \"#utility.yul\":25319:25341   */\n      swap1\n      pop\n        /* \"#utility.yul\":25386:25387   */\n      0x01\n        /* \"#utility.yul\":25380:25384   */\n      dup3\n        /* \"#utility.yul\":25376:25388   */\n      and\n        /* \"#utility.yul\":25407:25425   */\n      dup1\n        /* \"#utility.yul\":25397:25478   */\n      tag_753\n      jumpi\n        /* \"#utility.yul\":25463:25467   */\n      0x7f\n        /* \"#utility.yul\":25455:25461   */\n      dup3\n        /* \"#utility.yul\":25451:25468   */\n      and\n        /* \"#utility.yul\":25441:25468   */\n      swap2\n      pop\n        /* \"#utility.yul\":25397:25478   */\n    tag_753:\n        /* \"#utility.yul\":25525:25527   */\n      0x20\n        /* \"#utility.yul\":25517:25523   */\n      dup3\n        /* \"#utility.yul\":25514:25528   */\n      lt\n        /* \"#utility.yul\":25494:25512   */\n      dup2\n        /* \"#utility.yul\":25491:25529   */\n      sub\n        /* \"#utility.yul\":25488:25572   */\n      tag_754\n      jumpi\n        /* \"#utility.yul\":25544:25562   */\n      tag_755\n      tag_521\n      jump\t// in\n    tag_755:\n        /* \"#utility.yul\":25488:25572   */\n    tag_754:\n        /* \"#utility.yul\":25309:25578   */\n      pop\n        /* \"#utility.yul\":25258:25578   */\n      swap2\n      swap1\n      pop\n      jump\t// out\n        /* \"#utility.yul\":25584:25764   */\n    tag_154:\n        /* \"#utility.yul\":25632:25709   */\n      0x4e487b7100000000000000000000000000000000000000000000000000000000\n        /* \"#utility.yul\":25629:25630   */\n      0x00\n        /* \"#utility.yul\":25622:25710   */\n      mstore\n        /* \"#utility.yul\":25729:25733   */\n      0x32\n        /* \"#utility.yul\":25726:25727   */\n      0x04\n        /* \"#utility.yul\":25719:25734   */\n      mstore\n        /* \"#utility.yul\":25753:25757   */\n      0x24\n        /* \"#utility.yul\":25750:25751   */\n      0x00\n        /* \"#utility.yul\":25743:25758   */\n      revert\n        /* \"#utility.yul\":25770:25950   */\n    tag_522:\n        /* \"#utility.yul\":25818:25895   */\n      0x4e487b7100000000000000000000000000000000000000000000000000000000\n        /* \"#utility.yul\":25815:25816   */\n      0x00\n        /* \"#utility.yul\":25808:25896   */\n      mstore\n        /* \"#utility.yul\":25915:25919   */\n      0x11\n        /* \"#utility.yul\":25912:25913   */\n      0x04\n        /* \"#utility.yul\":25905:25920   */\n      mstore\n        /* \"#utility.yul\":25939:25943   */\n      0x24\n        /* \"#utility.yul\":25936:25937   */\n      0x00\n        /* \"#utility.yul\":25929:25944   */\n      revert\n        /* \"#utility.yul\":25956:26189   */\n    tag_157:\n        /* \"#utility.yul\":25995:25998   */\n      0x00\n        /* \"#utility.yul\":26018:26042   */\n      tag_759\n        /* \"#utility.yul\":26036:26041   */\n      dup3\n        /* \"#utility.yul\":26018:26042   */\n      tag_475\n      jump\t// in\n    tag_759:\n        /* \"#utility.yul\":26009:26042   */\n      swap2\n      pop\n        /* \"#utility.yul\":26064:26130   */\n      0xffffffffffffffffffffffffffffffffffffffffffffffffffffffffffffffff\n        /* \"#utility.yul\":26057:26062   */\n      dup3\n        /* \"#utility.yul\":26054:26131   */\n      sub\n        /* \"#utility.yul\":26051:26154   */\n      tag_760\n      jumpi\n        /* \"#utility.yul\":26134:26152   */\n      tag_761\n      tag_522\n      jump\t// in\n    tag_761:\n        /* \"#utility.yul\":26051:26154   */\n    tag_760:\n        /* \"#utility.yul\":26181:26182   */\n      0x01\n        /* \"#utility.yul\":26174:26179   */\n      dup3\n        /* \"#utility.yul\":26170:26183   */\n      add\n        /* \"#utility.yul\":26163:26183   */\n      swap1\n      pop\n        /* \"#utility.yul\":25956:26189   */\n      swap2\n      swap1\n      pop\n      jump\t// out\n        /* \"#utility.yul\":26195:26336   */\n    tag_523:\n        /* \"#utility.yul\":26244:26248   */\n      0x00\n        /* \"#utility.yul\":26267:26270   */\n      dup2\n        /* \"#utility.yul\":26259:26270   */\n      swap1\n      pop\n        /* \"#utility.yul\":26290:26293   */\n      dup2\n        /* \"#utility.yul\":26287:26288   */\n      0x00\n        /* \"#utility.yul\":26280:26294   */\n      mstore\n        /* \"#utility.yul\":26324:26328   */\n      0x20\n        /* \"#utility.yul\":26321:26322   */\n      0x00\n        /* \"#utility.yul\":26311:26329   */\n      keccak256\n        /* \"#utility.yul\":26303:26329   */\n      swap1\n      pop\n        /* \"#utility.yul\":26195:26336   */\n      swap2\n      swap1\n      pop\n      jump\t// out\n        /* \"#utility.yul\":26342:26435   */\n    tag_524:\n        /* \"#utility.yul\":26379:26385   */\n      0x00\n        /* \"#utility.yul\":26426:26428   */\n      0x20\n        /* \"#utility.yul\":26421:26423   */\n      0x1f\n        /* \"#utility.yul\":26414:26419   */\n      dup4\n        /* \"#utility.yul\":26410:26424   */\n      add\n        /* \"#utility.yul\":26406:26429   */\n      div\n        /* \"#utility.yul\":26396:26429   */\n      swap1\n      pop\n        /* \"#utility.yul\":26342:26435   */\n      swap2\n      swap1\n      pop\n      jump\t// out\n        /* \"#utility.yul\":26441:26548   */\n    tag_525:\n        /* \"#utility.yul\":26485:26493   */\n      0x00\n        /* \"#utility.yul\":26535:26540   */\n      dup3\n        /* \"#utility.yul\":26529:26533   */\n      dup3\n        /* \"#utility.yul\":26525:26541   */\n      shl\n        /* \"#utility.yul\":26504:26541   */\n      swap1\n      pop\n        /* \"#utility.yul\":26441:26548   */\n      swap3\n      swap2\n      pop\n      pop\n      jump\t// out\n        /* \"#utility.yul\":26554:26947   */\n    tag_526:\n        /* \"#utility.yul\":26623:26629   */\n      0x00\n        /* \"#utility.yul\":26673:26674   */\n      0x08\n        /* \"#utility.yul\":26661:26671   */\n      dup4\n        /* \"#utility.yul\":26657:26675   */\n      mul\n        /* \"#utility.yul\":26696:26793   */\n      tag_766\n        /* \"#utility.yul\":26726:26792   */\n      0xffffffffffffffffffffffffffffffffffffffffffffffffffffffffffffffff\n        /* \"#utility.yul\":26715:26724   */\n      dup3\n        /* \"#utility.yul\":26696:26793   */\n      tag_525\n      jump\t// in\n    tag_766:\n        /* \"#utility.yul\":26814:26853   */\n      tag_767\n        /* \"#utility.yul\":26844:26852   */\n      dup7\n        /* \"#utility.yul\":26833:26842   */\n      dup4\n        /* \"#utility.yul\":26814:26853   */\n      tag_525\n      jump\t// in\n    tag_767:\n        /* \"#utility.yul\":26802:26853   */\n      swap6\n      pop\n        /* \"#utility.yul\":26886:26890   */\n      dup1\n        /* \"#utility.yul\":26882:26891   */\n      not\n        /* \"#utility.yul\":26875:26880   */\n      dup5\n        /* \"#utility.yul\":26871:26892   */\n      and\n        /* \"#utility.yul\":26862:26892   */\n      swap4\n      pop\n        /* \"#utility.yul\":26935:26939   */\n      dup1\n        /* \"#utility.yul\":26925:26933   */\n      dup7\n        /* \"#utility.yul\":26921:26940   */\n      and\n        /* \"#utility.yul\":26914:26919   */\n      dup5\n        /* \"#utility.yul\":26911:26941   */\n      or\n        /* \"#utility.yul\":26901:26941   */\n      swap3\n      pop\n        /* \"#utility.yul\":26630:26947   */\n      pop\n      pop\n        /* \"#utility.yul\":26554:26947   */\n      swap4\n      swap3\n      pop\n      pop\n      pop\n      jump\t// out\n        /* \"#utility.yul\":26953:27013   */\n    tag_527:\n        /* \"#utility.yul\":26981:26984   */\n      0x00\n        /* \"#utility.yul\":27002:27007   */\n      dup2\n        /* \"#utility.yul\":26995:27007   */\n      swap1\n      pop\n        /* \"#utility.yul\":26953:27013   */\n      swap2\n      swap1\n      pop\n      jump\t// out\n        /* \"#utility.yul\":27019:27161   */\n    tag_528:\n        /* \"#utility.yul\":27069:27078   */\n      0x00\n        /* \"#utility.yul\":27102:27155   */\n      tag_770\n        /* \"#utility.yul\":27120:27154   */\n      tag_771\n        /* \"#utility.yul\":27129:27153   */\n      tag_772\n        /* \"#utility.yul\":27147:27152   */\n      dup5\n        /* \"#utility.yul\":27129:27153   */\n      tag_475\n      jump\t// in\n    tag_772:\n        /* \"#utility.yul\":27120:27154   */\n      tag_527\n      jump\t// in\n    tag_771:\n        /* \"#utility.yul\":27102:27155   */\n      tag_475\n      jump\t// in\n    tag_770:\n        /* \"#utility.yul\":27089:27155   */\n      swap1\n      pop\n        /* \"#utility.yul\":27019:27161   */\n      swap2\n      swap1\n      pop\n      jump\t// out\n        /* \"#utility.yul\":27167:27242   */\n    tag_529:\n        /* \"#utility.yul\":27210:27213   */\n      0x00\n        /* \"#utility.yul\":27231:27236   */\n      dup2\n        /* \"#utility.yul\":27224:27236   */\n      swap1\n      pop\n        /* \"#utility.yul\":27167:27242   */\n      swap2\n      swap1\n      pop\n      jump\t// out\n        /* \"#utility.yul\":27248:27517   */\n    tag_530:\n        /* \"#utility.yul\":27358:27397   */\n      tag_775\n        /* \"#utility.yul\":27389:27396   */\n      dup4\n        /* \"#utility.yul\":27358:27397   */\n      tag_528\n      jump\t// in\n    tag_775:\n        /* \"#utility.yul\":27419:27510   */\n      tag_776\n        /* \"#utility.yul\":27468:27509   */\n      tag_777\n        /* \"#utility.yul\":27492:27508   */\n      dup3\n        /* \"#utility.yul\":27468:27509   */\n      tag_529\n      jump\t// in\n    tag_777:\n        /* \"#utility.yul\":27460:27466   */\n      dup5\n        /* \"#utility.yul\":27453:27457   */\n      dup5\n        /* \"#utility.yul\":27447:27458   */\n      sload\n        /* \"#utility.yul\":27419:27510   */\n      tag_526\n      jump\t// in\n    tag_776:\n        /* \"#utility.yul\":27413:27417   */\n      dup3\n        /* \"#utility.yul\":27406:27511   */\n      sstore\n        /* \"#utility.yul\":27324:27517   */\n      pop\n        /* \"#utility.yul\":27248:27517   */\n      pop\n      pop\n      pop\n      jump\t// out\n        /* \"#utility.yul\":27523:27596   */\n    tag_531:\n        /* \"#utility.yul\":27568:27571   */\n      0x00\n        /* \"#utility.yul\":27523:27596   */\n      swap1\n      jump\t// out\n        /* \"#utility.yul\":27602:27791   */\n    tag_532:\n        /* \"#utility.yul\":27679:27711   */\n      tag_780\n      tag_531\n      jump\t// in\n    tag_780:\n        /* \"#utility.yul\":27720:27785   */\n      tag_781\n        /* \"#utility.yul\":27778:27784   */\n      dup2\n        /* \"#utility.yul\":27770:27776   */\n      dup5\n        /* \"#utility.yul\":27764:27768   */\n      dup5\n        /* \"#utility.yul\":27720:27785   */\n      tag_530\n      jump\t// in\n    tag_781:\n        /* \"#utility.yul\":27655:27791   */\n      pop\n        /* \"#utility.yul\":27602:27791   */\n      pop\n      pop\n      jump\t// out\n        /* \"#utility.yul\":27797:27983   */\n    tag_533:\n        /* \"#utility.yul\":27857:27977   */\n    tag_783:\n        /* \"#utility.yul\":27874:27877   */\n      dup2\n        /* \"#utility.yul\":27867:27872   */\n      dup2\n        /* \"#utility.yul\":27864:27878   */\n      lt\n        /* \"#utility.yul\":27857:27977   */\n      iszero\n      tag_785\n      jumpi\n        /* \"#utility.yul\":27928:27967   */\n      tag_786\n        /* \"#utility.yul\":27965:27966   */\n      0x00\n        /* \"#utility.yul\":27958:27963   */\n      dup3\n        /* \"#utility.yul\":27928:27967   */\n      tag_532\n      jump\t// in\n    tag_786:\n        /* \"#utility.yul\":27901:27902   */\n      0x01\n        /* \"#utility.yul\":27894:27899   */\n      dup2\n        /* \"#utility.yul\":27890:27903   */\n      add\n        /* \"#utility.yul\":27881:27903   */\n      swap1\n      pop\n        /* \"#utility.yul\":27857:27977   */\n      jump(tag_783)\n    tag_785:\n        /* \"#utility.yul\":27797:27983   */\n      pop\n      pop\n      jump\t// out\n        /* \"#utility.yul\":27989:28532   */\n    tag_534:\n        /* \"#utility.yul\":28090:28092   */\n      0x1f\n        /* \"#utility.yul\":28085:28088   */\n      dup3\n        /* \"#utility.yul\":28082:28093   */\n      gt\n        /* \"#utility.yul\":28079:28525   */\n      iszero\n      tag_788\n      jumpi\n        /* \"#utility.yul\":28124:28162   */\n      tag_789\n        /* \"#utility.yul\":28156:28161   */\n      dup2\n        /* \"#utility.yul\":28124:28162   */\n      tag_523\n      jump\t// in\n    tag_789:\n        /* \"#utility.yul\":28208:28237   */\n      tag_790\n        /* \"#utility.yul\":28226:28236   */\n      dup5\n        /* \"#utility.yul\":28208:28237   */\n      tag_524\n      jump\t// in\n    tag_790:\n        /* \"#utility.yul\":28198:28206   */\n      dup2\n        /* \"#utility.yul\":28194:28238   */\n      add\n        /* \"#utility.yul\":28391:28393   */\n      0x20\n        /* \"#utility.yul\":28379:28389   */\n      dup6\n        /* \"#utility.yul\":28376:28394   */\n      lt\n        /* \"#utility.yul\":28373:28422   */\n      iszero\n      tag_791\n      jumpi\n        /* \"#utility.yul\":28412:28420   */\n      dup2\n        /* \"#utility.yul\":28397:28420   */\n      swap1\n      pop\n        /* \"#utility.yul\":28373:28422   */\n    tag_791:\n        /* \"#utility.yul\":28435:28515   */\n      tag_792\n        /* \"#utility.yul\":28491:28513   */\n      tag_793\n        /* \"#utility.yul\":28509:28512   */\n      dup6\n        /* \"#utility.yul\":28491:28513   */\n      tag_524\n      jump\t// in\n    tag_793:\n        /* \"#utility.yul\":28481:28489   */\n      dup4\n        /* \"#utility.yul\":28477:28514   */\n      add\n        /* \"#utility.yul\":28464:28475   */\n      dup3\n        /* \"#utility.yul\":28435:28515   */\n      tag_533\n      jump\t// in\n    tag_792:\n        /* \"#utility.yul\":28094:28525   */\n      pop\n      pop\n        /* \"#utility.yul\":28079:28525   */\n    tag_788:\n        /* \"#utility.yul\":27989:28532   */\n      pop\n      pop\n      pop\n      jump\t// out\n        /* \"#utility.yul\":28538:28655   */\n    tag_535:\n        /* \"#utility.yul\":28592:28600   */\n      0x00\n        /* \"#utility.yul\":28642:28647   */\n      dup3\n        /* \"#utility.yul\":28636:28640   */\n      dup3\n        /* \"#utility.yul\":28632:28648   */\n      shr\n        /* \"#utility.yul\":28611:28648   */\n      swap1\n      pop\n        /* \"#utility.yul\":28538:28655   */\n      swap3\n      swap2\n      pop\n      pop\n      jump\t// out\n        /* \"#utility.yul\":28661:28830   */\n    tag_536:\n        /* \"#utility.yul\":28705:28711   */\n      0x00\n        /* \"#utility.yul\":28738:28789   */\n      tag_796\n        /* \"#utility.yul\":28786:28787   */\n      0x00\n        /* \"#utility.yul\":28782:28788   */\n      not\n        /* \"#utility.yul\":28774:28779   */\n      dup5\n        /* \"#utility.yul\":28771:28772   */\n      0x08\n        /* \"#utility.yul\":28767:28780   */\n      mul\n        /* \"#utility.yul\":28738:28789   */\n      tag_535\n      jump\t// in\n    tag_796:\n        /* \"#utility.yul\":28734:28790   */\n      not\n        /* \"#utility.yul\":28819:28823   */\n      dup1\n        /* \"#utility.yul\":28813:28817   */\n      dup4\n        /* \"#utility.yul\":28809:28824   */\n      and\n        /* \"#utility.yul\":28799:28824   */\n      swap2\n      pop\n        /* \"#utility.yul\":28712:28830   */\n      pop\n        /* \"#utility.yul\":28661:28830   */\n      swap3\n      swap2\n      pop\n      pop\n      jump\t// out\n        /* \"#utility.yul\":28835:29130   */\n    tag_537:\n        /* \"#utility.yul\":28911:28915   */\n      0x00\n        /* \"#utility.yul\":29057:29086   */\n      tag_798\n        /* \"#utility.yul\":29082:29085   */\n      dup4\n        /* \"#utility.yul\":29076:29080   */\n      dup4\n        /* \"#utility.yul\":29057:29086   */\n      tag_536\n      jump\t// in\n    tag_798:\n        /* \"#utility.yul\":29049:29086   */\n      swap2\n      pop\n        /* \"#utility.yul\":29119:29122   */\n      dup3\n        /* \"#utility.yul\":29116:29117   */\n      0x02\n        /* \"#utility.yul\":29112:29123   */\n      mul\n        /* \"#utility.yul\":29106:29110   */\n      dup3\n        /* \"#utility.yul\":29103:29124   */\n      or\n        /* \"#utility.yul\":29095:29124   */\n      swap1\n      pop\n        /* \"#utility.yul\":28835:29130   */\n      swap3\n      swap2\n      pop\n      pop\n      jump\t// out\n        /* \"#utility.yul\":29135:30530   */\n    tag_179:\n        /* \"#utility.yul\":29252:29289   */\n      tag_800\n        /* \"#utility.yul\":29285:29288   */\n      dup3\n        /* \"#utility.yul\":29252:29289   */\n      tag_480\n      jump\t// in\n    tag_800:\n        /* \"#utility.yul\":29354:29372   */\n      0xffffffffffffffff\n        /* \"#utility.yul\":29346:29352   */\n      dup2\n        /* \"#utility.yul\":29343:29373   */\n      gt\n        /* \"#utility.yul\":29340:29396   */\n      iszero\n      tag_801\n      jumpi\n        /* \"#utility.yul\":29376:29394   */\n      tag_802\n      tag_191\n      jump\t// in\n    tag_802:\n        /* \"#utility.yul\":29340:29396   */\n    tag_801:\n        /* \"#utility.yul\":29420:29458   */\n      tag_803\n        /* \"#utility.yul\":29452:29456   */\n      dup3\n        /* \"#utility.yul\":29446:29457   */\n      sload\n        /* \"#utility.yul\":29420:29458   */\n      tag_125\n      jump\t// in\n    tag_803:\n        /* \"#utility.yul\":29505:29572   */\n      tag_804\n        /* \"#utility.yul\":29565:29571   */\n      dup3\n        /* \"#utility.yul\":29557:29563   */\n      dup3\n        /* \"#utility.yul\":29551:29555   */\n      dup6\n        /* \"#utility.yul\":29505:29572   */\n      tag_534\n      jump\t// in\n    tag_804:\n        /* \"#utility.yul\":29599:29600   */\n      0x00\n        /* \"#utility.yul\":29623:29627   */\n      0x20\n        /* \"#utility.yul\":29610:29627   */\n      swap1\n      pop\n        /* \"#utility.yul\":29655:29657   */\n      0x1f\n        /* \"#utility.yul\":29647:29653   */\n      dup4\n        /* \"#utility.yul\":29644:29658   */\n      gt\n        /* \"#utility.yul\":29672:29673   */\n      0x01\n        /* \"#utility.yul\":29667:30285   */\n      dup2\n      eq\n      tag_806\n      jumpi\n        /* \"#utility.yul\":30329:30330   */\n      0x00\n        /* \"#utility.yul\":30346:30352   */\n      dup5\n        /* \"#utility.yul\":30343:30420   */\n      iszero\n      tag_807\n      jumpi\n        /* \"#utility.yul\":30395:30404   */\n      dup3\n        /* \"#utility.yul\":30390:30393   */\n      dup8\n        /* \"#utility.yul\":30386:30405   */\n      add\n        /* \"#utility.yul\":30380:30406   */\n      mload\n        /* \"#utility.yul\":30371:30406   */\n      swap1\n      pop\n        /* \"#utility.yul\":30343:30420   */\n    tag_807:\n        /* \"#utility.yul\":30446:30513   */\n      tag_808\n        /* \"#utility.yul\":30506:30512   */\n      dup6\n        /* \"#utility.yul\":30499:30504   */\n      dup3\n        /* \"#utility.yul\":30446:30513   */\n      tag_537\n      jump\t// in\n    tag_808:\n        /* \"#utility.yul\":30440:30444   */\n      dup7\n        /* \"#utility.yul\":30433:30514   */\n      sstore\n        /* \"#utility.yul\":30302:30524   */\n      pop\n        /* \"#utility.yul\":29637:30524   */\n      jump(tag_805)\n        /* \"#utility.yul\":29667:30285   */\n    tag_806:\n        /* \"#utility.yul\":29719:29723   */\n      0x1f\n        /* \"#utility.yul\":29715:29724   */\n      not\n        /* \"#utility.yul\":29707:29713   */\n      dup5\n        /* \"#utility.yul\":29703:29725   */\n      and\n        /* \"#utility.yul\":29753:29790   */\n      tag_809\n        /* \"#utility.yul\":29785:29789   */\n      dup7\n        /* \"#utility.yul\":29753:29790   */\n      tag_523\n      jump\t// in\n    tag_809:\n        /* \"#utility.yul\":29812:29813   */\n      0x00\n        /* \"#utility.yul\":29826:30034   */\n    tag_810:\n        /* \"#utility.yul\":29840:29847   */\n      dup3\n        /* \"#utility.yul\":29837:29838   */\n      dup2\n        /* \"#utility.yul\":29834:29848   */\n      lt\n        /* \"#utility.yul\":29826:30034   */\n      iszero\n      tag_812\n      jumpi\n        /* \"#utility.yul\":29919:29928   */\n      dup5\n        /* \"#utility.yul\":29914:29917   */\n      dup10\n        /* \"#utility.yul\":29910:29929   */\n      add\n        /* \"#utility.yul\":29904:29930   */\n      mload\n        /* \"#utility.yul\":29896:29902   */\n      dup3\n        /* \"#utility.yul\":29889:29931   */\n      sstore\n        /* \"#utility.yul\":29970:29971   */\n      0x01\n        /* \"#utility.yul\":29962:29968   */\n      dup3\n        /* \"#utility.yul\":29958:29972   */\n      add\n        /* \"#utility.yul\":29948:29972   */\n      swap2\n      pop\n        /* \"#utility.yul\":30017:30019   */\n      0x20\n        /* \"#utility.yul\":30006:30015   */\n      dup6\n        /* \"#utility.yul\":30002:30020   */\n      add\n        /* \"#utility.yul\":29989:30020   */\n      swap5\n      pop\n        /* \"#utility.yul\":29863:29867   */\n      0x20\n        /* \"#utility.yul\":29860:29861   */\n      dup2\n        /* \"#utility.yul\":29856:29868   */\n      add\n        /* \"#utility.yul\":29851:29868   */\n      swap1\n      pop\n        /* \"#utility.yul\":29826:30034   */\n      jump(tag_810)\n    tag_812:\n        /* \"#utility.yul\":30062:30068   */\n      dup7\n        /* \"#utility.yul\":30053:30060   */\n      dup4\n        /* \"#utility.yul\":30050:30069   */\n      lt\n        /* \"#utility.yul\":30047:30226   */\n      iszero\n      tag_813\n      jumpi\n        /* \"#utility.yul\":30120:30129   */\n      dup5\n        /* \"#utility.yul\":30115:30118   */\n      dup10\n        /* \"#utility.yul\":30111:30130   */\n      add\n        /* \"#utility.yul\":30105:30131   */\n      mload\n        /* \"#utility.yul\":30163:30211   */\n      tag_814\n        /* \"#utility.yul\":30205:30209   */\n      0x1f\n        /* \"#utility.yul\":30197:30203   */\n      dup10\n        /* \"#utility.yul\":30193:30210   */\n      and\n        /* \"#utility.yul\":30182:30191   */\n      dup3\n        /* \"#utility.yul\":30163:30211   */\n      tag_536\n      jump\t// in\n    tag_814:\n        /* \"#utility.yul\":30155:30161   */\n      dup4\n        /* \"#utility.yul\":30148:30212   */\n      sstore\n        /* \"#utility.yul\":30070:30226   */\n      pop\n        /* \"#utility.yul\":30047:30226   */\n    tag_813:\n        /* \"#utility.yul\":30272:30273   */\n      0x01\n        /* \"#utility.yul\":30268:30269   */\n      0x02\n        /* \"#utility.yul\":30260:30266   */\n      dup9\n        /* \"#utility.yul\":30256:30270   */\n      mul\n        /* \"#utility.yul\":30252:30274   */\n      add\n        /* \"#utility.yul\":30246:30250   */\n      dup9\n        /* \"#utility.yul\":30239:30275   */\n      sstore\n        /* \"#utility.yul\":29674:30285   */\n      pop\n      pop\n      pop\n        /* \"#utility.yul\":29637:30524   */\n    tag_805:\n      pop\n        /* \"#utility.yul\":29227:30530   */\n      pop\n      pop\n      pop\n        /* \"#utility.yul\":29135:30530   */\n      pop\n      pop\n      jump\t// out\n        /* \"#utility.yul\":30536:30727   */\n    tag_293:\n        /* \"#utility.yul\":30576:30579   */\n      0x00\n        /* \"#utility.yul\":30595:30615   */\n      tag_816\n        /* \"#utility.yul\":30613:30614   */\n      dup3\n        /* \"#utility.yul\":30595:30615   */\n      tag_475\n      jump\t// in\n    tag_816:\n        /* \"#utility.yul\":30590:30615   */\n      swap2\n      pop\n        /* \"#utility.yul\":30629:30649   */\n      tag_817\n        /* \"#utility.yul\":30647:30648   */\n      dup4\n        /* \"#utility.yul\":30629:30649   */\n      tag_475\n      jump\t// in\n    tag_817:\n        /* \"#utility.yul\":30624:30649   */\n      swap3\n      pop\n        /* \"#utility.yul\":30672:30673   */\n      dup3\n        /* \"#utility.yul\":30669:30670   */\n      dup3\n        /* \"#utility.yul\":30665:30674   */\n      add\n        /* \"#utility.yul\":30658:30674   */\n      swap1\n      pop\n        /* \"#utility.yul\":30693:30696   */\n      dup1\n        /* \"#utility.yul\":30690:30691   */\n      dup3\n        /* \"#utility.yul\":30687:30697   */\n      gt\n        /* \"#utility.yul\":30684:30720   */\n      iszero\n      tag_818\n      jumpi\n        /* \"#utility.yul\":30700:30718   */\n      tag_819\n      tag_522\n      jump\t// in\n    tag_819:\n        /* \"#utility.yul\":30684:30720   */\n    tag_818:\n        /* \"#utility.yul\":30536:30727   */\n      swap3\n      swap2\n      pop\n      pop\n      jump\t// out\n        /* \"#utility.yul\":30733:30881   */\n    tag_538:\n        /* \"#utility.yul\":30835:30846   */\n      0x00\n        /* \"#utility.yul\":30872:30875   */\n      dup2\n        /* \"#utility.yul\":30857:30875   */\n      swap1\n      pop\n        /* \"#utility.yul\":30733:30881   */\n      swap3\n      swap2\n      pop\n      pop\n      jump\t// out\n        /* \"#utility.yul\":30887:31277   */\n    tag_539:\n        /* \"#utility.yul\":30993:30996   */\n      0x00\n        /* \"#utility.yul\":31021:31060   */\n      tag_822\n        /* \"#utility.yul\":31054:31059   */\n      dup3\n        /* \"#utility.yul\":31021:31060   */\n      tag_480\n      jump\t// in\n    tag_822:\n        /* \"#utility.yul\":31076:31165   */\n      tag_823\n        /* \"#utility.yul\":31158:31164   */\n      dup2\n        /* \"#utility.yul\":31153:31156   */\n      dup6\n        /* \"#utility.yul\":31076:31165   */\n      tag_538\n      jump\t// in\n    tag_823:\n        /* \"#utility.yul\":31069:31165   */\n      swap4\n      pop\n        /* \"#utility.yul\":31174:31239   */\n      tag_824\n        /* \"#utility.yul\":31232:31238   */\n      dup2\n        /* \"#utility.yul\":31227:31230   */\n      dup6\n        /* \"#utility.yul\":31220:31224   */\n      0x20\n        /* \"#utility.yul\":31213:31218   */\n      dup7\n        /* \"#utility.yul\":31209:31225   */\n      add\n        /* \"#utility.yul\":31174:31239   */\n      tag_482\n      jump\t// in\n    tag_824:\n        /* \"#utility.yul\":31264:31270   */\n      dup1\n        /* \"#utility.yul\":31259:31262   */\n      dup5\n        /* \"#utility.yul\":31255:31271   */\n      add\n        /* \"#utility.yul\":31248:31271   */\n      swap2\n      pop\n        /* \"#utility.yul\":30997:31277   */\n      pop\n        /* \"#utility.yul\":30887:31277   */\n      swap3\n      swap2\n      pop\n      pop\n      jump\t// out\n        /* \"#utility.yul\":31283:31558   */\n    tag_361:\n        /* \"#utility.yul\":31415:31418   */\n      0x00\n        /* \"#utility.yul\":31437:31532   */\n      tag_826\n        /* \"#utility.yul\":31528:31531   */\n      dup3\n        /* \"#utility.yul\":31519:31525   */\n      dup5\n        /* \"#utility.yul\":31437:31532   */\n      tag_539\n      jump\t// in\n    tag_826:\n        /* \"#utility.yul\":31430:31532   */\n      swap2\n      pop\n        /* \"#utility.yul\":31549:31552   */\n      dup2\n        /* \"#utility.yul\":31542:31552   */\n      swap1\n      pop\n        /* \"#utility.yul\":31283:31558   */\n      swap3\n      swap2\n      pop\n      pop\n      jump\t// out\n\n    auxdata: 0xa26469706673582212209a7f926cb265fd69b8dad4b30f88196451fd5e7dcc46275ac769ea2a6006b06864736f6c63430008120033\n}\n",
				"bytecode": {
					"linkReferences": {},
					"object": "60806040526200001b60036200003860201b6200233d1760201c565b6200003260046200003860201b6200233d1760201c565b62000045565b6000816000018190555050565b6137bf80620000556000396000f3fe6080604052600436106101145760003560e01c80637ec1061a116100a0578063cf6361de11610064578063cf6361de146103dc578063d6cfa44014610407578063e44c76ea14610423578063f70d205c14610460578063fb5d7a1f1461048957610114565b80637ec1061a146102ca578063809dab6a1461030c5780638e4a668014610337578063b79367c414610362578063bed34bba1461039f57610114565b80632cc59076116100e75780632cc59076146101c857806338880d55146101f35780633b342e8e1461021c5780634cea965e146102605780636f9fb98a1461029f57610114565b806304e48bd1146101195780630e61a0ee146101445780631fc25cdd1461016057806321527e501461019d575b600080fd5b34801561012557600080fd5b5061012e6104a5565b60405161013b9190612aca565b60405180910390f35b61015e60048036038101906101599190612b3e565b6107d2565b005b34801561016c57600080fd5b5061018760048036038101906101829190612ca0565b61088b565b6040516101949190612d27565b60405180910390f35b3480156101a957600080fd5b506101b2610ad8565b6040516101bf9190612d99565b60405180910390f35b3480156101d457600080fd5b506101dd610af4565b6040516101ea9190612aca565b60405180910390f35b3480156101ff57600080fd5b5061021a60048036038101906102159190612de7565b610f29565b005b34801561022857600080fd5b50610243600480360381019061023e9190612ed2565b611096565b604051610257989796959493929190612f67565b60405180910390f35b34801561026c57600080fd5b5061028760048036038101906102829190612ed2565b61133b565b60405161029693929190613001565b60405180910390f35b3480156102ab57600080fd5b506102b46114a5565b6040516102c19190613046565b60405180910390f35b3480156102d657600080fd5b506102f160048036038101906102ec9190612ed2565b6114ad565b60405161030396959493929190613061565b60405180910390f35b34801561031857600080fd5b50610321611546565b60405161032e9190613046565b60405180910390f35b34801561034357600080fd5b5061034c611663565b60405161035991906131ec565b60405180910390f35b34801561036e57600080fd5b5061038960048036038101906103849190612ed2565b611950565b60405161039691906132d3565b60405180910390f35b3480156103ab57600080fd5b506103c660048036038101906103c19190612ca0565b611cb7565b6040516103d39190612d27565b60405180910390f35b3480156103e857600080fd5b506103f1611d10565b6040516103fe91906131ec565b60405180910390f35b610421600480360381019061041c9190612ed2565b611e54565b005b34801561042f57600080fd5b5061044a600480360381019061044591906132f5565b611fd1565b6040516104579190612d27565b60405180910390f35b34801561046c57600080fd5b50610487600480360381019061048291906132f5565b612114565b005b6104a3600480360381019061049e919061333e565b612158565b005b60606000805480602002602001604051908101604052809291908181526020016000905b828210156107c9578382906000526020600020906008020160405180610100016040529081600082015481526020016001820160009054906101000a900473ffffffffffffffffffffffffffffffffffffffff1673ffffffffffffffffffffffffffffffffffffffff1673ffffffffffffffffffffffffffffffffffffffff16815260200160028201805461055d906133ad565b80601f0160208091040260200160405190810160405280929190818152602001828054610589906133ad565b80156105d65780601f106105ab576101008083540402835291602001916105d6565b820191906000526020600020905b8154815290600101906020018083116105b957829003601f168201915b505050505081526020016003820180546105ef906133ad565b80601f016020809104026020016040519081016040528092919081815260200182805461061b906133ad565b80156106685780601f1061063d57610100808354040283529160200191610668565b820191906000526020600020905b81548152906001019060200180831161064b57829003601f168201915b505050505081526020016004820154815260200160058201805461068b906133ad565b80601f01602080910402602001604051908101604052809291908181526020018280546106b7906133ad565b80156107045780601f106106d957610100808354040283529160200191610704565b820191906000526020600020905b8154815290600101906020018083116106e757829003601f168201915b505050505081526020016006820160009054906101000a900460ff16151515158152602001600782018054610738906133ad565b80601f0160208091040260200160405190810160405280929190818152602001828054610764906133ad565b80156107b15780601f10610786576101008083540402835291602001916107b1565b820191906000526020600020905b81548152906001019060200180831161079457829003601f168201915b505050505081525050815260200190600101906104c9565b50505050905090565b60006107dc611546565b90508173ffffffffffffffffffffffffffffffffffffffff166108fc829081150290604051600060405180830381858888f19350505050158015610824573d6000803e3d6000fd5b5060005b6002805490508110156108865760016002828154811061084b5761084a6133de565b5b906000526020600020906006020160040160006101000a81548160ff021916908315150217905550808061087e9061343c565b915050610828565b505050565b600080600090505b6001805490508110156109fb57610957600182815481106108b7576108b66133de565b5b906000526020600020906003020160000180546108d3906133ad565b80601f01602080910402602001604051908101604052809291908181526020018280546108ff906133ad565b801561094c5780601f106109215761010080835404028352916020019161094c565b820191906000526020600020905b81548152906001019060200180831161092f57829003601f168201915b505050505085611cb7565b15610966576000915050610ad2565b3373ffffffffffffffffffffffffffffffffffffffff1660018281548110610991576109906133de565b5b906000526020600020906003020160010160009054906101000a900473ffffffffffffffffffffffffffffffffffffffff1673ffffffffffffffffffffffffffffffffffffffff16036109e8576000915050610ad2565b80806109f39061343c565b915050610893565b50600160405180606001604052808581526020013373ffffffffffffffffffffffffffffffffffffffff1681526020018481525090806001815401808255809150506001900390600052602060002090600302016000909190919091506000820151816000019081610a6d9190613630565b5060208201518160010160006101000a81548173ffffffffffffffffffffffffffffffffffffffff021916908373ffffffffffffffffffffffffffffffffffffffff1602179055506040820151816002019081610aca9190613630565b505050600190505b92915050565b610ae0612746565b6000610aeb3361234a565b90508091505090565b60606000610b01336125af565b90506000808267ffffffffffffffff811115610b2057610b1f612b75565b5b604051908082528060200260200182016040528015610b5957816020015b610b4661277d565b815260200190600190039081610b3e5790505b50905060005b600080549050811015610f1f573373ffffffffffffffffffffffffffffffffffffffff1660008281548110610b9757610b966133de565b5b906000526020600020906008020160010160009054906101000a900473ffffffffffffffffffffffffffffffffffffffff1673ffffffffffffffffffffffffffffffffffffffff1603610f0c5760008181548110610bf857610bf76133de565b5b906000526020600020906008020160405180610100016040529081600082015481526020016001820160009054906101000a900473ffffffffffffffffffffffffffffffffffffffff1673ffffffffffffffffffffffffffffffffffffffff1673ffffffffffffffffffffffffffffffffffffffff168152602001600282018054610c82906133ad565b80601f0160208091040260200160405190810160405280929190818152602001828054610cae906133ad565b8015610cfb5780601f10610cd057610100808354040283529160200191610cfb565b820191906000526020600020905b815481529060010190602001808311610cde57829003601f168201915b50505050508152602001600382018054610d14906133ad565b80601f0160208091040260200160405190810160405280929190818152602001828054610d40906133ad565b8015610d8d5780601f10610d6257610100808354040283529160200191610d8d565b820191906000526020600020905b815481529060010190602001808311610d7057829003601f168201915b5050505050815260200160048201548152602001600582018054610db0906133ad565b80601f0160208091040260200160405190810160405280929190818152602001828054610ddc906133ad565b8015610e295780601f10610dfe57610100808354040283529160200191610e29565b820191906000526020600020905b815481529060010190602001808311610e0c57829003601f168201915b505050505081526020016006820160009054906101000a900460ff16151515158152602001600782018054610e5d906133ad565b80601f0160208091040260200160405190810160405280929190818152602001828054610e89906133ad565b8015610ed65780601f10610eab57610100808354040283529160200191610ed6565b820191906000526020600020905b815481529060010190602001808311610eb957829003601f168201915b505050505081525050828481518110610ef257610ef16133de565b5b60200260200101819052508280610f089061343c565b9350505b8080610f179061343c565b915050610b5f565b5080935050505090565b6000604051806101000160405280610f41600361266a565b81526020013373ffffffffffffffffffffffffffffffffffffffff1681526020018781526020018681526020018581526020018481526020016000151581526020018381525090806001815401808255809150506001900390600052602060002090600802016000909190919091506000820151816000015560208201518160010160006101000a81548173ffffffffffffffffffffffffffffffffffffffff021916908373ffffffffffffffffffffffffffffffffffffffff16021790555060408201518160020190816110169190613630565b50606082015181600301908161102c9190613630565b506080820151816004015560a082015181600501908161104c9190613630565b5060c08201518160060160006101000a81548160ff02191690831515021790555060e08201518160070190816110829190613630565b50505061108f6003612678565b5050505050565b600081815481106110a657600080fd5b90600052602060002090600802016000915090508060000154908060010160009054906101000a900473ffffffffffffffffffffffffffffffffffffffff16908060020180546110f5906133ad565b80601f0160208091040260200160405190810160405280929190818152602001828054611121906133ad565b801561116e5780601f106111435761010080835404028352916020019161116e565b820191906000526020600020905b81548152906001019060200180831161115157829003601f168201915b505050505090806003018054611183906133ad565b80601f01602080910402602001604051908101604052809291908181526020018280546111af906133ad565b80156111fc5780601f106111d1576101008083540402835291602001916111fc565b820191906000526020600020905b8154815290600101906020018083116111df57829003601f168201915b505050505090806004015490806005018054611217906133ad565b80601f0160208091040260200160405190810160405280929190818152602001828054611243906133ad565b80156112905780601f1061126557610100808354040283529160200191611290565b820191906000526020600020905b81548152906001019060200180831161127357829003601f168201915b5050505050908060060160009054906101000a900460ff16908060070180546112b8906133ad565b80601f01602080910402602001604051908101604052809291908181526020018280546112e4906133ad565b80156113315780601f1061130657610100808354040283529160200191611331565b820191906000526020600020905b81548152906001019060200180831161131457829003601f168201915b5050505050905088565b6001818154811061134b57600080fd5b906000526020600020906003020160009150905080600001805461136e906133ad565b80601f016020809104026020016040519081016040528092919081815260200182805461139a906133ad565b80156113e75780601f106113bc576101008083540402835291602001916113e7565b820191906000526020600020905b8154815290600101906020018083116113ca57829003601f168201915b5050505050908060010160009054906101000a900473ffffffffffffffffffffffffffffffffffffffff1690806002018054611422906133ad565b80601f016020809104026020016040519081016040528092919081815260200182805461144e906133ad565b801561149b5780601f106114705761010080835404028352916020019161149b565b820191906000526020600020905b81548152906001019060200180831161147e57829003601f168201915b5050505050905083565b600047905090565b600281815481106114bd57600080fd5b90600052602060002090600602016000915090508060000160009054906101000a900473ffffffffffffffffffffffffffffffffffffffff16908060010160009054906101000a900473ffffffffffffffffffffffffffffffffffffffff16908060020154908060030154908060040160009054906101000a900460ff16908060050154905086565b60008060005b60028054905081101561165b573373ffffffffffffffffffffffffffffffffffffffff1660028281548110611584576115836133de565b5b906000526020600020906006020160010160009054906101000a900473ffffffffffffffffffffffffffffffffffffffff1673ffffffffffffffffffffffffffffffffffffffff1614801561160f575060001515600282815481106115ec576115eb6133de565b5b906000526020600020906006020160040160009054906101000a900460ff161515145b156116485760028181548110611628576116276133de565b5b906000526020600020906006020160030154826116459190613702565b91505b80806116539061343c565b91505061154c565b508091505090565b60606000805b600280549050811015611710573373ffffffffffffffffffffffffffffffffffffffff16600282815481106116a1576116a06133de565b5b906000526020600020906006020160010160009054906101000a900473ffffffffffffffffffffffffffffffffffffffff1673ffffffffffffffffffffffffffffffffffffffff16036116fd5781806116f99061343c565b9250505b80806117089061343c565b915050611669565b5060008167ffffffffffffffff81111561172d5761172c612b75565b5b60405190808252806020026020018201604052801561176657816020015b6117536127da565b81526020019060019003908161174b5790505b5090506000915060005b600280549050811015611947573373ffffffffffffffffffffffffffffffffffffffff16600282815481106117a8576117a76133de565b5b906000526020600020906006020160010160009054906101000a900473ffffffffffffffffffffffffffffffffffffffff1673ffffffffffffffffffffffffffffffffffffffff16036119345760028181548110611809576118086133de565b5b90600052602060002090600602016040518060c00160405290816000820160009054906101000a900473ffffffffffffffffffffffffffffffffffffffff1673ffffffffffffffffffffffffffffffffffffffff1673ffffffffffffffffffffffffffffffffffffffff1681526020016001820160009054906101000a900473ffffffffffffffffffffffffffffffffffffffff1673ffffffffffffffffffffffffffffffffffffffff1673ffffffffffffffffffffffffffffffffffffffff16815260200160028201548152602001600382015481526020016004820160009054906101000a900460ff1615151515815260200160058201548152505082848151811061191a576119196133de565b5b602002602001018190525082806119309061343c565b9350505b808061193f9061343c565b915050611770565b50809250505090565b61195861277d565b61196061277d565b60005b600080549050811015611cad578360008281548110611985576119846133de565b5b90600052602060002090600802016000015403611c9a57600081815481106119b0576119af6133de565b5b906000526020600020906008020160405180610100016040529081600082015481526020016001820160009054906101000a900473ffffffffffffffffffffffffffffffffffffffff1673ffffffffffffffffffffffffffffffffffffffff1673ffffffffffffffffffffffffffffffffffffffff168152602001600282018054611a3a906133ad565b80601f0160208091040260200160405190810160405280929190818152602001828054611a66906133ad565b8015611ab35780601f10611a8857610100808354040283529160200191611ab3565b820191906000526020600020905b815481529060010190602001808311611a9657829003601f168201915b50505050508152602001600382018054611acc906133ad565b80601f0160208091040260200160405190810160405280929190818152602001828054611af8906133ad565b8015611b455780601f10611b1a57610100808354040283529160200191611b45565b820191906000526020600020905b815481529060010190602001808311611b2857829003601f168201915b5050505050815260200160048201548152602001600582018054611b68906133ad565b80601f0160208091040260200160405190810160405280929190818152602001828054611b94906133ad565b8015611be15780601f10611bb657610100808354040283529160200191611be1565b820191906000526020600020905b815481529060010190602001808311611bc457829003601f168201915b505050505081526020016006820160009054906101000a900460ff16151515158152602001600782018054611c15906133ad565b80601f0160208091040260200160405190810160405280929190818152602001828054611c41906133ad565b8015611c8e5780601f10611c6357610100808354040283529160200191611c8e565b820191906000526020600020905b815481529060010190602001808311611c7157829003601f168201915b50505050508152505091505b8080611ca59061343c565b915050611963565b5080915050919050565b600081604051602001611cca9190613772565b6040516020818303038152906040528051906020012083604051602001611cf19190613772565b6040516020818303038152906040528051906020012014905092915050565b60606002805480602002602001604051908101604052809291908181526020016000905b82821015611e4b57838290600052602060002090600602016040518060c00160405290816000820160009054906101000a900473ffffffffffffffffffffffffffffffffffffffff1673ffffffffffffffffffffffffffffffffffffffff1673ffffffffffffffffffffffffffffffffffffffff1681526020016001820160009054906101000a900473ffffffffffffffffffffffffffffffffffffffff1673ffffffffffffffffffffffffffffffffffffffff1673ffffffffffffffffffffffffffffffffffffffff16815260200160028201548152602001600382015481526020016004820160009054906101000a900460ff1615151515815260200160058201548152505081526020019060010190611d34565b50505050905090565b6000611e5f82611950565b905060026040518060c001604052803373ffffffffffffffffffffffffffffffffffffffff168152602001836020015173ffffffffffffffffffffffffffffffffffffffff168152602001848152602001348152602001600015158152602001611ec9600461266a565b815250908060018154018082558091505060019003906000526020600020906006020160009091909190915060008201518160000160006101000a81548173ffffffffffffffffffffffffffffffffffffffff021916908373ffffffffffffffffffffffffffffffffffffffff16021790555060208201518160010160006101000a81548173ffffffffffffffffffffffffffffffffffffffff021916908373ffffffffffffffffffffffffffffffffffffffff160217905550604082015181600201556060820151816003015560808201518160040160006101000a81548160ff02191690831515021790555060a082015181600501555050611fcd6004612678565b5050565b600080611fdd3361268e565b905060005b6001805490508110156120d5576120a660018281548110612006576120056133de565b5b90600052602060002090600302016000018054612022906133ad565b80601f016020809104026020016040519081016040528092919081815260200182805461204e906133ad565b801561209b5780601f106120705761010080835404028352916020019161209b565b820191906000526020600020905b81548152906001019060200180831161207e57829003601f168201915b505050505085611cb7565b80156120b25750818114155b156120c25760009250505061210f565b80806120cd9061343c565b915050611fe2565b5082600182815481106120eb576120ea6133de565b5b906000526020600020906003020160000190816121089190613630565b5060019150505b919050565b600061211f3361268e565b90508160018281548110612136576121356133de565b5b906000526020600020906003020160020190816121539190613630565b505050565b6000600280549050905060005b6002805490508110156121bd578260028281548110612187576121866133de565b5b906000526020600020906006020160050154036121aa5780915060028054905090505b80806121b59061343c565b915050612165565b5060028054905081106121cf57600080fd5b8273ffffffffffffffffffffffffffffffffffffffff16600282815481106121fa576121f96133de565b5b906000526020600020906006020160010160009054906101000a900473ffffffffffffffffffffffffffffffffffffffff1673ffffffffffffffffffffffffffffffffffffffff1614801561228557506000151560028381548110612262576122616133de565b5b906000526020600020906006020160040160009054906101000a900460ff161515145b61228e57600080fd5b8273ffffffffffffffffffffffffffffffffffffffff166108fc600284815481106122bc576122bb6133de565b5b9060005260206000209060060201600301549081150290604051600060405180830381858888f193505050501580156122f9573d6000803e3d6000fd5b506001600283815481106123105761230f6133de565b5b906000526020600020906006020160040160006101000a81548160ff021916908315150217905550505050565b6000816000018190555050565b612352612746565b60005b60018054905081101561259c578273ffffffffffffffffffffffffffffffffffffffff166001828154811061238d5761238c6133de565b5b906000526020600020906003020160010160009054906101000a900473ffffffffffffffffffffffffffffffffffffffff1673ffffffffffffffffffffffffffffffffffffffff160361258957600181815481106123ee576123ed6133de565b5b9060005260206000209060030201604051806060016040529081600082018054612417906133ad565b80601f0160208091040260200160405190810160405280929190818152602001828054612443906133ad565b80156124905780601f1061246557610100808354040283529160200191612490565b820191906000526020600020905b81548152906001019060200180831161247357829003601f168201915b505050505081526020016001820160009054906101000a900473ffffffffffffffffffffffffffffffffffffffff1673ffffffffffffffffffffffffffffffffffffffff1673ffffffffffffffffffffffffffffffffffffffff1681526020016002820180546124ff906133ad565b80601f016020809104026020016040519081016040528092919081815260200182805461252b906133ad565b80156125785780601f1061254d57610100808354040283529160200191612578565b820191906000526020600020905b81548152906001019060200180831161255b57829003601f168201915b5050505050815250509150506125aa565b80806125949061343c565b915050612355565b506125a5612746565b809150505b919050565b6000806000905060005b600080549050811015612660578373ffffffffffffffffffffffffffffffffffffffff16600082815481106125f1576125f06133de565b5b906000526020600020906008020160010160009054906101000a900473ffffffffffffffffffffffffffffffffffffffff1673ffffffffffffffffffffffffffffffffffffffff160361264d5781806126499061343c565b9250505b80806126589061343c565b9150506125b9565b5080915050919050565b600081600001549050919050565b6001816000016000828254019250508190555050565b600080600090505b600180549050811015612737578273ffffffffffffffffffffffffffffffffffffffff16600182815481106126ce576126cd6133de565b5b906000526020600020906003020160010160009054906101000a900473ffffffffffffffffffffffffffffffffffffffff1673ffffffffffffffffffffffffffffffffffffffff16036127245780915050612741565b808061272f9061343c565b915050612696565b5060018054905090505b919050565b604051806060016040528060608152602001600073ffffffffffffffffffffffffffffffffffffffff168152602001606081525090565b60405180610100016040528060008152602001600073ffffffffffffffffffffffffffffffffffffffff16815260200160608152602001606081526020016000815260200160608152602001600015158152602001606081525090565b6040518060c00160405280600073ffffffffffffffffffffffffffffffffffffffff168152602001600073ffffffffffffffffffffffffffffffffffffffff1681526020016000815260200160008152602001600015158152602001600081525090565b600081519050919050565b600082825260208201905092915050565b6000819050602082019050919050565b6000819050919050565b61287d8161286a565b82525050565b600073ffffffffffffffffffffffffffffffffffffffff82169050919050565b60006128ae82612883565b9050919050565b6128be816128a3565b82525050565b600081519050919050565b600082825260208201905092915050565b60005b838110156128fe5780820151818401526020810190506128e3565b60008484015250505050565b6000601f19601f8301169050919050565b6000612926826128c4565b61293081856128cf565b93506129408185602086016128e0565b6129498161290a565b840191505092915050565b60008115159050919050565b61296981612954565b82525050565b6000610100830160008301516129886000860182612874565b50602083015161299b60208601826128b5565b50604083015184820360408601526129b3828261291b565b915050606083015184820360608601526129cd828261291b565b91505060808301516129e26080860182612874565b5060a083015184820360a08601526129fa828261291b565b91505060c0830151612a0f60c0860182612960565b5060e083015184820360e0860152612a27828261291b565b9150508091505092915050565b6000612a40838361296f565b905092915050565b6000602082019050919050565b6000612a608261283e565b612a6a8185612849565b935083602082028501612a7c8561285a565b8060005b85811015612ab85784840389528151612a998582612a34565b9450612aa483612a48565b925060208a01995050600181019050612a80565b50829750879550505050505092915050565b60006020820190508181036000830152612ae48184612a55565b905092915050565b6000604051905090565b600080fd5b600080fd5b6000612b0b82612883565b9050919050565b612b1b81612b00565b8114612b2657600080fd5b50565b600081359050612b3881612b12565b92915050565b600060208284031215612b5457612b53612af6565b5b6000612b6284828501612b29565b91505092915050565b600080fd5b600080fd5b7f4e487b7100000000000000000000000000000000000000000000000000000000600052604160045260246000fd5b612bad8261290a565b810181811067ffffffffffffffff82111715612bcc57612bcb612b75565b5b80604052505050565b6000612bdf612aec565b9050612beb8282612ba4565b919050565b600067ffffffffffffffff821115612c0b57612c0a612b75565b5b612c148261290a565b9050602081019050919050565b82818337600083830152505050565b6000612c43612c3e84612bf0565b612bd5565b905082815260208101848484011115612c5f57612c5e612b70565b5b612c6a848285612c21565b509392505050565b600082601f830112612c8757612c86612b6b565b5b8135612c97848260208601612c30565b91505092915050565b60008060408385031215612cb757612cb6612af6565b5b600083013567ffffffffffffffff811115612cd557612cd4612afb565b5b612ce185828601612c72565b925050602083013567ffffffffffffffff811115612d0257612d01612afb565b5b612d0e85828601612c72565b9150509250929050565b612d2181612954565b82525050565b6000602082019050612d3c6000830184612d18565b92915050565b60006060830160008301518482036000860152612d5f828261291b565b9150506020830151612d7460208601826128b5565b5060408301518482036040860152612d8c828261291b565b9150508091505092915050565b60006020820190508181036000830152612db38184612d42565b905092915050565b612dc48161286a565b8114612dcf57600080fd5b50565b600081359050612de181612dbb565b92915050565b600080600080600060a08688031215612e0357612e02612af6565b5b600086013567ffffffffffffffff811115612e2157612e20612afb565b5b612e2d88828901612c72565b955050602086013567ffffffffffffffff811115612e4e57612e4d612afb565b5b612e5a88828901612c72565b9450506040612e6b88828901612dd2565b935050606086013567ffffffffffffffff811115612e8c57612e8b612afb565b5b612e9888828901612c72565b925050608086013567ffffffffffffffff811115612eb957612eb8612afb565b5b612ec588828901612c72565b9150509295509295909350565b600060208284031215612ee857612ee7612af6565b5b6000612ef684828501612dd2565b91505092915050565b612f088161286a565b82525050565b612f17816128a3565b82525050565b600082825260208201905092915050565b6000612f39826128c4565b612f438185612f1d565b9350612f538185602086016128e0565b612f5c8161290a565b840191505092915050565b600061010082019050612f7d600083018b612eff565b612f8a602083018a612f0e565b8181036040830152612f9c8189612f2e565b90508181036060830152612fb08188612f2e565b9050612fbf6080830187612eff565b81810360a0830152612fd18186612f2e565b9050612fe060c0830185612d18565b81810360e0830152612ff28184612f2e565b90509998505050505050505050565b6000606082019050818103600083015261301b8186612f2e565b905061302a6020830185612f0e565b818103604083015261303c8184612f2e565b9050949350505050565b600060208201905061305b6000830184612eff565b92915050565b600060c0820190506130766000830189612f0e565b6130836020830188612f0e565b6130906040830187612eff565b61309d6060830186612eff565b6130aa6080830185612d18565b6130b760a0830184612eff565b979650505050505050565b600081519050919050565b600082825260208201905092915050565b6000819050602082019050919050565b60c08201600082015161310460008501826128b5565b50602082015161311760208501826128b5565b50604082015161312a6040850182612874565b50606082015161313d6060850182612874565b5060808201516131506080850182612960565b5060a082015161316360a0850182612874565b50505050565b600061317583836130ee565b60c08301905092915050565b6000602082019050919050565b6000613199826130c2565b6131a381856130cd565b93506131ae836130de565b8060005b838110156131df5781516131c68882613169565b97506131d183613181565b9250506001810190506131b2565b5085935050505092915050565b60006020820190508181036000830152613206818461318e565b905092915050565b6000610100830160008301516132276000860182612874565b50602083015161323a60208601826128b5565b5060408301518482036040860152613252828261291b565b9150506060830151848203606086015261326c828261291b565b91505060808301516132816080860182612874565b5060a083015184820360a0860152613299828261291b565b91505060c08301516132ae60c0860182612960565b5060e083015184820360e08601526132c6828261291b565b9150508091505092915050565b600060208201905081810360008301526132ed818461320e565b905092915050565b60006020828403121561330b5761330a612af6565b5b600082013567ffffffffffffffff81111561332957613328612afb565b5b61333584828501612c72565b91505092915050565b6000806040838503121561335557613354612af6565b5b600061336385828601612b29565b925050602061337485828601612dd2565b9150509250929050565b7f4e487b7100000000000000000000000000000000000000000000000000000000600052602260045260246000fd5b600060028204905060018216806133c557607f821691505b6020821081036133d8576133d761337e565b5b50919050565b7f4e487b7100000000000000000000000000000000000000000000000000000000600052603260045260246000fd5b7f4e487b7100000000000000000000000000000000000000000000000000000000600052601160045260246000fd5b60006134478261286a565b91507fffffffffffffffffffffffffffffffffffffffffffffffffffffffffffffffff82036134795761347861340d565b5b600182019050919050565b60008190508160005260206000209050919050565b60006020601f8301049050919050565b600082821b905092915050565b6000600883026134e67fffffffffffffffffffffffffffffffffffffffffffffffffffffffffffffffff826134a9565b6134f086836134a9565b95508019841693508086168417925050509392505050565b6000819050919050565b600061352d6135286135238461286a565b613508565b61286a565b9050919050565b6000819050919050565b61354783613512565b61355b61355382613534565b8484546134b6565b825550505050565b600090565b613570613563565b61357b81848461353e565b505050565b5b8181101561359f57613594600082613568565b600181019050613581565b5050565b601f8211156135e4576135b581613484565b6135be84613499565b810160208510156135cd578190505b6135e16135d985613499565b830182613580565b50505b505050565b600082821c905092915050565b6000613607600019846008026135e9565b1980831691505092915050565b600061362083836135f6565b9150826002028217905092915050565b613639826128c4565b67ffffffffffffffff81111561365257613651612b75565b5b61365c82546133ad565b6136678282856135a3565b600060209050601f83116001811461369a5760008415613688578287015190505b6136928582613614565b8655506136fa565b601f1984166136a886613484565b60005b828110156136d0578489015182556001820191506020850194506020810190506136ab565b868310156136ed57848901516136e9601f8916826135f6565b8355505b6001600288020188555050505b505050505050565b600061370d8261286a565b91506137188361286a565b92508282019050808211156137305761372f61340d565b5b92915050565b600081905092915050565b600061374c826128c4565b6137568185613736565b93506137668185602086016128e0565b80840191505092915050565b600061377e8284613741565b91508190509291505056fea26469706673582212209a7f926cb265fd69b8dad4b30f88196451fd5e7dcc46275ac769ea2a6006b06864736f6c63430008120033",
					"opcodes": "PUSH1 0x80 PUSH1 0x40 MSTORE PUSH3 0x1B PUSH1 0x3 PUSH3 0x38 PUSH1 0x20 SHL PUSH3 0x233D OR PUSH1 0x20 SHR JUMP JUMPDEST PUSH3 0x32 PUSH1 0x4 PUSH3 0x38 PUSH1 0x20 SHL PUSH3 0x233D OR PUSH1 0x20 SHR JUMP JUMPDEST PUSH3 0x45 JUMP JUMPDEST PUSH1 0x0 DUP2 PUSH1 0x0 ADD DUP2 SWAP1 SSTORE POP POP JUMP JUMPDEST PUSH2 0x37BF DUP1 PUSH3 0x55 PUSH1 0x0 CODECOPY PUSH1 0x0 RETURN INVALID PUSH1 0x80 PUSH1 0x40 MSTORE PUSH1 0x4 CALLDATASIZE LT PUSH2 0x114 JUMPI PUSH1 0x0 CALLDATALOAD PUSH1 0xE0 SHR DUP1 PUSH4 0x7EC1061A GT PUSH2 0xA0 JUMPI DUP1 PUSH4 0xCF6361DE GT PUSH2 0x64 JUMPI DUP1 PUSH4 0xCF6361DE EQ PUSH2 0x3DC JUMPI DUP1 PUSH4 0xD6CFA440 EQ PUSH2 0x407 JUMPI DUP1 PUSH4 0xE44C76EA EQ PUSH2 0x423 JUMPI DUP1 PUSH4 0xF70D205C EQ PUSH2 0x460 JUMPI DUP1 PUSH4 0xFB5D7A1F EQ PUSH2 0x489 JUMPI PUSH2 0x114 JUMP JUMPDEST DUP1 PUSH4 0x7EC1061A EQ PUSH2 0x2CA JUMPI DUP1 PUSH4 0x809DAB6A EQ PUSH2 0x30C JUMPI DUP1 PUSH4 0x8E4A6680 EQ PUSH2 0x337 JUMPI DUP1 PUSH4 0xB79367C4 EQ PUSH2 0x362 JUMPI DUP1 PUSH4 0xBED34BBA EQ PUSH2 0x39F JUMPI PUSH2 0x114 JUMP JUMPDEST DUP1 PUSH4 0x2CC59076 GT PUSH2 0xE7 JUMPI DUP1 PUSH4 0x2CC59076 EQ PUSH2 0x1C8 JUMPI DUP1 PUSH4 0x38880D55 EQ PUSH2 0x1F3 JUMPI DUP1 PUSH4 0x3B342E8E EQ PUSH2 0x21C JUMPI DUP1 PUSH4 0x4CEA965E EQ PUSH2 0x260 JUMPI DUP1 PUSH4 0x6F9FB98A EQ PUSH2 0x29F JUMPI PUSH2 0x114 JUMP JUMPDEST DUP1 PUSH4 0x4E48BD1 EQ PUSH2 0x119 JUMPI DUP1 PUSH4 0xE61A0EE EQ PUSH2 0x144 JUMPI DUP1 PUSH4 0x1FC25CDD EQ PUSH2 0x160 JUMPI DUP1 PUSH4 0x21527E50 EQ PUSH2 0x19D JUMPI JUMPDEST PUSH1 0x0 DUP1 REVERT JUMPDEST CALLVALUE DUP1 ISZERO PUSH2 0x125 JUMPI PUSH1 0x0 DUP1 REVERT JUMPDEST POP PUSH2 0x12E PUSH2 0x4A5 JUMP JUMPDEST PUSH1 0x40 MLOAD PUSH2 0x13B SWAP2 SWAP1 PUSH2 0x2ACA JUMP JUMPDEST PUSH1 0x40 MLOAD DUP1 SWAP2 SUB SWAP1 RETURN JUMPDEST PUSH2 0x15E PUSH1 0x4 DUP1 CALLDATASIZE SUB DUP2 ADD SWAP1 PUSH2 0x159 SWAP2 SWAP1 PUSH2 0x2B3E JUMP JUMPDEST PUSH2 0x7D2 JUMP JUMPDEST STOP JUMPDEST CALLVALUE DUP1 ISZERO PUSH2 0x16C JUMPI PUSH1 0x0 DUP1 REVERT JUMPDEST POP PUSH2 0x187 PUSH1 0x4 DUP1 CALLDATASIZE SUB DUP2 ADD SWAP1 PUSH2 0x182 SWAP2 SWAP1 PUSH2 0x2CA0 JUMP JUMPDEST PUSH2 0x88B JUMP JUMPDEST PUSH1 0x40 MLOAD PUSH2 0x194 SWAP2 SWAP1 PUSH2 0x2D27 JUMP JUMPDEST PUSH1 0x40 MLOAD DUP1 SWAP2 SUB SWAP1 RETURN JUMPDEST CALLVALUE DUP1 ISZERO PUSH2 0x1A9 JUMPI PUSH1 0x0 DUP1 REVERT JUMPDEST POP PUSH2 0x1B2 PUSH2 0xAD8 JUMP JUMPDEST PUSH1 0x40 MLOAD PUSH2 0x1BF SWAP2 SWAP1 PUSH2 0x2D99 JUMP JUMPDEST PUSH1 0x40 MLOAD DUP1 SWAP2 SUB SWAP1 RETURN JUMPDEST CALLVALUE DUP1 ISZERO PUSH2 0x1D4 JUMPI PUSH1 0x0 DUP1 REVERT JUMPDEST POP PUSH2 0x1DD PUSH2 0xAF4 JUMP JUMPDEST PUSH1 0x40 MLOAD PUSH2 0x1EA SWAP2 SWAP1 PUSH2 0x2ACA JUMP JUMPDEST PUSH1 0x40 MLOAD DUP1 SWAP2 SUB SWAP1 RETURN JUMPDEST CALLVALUE DUP1 ISZERO PUSH2 0x1FF JUMPI PUSH1 0x0 DUP1 REVERT JUMPDEST POP PUSH2 0x21A PUSH1 0x4 DUP1 CALLDATASIZE SUB DUP2 ADD SWAP1 PUSH2 0x215 SWAP2 SWAP1 PUSH2 0x2DE7 JUMP JUMPDEST PUSH2 0xF29 JUMP JUMPDEST STOP JUMPDEST CALLVALUE DUP1 ISZERO PUSH2 0x228 JUMPI PUSH1 0x0 DUP1 REVERT JUMPDEST POP PUSH2 0x243 PUSH1 0x4 DUP1 CALLDATASIZE SUB DUP2 ADD SWAP1 PUSH2 0x23E SWAP2 SWAP1 PUSH2 0x2ED2 JUMP JUMPDEST PUSH2 0x1096 JUMP JUMPDEST PUSH1 0x40 MLOAD PUSH2 0x257 SWAP9 SWAP8 SWAP7 SWAP6 SWAP5 SWAP4 SWAP3 SWAP2 SWAP1 PUSH2 0x2F67 JUMP JUMPDEST PUSH1 0x40 MLOAD DUP1 SWAP2 SUB SWAP1 RETURN JUMPDEST CALLVALUE DUP1 ISZERO PUSH2 0x26C JUMPI PUSH1 0x0 DUP1 REVERT JUMPDEST POP PUSH2 0x287 PUSH1 0x4 DUP1 CALLDATASIZE SUB DUP2 ADD SWAP1 PUSH2 0x282 SWAP2 SWAP1 PUSH2 0x2ED2 JUMP JUMPDEST PUSH2 0x133B JUMP JUMPDEST PUSH1 0x40 MLOAD PUSH2 0x296 SWAP4 SWAP3 SWAP2 SWAP1 PUSH2 0x3001 JUMP JUMPDEST PUSH1 0x40 MLOAD DUP1 SWAP2 SUB SWAP1 RETURN JUMPDEST CALLVALUE DUP1 ISZERO PUSH2 0x2AB JUMPI PUSH1 0x0 DUP1 REVERT JUMPDEST POP PUSH2 0x2B4 PUSH2 0x14A5 JUMP JUMPDEST PUSH1 0x40 MLOAD PUSH2 0x2C1 SWAP2 SWAP1 PUSH2 0x3046 JUMP JUMPDEST PUSH1 0x40 MLOAD DUP1 SWAP2 SUB SWAP1 RETURN JUMPDEST CALLVALUE DUP1 ISZERO PUSH2 0x2D6 JUMPI PUSH1 0x0 DUP1 REVERT JUMPDEST POP PUSH2 0x2F1 PUSH1 0x4 DUP1 CALLDATASIZE SUB DUP2 ADD SWAP1 PUSH2 0x2EC SWAP2 SWAP1 PUSH2 0x2ED2 JUMP JUMPDEST PUSH2 0x14AD JUMP JUMPDEST PUSH1 0x40 MLOAD PUSH2 0x303 SWAP7 SWAP6 SWAP5 SWAP4 SWAP3 SWAP2 SWAP1 PUSH2 0x3061 JUMP JUMPDEST PUSH1 0x40 MLOAD DUP1 SWAP2 SUB SWAP1 RETURN JUMPDEST CALLVALUE DUP1 ISZERO PUSH2 0x318 JUMPI PUSH1 0x0 DUP1 REVERT JUMPDEST POP PUSH2 0x321 PUSH2 0x1546 JUMP JUMPDEST PUSH1 0x40 MLOAD PUSH2 0x32E SWAP2 SWAP1 PUSH2 0x3046 JUMP JUMPDEST PUSH1 0x40 MLOAD DUP1 SWAP2 SUB SWAP1 RETURN JUMPDEST CALLVALUE DUP1 ISZERO PUSH2 0x343 JUMPI PUSH1 0x0 DUP1 REVERT JUMPDEST POP PUSH2 0x34C PUSH2 0x1663 JUMP JUMPDEST PUSH1 0x40 MLOAD PUSH2 0x359 SWAP2 SWAP1 PUSH2 0x31EC JUMP JUMPDEST PUSH1 0x40 MLOAD DUP1 SWAP2 SUB SWAP1 RETURN JUMPDEST CALLVALUE DUP1 ISZERO PUSH2 0x36E JUMPI PUSH1 0x0 DUP1 REVERT JUMPDEST POP PUSH2 0x389 PUSH1 0x4 DUP1 CALLDATASIZE SUB DUP2 ADD SWAP1 PUSH2 0x384 SWAP2 SWAP1 PUSH2 0x2ED2 JUMP JUMPDEST PUSH2 0x1950 JUMP JUMPDEST PUSH1 0x40 MLOAD PUSH2 0x396 SWAP2 SWAP1 PUSH2 0x32D3 JUMP JUMPDEST PUSH1 0x40 MLOAD DUP1 SWAP2 SUB SWAP1 RETURN JUMPDEST CALLVALUE DUP1 ISZERO PUSH2 0x3AB JUMPI PUSH1 0x0 DUP1 REVERT JUMPDEST POP PUSH2 0x3C6 PUSH1 0x4 DUP1 CALLDATASIZE SUB DUP2 ADD SWAP1 PUSH2 0x3C1 SWAP2 SWAP1 PUSH2 0x2CA0 JUMP JUMPDEST PUSH2 0x1CB7 JUMP JUMPDEST PUSH1 0x40 MLOAD PUSH2 0x3D3 SWAP2 SWAP1 PUSH2 0x2D27 JUMP JUMPDEST PUSH1 0x40 MLOAD DUP1 SWAP2 SUB SWAP1 RETURN JUMPDEST CALLVALUE DUP1 ISZERO PUSH2 0x3E8 JUMPI PUSH1 0x0 DUP1 REVERT JUMPDEST POP PUSH2 0x3F1 PUSH2 0x1D10 JUMP JUMPDEST PUSH1 0x40 MLOAD PUSH2 0x3FE SWAP2 SWAP1 PUSH2 0x31EC JUMP JUMPDEST PUSH1 0x40 MLOAD DUP1 SWAP2 SUB SWAP1 RETURN JUMPDEST PUSH2 0x421 PUSH1 0x4 DUP1 CALLDATASIZE SUB DUP2 ADD SWAP1 PUSH2 0x41C SWAP2 SWAP1 PUSH2 0x2ED2 JUMP JUMPDEST PUSH2 0x1E54 JUMP JUMPDEST STOP JUMPDEST CALLVALUE DUP1 ISZERO PUSH2 0x42F JUMPI PUSH1 0x0 DUP1 REVERT JUMPDEST POP PUSH2 0x44A PUSH1 0x4 DUP1 CALLDATASIZE SUB DUP2 ADD SWAP1 PUSH2 0x445 SWAP2 SWAP1 PUSH2 0x32F5 JUMP JUMPDEST PUSH2 0x1FD1 JUMP JUMPDEST PUSH1 0x40 MLOAD PUSH2 0x457 SWAP2 SWAP1 PUSH2 0x2D27 JUMP JUMPDEST PUSH1 0x40 MLOAD DUP1 SWAP2 SUB SWAP1 RETURN JUMPDEST CALLVALUE DUP1 ISZERO PUSH2 0x46C JUMPI PUSH1 0x0 DUP1 REVERT JUMPDEST POP PUSH2 0x487 PUSH1 0x4 DUP1 CALLDATASIZE SUB DUP2 ADD SWAP1 PUSH2 0x482 SWAP2 SWAP1 PUSH2 0x32F5 JUMP JUMPDEST PUSH2 0x2114 JUMP JUMPDEST STOP JUMPDEST PUSH2 0x4A3 PUSH1 0x4 DUP1 CALLDATASIZE SUB DUP2 ADD SWAP1 PUSH2 0x49E SWAP2 SWAP1 PUSH2 0x333E JUMP JUMPDEST PUSH2 0x2158 JUMP JUMPDEST STOP JUMPDEST PUSH1 0x60 PUSH1 0x0 DUP1 SLOAD DUP1 PUSH1 0x20 MUL PUSH1 0x20 ADD PUSH1 0x40 MLOAD SWAP1 DUP2 ADD PUSH1 0x40 MSTORE DUP1 SWAP3 SWAP2 SWAP1 DUP2 DUP2 MSTORE PUSH1 0x20 ADD PUSH1 0x0 SWAP1 JUMPDEST DUP3 DUP3 LT ISZERO PUSH2 0x7C9 JUMPI DUP4 DUP3 SWAP1 PUSH1 0x0 MSTORE PUSH1 0x20 PUSH1 0x0 KECCAK256 SWAP1 PUSH1 0x8 MUL ADD PUSH1 0x40 MLOAD DUP1 PUSH2 0x100 ADD PUSH1 0x40 MSTORE SWAP1 DUP2 PUSH1 0x0 DUP3 ADD SLOAD DUP2 MSTORE PUSH1 0x20 ADD PUSH1 0x1 DUP3 ADD PUSH1 0x0 SWAP1 SLOAD SWAP1 PUSH2 0x100 EXP SWAP1 DIV PUSH20 0xFFFFFFFFFFFFFFFFFFFFFFFFFFFFFFFFFFFFFFFF AND PUSH20 0xFFFFFFFFFFFFFFFFFFFFFFFFFFFFFFFFFFFFFFFF AND PUSH20 0xFFFFFFFFFFFFFFFFFFFFFFFFFFFFFFFFFFFFFFFF AND DUP2 MSTORE PUSH1 0x20 ADD PUSH1 0x2 DUP3 ADD DUP1 SLOAD PUSH2 0x55D SWAP1 PUSH2 0x33AD JUMP JUMPDEST DUP1 PUSH1 0x1F ADD PUSH1 0x20 DUP1 SWAP2 DIV MUL PUSH1 0x20 ADD PUSH1 0x40 MLOAD SWAP1 DUP2 ADD PUSH1 0x40 MSTORE DUP1 SWAP3 SWAP2 SWAP1 DUP2 DUP2 MSTORE PUSH1 0x20 ADD DUP3 DUP1 SLOAD PUSH2 0x589 SWAP1 PUSH2 0x33AD JUMP JUMPDEST DUP1 ISZERO PUSH2 0x5D6 JUMPI DUP1 PUSH1 0x1F LT PUSH2 0x5AB JUMPI PUSH2 0x100 DUP1 DUP4 SLOAD DIV MUL DUP4 MSTORE SWAP2 PUSH1 0x20 ADD SWAP2 PUSH2 0x5D6 JUMP JUMPDEST DUP3 ADD SWAP2 SWAP1 PUSH1 0x0 MSTORE PUSH1 0x20 PUSH1 0x0 KECCAK256 SWAP1 JUMPDEST DUP2 SLOAD DUP2 MSTORE SWAP1 PUSH1 0x1 ADD SWAP1 PUSH1 0x20 ADD DUP1 DUP4 GT PUSH2 0x5B9 JUMPI DUP3 SWAP1 SUB PUSH1 0x1F AND DUP3 ADD SWAP2 JUMPDEST POP POP POP POP POP DUP2 MSTORE PUSH1 0x20 ADD PUSH1 0x3 DUP3 ADD DUP1 SLOAD PUSH2 0x5EF SWAP1 PUSH2 0x33AD JUMP JUMPDEST DUP1 PUSH1 0x1F ADD PUSH1 0x20 DUP1 SWAP2 DIV MUL PUSH1 0x20 ADD PUSH1 0x40 MLOAD SWAP1 DUP2 ADD PUSH1 0x40 MSTORE DUP1 SWAP3 SWAP2 SWAP1 DUP2 DUP2 MSTORE PUSH1 0x20 ADD DUP3 DUP1 SLOAD PUSH2 0x61B SWAP1 PUSH2 0x33AD JUMP JUMPDEST DUP1 ISZERO PUSH2 0x668 JUMPI DUP1 PUSH1 0x1F LT PUSH2 0x63D JUMPI PUSH2 0x100 DUP1 DUP4 SLOAD DIV MUL DUP4 MSTORE SWAP2 PUSH1 0x20 ADD SWAP2 PUSH2 0x668 JUMP JUMPDEST DUP3 ADD SWAP2 SWAP1 PUSH1 0x0 MSTORE PUSH1 0x20 PUSH1 0x0 KECCAK256 SWAP1 JUMPDEST DUP2 SLOAD DUP2 MSTORE SWAP1 PUSH1 0x1 ADD SWAP1 PUSH1 0x20 ADD DUP1 DUP4 GT PUSH2 0x64B JUMPI DUP3 SWAP1 SUB PUSH1 0x1F AND DUP3 ADD SWAP2 JUMPDEST POP POP POP POP POP DUP2 MSTORE PUSH1 0x20 ADD PUSH1 0x4 DUP3 ADD SLOAD DUP2 MSTORE PUSH1 0x20 ADD PUSH1 0x5 DUP3 ADD DUP1 SLOAD PUSH2 0x68B SWAP1 PUSH2 0x33AD JUMP JUMPDEST DUP1 PUSH1 0x1F ADD PUSH1 0x20 DUP1 SWAP2 DIV MUL PUSH1 0x20 ADD PUSH1 0x40 MLOAD SWAP1 DUP2 ADD PUSH1 0x40 MSTORE DUP1 SWAP3 SWAP2 SWAP1 DUP2 DUP2 MSTORE PUSH1 0x20 ADD DUP3 DUP1 SLOAD PUSH2 0x6B7 SWAP1 PUSH2 0x33AD JUMP JUMPDEST DUP1 ISZERO PUSH2 0x704 JUMPI DUP1 PUSH1 0x1F LT PUSH2 0x6D9 JUMPI PUSH2 0x100 DUP1 DUP4 SLOAD DIV MUL DUP4 MSTORE SWAP2 PUSH1 0x20 ADD SWAP2 PUSH2 0x704 JUMP JUMPDEST DUP3 ADD SWAP2 SWAP1 PUSH1 0x0 MSTORE PUSH1 0x20 PUSH1 0x0 KECCAK256 SWAP1 JUMPDEST DUP2 SLOAD DUP2 MSTORE SWAP1 PUSH1 0x1 ADD SWAP1 PUSH1 0x20 ADD DUP1 DUP4 GT PUSH2 0x6E7 JUMPI DUP3 SWAP1 SUB PUSH1 0x1F AND DUP3 ADD SWAP2 JUMPDEST POP POP POP POP POP DUP2 MSTORE PUSH1 0x20 ADD PUSH1 0x6 DUP3 ADD PUSH1 0x0 SWAP1 SLOAD SWAP1 PUSH2 0x100 EXP SWAP1 DIV PUSH1 0xFF AND ISZERO ISZERO ISZERO ISZERO DUP2 MSTORE PUSH1 0x20 ADD PUSH1 0x7 DUP3 ADD DUP1 SLOAD PUSH2 0x738 SWAP1 PUSH2 0x33AD JUMP JUMPDEST DUP1 PUSH1 0x1F ADD PUSH1 0x20 DUP1 SWAP2 DIV MUL PUSH1 0x20 ADD PUSH1 0x40 MLOAD SWAP1 DUP2 ADD PUSH1 0x40 MSTORE DUP1 SWAP3 SWAP2 SWAP1 DUP2 DUP2 MSTORE PUSH1 0x20 ADD DUP3 DUP1 SLOAD PUSH2 0x764 SWAP1 PUSH2 0x33AD JUMP JUMPDEST DUP1 ISZERO PUSH2 0x7B1 JUMPI DUP1 PUSH1 0x1F LT PUSH2 0x786 JUMPI PUSH2 0x100 DUP1 DUP4 SLOAD DIV MUL DUP4 MSTORE SWAP2 PUSH1 0x20 ADD SWAP2 PUSH2 0x7B1 JUMP JUMPDEST DUP3 ADD SWAP2 SWAP1 PUSH1 0x0 MSTORE PUSH1 0x20 PUSH1 0x0 KECCAK256 SWAP1 JUMPDEST DUP2 SLOAD DUP2 MSTORE SWAP1 PUSH1 0x1 ADD SWAP1 PUSH1 0x20 ADD DUP1 DUP4 GT PUSH2 0x794 JUMPI DUP3 SWAP1 SUB PUSH1 0x1F AND DUP3 ADD SWAP2 JUMPDEST POP POP POP POP POP DUP2 MSTORE POP POP DUP2 MSTORE PUSH1 0x20 ADD SWAP1 PUSH1 0x1 ADD SWAP1 PUSH2 0x4C9 JUMP JUMPDEST POP POP POP POP SWAP1 POP SWAP1 JUMP JUMPDEST PUSH1 0x0 PUSH2 0x7DC PUSH2 0x1546 JUMP JUMPDEST SWAP1 POP DUP2 PUSH20 0xFFFFFFFFFFFFFFFFFFFFFFFFFFFFFFFFFFFFFFFF AND PUSH2 0x8FC DUP3 SWAP1 DUP2 ISZERO MUL SWAP1 PUSH1 0x40 MLOAD PUSH1 0x0 PUSH1 0x40 MLOAD DUP1 DUP4 SUB DUP2 DUP6 DUP9 DUP9 CALL SWAP4 POP POP POP POP ISZERO DUP1 ISZERO PUSH2 0x824 JUMPI RETURNDATASIZE PUSH1 0x0 DUP1 RETURNDATACOPY RETURNDATASIZE PUSH1 0x0 REVERT JUMPDEST POP PUSH1 0x0 JUMPDEST PUSH1 0x2 DUP1 SLOAD SWAP1 POP DUP2 LT ISZERO PUSH2 0x886 JUMPI PUSH1 0x1 PUSH1 0x2 DUP3 DUP2 SLOAD DUP2 LT PUSH2 0x84B JUMPI PUSH2 0x84A PUSH2 0x33DE JUMP JUMPDEST JUMPDEST SWAP1 PUSH1 0x0 MSTORE PUSH1 0x20 PUSH1 0x0 KECCAK256 SWAP1 PUSH1 0x6 MUL ADD PUSH1 0x4 ADD PUSH1 0x0 PUSH2 0x100 EXP DUP2 SLOAD DUP2 PUSH1 0xFF MUL NOT AND SWAP1 DUP4 ISZERO ISZERO MUL OR SWAP1 SSTORE POP DUP1 DUP1 PUSH2 0x87E SWAP1 PUSH2 0x343C JUMP JUMPDEST SWAP2 POP POP PUSH2 0x828 JUMP JUMPDEST POP POP POP JUMP JUMPDEST PUSH1 0x0 DUP1 PUSH1 0x0 SWAP1 POP JUMPDEST PUSH1 0x1 DUP1 SLOAD SWAP1 POP DUP2 LT ISZERO PUSH2 0x9FB JUMPI PUSH2 0x957 PUSH1 0x1 DUP3 DUP2 SLOAD DUP2 LT PUSH2 0x8B7 JUMPI PUSH2 0x8B6 PUSH2 0x33DE JUMP JUMPDEST JUMPDEST SWAP1 PUSH1 0x0 MSTORE PUSH1 0x20 PUSH1 0x0 KECCAK256 SWAP1 PUSH1 0x3 MUL ADD PUSH1 0x0 ADD DUP1 SLOAD PUSH2 0x8D3 SWAP1 PUSH2 0x33AD JUMP JUMPDEST DUP1 PUSH1 0x1F ADD PUSH1 0x20 DUP1 SWAP2 DIV MUL PUSH1 0x20 ADD PUSH1 0x40 MLOAD SWAP1 DUP2 ADD PUSH1 0x40 MSTORE DUP1 SWAP3 SWAP2 SWAP1 DUP2 DUP2 MSTORE PUSH1 0x20 ADD DUP3 DUP1 SLOAD PUSH2 0x8FF SWAP1 PUSH2 0x33AD JUMP JUMPDEST DUP1 ISZERO PUSH2 0x94C JUMPI DUP1 PUSH1 0x1F LT PUSH2 0x921 JUMPI PUSH2 0x100 DUP1 DUP4 SLOAD DIV MUL DUP4 MSTORE SWAP2 PUSH1 0x20 ADD SWAP2 PUSH2 0x94C JUMP JUMPDEST DUP3 ADD SWAP2 SWAP1 PUSH1 0x0 MSTORE PUSH1 0x20 PUSH1 0x0 KECCAK256 SWAP1 JUMPDEST DUP2 SLOAD DUP2 MSTORE SWAP1 PUSH1 0x1 ADD SWAP1 PUSH1 0x20 ADD DUP1 DUP4 GT PUSH2 0x92F JUMPI DUP3 SWAP1 SUB PUSH1 0x1F AND DUP3 ADD SWAP2 JUMPDEST POP POP POP POP POP DUP6 PUSH2 0x1CB7 JUMP JUMPDEST ISZERO PUSH2 0x966 JUMPI PUSH1 0x0 SWAP2 POP POP PUSH2 0xAD2 JUMP JUMPDEST CALLER PUSH20 0xFFFFFFFFFFFFFFFFFFFFFFFFFFFFFFFFFFFFFFFF AND PUSH1 0x1 DUP3 DUP2 SLOAD DUP2 LT PUSH2 0x991 JUMPI PUSH2 0x990 PUSH2 0x33DE JUMP JUMPDEST JUMPDEST SWAP1 PUSH1 0x0 MSTORE PUSH1 0x20 PUSH1 0x0 KECCAK256 SWAP1 PUSH1 0x3 MUL ADD PUSH1 0x1 ADD PUSH1 0x0 SWAP1 SLOAD SWAP1 PUSH2 0x100 EXP SWAP1 DIV PUSH20 0xFFFFFFFFFFFFFFFFFFFFFFFFFFFFFFFFFFFFFFFF AND PUSH20 0xFFFFFFFFFFFFFFFFFFFFFFFFFFFFFFFFFFFFFFFF AND SUB PUSH2 0x9E8 JUMPI PUSH1 0x0 SWAP2 POP POP PUSH2 0xAD2 JUMP JUMPDEST DUP1 DUP1 PUSH2 0x9F3 SWAP1 PUSH2 0x343C JUMP JUMPDEST SWAP2 POP POP PUSH2 0x893 JUMP JUMPDEST POP PUSH1 0x1 PUSH1 0x40 MLOAD DUP1 PUSH1 0x60 ADD PUSH1 0x40 MSTORE DUP1 DUP6 DUP2 MSTORE PUSH1 0x20 ADD CALLER PUSH20 0xFFFFFFFFFFFFFFFFFFFFFFFFFFFFFFFFFFFFFFFF AND DUP2 MSTORE PUSH1 0x20 ADD DUP5 DUP2 MSTORE POP SWAP1 DUP1 PUSH1 0x1 DUP2 SLOAD ADD DUP1 DUP3 SSTORE DUP1 SWAP2 POP POP PUSH1 0x1 SWAP1 SUB SWAP1 PUSH1 0x0 MSTORE PUSH1 0x20 PUSH1 0x0 KECCAK256 SWAP1 PUSH1 0x3 MUL ADD PUSH1 0x0 SWAP1 SWAP2 SWAP1 SWAP2 SWAP1 SWAP2 POP PUSH1 0x0 DUP3 ADD MLOAD DUP2 PUSH1 0x0 ADD SWAP1 DUP2 PUSH2 0xA6D SWAP2 SWAP1 PUSH2 0x3630 JUMP JUMPDEST POP PUSH1 0x20 DUP3 ADD MLOAD DUP2 PUSH1 0x1 ADD PUSH1 0x0 PUSH2 0x100 EXP DUP2 SLOAD DUP2 PUSH20 0xFFFFFFFFFFFFFFFFFFFFFFFFFFFFFFFFFFFFFFFF MUL NOT AND SWAP1 DUP4 PUSH20 0xFFFFFFFFFFFFFFFFFFFFFFFFFFFFFFFFFFFFFFFF AND MUL OR SWAP1 SSTORE POP PUSH1 0x40 DUP3 ADD MLOAD DUP2 PUSH1 0x2 ADD SWAP1 DUP2 PUSH2 0xACA SWAP2 SWAP1 PUSH2 0x3630 JUMP JUMPDEST POP POP POP PUSH1 0x1 SWAP1 POP JUMPDEST SWAP3 SWAP2 POP POP JUMP JUMPDEST PUSH2 0xAE0 PUSH2 0x2746 JUMP JUMPDEST PUSH1 0x0 PUSH2 0xAEB CALLER PUSH2 0x234A JUMP JUMPDEST SWAP1 POP DUP1 SWAP2 POP POP SWAP1 JUMP JUMPDEST PUSH1 0x60 PUSH1 0x0 PUSH2 0xB01 CALLER PUSH2 0x25AF JUMP JUMPDEST SWAP1 POP PUSH1 0x0 DUP1 DUP3 PUSH8 0xFFFFFFFFFFFFFFFF DUP2 GT ISZERO PUSH2 0xB20 JUMPI PUSH2 0xB1F PUSH2 0x2B75 JUMP JUMPDEST JUMPDEST PUSH1 0x40 MLOAD SWAP1 DUP1 DUP3 MSTORE DUP1 PUSH1 0x20 MUL PUSH1 0x20 ADD DUP3 ADD PUSH1 0x40 MSTORE DUP1 ISZERO PUSH2 0xB59 JUMPI DUP2 PUSH1 0x20 ADD JUMPDEST PUSH2 0xB46 PUSH2 0x277D JUMP JUMPDEST DUP2 MSTORE PUSH1 0x20 ADD SWAP1 PUSH1 0x1 SWAP1 SUB SWAP1 DUP2 PUSH2 0xB3E JUMPI SWAP1 POP JUMPDEST POP SWAP1 POP PUSH1 0x0 JUMPDEST PUSH1 0x0 DUP1 SLOAD SWAP1 POP DUP2 LT ISZERO PUSH2 0xF1F JUMPI CALLER PUSH20 0xFFFFFFFFFFFFFFFFFFFFFFFFFFFFFFFFFFFFFFFF AND PUSH1 0x0 DUP3 DUP2 SLOAD DUP2 LT PUSH2 0xB97 JUMPI PUSH2 0xB96 PUSH2 0x33DE JUMP JUMPDEST JUMPDEST SWAP1 PUSH1 0x0 MSTORE PUSH1 0x20 PUSH1 0x0 KECCAK256 SWAP1 PUSH1 0x8 MUL ADD PUSH1 0x1 ADD PUSH1 0x0 SWAP1 SLOAD SWAP1 PUSH2 0x100 EXP SWAP1 DIV PUSH20 0xFFFFFFFFFFFFFFFFFFFFFFFFFFFFFFFFFFFFFFFF AND PUSH20 0xFFFFFFFFFFFFFFFFFFFFFFFFFFFFFFFFFFFFFFFF AND SUB PUSH2 0xF0C JUMPI PUSH1 0x0 DUP2 DUP2 SLOAD DUP2 LT PUSH2 0xBF8 JUMPI PUSH2 0xBF7 PUSH2 0x33DE JUMP JUMPDEST JUMPDEST SWAP1 PUSH1 0x0 MSTORE PUSH1 0x20 PUSH1 0x0 KECCAK256 SWAP1 PUSH1 0x8 MUL ADD PUSH1 0x40 MLOAD DUP1 PUSH2 0x100 ADD PUSH1 0x40 MSTORE SWAP1 DUP2 PUSH1 0x0 DUP3 ADD SLOAD DUP2 MSTORE PUSH1 0x20 ADD PUSH1 0x1 DUP3 ADD PUSH1 0x0 SWAP1 SLOAD SWAP1 PUSH2 0x100 EXP SWAP1 DIV PUSH20 0xFFFFFFFFFFFFFFFFFFFFFFFFFFFFFFFFFFFFFFFF AND PUSH20 0xFFFFFFFFFFFFFFFFFFFFFFFFFFFFFFFFFFFFFFFF AND PUSH20 0xFFFFFFFFFFFFFFFFFFFFFFFFFFFFFFFFFFFFFFFF AND DUP2 MSTORE PUSH1 0x20 ADD PUSH1 0x2 DUP3 ADD DUP1 SLOAD PUSH2 0xC82 SWAP1 PUSH2 0x33AD JUMP JUMPDEST DUP1 PUSH1 0x1F ADD PUSH1 0x20 DUP1 SWAP2 DIV MUL PUSH1 0x20 ADD PUSH1 0x40 MLOAD SWAP1 DUP2 ADD PUSH1 0x40 MSTORE DUP1 SWAP3 SWAP2 SWAP1 DUP2 DUP2 MSTORE PUSH1 0x20 ADD DUP3 DUP1 SLOAD PUSH2 0xCAE SWAP1 PUSH2 0x33AD JUMP JUMPDEST DUP1 ISZERO PUSH2 0xCFB JUMPI DUP1 PUSH1 0x1F LT PUSH2 0xCD0 JUMPI PUSH2 0x100 DUP1 DUP4 SLOAD DIV MUL DUP4 MSTORE SWAP2 PUSH1 0x20 ADD SWAP2 PUSH2 0xCFB JUMP JUMPDEST DUP3 ADD SWAP2 SWAP1 PUSH1 0x0 MSTORE PUSH1 0x20 PUSH1 0x0 KECCAK256 SWAP1 JUMPDEST DUP2 SLOAD DUP2 MSTORE SWAP1 PUSH1 0x1 ADD SWAP1 PUSH1 0x20 ADD DUP1 DUP4 GT PUSH2 0xCDE JUMPI DUP3 SWAP1 SUB PUSH1 0x1F AND DUP3 ADD SWAP2 JUMPDEST POP POP POP POP POP DUP2 MSTORE PUSH1 0x20 ADD PUSH1 0x3 DUP3 ADD DUP1 SLOAD PUSH2 0xD14 SWAP1 PUSH2 0x33AD JUMP JUMPDEST DUP1 PUSH1 0x1F ADD PUSH1 0x20 DUP1 SWAP2 DIV MUL PUSH1 0x20 ADD PUSH1 0x40 MLOAD SWAP1 DUP2 ADD PUSH1 0x40 MSTORE DUP1 SWAP3 SWAP2 SWAP1 DUP2 DUP2 MSTORE PUSH1 0x20 ADD DUP3 DUP1 SLOAD PUSH2 0xD40 SWAP1 PUSH2 0x33AD JUMP JUMPDEST DUP1 ISZERO PUSH2 0xD8D JUMPI DUP1 PUSH1 0x1F LT PUSH2 0xD62 JUMPI PUSH2 0x100 DUP1 DUP4 SLOAD DIV MUL DUP4 MSTORE SWAP2 PUSH1 0x20 ADD SWAP2 PUSH2 0xD8D JUMP JUMPDEST DUP3 ADD SWAP2 SWAP1 PUSH1 0x0 MSTORE PUSH1 0x20 PUSH1 0x0 KECCAK256 SWAP1 JUMPDEST DUP2 SLOAD DUP2 MSTORE SWAP1 PUSH1 0x1 ADD SWAP1 PUSH1 0x20 ADD DUP1 DUP4 GT PUSH2 0xD70 JUMPI DUP3 SWAP1 SUB PUSH1 0x1F AND DUP3 ADD SWAP2 JUMPDEST POP POP POP POP POP DUP2 MSTORE PUSH1 0x20 ADD PUSH1 0x4 DUP3 ADD SLOAD DUP2 MSTORE PUSH1 0x20 ADD PUSH1 0x5 DUP3 ADD DUP1 SLOAD PUSH2 0xDB0 SWAP1 PUSH2 0x33AD JUMP JUMPDEST DUP1 PUSH1 0x1F ADD PUSH1 0x20 DUP1 SWAP2 DIV MUL PUSH1 0x20 ADD PUSH1 0x40 MLOAD SWAP1 DUP2 ADD PUSH1 0x40 MSTORE DUP1 SWAP3 SWAP2 SWAP1 DUP2 DUP2 MSTORE PUSH1 0x20 ADD DUP3 DUP1 SLOAD PUSH2 0xDDC SWAP1 PUSH2 0x33AD JUMP JUMPDEST DUP1 ISZERO PUSH2 0xE29 JUMPI DUP1 PUSH1 0x1F LT PUSH2 0xDFE JUMPI PUSH2 0x100 DUP1 DUP4 SLOAD DIV MUL DUP4 MSTORE SWAP2 PUSH1 0x20 ADD SWAP2 PUSH2 0xE29 JUMP JUMPDEST DUP3 ADD SWAP2 SWAP1 PUSH1 0x0 MSTORE PUSH1 0x20 PUSH1 0x0 KECCAK256 SWAP1 JUMPDEST DUP2 SLOAD DUP2 MSTORE SWAP1 PUSH1 0x1 ADD SWAP1 PUSH1 0x20 ADD DUP1 DUP4 GT PUSH2 0xE0C JUMPI DUP3 SWAP1 SUB PUSH1 0x1F AND DUP3 ADD SWAP2 JUMPDEST POP POP POP POP POP DUP2 MSTORE PUSH1 0x20 ADD PUSH1 0x6 DUP3 ADD PUSH1 0x0 SWAP1 SLOAD SWAP1 PUSH2 0x100 EXP SWAP1 DIV PUSH1 0xFF AND ISZERO ISZERO ISZERO ISZERO DUP2 MSTORE PUSH1 0x20 ADD PUSH1 0x7 DUP3 ADD DUP1 SLOAD PUSH2 0xE5D SWAP1 PUSH2 0x33AD JUMP JUMPDEST DUP1 PUSH1 0x1F ADD PUSH1 0x20 DUP1 SWAP2 DIV MUL PUSH1 0x20 ADD PUSH1 0x40 MLOAD SWAP1 DUP2 ADD PUSH1 0x40 MSTORE DUP1 SWAP3 SWAP2 SWAP1 DUP2 DUP2 MSTORE PUSH1 0x20 ADD DUP3 DUP1 SLOAD PUSH2 0xE89 SWAP1 PUSH2 0x33AD JUMP JUMPDEST DUP1 ISZERO PUSH2 0xED6 JUMPI DUP1 PUSH1 0x1F LT PUSH2 0xEAB JUMPI PUSH2 0x100 DUP1 DUP4 SLOAD DIV MUL DUP4 MSTORE SWAP2 PUSH1 0x20 ADD SWAP2 PUSH2 0xED6 JUMP JUMPDEST DUP3 ADD SWAP2 SWAP1 PUSH1 0x0 MSTORE PUSH1 0x20 PUSH1 0x0 KECCAK256 SWAP1 JUMPDEST DUP2 SLOAD DUP2 MSTORE SWAP1 PUSH1 0x1 ADD SWAP1 PUSH1 0x20 ADD DUP1 DUP4 GT PUSH2 0xEB9 JUMPI DUP3 SWAP1 SUB PUSH1 0x1F AND DUP3 ADD SWAP2 JUMPDEST POP POP POP POP POP DUP2 MSTORE POP POP DUP3 DUP5 DUP2 MLOAD DUP2 LT PUSH2 0xEF2 JUMPI PUSH2 0xEF1 PUSH2 0x33DE JUMP JUMPDEST JUMPDEST PUSH1 0x20 MUL PUSH1 0x20 ADD ADD DUP2 SWAP1 MSTORE POP DUP3 DUP1 PUSH2 0xF08 SWAP1 PUSH2 0x343C JUMP JUMPDEST SWAP4 POP POP JUMPDEST DUP1 DUP1 PUSH2 0xF17 SWAP1 PUSH2 0x343C JUMP JUMPDEST SWAP2 POP POP PUSH2 0xB5F JUMP JUMPDEST POP DUP1 SWAP4 POP POP POP POP SWAP1 JUMP JUMPDEST PUSH1 0x0 PUSH1 0x40 MLOAD DUP1 PUSH2 0x100 ADD PUSH1 0x40 MSTORE DUP1 PUSH2 0xF41 PUSH1 0x3 PUSH2 0x266A JUMP JUMPDEST DUP2 MSTORE PUSH1 0x20 ADD CALLER PUSH20 0xFFFFFFFFFFFFFFFFFFFFFFFFFFFFFFFFFFFFFFFF AND DUP2 MSTORE PUSH1 0x20 ADD DUP8 DUP2 MSTORE PUSH1 0x20 ADD DUP7 DUP2 MSTORE PUSH1 0x20 ADD DUP6 DUP2 MSTORE PUSH1 0x20 ADD DUP5 DUP2 MSTORE PUSH1 0x20 ADD PUSH1 0x0 ISZERO ISZERO DUP2 MSTORE PUSH1 0x20 ADD DUP4 DUP2 MSTORE POP SWAP1 DUP1 PUSH1 0x1 DUP2 SLOAD ADD DUP1 DUP3 SSTORE DUP1 SWAP2 POP POP PUSH1 0x1 SWAP1 SUB SWAP1 PUSH1 0x0 MSTORE PUSH1 0x20 PUSH1 0x0 KECCAK256 SWAP1 PUSH1 0x8 MUL ADD PUSH1 0x0 SWAP1 SWAP2 SWAP1 SWAP2 SWAP1 SWAP2 POP PUSH1 0x0 DUP3 ADD MLOAD DUP2 PUSH1 0x0 ADD SSTORE PUSH1 0x20 DUP3 ADD MLOAD DUP2 PUSH1 0x1 ADD PUSH1 0x0 PUSH2 0x100 EXP DUP2 SLOAD DUP2 PUSH20 0xFFFFFFFFFFFFFFFFFFFFFFFFFFFFFFFFFFFFFFFF MUL NOT AND SWAP1 DUP4 PUSH20 0xFFFFFFFFFFFFFFFFFFFFFFFFFFFFFFFFFFFFFFFF AND MUL OR SWAP1 SSTORE POP PUSH1 0x40 DUP3 ADD MLOAD DUP2 PUSH1 0x2 ADD SWAP1 DUP2 PUSH2 0x1016 SWAP2 SWAP1 PUSH2 0x3630 JUMP JUMPDEST POP PUSH1 0x60 DUP3 ADD MLOAD DUP2 PUSH1 0x3 ADD SWAP1 DUP2 PUSH2 0x102C SWAP2 SWAP1 PUSH2 0x3630 JUMP JUMPDEST POP PUSH1 0x80 DUP3 ADD MLOAD DUP2 PUSH1 0x4 ADD SSTORE PUSH1 0xA0 DUP3 ADD MLOAD DUP2 PUSH1 0x5 ADD SWAP1 DUP2 PUSH2 0x104C SWAP2 SWAP1 PUSH2 0x3630 JUMP JUMPDEST POP PUSH1 0xC0 DUP3 ADD MLOAD DUP2 PUSH1 0x6 ADD PUSH1 0x0 PUSH2 0x100 EXP DUP2 SLOAD DUP2 PUSH1 0xFF MUL NOT AND SWAP1 DUP4 ISZERO ISZERO MUL OR SWAP1 SSTORE POP PUSH1 0xE0 DUP3 ADD MLOAD DUP2 PUSH1 0x7 ADD SWAP1 DUP2 PUSH2 0x1082 SWAP2 SWAP1 PUSH2 0x3630 JUMP JUMPDEST POP POP POP PUSH2 0x108F PUSH1 0x3 PUSH2 0x2678 JUMP JUMPDEST POP POP POP POP POP JUMP JUMPDEST PUSH1 0x0 DUP2 DUP2 SLOAD DUP2 LT PUSH2 0x10A6 JUMPI PUSH1 0x0 DUP1 REVERT JUMPDEST SWAP1 PUSH1 0x0 MSTORE PUSH1 0x20 PUSH1 0x0 KECCAK256 SWAP1 PUSH1 0x8 MUL ADD PUSH1 0x0 SWAP2 POP SWAP1 POP DUP1 PUSH1 0x0 ADD SLOAD SWAP1 DUP1 PUSH1 0x1 ADD PUSH1 0x0 SWAP1 SLOAD SWAP1 PUSH2 0x100 EXP SWAP1 DIV PUSH20 0xFFFFFFFFFFFFFFFFFFFFFFFFFFFFFFFFFFFFFFFF AND SWAP1 DUP1 PUSH1 0x2 ADD DUP1 SLOAD PUSH2 0x10F5 SWAP1 PUSH2 0x33AD JUMP JUMPDEST DUP1 PUSH1 0x1F ADD PUSH1 0x20 DUP1 SWAP2 DIV MUL PUSH1 0x20 ADD PUSH1 0x40 MLOAD SWAP1 DUP2 ADD PUSH1 0x40 MSTORE DUP1 SWAP3 SWAP2 SWAP1 DUP2 DUP2 MSTORE PUSH1 0x20 ADD DUP3 DUP1 SLOAD PUSH2 0x1121 SWAP1 PUSH2 0x33AD JUMP JUMPDEST DUP1 ISZERO PUSH2 0x116E JUMPI DUP1 PUSH1 0x1F LT PUSH2 0x1143 JUMPI PUSH2 0x100 DUP1 DUP4 SLOAD DIV MUL DUP4 MSTORE SWAP2 PUSH1 0x20 ADD SWAP2 PUSH2 0x116E JUMP JUMPDEST DUP3 ADD SWAP2 SWAP1 PUSH1 0x0 MSTORE PUSH1 0x20 PUSH1 0x0 KECCAK256 SWAP1 JUMPDEST DUP2 SLOAD DUP2 MSTORE SWAP1 PUSH1 0x1 ADD SWAP1 PUSH1 0x20 ADD DUP1 DUP4 GT PUSH2 0x1151 JUMPI DUP3 SWAP1 SUB PUSH1 0x1F AND DUP3 ADD SWAP2 JUMPDEST POP POP POP POP POP SWAP1 DUP1 PUSH1 0x3 ADD DUP1 SLOAD PUSH2 0x1183 SWAP1 PUSH2 0x33AD JUMP JUMPDEST DUP1 PUSH1 0x1F ADD PUSH1 0x20 DUP1 SWAP2 DIV MUL PUSH1 0x20 ADD PUSH1 0x40 MLOAD SWAP1 DUP2 ADD PUSH1 0x40 MSTORE DUP1 SWAP3 SWAP2 SWAP1 DUP2 DUP2 MSTORE PUSH1 0x20 ADD DUP3 DUP1 SLOAD PUSH2 0x11AF SWAP1 PUSH2 0x33AD JUMP JUMPDEST DUP1 ISZERO PUSH2 0x11FC JUMPI DUP1 PUSH1 0x1F LT PUSH2 0x11D1 JUMPI PUSH2 0x100 DUP1 DUP4 SLOAD DIV MUL DUP4 MSTORE SWAP2 PUSH1 0x20 ADD SWAP2 PUSH2 0x11FC JUMP JUMPDEST DUP3 ADD SWAP2 SWAP1 PUSH1 0x0 MSTORE PUSH1 0x20 PUSH1 0x0 KECCAK256 SWAP1 JUMPDEST DUP2 SLOAD DUP2 MSTORE SWAP1 PUSH1 0x1 ADD SWAP1 PUSH1 0x20 ADD DUP1 DUP4 GT PUSH2 0x11DF JUMPI DUP3 SWAP1 SUB PUSH1 0x1F AND DUP3 ADD SWAP2 JUMPDEST POP POP POP POP POP SWAP1 DUP1 PUSH1 0x4 ADD SLOAD SWAP1 DUP1 PUSH1 0x5 ADD DUP1 SLOAD PUSH2 0x1217 SWAP1 PUSH2 0x33AD JUMP JUMPDEST DUP1 PUSH1 0x1F ADD PUSH1 0x20 DUP1 SWAP2 DIV MUL PUSH1 0x20 ADD PUSH1 0x40 MLOAD SWAP1 DUP2 ADD PUSH1 0x40 MSTORE DUP1 SWAP3 SWAP2 SWAP1 DUP2 DUP2 MSTORE PUSH1 0x20 ADD DUP3 DUP1 SLOAD PUSH2 0x1243 SWAP1 PUSH2 0x33AD JUMP JUMPDEST DUP1 ISZERO PUSH2 0x1290 JUMPI DUP1 PUSH1 0x1F LT PUSH2 0x1265 JUMPI PUSH2 0x100 DUP1 DUP4 SLOAD DIV MUL DUP4 MSTORE SWAP2 PUSH1 0x20 ADD SWAP2 PUSH2 0x1290 JUMP JUMPDEST DUP3 ADD SWAP2 SWAP1 PUSH1 0x0 MSTORE PUSH1 0x20 PUSH1 0x0 KECCAK256 SWAP1 JUMPDEST DUP2 SLOAD DUP2 MSTORE SWAP1 PUSH1 0x1 ADD SWAP1 PUSH1 0x20 ADD DUP1 DUP4 GT PUSH2 0x1273 JUMPI DUP3 SWAP1 SUB PUSH1 0x1F AND DUP3 ADD SWAP2 JUMPDEST POP POP POP POP POP SWAP1 DUP1 PUSH1 0x6 ADD PUSH1 0x0 SWAP1 SLOAD SWAP1 PUSH2 0x100 EXP SWAP1 DIV PUSH1 0xFF AND SWAP1 DUP1 PUSH1 0x7 ADD DUP1 SLOAD PUSH2 0x12B8 SWAP1 PUSH2 0x33AD JUMP JUMPDEST DUP1 PUSH1 0x1F ADD PUSH1 0x20 DUP1 SWAP2 DIV MUL PUSH1 0x20 ADD PUSH1 0x40 MLOAD SWAP1 DUP2 ADD PUSH1 0x40 MSTORE DUP1 SWAP3 SWAP2 SWAP1 DUP2 DUP2 MSTORE PUSH1 0x20 ADD DUP3 DUP1 SLOAD PUSH2 0x12E4 SWAP1 PUSH2 0x33AD JUMP JUMPDEST DUP1 ISZERO PUSH2 0x1331 JUMPI DUP1 PUSH1 0x1F LT PUSH2 0x1306 JUMPI PUSH2 0x100 DUP1 DUP4 SLOAD DIV MUL DUP4 MSTORE SWAP2 PUSH1 0x20 ADD SWAP2 PUSH2 0x1331 JUMP JUMPDEST DUP3 ADD SWAP2 SWAP1 PUSH1 0x0 MSTORE PUSH1 0x20 PUSH1 0x0 KECCAK256 SWAP1 JUMPDEST DUP2 SLOAD DUP2 MSTORE SWAP1 PUSH1 0x1 ADD SWAP1 PUSH1 0x20 ADD DUP1 DUP4 GT PUSH2 0x1314 JUMPI DUP3 SWAP1 SUB PUSH1 0x1F AND DUP3 ADD SWAP2 JUMPDEST POP POP POP POP POP SWAP1 POP DUP9 JUMP JUMPDEST PUSH1 0x1 DUP2 DUP2 SLOAD DUP2 LT PUSH2 0x134B JUMPI PUSH1 0x0 DUP1 REVERT JUMPDEST SWAP1 PUSH1 0x0 MSTORE PUSH1 0x20 PUSH1 0x0 KECCAK256 SWAP1 PUSH1 0x3 MUL ADD PUSH1 0x0 SWAP2 POP SWAP1 POP DUP1 PUSH1 0x0 ADD DUP1 SLOAD PUSH2 0x136E SWAP1 PUSH2 0x33AD JUMP JUMPDEST DUP1 PUSH1 0x1F ADD PUSH1 0x20 DUP1 SWAP2 DIV MUL PUSH1 0x20 ADD PUSH1 0x40 MLOAD SWAP1 DUP2 ADD PUSH1 0x40 MSTORE DUP1 SWAP3 SWAP2 SWAP1 DUP2 DUP2 MSTORE PUSH1 0x20 ADD DUP3 DUP1 SLOAD PUSH2 0x139A SWAP1 PUSH2 0x33AD JUMP JUMPDEST DUP1 ISZERO PUSH2 0x13E7 JUMPI DUP1 PUSH1 0x1F LT PUSH2 0x13BC JUMPI PUSH2 0x100 DUP1 DUP4 SLOAD DIV MUL DUP4 MSTORE SWAP2 PUSH1 0x20 ADD SWAP2 PUSH2 0x13E7 JUMP JUMPDEST DUP3 ADD SWAP2 SWAP1 PUSH1 0x0 MSTORE PUSH1 0x20 PUSH1 0x0 KECCAK256 SWAP1 JUMPDEST DUP2 SLOAD DUP2 MSTORE SWAP1 PUSH1 0x1 ADD SWAP1 PUSH1 0x20 ADD DUP1 DUP4 GT PUSH2 0x13CA JUMPI DUP3 SWAP1 SUB PUSH1 0x1F AND DUP3 ADD SWAP2 JUMPDEST POP POP POP POP POP SWAP1 DUP1 PUSH1 0x1 ADD PUSH1 0x0 SWAP1 SLOAD SWAP1 PUSH2 0x100 EXP SWAP1 DIV PUSH20 0xFFFFFFFFFFFFFFFFFFFFFFFFFFFFFFFFFFFFFFFF AND SWAP1 DUP1 PUSH1 0x2 ADD DUP1 SLOAD PUSH2 0x1422 SWAP1 PUSH2 0x33AD JUMP JUMPDEST DUP1 PUSH1 0x1F ADD PUSH1 0x20 DUP1 SWAP2 DIV MUL PUSH1 0x20 ADD PUSH1 0x40 MLOAD SWAP1 DUP2 ADD PUSH1 0x40 MSTORE DUP1 SWAP3 SWAP2 SWAP1 DUP2 DUP2 MSTORE PUSH1 0x20 ADD DUP3 DUP1 SLOAD PUSH2 0x144E SWAP1 PUSH2 0x33AD JUMP JUMPDEST DUP1 ISZERO PUSH2 0x149B JUMPI DUP1 PUSH1 0x1F LT PUSH2 0x1470 JUMPI PUSH2 0x100 DUP1 DUP4 SLOAD DIV MUL DUP4 MSTORE SWAP2 PUSH1 0x20 ADD SWAP2 PUSH2 0x149B JUMP JUMPDEST DUP3 ADD SWAP2 SWAP1 PUSH1 0x0 MSTORE PUSH1 0x20 PUSH1 0x0 KECCAK256 SWAP1 JUMPDEST DUP2 SLOAD DUP2 MSTORE SWAP1 PUSH1 0x1 ADD SWAP1 PUSH1 0x20 ADD DUP1 DUP4 GT PUSH2 0x147E JUMPI DUP3 SWAP1 SUB PUSH1 0x1F AND DUP3 ADD SWAP2 JUMPDEST POP POP POP POP POP SWAP1 POP DUP4 JUMP JUMPDEST PUSH1 0x0 SELFBALANCE SWAP1 POP SWAP1 JUMP JUMPDEST PUSH1 0x2 DUP2 DUP2 SLOAD DUP2 LT PUSH2 0x14BD JUMPI PUSH1 0x0 DUP1 REVERT JUMPDEST SWAP1 PUSH1 0x0 MSTORE PUSH1 0x20 PUSH1 0x0 KECCAK256 SWAP1 PUSH1 0x6 MUL ADD PUSH1 0x0 SWAP2 POP SWAP1 POP DUP1 PUSH1 0x0 ADD PUSH1 0x0 SWAP1 SLOAD SWAP1 PUSH2 0x100 EXP SWAP1 DIV PUSH20 0xFFFFFFFFFFFFFFFFFFFFFFFFFFFFFFFFFFFFFFFF AND SWAP1 DUP1 PUSH1 0x1 ADD PUSH1 0x0 SWAP1 SLOAD SWAP1 PUSH2 0x100 EXP SWAP1 DIV PUSH20 0xFFFFFFFFFFFFFFFFFFFFFFFFFFFFFFFFFFFFFFFF AND SWAP1 DUP1 PUSH1 0x2 ADD SLOAD SWAP1 DUP1 PUSH1 0x3 ADD SLOAD SWAP1 DUP1 PUSH1 0x4 ADD PUSH1 0x0 SWAP1 SLOAD SWAP1 PUSH2 0x100 EXP SWAP1 DIV PUSH1 0xFF AND SWAP1 DUP1 PUSH1 0x5 ADD SLOAD SWAP1 POP DUP7 JUMP JUMPDEST PUSH1 0x0 DUP1 PUSH1 0x0 JUMPDEST PUSH1 0x2 DUP1 SLOAD SWAP1 POP DUP2 LT ISZERO PUSH2 0x165B JUMPI CALLER PUSH20 0xFFFFFFFFFFFFFFFFFFFFFFFFFFFFFFFFFFFFFFFF AND PUSH1 0x2 DUP3 DUP2 SLOAD DUP2 LT PUSH2 0x1584 JUMPI PUSH2 0x1583 PUSH2 0x33DE JUMP JUMPDEST JUMPDEST SWAP1 PUSH1 0x0 MSTORE PUSH1 0x20 PUSH1 0x0 KECCAK256 SWAP1 PUSH1 0x6 MUL ADD PUSH1 0x1 ADD PUSH1 0x0 SWAP1 SLOAD SWAP1 PUSH2 0x100 EXP SWAP1 DIV PUSH20 0xFFFFFFFFFFFFFFFFFFFFFFFFFFFFFFFFFFFFFFFF AND PUSH20 0xFFFFFFFFFFFFFFFFFFFFFFFFFFFFFFFFFFFFFFFF AND EQ DUP1 ISZERO PUSH2 0x160F JUMPI POP PUSH1 0x0 ISZERO ISZERO PUSH1 0x2 DUP3 DUP2 SLOAD DUP2 LT PUSH2 0x15EC JUMPI PUSH2 0x15EB PUSH2 0x33DE JUMP JUMPDEST JUMPDEST SWAP1 PUSH1 0x0 MSTORE PUSH1 0x20 PUSH1 0x0 KECCAK256 SWAP1 PUSH1 0x6 MUL ADD PUSH1 0x4 ADD PUSH1 0x0 SWAP1 SLOAD SWAP1 PUSH2 0x100 EXP SWAP1 DIV PUSH1 0xFF AND ISZERO ISZERO EQ JUMPDEST ISZERO PUSH2 0x1648 JUMPI PUSH1 0x2 DUP2 DUP2 SLOAD DUP2 LT PUSH2 0x1628 JUMPI PUSH2 0x1627 PUSH2 0x33DE JUMP JUMPDEST JUMPDEST SWAP1 PUSH1 0x0 MSTORE PUSH1 0x20 PUSH1 0x0 KECCAK256 SWAP1 PUSH1 0x6 MUL ADD PUSH1 0x3 ADD SLOAD DUP3 PUSH2 0x1645 SWAP2 SWAP1 PUSH2 0x3702 JUMP JUMPDEST SWAP2 POP JUMPDEST DUP1 DUP1 PUSH2 0x1653 SWAP1 PUSH2 0x343C JUMP JUMPDEST SWAP2 POP POP PUSH2 0x154C JUMP JUMPDEST POP DUP1 SWAP2 POP POP SWAP1 JUMP JUMPDEST PUSH1 0x60 PUSH1 0x0 DUP1 JUMPDEST PUSH1 0x2 DUP1 SLOAD SWAP1 POP DUP2 LT ISZERO PUSH2 0x1710 JUMPI CALLER PUSH20 0xFFFFFFFFFFFFFFFFFFFFFFFFFFFFFFFFFFFFFFFF AND PUSH1 0x2 DUP3 DUP2 SLOAD DUP2 LT PUSH2 0x16A1 JUMPI PUSH2 0x16A0 PUSH2 0x33DE JUMP JUMPDEST JUMPDEST SWAP1 PUSH1 0x0 MSTORE PUSH1 0x20 PUSH1 0x0 KECCAK256 SWAP1 PUSH1 0x6 MUL ADD PUSH1 0x1 ADD PUSH1 0x0 SWAP1 SLOAD SWAP1 PUSH2 0x100 EXP SWAP1 DIV PUSH20 0xFFFFFFFFFFFFFFFFFFFFFFFFFFFFFFFFFFFFFFFF AND PUSH20 0xFFFFFFFFFFFFFFFFFFFFFFFFFFFFFFFFFFFFFFFF AND SUB PUSH2 0x16FD JUMPI DUP2 DUP1 PUSH2 0x16F9 SWAP1 PUSH2 0x343C JUMP JUMPDEST SWAP3 POP POP JUMPDEST DUP1 DUP1 PUSH2 0x1708 SWAP1 PUSH2 0x343C JUMP JUMPDEST SWAP2 POP POP PUSH2 0x1669 JUMP JUMPDEST POP PUSH1 0x0 DUP2 PUSH8 0xFFFFFFFFFFFFFFFF DUP2 GT ISZERO PUSH2 0x172D JUMPI PUSH2 0x172C PUSH2 0x2B75 JUMP JUMPDEST JUMPDEST PUSH1 0x40 MLOAD SWAP1 DUP1 DUP3 MSTORE DUP1 PUSH1 0x20 MUL PUSH1 0x20 ADD DUP3 ADD PUSH1 0x40 MSTORE DUP1 ISZERO PUSH2 0x1766 JUMPI DUP2 PUSH1 0x20 ADD JUMPDEST PUSH2 0x1753 PUSH2 0x27DA JUMP JUMPDEST DUP2 MSTORE PUSH1 0x20 ADD SWAP1 PUSH1 0x1 SWAP1 SUB SWAP1 DUP2 PUSH2 0x174B JUMPI SWAP1 POP JUMPDEST POP SWAP1 POP PUSH1 0x0 SWAP2 POP PUSH1 0x0 JUMPDEST PUSH1 0x2 DUP1 SLOAD SWAP1 POP DUP2 LT ISZERO PUSH2 0x1947 JUMPI CALLER PUSH20 0xFFFFFFFFFFFFFFFFFFFFFFFFFFFFFFFFFFFFFFFF AND PUSH1 0x2 DUP3 DUP2 SLOAD DUP2 LT PUSH2 0x17A8 JUMPI PUSH2 0x17A7 PUSH2 0x33DE JUMP JUMPDEST JUMPDEST SWAP1 PUSH1 0x0 MSTORE PUSH1 0x20 PUSH1 0x0 KECCAK256 SWAP1 PUSH1 0x6 MUL ADD PUSH1 0x1 ADD PUSH1 0x0 SWAP1 SLOAD SWAP1 PUSH2 0x100 EXP SWAP1 DIV PUSH20 0xFFFFFFFFFFFFFFFFFFFFFFFFFFFFFFFFFFFFFFFF AND PUSH20 0xFFFFFFFFFFFFFFFFFFFFFFFFFFFFFFFFFFFFFFFF AND SUB PUSH2 0x1934 JUMPI PUSH1 0x2 DUP2 DUP2 SLOAD DUP2 LT PUSH2 0x1809 JUMPI PUSH2 0x1808 PUSH2 0x33DE JUMP JUMPDEST JUMPDEST SWAP1 PUSH1 0x0 MSTORE PUSH1 0x20 PUSH1 0x0 KECCAK256 SWAP1 PUSH1 0x6 MUL ADD PUSH1 0x40 MLOAD DUP1 PUSH1 0xC0 ADD PUSH1 0x40 MSTORE SWAP1 DUP2 PUSH1 0x0 DUP3 ADD PUSH1 0x0 SWAP1 SLOAD SWAP1 PUSH2 0x100 EXP SWAP1 DIV PUSH20 0xFFFFFFFFFFFFFFFFFFFFFFFFFFFFFFFFFFFFFFFF AND PUSH20 0xFFFFFFFFFFFFFFFFFFFFFFFFFFFFFFFFFFFFFFFF AND PUSH20 0xFFFFFFFFFFFFFFFFFFFFFFFFFFFFFFFFFFFFFFFF AND DUP2 MSTORE PUSH1 0x20 ADD PUSH1 0x1 DUP3 ADD PUSH1 0x0 SWAP1 SLOAD SWAP1 PUSH2 0x100 EXP SWAP1 DIV PUSH20 0xFFFFFFFFFFFFFFFFFFFFFFFFFFFFFFFFFFFFFFFF AND PUSH20 0xFFFFFFFFFFFFFFFFFFFFFFFFFFFFFFFFFFFFFFFF AND PUSH20 0xFFFFFFFFFFFFFFFFFFFFFFFFFFFFFFFFFFFFFFFF AND DUP2 MSTORE PUSH1 0x20 ADD PUSH1 0x2 DUP3 ADD SLOAD DUP2 MSTORE PUSH1 0x20 ADD PUSH1 0x3 DUP3 ADD SLOAD DUP2 MSTORE PUSH1 0x20 ADD PUSH1 0x4 DUP3 ADD PUSH1 0x0 SWAP1 SLOAD SWAP1 PUSH2 0x100 EXP SWAP1 DIV PUSH1 0xFF AND ISZERO ISZERO ISZERO ISZERO DUP2 MSTORE PUSH1 0x20 ADD PUSH1 0x5 DUP3 ADD SLOAD DUP2 MSTORE POP POP DUP3 DUP5 DUP2 MLOAD DUP2 LT PUSH2 0x191A JUMPI PUSH2 0x1919 PUSH2 0x33DE JUMP JUMPDEST JUMPDEST PUSH1 0x20 MUL PUSH1 0x20 ADD ADD DUP2 SWAP1 MSTORE POP DUP3 DUP1 PUSH2 0x1930 SWAP1 PUSH2 0x343C JUMP JUMPDEST SWAP4 POP POP JUMPDEST DUP1 DUP1 PUSH2 0x193F SWAP1 PUSH2 0x343C JUMP JUMPDEST SWAP2 POP POP PUSH2 0x1770 JUMP JUMPDEST POP DUP1 SWAP3 POP POP POP SWAP1 JUMP JUMPDEST PUSH2 0x1958 PUSH2 0x277D JUMP JUMPDEST PUSH2 0x1960 PUSH2 0x277D JUMP JUMPDEST PUSH1 0x0 JUMPDEST PUSH1 0x0 DUP1 SLOAD SWAP1 POP DUP2 LT ISZERO PUSH2 0x1CAD JUMPI DUP4 PUSH1 0x0 DUP3 DUP2 SLOAD DUP2 LT PUSH2 0x1985 JUMPI PUSH2 0x1984 PUSH2 0x33DE JUMP JUMPDEST JUMPDEST SWAP1 PUSH1 0x0 MSTORE PUSH1 0x20 PUSH1 0x0 KECCAK256 SWAP1 PUSH1 0x8 MUL ADD PUSH1 0x0 ADD SLOAD SUB PUSH2 0x1C9A JUMPI PUSH1 0x0 DUP2 DUP2 SLOAD DUP2 LT PUSH2 0x19B0 JUMPI PUSH2 0x19AF PUSH2 0x33DE JUMP JUMPDEST JUMPDEST SWAP1 PUSH1 0x0 MSTORE PUSH1 0x20 PUSH1 0x0 KECCAK256 SWAP1 PUSH1 0x8 MUL ADD PUSH1 0x40 MLOAD DUP1 PUSH2 0x100 ADD PUSH1 0x40 MSTORE SWAP1 DUP2 PUSH1 0x0 DUP3 ADD SLOAD DUP2 MSTORE PUSH1 0x20 ADD PUSH1 0x1 DUP3 ADD PUSH1 0x0 SWAP1 SLOAD SWAP1 PUSH2 0x100 EXP SWAP1 DIV PUSH20 0xFFFFFFFFFFFFFFFFFFFFFFFFFFFFFFFFFFFFFFFF AND PUSH20 0xFFFFFFFFFFFFFFFFFFFFFFFFFFFFFFFFFFFFFFFF AND PUSH20 0xFFFFFFFFFFFFFFFFFFFFFFFFFFFFFFFFFFFFFFFF AND DUP2 MSTORE PUSH1 0x20 ADD PUSH1 0x2 DUP3 ADD DUP1 SLOAD PUSH2 0x1A3A SWAP1 PUSH2 0x33AD JUMP JUMPDEST DUP1 PUSH1 0x1F ADD PUSH1 0x20 DUP1 SWAP2 DIV MUL PUSH1 0x20 ADD PUSH1 0x40 MLOAD SWAP1 DUP2 ADD PUSH1 0x40 MSTORE DUP1 SWAP3 SWAP2 SWAP1 DUP2 DUP2 MSTORE PUSH1 0x20 ADD DUP3 DUP1 SLOAD PUSH2 0x1A66 SWAP1 PUSH2 0x33AD JUMP JUMPDEST DUP1 ISZERO PUSH2 0x1AB3 JUMPI DUP1 PUSH1 0x1F LT PUSH2 0x1A88 JUMPI PUSH2 0x100 DUP1 DUP4 SLOAD DIV MUL DUP4 MSTORE SWAP2 PUSH1 0x20 ADD SWAP2 PUSH2 0x1AB3 JUMP JUMPDEST DUP3 ADD SWAP2 SWAP1 PUSH1 0x0 MSTORE PUSH1 0x20 PUSH1 0x0 KECCAK256 SWAP1 JUMPDEST DUP2 SLOAD DUP2 MSTORE SWAP1 PUSH1 0x1 ADD SWAP1 PUSH1 0x20 ADD DUP1 DUP4 GT PUSH2 0x1A96 JUMPI DUP3 SWAP1 SUB PUSH1 0x1F AND DUP3 ADD SWAP2 JUMPDEST POP POP POP POP POP DUP2 MSTORE PUSH1 0x20 ADD PUSH1 0x3 DUP3 ADD DUP1 SLOAD PUSH2 0x1ACC SWAP1 PUSH2 0x33AD JUMP JUMPDEST DUP1 PUSH1 0x1F ADD PUSH1 0x20 DUP1 SWAP2 DIV MUL PUSH1 0x20 ADD PUSH1 0x40 MLOAD SWAP1 DUP2 ADD PUSH1 0x40 MSTORE DUP1 SWAP3 SWAP2 SWAP1 DUP2 DUP2 MSTORE PUSH1 0x20 ADD DUP3 DUP1 SLOAD PUSH2 0x1AF8 SWAP1 PUSH2 0x33AD JUMP JUMPDEST DUP1 ISZERO PUSH2 0x1B45 JUMPI DUP1 PUSH1 0x1F LT PUSH2 0x1B1A JUMPI PUSH2 0x100 DUP1 DUP4 SLOAD DIV MUL DUP4 MSTORE SWAP2 PUSH1 0x20 ADD SWAP2 PUSH2 0x1B45 JUMP JUMPDEST DUP3 ADD SWAP2 SWAP1 PUSH1 0x0 MSTORE PUSH1 0x20 PUSH1 0x0 KECCAK256 SWAP1 JUMPDEST DUP2 SLOAD DUP2 MSTORE SWAP1 PUSH1 0x1 ADD SWAP1 PUSH1 0x20 ADD DUP1 DUP4 GT PUSH2 0x1B28 JUMPI DUP3 SWAP1 SUB PUSH1 0x1F AND DUP3 ADD SWAP2 JUMPDEST POP POP POP POP POP DUP2 MSTORE PUSH1 0x20 ADD PUSH1 0x4 DUP3 ADD SLOAD DUP2 MSTORE PUSH1 0x20 ADD PUSH1 0x5 DUP3 ADD DUP1 SLOAD PUSH2 0x1B68 SWAP1 PUSH2 0x33AD JUMP JUMPDEST DUP1 PUSH1 0x1F ADD PUSH1 0x20 DUP1 SWAP2 DIV MUL PUSH1 0x20 ADD PUSH1 0x40 MLOAD SWAP1 DUP2 ADD PUSH1 0x40 MSTORE DUP1 SWAP3 SWAP2 SWAP1 DUP2 DUP2 MSTORE PUSH1 0x20 ADD DUP3 DUP1 SLOAD PUSH2 0x1B94 SWAP1 PUSH2 0x33AD JUMP JUMPDEST DUP1 ISZERO PUSH2 0x1BE1 JUMPI DUP1 PUSH1 0x1F LT PUSH2 0x1BB6 JUMPI PUSH2 0x100 DUP1 DUP4 SLOAD DIV MUL DUP4 MSTORE SWAP2 PUSH1 0x20 ADD SWAP2 PUSH2 0x1BE1 JUMP JUMPDEST DUP3 ADD SWAP2 SWAP1 PUSH1 0x0 MSTORE PUSH1 0x20 PUSH1 0x0 KECCAK256 SWAP1 JUMPDEST DUP2 SLOAD DUP2 MSTORE SWAP1 PUSH1 0x1 ADD SWAP1 PUSH1 0x20 ADD DUP1 DUP4 GT PUSH2 0x1BC4 JUMPI DUP3 SWAP1 SUB PUSH1 0x1F AND DUP3 ADD SWAP2 JUMPDEST POP POP POP POP POP DUP2 MSTORE PUSH1 0x20 ADD PUSH1 0x6 DUP3 ADD PUSH1 0x0 SWAP1 SLOAD SWAP1 PUSH2 0x100 EXP SWAP1 DIV PUSH1 0xFF AND ISZERO ISZERO ISZERO ISZERO DUP2 MSTORE PUSH1 0x20 ADD PUSH1 0x7 DUP3 ADD DUP1 SLOAD PUSH2 0x1C15 SWAP1 PUSH2 0x33AD JUMP JUMPDEST DUP1 PUSH1 0x1F ADD PUSH1 0x20 DUP1 SWAP2 DIV MUL PUSH1 0x20 ADD PUSH1 0x40 MLOAD SWAP1 DUP2 ADD PUSH1 0x40 MSTORE DUP1 SWAP3 SWAP2 SWAP1 DUP2 DUP2 MSTORE PUSH1 0x20 ADD DUP3 DUP1 SLOAD PUSH2 0x1C41 SWAP1 PUSH2 0x33AD JUMP JUMPDEST DUP1 ISZERO PUSH2 0x1C8E JUMPI DUP1 PUSH1 0x1F LT PUSH2 0x1C63 JUMPI PUSH2 0x100 DUP1 DUP4 SLOAD DIV MUL DUP4 MSTORE SWAP2 PUSH1 0x20 ADD SWAP2 PUSH2 0x1C8E JUMP JUMPDEST DUP3 ADD SWAP2 SWAP1 PUSH1 0x0 MSTORE PUSH1 0x20 PUSH1 0x0 KECCAK256 SWAP1 JUMPDEST DUP2 SLOAD DUP2 MSTORE SWAP1 PUSH1 0x1 ADD SWAP1 PUSH1 0x20 ADD DUP1 DUP4 GT PUSH2 0x1C71 JUMPI DUP3 SWAP1 SUB PUSH1 0x1F AND DUP3 ADD SWAP2 JUMPDEST POP POP POP POP POP DUP2 MSTORE POP POP SWAP2 POP JUMPDEST DUP1 DUP1 PUSH2 0x1CA5 SWAP1 PUSH2 0x343C JUMP JUMPDEST SWAP2 POP POP PUSH2 0x1963 JUMP JUMPDEST POP DUP1 SWAP2 POP POP SWAP2 SWAP1 POP JUMP JUMPDEST PUSH1 0x0 DUP2 PUSH1 0x40 MLOAD PUSH1 0x20 ADD PUSH2 0x1CCA SWAP2 SWAP1 PUSH2 0x3772 JUMP JUMPDEST PUSH1 0x40 MLOAD PUSH1 0x20 DUP2 DUP4 SUB SUB DUP2 MSTORE SWAP1 PUSH1 0x40 MSTORE DUP1 MLOAD SWAP1 PUSH1 0x20 ADD KECCAK256 DUP4 PUSH1 0x40 MLOAD PUSH1 0x20 ADD PUSH2 0x1CF1 SWAP2 SWAP1 PUSH2 0x3772 JUMP JUMPDEST PUSH1 0x40 MLOAD PUSH1 0x20 DUP2 DUP4 SUB SUB DUP2 MSTORE SWAP1 PUSH1 0x40 MSTORE DUP1 MLOAD SWAP1 PUSH1 0x20 ADD KECCAK256 EQ SWAP1 POP SWAP3 SWAP2 POP POP JUMP JUMPDEST PUSH1 0x60 PUSH1 0x2 DUP1 SLOAD DUP1 PUSH1 0x20 MUL PUSH1 0x20 ADD PUSH1 0x40 MLOAD SWAP1 DUP2 ADD PUSH1 0x40 MSTORE DUP1 SWAP3 SWAP2 SWAP1 DUP2 DUP2 MSTORE PUSH1 0x20 ADD PUSH1 0x0 SWAP1 JUMPDEST DUP3 DUP3 LT ISZERO PUSH2 0x1E4B JUMPI DUP4 DUP3 SWAP1 PUSH1 0x0 MSTORE PUSH1 0x20 PUSH1 0x0 KECCAK256 SWAP1 PUSH1 0x6 MUL ADD PUSH1 0x40 MLOAD DUP1 PUSH1 0xC0 ADD PUSH1 0x40 MSTORE SWAP1 DUP2 PUSH1 0x0 DUP3 ADD PUSH1 0x0 SWAP1 SLOAD SWAP1 PUSH2 0x100 EXP SWAP1 DIV PUSH20 0xFFFFFFFFFFFFFFFFFFFFFFFFFFFFFFFFFFFFFFFF AND PUSH20 0xFFFFFFFFFFFFFFFFFFFFFFFFFFFFFFFFFFFFFFFF AND PUSH20 0xFFFFFFFFFFFFFFFFFFFFFFFFFFFFFFFFFFFFFFFF AND DUP2 MSTORE PUSH1 0x20 ADD PUSH1 0x1 DUP3 ADD PUSH1 0x0 SWAP1 SLOAD SWAP1 PUSH2 0x100 EXP SWAP1 DIV PUSH20 0xFFFFFFFFFFFFFFFFFFFFFFFFFFFFFFFFFFFFFFFF AND PUSH20 0xFFFFFFFFFFFFFFFFFFFFFFFFFFFFFFFFFFFFFFFF AND PUSH20 0xFFFFFFFFFFFFFFFFFFFFFFFFFFFFFFFFFFFFFFFF AND DUP2 MSTORE PUSH1 0x20 ADD PUSH1 0x2 DUP3 ADD SLOAD DUP2 MSTORE PUSH1 0x20 ADD PUSH1 0x3 DUP3 ADD SLOAD DUP2 MSTORE PUSH1 0x20 ADD PUSH1 0x4 DUP3 ADD PUSH1 0x0 SWAP1 SLOAD SWAP1 PUSH2 0x100 EXP SWAP1 DIV PUSH1 0xFF AND ISZERO ISZERO ISZERO ISZERO DUP2 MSTORE PUSH1 0x20 ADD PUSH1 0x5 DUP3 ADD SLOAD DUP2 MSTORE POP POP DUP2 MSTORE PUSH1 0x20 ADD SWAP1 PUSH1 0x1 ADD SWAP1 PUSH2 0x1D34 JUMP JUMPDEST POP POP POP POP SWAP1 POP SWAP1 JUMP JUMPDEST PUSH1 0x0 PUSH2 0x1E5F DUP3 PUSH2 0x1950 JUMP JUMPDEST SWAP1 POP PUSH1 0x2 PUSH1 0x40 MLOAD DUP1 PUSH1 0xC0 ADD PUSH1 0x40 MSTORE DUP1 CALLER PUSH20 0xFFFFFFFFFFFFFFFFFFFFFFFFFFFFFFFFFFFFFFFF AND DUP2 MSTORE PUSH1 0x20 ADD DUP4 PUSH1 0x20 ADD MLOAD PUSH20 0xFFFFFFFFFFFFFFFFFFFFFFFFFFFFFFFFFFFFFFFF AND DUP2 MSTORE PUSH1 0x20 ADD DUP5 DUP2 MSTORE PUSH1 0x20 ADD CALLVALUE DUP2 MSTORE PUSH1 0x20 ADD PUSH1 0x0 ISZERO ISZERO DUP2 MSTORE PUSH1 0x20 ADD PUSH2 0x1EC9 PUSH1 0x4 PUSH2 0x266A JUMP JUMPDEST DUP2 MSTORE POP SWAP1 DUP1 PUSH1 0x1 DUP2 SLOAD ADD DUP1 DUP3 SSTORE DUP1 SWAP2 POP POP PUSH1 0x1 SWAP1 SUB SWAP1 PUSH1 0x0 MSTORE PUSH1 0x20 PUSH1 0x0 KECCAK256 SWAP1 PUSH1 0x6 MUL ADD PUSH1 0x0 SWAP1 SWAP2 SWAP1 SWAP2 SWAP1 SWAP2 POP PUSH1 0x0 DUP3 ADD MLOAD DUP2 PUSH1 0x0 ADD PUSH1 0x0 PUSH2 0x100 EXP DUP2 SLOAD DUP2 PUSH20 0xFFFFFFFFFFFFFFFFFFFFFFFFFFFFFFFFFFFFFFFF MUL NOT AND SWAP1 DUP4 PUSH20 0xFFFFFFFFFFFFFFFFFFFFFFFFFFFFFFFFFFFFFFFF AND MUL OR SWAP1 SSTORE POP PUSH1 0x20 DUP3 ADD MLOAD DUP2 PUSH1 0x1 ADD PUSH1 0x0 PUSH2 0x100 EXP DUP2 SLOAD DUP2 PUSH20 0xFFFFFFFFFFFFFFFFFFFFFFFFFFFFFFFFFFFFFFFF MUL NOT AND SWAP1 DUP4 PUSH20 0xFFFFFFFFFFFFFFFFFFFFFFFFFFFFFFFFFFFFFFFF AND MUL OR SWAP1 SSTORE POP PUSH1 0x40 DUP3 ADD MLOAD DUP2 PUSH1 0x2 ADD SSTORE PUSH1 0x60 DUP3 ADD MLOAD DUP2 PUSH1 0x3 ADD SSTORE PUSH1 0x80 DUP3 ADD MLOAD DUP2 PUSH1 0x4 ADD PUSH1 0x0 PUSH2 0x100 EXP DUP2 SLOAD DUP2 PUSH1 0xFF MUL NOT AND SWAP1 DUP4 ISZERO ISZERO MUL OR SWAP1 SSTORE POP PUSH1 0xA0 DUP3 ADD MLOAD DUP2 PUSH1 0x5 ADD SSTORE POP POP PUSH2 0x1FCD PUSH1 0x4 PUSH2 0x2678 JUMP JUMPDEST POP POP JUMP JUMPDEST PUSH1 0x0 DUP1 PUSH2 0x1FDD CALLER PUSH2 0x268E JUMP JUMPDEST SWAP1 POP PUSH1 0x0 JUMPDEST PUSH1 0x1 DUP1 SLOAD SWAP1 POP DUP2 LT ISZERO PUSH2 0x20D5 JUMPI PUSH2 0x20A6 PUSH1 0x1 DUP3 DUP2 SLOAD DUP2 LT PUSH2 0x2006 JUMPI PUSH2 0x2005 PUSH2 0x33DE JUMP JUMPDEST JUMPDEST SWAP1 PUSH1 0x0 MSTORE PUSH1 0x20 PUSH1 0x0 KECCAK256 SWAP1 PUSH1 0x3 MUL ADD PUSH1 0x0 ADD DUP1 SLOAD PUSH2 0x2022 SWAP1 PUSH2 0x33AD JUMP JUMPDEST DUP1 PUSH1 0x1F ADD PUSH1 0x20 DUP1 SWAP2 DIV MUL PUSH1 0x20 ADD PUSH1 0x40 MLOAD SWAP1 DUP2 ADD PUSH1 0x40 MSTORE DUP1 SWAP3 SWAP2 SWAP1 DUP2 DUP2 MSTORE PUSH1 0x20 ADD DUP3 DUP1 SLOAD PUSH2 0x204E SWAP1 PUSH2 0x33AD JUMP JUMPDEST DUP1 ISZERO PUSH2 0x209B JUMPI DUP1 PUSH1 0x1F LT PUSH2 0x2070 JUMPI PUSH2 0x100 DUP1 DUP4 SLOAD DIV MUL DUP4 MSTORE SWAP2 PUSH1 0x20 ADD SWAP2 PUSH2 0x209B JUMP JUMPDEST DUP3 ADD SWAP2 SWAP1 PUSH1 0x0 MSTORE PUSH1 0x20 PUSH1 0x0 KECCAK256 SWAP1 JUMPDEST DUP2 SLOAD DUP2 MSTORE SWAP1 PUSH1 0x1 ADD SWAP1 PUSH1 0x20 ADD DUP1 DUP4 GT PUSH2 0x207E JUMPI DUP3 SWAP1 SUB PUSH1 0x1F AND DUP3 ADD SWAP2 JUMPDEST POP POP POP POP POP DUP6 PUSH2 0x1CB7 JUMP JUMPDEST DUP1 ISZERO PUSH2 0x20B2 JUMPI POP DUP2 DUP2 EQ ISZERO JUMPDEST ISZERO PUSH2 0x20C2 JUMPI PUSH1 0x0 SWAP3 POP POP POP PUSH2 0x210F JUMP JUMPDEST DUP1 DUP1 PUSH2 0x20CD SWAP1 PUSH2 0x343C JUMP JUMPDEST SWAP2 POP POP PUSH2 0x1FE2 JUMP JUMPDEST POP DUP3 PUSH1 0x1 DUP3 DUP2 SLOAD DUP2 LT PUSH2 0x20EB JUMPI PUSH2 0x20EA PUSH2 0x33DE JUMP JUMPDEST JUMPDEST SWAP1 PUSH1 0x0 MSTORE PUSH1 0x20 PUSH1 0x0 KECCAK256 SWAP1 PUSH1 0x3 MUL ADD PUSH1 0x0 ADD SWAP1 DUP2 PUSH2 0x2108 SWAP2 SWAP1 PUSH2 0x3630 JUMP JUMPDEST POP PUSH1 0x1 SWAP2 POP POP JUMPDEST SWAP2 SWAP1 POP JUMP JUMPDEST PUSH1 0x0 PUSH2 0x211F CALLER PUSH2 0x268E JUMP JUMPDEST SWAP1 POP DUP2 PUSH1 0x1 DUP3 DUP2 SLOAD DUP2 LT PUSH2 0x2136 JUMPI PUSH2 0x2135 PUSH2 0x33DE JUMP JUMPDEST JUMPDEST SWAP1 PUSH1 0x0 MSTORE PUSH1 0x20 PUSH1 0x0 KECCAK256 SWAP1 PUSH1 0x3 MUL ADD PUSH1 0x2 ADD SWAP1 DUP2 PUSH2 0x2153 SWAP2 SWAP1 PUSH2 0x3630 JUMP JUMPDEST POP POP POP JUMP JUMPDEST PUSH1 0x0 PUSH1 0x2 DUP1 SLOAD SWAP1 POP SWAP1 POP PUSH1 0x0 JUMPDEST PUSH1 0x2 DUP1 SLOAD SWAP1 POP DUP2 LT ISZERO PUSH2 0x21BD JUMPI DUP3 PUSH1 0x2 DUP3 DUP2 SLOAD DUP2 LT PUSH2 0x2187 JUMPI PUSH2 0x2186 PUSH2 0x33DE JUMP JUMPDEST JUMPDEST SWAP1 PUSH1 0x0 MSTORE PUSH1 0x20 PUSH1 0x0 KECCAK256 SWAP1 PUSH1 0x6 MUL ADD PUSH1 0x5 ADD SLOAD SUB PUSH2 0x21AA JUMPI DUP1 SWAP2 POP PUSH1 0x2 DUP1 SLOAD SWAP1 POP SWAP1 POP JUMPDEST DUP1 DUP1 PUSH2 0x21B5 SWAP1 PUSH2 0x343C JUMP JUMPDEST SWAP2 POP POP PUSH2 0x2165 JUMP JUMPDEST POP PUSH1 0x2 DUP1 SLOAD SWAP1 POP DUP2 LT PUSH2 0x21CF JUMPI PUSH1 0x0 DUP1 REVERT JUMPDEST DUP3 PUSH20 0xFFFFFFFFFFFFFFFFFFFFFFFFFFFFFFFFFFFFFFFF AND PUSH1 0x2 DUP3 DUP2 SLOAD DUP2 LT PUSH2 0x21FA JUMPI PUSH2 0x21F9 PUSH2 0x33DE JUMP JUMPDEST JUMPDEST SWAP1 PUSH1 0x0 MSTORE PUSH1 0x20 PUSH1 0x0 KECCAK256 SWAP1 PUSH1 0x6 MUL ADD PUSH1 0x1 ADD PUSH1 0x0 SWAP1 SLOAD SWAP1 PUSH2 0x100 EXP SWAP1 DIV PUSH20 0xFFFFFFFFFFFFFFFFFFFFFFFFFFFFFFFFFFFFFFFF AND PUSH20 0xFFFFFFFFFFFFFFFFFFFFFFFFFFFFFFFFFFFFFFFF AND EQ DUP1 ISZERO PUSH2 0x2285 JUMPI POP PUSH1 0x0 ISZERO ISZERO PUSH1 0x2 DUP4 DUP2 SLOAD DUP2 LT PUSH2 0x2262 JUMPI PUSH2 0x2261 PUSH2 0x33DE JUMP JUMPDEST JUMPDEST SWAP1 PUSH1 0x0 MSTORE PUSH1 0x20 PUSH1 0x0 KECCAK256 SWAP1 PUSH1 0x6 MUL ADD PUSH1 0x4 ADD PUSH1 0x0 SWAP1 SLOAD SWAP1 PUSH2 0x100 EXP SWAP1 DIV PUSH1 0xFF AND ISZERO ISZERO EQ JUMPDEST PUSH2 0x228E JUMPI PUSH1 0x0 DUP1 REVERT JUMPDEST DUP3 PUSH20 0xFFFFFFFFFFFFFFFFFFFFFFFFFFFFFFFFFFFFFFFF AND PUSH2 0x8FC PUSH1 0x2 DUP5 DUP2 SLOAD DUP2 LT PUSH2 0x22BC JUMPI PUSH2 0x22BB PUSH2 0x33DE JUMP JUMPDEST JUMPDEST SWAP1 PUSH1 0x0 MSTORE PUSH1 0x20 PUSH1 0x0 KECCAK256 SWAP1 PUSH1 0x6 MUL ADD PUSH1 0x3 ADD SLOAD SWAP1 DUP2 ISZERO MUL SWAP1 PUSH1 0x40 MLOAD PUSH1 0x0 PUSH1 0x40 MLOAD DUP1 DUP4 SUB DUP2 DUP6 DUP9 DUP9 CALL SWAP4 POP POP POP POP ISZERO DUP1 ISZERO PUSH2 0x22F9 JUMPI RETURNDATASIZE PUSH1 0x0 DUP1 RETURNDATACOPY RETURNDATASIZE PUSH1 0x0 REVERT JUMPDEST POP PUSH1 0x1 PUSH1 0x2 DUP4 DUP2 SLOAD DUP2 LT PUSH2 0x2310 JUMPI PUSH2 0x230F PUSH2 0x33DE JUMP JUMPDEST JUMPDEST SWAP1 PUSH1 0x0 MSTORE PUSH1 0x20 PUSH1 0x0 KECCAK256 SWAP1 PUSH1 0x6 MUL ADD PUSH1 0x4 ADD PUSH1 0x0 PUSH2 0x100 EXP DUP2 SLOAD DUP2 PUSH1 0xFF MUL NOT AND SWAP1 DUP4 ISZERO ISZERO MUL OR SWAP1 SSTORE POP POP POP POP JUMP JUMPDEST PUSH1 0x0 DUP2 PUSH1 0x0 ADD DUP2 SWAP1 SSTORE POP POP JUMP JUMPDEST PUSH2 0x2352 PUSH2 0x2746 JUMP JUMPDEST PUSH1 0x0 JUMPDEST PUSH1 0x1 DUP1 SLOAD SWAP1 POP DUP2 LT ISZERO PUSH2 0x259C JUMPI DUP3 PUSH20 0xFFFFFFFFFFFFFFFFFFFFFFFFFFFFFFFFFFFFFFFF AND PUSH1 0x1 DUP3 DUP2 SLOAD DUP2 LT PUSH2 0x238D JUMPI PUSH2 0x238C PUSH2 0x33DE JUMP JUMPDEST JUMPDEST SWAP1 PUSH1 0x0 MSTORE PUSH1 0x20 PUSH1 0x0 KECCAK256 SWAP1 PUSH1 0x3 MUL ADD PUSH1 0x1 ADD PUSH1 0x0 SWAP1 SLOAD SWAP1 PUSH2 0x100 EXP SWAP1 DIV PUSH20 0xFFFFFFFFFFFFFFFFFFFFFFFFFFFFFFFFFFFFFFFF AND PUSH20 0xFFFFFFFFFFFFFFFFFFFFFFFFFFFFFFFFFFFFFFFF AND SUB PUSH2 0x2589 JUMPI PUSH1 0x1 DUP2 DUP2 SLOAD DUP2 LT PUSH2 0x23EE JUMPI PUSH2 0x23ED PUSH2 0x33DE JUMP JUMPDEST JUMPDEST SWAP1 PUSH1 0x0 MSTORE PUSH1 0x20 PUSH1 0x0 KECCAK256 SWAP1 PUSH1 0x3 MUL ADD PUSH1 0x40 MLOAD DUP1 PUSH1 0x60 ADD PUSH1 0x40 MSTORE SWAP1 DUP2 PUSH1 0x0 DUP3 ADD DUP1 SLOAD PUSH2 0x2417 SWAP1 PUSH2 0x33AD JUMP JUMPDEST DUP1 PUSH1 0x1F ADD PUSH1 0x20 DUP1 SWAP2 DIV MUL PUSH1 0x20 ADD PUSH1 0x40 MLOAD SWAP1 DUP2 ADD PUSH1 0x40 MSTORE DUP1 SWAP3 SWAP2 SWAP1 DUP2 DUP2 MSTORE PUSH1 0x20 ADD DUP3 DUP1 SLOAD PUSH2 0x2443 SWAP1 PUSH2 0x33AD JUMP JUMPDEST DUP1 ISZERO PUSH2 0x2490 JUMPI DUP1 PUSH1 0x1F LT PUSH2 0x2465 JUMPI PUSH2 0x100 DUP1 DUP4 SLOAD DIV MUL DUP4 MSTORE SWAP2 PUSH1 0x20 ADD SWAP2 PUSH2 0x2490 JUMP JUMPDEST DUP3 ADD SWAP2 SWAP1 PUSH1 0x0 MSTORE PUSH1 0x20 PUSH1 0x0 KECCAK256 SWAP1 JUMPDEST DUP2 SLOAD DUP2 MSTORE SWAP1 PUSH1 0x1 ADD SWAP1 PUSH1 0x20 ADD DUP1 DUP4 GT PUSH2 0x2473 JUMPI DUP3 SWAP1 SUB PUSH1 0x1F AND DUP3 ADD SWAP2 JUMPDEST POP POP POP POP POP DUP2 MSTORE PUSH1 0x20 ADD PUSH1 0x1 DUP3 ADD PUSH1 0x0 SWAP1 SLOAD SWAP1 PUSH2 0x100 EXP SWAP1 DIV PUSH20 0xFFFFFFFFFFFFFFFFFFFFFFFFFFFFFFFFFFFFFFFF AND PUSH20 0xFFFFFFFFFFFFFFFFFFFFFFFFFFFFFFFFFFFFFFFF AND PUSH20 0xFFFFFFFFFFFFFFFFFFFFFFFFFFFFFFFFFFFFFFFF AND DUP2 MSTORE PUSH1 0x20 ADD PUSH1 0x2 DUP3 ADD DUP1 SLOAD PUSH2 0x24FF SWAP1 PUSH2 0x33AD JUMP JUMPDEST DUP1 PUSH1 0x1F ADD PUSH1 0x20 DUP1 SWAP2 DIV MUL PUSH1 0x20 ADD PUSH1 0x40 MLOAD SWAP1 DUP2 ADD PUSH1 0x40 MSTORE DUP1 SWAP3 SWAP2 SWAP1 DUP2 DUP2 MSTORE PUSH1 0x20 ADD DUP3 DUP1 SLOAD PUSH2 0x252B SWAP1 PUSH2 0x33AD JUMP JUMPDEST DUP1 ISZERO PUSH2 0x2578 JUMPI DUP1 PUSH1 0x1F LT PUSH2 0x254D JUMPI PUSH2 0x100 DUP1 DUP4 SLOAD DIV MUL DUP4 MSTORE SWAP2 PUSH1 0x20 ADD SWAP2 PUSH2 0x2578 JUMP JUMPDEST DUP3 ADD SWAP2 SWAP1 PUSH1 0x0 MSTORE PUSH1 0x20 PUSH1 0x0 KECCAK256 SWAP1 JUMPDEST DUP2 SLOAD DUP2 MSTORE SWAP1 PUSH1 0x1 ADD SWAP1 PUSH1 0x20 ADD DUP1 DUP4 GT PUSH2 0x255B JUMPI DUP3 SWAP1 SUB PUSH1 0x1F AND DUP3 ADD SWAP2 JUMPDEST POP POP POP POP POP DUP2 MSTORE POP POP SWAP2 POP POP PUSH2 0x25AA JUMP JUMPDEST DUP1 DUP1 PUSH2 0x2594 SWAP1 PUSH2 0x343C JUMP JUMPDEST SWAP2 POP POP PUSH2 0x2355 JUMP JUMPDEST POP PUSH2 0x25A5 PUSH2 0x2746 JUMP JUMPDEST DUP1 SWAP2 POP POP JUMPDEST SWAP2 SWAP1 POP JUMP JUMPDEST PUSH1 0x0 DUP1 PUSH1 0x0 SWAP1 POP PUSH1 0x0 JUMPDEST PUSH1 0x0 DUP1 SLOAD SWAP1 POP DUP2 LT ISZERO PUSH2 0x2660 JUMPI DUP4 PUSH20 0xFFFFFFFFFFFFFFFFFFFFFFFFFFFFFFFFFFFFFFFF AND PUSH1 0x0 DUP3 DUP2 SLOAD DUP2 LT PUSH2 0x25F1 JUMPI PUSH2 0x25F0 PUSH2 0x33DE JUMP JUMPDEST JUMPDEST SWAP1 PUSH1 0x0 MSTORE PUSH1 0x20 PUSH1 0x0 KECCAK256 SWAP1 PUSH1 0x8 MUL ADD PUSH1 0x1 ADD PUSH1 0x0 SWAP1 SLOAD SWAP1 PUSH2 0x100 EXP SWAP1 DIV PUSH20 0xFFFFFFFFFFFFFFFFFFFFFFFFFFFFFFFFFFFFFFFF AND PUSH20 0xFFFFFFFFFFFFFFFFFFFFFFFFFFFFFFFFFFFFFFFF AND SUB PUSH2 0x264D JUMPI DUP2 DUP1 PUSH2 0x2649 SWAP1 PUSH2 0x343C JUMP JUMPDEST SWAP3 POP POP JUMPDEST DUP1 DUP1 PUSH2 0x2658 SWAP1 PUSH2 0x343C JUMP JUMPDEST SWAP2 POP POP PUSH2 0x25B9 JUMP JUMPDEST POP DUP1 SWAP2 POP POP SWAP2 SWAP1 POP JUMP JUMPDEST PUSH1 0x0 DUP2 PUSH1 0x0 ADD SLOAD SWAP1 POP SWAP2 SWAP1 POP JUMP JUMPDEST PUSH1 0x1 DUP2 PUSH1 0x0 ADD PUSH1 0x0 DUP3 DUP3 SLOAD ADD SWAP3 POP POP DUP2 SWAP1 SSTORE POP POP JUMP JUMPDEST PUSH1 0x0 DUP1 PUSH1 0x0 SWAP1 POP JUMPDEST PUSH1 0x1 DUP1 SLOAD SWAP1 POP DUP2 LT ISZERO PUSH2 0x2737 JUMPI DUP3 PUSH20 0xFFFFFFFFFFFFFFFFFFFFFFFFFFFFFFFFFFFFFFFF AND PUSH1 0x1 DUP3 DUP2 SLOAD DUP2 LT PUSH2 0x26CE JUMPI PUSH2 0x26CD PUSH2 0x33DE JUMP JUMPDEST JUMPDEST SWAP1 PUSH1 0x0 MSTORE PUSH1 0x20 PUSH1 0x0 KECCAK256 SWAP1 PUSH1 0x3 MUL ADD PUSH1 0x1 ADD PUSH1 0x0 SWAP1 SLOAD SWAP1 PUSH2 0x100 EXP SWAP1 DIV PUSH20 0xFFFFFFFFFFFFFFFFFFFFFFFFFFFFFFFFFFFFFFFF AND PUSH20 0xFFFFFFFFFFFFFFFFFFFFFFFFFFFFFFFFFFFFFFFF AND SUB PUSH2 0x2724 JUMPI DUP1 SWAP2 POP POP PUSH2 0x2741 JUMP JUMPDEST DUP1 DUP1 PUSH2 0x272F SWAP1 PUSH2 0x343C JUMP JUMPDEST SWAP2 POP POP PUSH2 0x2696 JUMP JUMPDEST POP PUSH1 0x1 DUP1 SLOAD SWAP1 POP SWAP1 POP JUMPDEST SWAP2 SWAP1 POP JUMP JUMPDEST PUSH1 0x40 MLOAD DUP1 PUSH1 0x60 ADD PUSH1 0x40 MSTORE DUP1 PUSH1 0x60 DUP2 MSTORE PUSH1 0x20 ADD PUSH1 0x0 PUSH20 0xFFFFFFFFFFFFFFFFFFFFFFFFFFFFFFFFFFFFFFFF AND DUP2 MSTORE PUSH1 0x20 ADD PUSH1 0x60 DUP2 MSTORE POP SWAP1 JUMP JUMPDEST PUSH1 0x40 MLOAD DUP1 PUSH2 0x100 ADD PUSH1 0x40 MSTORE DUP1 PUSH1 0x0 DUP2 MSTORE PUSH1 0x20 ADD PUSH1 0x0 PUSH20 0xFFFFFFFFFFFFFFFFFFFFFFFFFFFFFFFFFFFFFFFF AND DUP2 MSTORE PUSH1 0x20 ADD PUSH1 0x60 DUP2 MSTORE PUSH1 0x20 ADD PUSH1 0x60 DUP2 MSTORE PUSH1 0x20 ADD PUSH1 0x0 DUP2 MSTORE PUSH1 0x20 ADD PUSH1 0x60 DUP2 MSTORE PUSH1 0x20 ADD PUSH1 0x0 ISZERO ISZERO DUP2 MSTORE PUSH1 0x20 ADD PUSH1 0x60 DUP2 MSTORE POP SWAP1 JUMP JUMPDEST PUSH1 0x40 MLOAD DUP1 PUSH1 0xC0 ADD PUSH1 0x40 MSTORE DUP1 PUSH1 0x0 PUSH20 0xFFFFFFFFFFFFFFFFFFFFFFFFFFFFFFFFFFFFFFFF AND DUP2 MSTORE PUSH1 0x20 ADD PUSH1 0x0 PUSH20 0xFFFFFFFFFFFFFFFFFFFFFFFFFFFFFFFFFFFFFFFF AND DUP2 MSTORE PUSH1 0x20 ADD PUSH1 0x0 DUP2 MSTORE PUSH1 0x20 ADD PUSH1 0x0 DUP2 MSTORE PUSH1 0x20 ADD PUSH1 0x0 ISZERO ISZERO DUP2 MSTORE PUSH1 0x20 ADD PUSH1 0x0 DUP2 MSTORE POP SWAP1 JUMP JUMPDEST PUSH1 0x0 DUP2 MLOAD SWAP1 POP SWAP2 SWAP1 POP JUMP JUMPDEST PUSH1 0x0 DUP3 DUP3 MSTORE PUSH1 0x20 DUP3 ADD SWAP1 POP SWAP3 SWAP2 POP POP JUMP JUMPDEST PUSH1 0x0 DUP2 SWAP1 POP PUSH1 0x20 DUP3 ADD SWAP1 POP SWAP2 SWAP1 POP JUMP JUMPDEST PUSH1 0x0 DUP2 SWAP1 POP SWAP2 SWAP1 POP JUMP JUMPDEST PUSH2 0x287D DUP2 PUSH2 0x286A JUMP JUMPDEST DUP3 MSTORE POP POP JUMP JUMPDEST PUSH1 0x0 PUSH20 0xFFFFFFFFFFFFFFFFFFFFFFFFFFFFFFFFFFFFFFFF DUP3 AND SWAP1 POP SWAP2 SWAP1 POP JUMP JUMPDEST PUSH1 0x0 PUSH2 0x28AE DUP3 PUSH2 0x2883 JUMP JUMPDEST SWAP1 POP SWAP2 SWAP1 POP JUMP JUMPDEST PUSH2 0x28BE DUP2 PUSH2 0x28A3 JUMP JUMPDEST DUP3 MSTORE POP POP JUMP JUMPDEST PUSH1 0x0 DUP2 MLOAD SWAP1 POP SWAP2 SWAP1 POP JUMP JUMPDEST PUSH1 0x0 DUP3 DUP3 MSTORE PUSH1 0x20 DUP3 ADD SWAP1 POP SWAP3 SWAP2 POP POP JUMP JUMPDEST PUSH1 0x0 JUMPDEST DUP4 DUP2 LT ISZERO PUSH2 0x28FE JUMPI DUP1 DUP3 ADD MLOAD DUP2 DUP5 ADD MSTORE PUSH1 0x20 DUP2 ADD SWAP1 POP PUSH2 0x28E3 JUMP JUMPDEST PUSH1 0x0 DUP5 DUP5 ADD MSTORE POP POP POP POP JUMP JUMPDEST PUSH1 0x0 PUSH1 0x1F NOT PUSH1 0x1F DUP4 ADD AND SWAP1 POP SWAP2 SWAP1 POP JUMP JUMPDEST PUSH1 0x0 PUSH2 0x2926 DUP3 PUSH2 0x28C4 JUMP JUMPDEST PUSH2 0x2930 DUP2 DUP6 PUSH2 0x28CF JUMP JUMPDEST SWAP4 POP PUSH2 0x2940 DUP2 DUP6 PUSH1 0x20 DUP7 ADD PUSH2 0x28E0 JUMP JUMPDEST PUSH2 0x2949 DUP2 PUSH2 0x290A JUMP JUMPDEST DUP5 ADD SWAP2 POP POP SWAP3 SWAP2 POP POP JUMP JUMPDEST PUSH1 0x0 DUP2 ISZERO ISZERO SWAP1 POP SWAP2 SWAP1 POP JUMP JUMPDEST PUSH2 0x2969 DUP2 PUSH2 0x2954 JUMP JUMPDEST DUP3 MSTORE POP POP JUMP JUMPDEST PUSH1 0x0 PUSH2 0x100 DUP4 ADD PUSH1 0x0 DUP4 ADD MLOAD PUSH2 0x2988 PUSH1 0x0 DUP7 ADD DUP3 PUSH2 0x2874 JUMP JUMPDEST POP PUSH1 0x20 DUP4 ADD MLOAD PUSH2 0x299B PUSH1 0x20 DUP7 ADD DUP3 PUSH2 0x28B5 JUMP JUMPDEST POP PUSH1 0x40 DUP4 ADD MLOAD DUP5 DUP3 SUB PUSH1 0x40 DUP7 ADD MSTORE PUSH2 0x29B3 DUP3 DUP3 PUSH2 0x291B JUMP JUMPDEST SWAP2 POP POP PUSH1 0x60 DUP4 ADD MLOAD DUP5 DUP3 SUB PUSH1 0x60 DUP7 ADD MSTORE PUSH2 0x29CD DUP3 DUP3 PUSH2 0x291B JUMP JUMPDEST SWAP2 POP POP PUSH1 0x80 DUP4 ADD MLOAD PUSH2 0x29E2 PUSH1 0x80 DUP7 ADD DUP3 PUSH2 0x2874 JUMP JUMPDEST POP PUSH1 0xA0 DUP4 ADD MLOAD DUP5 DUP3 SUB PUSH1 0xA0 DUP7 ADD MSTORE PUSH2 0x29FA DUP3 DUP3 PUSH2 0x291B JUMP JUMPDEST SWAP2 POP POP PUSH1 0xC0 DUP4 ADD MLOAD PUSH2 0x2A0F PUSH1 0xC0 DUP7 ADD DUP3 PUSH2 0x2960 JUMP JUMPDEST POP PUSH1 0xE0 DUP4 ADD MLOAD DUP5 DUP3 SUB PUSH1 0xE0 DUP7 ADD MSTORE PUSH2 0x2A27 DUP3 DUP3 PUSH2 0x291B JUMP JUMPDEST SWAP2 POP POP DUP1 SWAP2 POP POP SWAP3 SWAP2 POP POP JUMP JUMPDEST PUSH1 0x0 PUSH2 0x2A40 DUP4 DUP4 PUSH2 0x296F JUMP JUMPDEST SWAP1 POP SWAP3 SWAP2 POP POP JUMP JUMPDEST PUSH1 0x0 PUSH1 0x20 DUP3 ADD SWAP1 POP SWAP2 SWAP1 POP JUMP JUMPDEST PUSH1 0x0 PUSH2 0x2A60 DUP3 PUSH2 0x283E JUMP JUMPDEST PUSH2 0x2A6A DUP2 DUP6 PUSH2 0x2849 JUMP JUMPDEST SWAP4 POP DUP4 PUSH1 0x20 DUP3 MUL DUP6 ADD PUSH2 0x2A7C DUP6 PUSH2 0x285A JUMP JUMPDEST DUP1 PUSH1 0x0 JUMPDEST DUP6 DUP2 LT ISZERO PUSH2 0x2AB8 JUMPI DUP5 DUP5 SUB DUP10 MSTORE DUP2 MLOAD PUSH2 0x2A99 DUP6 DUP3 PUSH2 0x2A34 JUMP JUMPDEST SWAP5 POP PUSH2 0x2AA4 DUP4 PUSH2 0x2A48 JUMP JUMPDEST SWAP3 POP PUSH1 0x20 DUP11 ADD SWAP10 POP POP PUSH1 0x1 DUP2 ADD SWAP1 POP PUSH2 0x2A80 JUMP JUMPDEST POP DUP3 SWAP8 POP DUP8 SWAP6 POP POP POP POP POP POP SWAP3 SWAP2 POP POP JUMP JUMPDEST PUSH1 0x0 PUSH1 0x20 DUP3 ADD SWAP1 POP DUP2 DUP2 SUB PUSH1 0x0 DUP4 ADD MSTORE PUSH2 0x2AE4 DUP2 DUP5 PUSH2 0x2A55 JUMP JUMPDEST SWAP1 POP SWAP3 SWAP2 POP POP JUMP JUMPDEST PUSH1 0x0 PUSH1 0x40 MLOAD SWAP1 POP SWAP1 JUMP JUMPDEST PUSH1 0x0 DUP1 REVERT JUMPDEST PUSH1 0x0 DUP1 REVERT JUMPDEST PUSH1 0x0 PUSH2 0x2B0B DUP3 PUSH2 0x2883 JUMP JUMPDEST SWAP1 POP SWAP2 SWAP1 POP JUMP JUMPDEST PUSH2 0x2B1B DUP2 PUSH2 0x2B00 JUMP JUMPDEST DUP2 EQ PUSH2 0x2B26 JUMPI PUSH1 0x0 DUP1 REVERT JUMPDEST POP JUMP JUMPDEST PUSH1 0x0 DUP2 CALLDATALOAD SWAP1 POP PUSH2 0x2B38 DUP2 PUSH2 0x2B12 JUMP JUMPDEST SWAP3 SWAP2 POP POP JUMP JUMPDEST PUSH1 0x0 PUSH1 0x20 DUP3 DUP5 SUB SLT ISZERO PUSH2 0x2B54 JUMPI PUSH2 0x2B53 PUSH2 0x2AF6 JUMP JUMPDEST JUMPDEST PUSH1 0x0 PUSH2 0x2B62 DUP5 DUP3 DUP6 ADD PUSH2 0x2B29 JUMP JUMPDEST SWAP2 POP POP SWAP3 SWAP2 POP POP JUMP JUMPDEST PUSH1 0x0 DUP1 REVERT JUMPDEST PUSH1 0x0 DUP1 REVERT JUMPDEST PUSH32 0x4E487B7100000000000000000000000000000000000000000000000000000000 PUSH1 0x0 MSTORE PUSH1 0x41 PUSH1 0x4 MSTORE PUSH1 0x24 PUSH1 0x0 REVERT JUMPDEST PUSH2 0x2BAD DUP3 PUSH2 0x290A JUMP JUMPDEST DUP2 ADD DUP2 DUP2 LT PUSH8 0xFFFFFFFFFFFFFFFF DUP3 GT OR ISZERO PUSH2 0x2BCC JUMPI PUSH2 0x2BCB PUSH2 0x2B75 JUMP JUMPDEST JUMPDEST DUP1 PUSH1 0x40 MSTORE POP POP POP JUMP JUMPDEST PUSH1 0x0 PUSH2 0x2BDF PUSH2 0x2AEC JUMP JUMPDEST SWAP1 POP PUSH2 0x2BEB DUP3 DUP3 PUSH2 0x2BA4 JUMP JUMPDEST SWAP2 SWAP1 POP JUMP JUMPDEST PUSH1 0x0 PUSH8 0xFFFFFFFFFFFFFFFF DUP3 GT ISZERO PUSH2 0x2C0B JUMPI PUSH2 0x2C0A PUSH2 0x2B75 JUMP JUMPDEST JUMPDEST PUSH2 0x2C14 DUP3 PUSH2 0x290A JUMP JUMPDEST SWAP1 POP PUSH1 0x20 DUP2 ADD SWAP1 POP SWAP2 SWAP1 POP JUMP JUMPDEST DUP3 DUP2 DUP4 CALLDATACOPY PUSH1 0x0 DUP4 DUP4 ADD MSTORE POP POP POP JUMP JUMPDEST PUSH1 0x0 PUSH2 0x2C43 PUSH2 0x2C3E DUP5 PUSH2 0x2BF0 JUMP JUMPDEST PUSH2 0x2BD5 JUMP JUMPDEST SWAP1 POP DUP3 DUP2 MSTORE PUSH1 0x20 DUP2 ADD DUP5 DUP5 DUP5 ADD GT ISZERO PUSH2 0x2C5F JUMPI PUSH2 0x2C5E PUSH2 0x2B70 JUMP JUMPDEST JUMPDEST PUSH2 0x2C6A DUP5 DUP3 DUP6 PUSH2 0x2C21 JUMP JUMPDEST POP SWAP4 SWAP3 POP POP POP JUMP JUMPDEST PUSH1 0x0 DUP3 PUSH1 0x1F DUP4 ADD SLT PUSH2 0x2C87 JUMPI PUSH2 0x2C86 PUSH2 0x2B6B JUMP JUMPDEST JUMPDEST DUP2 CALLDATALOAD PUSH2 0x2C97 DUP5 DUP3 PUSH1 0x20 DUP7 ADD PUSH2 0x2C30 JUMP JUMPDEST SWAP2 POP POP SWAP3 SWAP2 POP POP JUMP JUMPDEST PUSH1 0x0 DUP1 PUSH1 0x40 DUP4 DUP6 SUB SLT ISZERO PUSH2 0x2CB7 JUMPI PUSH2 0x2CB6 PUSH2 0x2AF6 JUMP JUMPDEST JUMPDEST PUSH1 0x0 DUP4 ADD CALLDATALOAD PUSH8 0xFFFFFFFFFFFFFFFF DUP2 GT ISZERO PUSH2 0x2CD5 JUMPI PUSH2 0x2CD4 PUSH2 0x2AFB JUMP JUMPDEST JUMPDEST PUSH2 0x2CE1 DUP6 DUP3 DUP7 ADD PUSH2 0x2C72 JUMP JUMPDEST SWAP3 POP POP PUSH1 0x20 DUP4 ADD CALLDATALOAD PUSH8 0xFFFFFFFFFFFFFFFF DUP2 GT ISZERO PUSH2 0x2D02 JUMPI PUSH2 0x2D01 PUSH2 0x2AFB JUMP JUMPDEST JUMPDEST PUSH2 0x2D0E DUP6 DUP3 DUP7 ADD PUSH2 0x2C72 JUMP JUMPDEST SWAP2 POP POP SWAP3 POP SWAP3 SWAP1 POP JUMP JUMPDEST PUSH2 0x2D21 DUP2 PUSH2 0x2954 JUMP JUMPDEST DUP3 MSTORE POP POP JUMP JUMPDEST PUSH1 0x0 PUSH1 0x20 DUP3 ADD SWAP1 POP PUSH2 0x2D3C PUSH1 0x0 DUP4 ADD DUP5 PUSH2 0x2D18 JUMP JUMPDEST SWAP3 SWAP2 POP POP JUMP JUMPDEST PUSH1 0x0 PUSH1 0x60 DUP4 ADD PUSH1 0x0 DUP4 ADD MLOAD DUP5 DUP3 SUB PUSH1 0x0 DUP7 ADD MSTORE PUSH2 0x2D5F DUP3 DUP3 PUSH2 0x291B JUMP JUMPDEST SWAP2 POP POP PUSH1 0x20 DUP4 ADD MLOAD PUSH2 0x2D74 PUSH1 0x20 DUP7 ADD DUP3 PUSH2 0x28B5 JUMP JUMPDEST POP PUSH1 0x40 DUP4 ADD MLOAD DUP5 DUP3 SUB PUSH1 0x40 DUP7 ADD MSTORE PUSH2 0x2D8C DUP3 DUP3 PUSH2 0x291B JUMP JUMPDEST SWAP2 POP POP DUP1 SWAP2 POP POP SWAP3 SWAP2 POP POP JUMP JUMPDEST PUSH1 0x0 PUSH1 0x20 DUP3 ADD SWAP1 POP DUP2 DUP2 SUB PUSH1 0x0 DUP4 ADD MSTORE PUSH2 0x2DB3 DUP2 DUP5 PUSH2 0x2D42 JUMP JUMPDEST SWAP1 POP SWAP3 SWAP2 POP POP JUMP JUMPDEST PUSH2 0x2DC4 DUP2 PUSH2 0x286A JUMP JUMPDEST DUP2 EQ PUSH2 0x2DCF JUMPI PUSH1 0x0 DUP1 REVERT JUMPDEST POP JUMP JUMPDEST PUSH1 0x0 DUP2 CALLDATALOAD SWAP1 POP PUSH2 0x2DE1 DUP2 PUSH2 0x2DBB JUMP JUMPDEST SWAP3 SWAP2 POP POP JUMP JUMPDEST PUSH1 0x0 DUP1 PUSH1 0x0 DUP1 PUSH1 0x0 PUSH1 0xA0 DUP7 DUP9 SUB SLT ISZERO PUSH2 0x2E03 JUMPI PUSH2 0x2E02 PUSH2 0x2AF6 JUMP JUMPDEST JUMPDEST PUSH1 0x0 DUP7 ADD CALLDATALOAD PUSH8 0xFFFFFFFFFFFFFFFF DUP2 GT ISZERO PUSH2 0x2E21 JUMPI PUSH2 0x2E20 PUSH2 0x2AFB JUMP JUMPDEST JUMPDEST PUSH2 0x2E2D DUP9 DUP3 DUP10 ADD PUSH2 0x2C72 JUMP JUMPDEST SWAP6 POP POP PUSH1 0x20 DUP7 ADD CALLDATALOAD PUSH8 0xFFFFFFFFFFFFFFFF DUP2 GT ISZERO PUSH2 0x2E4E JUMPI PUSH2 0x2E4D PUSH2 0x2AFB JUMP JUMPDEST JUMPDEST PUSH2 0x2E5A DUP9 DUP3 DUP10 ADD PUSH2 0x2C72 JUMP JUMPDEST SWAP5 POP POP PUSH1 0x40 PUSH2 0x2E6B DUP9 DUP3 DUP10 ADD PUSH2 0x2DD2 JUMP JUMPDEST SWAP4 POP POP PUSH1 0x60 DUP7 ADD CALLDATALOAD PUSH8 0xFFFFFFFFFFFFFFFF DUP2 GT ISZERO PUSH2 0x2E8C JUMPI PUSH2 0x2E8B PUSH2 0x2AFB JUMP JUMPDEST JUMPDEST PUSH2 0x2E98 DUP9 DUP3 DUP10 ADD PUSH2 0x2C72 JUMP JUMPDEST SWAP3 POP POP PUSH1 0x80 DUP7 ADD CALLDATALOAD PUSH8 0xFFFFFFFFFFFFFFFF DUP2 GT ISZERO PUSH2 0x2EB9 JUMPI PUSH2 0x2EB8 PUSH2 0x2AFB JUMP JUMPDEST JUMPDEST PUSH2 0x2EC5 DUP9 DUP3 DUP10 ADD PUSH2 0x2C72 JUMP JUMPDEST SWAP2 POP POP SWAP3 SWAP6 POP SWAP3 SWAP6 SWAP1 SWAP4 POP JUMP JUMPDEST PUSH1 0x0 PUSH1 0x20 DUP3 DUP5 SUB SLT ISZERO PUSH2 0x2EE8 JUMPI PUSH2 0x2EE7 PUSH2 0x2AF6 JUMP JUMPDEST JUMPDEST PUSH1 0x0 PUSH2 0x2EF6 DUP5 DUP3 DUP6 ADD PUSH2 0x2DD2 JUMP JUMPDEST SWAP2 POP POP SWAP3 SWAP2 POP POP JUMP JUMPDEST PUSH2 0x2F08 DUP2 PUSH2 0x286A JUMP JUMPDEST DUP3 MSTORE POP POP JUMP JUMPDEST PUSH2 0x2F17 DUP2 PUSH2 0x28A3 JUMP JUMPDEST DUP3 MSTORE POP POP JUMP JUMPDEST PUSH1 0x0 DUP3 DUP3 MSTORE PUSH1 0x20 DUP3 ADD SWAP1 POP SWAP3 SWAP2 POP POP JUMP JUMPDEST PUSH1 0x0 PUSH2 0x2F39 DUP3 PUSH2 0x28C4 JUMP JUMPDEST PUSH2 0x2F43 DUP2 DUP6 PUSH2 0x2F1D JUMP JUMPDEST SWAP4 POP PUSH2 0x2F53 DUP2 DUP6 PUSH1 0x20 DUP7 ADD PUSH2 0x28E0 JUMP JUMPDEST PUSH2 0x2F5C DUP2 PUSH2 0x290A JUMP JUMPDEST DUP5 ADD SWAP2 POP POP SWAP3 SWAP2 POP POP JUMP JUMPDEST PUSH1 0x0 PUSH2 0x100 DUP3 ADD SWAP1 POP PUSH2 0x2F7D PUSH1 0x0 DUP4 ADD DUP12 PUSH2 0x2EFF JUMP JUMPDEST PUSH2 0x2F8A PUSH1 0x20 DUP4 ADD DUP11 PUSH2 0x2F0E JUMP JUMPDEST DUP2 DUP2 SUB PUSH1 0x40 DUP4 ADD MSTORE PUSH2 0x2F9C DUP2 DUP10 PUSH2 0x2F2E JUMP JUMPDEST SWAP1 POP DUP2 DUP2 SUB PUSH1 0x60 DUP4 ADD MSTORE PUSH2 0x2FB0 DUP2 DUP9 PUSH2 0x2F2E JUMP JUMPDEST SWAP1 POP PUSH2 0x2FBF PUSH1 0x80 DUP4 ADD DUP8 PUSH2 0x2EFF JUMP JUMPDEST DUP2 DUP2 SUB PUSH1 0xA0 DUP4 ADD MSTORE PUSH2 0x2FD1 DUP2 DUP7 PUSH2 0x2F2E JUMP JUMPDEST SWAP1 POP PUSH2 0x2FE0 PUSH1 0xC0 DUP4 ADD DUP6 PUSH2 0x2D18 JUMP JUMPDEST DUP2 DUP2 SUB PUSH1 0xE0 DUP4 ADD MSTORE PUSH2 0x2FF2 DUP2 DUP5 PUSH2 0x2F2E JUMP JUMPDEST SWAP1 POP SWAP10 SWAP9 POP POP POP POP POP POP POP POP POP JUMP JUMPDEST PUSH1 0x0 PUSH1 0x60 DUP3 ADD SWAP1 POP DUP2 DUP2 SUB PUSH1 0x0 DUP4 ADD MSTORE PUSH2 0x301B DUP2 DUP7 PUSH2 0x2F2E JUMP JUMPDEST SWAP1 POP PUSH2 0x302A PUSH1 0x20 DUP4 ADD DUP6 PUSH2 0x2F0E JUMP JUMPDEST DUP2 DUP2 SUB PUSH1 0x40 DUP4 ADD MSTORE PUSH2 0x303C DUP2 DUP5 PUSH2 0x2F2E JUMP JUMPDEST SWAP1 POP SWAP5 SWAP4 POP POP POP POP JUMP JUMPDEST PUSH1 0x0 PUSH1 0x20 DUP3 ADD SWAP1 POP PUSH2 0x305B PUSH1 0x0 DUP4 ADD DUP5 PUSH2 0x2EFF JUMP JUMPDEST SWAP3 SWAP2 POP POP JUMP JUMPDEST PUSH1 0x0 PUSH1 0xC0 DUP3 ADD SWAP1 POP PUSH2 0x3076 PUSH1 0x0 DUP4 ADD DUP10 PUSH2 0x2F0E JUMP JUMPDEST PUSH2 0x3083 PUSH1 0x20 DUP4 ADD DUP9 PUSH2 0x2F0E JUMP JUMPDEST PUSH2 0x3090 PUSH1 0x40 DUP4 ADD DUP8 PUSH2 0x2EFF JUMP JUMPDEST PUSH2 0x309D PUSH1 0x60 DUP4 ADD DUP7 PUSH2 0x2EFF JUMP JUMPDEST PUSH2 0x30AA PUSH1 0x80 DUP4 ADD DUP6 PUSH2 0x2D18 JUMP JUMPDEST PUSH2 0x30B7 PUSH1 0xA0 DUP4 ADD DUP5 PUSH2 0x2EFF JUMP JUMPDEST SWAP8 SWAP7 POP POP POP POP POP POP POP JUMP JUMPDEST PUSH1 0x0 DUP2 MLOAD SWAP1 POP SWAP2 SWAP1 POP JUMP JUMPDEST PUSH1 0x0 DUP3 DUP3 MSTORE PUSH1 0x20 DUP3 ADD SWAP1 POP SWAP3 SWAP2 POP POP JUMP JUMPDEST PUSH1 0x0 DUP2 SWAP1 POP PUSH1 0x20 DUP3 ADD SWAP1 POP SWAP2 SWAP1 POP JUMP JUMPDEST PUSH1 0xC0 DUP3 ADD PUSH1 0x0 DUP3 ADD MLOAD PUSH2 0x3104 PUSH1 0x0 DUP6 ADD DUP3 PUSH2 0x28B5 JUMP JUMPDEST POP PUSH1 0x20 DUP3 ADD MLOAD PUSH2 0x3117 PUSH1 0x20 DUP6 ADD DUP3 PUSH2 0x28B5 JUMP JUMPDEST POP PUSH1 0x40 DUP3 ADD MLOAD PUSH2 0x312A PUSH1 0x40 DUP6 ADD DUP3 PUSH2 0x2874 JUMP JUMPDEST POP PUSH1 0x60 DUP3 ADD MLOAD PUSH2 0x313D PUSH1 0x60 DUP6 ADD DUP3 PUSH2 0x2874 JUMP JUMPDEST POP PUSH1 0x80 DUP3 ADD MLOAD PUSH2 0x3150 PUSH1 0x80 DUP6 ADD DUP3 PUSH2 0x2960 JUMP JUMPDEST POP PUSH1 0xA0 DUP3 ADD MLOAD PUSH2 0x3163 PUSH1 0xA0 DUP6 ADD DUP3 PUSH2 0x2874 JUMP JUMPDEST POP POP POP POP JUMP JUMPDEST PUSH1 0x0 PUSH2 0x3175 DUP4 DUP4 PUSH2 0x30EE JUMP JUMPDEST PUSH1 0xC0 DUP4 ADD SWAP1 POP SWAP3 SWAP2 POP POP JUMP JUMPDEST PUSH1 0x0 PUSH1 0x20 DUP3 ADD SWAP1 POP SWAP2 SWAP1 POP JUMP JUMPDEST PUSH1 0x0 PUSH2 0x3199 DUP3 PUSH2 0x30C2 JUMP JUMPDEST PUSH2 0x31A3 DUP2 DUP6 PUSH2 0x30CD JUMP JUMPDEST SWAP4 POP PUSH2 0x31AE DUP4 PUSH2 0x30DE JUMP JUMPDEST DUP1 PUSH1 0x0 JUMPDEST DUP4 DUP2 LT ISZERO PUSH2 0x31DF JUMPI DUP2 MLOAD PUSH2 0x31C6 DUP9 DUP3 PUSH2 0x3169 JUMP JUMPDEST SWAP8 POP PUSH2 0x31D1 DUP4 PUSH2 0x3181 JUMP JUMPDEST SWAP3 POP POP PUSH1 0x1 DUP2 ADD SWAP1 POP PUSH2 0x31B2 JUMP JUMPDEST POP DUP6 SWAP4 POP POP POP POP SWAP3 SWAP2 POP POP JUMP JUMPDEST PUSH1 0x0 PUSH1 0x20 DUP3 ADD SWAP1 POP DUP2 DUP2 SUB PUSH1 0x0 DUP4 ADD MSTORE PUSH2 0x3206 DUP2 DUP5 PUSH2 0x318E JUMP JUMPDEST SWAP1 POP SWAP3 SWAP2 POP POP JUMP JUMPDEST PUSH1 0x0 PUSH2 0x100 DUP4 ADD PUSH1 0x0 DUP4 ADD MLOAD PUSH2 0x3227 PUSH1 0x0 DUP7 ADD DUP3 PUSH2 0x2874 JUMP JUMPDEST POP PUSH1 0x20 DUP4 ADD MLOAD PUSH2 0x323A PUSH1 0x20 DUP7 ADD DUP3 PUSH2 0x28B5 JUMP JUMPDEST POP PUSH1 0x40 DUP4 ADD MLOAD DUP5 DUP3 SUB PUSH1 0x40 DUP7 ADD MSTORE PUSH2 0x3252 DUP3 DUP3 PUSH2 0x291B JUMP JUMPDEST SWAP2 POP POP PUSH1 0x60 DUP4 ADD MLOAD DUP5 DUP3 SUB PUSH1 0x60 DUP7 ADD MSTORE PUSH2 0x326C DUP3 DUP3 PUSH2 0x291B JUMP JUMPDEST SWAP2 POP POP PUSH1 0x80 DUP4 ADD MLOAD PUSH2 0x3281 PUSH1 0x80 DUP7 ADD DUP3 PUSH2 0x2874 JUMP JUMPDEST POP PUSH1 0xA0 DUP4 ADD MLOAD DUP5 DUP3 SUB PUSH1 0xA0 DUP7 ADD MSTORE PUSH2 0x3299 DUP3 DUP3 PUSH2 0x291B JUMP JUMPDEST SWAP2 POP POP PUSH1 0xC0 DUP4 ADD MLOAD PUSH2 0x32AE PUSH1 0xC0 DUP7 ADD DUP3 PUSH2 0x2960 JUMP JUMPDEST POP PUSH1 0xE0 DUP4 ADD MLOAD DUP5 DUP3 SUB PUSH1 0xE0 DUP7 ADD MSTORE PUSH2 0x32C6 DUP3 DUP3 PUSH2 0x291B JUMP JUMPDEST SWAP2 POP POP DUP1 SWAP2 POP POP SWAP3 SWAP2 POP POP JUMP JUMPDEST PUSH1 0x0 PUSH1 0x20 DUP3 ADD SWAP1 POP DUP2 DUP2 SUB PUSH1 0x0 DUP4 ADD MSTORE PUSH2 0x32ED DUP2 DUP5 PUSH2 0x320E JUMP JUMPDEST SWAP1 POP SWAP3 SWAP2 POP POP JUMP JUMPDEST PUSH1 0x0 PUSH1 0x20 DUP3 DUP5 SUB SLT ISZERO PUSH2 0x330B JUMPI PUSH2 0x330A PUSH2 0x2AF6 JUMP JUMPDEST JUMPDEST PUSH1 0x0 DUP3 ADD CALLDATALOAD PUSH8 0xFFFFFFFFFFFFFFFF DUP2 GT ISZERO PUSH2 0x3329 JUMPI PUSH2 0x3328 PUSH2 0x2AFB JUMP JUMPDEST JUMPDEST PUSH2 0x3335 DUP5 DUP3 DUP6 ADD PUSH2 0x2C72 JUMP JUMPDEST SWAP2 POP POP SWAP3 SWAP2 POP POP JUMP JUMPDEST PUSH1 0x0 DUP1 PUSH1 0x40 DUP4 DUP6 SUB SLT ISZERO PUSH2 0x3355 JUMPI PUSH2 0x3354 PUSH2 0x2AF6 JUMP JUMPDEST JUMPDEST PUSH1 0x0 PUSH2 0x3363 DUP6 DUP3 DUP7 ADD PUSH2 0x2B29 JUMP JUMPDEST SWAP3 POP POP PUSH1 0x20 PUSH2 0x3374 DUP6 DUP3 DUP7 ADD PUSH2 0x2DD2 JUMP JUMPDEST SWAP2 POP POP SWAP3 POP SWAP3 SWAP1 POP JUMP JUMPDEST PUSH32 0x4E487B7100000000000000000000000000000000000000000000000000000000 PUSH1 0x0 MSTORE PUSH1 0x22 PUSH1 0x4 MSTORE PUSH1 0x24 PUSH1 0x0 REVERT JUMPDEST PUSH1 0x0 PUSH1 0x2 DUP3 DIV SWAP1 POP PUSH1 0x1 DUP3 AND DUP1 PUSH2 0x33C5 JUMPI PUSH1 0x7F DUP3 AND SWAP2 POP JUMPDEST PUSH1 0x20 DUP3 LT DUP2 SUB PUSH2 0x33D8 JUMPI PUSH2 0x33D7 PUSH2 0x337E JUMP JUMPDEST JUMPDEST POP SWAP2 SWAP1 POP JUMP JUMPDEST PUSH32 0x4E487B7100000000000000000000000000000000000000000000000000000000 PUSH1 0x0 MSTORE PUSH1 0x32 PUSH1 0x4 MSTORE PUSH1 0x24 PUSH1 0x0 REVERT JUMPDEST PUSH32 0x4E487B7100000000000000000000000000000000000000000000000000000000 PUSH1 0x0 MSTORE PUSH1 0x11 PUSH1 0x4 MSTORE PUSH1 0x24 PUSH1 0x0 REVERT JUMPDEST PUSH1 0x0 PUSH2 0x3447 DUP3 PUSH2 0x286A JUMP JUMPDEST SWAP2 POP PUSH32 0xFFFFFFFFFFFFFFFFFFFFFFFFFFFFFFFFFFFFFFFFFFFFFFFFFFFFFFFFFFFFFFFF DUP3 SUB PUSH2 0x3479 JUMPI PUSH2 0x3478 PUSH2 0x340D JUMP JUMPDEST JUMPDEST PUSH1 0x1 DUP3 ADD SWAP1 POP SWAP2 SWAP1 POP JUMP JUMPDEST PUSH1 0x0 DUP2 SWAP1 POP DUP2 PUSH1 0x0 MSTORE PUSH1 0x20 PUSH1 0x0 KECCAK256 SWAP1 POP SWAP2 SWAP1 POP JUMP JUMPDEST PUSH1 0x0 PUSH1 0x20 PUSH1 0x1F DUP4 ADD DIV SWAP1 POP SWAP2 SWAP1 POP JUMP JUMPDEST PUSH1 0x0 DUP3 DUP3 SHL SWAP1 POP SWAP3 SWAP2 POP POP JUMP JUMPDEST PUSH1 0x0 PUSH1 0x8 DUP4 MUL PUSH2 0x34E6 PUSH32 0xFFFFFFFFFFFFFFFFFFFFFFFFFFFFFFFFFFFFFFFFFFFFFFFFFFFFFFFFFFFFFFFF DUP3 PUSH2 0x34A9 JUMP JUMPDEST PUSH2 0x34F0 DUP7 DUP4 PUSH2 0x34A9 JUMP JUMPDEST SWAP6 POP DUP1 NOT DUP5 AND SWAP4 POP DUP1 DUP7 AND DUP5 OR SWAP3 POP POP POP SWAP4 SWAP3 POP POP POP JUMP JUMPDEST PUSH1 0x0 DUP2 SWAP1 POP SWAP2 SWAP1 POP JUMP JUMPDEST PUSH1 0x0 PUSH2 0x352D PUSH2 0x3528 PUSH2 0x3523 DUP5 PUSH2 0x286A JUMP JUMPDEST PUSH2 0x3508 JUMP JUMPDEST PUSH2 0x286A JUMP JUMPDEST SWAP1 POP SWAP2 SWAP1 POP JUMP JUMPDEST PUSH1 0x0 DUP2 SWAP1 POP SWAP2 SWAP1 POP JUMP JUMPDEST PUSH2 0x3547 DUP4 PUSH2 0x3512 JUMP JUMPDEST PUSH2 0x355B PUSH2 0x3553 DUP3 PUSH2 0x3534 JUMP JUMPDEST DUP5 DUP5 SLOAD PUSH2 0x34B6 JUMP JUMPDEST DUP3 SSTORE POP POP POP POP JUMP JUMPDEST PUSH1 0x0 SWAP1 JUMP JUMPDEST PUSH2 0x3570 PUSH2 0x3563 JUMP JUMPDEST PUSH2 0x357B DUP2 DUP5 DUP5 PUSH2 0x353E JUMP JUMPDEST POP POP POP JUMP JUMPDEST JUMPDEST DUP2 DUP2 LT ISZERO PUSH2 0x359F JUMPI PUSH2 0x3594 PUSH1 0x0 DUP3 PUSH2 0x3568 JUMP JUMPDEST PUSH1 0x1 DUP2 ADD SWAP1 POP PUSH2 0x3581 JUMP JUMPDEST POP POP JUMP JUMPDEST PUSH1 0x1F DUP3 GT ISZERO PUSH2 0x35E4 JUMPI PUSH2 0x35B5 DUP2 PUSH2 0x3484 JUMP JUMPDEST PUSH2 0x35BE DUP5 PUSH2 0x3499 JUMP JUMPDEST DUP2 ADD PUSH1 0x20 DUP6 LT ISZERO PUSH2 0x35CD JUMPI DUP2 SWAP1 POP JUMPDEST PUSH2 0x35E1 PUSH2 0x35D9 DUP6 PUSH2 0x3499 JUMP JUMPDEST DUP4 ADD DUP3 PUSH2 0x3580 JUMP JUMPDEST POP POP JUMPDEST POP POP POP JUMP JUMPDEST PUSH1 0x0 DUP3 DUP3 SHR SWAP1 POP SWAP3 SWAP2 POP POP JUMP JUMPDEST PUSH1 0x0 PUSH2 0x3607 PUSH1 0x0 NOT DUP5 PUSH1 0x8 MUL PUSH2 0x35E9 JUMP JUMPDEST NOT DUP1 DUP4 AND SWAP2 POP POP SWAP3 SWAP2 POP POP JUMP JUMPDEST PUSH1 0x0 PUSH2 0x3620 DUP4 DUP4 PUSH2 0x35F6 JUMP JUMPDEST SWAP2 POP DUP3 PUSH1 0x2 MUL DUP3 OR SWAP1 POP SWAP3 SWAP2 POP POP JUMP JUMPDEST PUSH2 0x3639 DUP3 PUSH2 0x28C4 JUMP JUMPDEST PUSH8 0xFFFFFFFFFFFFFFFF DUP2 GT ISZERO PUSH2 0x3652 JUMPI PUSH2 0x3651 PUSH2 0x2B75 JUMP JUMPDEST JUMPDEST PUSH2 0x365C DUP3 SLOAD PUSH2 0x33AD JUMP JUMPDEST PUSH2 0x3667 DUP3 DUP3 DUP6 PUSH2 0x35A3 JUMP JUMPDEST PUSH1 0x0 PUSH1 0x20 SWAP1 POP PUSH1 0x1F DUP4 GT PUSH1 0x1 DUP2 EQ PUSH2 0x369A JUMPI PUSH1 0x0 DUP5 ISZERO PUSH2 0x3688 JUMPI DUP3 DUP8 ADD MLOAD SWAP1 POP JUMPDEST PUSH2 0x3692 DUP6 DUP3 PUSH2 0x3614 JUMP JUMPDEST DUP7 SSTORE POP PUSH2 0x36FA JUMP JUMPDEST PUSH1 0x1F NOT DUP5 AND PUSH2 0x36A8 DUP7 PUSH2 0x3484 JUMP JUMPDEST PUSH1 0x0 JUMPDEST DUP3 DUP2 LT ISZERO PUSH2 0x36D0 JUMPI DUP5 DUP10 ADD MLOAD DUP3 SSTORE PUSH1 0x1 DUP3 ADD SWAP2 POP PUSH1 0x20 DUP6 ADD SWAP5 POP PUSH1 0x20 DUP2 ADD SWAP1 POP PUSH2 0x36AB JUMP JUMPDEST DUP7 DUP4 LT ISZERO PUSH2 0x36ED JUMPI DUP5 DUP10 ADD MLOAD PUSH2 0x36E9 PUSH1 0x1F DUP10 AND DUP3 PUSH2 0x35F6 JUMP JUMPDEST DUP4 SSTORE POP JUMPDEST PUSH1 0x1 PUSH1 0x2 DUP9 MUL ADD DUP9 SSTORE POP POP POP JUMPDEST POP POP POP POP POP POP JUMP JUMPDEST PUSH1 0x0 PUSH2 0x370D DUP3 PUSH2 0x286A JUMP JUMPDEST SWAP2 POP PUSH2 0x3718 DUP4 PUSH2 0x286A JUMP JUMPDEST SWAP3 POP DUP3 DUP3 ADD SWAP1 POP DUP1 DUP3 GT ISZERO PUSH2 0x3730 JUMPI PUSH2 0x372F PUSH2 0x340D JUMP JUMPDEST JUMPDEST SWAP3 SWAP2 POP POP JUMP JUMPDEST PUSH1 0x0 DUP2 SWAP1 POP SWAP3 SWAP2 POP POP JUMP JUMPDEST PUSH1 0x0 PUSH2 0x374C DUP3 PUSH2 0x28C4 JUMP JUMPDEST PUSH2 0x3756 DUP2 DUP6 PUSH2 0x3736 JUMP JUMPDEST SWAP4 POP PUSH2 0x3766 DUP2 DUP6 PUSH1 0x20 DUP7 ADD PUSH2 0x28E0 JUMP JUMPDEST DUP1 DUP5 ADD SWAP2 POP POP SWAP3 SWAP2 POP POP JUMP JUMPDEST PUSH1 0x0 PUSH2 0x377E DUP3 DUP5 PUSH2 0x3741 JUMP JUMPDEST SWAP2 POP DUP2 SWAP1 POP SWAP3 SWAP2 POP POP JUMP INVALID LOG2 PUSH5 0x6970667358 0x22 SLT KECCAK256 SWAP11 PUSH32 0x926CB265FD69B8DAD4B30F88196451FD5E7DCC46275AC769EA2A6006B0686473 PUSH16 0x6C634300081200330000000000000000 "
				},
				"gasEstimates": {
					"creation": {
						"codeDepositCost": "2854200",
						"executionCost": "infinite",
						"totalCost": "infinite"
					},
					"external": {
						"ContentBuys(uint256)": "infinite",
						"Contents(uint256)": "infinite",
						"Profiles(uint256)": "infinite",
						"buyContent(uint256)": "infinite",
						"compareStrings(string,string)": "infinite",
						"createNewContent(string,string,uint256,string,string)": "infinite",
						"createNewProfile(string,string)": "infinite",
						"getAllBalanceForCreator(address)": "infinite",
						"getAllBuys()": "infinite",
						"getAllCourses()": "infinite",
						"getAvailableBalance()": "infinite",
						"getBalanceForSingleBuy(address,uint256)": "infinite",
						"getBuysFromAuthor()": "infinite",
						"getContractBalance()": "450",
						"getCourseDetail(uint256)": "infinite",
						"getMyCourses()": "infinite",
						"getMyProfile()": "infinite",
						"setProfileHandle(string)": "infinite",
						"setProfileImage(string)": "infinite"
					},
					"internal": {
						"getProficeIndexByAddress(address)": "infinite",
						"getProfileByAddress(address)": "infinite",
						"getUserCoursesLen(address)": "infinite"
					}
				},
				"methodIdentifiers": {
					"ContentBuys(uint256)": "7ec1061a",
					"Contents(uint256)": "3b342e8e",
					"Profiles(uint256)": "4cea965e",
					"buyContent(uint256)": "d6cfa440",
					"compareStrings(string,string)": "bed34bba",
					"createNewContent(string,string,uint256,string,string)": "38880d55",
					"createNewProfile(string,string)": "1fc25cdd",
					"getAllBalanceForCreator(address)": "0e61a0ee",
					"getAllBuys()": "cf6361de",
					"getAllCourses()": "04e48bd1",
					"getAvailableBalance()": "809dab6a",
					"getBalanceForSingleBuy(address,uint256)": "fb5d7a1f",
					"getBuysFromAuthor()": "8e4a6680",
					"getContractBalance()": "6f9fb98a",
					"getCourseDetail(uint256)": "b79367c4",
					"getMyCourses()": "2cc59076",
					"getMyProfile()": "21527e50",
					"setProfileHandle(string)": "e44c76ea",
					"setProfileImage(string)": "f70d205c"
				}
			},
			"storageLayout": {
				"storage": [
					{
						"astId": 121,
						"contract": "contracts/CreatorsContent.sol:CreatorsContent",
						"label": "Contents",
						"offset": 0,
						"slot": "0",
						"type": "t_array(t_struct(Content)97_storage)dyn_storage"
					},
					{
						"astId": 125,
						"contract": "contracts/CreatorsContent.sol:CreatorsContent",
						"label": "Profiles",
						"offset": 0,
						"slot": "1",
						"type": "t_array(t_struct(Profile)104_storage)dyn_storage"
					},
					{
						"astId": 129,
						"contract": "contracts/CreatorsContent.sol:CreatorsContent",
						"label": "ContentBuys",
						"offset": 0,
						"slot": "2",
						"type": "t_array(t_struct(ContentBuy)117_storage)dyn_storage"
					},
					{
						"astId": 132,
						"contract": "contracts/CreatorsContent.sol:CreatorsContent",
						"label": "idCourses",
						"offset": 0,
						"slot": "3",
						"type": "t_struct(Counter)5_storage"
					},
					{
						"astId": 135,
						"contract": "contracts/CreatorsContent.sol:CreatorsContent",
						"label": "idBuys",
						"offset": 0,
						"slot": "4",
						"type": "t_struct(Counter)5_storage"
					}
				],
				"types": {
					"t_address": {
						"encoding": "inplace",
						"label": "address",
						"numberOfBytes": "20"
					},
					"t_array(t_struct(Content)97_storage)dyn_storage": {
						"base": "t_struct(Content)97_storage",
						"encoding": "dynamic_array",
						"label": "struct CreatorsContent.Content[]",
						"numberOfBytes": "32"
					},
					"t_array(t_struct(ContentBuy)117_storage)dyn_storage": {
						"base": "t_struct(ContentBuy)117_storage",
						"encoding": "dynamic_array",
						"label": "struct CreatorsContent.ContentBuy[]",
						"numberOfBytes": "32"
					},
					"t_array(t_struct(Profile)104_storage)dyn_storage": {
						"base": "t_struct(Profile)104_storage",
						"encoding": "dynamic_array",
						"label": "struct CreatorsContent.Profile[]",
						"numberOfBytes": "32"
					},
					"t_bool": {
						"encoding": "inplace",
						"label": "bool",
						"numberOfBytes": "1"
					},
					"t_string_storage": {
						"encoding": "bytes",
						"label": "string",
						"numberOfBytes": "32"
					},
					"t_struct(Content)97_storage": {
						"encoding": "inplace",
						"label": "struct CreatorsContent.Content",
						"members": [
							{
								"astId": 82,
								"contract": "contracts/CreatorsContent.sol:CreatorsContent",
								"label": "id",
								"offset": 0,
								"slot": "0",
								"type": "t_uint256"
							},
							{
								"astId": 84,
								"contract": "contracts/CreatorsContent.sol:CreatorsContent",
								"label": "author",
								"offset": 0,
								"slot": "1",
								"type": "t_address"
							},
							{
								"astId": 86,
								"contract": "contracts/CreatorsContent.sol:CreatorsContent",
								"label": "title",
								"offset": 0,
								"slot": "2",
								"type": "t_string_storage"
							},
							{
								"astId": 88,
								"contract": "contracts/CreatorsContent.sol:CreatorsContent",
								"label": "description",
								"offset": 0,
								"slot": "3",
								"type": "t_string_storage"
							},
							{
								"astId": 90,
								"contract": "contracts/CreatorsContent.sol:CreatorsContent",
								"label": "price",
								"offset": 0,
								"slot": "4",
								"type": "t_uint256"
							},
							{
								"astId": 92,
								"contract": "contracts/CreatorsContent.sol:CreatorsContent",
								"label": "video",
								"offset": 0,
								"slot": "5",
								"type": "t_string_storage"
							},
							{
								"astId": 94,
								"contract": "contracts/CreatorsContent.sol:CreatorsContent",
								"label": "deleted",
								"offset": 0,
								"slot": "6",
								"type": "t_bool"
							},
							{
								"astId": 96,
								"contract": "contracts/CreatorsContent.sol:CreatorsContent",
								"label": "mainImage",
								"offset": 0,
								"slot": "7",
								"type": "t_string_storage"
							}
						],
						"numberOfBytes": "256"
					},
					"t_struct(ContentBuy)117_storage": {
						"encoding": "inplace",
						"label": "struct CreatorsContent.ContentBuy",
						"members": [
							{
								"astId": 106,
								"contract": "contracts/CreatorsContent.sol:CreatorsContent",
								"label": "from",
								"offset": 0,
								"slot": "0",
								"type": "t_address"
							},
							{
								"astId": 108,
								"contract": "contracts/CreatorsContent.sol:CreatorsContent",
								"label": "to",
								"offset": 0,
								"slot": "1",
								"type": "t_address"
							},
							{
								"astId": 110,
								"contract": "contracts/CreatorsContent.sol:CreatorsContent",
								"label": "idContent",
								"offset": 0,
								"slot": "2",
								"type": "t_uint256"
							},
							{
								"astId": 112,
								"contract": "contracts/CreatorsContent.sol:CreatorsContent",
								"label": "ammount",
								"offset": 0,
								"slot": "3",
								"type": "t_uint256"
							},
							{
								"astId": 114,
								"contract": "contracts/CreatorsContent.sol:CreatorsContent",
								"label": "isPayed",
								"offset": 0,
								"slot": "4",
								"type": "t_bool"
							},
							{
								"astId": 116,
								"contract": "contracts/CreatorsContent.sol:CreatorsContent",
								"label": "id",
								"offset": 0,
								"slot": "5",
								"type": "t_uint256"
							}
						],
						"numberOfBytes": "192"
					},
					"t_struct(Counter)5_storage": {
						"encoding": "inplace",
						"label": "struct Counters.Counter",
						"members": [
							{
								"astId": 4,
								"contract": "contracts/CreatorsContent.sol:CreatorsContent",
								"label": "_value",
								"offset": 0,
								"slot": "0",
								"type": "t_uint256"
							}
						],
						"numberOfBytes": "32"
					},
					"t_struct(Profile)104_storage": {
						"encoding": "inplace",
						"label": "struct CreatorsContent.Profile",
						"members": [
							{
								"astId": 99,
								"contract": "contracts/CreatorsContent.sol:CreatorsContent",
								"label": "handle",
								"offset": 0,
								"slot": "0",
								"type": "t_string_storage"
							},
							{
								"astId": 101,
								"contract": "contracts/CreatorsContent.sol:CreatorsContent",
								"label": "addr",
								"offset": 0,
								"slot": "1",
								"type": "t_address"
							},
							{
								"astId": 103,
								"contract": "contracts/CreatorsContent.sol:CreatorsContent",
								"label": "profilePic",
								"offset": 0,
								"slot": "2",
								"type": "t_string_storage"
							}
						],
						"numberOfBytes": "96"
					},
					"t_uint256": {
						"encoding": "inplace",
						"label": "uint256",
						"numberOfBytes": "32"
					}
				}
			},
			"userdoc": {
				"kind": "user",
				"methods": {},
				"version": 1
			}
		}
	}
}