{
	"contracts/CreatorsContent.sol": {
		"CreatorsContent": {
			"abi": [
				{
					"inputs": [],
					"stateMutability": "payable",
					"type": "constructor"
				},
				{
					"inputs": [
						{
							"internalType": "uint256",
							"name": "",
							"type": "uint256"
						}
					],
					"name": "ContentBuys",
					"outputs": [
						{
							"internalType": "address",
							"name": "from",
							"type": "address"
						},
						{
							"internalType": "address",
							"name": "to",
							"type": "address"
						},
						{
							"internalType": "uint256",
							"name": "idContent",
							"type": "uint256"
						},
						{
							"internalType": "uint256",
							"name": "ammount",
							"type": "uint256"
						},
						{
							"internalType": "bool",
							"name": "isPayed",
							"type": "bool"
						}
					],
					"stateMutability": "view",
					"type": "function"
				},
				{
					"inputs": [
						{
							"internalType": "uint256",
							"name": "",
							"type": "uint256"
						}
					],
					"name": "Contents",
					"outputs": [
						{
							"internalType": "uint256",
							"name": "id",
							"type": "uint256"
						},
						{
							"internalType": "address",
							"name": "author",
							"type": "address"
						},
						{
							"internalType": "string",
							"name": "title",
							"type": "string"
						},
						{
							"internalType": "string",
							"name": "description",
							"type": "string"
						},
						{
							"internalType": "uint256",
							"name": "price",
							"type": "uint256"
						},
						{
							"internalType": "string",
							"name": "video",
							"type": "string"
						},
						{
							"internalType": "bool",
							"name": "deleted",
							"type": "bool"
						},
						{
							"internalType": "string",
							"name": "mainImage",
							"type": "string"
						}
					],
					"stateMutability": "view",
					"type": "function"
				},
				{
					"inputs": [
						{
							"internalType": "uint256",
							"name": "",
							"type": "uint256"
						}
					],
					"name": "Profiles",
					"outputs": [
						{
							"internalType": "string",
							"name": "handle",
							"type": "string"
						},
						{
							"internalType": "address",
							"name": "addr",
							"type": "address"
						},
						{
							"internalType": "string",
							"name": "profilePic",
							"type": "string"
						}
					],
					"stateMutability": "view",
					"type": "function"
				},
				{
					"inputs": [
						{
							"internalType": "uint256",
							"name": "idCourse",
							"type": "uint256"
						}
					],
					"name": "buyContent",
					"outputs": [],
					"stateMutability": "payable",
					"type": "function"
				},
				{
					"inputs": [
						{
							"internalType": "string",
							"name": "a",
							"type": "string"
						},
						{
							"internalType": "string",
							"name": "b",
							"type": "string"
						}
					],
					"name": "compareStrings",
					"outputs": [
						{
							"internalType": "bool",
							"name": "",
							"type": "bool"
						}
					],
					"stateMutability": "pure",
					"type": "function"
				},
				{
					"inputs": [
						{
							"internalType": "string",
							"name": "title",
							"type": "string"
						},
						{
							"internalType": "string",
							"name": "description",
							"type": "string"
						},
						{
							"internalType": "uint256",
							"name": "price",
							"type": "uint256"
						},
						{
							"internalType": "string",
							"name": "video",
							"type": "string"
						},
						{
							"internalType": "string",
							"name": "mainImage",
							"type": "string"
						}
					],
					"name": "createNewContent",
					"outputs": [],
					"stateMutability": "nonpayable",
					"type": "function"
				},
				{
					"inputs": [
						{
							"internalType": "string",
							"name": "handle",
							"type": "string"
						},
						{
							"internalType": "string",
							"name": "profilePic",
							"type": "string"
						}
					],
					"name": "createNewProfile",
					"outputs": [
						{
							"internalType": "bool",
							"name": "",
							"type": "bool"
						}
					],
					"stateMutability": "nonpayable",
					"type": "function"
				},
				{
					"inputs": [
						{
							"internalType": "address payable",
							"name": "addr",
							"type": "address"
						}
					],
					"name": "getAllBalanceForCreator",
					"outputs": [],
					"stateMutability": "payable",
					"type": "function"
				},
				{
					"inputs": [],
					"name": "getAllCourses",
					"outputs": [
						{
							"components": [
								{
									"internalType": "uint256",
									"name": "id",
									"type": "uint256"
								},
								{
									"internalType": "address",
									"name": "author",
									"type": "address"
								},
								{
									"internalType": "string",
									"name": "title",
									"type": "string"
								},
								{
									"internalType": "string",
									"name": "description",
									"type": "string"
								},
								{
									"internalType": "uint256",
									"name": "price",
									"type": "uint256"
								},
								{
									"internalType": "string",
									"name": "video",
									"type": "string"
								},
								{
									"internalType": "bool",
									"name": "deleted",
									"type": "bool"
								},
								{
									"internalType": "string",
									"name": "mainImage",
									"type": "string"
								}
							],
							"internalType": "struct CreatorsContent.Content[]",
							"name": "",
							"type": "tuple[]"
						}
					],
					"stateMutability": "view",
					"type": "function"
				},
				{
					"inputs": [],
					"name": "getAvailableBalance",
					"outputs": [
						{
							"internalType": "uint256",
							"name": "",
							"type": "uint256"
						}
					],
					"stateMutability": "view",
					"type": "function"
				},
				{
					"inputs": [
						{
							"internalType": "address payable",
							"name": "addr",
							"type": "address"
						},
						{
							"internalType": "uint256",
							"name": "indexBuy",
							"type": "uint256"
						}
					],
					"name": "getBalanceForSingleBuy",
					"outputs": [],
					"stateMutability": "payable",
					"type": "function"
				},
				{
					"inputs": [],
					"name": "getBuysFromAuthor",
					"outputs": [
						{
							"components": [
								{
									"internalType": "address",
									"name": "from",
									"type": "address"
								},
								{
									"internalType": "address",
									"name": "to",
									"type": "address"
								},
								{
									"internalType": "uint256",
									"name": "idContent",
									"type": "uint256"
								},
								{
									"internalType": "uint256",
									"name": "ammount",
									"type": "uint256"
								},
								{
									"internalType": "bool",
									"name": "isPayed",
									"type": "bool"
								}
							],
							"internalType": "struct CreatorsContent.ContentBuy[]",
							"name": "",
							"type": "tuple[]"
						}
					],
					"stateMutability": "view",
					"type": "function"
				},
				{
					"inputs": [],
					"name": "getContractBalance",
					"outputs": [
						{
							"internalType": "uint256",
							"name": "",
							"type": "uint256"
						}
					],
					"stateMutability": "view",
					"type": "function"
				},
				{
					"inputs": [
						{
							"internalType": "uint256",
							"name": "id",
							"type": "uint256"
						}
					],
					"name": "getCourseDetail",
					"outputs": [
						{
							"components": [
								{
									"internalType": "uint256",
									"name": "id",
									"type": "uint256"
								},
								{
									"internalType": "address",
									"name": "author",
									"type": "address"
								},
								{
									"internalType": "string",
									"name": "title",
									"type": "string"
								},
								{
									"internalType": "string",
									"name": "description",
									"type": "string"
								},
								{
									"internalType": "uint256",
									"name": "price",
									"type": "uint256"
								},
								{
									"internalType": "string",
									"name": "video",
									"type": "string"
								},
								{
									"internalType": "bool",
									"name": "deleted",
									"type": "bool"
								},
								{
									"internalType": "string",
									"name": "mainImage",
									"type": "string"
								}
							],
							"internalType": "struct CreatorsContent.Content",
							"name": "",
							"type": "tuple"
						}
					],
					"stateMutability": "view",
					"type": "function"
				},
				{
					"inputs": [],
					"name": "getMyCourses",
					"outputs": [
						{
							"components": [
								{
									"internalType": "uint256",
									"name": "id",
									"type": "uint256"
								},
								{
									"internalType": "address",
									"name": "author",
									"type": "address"
								},
								{
									"internalType": "string",
									"name": "title",
									"type": "string"
								},
								{
									"internalType": "string",
									"name": "description",
									"type": "string"
								},
								{
									"internalType": "uint256",
									"name": "price",
									"type": "uint256"
								},
								{
									"internalType": "string",
									"name": "video",
									"type": "string"
								},
								{
									"internalType": "bool",
									"name": "deleted",
									"type": "bool"
								},
								{
									"internalType": "string",
									"name": "mainImage",
									"type": "string"
								}
							],
							"internalType": "struct CreatorsContent.Content[]",
							"name": "",
							"type": "tuple[]"
						}
					],
					"stateMutability": "view",
					"type": "function"
				},
				{
					"inputs": [],
					"name": "getMyProfile",
					"outputs": [
						{
							"components": [
								{
									"internalType": "string",
									"name": "handle",
									"type": "string"
								},
								{
									"internalType": "address",
									"name": "addr",
									"type": "address"
								},
								{
									"internalType": "string",
									"name": "profilePic",
									"type": "string"
								}
							],
							"internalType": "struct CreatorsContent.Profile",
							"name": "",
							"type": "tuple"
						}
					],
					"stateMutability": "view",
					"type": "function"
				},
				{
					"inputs": [
						{
							"internalType": "string",
							"name": "handle",
							"type": "string"
						}
					],
					"name": "setProfileHandle",
					"outputs": [
						{
							"internalType": "bool",
							"name": "",
							"type": "bool"
						}
					],
					"stateMutability": "nonpayable",
					"type": "function"
				},
				{
					"inputs": [
						{
							"internalType": "string",
							"name": "image",
							"type": "string"
						}
					],
					"name": "setProfileImage",
					"outputs": [
						{
							"internalType": "bool",
							"name": "",
							"type": "bool"
						}
					],
					"stateMutability": "nonpayable",
					"type": "function"
				}
			],
			"devdoc": {
				"kind": "dev",
				"methods": {},
				"version": 1
			},
			"evm": {
				"assembly": "    /* \"contracts/CreatorsContent.sol\":124:6523  contract CreatorsContent {... */\n  mstore(0x40, 0x80)\n    /* \"contracts/CreatorsContent.sol\":867:884  idCourses.reset() */\n  tag_3\n    /* \"contracts/CreatorsContent.sol\":867:876  idCourses */\n  0x03\n    /* \"contracts/CreatorsContent.sol\":867:882  idCourses.reset */\n  or(tag_0_115, shl(0x20, tag_4))\n    /* \"contracts/CreatorsContent.sol\":867:884  idCourses.reset() */\n  0x20\n  shr\n  jump\t// in\ntag_3:\n    /* \"contracts/CreatorsContent.sol\":124:6523  contract CreatorsContent {... */\n  jump(tag_5)\n    /* \"@openzeppelin/contracts/utils/Counters.sol\":1309:1393  function reset(Counter storage counter) internal {... */\ntag_4:\n    /* \"@openzeppelin/contracts/utils/Counters.sol\":1385:1386  0 */\n  0x00\n    /* \"@openzeppelin/contracts/utils/Counters.sol\":1368:1375  counter */\n  dup2\n    /* \"@openzeppelin/contracts/utils/Counters.sol\":1368:1382  counter._value */\n  0x00\n  add\n    /* \"@openzeppelin/contracts/utils/Counters.sol\":1368:1386  counter._value = 0 */\n  dup2\n  swap1\n  sstore\n  pop\n    /* \"@openzeppelin/contracts/utils/Counters.sol\":1309:1393  function reset(Counter storage counter) internal {... */\n  pop\n  jump\t// out\n    /* \"contracts/CreatorsContent.sol\":124:6523  contract CreatorsContent {... */\ntag_5:\n  dataSize(sub_0)\n  dup1\n  dataOffset(sub_0)\n  0x00\n  codecopy\n  0x00\n  return\nstop\n\nsub_0: assembly {\n        /* \"contracts/CreatorsContent.sol\":124:6523  contract CreatorsContent {... */\n      mstore(0x40, 0x80)\n      jumpi(tag_1, lt(calldatasize, 0x04))\n      shr(0xe0, calldataload(0x00))\n      dup1\n      0x7ec1061a\n      gt\n      tag_20\n      jumpi\n      dup1\n      0xbed34bba\n      gt\n      tag_21\n      jumpi\n      dup1\n      0xbed34bba\n      eq\n      tag_15\n      jumpi\n      dup1\n      0xd6cfa440\n      eq\n      tag_16\n      jumpi\n      dup1\n      0xe44c76ea\n      eq\n      tag_17\n      jumpi\n      dup1\n      0xf70d205c\n      eq\n      tag_18\n      jumpi\n      dup1\n      0xfb5d7a1f\n      eq\n      tag_19\n      jumpi\n      jump(tag_1)\n    tag_21:\n      dup1\n      0x7ec1061a\n      eq\n      tag_11\n      jumpi\n      dup1\n      0x809dab6a\n      eq\n      tag_12\n      jumpi\n      dup1\n      0x8e4a6680\n      eq\n      tag_13\n      jumpi\n      dup1\n      0xb79367c4\n      eq\n      tag_14\n      jumpi\n      jump(tag_1)\n    tag_20:\n      dup1\n      0x2cc59076\n      gt\n      tag_22\n      jumpi\n      dup1\n      0x2cc59076\n      eq\n      tag_6\n      jumpi\n      dup1\n      0x38880d55\n      eq\n      tag_7\n      jumpi\n      dup1\n      0x3b342e8e\n      eq\n      tag_8\n      jumpi\n      dup1\n      0x4cea965e\n      eq\n      tag_9\n      jumpi\n      dup1\n      0x6f9fb98a\n      eq\n      tag_10\n      jumpi\n      jump(tag_1)\n    tag_22:\n      dup1\n      0x04e48bd1\n      eq\n      tag_2\n      jumpi\n      dup1\n      0x0e61a0ee\n      eq\n      tag_3\n      jumpi\n      dup1\n      0x1fc25cdd\n      eq\n      tag_4\n      jumpi\n      dup1\n      0x21527e50\n      eq\n      tag_5\n      jumpi\n    tag_1:\n      0x00\n      dup1\n      revert\n        /* \"contracts/CreatorsContent.sol\":2110:2206  function getAllCourses() public view returns (Content[] memory) {... */\n    tag_2:\n      callvalue\n      dup1\n      iszero\n      tag_23\n      jumpi\n      0x00\n      dup1\n      revert\n    tag_23:\n      pop\n      tag_24\n      tag_25\n      jump\t// in\n    tag_24:\n      mload(0x40)\n      tag_26\n      swap2\n      swap1\n      tag_27\n      jump\t// in\n    tag_26:\n      mload(0x40)\n      dup1\n      swap2\n      sub\n      swap1\n      return\n        /* \"contracts/CreatorsContent.sol\":5773:6067  function getAllBalanceForCreator(address payable addr) public payable {... */\n    tag_3:\n      tag_28\n      0x04\n      dup1\n      calldatasize\n      sub\n      dup2\n      add\n      swap1\n      tag_29\n      swap2\n      swap1\n      tag_30\n      jump\t// in\n    tag_29:\n      tag_31\n      jump\t// in\n    tag_28:\n      stop\n        /* \"contracts/CreatorsContent.sol\":3375:3852  function createNewProfile(string memory handle, string memory profilePic) public returns (bool) {... */\n    tag_4:\n      callvalue\n      dup1\n      iszero\n      tag_32\n      jumpi\n      0x00\n      dup1\n      revert\n    tag_32:\n      pop\n      tag_33\n      0x04\n      dup1\n      calldatasize\n      sub\n      dup2\n      add\n      swap1\n      tag_34\n      swap2\n      swap1\n      tag_35\n      jump\t// in\n    tag_34:\n      tag_36\n      jump\t// in\n    tag_33:\n      mload(0x40)\n      tag_37\n      swap2\n      swap1\n      tag_38\n      jump\t// in\n    tag_37:\n      mload(0x40)\n      dup1\n      swap2\n      sub\n      swap1\n      return\n        /* \"contracts/CreatorsContent.sol\":4463:4632  function getMyProfile() public view returns (Profile memory) {... */\n    tag_5:\n      callvalue\n      dup1\n      iszero\n      tag_39\n      jumpi\n      0x00\n      dup1\n      revert\n    tag_39:\n      pop\n      tag_40\n      tag_41\n      jump\t// in\n    tag_40:\n      mload(0x40)\n      tag_42\n      swap2\n      swap1\n      tag_43\n      jump\t// in\n    tag_42:\n      mload(0x40)\n      dup1\n      swap2\n      sub\n      swap1\n      return\n        /* \"contracts/CreatorsContent.sol\":1475:2099  function getMyCourses() public view returns (Content[] memory) {... */\n    tag_6:\n      callvalue\n      dup1\n      iszero\n      tag_44\n      jumpi\n      0x00\n      dup1\n      revert\n    tag_44:\n      pop\n      tag_45\n      tag_46\n      jump\t// in\n    tag_45:\n      mload(0x40)\n      tag_47\n      swap2\n      swap1\n      tag_27\n      jump\t// in\n    tag_47:\n      mload(0x40)\n      dup1\n      swap2\n      sub\n      swap1\n      return\n        /* \"contracts/CreatorsContent.sol\":2212:2558  function createNewContent(... */\n    tag_7:\n      callvalue\n      dup1\n      iszero\n      tag_48\n      jumpi\n      0x00\n      dup1\n      revert\n    tag_48:\n      pop\n      tag_49\n      0x04\n      dup1\n      calldatasize\n      sub\n      dup2\n      add\n      swap1\n      tag_50\n      swap2\n      swap1\n      tag_51\n      jump\t// in\n    tag_50:\n      tag_52\n      jump\t// in\n    tag_49:\n      stop\n        /* \"contracts/CreatorsContent.sol\":702:727  Content[] public Contents */\n    tag_8:\n      callvalue\n      dup1\n      iszero\n      tag_53\n      jumpi\n      0x00\n      dup1\n      revert\n    tag_53:\n      pop\n      tag_54\n      0x04\n      dup1\n      calldatasize\n      sub\n      dup2\n      add\n      swap1\n      tag_55\n      swap2\n      swap1\n      tag_56\n      jump\t// in\n    tag_55:\n      tag_57\n      jump\t// in\n    tag_54:\n      mload(0x40)\n      tag_58\n      swap9\n      swap8\n      swap7\n      swap6\n      swap5\n      swap4\n      swap3\n      swap2\n      swap1\n      tag_59\n      jump\t// in\n    tag_58:\n      mload(0x40)\n      dup1\n      swap2\n      sub\n      swap1\n      return\n        /* \"contracts/CreatorsContent.sol\":733:758  Profile[] public Profiles */\n    tag_9:\n      callvalue\n      dup1\n      iszero\n      tag_60\n      jumpi\n      0x00\n      dup1\n      revert\n    tag_60:\n      pop\n      tag_61\n      0x04\n      dup1\n      calldatasize\n      sub\n      dup2\n      add\n      swap1\n      tag_62\n      swap2\n      swap1\n      tag_56\n      jump\t// in\n    tag_62:\n      tag_63\n      jump\t// in\n    tag_61:\n      mload(0x40)\n      tag_64\n      swap4\n      swap3\n      swap2\n      swap1\n      tag_65\n      jump\t// in\n    tag_64:\n      mload(0x40)\n      dup1\n      swap2\n      sub\n      swap1\n      return\n        /* \"contracts/CreatorsContent.sol\":4642:4747  function getContractBalance() public view returns (uint256) {... */\n    tag_10:\n      callvalue\n      dup1\n      iszero\n      tag_66\n      jumpi\n      0x00\n      dup1\n      revert\n    tag_66:\n      pop\n      tag_67\n      tag_68\n      jump\t// in\n    tag_67:\n      mload(0x40)\n      tag_69\n      swap2\n      swap1\n      tag_70\n      jump\t// in\n    tag_69:\n      mload(0x40)\n      dup1\n      swap2\n      sub\n      swap1\n      return\n        /* \"contracts/CreatorsContent.sol\":764:795  ContentBuy[] public ContentBuys */\n    tag_11:\n      callvalue\n      dup1\n      iszero\n      tag_71\n      jumpi\n      0x00\n      dup1\n      revert\n    tag_71:\n      pop\n      tag_72\n      0x04\n      dup1\n      calldatasize\n      sub\n      dup2\n      add\n      swap1\n      tag_73\n      swap2\n      swap1\n      tag_56\n      jump\t// in\n    tag_73:\n      tag_74\n      jump\t// in\n    tag_72:\n      mload(0x40)\n      tag_75\n      swap6\n      swap5\n      swap4\n      swap3\n      swap2\n      swap1\n      tag_76\n      jump\t// in\n    tag_75:\n      mload(0x40)\n      dup1\n      swap2\n      sub\n      swap1\n      return\n        /* \"contracts/CreatorsContent.sol\":4753:5092  function getAvailableBalance() public view returns (uint256) {... */\n    tag_12:\n      callvalue\n      dup1\n      iszero\n      tag_77\n      jumpi\n      0x00\n      dup1\n      revert\n    tag_77:\n      pop\n      tag_78\n      tag_79\n      jump\t// in\n    tag_78:\n      mload(0x40)\n      tag_80\n      swap2\n      swap1\n      tag_70\n      jump\t// in\n    tag_80:\n      mload(0x40)\n      dup1\n      swap2\n      sub\n      swap1\n      return\n        /* \"contracts/CreatorsContent.sol\":5100:5463  function getBuysFromAuthor() public view returns (ContentBuy[] memory) {... */\n    tag_13:\n      callvalue\n      dup1\n      iszero\n      tag_81\n      jumpi\n      0x00\n      dup1\n      revert\n    tag_81:\n      pop\n      tag_82\n      tag_83\n      jump\t// in\n    tag_82:\n      mload(0x40)\n      tag_84\n      swap2\n      swap1\n      tag_85\n      jump\t// in\n    tag_84:\n      mload(0x40)\n      dup1\n      swap2\n      sub\n      swap1\n      return\n        /* \"contracts/CreatorsContent.sol\":1176:1469  function getCourseDetail(uint256 id) public view returns (Content memory) {... */\n    tag_14:\n      callvalue\n      dup1\n      iszero\n      tag_86\n      jumpi\n      0x00\n      dup1\n      revert\n    tag_86:\n      pop\n      tag_87\n      0x04\n      dup1\n      calldatasize\n      sub\n      dup2\n      add\n      swap1\n      tag_88\n      swap2\n      swap1\n      tag_56\n      jump\t// in\n    tag_88:\n      tag_89\n      jump\t// in\n    tag_87:\n      mload(0x40)\n      tag_90\n      swap2\n      swap1\n      tag_91\n      jump\t// in\n    tag_90:\n      mload(0x40)\n      dup1\n      swap2\n      sub\n      swap1\n      return\n        /* \"contracts/CreatorsContent.sol\":2564:2743  function compareStrings(string memory a, string memory b) public pure returns (bool) {... */\n    tag_15:\n      callvalue\n      dup1\n      iszero\n      tag_92\n      jumpi\n      0x00\n      dup1\n      revert\n    tag_92:\n      pop\n      tag_93\n      0x04\n      dup1\n      calldatasize\n      sub\n      dup2\n      add\n      swap1\n      tag_94\n      swap2\n      swap1\n      tag_35\n      jump\t// in\n    tag_94:\n      tag_95\n      jump\t// in\n    tag_93:\n      mload(0x40)\n      tag_96\n      swap2\n      swap1\n      tag_38\n      jump\t// in\n    tag_96:\n      mload(0x40)\n      dup1\n      swap2\n      sub\n      swap1\n      return\n        /* \"contracts/CreatorsContent.sol\":6073:6520  function buyContent(uint256 idCourse) payable public {... */\n    tag_16:\n      tag_97\n      0x04\n      dup1\n      calldatasize\n      sub\n      dup2\n      add\n      swap1\n      tag_98\n      swap2\n      swap1\n      tag_56\n      jump\t// in\n    tag_98:\n      tag_99\n      jump\t// in\n    tag_97:\n      stop\n        /* \"contracts/CreatorsContent.sol\":3858:4246  function setProfileHandle(string memory handle) public returns (bool) {... */\n    tag_17:\n      callvalue\n      dup1\n      iszero\n      tag_100\n      jumpi\n      0x00\n      dup1\n      revert\n    tag_100:\n      pop\n      tag_101\n      0x04\n      dup1\n      calldatasize\n      sub\n      dup2\n      add\n      swap1\n      tag_102\n      swap2\n      swap1\n      tag_103\n      jump\t// in\n    tag_102:\n      tag_104\n      jump\t// in\n    tag_101:\n      mload(0x40)\n      tag_105\n      swap2\n      swap1\n      tag_38\n      jump\t// in\n    tag_105:\n      mload(0x40)\n      dup1\n      swap2\n      sub\n      swap1\n      return\n        /* \"contracts/CreatorsContent.sol\":4252:4457  function setProfileImage(string memory image) public returns (bool) {... */\n    tag_18:\n      callvalue\n      dup1\n      iszero\n      tag_106\n      jumpi\n      0x00\n      dup1\n      revert\n    tag_106:\n      pop\n      tag_107\n      0x04\n      dup1\n      calldatasize\n      sub\n      dup2\n      add\n      swap1\n      tag_108\n      swap2\n      swap1\n      tag_103\n      jump\t// in\n    tag_108:\n      tag_109\n      jump\t// in\n    tag_107:\n      mload(0x40)\n      tag_110\n      swap2\n      swap1\n      tag_38\n      jump\t// in\n    tag_110:\n      mload(0x40)\n      dup1\n      swap2\n      sub\n      swap1\n      return\n        /* \"contracts/CreatorsContent.sol\":5469:5766  function getBalanceForSingleBuy(address payable addr, uint256 indexBuy) public payable {... */\n    tag_19:\n      tag_111\n      0x04\n      dup1\n      calldatasize\n      sub\n      dup2\n      add\n      swap1\n      tag_112\n      swap2\n      swap1\n      tag_113\n      jump\t// in\n    tag_112:\n      tag_114\n      jump\t// in\n    tag_111:\n      stop\n        /* \"contracts/CreatorsContent.sol\":2110:2206  function getAllCourses() public view returns (Content[] memory) {... */\n    tag_25:\n        /* \"contracts/CreatorsContent.sol\":2156:2172  Content[] memory */\n      0x60\n        /* \"contracts/CreatorsContent.sol\":2191:2199  Contents */\n      0x00\n        /* \"contracts/CreatorsContent.sol\":2184:2199  return Contents */\n      dup1\n      sload\n      dup1\n      0x20\n      mul\n      0x20\n      add\n      mload(0x40)\n      swap1\n      dup2\n      add\n      0x40\n      mstore\n      dup1\n      swap3\n      swap2\n      swap1\n      dup2\n      dup2\n      mstore\n      0x20\n      add\n      0x00\n      swap1\n    tag_117:\n      dup3\n      dup3\n      lt\n      iszero\n      tag_118\n      jumpi\n      dup4\n      dup3\n      swap1\n      0x00\n      mstore\n      keccak256(0x00, 0x20)\n      swap1\n      0x08\n      mul\n      add\n      mload(0x40)\n      dup1\n      0x0100\n      add\n      0x40\n      mstore\n      swap1\n      dup2\n      0x00\n      dup3\n      add\n      sload\n      dup2\n      mstore\n      0x20\n      add\n      0x01\n      dup3\n      add\n      0x00\n      swap1\n      sload\n      swap1\n      0x0100\n      exp\n      swap1\n      div\n      0xffffffffffffffffffffffffffffffffffffffff\n      and\n      0xffffffffffffffffffffffffffffffffffffffff\n      and\n      0xffffffffffffffffffffffffffffffffffffffff\n      and\n      dup2\n      mstore\n      0x20\n      add\n      0x02\n      dup3\n      add\n      dup1\n      sload\n      tag_120\n      swap1\n      tag_121\n      jump\t// in\n    tag_120:\n      dup1\n      0x1f\n      add\n      0x20\n      dup1\n      swap2\n      div\n      mul\n      0x20\n      add\n      mload(0x40)\n      swap1\n      dup2\n      add\n      0x40\n      mstore\n      dup1\n      swap3\n      swap2\n      swap1\n      dup2\n      dup2\n      mstore\n      0x20\n      add\n      dup3\n      dup1\n      sload\n      tag_122\n      swap1\n      tag_121\n      jump\t// in\n    tag_122:\n      dup1\n      iszero\n      tag_123\n      jumpi\n      dup1\n      0x1f\n      lt\n      tag_124\n      jumpi\n      0x0100\n      dup1\n      dup4\n      sload\n      div\n      mul\n      dup4\n      mstore\n      swap2\n      0x20\n      add\n      swap2\n      jump(tag_123)\n    tag_124:\n      dup3\n      add\n      swap2\n      swap1\n      0x00\n      mstore\n      keccak256(0x00, 0x20)\n      swap1\n    tag_125:\n      dup2\n      sload\n      dup2\n      mstore\n      swap1\n      0x01\n      add\n      swap1\n      0x20\n      add\n      dup1\n      dup4\n      gt\n      tag_125\n      jumpi\n      dup3\n      swap1\n      sub\n      0x1f\n      and\n      dup3\n      add\n      swap2\n    tag_123:\n      pop\n      pop\n      pop\n      pop\n      pop\n      dup2\n      mstore\n      0x20\n      add\n      0x03\n      dup3\n      add\n      dup1\n      sload\n      tag_126\n      swap1\n      tag_121\n      jump\t// in\n    tag_126:\n      dup1\n      0x1f\n      add\n      0x20\n      dup1\n      swap2\n      div\n      mul\n      0x20\n      add\n      mload(0x40)\n      swap1\n      dup2\n      add\n      0x40\n      mstore\n      dup1\n      swap3\n      swap2\n      swap1\n      dup2\n      dup2\n      mstore\n      0x20\n      add\n      dup3\n      dup1\n      sload\n      tag_127\n      swap1\n      tag_121\n      jump\t// in\n    tag_127:\n      dup1\n      iszero\n      tag_128\n      jumpi\n      dup1\n      0x1f\n      lt\n      tag_129\n      jumpi\n      0x0100\n      dup1\n      dup4\n      sload\n      div\n      mul\n      dup4\n      mstore\n      swap2\n      0x20\n      add\n      swap2\n      jump(tag_128)\n    tag_129:\n      dup3\n      add\n      swap2\n      swap1\n      0x00\n      mstore\n      keccak256(0x00, 0x20)\n      swap1\n    tag_130:\n      dup2\n      sload\n      dup2\n      mstore\n      swap1\n      0x01\n      add\n      swap1\n      0x20\n      add\n      dup1\n      dup4\n      gt\n      tag_130\n      jumpi\n      dup3\n      swap1\n      sub\n      0x1f\n      and\n      dup3\n      add\n      swap2\n    tag_128:\n      pop\n      pop\n      pop\n      pop\n      pop\n      dup2\n      mstore\n      0x20\n      add\n      0x04\n      dup3\n      add\n      sload\n      dup2\n      mstore\n      0x20\n      add\n      0x05\n      dup3\n      add\n      dup1\n      sload\n      tag_131\n      swap1\n      tag_121\n      jump\t// in\n    tag_131:\n      dup1\n      0x1f\n      add\n      0x20\n      dup1\n      swap2\n      div\n      mul\n      0x20\n      add\n      mload(0x40)\n      swap1\n      dup2\n      add\n      0x40\n      mstore\n      dup1\n      swap3\n      swap2\n      swap1\n      dup2\n      dup2\n      mstore\n      0x20\n      add\n      dup3\n      dup1\n      sload\n      tag_132\n      swap1\n      tag_121\n      jump\t// in\n    tag_132:\n      dup1\n      iszero\n      tag_133\n      jumpi\n      dup1\n      0x1f\n      lt\n      tag_134\n      jumpi\n      0x0100\n      dup1\n      dup4\n      sload\n      div\n      mul\n      dup4\n      mstore\n      swap2\n      0x20\n      add\n      swap2\n      jump(tag_133)\n    tag_134:\n      dup3\n      add\n      swap2\n      swap1\n      0x00\n      mstore\n      keccak256(0x00, 0x20)\n      swap1\n    tag_135:\n      dup2\n      sload\n      dup2\n      mstore\n      swap1\n      0x01\n      add\n      swap1\n      0x20\n      add\n      dup1\n      dup4\n      gt\n      tag_135\n      jumpi\n      dup3\n      swap1\n      sub\n      0x1f\n      and\n      dup3\n      add\n      swap2\n    tag_133:\n      pop\n      pop\n      pop\n      pop\n      pop\n      dup2\n      mstore\n      0x20\n      add\n      0x06\n      dup3\n      add\n      0x00\n      swap1\n      sload\n      swap1\n      0x0100\n      exp\n      swap1\n      div\n      0xff\n      and\n      iszero\n      iszero\n      iszero\n      iszero\n      dup2\n      mstore\n      0x20\n      add\n      0x07\n      dup3\n      add\n      dup1\n      sload\n      tag_136\n      swap1\n      tag_121\n      jump\t// in\n    tag_136:\n      dup1\n      0x1f\n      add\n      0x20\n      dup1\n      swap2\n      div\n      mul\n      0x20\n      add\n      mload(0x40)\n      swap1\n      dup2\n      add\n      0x40\n      mstore\n      dup1\n      swap3\n      swap2\n      swap1\n      dup2\n      dup2\n      mstore\n      0x20\n      add\n      dup3\n      dup1\n      sload\n      tag_137\n      swap1\n      tag_121\n      jump\t// in\n    tag_137:\n      dup1\n      iszero\n      tag_138\n      jumpi\n      dup1\n      0x1f\n      lt\n      tag_139\n      jumpi\n      0x0100\n      dup1\n      dup4\n      sload\n      div\n      mul\n      dup4\n      mstore\n      swap2\n      0x20\n      add\n      swap2\n      jump(tag_138)\n    tag_139:\n      dup3\n      add\n      swap2\n      swap1\n      0x00\n      mstore\n      keccak256(0x00, 0x20)\n      swap1\n    tag_140:\n      dup2\n      sload\n      dup2\n      mstore\n      swap1\n      0x01\n      add\n      swap1\n      0x20\n      add\n      dup1\n      dup4\n      gt\n      tag_140\n      jumpi\n      dup3\n      swap1\n      sub\n      0x1f\n      and\n      dup3\n      add\n      swap2\n    tag_138:\n      pop\n      pop\n      pop\n      pop\n      pop\n      dup2\n      mstore\n      pop\n      pop\n      dup2\n      mstore\n      0x20\n      add\n      swap1\n      0x01\n      add\n      swap1\n      jump(tag_117)\n    tag_118:\n      pop\n      pop\n      pop\n      pop\n      swap1\n      pop\n        /* \"contracts/CreatorsContent.sol\":2110:2206  function getAllCourses() public view returns (Content[] memory) {... */\n      swap1\n      jump\t// out\n        /* \"contracts/CreatorsContent.sol\":5773:6067  function getAllBalanceForCreator(address payable addr) public payable {... */\n    tag_31:\n        /* \"contracts/CreatorsContent.sol\":5853:5868  uint256 ammount */\n      0x00\n        /* \"contracts/CreatorsContent.sol\":5893:5914  getAvailableBalance() */\n      tag_142\n        /* \"contracts/CreatorsContent.sol\":5893:5912  getAvailableBalance */\n      tag_79\n        /* \"contracts/CreatorsContent.sol\":5893:5914  getAvailableBalance() */\n      jump\t// in\n    tag_142:\n        /* \"contracts/CreatorsContent.sol\":5883:5914  ammount = getAvailableBalance() */\n      swap1\n      pop\n        /* \"contracts/CreatorsContent.sol\":5925:5929  addr */\n      dup2\n        /* \"contracts/CreatorsContent.sol\":5925:5938  addr.transfer */\n      0xffffffffffffffffffffffffffffffffffffffff\n      and\n        /* \"contracts/CreatorsContent.sol\":5925:5947  addr.transfer(ammount) */\n      0x08fc\n        /* \"contracts/CreatorsContent.sol\":5939:5946  ammount */\n      dup3\n        /* \"contracts/CreatorsContent.sol\":5925:5947  addr.transfer(ammount) */\n      swap1\n      dup2\n      iszero\n      mul\n      swap1\n      mload(0x40)\n      0x00\n      mload(0x40)\n      dup1\n      dup4\n      sub\n      dup2\n      dup6\n      dup9\n      dup9\n      call\n      swap4\n      pop\n      pop\n      pop\n      pop\n      iszero\n      dup1\n      iszero\n      tag_144\n      jumpi\n      returndatasize\n      0x00\n      dup1\n      returndatacopy\n      revert(0x00, returndatasize)\n    tag_144:\n      pop\n        /* \"contracts/CreatorsContent.sol\":5963:5972  uint256 i */\n      0x00\n        /* \"contracts/CreatorsContent.sol\":5958:6061  for (uint256 i = 0; i < ContentBuys.length; i++) {... */\n    tag_145:\n        /* \"contracts/CreatorsContent.sol\":5982:5993  ContentBuys */\n      0x02\n        /* \"contracts/CreatorsContent.sol\":5982:6000  ContentBuys.length */\n      dup1\n      sload\n      swap1\n      pop\n        /* \"contracts/CreatorsContent.sol\":5978:5979  i */\n      dup2\n        /* \"contracts/CreatorsContent.sol\":5978:6000  i < ContentBuys.length */\n      lt\n        /* \"contracts/CreatorsContent.sol\":5958:6061  for (uint256 i = 0; i < ContentBuys.length; i++) {... */\n      iszero\n      tag_146\n      jumpi\n        /* \"contracts/CreatorsContent.sol\":6046:6050  true */\n      0x01\n        /* \"contracts/CreatorsContent.sol\":6021:6032  ContentBuys */\n      0x02\n        /* \"contracts/CreatorsContent.sol\":6033:6034  i */\n      dup3\n        /* \"contracts/CreatorsContent.sol\":6021:6035  ContentBuys[i] */\n      dup2\n      sload\n      dup2\n      lt\n      tag_148\n      jumpi\n      tag_149\n      tag_150\n      jump\t// in\n    tag_149:\n    tag_148:\n      swap1\n      0x00\n      mstore\n      keccak256(0x00, 0x20)\n      swap1\n      0x05\n      mul\n      add\n        /* \"contracts/CreatorsContent.sol\":6021:6043  ContentBuys[i].isPayed */\n      0x04\n      add\n      0x00\n        /* \"contracts/CreatorsContent.sol\":6021:6050  ContentBuys[i].isPayed = true */\n      0x0100\n      exp\n      dup2\n      sload\n      dup2\n      0xff\n      mul\n      not\n      and\n      swap1\n      dup4\n      iszero\n      iszero\n      mul\n      or\n      swap1\n      sstore\n      pop\n        /* \"contracts/CreatorsContent.sol\":6002:6005  i++ */\n      dup1\n      dup1\n      tag_152\n      swap1\n      tag_153\n      jump\t// in\n    tag_152:\n      swap2\n      pop\n      pop\n        /* \"contracts/CreatorsContent.sol\":5958:6061  for (uint256 i = 0; i < ContentBuys.length; i++) {... */\n      jump(tag_145)\n    tag_146:\n      pop\n        /* \"contracts/CreatorsContent.sol\":5843:6067  {... */\n      pop\n        /* \"contracts/CreatorsContent.sol\":5773:6067  function getAllBalanceForCreator(address payable addr) public payable {... */\n      pop\n      jump\t// out\n        /* \"contracts/CreatorsContent.sol\":3375:3852  function createNewProfile(string memory handle, string memory profilePic) public returns (bool) {... */\n    tag_36:\n        /* \"contracts/CreatorsContent.sol\":3465:3469  bool */\n      0x00\n        /* \"contracts/CreatorsContent.sol\":3493:3502  uint256 i */\n      dup1\n        /* \"contracts/CreatorsContent.sol\":3503:3504  0 */\n      0x00\n        /* \"contracts/CreatorsContent.sol\":3493:3504  uint256 i=0 */\n      swap1\n      pop\n        /* \"contracts/CreatorsContent.sol\":3488:3743  for (uint256 i=0; i < Profiles.length; i++) {... */\n    tag_155:\n        /* \"contracts/CreatorsContent.sol\":3510:3518  Profiles */\n      0x01\n        /* \"contracts/CreatorsContent.sol\":3510:3525  Profiles.length */\n      dup1\n      sload\n      swap1\n      pop\n        /* \"contracts/CreatorsContent.sol\":3506:3507  i */\n      dup2\n        /* \"contracts/CreatorsContent.sol\":3506:3525  i < Profiles.length */\n      lt\n        /* \"contracts/CreatorsContent.sol\":3488:3743  for (uint256 i=0; i < Profiles.length; i++) {... */\n      iszero\n      tag_156\n      jumpi\n        /* \"contracts/CreatorsContent.sol\":3550:3592  compareStrings(Profiles[i].handle, handle) */\n      tag_158\n        /* \"contracts/CreatorsContent.sol\":3565:3573  Profiles */\n      0x01\n        /* \"contracts/CreatorsContent.sol\":3574:3575  i */\n      dup3\n        /* \"contracts/CreatorsContent.sol\":3565:3576  Profiles[i] */\n      dup2\n      sload\n      dup2\n      lt\n      tag_159\n      jumpi\n      tag_160\n      tag_150\n      jump\t// in\n    tag_160:\n    tag_159:\n      swap1\n      0x00\n      mstore\n      keccak256(0x00, 0x20)\n      swap1\n      0x03\n      mul\n      add\n        /* \"contracts/CreatorsContent.sol\":3565:3583  Profiles[i].handle */\n      0x00\n      add\n        /* \"contracts/CreatorsContent.sol\":3550:3592  compareStrings(Profiles[i].handle, handle) */\n      dup1\n      sload\n      tag_162\n      swap1\n      tag_121\n      jump\t// in\n    tag_162:\n      dup1\n      0x1f\n      add\n      0x20\n      dup1\n      swap2\n      div\n      mul\n      0x20\n      add\n      mload(0x40)\n      swap1\n      dup2\n      add\n      0x40\n      mstore\n      dup1\n      swap3\n      swap2\n      swap1\n      dup2\n      dup2\n      mstore\n      0x20\n      add\n      dup3\n      dup1\n      sload\n      tag_163\n      swap1\n      tag_121\n      jump\t// in\n    tag_163:\n      dup1\n      iszero\n      tag_164\n      jumpi\n      dup1\n      0x1f\n      lt\n      tag_165\n      jumpi\n      0x0100\n      dup1\n      dup4\n      sload\n      div\n      mul\n      dup4\n      mstore\n      swap2\n      0x20\n      add\n      swap2\n      jump(tag_164)\n    tag_165:\n      dup3\n      add\n      swap2\n      swap1\n      0x00\n      mstore\n      keccak256(0x00, 0x20)\n      swap1\n    tag_166:\n      dup2\n      sload\n      dup2\n      mstore\n      swap1\n      0x01\n      add\n      swap1\n      0x20\n      add\n      dup1\n      dup4\n      gt\n      tag_166\n      jumpi\n      dup3\n      swap1\n      sub\n      0x1f\n      and\n      dup3\n      add\n      swap2\n    tag_164:\n      pop\n      pop\n      pop\n      pop\n      pop\n        /* \"contracts/CreatorsContent.sol\":3585:3591  handle */\n      dup6\n        /* \"contracts/CreatorsContent.sol\":3550:3564  compareStrings */\n      tag_95\n        /* \"contracts/CreatorsContent.sol\":3550:3592  compareStrings(Profiles[i].handle, handle) */\n      jump\t// in\n    tag_158:\n        /* \"contracts/CreatorsContent.sol\":3546:3639  if (compareStrings(Profiles[i].handle, handle)) {... */\n      iszero\n      tag_167\n      jumpi\n        /* \"contracts/CreatorsContent.sol\":3619:3624  false */\n      0x00\n        /* \"contracts/CreatorsContent.sol\":3612:3624  return false */\n      swap2\n      pop\n      pop\n      jump(tag_154)\n        /* \"contracts/CreatorsContent.sol\":3546:3639  if (compareStrings(Profiles[i].handle, handle)) {... */\n    tag_167:\n        /* \"contracts/CreatorsContent.sol\":3676:3686  msg.sender */\n      caller\n        /* \"contracts/CreatorsContent.sol\":3656:3686  Profiles[i].addr == msg.sender */\n      0xffffffffffffffffffffffffffffffffffffffff\n      and\n        /* \"contracts/CreatorsContent.sol\":3656:3664  Profiles */\n      0x01\n        /* \"contracts/CreatorsContent.sol\":3665:3666  i */\n      dup3\n        /* \"contracts/CreatorsContent.sol\":3656:3667  Profiles[i] */\n      dup2\n      sload\n      dup2\n      lt\n      tag_168\n      jumpi\n      tag_169\n      tag_150\n      jump\t// in\n    tag_169:\n    tag_168:\n      swap1\n      0x00\n      mstore\n      keccak256(0x00, 0x20)\n      swap1\n      0x03\n      mul\n      add\n        /* \"contracts/CreatorsContent.sol\":3656:3672  Profiles[i].addr */\n      0x01\n      add\n      0x00\n      swap1\n      sload\n      swap1\n      0x0100\n      exp\n      swap1\n      div\n      0xffffffffffffffffffffffffffffffffffffffff\n      and\n        /* \"contracts/CreatorsContent.sol\":3656:3686  Profiles[i].addr == msg.sender */\n      0xffffffffffffffffffffffffffffffffffffffff\n      and\n      sub\n        /* \"contracts/CreatorsContent.sol\":3652:3733  if (Profiles[i].addr == msg.sender) {... */\n      tag_171\n      jumpi\n        /* \"contracts/CreatorsContent.sol\":3713:3718  false */\n      0x00\n        /* \"contracts/CreatorsContent.sol\":3706:3718  return false */\n      swap2\n      pop\n      pop\n      jump(tag_154)\n        /* \"contracts/CreatorsContent.sol\":3652:3733  if (Profiles[i].addr == msg.sender) {... */\n    tag_171:\n        /* \"contracts/CreatorsContent.sol\":3527:3530  i++ */\n      dup1\n      dup1\n      tag_172\n      swap1\n      tag_153\n      jump\t// in\n    tag_172:\n      swap2\n      pop\n      pop\n        /* \"contracts/CreatorsContent.sol\":3488:3743  for (uint256 i=0; i < Profiles.length; i++) {... */\n      jump(tag_155)\n    tag_156:\n      pop\n        /* \"contracts/CreatorsContent.sol\":3761:3769  Profiles */\n      0x01\n        /* \"contracts/CreatorsContent.sol\":3775:3814  Profile(handle, msg.sender, profilePic) */\n      mload(0x40)\n      dup1\n      0x60\n      add\n      0x40\n      mstore\n      dup1\n        /* \"contracts/CreatorsContent.sol\":3783:3789  handle */\n      dup6\n        /* \"contracts/CreatorsContent.sol\":3775:3814  Profile(handle, msg.sender, profilePic) */\n      dup2\n      mstore\n      0x20\n      add\n        /* \"contracts/CreatorsContent.sol\":3791:3801  msg.sender */\n      caller\n        /* \"contracts/CreatorsContent.sol\":3775:3814  Profile(handle, msg.sender, profilePic) */\n      0xffffffffffffffffffffffffffffffffffffffff\n      and\n      dup2\n      mstore\n      0x20\n      add\n        /* \"contracts/CreatorsContent.sol\":3803:3813  profilePic */\n      dup5\n        /* \"contracts/CreatorsContent.sol\":3775:3814  Profile(handle, msg.sender, profilePic) */\n      dup2\n      mstore\n      pop\n        /* \"contracts/CreatorsContent.sol\":3761:3815  Profiles.push(Profile(handle, msg.sender, profilePic)) */\n      swap1\n      dup1\n      0x01\n      dup2\n      sload\n      add\n      dup1\n      dup3\n      sstore\n      dup1\n      swap2\n      pop\n      pop\n      0x01\n      swap1\n      sub\n      swap1\n      0x00\n      mstore\n      keccak256(0x00, 0x20)\n      swap1\n      0x03\n      mul\n      add\n      0x00\n      swap1\n      swap2\n      swap1\n      swap2\n      swap1\n      swap2\n      pop\n      0x00\n      dup3\n      add\n      mload\n      dup2\n      0x00\n      add\n      swap1\n      dup2\n      tag_174\n      swap2\n      swap1\n      tag_175\n      jump\t// in\n    tag_174:\n      pop\n      0x20\n      dup3\n      add\n      mload\n      dup2\n      0x01\n      add\n      exp(0x0100, 0x00)\n      dup2\n      sload\n      dup2\n      0xffffffffffffffffffffffffffffffffffffffff\n      mul\n      not\n      and\n      swap1\n      dup4\n      0xffffffffffffffffffffffffffffffffffffffff\n      and\n      mul\n      or\n      swap1\n      sstore\n      pop\n      0x40\n      dup3\n      add\n      mload\n      dup2\n      0x02\n      add\n      swap1\n      dup2\n      tag_176\n      swap2\n      swap1\n      tag_175\n      jump\t// in\n    tag_176:\n      pop\n      pop\n      pop\n        /* \"contracts/CreatorsContent.sol\":3832:3836  true */\n      0x01\n        /* \"contracts/CreatorsContent.sol\":3825:3836  return true */\n      swap1\n      pop\n        /* \"contracts/CreatorsContent.sol\":3375:3852  function createNewProfile(string memory handle, string memory profilePic) public returns (bool) {... */\n    tag_154:\n      swap3\n      swap2\n      pop\n      pop\n      jump\t// out\n        /* \"contracts/CreatorsContent.sol\":4463:4632  function getMyProfile() public view returns (Profile memory) {... */\n    tag_41:\n        /* \"contracts/CreatorsContent.sol\":4508:4522  Profile memory */\n      tag_177\n      tag_178\n      jump\t// in\n    tag_177:\n        /* \"contracts/CreatorsContent.sol\":4534:4561  Profile memory localProfile */\n      0x00\n        /* \"contracts/CreatorsContent.sol\":4564:4595  getProfileByAddress(msg.sender) */\n      tag_180\n        /* \"contracts/CreatorsContent.sol\":4584:4594  msg.sender */\n      caller\n        /* \"contracts/CreatorsContent.sol\":4564:4583  getProfileByAddress */\n      tag_181\n        /* \"contracts/CreatorsContent.sol\":4564:4595  getProfileByAddress(msg.sender) */\n      jump\t// in\n    tag_180:\n        /* \"contracts/CreatorsContent.sol\":4534:4595  Profile memory localProfile = getProfileByAddress(msg.sender) */\n      swap1\n      pop\n        /* \"contracts/CreatorsContent.sol\":4613:4625  localProfile */\n      dup1\n        /* \"contracts/CreatorsContent.sol\":4606:4625  return localProfile */\n      swap2\n      pop\n      pop\n        /* \"contracts/CreatorsContent.sol\":4463:4632  function getMyProfile() public view returns (Profile memory) {... */\n      swap1\n      jump\t// out\n        /* \"contracts/CreatorsContent.sol\":1475:2099  function getMyCourses() public view returns (Content[] memory) {... */\n    tag_46:\n        /* \"contracts/CreatorsContent.sol\":1520:1536  Content[] memory */\n      0x60\n        /* \"contracts/CreatorsContent.sol\":1604:1615  uint256 len */\n      0x00\n        /* \"contracts/CreatorsContent.sol\":1618:1647  getUserCoursesLen(msg.sender) */\n      tag_183\n        /* \"contracts/CreatorsContent.sol\":1636:1646  msg.sender */\n      caller\n        /* \"contracts/CreatorsContent.sol\":1618:1635  getUserCoursesLen */\n      tag_184\n        /* \"contracts/CreatorsContent.sol\":1618:1647  getUserCoursesLen(msg.sender) */\n      jump\t// in\n    tag_183:\n        /* \"contracts/CreatorsContent.sol\":1604:1647  uint256 len = getUserCoursesLen(msg.sender) */\n      swap1\n      pop\n        /* \"contracts/CreatorsContent.sol\":1705:1725  uint256 indexCourses */\n      0x00\n        /* \"contracts/CreatorsContent.sol\":1792:1820  Content[] memory userCourses */\n      dup1\n        /* \"contracts/CreatorsContent.sol\":1837:1840  len */\n      dup3\n        /* \"contracts/CreatorsContent.sol\":1823:1841  new Content[](len) */\n      0xffffffffffffffff\n      dup2\n      gt\n      iszero\n      tag_185\n      jumpi\n      tag_186\n      tag_187\n      jump\t// in\n    tag_186:\n    tag_185:\n      mload(0x40)\n      swap1\n      dup1\n      dup3\n      mstore\n      dup1\n      0x20\n      mul\n      0x20\n      add\n      dup3\n      add\n      0x40\n      mstore\n      dup1\n      iszero\n      tag_188\n      jumpi\n      dup2\n      0x20\n      add\n    tag_189:\n      tag_190\n      tag_191\n      jump\t// in\n    tag_190:\n      dup2\n      mstore\n      0x20\n      add\n      swap1\n      0x01\n      swap1\n      sub\n      swap1\n      dup2\n      tag_189\n      jumpi\n      swap1\n      pop\n    tag_188:\n      pop\n        /* \"contracts/CreatorsContent.sol\":1792:1841  Content[] memory userCourses = new Content[](len) */\n      swap1\n      pop\n        /* \"contracts/CreatorsContent.sol\":1857:1866  uint256 i */\n      0x00\n        /* \"contracts/CreatorsContent.sol\":1852:2064  for (uint256 i=0; i < Contents.length ; i++) {... */\n    tag_192:\n        /* \"contracts/CreatorsContent.sol\":1874:1882  Contents */\n      0x00\n        /* \"contracts/CreatorsContent.sol\":1874:1889  Contents.length */\n      dup1\n      sload\n      swap1\n      pop\n        /* \"contracts/CreatorsContent.sol\":1870:1871  i */\n      dup2\n        /* \"contracts/CreatorsContent.sol\":1870:1889  i < Contents.length */\n      lt\n        /* \"contracts/CreatorsContent.sol\":1852:2064  for (uint256 i=0; i < Contents.length ; i++) {... */\n      iszero\n      tag_193\n      jumpi\n        /* \"contracts/CreatorsContent.sol\":1937:1947  msg.sender */\n      caller\n        /* \"contracts/CreatorsContent.sol\":1915:1947  Contents[i].author == msg.sender */\n      0xffffffffffffffffffffffffffffffffffffffff\n      and\n        /* \"contracts/CreatorsContent.sol\":1915:1923  Contents */\n      0x00\n        /* \"contracts/CreatorsContent.sol\":1924:1925  i */\n      dup3\n        /* \"contracts/CreatorsContent.sol\":1915:1926  Contents[i] */\n      dup2\n      sload\n      dup2\n      lt\n      tag_195\n      jumpi\n      tag_196\n      tag_150\n      jump\t// in\n    tag_196:\n    tag_195:\n      swap1\n      0x00\n      mstore\n      keccak256(0x00, 0x20)\n      swap1\n      0x08\n      mul\n      add\n        /* \"contracts/CreatorsContent.sol\":1915:1933  Contents[i].author */\n      0x01\n      add\n      0x00\n      swap1\n      sload\n      swap1\n      0x0100\n      exp\n      swap1\n      div\n      0xffffffffffffffffffffffffffffffffffffffff\n      and\n        /* \"contracts/CreatorsContent.sol\":1915:1947  Contents[i].author == msg.sender */\n      0xffffffffffffffffffffffffffffffffffffffff\n      and\n      sub\n        /* \"contracts/CreatorsContent.sol\":1911:2054  if (Contents[i].author == msg.sender) {... */\n      tag_198\n      jumpi\n        /* \"contracts/CreatorsContent.sol\":1995:2003  Contents */\n      0x00\n        /* \"contracts/CreatorsContent.sol\":2004:2005  i */\n      dup2\n        /* \"contracts/CreatorsContent.sol\":1995:2006  Contents[i] */\n      dup2\n      sload\n      dup2\n      lt\n      tag_199\n      jumpi\n      tag_200\n      tag_150\n      jump\t// in\n    tag_200:\n    tag_199:\n      swap1\n      0x00\n      mstore\n      keccak256(0x00, 0x20)\n      swap1\n      0x08\n      mul\n      add\n        /* \"contracts/CreatorsContent.sol\":1967:2006  userCourses[indexCourses] = Contents[i] */\n      mload(0x40)\n      dup1\n      0x0100\n      add\n      0x40\n      mstore\n      swap1\n      dup2\n      0x00\n      dup3\n      add\n      sload\n      dup2\n      mstore\n      0x20\n      add\n      0x01\n      dup3\n      add\n      0x00\n      swap1\n      sload\n      swap1\n      0x0100\n      exp\n      swap1\n      div\n      0xffffffffffffffffffffffffffffffffffffffff\n      and\n      0xffffffffffffffffffffffffffffffffffffffff\n      and\n      0xffffffffffffffffffffffffffffffffffffffff\n      and\n      dup2\n      mstore\n      0x20\n      add\n      0x02\n      dup3\n      add\n      dup1\n      sload\n      tag_202\n      swap1\n      tag_121\n      jump\t// in\n    tag_202:\n      dup1\n      0x1f\n      add\n      0x20\n      dup1\n      swap2\n      div\n      mul\n      0x20\n      add\n      mload(0x40)\n      swap1\n      dup2\n      add\n      0x40\n      mstore\n      dup1\n      swap3\n      swap2\n      swap1\n      dup2\n      dup2\n      mstore\n      0x20\n      add\n      dup3\n      dup1\n      sload\n      tag_203\n      swap1\n      tag_121\n      jump\t// in\n    tag_203:\n      dup1\n      iszero\n      tag_204\n      jumpi\n      dup1\n      0x1f\n      lt\n      tag_205\n      jumpi\n      0x0100\n      dup1\n      dup4\n      sload\n      div\n      mul\n      dup4\n      mstore\n      swap2\n      0x20\n      add\n      swap2\n      jump(tag_204)\n    tag_205:\n      dup3\n      add\n      swap2\n      swap1\n      0x00\n      mstore\n      keccak256(0x00, 0x20)\n      swap1\n    tag_206:\n      dup2\n      sload\n      dup2\n      mstore\n      swap1\n      0x01\n      add\n      swap1\n      0x20\n      add\n      dup1\n      dup4\n      gt\n      tag_206\n      jumpi\n      dup3\n      swap1\n      sub\n      0x1f\n      and\n      dup3\n      add\n      swap2\n    tag_204:\n      pop\n      pop\n      pop\n      pop\n      pop\n      dup2\n      mstore\n      0x20\n      add\n      0x03\n      dup3\n      add\n      dup1\n      sload\n      tag_207\n      swap1\n      tag_121\n      jump\t// in\n    tag_207:\n      dup1\n      0x1f\n      add\n      0x20\n      dup1\n      swap2\n      div\n      mul\n      0x20\n      add\n      mload(0x40)\n      swap1\n      dup2\n      add\n      0x40\n      mstore\n      dup1\n      swap3\n      swap2\n      swap1\n      dup2\n      dup2\n      mstore\n      0x20\n      add\n      dup3\n      dup1\n      sload\n      tag_208\n      swap1\n      tag_121\n      jump\t// in\n    tag_208:\n      dup1\n      iszero\n      tag_209\n      jumpi\n      dup1\n      0x1f\n      lt\n      tag_210\n      jumpi\n      0x0100\n      dup1\n      dup4\n      sload\n      div\n      mul\n      dup4\n      mstore\n      swap2\n      0x20\n      add\n      swap2\n      jump(tag_209)\n    tag_210:\n      dup3\n      add\n      swap2\n      swap1\n      0x00\n      mstore\n      keccak256(0x00, 0x20)\n      swap1\n    tag_211:\n      dup2\n      sload\n      dup2\n      mstore\n      swap1\n      0x01\n      add\n      swap1\n      0x20\n      add\n      dup1\n      dup4\n      gt\n      tag_211\n      jumpi\n      dup3\n      swap1\n      sub\n      0x1f\n      and\n      dup3\n      add\n      swap2\n    tag_209:\n      pop\n      pop\n      pop\n      pop\n      pop\n      dup2\n      mstore\n      0x20\n      add\n      0x04\n      dup3\n      add\n      sload\n      dup2\n      mstore\n      0x20\n      add\n      0x05\n      dup3\n      add\n      dup1\n      sload\n      tag_212\n      swap1\n      tag_121\n      jump\t// in\n    tag_212:\n      dup1\n      0x1f\n      add\n      0x20\n      dup1\n      swap2\n      div\n      mul\n      0x20\n      add\n      mload(0x40)\n      swap1\n      dup2\n      add\n      0x40\n      mstore\n      dup1\n      swap3\n      swap2\n      swap1\n      dup2\n      dup2\n      mstore\n      0x20\n      add\n      dup3\n      dup1\n      sload\n      tag_213\n      swap1\n      tag_121\n      jump\t// in\n    tag_213:\n      dup1\n      iszero\n      tag_214\n      jumpi\n      dup1\n      0x1f\n      lt\n      tag_215\n      jumpi\n      0x0100\n      dup1\n      dup4\n      sload\n      div\n      mul\n      dup4\n      mstore\n      swap2\n      0x20\n      add\n      swap2\n      jump(tag_214)\n    tag_215:\n      dup3\n      add\n      swap2\n      swap1\n      0x00\n      mstore\n      keccak256(0x00, 0x20)\n      swap1\n    tag_216:\n      dup2\n      sload\n      dup2\n      mstore\n      swap1\n      0x01\n      add\n      swap1\n      0x20\n      add\n      dup1\n      dup4\n      gt\n      tag_216\n      jumpi\n      dup3\n      swap1\n      sub\n      0x1f\n      and\n      dup3\n      add\n      swap2\n    tag_214:\n      pop\n      pop\n      pop\n      pop\n      pop\n      dup2\n      mstore\n      0x20\n      add\n      0x06\n      dup3\n      add\n      0x00\n      swap1\n      sload\n      swap1\n      0x0100\n      exp\n      swap1\n      div\n      0xff\n      and\n      iszero\n      iszero\n      iszero\n      iszero\n      dup2\n      mstore\n      0x20\n      add\n      0x07\n      dup3\n      add\n      dup1\n      sload\n      tag_217\n      swap1\n      tag_121\n      jump\t// in\n    tag_217:\n      dup1\n      0x1f\n      add\n      0x20\n      dup1\n      swap2\n      div\n      mul\n      0x20\n      add\n      mload(0x40)\n      swap1\n      dup2\n      add\n      0x40\n      mstore\n      dup1\n      swap3\n      swap2\n      swap1\n      dup2\n      dup2\n      mstore\n      0x20\n      add\n      dup3\n      dup1\n      sload\n      tag_218\n      swap1\n      tag_121\n      jump\t// in\n    tag_218:\n      dup1\n      iszero\n      tag_219\n      jumpi\n      dup1\n      0x1f\n      lt\n      tag_220\n      jumpi\n      0x0100\n      dup1\n      dup4\n      sload\n      div\n      mul\n      dup4\n      mstore\n      swap2\n      0x20\n      add\n      swap2\n      jump(tag_219)\n    tag_220:\n      dup3\n      add\n      swap2\n      swap1\n      0x00\n      mstore\n      keccak256(0x00, 0x20)\n      swap1\n    tag_221:\n      dup2\n      sload\n      dup2\n      mstore\n      swap1\n      0x01\n      add\n      swap1\n      0x20\n      add\n      dup1\n      dup4\n      gt\n      tag_221\n      jumpi\n      dup3\n      swap1\n      sub\n      0x1f\n      and\n      dup3\n      add\n      swap2\n    tag_219:\n      pop\n      pop\n      pop\n      pop\n      pop\n      dup2\n      mstore\n      pop\n      pop\n        /* \"contracts/CreatorsContent.sol\":1967:1978  userCourses */\n      dup3\n        /* \"contracts/CreatorsContent.sol\":1979:1991  indexCourses */\n      dup5\n        /* \"contracts/CreatorsContent.sol\":1967:1992  userCourses[indexCourses] */\n      dup2\n      mload\n      dup2\n      lt\n      tag_222\n      jumpi\n      tag_223\n      tag_150\n      jump\t// in\n    tag_223:\n    tag_222:\n      0x20\n      mul\n      0x20\n      add\n      add\n        /* \"contracts/CreatorsContent.sol\":1967:2006  userCourses[indexCourses] = Contents[i] */\n      dup2\n      swap1\n      mstore\n      pop\n        /* \"contracts/CreatorsContent.sol\":2024:2039  indexCourses ++ */\n      dup3\n      dup1\n      tag_224\n      swap1\n      tag_153\n      jump\t// in\n    tag_224:\n      swap4\n      pop\n      pop\n        /* \"contracts/CreatorsContent.sol\":1911:2054  if (Contents[i].author == msg.sender) {... */\n    tag_198:\n        /* \"contracts/CreatorsContent.sol\":1892:1895  i++ */\n      dup1\n      dup1\n      tag_225\n      swap1\n      tag_153\n      jump\t// in\n    tag_225:\n      swap2\n      pop\n      pop\n        /* \"contracts/CreatorsContent.sol\":1852:2064  for (uint256 i=0; i < Contents.length ; i++) {... */\n      jump(tag_192)\n    tag_193:\n      pop\n        /* \"contracts/CreatorsContent.sol\":2081:2092  userCourses */\n      dup1\n        /* \"contracts/CreatorsContent.sol\":2074:2092  return userCourses */\n      swap4\n      pop\n      pop\n      pop\n      pop\n        /* \"contracts/CreatorsContent.sol\":1475:2099  function getMyCourses() public view returns (Content[] memory) {... */\n      swap1\n      jump\t// out\n        /* \"contracts/CreatorsContent.sol\":2212:2558  function createNewContent(... */\n    tag_52:\n        /* \"contracts/CreatorsContent.sol\":2413:2421  Contents */\n      0x00\n        /* \"contracts/CreatorsContent.sol\":2427:2519  Content(idCourses.current(), msg.sender, title, description, price, video, false, mainImage) */\n      mload(0x40)\n      dup1\n      0x0100\n      add\n      0x40\n      mstore\n      dup1\n        /* \"contracts/CreatorsContent.sol\":2435:2454  idCourses.current() */\n      tag_227\n        /* \"contracts/CreatorsContent.sol\":2435:2444  idCourses */\n      0x03\n        /* \"contracts/CreatorsContent.sol\":2435:2452  idCourses.current */\n      tag_228\n        /* \"contracts/CreatorsContent.sol\":2435:2454  idCourses.current() */\n      jump\t// in\n    tag_227:\n        /* \"contracts/CreatorsContent.sol\":2427:2519  Content(idCourses.current(), msg.sender, title, description, price, video, false, mainImage) */\n      dup2\n      mstore\n      0x20\n      add\n        /* \"contracts/CreatorsContent.sol\":2456:2466  msg.sender */\n      caller\n        /* \"contracts/CreatorsContent.sol\":2427:2519  Content(idCourses.current(), msg.sender, title, description, price, video, false, mainImage) */\n      0xffffffffffffffffffffffffffffffffffffffff\n      and\n      dup2\n      mstore\n      0x20\n      add\n        /* \"contracts/CreatorsContent.sol\":2468:2473  title */\n      dup8\n        /* \"contracts/CreatorsContent.sol\":2427:2519  Content(idCourses.current(), msg.sender, title, description, price, video, false, mainImage) */\n      dup2\n      mstore\n      0x20\n      add\n        /* \"contracts/CreatorsContent.sol\":2475:2486  description */\n      dup7\n        /* \"contracts/CreatorsContent.sol\":2427:2519  Content(idCourses.current(), msg.sender, title, description, price, video, false, mainImage) */\n      dup2\n      mstore\n      0x20\n      add\n        /* \"contracts/CreatorsContent.sol\":2488:2493  price */\n      dup6\n        /* \"contracts/CreatorsContent.sol\":2427:2519  Content(idCourses.current(), msg.sender, title, description, price, video, false, mainImage) */\n      dup2\n      mstore\n      0x20\n      add\n        /* \"contracts/CreatorsContent.sol\":2495:2500  video */\n      dup5\n        /* \"contracts/CreatorsContent.sol\":2427:2519  Content(idCourses.current(), msg.sender, title, description, price, video, false, mainImage) */\n      dup2\n      mstore\n      0x20\n      add\n        /* \"contracts/CreatorsContent.sol\":2502:2507  false */\n      0x00\n        /* \"contracts/CreatorsContent.sol\":2427:2519  Content(idCourses.current(), msg.sender, title, description, price, video, false, mainImage) */\n      iszero\n      iszero\n      dup2\n      mstore\n      0x20\n      add\n        /* \"contracts/CreatorsContent.sol\":2509:2518  mainImage */\n      dup4\n        /* \"contracts/CreatorsContent.sol\":2427:2519  Content(idCourses.current(), msg.sender, title, description, price, video, false, mainImage) */\n      dup2\n      mstore\n      pop\n        /* \"contracts/CreatorsContent.sol\":2413:2520  Contents.push(Content(idCourses.current(), msg.sender, title, description, price, video, false, mainImage)) */\n      swap1\n      dup1\n      0x01\n      dup2\n      sload\n      add\n      dup1\n      dup3\n      sstore\n      dup1\n      swap2\n      pop\n      pop\n      0x01\n      swap1\n      sub\n      swap1\n      0x00\n      mstore\n      keccak256(0x00, 0x20)\n      swap1\n      0x08\n      mul\n      add\n      0x00\n      swap1\n      swap2\n      swap1\n      swap2\n      swap1\n      swap2\n      pop\n      0x00\n      dup3\n      add\n      mload\n      dup2\n      0x00\n      add\n      sstore\n      0x20\n      dup3\n      add\n      mload\n      dup2\n      0x01\n      add\n      exp(0x0100, 0x00)\n      dup2\n      sload\n      dup2\n      0xffffffffffffffffffffffffffffffffffffffff\n      mul\n      not\n      and\n      swap1\n      dup4\n      0xffffffffffffffffffffffffffffffffffffffff\n      and\n      mul\n      or\n      swap1\n      sstore\n      pop\n      0x40\n      dup3\n      add\n      mload\n      dup2\n      0x02\n      add\n      swap1\n      dup2\n      tag_230\n      swap2\n      swap1\n      tag_175\n      jump\t// in\n    tag_230:\n      pop\n      0x60\n      dup3\n      add\n      mload\n      dup2\n      0x03\n      add\n      swap1\n      dup2\n      tag_231\n      swap2\n      swap1\n      tag_175\n      jump\t// in\n    tag_231:\n      pop\n      0x80\n      dup3\n      add\n      mload\n      dup2\n      0x04\n      add\n      sstore\n      0xa0\n      dup3\n      add\n      mload\n      dup2\n      0x05\n      add\n      swap1\n      dup2\n      tag_232\n      swap2\n      swap1\n      tag_175\n      jump\t// in\n    tag_232:\n      pop\n      0xc0\n      dup3\n      add\n      mload\n      dup2\n      0x06\n      add\n      exp(0x0100, 0x00)\n      dup2\n      sload\n      dup2\n      0xff\n      mul\n      not\n      and\n      swap1\n      dup4\n      iszero\n      iszero\n      mul\n      or\n      swap1\n      sstore\n      pop\n      0xe0\n      dup3\n      add\n      mload\n      dup2\n      0x07\n      add\n      swap1\n      dup2\n      tag_233\n      swap2\n      swap1\n      tag_175\n      jump\t// in\n    tag_233:\n      pop\n      pop\n      pop\n        /* \"contracts/CreatorsContent.sol\":2530:2551  idCourses.increment() */\n      tag_234\n        /* \"contracts/CreatorsContent.sol\":2530:2539  idCourses */\n      0x03\n        /* \"contracts/CreatorsContent.sol\":2530:2549  idCourses.increment */\n      tag_235\n        /* \"contracts/CreatorsContent.sol\":2530:2551  idCourses.increment() */\n      jump\t// in\n    tag_234:\n        /* \"contracts/CreatorsContent.sol\":2212:2558  function createNewContent(... */\n      pop\n      pop\n      pop\n      pop\n      pop\n      jump\t// out\n        /* \"contracts/CreatorsContent.sol\":702:727  Content[] public Contents */\n    tag_57:\n      0x00\n      dup2\n      dup2\n      sload\n      dup2\n      lt\n      tag_236\n      jumpi\n      0x00\n      dup1\n      revert\n    tag_236:\n      swap1\n      0x00\n      mstore\n      keccak256(0x00, 0x20)\n      swap1\n      0x08\n      mul\n      add\n      0x00\n      swap2\n      pop\n      swap1\n      pop\n      dup1\n      0x00\n      add\n      sload\n      swap1\n      dup1\n      0x01\n      add\n      0x00\n      swap1\n      sload\n      swap1\n      0x0100\n      exp\n      swap1\n      div\n      0xffffffffffffffffffffffffffffffffffffffff\n      and\n      swap1\n      dup1\n      0x02\n      add\n      dup1\n      sload\n      tag_238\n      swap1\n      tag_121\n      jump\t// in\n    tag_238:\n      dup1\n      0x1f\n      add\n      0x20\n      dup1\n      swap2\n      div\n      mul\n      0x20\n      add\n      mload(0x40)\n      swap1\n      dup2\n      add\n      0x40\n      mstore\n      dup1\n      swap3\n      swap2\n      swap1\n      dup2\n      dup2\n      mstore\n      0x20\n      add\n      dup3\n      dup1\n      sload\n      tag_239\n      swap1\n      tag_121\n      jump\t// in\n    tag_239:\n      dup1\n      iszero\n      tag_240\n      jumpi\n      dup1\n      0x1f\n      lt\n      tag_241\n      jumpi\n      0x0100\n      dup1\n      dup4\n      sload\n      div\n      mul\n      dup4\n      mstore\n      swap2\n      0x20\n      add\n      swap2\n      jump(tag_240)\n    tag_241:\n      dup3\n      add\n      swap2\n      swap1\n      0x00\n      mstore\n      keccak256(0x00, 0x20)\n      swap1\n    tag_242:\n      dup2\n      sload\n      dup2\n      mstore\n      swap1\n      0x01\n      add\n      swap1\n      0x20\n      add\n      dup1\n      dup4\n      gt\n      tag_242\n      jumpi\n      dup3\n      swap1\n      sub\n      0x1f\n      and\n      dup3\n      add\n      swap2\n    tag_240:\n      pop\n      pop\n      pop\n      pop\n      pop\n      swap1\n      dup1\n      0x03\n      add\n      dup1\n      sload\n      tag_243\n      swap1\n      tag_121\n      jump\t// in\n    tag_243:\n      dup1\n      0x1f\n      add\n      0x20\n      dup1\n      swap2\n      div\n      mul\n      0x20\n      add\n      mload(0x40)\n      swap1\n      dup2\n      add\n      0x40\n      mstore\n      dup1\n      swap3\n      swap2\n      swap1\n      dup2\n      dup2\n      mstore\n      0x20\n      add\n      dup3\n      dup1\n      sload\n      tag_244\n      swap1\n      tag_121\n      jump\t// in\n    tag_244:\n      dup1\n      iszero\n      tag_245\n      jumpi\n      dup1\n      0x1f\n      lt\n      tag_246\n      jumpi\n      0x0100\n      dup1\n      dup4\n      sload\n      div\n      mul\n      dup4\n      mstore\n      swap2\n      0x20\n      add\n      swap2\n      jump(tag_245)\n    tag_246:\n      dup3\n      add\n      swap2\n      swap1\n      0x00\n      mstore\n      keccak256(0x00, 0x20)\n      swap1\n    tag_247:\n      dup2\n      sload\n      dup2\n      mstore\n      swap1\n      0x01\n      add\n      swap1\n      0x20\n      add\n      dup1\n      dup4\n      gt\n      tag_247\n      jumpi\n      dup3\n      swap1\n      sub\n      0x1f\n      and\n      dup3\n      add\n      swap2\n    tag_245:\n      pop\n      pop\n      pop\n      pop\n      pop\n      swap1\n      dup1\n      0x04\n      add\n      sload\n      swap1\n      dup1\n      0x05\n      add\n      dup1\n      sload\n      tag_248\n      swap1\n      tag_121\n      jump\t// in\n    tag_248:\n      dup1\n      0x1f\n      add\n      0x20\n      dup1\n      swap2\n      div\n      mul\n      0x20\n      add\n      mload(0x40)\n      swap1\n      dup2\n      add\n      0x40\n      mstore\n      dup1\n      swap3\n      swap2\n      swap1\n      dup2\n      dup2\n      mstore\n      0x20\n      add\n      dup3\n      dup1\n      sload\n      tag_249\n      swap1\n      tag_121\n      jump\t// in\n    tag_249:\n      dup1\n      iszero\n      tag_250\n      jumpi\n      dup1\n      0x1f\n      lt\n      tag_251\n      jumpi\n      0x0100\n      dup1\n      dup4\n      sload\n      div\n      mul\n      dup4\n      mstore\n      swap2\n      0x20\n      add\n      swap2\n      jump(tag_250)\n    tag_251:\n      dup3\n      add\n      swap2\n      swap1\n      0x00\n      mstore\n      keccak256(0x00, 0x20)\n      swap1\n    tag_252:\n      dup2\n      sload\n      dup2\n      mstore\n      swap1\n      0x01\n      add\n      swap1\n      0x20\n      add\n      dup1\n      dup4\n      gt\n      tag_252\n      jumpi\n      dup3\n      swap1\n      sub\n      0x1f\n      and\n      dup3\n      add\n      swap2\n    tag_250:\n      pop\n      pop\n      pop\n      pop\n      pop\n      swap1\n      dup1\n      0x06\n      add\n      0x00\n      swap1\n      sload\n      swap1\n      0x0100\n      exp\n      swap1\n      div\n      0xff\n      and\n      swap1\n      dup1\n      0x07\n      add\n      dup1\n      sload\n      tag_253\n      swap1\n      tag_121\n      jump\t// in\n    tag_253:\n      dup1\n      0x1f\n      add\n      0x20\n      dup1\n      swap2\n      div\n      mul\n      0x20\n      add\n      mload(0x40)\n      swap1\n      dup2\n      add\n      0x40\n      mstore\n      dup1\n      swap3\n      swap2\n      swap1\n      dup2\n      dup2\n      mstore\n      0x20\n      add\n      dup3\n      dup1\n      sload\n      tag_254\n      swap1\n      tag_121\n      jump\t// in\n    tag_254:\n      dup1\n      iszero\n      tag_255\n      jumpi\n      dup1\n      0x1f\n      lt\n      tag_256\n      jumpi\n      0x0100\n      dup1\n      dup4\n      sload\n      div\n      mul\n      dup4\n      mstore\n      swap2\n      0x20\n      add\n      swap2\n      jump(tag_255)\n    tag_256:\n      dup3\n      add\n      swap2\n      swap1\n      0x00\n      mstore\n      keccak256(0x00, 0x20)\n      swap1\n    tag_257:\n      dup2\n      sload\n      dup2\n      mstore\n      swap1\n      0x01\n      add\n      swap1\n      0x20\n      add\n      dup1\n      dup4\n      gt\n      tag_257\n      jumpi\n      dup3\n      swap1\n      sub\n      0x1f\n      and\n      dup3\n      add\n      swap2\n    tag_255:\n      pop\n      pop\n      pop\n      pop\n      pop\n      swap1\n      pop\n      dup9\n      jump\t// out\n        /* \"contracts/CreatorsContent.sol\":733:758  Profile[] public Profiles */\n    tag_63:\n      0x01\n      dup2\n      dup2\n      sload\n      dup2\n      lt\n      tag_258\n      jumpi\n      0x00\n      dup1\n      revert\n    tag_258:\n      swap1\n      0x00\n      mstore\n      keccak256(0x00, 0x20)\n      swap1\n      0x03\n      mul\n      add\n      0x00\n      swap2\n      pop\n      swap1\n      pop\n      dup1\n      0x00\n      add\n      dup1\n      sload\n      tag_260\n      swap1\n      tag_121\n      jump\t// in\n    tag_260:\n      dup1\n      0x1f\n      add\n      0x20\n      dup1\n      swap2\n      div\n      mul\n      0x20\n      add\n      mload(0x40)\n      swap1\n      dup2\n      add\n      0x40\n      mstore\n      dup1\n      swap3\n      swap2\n      swap1\n      dup2\n      dup2\n      mstore\n      0x20\n      add\n      dup3\n      dup1\n      sload\n      tag_261\n      swap1\n      tag_121\n      jump\t// in\n    tag_261:\n      dup1\n      iszero\n      tag_262\n      jumpi\n      dup1\n      0x1f\n      lt\n      tag_263\n      jumpi\n      0x0100\n      dup1\n      dup4\n      sload\n      div\n      mul\n      dup4\n      mstore\n      swap2\n      0x20\n      add\n      swap2\n      jump(tag_262)\n    tag_263:\n      dup3\n      add\n      swap2\n      swap1\n      0x00\n      mstore\n      keccak256(0x00, 0x20)\n      swap1\n    tag_264:\n      dup2\n      sload\n      dup2\n      mstore\n      swap1\n      0x01\n      add\n      swap1\n      0x20\n      add\n      dup1\n      dup4\n      gt\n      tag_264\n      jumpi\n      dup3\n      swap1\n      sub\n      0x1f\n      and\n      dup3\n      add\n      swap2\n    tag_262:\n      pop\n      pop\n      pop\n      pop\n      pop\n      swap1\n      dup1\n      0x01\n      add\n      0x00\n      swap1\n      sload\n      swap1\n      0x0100\n      exp\n      swap1\n      div\n      0xffffffffffffffffffffffffffffffffffffffff\n      and\n      swap1\n      dup1\n      0x02\n      add\n      dup1\n      sload\n      tag_265\n      swap1\n      tag_121\n      jump\t// in\n    tag_265:\n      dup1\n      0x1f\n      add\n      0x20\n      dup1\n      swap2\n      div\n      mul\n      0x20\n      add\n      mload(0x40)\n      swap1\n      dup2\n      add\n      0x40\n      mstore\n      dup1\n      swap3\n      swap2\n      swap1\n      dup2\n      dup2\n      mstore\n      0x20\n      add\n      dup3\n      dup1\n      sload\n      tag_266\n      swap1\n      tag_121\n      jump\t// in\n    tag_266:\n      dup1\n      iszero\n      tag_267\n      jumpi\n      dup1\n      0x1f\n      lt\n      tag_268\n      jumpi\n      0x0100\n      dup1\n      dup4\n      sload\n      div\n      mul\n      dup4\n      mstore\n      swap2\n      0x20\n      add\n      swap2\n      jump(tag_267)\n    tag_268:\n      dup3\n      add\n      swap2\n      swap1\n      0x00\n      mstore\n      keccak256(0x00, 0x20)\n      swap1\n    tag_269:\n      dup2\n      sload\n      dup2\n      mstore\n      swap1\n      0x01\n      add\n      swap1\n      0x20\n      add\n      dup1\n      dup4\n      gt\n      tag_269\n      jumpi\n      dup3\n      swap1\n      sub\n      0x1f\n      and\n      dup3\n      add\n      swap2\n    tag_267:\n      pop\n      pop\n      pop\n      pop\n      pop\n      swap1\n      pop\n      dup4\n      jump\t// out\n        /* \"contracts/CreatorsContent.sol\":4642:4747  function getContractBalance() public view returns (uint256) {... */\n    tag_68:\n        /* \"contracts/CreatorsContent.sol\":4693:4700  uint256 */\n      0x00\n        /* \"contracts/CreatorsContent.sol\":4719:4740  address(this).balance */\n      selfbalance\n        /* \"contracts/CreatorsContent.sol\":4712:4740  return address(this).balance */\n      swap1\n      pop\n        /* \"contracts/CreatorsContent.sol\":4642:4747  function getContractBalance() public view returns (uint256) {... */\n      swap1\n      jump\t// out\n        /* \"contracts/CreatorsContent.sol\":764:795  ContentBuy[] public ContentBuys */\n    tag_74:\n      0x02\n      dup2\n      dup2\n      sload\n      dup2\n      lt\n      tag_271\n      jumpi\n      0x00\n      dup1\n      revert\n    tag_271:\n      swap1\n      0x00\n      mstore\n      keccak256(0x00, 0x20)\n      swap1\n      0x05\n      mul\n      add\n      0x00\n      swap2\n      pop\n      swap1\n      pop\n      dup1\n      0x00\n      add\n      0x00\n      swap1\n      sload\n      swap1\n      0x0100\n      exp\n      swap1\n      div\n      0xffffffffffffffffffffffffffffffffffffffff\n      and\n      swap1\n      dup1\n      0x01\n      add\n      0x00\n      swap1\n      sload\n      swap1\n      0x0100\n      exp\n      swap1\n      div\n      0xffffffffffffffffffffffffffffffffffffffff\n      and\n      swap1\n      dup1\n      0x02\n      add\n      sload\n      swap1\n      dup1\n      0x03\n      add\n      sload\n      swap1\n      dup1\n      0x04\n      add\n      0x00\n      swap1\n      sload\n      swap1\n      0x0100\n      exp\n      swap1\n      div\n      0xff\n      and\n      swap1\n      pop\n      dup6\n      jump\t// out\n        /* \"contracts/CreatorsContent.sol\":4753:5092  function getAvailableBalance() public view returns (uint256) {... */\n    tag_79:\n        /* \"contracts/CreatorsContent.sol\":4805:4812  uint256 */\n      0x00\n        /* \"contracts/CreatorsContent.sol\":4824:4839  uint256 ammount */\n      dup1\n        /* \"contracts/CreatorsContent.sol\":4855:4864  uint256 i */\n      0x00\n        /* \"contracts/CreatorsContent.sol\":4850:5061  for (uint256 i = 0; i < ContentBuys.length; i++) {... */\n    tag_274:\n        /* \"contracts/CreatorsContent.sol\":4874:4885  ContentBuys */\n      0x02\n        /* \"contracts/CreatorsContent.sol\":4874:4892  ContentBuys.length */\n      dup1\n      sload\n      swap1\n      pop\n        /* \"contracts/CreatorsContent.sol\":4870:4871  i */\n      dup2\n        /* \"contracts/CreatorsContent.sol\":4870:4892  i < ContentBuys.length */\n      lt\n        /* \"contracts/CreatorsContent.sol\":4850:5061  for (uint256 i = 0; i < ContentBuys.length; i++) {... */\n      iszero\n      tag_275\n      jumpi\n        /* \"contracts/CreatorsContent.sol\":4938:4948  msg.sender */\n      caller\n        /* \"contracts/CreatorsContent.sol\":4917:4948  ContentBuys[i].to == msg.sender */\n      0xffffffffffffffffffffffffffffffffffffffff\n      and\n        /* \"contracts/CreatorsContent.sol\":4917:4928  ContentBuys */\n      0x02\n        /* \"contracts/CreatorsContent.sol\":4929:4930  i */\n      dup3\n        /* \"contracts/CreatorsContent.sol\":4917:4931  ContentBuys[i] */\n      dup2\n      sload\n      dup2\n      lt\n      tag_277\n      jumpi\n      tag_278\n      tag_150\n      jump\t// in\n    tag_278:\n    tag_277:\n      swap1\n      0x00\n      mstore\n      keccak256(0x00, 0x20)\n      swap1\n      0x05\n      mul\n      add\n        /* \"contracts/CreatorsContent.sol\":4917:4934  ContentBuys[i].to */\n      0x01\n      add\n      0x00\n      swap1\n      sload\n      swap1\n      0x0100\n      exp\n      swap1\n      div\n      0xffffffffffffffffffffffffffffffffffffffff\n      and\n        /* \"contracts/CreatorsContent.sol\":4917:4948  ContentBuys[i].to == msg.sender */\n      0xffffffffffffffffffffffffffffffffffffffff\n      and\n      eq\n        /* \"contracts/CreatorsContent.sol\":4917:4983  ContentBuys[i].to == msg.sender && ContentBuys[i].isPayed == false */\n      dup1\n      iszero\n      tag_280\n      jumpi\n      pop\n        /* \"contracts/CreatorsContent.sol\":4978:4983  false */\n      0x00\n        /* \"contracts/CreatorsContent.sol\":4952:4983  ContentBuys[i].isPayed == false */\n      iszero\n      iszero\n        /* \"contracts/CreatorsContent.sol\":4952:4963  ContentBuys */\n      0x02\n        /* \"contracts/CreatorsContent.sol\":4964:4965  i */\n      dup3\n        /* \"contracts/CreatorsContent.sol\":4952:4966  ContentBuys[i] */\n      dup2\n      sload\n      dup2\n      lt\n      tag_281\n      jumpi\n      tag_282\n      tag_150\n      jump\t// in\n    tag_282:\n    tag_281:\n      swap1\n      0x00\n      mstore\n      keccak256(0x00, 0x20)\n      swap1\n      0x05\n      mul\n      add\n        /* \"contracts/CreatorsContent.sol\":4952:4974  ContentBuys[i].isPayed */\n      0x04\n      add\n      0x00\n      swap1\n      sload\n      swap1\n      0x0100\n      exp\n      swap1\n      div\n      0xff\n      and\n        /* \"contracts/CreatorsContent.sol\":4952:4983  ContentBuys[i].isPayed == false */\n      iszero\n      iszero\n      eq\n        /* \"contracts/CreatorsContent.sol\":4917:4983  ContentBuys[i].to == msg.sender && ContentBuys[i].isPayed == false */\n    tag_280:\n        /* \"contracts/CreatorsContent.sol\":4913:5051  if (ContentBuys[i].to == msg.sender && ContentBuys[i].isPayed == false) {... */\n      iszero\n      tag_284\n      jumpi\n        /* \"contracts/CreatorsContent.sol\":5014:5025  ContentBuys */\n      0x02\n        /* \"contracts/CreatorsContent.sol\":5026:5027  i */\n      dup2\n        /* \"contracts/CreatorsContent.sol\":5014:5028  ContentBuys[i] */\n      dup2\n      sload\n      dup2\n      lt\n      tag_285\n      jumpi\n      tag_286\n      tag_150\n      jump\t// in\n    tag_286:\n    tag_285:\n      swap1\n      0x00\n      mstore\n      keccak256(0x00, 0x20)\n      swap1\n      0x05\n      mul\n      add\n        /* \"contracts/CreatorsContent.sol\":5014:5036  ContentBuys[i].ammount */\n      0x03\n      add\n      sload\n        /* \"contracts/CreatorsContent.sol\":5003:5036  ammount += ContentBuys[i].ammount */\n      dup3\n      tag_288\n      swap2\n      swap1\n      tag_289\n      jump\t// in\n    tag_288:\n      swap2\n      pop\n        /* \"contracts/CreatorsContent.sol\":4913:5051  if (ContentBuys[i].to == msg.sender && ContentBuys[i].isPayed == false) {... */\n    tag_284:\n        /* \"contracts/CreatorsContent.sol\":4894:4897  i++ */\n      dup1\n      dup1\n      tag_290\n      swap1\n      tag_153\n      jump\t// in\n    tag_290:\n      swap2\n      pop\n      pop\n        /* \"contracts/CreatorsContent.sol\":4850:5061  for (uint256 i = 0; i < ContentBuys.length; i++) {... */\n      jump(tag_274)\n    tag_275:\n      pop\n        /* \"contracts/CreatorsContent.sol\":5078:5085  ammount */\n      dup1\n        /* \"contracts/CreatorsContent.sol\":5071:5085  return ammount */\n      swap2\n      pop\n      pop\n        /* \"contracts/CreatorsContent.sol\":4753:5092  function getAvailableBalance() public view returns (uint256) {... */\n      swap1\n      jump\t// out\n        /* \"contracts/CreatorsContent.sol\":5100:5463  function getBuysFromAuthor() public view returns (ContentBuy[] memory) {... */\n    tag_83:\n        /* \"contracts/CreatorsContent.sol\":5150:5169  ContentBuy[] memory */\n      0x60\n        /* \"contracts/CreatorsContent.sol\":5181:5205  ContentBuy[] memory list */\n      dup1\n        /* \"contracts/CreatorsContent.sol\":5216:5229  uint256 index */\n      0x00\n        /* \"contracts/CreatorsContent.sol\":5248:5257  uint256 i */\n      dup1\n        /* \"contracts/CreatorsContent.sol\":5244:5435  for(uint256 i = 0; i < ContentBuys.length; i++) {... */\n    tag_292:\n        /* \"contracts/CreatorsContent.sol\":5267:5278  ContentBuys */\n      0x02\n        /* \"contracts/CreatorsContent.sol\":5267:5285  ContentBuys.length */\n      dup1\n      sload\n      swap1\n      pop\n        /* \"contracts/CreatorsContent.sol\":5263:5264  i */\n      dup2\n        /* \"contracts/CreatorsContent.sol\":5263:5285  i < ContentBuys.length */\n      lt\n        /* \"contracts/CreatorsContent.sol\":5244:5435  for(uint256 i = 0; i < ContentBuys.length; i++) {... */\n      iszero\n      tag_293\n      jumpi\n        /* \"contracts/CreatorsContent.sol\":5331:5341  msg.sender */\n      caller\n        /* \"contracts/CreatorsContent.sol\":5310:5341  ContentBuys[i].to == msg.sender */\n      0xffffffffffffffffffffffffffffffffffffffff\n      and\n        /* \"contracts/CreatorsContent.sol\":5310:5321  ContentBuys */\n      0x02\n        /* \"contracts/CreatorsContent.sol\":5322:5323  i */\n      dup3\n        /* \"contracts/CreatorsContent.sol\":5310:5324  ContentBuys[i] */\n      dup2\n      sload\n      dup2\n      lt\n      tag_295\n      jumpi\n      tag_296\n      tag_150\n      jump\t// in\n    tag_296:\n    tag_295:\n      swap1\n      0x00\n      mstore\n      keccak256(0x00, 0x20)\n      swap1\n      0x05\n      mul\n      add\n        /* \"contracts/CreatorsContent.sol\":5310:5327  ContentBuys[i].to */\n      0x01\n      add\n      0x00\n      swap1\n      sload\n      swap1\n      0x0100\n      exp\n      swap1\n      div\n      0xffffffffffffffffffffffffffffffffffffffff\n      and\n        /* \"contracts/CreatorsContent.sol\":5310:5341  ContentBuys[i].to == msg.sender */\n      0xffffffffffffffffffffffffffffffffffffffff\n      and\n      sub\n        /* \"contracts/CreatorsContent.sol\":5306:5425  if (ContentBuys[i].to == msg.sender) {... */\n      tag_298\n      jumpi\n        /* \"contracts/CreatorsContent.sol\":5371:5382  ContentBuys */\n      0x02\n        /* \"contracts/CreatorsContent.sol\":5383:5384  i */\n      dup2\n        /* \"contracts/CreatorsContent.sol\":5371:5385  ContentBuys[i] */\n      dup2\n      sload\n      dup2\n      lt\n      tag_299\n      jumpi\n      tag_300\n      tag_150\n      jump\t// in\n    tag_300:\n    tag_299:\n      swap1\n      0x00\n      mstore\n      keccak256(0x00, 0x20)\n      swap1\n      0x05\n      mul\n      add\n        /* \"contracts/CreatorsContent.sol\":5361:5385  list[i] = ContentBuys[i] */\n      mload(0x40)\n      dup1\n      0xa0\n      add\n      0x40\n      mstore\n      swap1\n      dup2\n      0x00\n      dup3\n      add\n      0x00\n      swap1\n      sload\n      swap1\n      0x0100\n      exp\n      swap1\n      div\n      0xffffffffffffffffffffffffffffffffffffffff\n      and\n      0xffffffffffffffffffffffffffffffffffffffff\n      and\n      0xffffffffffffffffffffffffffffffffffffffff\n      and\n      dup2\n      mstore\n      0x20\n      add\n      0x01\n      dup3\n      add\n      0x00\n      swap1\n      sload\n      swap1\n      0x0100\n      exp\n      swap1\n      div\n      0xffffffffffffffffffffffffffffffffffffffff\n      and\n      0xffffffffffffffffffffffffffffffffffffffff\n      and\n      0xffffffffffffffffffffffffffffffffffffffff\n      and\n      dup2\n      mstore\n      0x20\n      add\n      0x02\n      dup3\n      add\n      sload\n      dup2\n      mstore\n      0x20\n      add\n      0x03\n      dup3\n      add\n      sload\n      dup2\n      mstore\n      0x20\n      add\n      0x04\n      dup3\n      add\n      0x00\n      swap1\n      sload\n      swap1\n      0x0100\n      exp\n      swap1\n      div\n      0xff\n      and\n      iszero\n      iszero\n      iszero\n      iszero\n      dup2\n      mstore\n      pop\n      pop\n        /* \"contracts/CreatorsContent.sol\":5361:5365  list */\n      dup4\n        /* \"contracts/CreatorsContent.sol\":5366:5367  i */\n      dup3\n        /* \"contracts/CreatorsContent.sol\":5361:5368  list[i] */\n      dup2\n      mload\n      dup2\n      lt\n      tag_302\n      jumpi\n      tag_303\n      tag_150\n      jump\t// in\n    tag_303:\n    tag_302:\n      0x20\n      mul\n      0x20\n      add\n      add\n        /* \"contracts/CreatorsContent.sol\":5361:5385  list[i] = ContentBuys[i] */\n      dup2\n      swap1\n      mstore\n      pop\n        /* \"contracts/CreatorsContent.sol\":5403:5410  index++ */\n      dup2\n      dup1\n      tag_304\n      swap1\n      tag_153\n      jump\t// in\n    tag_304:\n      swap3\n      pop\n      pop\n        /* \"contracts/CreatorsContent.sol\":5306:5425  if (ContentBuys[i].to == msg.sender) {... */\n    tag_298:\n        /* \"contracts/CreatorsContent.sol\":5287:5290  i++ */\n      dup1\n      dup1\n      tag_305\n      swap1\n      tag_153\n      jump\t// in\n    tag_305:\n      swap2\n      pop\n      pop\n        /* \"contracts/CreatorsContent.sol\":5244:5435  for(uint256 i = 0; i < ContentBuys.length; i++) {... */\n      jump(tag_292)\n    tag_293:\n      pop\n        /* \"contracts/CreatorsContent.sol\":5452:5456  list */\n      dup2\n        /* \"contracts/CreatorsContent.sol\":5445:5456  return list */\n      swap3\n      pop\n      pop\n      pop\n        /* \"contracts/CreatorsContent.sol\":5100:5463  function getBuysFromAuthor() public view returns (ContentBuy[] memory) {... */\n      swap1\n      jump\t// out\n        /* \"contracts/CreatorsContent.sol\":1176:1469  function getCourseDetail(uint256 id) public view returns (Content memory) {... */\n    tag_89:\n        /* \"contracts/CreatorsContent.sol\":1234:1248  Content memory */\n      tag_306\n      tag_191\n      jump\t// in\n    tag_306:\n        /* \"contracts/CreatorsContent.sol\":1260:1281  Content memory detail */\n      tag_308\n      tag_191\n      jump\t// in\n    tag_308:\n        /* \"contracts/CreatorsContent.sol\":1297:1306  uint256 i */\n      0x00\n        /* \"contracts/CreatorsContent.sol\":1292:1440  for (uint256 i=0; i < Contents.length ; i++) {... */\n    tag_309:\n        /* \"contracts/CreatorsContent.sol\":1314:1322  Contents */\n      0x00\n        /* \"contracts/CreatorsContent.sol\":1314:1329  Contents.length */\n      dup1\n      sload\n      swap1\n      pop\n        /* \"contracts/CreatorsContent.sol\":1310:1311  i */\n      dup2\n        /* \"contracts/CreatorsContent.sol\":1310:1329  i < Contents.length */\n      lt\n        /* \"contracts/CreatorsContent.sol\":1292:1440  for (uint256 i=0; i < Contents.length ; i++) {... */\n      iszero\n      tag_310\n      jumpi\n        /* \"contracts/CreatorsContent.sol\":1373:1375  id */\n      dup4\n        /* \"contracts/CreatorsContent.sol\":1355:1363  Contents */\n      0x00\n        /* \"contracts/CreatorsContent.sol\":1364:1365  i */\n      dup3\n        /* \"contracts/CreatorsContent.sol\":1355:1366  Contents[i] */\n      dup2\n      sload\n      dup2\n      lt\n      tag_312\n      jumpi\n      tag_313\n      tag_150\n      jump\t// in\n    tag_313:\n    tag_312:\n      swap1\n      0x00\n      mstore\n      keccak256(0x00, 0x20)\n      swap1\n      0x08\n      mul\n      add\n        /* \"contracts/CreatorsContent.sol\":1355:1369  Contents[i].id */\n      0x00\n      add\n      sload\n        /* \"contracts/CreatorsContent.sol\":1355:1375  Contents[i].id == id */\n      sub\n        /* \"contracts/CreatorsContent.sol\":1351:1430  if (Contents[i].id == id) {... */\n      tag_315\n      jumpi\n        /* \"contracts/CreatorsContent.sol\":1404:1412  Contents */\n      0x00\n        /* \"contracts/CreatorsContent.sol\":1413:1414  i */\n      dup2\n        /* \"contracts/CreatorsContent.sol\":1404:1415  Contents[i] */\n      dup2\n      sload\n      dup2\n      lt\n      tag_316\n      jumpi\n      tag_317\n      tag_150\n      jump\t// in\n    tag_317:\n    tag_316:\n      swap1\n      0x00\n      mstore\n      keccak256(0x00, 0x20)\n      swap1\n      0x08\n      mul\n      add\n        /* \"contracts/CreatorsContent.sol\":1395:1415  detail = Contents[i] */\n      mload(0x40)\n      dup1\n      0x0100\n      add\n      0x40\n      mstore\n      swap1\n      dup2\n      0x00\n      dup3\n      add\n      sload\n      dup2\n      mstore\n      0x20\n      add\n      0x01\n      dup3\n      add\n      0x00\n      swap1\n      sload\n      swap1\n      0x0100\n      exp\n      swap1\n      div\n      0xffffffffffffffffffffffffffffffffffffffff\n      and\n      0xffffffffffffffffffffffffffffffffffffffff\n      and\n      0xffffffffffffffffffffffffffffffffffffffff\n      and\n      dup2\n      mstore\n      0x20\n      add\n      0x02\n      dup3\n      add\n      dup1\n      sload\n      tag_319\n      swap1\n      tag_121\n      jump\t// in\n    tag_319:\n      dup1\n      0x1f\n      add\n      0x20\n      dup1\n      swap2\n      div\n      mul\n      0x20\n      add\n      mload(0x40)\n      swap1\n      dup2\n      add\n      0x40\n      mstore\n      dup1\n      swap3\n      swap2\n      swap1\n      dup2\n      dup2\n      mstore\n      0x20\n      add\n      dup3\n      dup1\n      sload\n      tag_320\n      swap1\n      tag_121\n      jump\t// in\n    tag_320:\n      dup1\n      iszero\n      tag_321\n      jumpi\n      dup1\n      0x1f\n      lt\n      tag_322\n      jumpi\n      0x0100\n      dup1\n      dup4\n      sload\n      div\n      mul\n      dup4\n      mstore\n      swap2\n      0x20\n      add\n      swap2\n      jump(tag_321)\n    tag_322:\n      dup3\n      add\n      swap2\n      swap1\n      0x00\n      mstore\n      keccak256(0x00, 0x20)\n      swap1\n    tag_323:\n      dup2\n      sload\n      dup2\n      mstore\n      swap1\n      0x01\n      add\n      swap1\n      0x20\n      add\n      dup1\n      dup4\n      gt\n      tag_323\n      jumpi\n      dup3\n      swap1\n      sub\n      0x1f\n      and\n      dup3\n      add\n      swap2\n    tag_321:\n      pop\n      pop\n      pop\n      pop\n      pop\n      dup2\n      mstore\n      0x20\n      add\n      0x03\n      dup3\n      add\n      dup1\n      sload\n      tag_324\n      swap1\n      tag_121\n      jump\t// in\n    tag_324:\n      dup1\n      0x1f\n      add\n      0x20\n      dup1\n      swap2\n      div\n      mul\n      0x20\n      add\n      mload(0x40)\n      swap1\n      dup2\n      add\n      0x40\n      mstore\n      dup1\n      swap3\n      swap2\n      swap1\n      dup2\n      dup2\n      mstore\n      0x20\n      add\n      dup3\n      dup1\n      sload\n      tag_325\n      swap1\n      tag_121\n      jump\t// in\n    tag_325:\n      dup1\n      iszero\n      tag_326\n      jumpi\n      dup1\n      0x1f\n      lt\n      tag_327\n      jumpi\n      0x0100\n      dup1\n      dup4\n      sload\n      div\n      mul\n      dup4\n      mstore\n      swap2\n      0x20\n      add\n      swap2\n      jump(tag_326)\n    tag_327:\n      dup3\n      add\n      swap2\n      swap1\n      0x00\n      mstore\n      keccak256(0x00, 0x20)\n      swap1\n    tag_328:\n      dup2\n      sload\n      dup2\n      mstore\n      swap1\n      0x01\n      add\n      swap1\n      0x20\n      add\n      dup1\n      dup4\n      gt\n      tag_328\n      jumpi\n      dup3\n      swap1\n      sub\n      0x1f\n      and\n      dup3\n      add\n      swap2\n    tag_326:\n      pop\n      pop\n      pop\n      pop\n      pop\n      dup2\n      mstore\n      0x20\n      add\n      0x04\n      dup3\n      add\n      sload\n      dup2\n      mstore\n      0x20\n      add\n      0x05\n      dup3\n      add\n      dup1\n      sload\n      tag_329\n      swap1\n      tag_121\n      jump\t// in\n    tag_329:\n      dup1\n      0x1f\n      add\n      0x20\n      dup1\n      swap2\n      div\n      mul\n      0x20\n      add\n      mload(0x40)\n      swap1\n      dup2\n      add\n      0x40\n      mstore\n      dup1\n      swap3\n      swap2\n      swap1\n      dup2\n      dup2\n      mstore\n      0x20\n      add\n      dup3\n      dup1\n      sload\n      tag_330\n      swap1\n      tag_121\n      jump\t// in\n    tag_330:\n      dup1\n      iszero\n      tag_331\n      jumpi\n      dup1\n      0x1f\n      lt\n      tag_332\n      jumpi\n      0x0100\n      dup1\n      dup4\n      sload\n      div\n      mul\n      dup4\n      mstore\n      swap2\n      0x20\n      add\n      swap2\n      jump(tag_331)\n    tag_332:\n      dup3\n      add\n      swap2\n      swap1\n      0x00\n      mstore\n      keccak256(0x00, 0x20)\n      swap1\n    tag_333:\n      dup2\n      sload\n      dup2\n      mstore\n      swap1\n      0x01\n      add\n      swap1\n      0x20\n      add\n      dup1\n      dup4\n      gt\n      tag_333\n      jumpi\n      dup3\n      swap1\n      sub\n      0x1f\n      and\n      dup3\n      add\n      swap2\n    tag_331:\n      pop\n      pop\n      pop\n      pop\n      pop\n      dup2\n      mstore\n      0x20\n      add\n      0x06\n      dup3\n      add\n      0x00\n      swap1\n      sload\n      swap1\n      0x0100\n      exp\n      swap1\n      div\n      0xff\n      and\n      iszero\n      iszero\n      iszero\n      iszero\n      dup2\n      mstore\n      0x20\n      add\n      0x07\n      dup3\n      add\n      dup1\n      sload\n      tag_334\n      swap1\n      tag_121\n      jump\t// in\n    tag_334:\n      dup1\n      0x1f\n      add\n      0x20\n      dup1\n      swap2\n      div\n      mul\n      0x20\n      add\n      mload(0x40)\n      swap1\n      dup2\n      add\n      0x40\n      mstore\n      dup1\n      swap3\n      swap2\n      swap1\n      dup2\n      dup2\n      mstore\n      0x20\n      add\n      dup3\n      dup1\n      sload\n      tag_335\n      swap1\n      tag_121\n      jump\t// in\n    tag_335:\n      dup1\n      iszero\n      tag_336\n      jumpi\n      dup1\n      0x1f\n      lt\n      tag_337\n      jumpi\n      0x0100\n      dup1\n      dup4\n      sload\n      div\n      mul\n      dup4\n      mstore\n      swap2\n      0x20\n      add\n      swap2\n      jump(tag_336)\n    tag_337:\n      dup3\n      add\n      swap2\n      swap1\n      0x00\n      mstore\n      keccak256(0x00, 0x20)\n      swap1\n    tag_338:\n      dup2\n      sload\n      dup2\n      mstore\n      swap1\n      0x01\n      add\n      swap1\n      0x20\n      add\n      dup1\n      dup4\n      gt\n      tag_338\n      jumpi\n      dup3\n      swap1\n      sub\n      0x1f\n      and\n      dup3\n      add\n      swap2\n    tag_336:\n      pop\n      pop\n      pop\n      pop\n      pop\n      dup2\n      mstore\n      pop\n      pop\n      swap2\n      pop\n        /* \"contracts/CreatorsContent.sol\":1351:1430  if (Contents[i].id == id) {... */\n    tag_315:\n        /* \"contracts/CreatorsContent.sol\":1332:1335  i++ */\n      dup1\n      dup1\n      tag_339\n      swap1\n      tag_153\n      jump\t// in\n    tag_339:\n      swap2\n      pop\n      pop\n        /* \"contracts/CreatorsContent.sol\":1292:1440  for (uint256 i=0; i < Contents.length ; i++) {... */\n      jump(tag_309)\n    tag_310:\n      pop\n        /* \"contracts/CreatorsContent.sol\":1456:1462  detail */\n      dup1\n        /* \"contracts/CreatorsContent.sol\":1449:1462  return detail */\n      swap2\n      pop\n      pop\n        /* \"contracts/CreatorsContent.sol\":1176:1469  function getCourseDetail(uint256 id) public view returns (Content memory) {... */\n      swap2\n      swap1\n      pop\n      jump\t// out\n        /* \"contracts/CreatorsContent.sol\":2564:2743  function compareStrings(string memory a, string memory b) public pure returns (bool) {... */\n    tag_95:\n        /* \"contracts/CreatorsContent.sol\":2643:2647  bool */\n      0x00\n        /* \"contracts/CreatorsContent.sol\":2731:2732  b */\n      dup2\n        /* \"contracts/CreatorsContent.sol\":2713:2734  abi.encodePacked((b)) */\n      add(0x20, mload(0x40))\n      tag_341\n      swap2\n      swap1\n      tag_342\n      jump\t// in\n    tag_341:\n      mload(0x40)\n      0x20\n      dup2\n      dup4\n      sub\n      sub\n      dup2\n      mstore\n      swap1\n      0x40\n      mstore\n        /* \"contracts/CreatorsContent.sol\":2703:2735  keccak256(abi.encodePacked((b))) */\n      dup1\n      mload\n      swap1\n      0x20\n      add\n      keccak256\n        /* \"contracts/CreatorsContent.sol\":2695:2696  a */\n      dup4\n        /* \"contracts/CreatorsContent.sol\":2677:2698  abi.encodePacked((a)) */\n      add(0x20, mload(0x40))\n      tag_343\n      swap2\n      swap1\n      tag_342\n      jump\t// in\n    tag_343:\n      mload(0x40)\n      0x20\n      dup2\n      dup4\n      sub\n      sub\n      dup2\n      mstore\n      swap1\n      0x40\n      mstore\n        /* \"contracts/CreatorsContent.sol\":2667:2699  keccak256(abi.encodePacked((a))) */\n      dup1\n      mload\n      swap1\n      0x20\n      add\n      keccak256\n        /* \"contracts/CreatorsContent.sol\":2667:2735  keccak256(abi.encodePacked((a))) == keccak256(abi.encodePacked((b))) */\n      eq\n        /* \"contracts/CreatorsContent.sol\":2659:2736  return (keccak256(abi.encodePacked((a))) == keccak256(abi.encodePacked((b)))) */\n      swap1\n      pop\n        /* \"contracts/CreatorsContent.sol\":2564:2743  function compareStrings(string memory a, string memory b) public pure returns (bool) {... */\n      swap3\n      swap2\n      pop\n      pop\n      jump\t// out\n        /* \"contracts/CreatorsContent.sol\":6073:6520  function buyContent(uint256 idCourse) payable public {... */\n    tag_99:\n        /* \"contracts/CreatorsContent.sol\":6190:6212  Content memory content */\n      0x00\n        /* \"contracts/CreatorsContent.sol\":6215:6240  getCourseDetail(idCourse) */\n      tag_345\n        /* \"contracts/CreatorsContent.sol\":6231:6239  idCourse */\n      dup3\n        /* \"contracts/CreatorsContent.sol\":6215:6230  getCourseDetail */\n      tag_89\n        /* \"contracts/CreatorsContent.sol\":6215:6240  getCourseDetail(idCourse) */\n      jump\t// in\n    tag_345:\n        /* \"contracts/CreatorsContent.sol\":6190:6240  Content memory content = getCourseDetail(idCourse) */\n      swap1\n      pop\n        /* \"contracts/CreatorsContent.sol\":6330:6337  content */\n      dup1\n        /* \"contracts/CreatorsContent.sol\":6330:6343  content.price */\n      0x80\n      add\n      mload\n        /* \"contracts/CreatorsContent.sol\":6317:6326  msg.value */\n      callvalue\n        /* \"contracts/CreatorsContent.sol\":6317:6343  msg.value == content.price */\n      eq\n        /* \"contracts/CreatorsContent.sol\":6309:6344  require(msg.value == content.price) */\n      tag_346\n      jumpi\n      0x00\n      dup1\n      revert\n    tag_346:\n        /* \"contracts/CreatorsContent.sol\":6427:6438  ContentBuys */\n      0x02\n        /* \"contracts/CreatorsContent.sol\":6445:6511  ContentBuy(msg.sender, content.author, idCourse, msg.value, false) */\n      mload(0x40)\n      dup1\n      0xa0\n      add\n      0x40\n      mstore\n      dup1\n        /* \"contracts/CreatorsContent.sol\":6456:6466  msg.sender */\n      caller\n        /* \"contracts/CreatorsContent.sol\":6445:6511  ContentBuy(msg.sender, content.author, idCourse, msg.value, false) */\n      0xffffffffffffffffffffffffffffffffffffffff\n      and\n      dup2\n      mstore\n      0x20\n      add\n        /* \"contracts/CreatorsContent.sol\":6468:6475  content */\n      dup4\n        /* \"contracts/CreatorsContent.sol\":6468:6482  content.author */\n      0x20\n      add\n      mload\n        /* \"contracts/CreatorsContent.sol\":6445:6511  ContentBuy(msg.sender, content.author, idCourse, msg.value, false) */\n      0xffffffffffffffffffffffffffffffffffffffff\n      and\n      dup2\n      mstore\n      0x20\n      add\n        /* \"contracts/CreatorsContent.sol\":6484:6492  idCourse */\n      dup5\n        /* \"contracts/CreatorsContent.sol\":6445:6511  ContentBuy(msg.sender, content.author, idCourse, msg.value, false) */\n      dup2\n      mstore\n      0x20\n      add\n        /* \"contracts/CreatorsContent.sol\":6494:6503  msg.value */\n      callvalue\n        /* \"contracts/CreatorsContent.sol\":6445:6511  ContentBuy(msg.sender, content.author, idCourse, msg.value, false) */\n      dup2\n      mstore\n      0x20\n      add\n        /* \"contracts/CreatorsContent.sol\":6505:6510  false */\n      0x00\n        /* \"contracts/CreatorsContent.sol\":6445:6511  ContentBuy(msg.sender, content.author, idCourse, msg.value, false) */\n      iszero\n      iszero\n      dup2\n      mstore\n      pop\n        /* \"contracts/CreatorsContent.sol\":6427:6512  ContentBuys.push( ContentBuy(msg.sender, content.author, idCourse, msg.value, false)) */\n      swap1\n      dup1\n      0x01\n      dup2\n      sload\n      add\n      dup1\n      dup3\n      sstore\n      dup1\n      swap2\n      pop\n      pop\n      0x01\n      swap1\n      sub\n      swap1\n      0x00\n      mstore\n      keccak256(0x00, 0x20)\n      swap1\n      0x05\n      mul\n      add\n      0x00\n      swap1\n      swap2\n      swap1\n      swap2\n      swap1\n      swap2\n      pop\n      0x00\n      dup3\n      add\n      mload\n      dup2\n      0x00\n      add\n      exp(0x0100, 0x00)\n      dup2\n      sload\n      dup2\n      0xffffffffffffffffffffffffffffffffffffffff\n      mul\n      not\n      and\n      swap1\n      dup4\n      0xffffffffffffffffffffffffffffffffffffffff\n      and\n      mul\n      or\n      swap1\n      sstore\n      pop\n      0x20\n      dup3\n      add\n      mload\n      dup2\n      0x01\n      add\n      exp(0x0100, 0x00)\n      dup2\n      sload\n      dup2\n      0xffffffffffffffffffffffffffffffffffffffff\n      mul\n      not\n      and\n      swap1\n      dup4\n      0xffffffffffffffffffffffffffffffffffffffff\n      and\n      mul\n      or\n      swap1\n      sstore\n      pop\n      0x40\n      dup3\n      add\n      mload\n      dup2\n      0x02\n      add\n      sstore\n      0x60\n      dup3\n      add\n      mload\n      dup2\n      0x03\n      add\n      sstore\n      0x80\n      dup3\n      add\n      mload\n      dup2\n      0x04\n      add\n      exp(0x0100, 0x00)\n      dup2\n      sload\n      dup2\n      0xff\n      mul\n      not\n      and\n      swap1\n      dup4\n      iszero\n      iszero\n      mul\n      or\n      swap1\n      sstore\n      pop\n      pop\n      pop\n        /* \"contracts/CreatorsContent.sol\":6126:6520  {... */\n      pop\n        /* \"contracts/CreatorsContent.sol\":6073:6520  function buyContent(uint256 idCourse) payable public {... */\n      pop\n      jump\t// out\n        /* \"contracts/CreatorsContent.sol\":3858:4246  function setProfileHandle(string memory handle) public returns (bool) {... */\n    tag_104:\n        /* \"contracts/CreatorsContent.sol\":3922:3926  bool */\n      0x00\n        /* \"contracts/CreatorsContent.sol\":3939:3952  uint256 index */\n      dup1\n        /* \"contracts/CreatorsContent.sol\":3955:3991  getProficeIndexByAddress(msg.sender) */\n      tag_349\n        /* \"contracts/CreatorsContent.sol\":3980:3990  msg.sender */\n      caller\n        /* \"contracts/CreatorsContent.sol\":3955:3979  getProficeIndexByAddress */\n      tag_350\n        /* \"contracts/CreatorsContent.sol\":3955:3991  getProficeIndexByAddress(msg.sender) */\n      jump\t// in\n    tag_349:\n        /* \"contracts/CreatorsContent.sol\":3939:3991  uint256 index = getProficeIndexByAddress(msg.sender) */\n      swap1\n      pop\n        /* \"contracts/CreatorsContent.sol\":4007:4016  uint256 i */\n      0x00\n        /* \"contracts/CreatorsContent.sol\":4002:4177  for (uint256 i=0; i < Profiles.length; i++) {... */\n    tag_351:\n        /* \"contracts/CreatorsContent.sol\":4024:4032  Profiles */\n      0x01\n        /* \"contracts/CreatorsContent.sol\":4024:4039  Profiles.length */\n      dup1\n      sload\n      swap1\n      pop\n        /* \"contracts/CreatorsContent.sol\":4020:4021  i */\n      dup2\n        /* \"contracts/CreatorsContent.sol\":4020:4039  i < Profiles.length */\n      lt\n        /* \"contracts/CreatorsContent.sol\":4002:4177  for (uint256 i=0; i < Profiles.length; i++) {... */\n      iszero\n      tag_352\n      jumpi\n        /* \"contracts/CreatorsContent.sol\":4064:4106  compareStrings(Profiles[i].handle, handle) */\n      tag_354\n        /* \"contracts/CreatorsContent.sol\":4079:4087  Profiles */\n      0x01\n        /* \"contracts/CreatorsContent.sol\":4088:4089  i */\n      dup3\n        /* \"contracts/CreatorsContent.sol\":4079:4090  Profiles[i] */\n      dup2\n      sload\n      dup2\n      lt\n      tag_355\n      jumpi\n      tag_356\n      tag_150\n      jump\t// in\n    tag_356:\n    tag_355:\n      swap1\n      0x00\n      mstore\n      keccak256(0x00, 0x20)\n      swap1\n      0x03\n      mul\n      add\n        /* \"contracts/CreatorsContent.sol\":4079:4097  Profiles[i].handle */\n      0x00\n      add\n        /* \"contracts/CreatorsContent.sol\":4064:4106  compareStrings(Profiles[i].handle, handle) */\n      dup1\n      sload\n      tag_358\n      swap1\n      tag_121\n      jump\t// in\n    tag_358:\n      dup1\n      0x1f\n      add\n      0x20\n      dup1\n      swap2\n      div\n      mul\n      0x20\n      add\n      mload(0x40)\n      swap1\n      dup2\n      add\n      0x40\n      mstore\n      dup1\n      swap3\n      swap2\n      swap1\n      dup2\n      dup2\n      mstore\n      0x20\n      add\n      dup3\n      dup1\n      sload\n      tag_359\n      swap1\n      tag_121\n      jump\t// in\n    tag_359:\n      dup1\n      iszero\n      tag_360\n      jumpi\n      dup1\n      0x1f\n      lt\n      tag_361\n      jumpi\n      0x0100\n      dup1\n      dup4\n      sload\n      div\n      mul\n      dup4\n      mstore\n      swap2\n      0x20\n      add\n      swap2\n      jump(tag_360)\n    tag_361:\n      dup3\n      add\n      swap2\n      swap1\n      0x00\n      mstore\n      keccak256(0x00, 0x20)\n      swap1\n    tag_362:\n      dup2\n      sload\n      dup2\n      mstore\n      swap1\n      0x01\n      add\n      swap1\n      0x20\n      add\n      dup1\n      dup4\n      gt\n      tag_362\n      jumpi\n      dup3\n      swap1\n      sub\n      0x1f\n      and\n      dup3\n      add\n      swap2\n    tag_360:\n      pop\n      pop\n      pop\n      pop\n      pop\n        /* \"contracts/CreatorsContent.sol\":4099:4105  handle */\n      dup6\n        /* \"contracts/CreatorsContent.sol\":4064:4078  compareStrings */\n      tag_95\n        /* \"contracts/CreatorsContent.sol\":4064:4106  compareStrings(Profiles[i].handle, handle) */\n      jump\t// in\n    tag_354:\n        /* \"contracts/CreatorsContent.sol\":4064:4120  compareStrings(Profiles[i].handle, handle) && i != index */\n      dup1\n      iszero\n      tag_363\n      jumpi\n      pop\n        /* \"contracts/CreatorsContent.sol\":4115:4120  index */\n      dup2\n        /* \"contracts/CreatorsContent.sol\":4110:4111  i */\n      dup2\n        /* \"contracts/CreatorsContent.sol\":4110:4120  i != index */\n      eq\n      iszero\n        /* \"contracts/CreatorsContent.sol\":4064:4120  compareStrings(Profiles[i].handle, handle) && i != index */\n    tag_363:\n        /* \"contracts/CreatorsContent.sol\":4060:4167  if (compareStrings(Profiles[i].handle, handle) && i != index) {... */\n      iszero\n      tag_364\n      jumpi\n        /* \"contracts/CreatorsContent.sol\":4147:4152  false */\n      0x00\n        /* \"contracts/CreatorsContent.sol\":4140:4152  return false */\n      swap3\n      pop\n      pop\n      pop\n      jump(tag_348)\n        /* \"contracts/CreatorsContent.sol\":4060:4167  if (compareStrings(Profiles[i].handle, handle) && i != index) {... */\n    tag_364:\n        /* \"contracts/CreatorsContent.sol\":4041:4044  i++ */\n      dup1\n      dup1\n      tag_365\n      swap1\n      tag_153\n      jump\t// in\n    tag_365:\n      swap2\n      pop\n      pop\n        /* \"contracts/CreatorsContent.sol\":4002:4177  for (uint256 i=0; i < Profiles.length; i++) {... */\n      jump(tag_351)\n    tag_352:\n      pop\n        /* \"contracts/CreatorsContent.sol\":4212:4218  handle */\n      dup3\n        /* \"contracts/CreatorsContent.sol\":4187:4195  Profiles */\n      0x01\n        /* \"contracts/CreatorsContent.sol\":4196:4201  index */\n      dup3\n        /* \"contracts/CreatorsContent.sol\":4187:4202  Profiles[index] */\n      dup2\n      sload\n      dup2\n      lt\n      tag_366\n      jumpi\n      tag_367\n      tag_150\n      jump\t// in\n    tag_367:\n    tag_366:\n      swap1\n      0x00\n      mstore\n      keccak256(0x00, 0x20)\n      swap1\n      0x03\n      mul\n      add\n        /* \"contracts/CreatorsContent.sol\":4187:4209  Profiles[index].handle */\n      0x00\n      add\n        /* \"contracts/CreatorsContent.sol\":4187:4218  Profiles[index].handle = handle */\n      swap1\n      dup2\n      tag_369\n      swap2\n      swap1\n      tag_175\n      jump\t// in\n    tag_369:\n      pop\n        /* \"contracts/CreatorsContent.sol\":4235:4239  true */\n      0x01\n        /* \"contracts/CreatorsContent.sol\":4228:4239  return true */\n      swap2\n      pop\n      pop\n        /* \"contracts/CreatorsContent.sol\":3858:4246  function setProfileHandle(string memory handle) public returns (bool) {... */\n    tag_348:\n      swap2\n      swap1\n      pop\n      jump\t// out\n        /* \"contracts/CreatorsContent.sol\":4252:4457  function setProfileImage(string memory image) public returns (bool) {... */\n    tag_109:\n        /* \"contracts/CreatorsContent.sol\":4314:4318  bool */\n      0x00\n        /* \"contracts/CreatorsContent.sol\":4331:4344  uint256 index */\n      dup1\n        /* \"contracts/CreatorsContent.sol\":4347:4383  getProficeIndexByAddress(msg.sender) */\n      tag_371\n        /* \"contracts/CreatorsContent.sol\":4372:4382  msg.sender */\n      caller\n        /* \"contracts/CreatorsContent.sol\":4347:4371  getProficeIndexByAddress */\n      tag_350\n        /* \"contracts/CreatorsContent.sol\":4347:4383  getProficeIndexByAddress(msg.sender) */\n      jump\t// in\n    tag_371:\n        /* \"contracts/CreatorsContent.sol\":4331:4383  uint256 index = getProficeIndexByAddress(msg.sender) */\n      swap1\n      pop\n        /* \"contracts/CreatorsContent.sol\":4423:4428  image */\n      dup3\n        /* \"contracts/CreatorsContent.sol\":4394:4402  Profiles */\n      0x01\n        /* \"contracts/CreatorsContent.sol\":4403:4408  index */\n      dup3\n        /* \"contracts/CreatorsContent.sol\":4394:4409  Profiles[index] */\n      dup2\n      sload\n      dup2\n      lt\n      tag_372\n      jumpi\n      tag_373\n      tag_150\n      jump\t// in\n    tag_373:\n    tag_372:\n      swap1\n      0x00\n      mstore\n      keccak256(0x00, 0x20)\n      swap1\n      0x03\n      mul\n      add\n        /* \"contracts/CreatorsContent.sol\":4394:4420  Profiles[index].profilePic */\n      0x02\n      add\n        /* \"contracts/CreatorsContent.sol\":4394:4428  Profiles[index].profilePic = image */\n      swap1\n      dup2\n      tag_375\n      swap2\n      swap1\n      tag_175\n      jump\t// in\n    tag_375:\n      pop\n        /* \"contracts/CreatorsContent.sol\":4446:4450  true */\n      0x01\n        /* \"contracts/CreatorsContent.sol\":4439:4450  return true */\n      swap2\n      pop\n      pop\n        /* \"contracts/CreatorsContent.sol\":4252:4457  function setProfileImage(string memory image) public returns (bool) {... */\n      swap2\n      swap1\n      pop\n      jump\t// out\n        /* \"contracts/CreatorsContent.sol\":5469:5766  function getBalanceForSingleBuy(address payable addr, uint256 indexBuy) public payable {... */\n    tag_114:\n        /* \"contracts/CreatorsContent.sol\":5611:5615  addr */\n      dup2\n        /* \"contracts/CreatorsContent.sol\":5583:5615  ContentBuys[indexBuy].to == addr */\n      0xffffffffffffffffffffffffffffffffffffffff\n      and\n        /* \"contracts/CreatorsContent.sol\":5583:5594  ContentBuys */\n      0x02\n        /* \"contracts/CreatorsContent.sol\":5595:5603  indexBuy */\n      dup3\n        /* \"contracts/CreatorsContent.sol\":5583:5604  ContentBuys[indexBuy] */\n      dup2\n      sload\n      dup2\n      lt\n      tag_377\n      jumpi\n      tag_378\n      tag_150\n      jump\t// in\n    tag_378:\n    tag_377:\n      swap1\n      0x00\n      mstore\n      keccak256(0x00, 0x20)\n      swap1\n      0x05\n      mul\n      add\n        /* \"contracts/CreatorsContent.sol\":5583:5607  ContentBuys[indexBuy].to */\n      0x01\n      add\n      0x00\n      swap1\n      sload\n      swap1\n      0x0100\n      exp\n      swap1\n      div\n      0xffffffffffffffffffffffffffffffffffffffff\n      and\n        /* \"contracts/CreatorsContent.sol\":5583:5615  ContentBuys[indexBuy].to == addr */\n      0xffffffffffffffffffffffffffffffffffffffff\n      and\n      eq\n        /* \"contracts/CreatorsContent.sol\":5583:5657  ContentBuys[indexBuy].to == addr && ContentBuys[indexBuy].isPayed == false */\n      dup1\n      iszero\n      tag_380\n      jumpi\n      pop\n        /* \"contracts/CreatorsContent.sol\":5652:5657  false */\n      0x00\n        /* \"contracts/CreatorsContent.sol\":5619:5657  ContentBuys[indexBuy].isPayed == false */\n      iszero\n      iszero\n        /* \"contracts/CreatorsContent.sol\":5619:5630  ContentBuys */\n      0x02\n        /* \"contracts/CreatorsContent.sol\":5631:5639  indexBuy */\n      dup3\n        /* \"contracts/CreatorsContent.sol\":5619:5640  ContentBuys[indexBuy] */\n      dup2\n      sload\n      dup2\n      lt\n      tag_381\n      jumpi\n      tag_382\n      tag_150\n      jump\t// in\n    tag_382:\n    tag_381:\n      swap1\n      0x00\n      mstore\n      keccak256(0x00, 0x20)\n      swap1\n      0x05\n      mul\n      add\n        /* \"contracts/CreatorsContent.sol\":5619:5648  ContentBuys[indexBuy].isPayed */\n      0x04\n      add\n      0x00\n      swap1\n      sload\n      swap1\n      0x0100\n      exp\n      swap1\n      div\n      0xff\n      and\n        /* \"contracts/CreatorsContent.sol\":5619:5657  ContentBuys[indexBuy].isPayed == false */\n      iszero\n      iszero\n      eq\n        /* \"contracts/CreatorsContent.sol\":5583:5657  ContentBuys[indexBuy].to == addr && ContentBuys[indexBuy].isPayed == false */\n    tag_380:\n        /* \"contracts/CreatorsContent.sol\":5575:5658  require(ContentBuys[indexBuy].to == addr && ContentBuys[indexBuy].isPayed == false) */\n      tag_384\n      jumpi\n      0x00\n      dup1\n      revert\n    tag_384:\n        /* \"contracts/CreatorsContent.sol\":5669:5673  addr */\n      dup2\n        /* \"contracts/CreatorsContent.sol\":5669:5682  addr.transfer */\n      0xffffffffffffffffffffffffffffffffffffffff\n      and\n        /* \"contracts/CreatorsContent.sol\":5669:5713  addr.transfer(ContentBuys[indexBuy].ammount) */\n      0x08fc\n        /* \"contracts/CreatorsContent.sol\":5683:5694  ContentBuys */\n      0x02\n        /* \"contracts/CreatorsContent.sol\":5695:5703  indexBuy */\n      dup4\n        /* \"contracts/CreatorsContent.sol\":5683:5704  ContentBuys[indexBuy] */\n      dup2\n      sload\n      dup2\n      lt\n      tag_385\n      jumpi\n      tag_386\n      tag_150\n      jump\t// in\n    tag_386:\n    tag_385:\n      swap1\n      0x00\n      mstore\n      keccak256(0x00, 0x20)\n      swap1\n      0x05\n      mul\n      add\n        /* \"contracts/CreatorsContent.sol\":5683:5712  ContentBuys[indexBuy].ammount */\n      0x03\n      add\n      sload\n        /* \"contracts/CreatorsContent.sol\":5669:5713  addr.transfer(ContentBuys[indexBuy].ammount) */\n      swap1\n      dup2\n      iszero\n      mul\n      swap1\n      mload(0x40)\n      0x00\n      mload(0x40)\n      dup1\n      dup4\n      sub\n      dup2\n      dup6\n      dup9\n      dup9\n      call\n      swap4\n      pop\n      pop\n      pop\n      pop\n      iszero\n      dup1\n      iszero\n      tag_389\n      jumpi\n      returndatasize\n      0x00\n      dup1\n      returndatacopy\n      revert(0x00, returndatasize)\n    tag_389:\n      pop\n        /* \"contracts/CreatorsContent.sol\":5755:5759  true */\n      0x01\n        /* \"contracts/CreatorsContent.sol\":5723:5734  ContentBuys */\n      0x02\n        /* \"contracts/CreatorsContent.sol\":5735:5743  indexBuy */\n      dup3\n        /* \"contracts/CreatorsContent.sol\":5723:5744  ContentBuys[indexBuy] */\n      dup2\n      sload\n      dup2\n      lt\n      tag_390\n      jumpi\n      tag_391\n      tag_150\n      jump\t// in\n    tag_391:\n    tag_390:\n      swap1\n      0x00\n      mstore\n      keccak256(0x00, 0x20)\n      swap1\n      0x05\n      mul\n      add\n        /* \"contracts/CreatorsContent.sol\":5723:5752  ContentBuys[indexBuy].isPayed */\n      0x04\n      add\n      0x00\n        /* \"contracts/CreatorsContent.sol\":5723:5759  ContentBuys[indexBuy].isPayed = true */\n      0x0100\n      exp\n      dup2\n      sload\n      dup2\n      0xff\n      mul\n      not\n      and\n      swap1\n      dup4\n      iszero\n      iszero\n      mul\n      or\n      swap1\n      sstore\n      pop\n        /* \"contracts/CreatorsContent.sol\":5469:5766  function getBalanceForSingleBuy(address payable addr, uint256 indexBuy) public payable {... */\n      pop\n      pop\n      jump\t// out\n        /* \"@openzeppelin/contracts/utils/Counters.sol\":1309:1393  function reset(Counter storage counter) internal {... */\n    tag_115:\n        /* \"@openzeppelin/contracts/utils/Counters.sol\":1385:1386  0 */\n      0x00\n        /* \"@openzeppelin/contracts/utils/Counters.sol\":1368:1375  counter */\n      dup2\n        /* \"@openzeppelin/contracts/utils/Counters.sol\":1368:1382  counter._value */\n      0x00\n      add\n        /* \"@openzeppelin/contracts/utils/Counters.sol\":1368:1386  counter._value = 0 */\n      dup2\n      swap1\n      sstore\n      pop\n        /* \"@openzeppelin/contracts/utils/Counters.sol\":1309:1393  function reset(Counter storage counter) internal {... */\n      pop\n      jump\t// out\n        /* \"contracts/CreatorsContent.sol\":2749:3049  function getProfileByAddress(address addr) private view returns (Profile memory) {... */\n    tag_181:\n        /* \"contracts/CreatorsContent.sol\":2814:2828  Profile memory */\n      tag_394\n      tag_178\n      jump\t// in\n    tag_394:\n        /* \"contracts/CreatorsContent.sol\":2845:2854  uint256 i */\n      0x00\n        /* \"contracts/CreatorsContent.sol\":2840:2989  for (uint256 i=0; i < Profiles.length; i++) {... */\n    tag_396:\n        /* \"contracts/CreatorsContent.sol\":2862:2870  Profiles */\n      0x01\n        /* \"contracts/CreatorsContent.sol\":2862:2877  Profiles.length */\n      dup1\n      sload\n      swap1\n      pop\n        /* \"contracts/CreatorsContent.sol\":2858:2859  i */\n      dup2\n        /* \"contracts/CreatorsContent.sol\":2858:2877  i < Profiles.length */\n      lt\n        /* \"contracts/CreatorsContent.sol\":2840:2989  for (uint256 i=0; i < Profiles.length; i++) {... */\n      iszero\n      tag_397\n      jumpi\n        /* \"contracts/CreatorsContent.sol\":2922:2926  addr */\n      dup3\n        /* \"contracts/CreatorsContent.sol\":2902:2926  Profiles[i].addr == addr */\n      0xffffffffffffffffffffffffffffffffffffffff\n      and\n        /* \"contracts/CreatorsContent.sol\":2902:2910  Profiles */\n      0x01\n        /* \"contracts/CreatorsContent.sol\":2911:2912  i */\n      dup3\n        /* \"contracts/CreatorsContent.sol\":2902:2913  Profiles[i] */\n      dup2\n      sload\n      dup2\n      lt\n      tag_399\n      jumpi\n      tag_400\n      tag_150\n      jump\t// in\n    tag_400:\n    tag_399:\n      swap1\n      0x00\n      mstore\n      keccak256(0x00, 0x20)\n      swap1\n      0x03\n      mul\n      add\n        /* \"contracts/CreatorsContent.sol\":2902:2918  Profiles[i].addr */\n      0x01\n      add\n      0x00\n      swap1\n      sload\n      swap1\n      0x0100\n      exp\n      swap1\n      div\n      0xffffffffffffffffffffffffffffffffffffffff\n      and\n        /* \"contracts/CreatorsContent.sol\":2902:2926  Profiles[i].addr == addr */\n      0xffffffffffffffffffffffffffffffffffffffff\n      and\n      sub\n        /* \"contracts/CreatorsContent.sol\":2898:2979  if (Profiles[i].addr == addr) {... */\n      tag_402\n      jumpi\n        /* \"contracts/CreatorsContent.sol\":2953:2961  Profiles */\n      0x01\n        /* \"contracts/CreatorsContent.sol\":2962:2963  i */\n      dup2\n        /* \"contracts/CreatorsContent.sol\":2953:2964  Profiles[i] */\n      dup2\n      sload\n      dup2\n      lt\n      tag_403\n      jumpi\n      tag_404\n      tag_150\n      jump\t// in\n    tag_404:\n    tag_403:\n      swap1\n      0x00\n      mstore\n      keccak256(0x00, 0x20)\n      swap1\n      0x03\n      mul\n      add\n        /* \"contracts/CreatorsContent.sol\":2946:2964  return Profiles[i] */\n      mload(0x40)\n      dup1\n      0x60\n      add\n      0x40\n      mstore\n      swap1\n      dup2\n      0x00\n      dup3\n      add\n      dup1\n      sload\n      tag_406\n      swap1\n      tag_121\n      jump\t// in\n    tag_406:\n      dup1\n      0x1f\n      add\n      0x20\n      dup1\n      swap2\n      div\n      mul\n      0x20\n      add\n      mload(0x40)\n      swap1\n      dup2\n      add\n      0x40\n      mstore\n      dup1\n      swap3\n      swap2\n      swap1\n      dup2\n      dup2\n      mstore\n      0x20\n      add\n      dup3\n      dup1\n      sload\n      tag_407\n      swap1\n      tag_121\n      jump\t// in\n    tag_407:\n      dup1\n      iszero\n      tag_408\n      jumpi\n      dup1\n      0x1f\n      lt\n      tag_409\n      jumpi\n      0x0100\n      dup1\n      dup4\n      sload\n      div\n      mul\n      dup4\n      mstore\n      swap2\n      0x20\n      add\n      swap2\n      jump(tag_408)\n    tag_409:\n      dup3\n      add\n      swap2\n      swap1\n      0x00\n      mstore\n      keccak256(0x00, 0x20)\n      swap1\n    tag_410:\n      dup2\n      sload\n      dup2\n      mstore\n      swap1\n      0x01\n      add\n      swap1\n      0x20\n      add\n      dup1\n      dup4\n      gt\n      tag_410\n      jumpi\n      dup3\n      swap1\n      sub\n      0x1f\n      and\n      dup3\n      add\n      swap2\n    tag_408:\n      pop\n      pop\n      pop\n      pop\n      pop\n      dup2\n      mstore\n      0x20\n      add\n      0x01\n      dup3\n      add\n      0x00\n      swap1\n      sload\n      swap1\n      0x0100\n      exp\n      swap1\n      div\n      0xffffffffffffffffffffffffffffffffffffffff\n      and\n      0xffffffffffffffffffffffffffffffffffffffff\n      and\n      0xffffffffffffffffffffffffffffffffffffffff\n      and\n      dup2\n      mstore\n      0x20\n      add\n      0x02\n      dup3\n      add\n      dup1\n      sload\n      tag_411\n      swap1\n      tag_121\n      jump\t// in\n    tag_411:\n      dup1\n      0x1f\n      add\n      0x20\n      dup1\n      swap2\n      div\n      mul\n      0x20\n      add\n      mload(0x40)\n      swap1\n      dup2\n      add\n      0x40\n      mstore\n      dup1\n      swap3\n      swap2\n      swap1\n      dup2\n      dup2\n      mstore\n      0x20\n      add\n      dup3\n      dup1\n      sload\n      tag_412\n      swap1\n      tag_121\n      jump\t// in\n    tag_412:\n      dup1\n      iszero\n      tag_413\n      jumpi\n      dup1\n      0x1f\n      lt\n      tag_414\n      jumpi\n      0x0100\n      dup1\n      dup4\n      sload\n      div\n      mul\n      dup4\n      mstore\n      swap2\n      0x20\n      add\n      swap2\n      jump(tag_413)\n    tag_414:\n      dup3\n      add\n      swap2\n      swap1\n      0x00\n      mstore\n      keccak256(0x00, 0x20)\n      swap1\n    tag_415:\n      dup2\n      sload\n      dup2\n      mstore\n      swap1\n      0x01\n      add\n      swap1\n      0x20\n      add\n      dup1\n      dup4\n      gt\n      tag_415\n      jumpi\n      dup3\n      swap1\n      sub\n      0x1f\n      and\n      dup3\n      add\n      swap2\n    tag_413:\n      pop\n      pop\n      pop\n      pop\n      pop\n      dup2\n      mstore\n      pop\n      pop\n      swap2\n      pop\n      pop\n      jump(tag_395)\n        /* \"contracts/CreatorsContent.sol\":2898:2979  if (Profiles[i].addr == addr) {... */\n    tag_402:\n        /* \"contracts/CreatorsContent.sol\":2879:2882  i++ */\n      dup1\n      dup1\n      tag_416\n      swap1\n      tag_153\n      jump\t// in\n    tag_416:\n      swap2\n      pop\n      pop\n        /* \"contracts/CreatorsContent.sol\":2840:2989  for (uint256 i=0; i < Profiles.length; i++) {... */\n      jump(tag_396)\n    tag_397:\n      pop\n        /* \"contracts/CreatorsContent.sol\":2999:3019  Profile memory empty */\n      tag_417\n      tag_178\n      jump\t// in\n    tag_417:\n        /* \"contracts/CreatorsContent.sol\":3037:3042  empty */\n      dup1\n        /* \"contracts/CreatorsContent.sol\":3030:3042  return empty */\n      swap2\n      pop\n      pop\n        /* \"contracts/CreatorsContent.sol\":2749:3049  function getProfileByAddress(address addr) private view returns (Profile memory) {... */\n    tag_395:\n      swap2\n      swap1\n      pop\n      jump\t// out\n        /* \"contracts/CreatorsContent.sol\":897:1170  function getUserCoursesLen(address user) private view returns (uint256) {... */\n    tag_184:\n        /* \"contracts/CreatorsContent.sol\":960:967  uint256 */\n      0x00\n        /* \"contracts/CreatorsContent.sol\":979:990  uint256 len */\n      dup1\n        /* \"contracts/CreatorsContent.sol\":993:994  0 */\n      0x00\n        /* \"contracts/CreatorsContent.sol\":979:994  uint256 len = 0 */\n      swap1\n      pop\n        /* \"contracts/CreatorsContent.sol\":1009:1018  uint256 i */\n      0x00\n        /* \"contracts/CreatorsContent.sol\":1004:1144  for (uint256 i=0; i < Contents.length ; i++) {... */\n    tag_419:\n        /* \"contracts/CreatorsContent.sol\":1026:1034  Contents */\n      0x00\n        /* \"contracts/CreatorsContent.sol\":1026:1041  Contents.length */\n      dup1\n      sload\n      swap1\n      pop\n        /* \"contracts/CreatorsContent.sol\":1022:1023  i */\n      dup2\n        /* \"contracts/CreatorsContent.sol\":1022:1041  i < Contents.length */\n      lt\n        /* \"contracts/CreatorsContent.sol\":1004:1144  for (uint256 i=0; i < Contents.length ; i++) {... */\n      iszero\n      tag_420\n      jumpi\n        /* \"contracts/CreatorsContent.sol\":1089:1093  user */\n      dup4\n        /* \"contracts/CreatorsContent.sol\":1067:1093  Contents[i].author == user */\n      0xffffffffffffffffffffffffffffffffffffffff\n      and\n        /* \"contracts/CreatorsContent.sol\":1067:1075  Contents */\n      0x00\n        /* \"contracts/CreatorsContent.sol\":1076:1077  i */\n      dup3\n        /* \"contracts/CreatorsContent.sol\":1067:1078  Contents[i] */\n      dup2\n      sload\n      dup2\n      lt\n      tag_422\n      jumpi\n      tag_423\n      tag_150\n      jump\t// in\n    tag_423:\n    tag_422:\n      swap1\n      0x00\n      mstore\n      keccak256(0x00, 0x20)\n      swap1\n      0x08\n      mul\n      add\n        /* \"contracts/CreatorsContent.sol\":1067:1085  Contents[i].author */\n      0x01\n      add\n      0x00\n      swap1\n      sload\n      swap1\n      0x0100\n      exp\n      swap1\n      div\n      0xffffffffffffffffffffffffffffffffffffffff\n      and\n        /* \"contracts/CreatorsContent.sol\":1067:1093  Contents[i].author == user */\n      0xffffffffffffffffffffffffffffffffffffffff\n      and\n      sub\n        /* \"contracts/CreatorsContent.sol\":1063:1134  if (Contents[i].author == user) {... */\n      tag_425\n      jumpi\n        /* \"contracts/CreatorsContent.sol\":1113:1119  len ++ */\n      dup2\n      dup1\n      tag_426\n      swap1\n      tag_153\n      jump\t// in\n    tag_426:\n      swap3\n      pop\n      pop\n        /* \"contracts/CreatorsContent.sol\":1063:1134  if (Contents[i].author == user) {... */\n    tag_425:\n        /* \"contracts/CreatorsContent.sol\":1044:1047  i++ */\n      dup1\n      dup1\n      tag_427\n      swap1\n      tag_153\n      jump\t// in\n    tag_427:\n      swap2\n      pop\n      pop\n        /* \"contracts/CreatorsContent.sol\":1004:1144  for (uint256 i=0; i < Contents.length ; i++) {... */\n      jump(tag_419)\n    tag_420:\n      pop\n        /* \"contracts/CreatorsContent.sol\":1160:1163  len */\n      dup1\n        /* \"contracts/CreatorsContent.sol\":1153:1163  return len */\n      swap2\n      pop\n      pop\n        /* \"contracts/CreatorsContent.sol\":897:1170  function getUserCoursesLen(address user) private view returns (uint256) {... */\n      swap2\n      swap1\n      pop\n      jump\t// out\n        /* \"@openzeppelin/contracts/utils/Counters.sol\":827:939  function current(Counter storage counter) internal view returns (uint256) {... */\n    tag_228:\n        /* \"@openzeppelin/contracts/utils/Counters.sol\":892:899  uint256 */\n      0x00\n        /* \"@openzeppelin/contracts/utils/Counters.sol\":918:925  counter */\n      dup2\n        /* \"@openzeppelin/contracts/utils/Counters.sol\":918:932  counter._value */\n      0x00\n      add\n      sload\n        /* \"@openzeppelin/contracts/utils/Counters.sol\":911:932  return counter._value */\n      swap1\n      pop\n        /* \"@openzeppelin/contracts/utils/Counters.sol\":827:939  function current(Counter storage counter) internal view returns (uint256) {... */\n      swap2\n      swap1\n      pop\n      jump\t// out\n        /* \"@openzeppelin/contracts/utils/Counters.sol\":945:1068  function increment(Counter storage counter) internal {... */\n    tag_235:\n        /* \"@openzeppelin/contracts/utils/Counters.sol\":1050:1051  1 */\n      0x01\n        /* \"@openzeppelin/contracts/utils/Counters.sol\":1032:1039  counter */\n      dup2\n        /* \"@openzeppelin/contracts/utils/Counters.sol\":1032:1046  counter._value */\n      0x00\n      add\n      0x00\n        /* \"@openzeppelin/contracts/utils/Counters.sol\":1032:1051  counter._value += 1 */\n      dup3\n      dup3\n      sload\n      add\n      swap3\n      pop\n      pop\n      dup2\n      swap1\n      sstore\n      pop\n        /* \"@openzeppelin/contracts/utils/Counters.sol\":945:1068  function increment(Counter storage counter) internal {... */\n      pop\n      jump\t// out\n        /* \"contracts/CreatorsContent.sol\":3055:3369  function getProficeIndexByAddress(address addr) private view returns (uint256) {... */\n    tag_350:\n        /* \"contracts/CreatorsContent.sol\":3125:3132  uint256 */\n      0x00\n        /* \"contracts/CreatorsContent.sol\":3149:3158  uint256 i */\n      dup1\n        /* \"contracts/CreatorsContent.sol\":3159:3160  0 */\n      0x00\n        /* \"contracts/CreatorsContent.sol\":3149:3160  uint256 i=0 */\n      swap1\n      pop\n        /* \"contracts/CreatorsContent.sol\":3144:3283  for (uint256 i=0; i < Profiles.length; i++) {... */\n    tag_431:\n        /* \"contracts/CreatorsContent.sol\":3166:3174  Profiles */\n      0x01\n        /* \"contracts/CreatorsContent.sol\":3166:3181  Profiles.length */\n      dup1\n      sload\n      swap1\n      pop\n        /* \"contracts/CreatorsContent.sol\":3162:3163  i */\n      dup2\n        /* \"contracts/CreatorsContent.sol\":3162:3181  i < Profiles.length */\n      lt\n        /* \"contracts/CreatorsContent.sol\":3144:3283  for (uint256 i=0; i < Profiles.length; i++) {... */\n      iszero\n      tag_432\n      jumpi\n        /* \"contracts/CreatorsContent.sol\":3226:3230  addr */\n      dup3\n        /* \"contracts/CreatorsContent.sol\":3206:3230  Profiles[i].addr == addr */\n      0xffffffffffffffffffffffffffffffffffffffff\n      and\n        /* \"contracts/CreatorsContent.sol\":3206:3214  Profiles */\n      0x01\n        /* \"contracts/CreatorsContent.sol\":3215:3216  i */\n      dup3\n        /* \"contracts/CreatorsContent.sol\":3206:3217  Profiles[i] */\n      dup2\n      sload\n      dup2\n      lt\n      tag_434\n      jumpi\n      tag_435\n      tag_150\n      jump\t// in\n    tag_435:\n    tag_434:\n      swap1\n      0x00\n      mstore\n      keccak256(0x00, 0x20)\n      swap1\n      0x03\n      mul\n      add\n        /* \"contracts/CreatorsContent.sol\":3206:3222  Profiles[i].addr */\n      0x01\n      add\n      0x00\n      swap1\n      sload\n      swap1\n      0x0100\n      exp\n      swap1\n      div\n      0xffffffffffffffffffffffffffffffffffffffff\n      and\n        /* \"contracts/CreatorsContent.sol\":3206:3230  Profiles[i].addr == addr */\n      0xffffffffffffffffffffffffffffffffffffffff\n      and\n      sub\n        /* \"contracts/CreatorsContent.sol\":3202:3273  if (Profiles[i].addr == addr) {... */\n      tag_437\n      jumpi\n        /* \"contracts/CreatorsContent.sol\":3257:3258  i */\n      dup1\n        /* \"contracts/CreatorsContent.sol\":3250:3258  return i */\n      swap2\n      pop\n      pop\n      jump(tag_430)\n        /* \"contracts/CreatorsContent.sol\":3202:3273  if (Profiles[i].addr == addr) {... */\n    tag_437:\n        /* \"contracts/CreatorsContent.sol\":3183:3186  i++ */\n      dup1\n      dup1\n      tag_438\n      swap1\n      tag_153\n      jump\t// in\n    tag_438:\n      swap2\n      pop\n      pop\n        /* \"contracts/CreatorsContent.sol\":3144:3283  for (uint256 i=0; i < Profiles.length; i++) {... */\n      jump(tag_431)\n    tag_432:\n      pop\n        /* \"contracts/CreatorsContent.sol\":3347:3355  Profiles */\n      0x01\n        /* \"contracts/CreatorsContent.sol\":3347:3362  Profiles.length */\n      dup1\n      sload\n      swap1\n      pop\n        /* \"contracts/CreatorsContent.sol\":3340:3362  return Profiles.length */\n      swap1\n      pop\n        /* \"contracts/CreatorsContent.sol\":3055:3369  function getProficeIndexByAddress(address addr) private view returns (uint256) {... */\n    tag_430:\n      swap2\n      swap1\n      pop\n      jump\t// out\n    tag_178:\n      mload(0x40)\n      dup1\n      0x60\n      add\n      0x40\n      mstore\n      dup1\n      0x60\n      dup2\n      mstore\n      0x20\n      add\n      and(0xffffffffffffffffffffffffffffffffffffffff, 0x00)\n      dup2\n      mstore\n      0x20\n      add\n      0x60\n      dup2\n      mstore\n      pop\n      swap1\n      jump\t// out\n    tag_191:\n      mload(0x40)\n      dup1\n      0x0100\n      add\n      0x40\n      mstore\n      dup1\n      0x00\n      dup2\n      mstore\n      0x20\n      add\n      and(0xffffffffffffffffffffffffffffffffffffffff, 0x00)\n      dup2\n      mstore\n      0x20\n      add\n      0x60\n      dup2\n      mstore\n      0x20\n      add\n      0x60\n      dup2\n      mstore\n      0x20\n      add\n      0x00\n      dup2\n      mstore\n      0x20\n      add\n      0x60\n      dup2\n      mstore\n      0x20\n      add\n      iszero(iszero(0x00))\n      dup2\n      mstore\n      0x20\n      add\n      0x60\n      dup2\n      mstore\n      pop\n      swap1\n      jump\t// out\n        /* \"#utility.yul\":7:144   */\n    tag_439:\n        /* \"#utility.yul\":97:103   */\n      0x00\n        /* \"#utility.yul\":131:136   */\n      dup2\n        /* \"#utility.yul\":125:137   */\n      mload\n        /* \"#utility.yul\":115:137   */\n      swap1\n      pop\n        /* \"#utility.yul\":7:144   */\n      swap2\n      swap1\n      pop\n      jump\t// out\n        /* \"#utility.yul\":150:357   */\n    tag_440:\n        /* \"#utility.yul\":272:283   */\n      0x00\n        /* \"#utility.yul\":306:312   */\n      dup3\n        /* \"#utility.yul\":301:304   */\n      dup3\n        /* \"#utility.yul\":294:313   */\n      mstore\n        /* \"#utility.yul\":346:350   */\n      0x20\n        /* \"#utility.yul\":341:344   */\n      dup3\n        /* \"#utility.yul\":337:351   */\n      add\n        /* \"#utility.yul\":322:351   */\n      swap1\n      pop\n        /* \"#utility.yul\":150:357   */\n      swap3\n      swap2\n      pop\n      pop\n      jump\t// out\n        /* \"#utility.yul\":363:518   */\n    tag_441:\n        /* \"#utility.yul\":453:457   */\n      0x00\n        /* \"#utility.yul\":476:479   */\n      dup2\n        /* \"#utility.yul\":468:479   */\n      swap1\n      pop\n        /* \"#utility.yul\":506:510   */\n      0x20\n        /* \"#utility.yul\":501:504   */\n      dup3\n        /* \"#utility.yul\":497:511   */\n      add\n        /* \"#utility.yul\":489:511   */\n      swap1\n      pop\n        /* \"#utility.yul\":363:518   */\n      swap2\n      swap1\n      pop\n      jump\t// out\n        /* \"#utility.yul\":524:601   */\n    tag_442:\n        /* \"#utility.yul\":561:568   */\n      0x00\n        /* \"#utility.yul\":590:595   */\n      dup2\n        /* \"#utility.yul\":579:595   */\n      swap1\n      pop\n        /* \"#utility.yul\":524:601   */\n      swap2\n      swap1\n      pop\n      jump\t// out\n        /* \"#utility.yul\":607:715   */\n    tag_443:\n        /* \"#utility.yul\":684:708   */\n      tag_513\n        /* \"#utility.yul\":702:707   */\n      dup2\n        /* \"#utility.yul\":684:708   */\n      tag_442\n      jump\t// in\n    tag_513:\n        /* \"#utility.yul\":679:682   */\n      dup3\n        /* \"#utility.yul\":672:709   */\n      mstore\n        /* \"#utility.yul\":607:715   */\n      pop\n      pop\n      jump\t// out\n        /* \"#utility.yul\":721:847   */\n    tag_444:\n        /* \"#utility.yul\":758:765   */\n      0x00\n        /* \"#utility.yul\":798:840   */\n      0xffffffffffffffffffffffffffffffffffffffff\n        /* \"#utility.yul\":791:796   */\n      dup3\n        /* \"#utility.yul\":787:841   */\n      and\n        /* \"#utility.yul\":776:841   */\n      swap1\n      pop\n        /* \"#utility.yul\":721:847   */\n      swap2\n      swap1\n      pop\n      jump\t// out\n        /* \"#utility.yul\":853:949   */\n    tag_445:\n        /* \"#utility.yul\":890:897   */\n      0x00\n        /* \"#utility.yul\":919:943   */\n      tag_516\n        /* \"#utility.yul\":937:942   */\n      dup3\n        /* \"#utility.yul\":919:943   */\n      tag_444\n      jump\t// in\n    tag_516:\n        /* \"#utility.yul\":908:943   */\n      swap1\n      pop\n        /* \"#utility.yul\":853:949   */\n      swap2\n      swap1\n      pop\n      jump\t// out\n        /* \"#utility.yul\":955:1063   */\n    tag_446:\n        /* \"#utility.yul\":1032:1056   */\n      tag_518\n        /* \"#utility.yul\":1050:1055   */\n      dup2\n        /* \"#utility.yul\":1032:1056   */\n      tag_445\n      jump\t// in\n    tag_518:\n        /* \"#utility.yul\":1027:1030   */\n      dup3\n        /* \"#utility.yul\":1020:1057   */\n      mstore\n        /* \"#utility.yul\":955:1063   */\n      pop\n      pop\n      jump\t// out\n        /* \"#utility.yul\":1069:1168   */\n    tag_447:\n        /* \"#utility.yul\":1121:1127   */\n      0x00\n        /* \"#utility.yul\":1155:1160   */\n      dup2\n        /* \"#utility.yul\":1149:1161   */\n      mload\n        /* \"#utility.yul\":1139:1161   */\n      swap1\n      pop\n        /* \"#utility.yul\":1069:1168   */\n      swap2\n      swap1\n      pop\n      jump\t// out\n        /* \"#utility.yul\":1174:1333   */\n    tag_448:\n        /* \"#utility.yul\":1248:1259   */\n      0x00\n        /* \"#utility.yul\":1282:1288   */\n      dup3\n        /* \"#utility.yul\":1277:1280   */\n      dup3\n        /* \"#utility.yul\":1270:1289   */\n      mstore\n        /* \"#utility.yul\":1322:1326   */\n      0x20\n        /* \"#utility.yul\":1317:1320   */\n      dup3\n        /* \"#utility.yul\":1313:1327   */\n      add\n        /* \"#utility.yul\":1298:1327   */\n      swap1\n      pop\n        /* \"#utility.yul\":1174:1333   */\n      swap3\n      swap2\n      pop\n      pop\n      jump\t// out\n        /* \"#utility.yul\":1339:1585   */\n    tag_449:\n        /* \"#utility.yul\":1420:1421   */\n      0x00\n        /* \"#utility.yul\":1430:1543   */\n    tag_522:\n        /* \"#utility.yul\":1444:1450   */\n      dup4\n        /* \"#utility.yul\":1441:1442   */\n      dup2\n        /* \"#utility.yul\":1438:1451   */\n      lt\n        /* \"#utility.yul\":1430:1543   */\n      iszero\n      tag_524\n      jumpi\n        /* \"#utility.yul\":1529:1530   */\n      dup1\n        /* \"#utility.yul\":1524:1527   */\n      dup3\n        /* \"#utility.yul\":1520:1531   */\n      add\n        /* \"#utility.yul\":1514:1532   */\n      mload\n        /* \"#utility.yul\":1510:1511   */\n      dup2\n        /* \"#utility.yul\":1505:1508   */\n      dup5\n        /* \"#utility.yul\":1501:1512   */\n      add\n        /* \"#utility.yul\":1494:1533   */\n      mstore\n        /* \"#utility.yul\":1466:1468   */\n      0x20\n        /* \"#utility.yul\":1463:1464   */\n      dup2\n        /* \"#utility.yul\":1459:1469   */\n      add\n        /* \"#utility.yul\":1454:1469   */\n      swap1\n      pop\n        /* \"#utility.yul\":1430:1543   */\n      jump(tag_522)\n    tag_524:\n        /* \"#utility.yul\":1577:1578   */\n      0x00\n        /* \"#utility.yul\":1568:1574   */\n      dup5\n        /* \"#utility.yul\":1563:1566   */\n      dup5\n        /* \"#utility.yul\":1559:1575   */\n      add\n        /* \"#utility.yul\":1552:1579   */\n      mstore\n        /* \"#utility.yul\":1401:1585   */\n      pop\n        /* \"#utility.yul\":1339:1585   */\n      pop\n      pop\n      pop\n      jump\t// out\n        /* \"#utility.yul\":1591:1693   */\n    tag_450:\n        /* \"#utility.yul\":1632:1638   */\n      0x00\n        /* \"#utility.yul\":1683:1685   */\n      0x1f\n        /* \"#utility.yul\":1679:1686   */\n      not\n        /* \"#utility.yul\":1674:1676   */\n      0x1f\n        /* \"#utility.yul\":1667:1672   */\n      dup4\n        /* \"#utility.yul\":1663:1677   */\n      add\n        /* \"#utility.yul\":1659:1687   */\n      and\n        /* \"#utility.yul\":1649:1687   */\n      swap1\n      pop\n        /* \"#utility.yul\":1591:1693   */\n      swap2\n      swap1\n      pop\n      jump\t// out\n        /* \"#utility.yul\":1699:2056   */\n    tag_451:\n        /* \"#utility.yul\":1777:1780   */\n      0x00\n        /* \"#utility.yul\":1805:1844   */\n      tag_527\n        /* \"#utility.yul\":1838:1843   */\n      dup3\n        /* \"#utility.yul\":1805:1844   */\n      tag_447\n      jump\t// in\n    tag_527:\n        /* \"#utility.yul\":1860:1921   */\n      tag_528\n        /* \"#utility.yul\":1914:1920   */\n      dup2\n        /* \"#utility.yul\":1909:1912   */\n      dup6\n        /* \"#utility.yul\":1860:1921   */\n      tag_448\n      jump\t// in\n    tag_528:\n        /* \"#utility.yul\":1853:1921   */\n      swap4\n      pop\n        /* \"#utility.yul\":1930:1995   */\n      tag_529\n        /* \"#utility.yul\":1988:1994   */\n      dup2\n        /* \"#utility.yul\":1983:1986   */\n      dup6\n        /* \"#utility.yul\":1976:1980   */\n      0x20\n        /* \"#utility.yul\":1969:1974   */\n      dup7\n        /* \"#utility.yul\":1965:1981   */\n      add\n        /* \"#utility.yul\":1930:1995   */\n      tag_449\n      jump\t// in\n    tag_529:\n        /* \"#utility.yul\":2020:2049   */\n      tag_530\n        /* \"#utility.yul\":2042:2048   */\n      dup2\n        /* \"#utility.yul\":2020:2049   */\n      tag_450\n      jump\t// in\n    tag_530:\n        /* \"#utility.yul\":2015:2018   */\n      dup5\n        /* \"#utility.yul\":2011:2050   */\n      add\n        /* \"#utility.yul\":2004:2050   */\n      swap2\n      pop\n        /* \"#utility.yul\":1781:2056   */\n      pop\n        /* \"#utility.yul\":1699:2056   */\n      swap3\n      swap2\n      pop\n      pop\n      jump\t// out\n        /* \"#utility.yul\":2062:2152   */\n    tag_452:\n        /* \"#utility.yul\":2096:2103   */\n      0x00\n        /* \"#utility.yul\":2139:2144   */\n      dup2\n        /* \"#utility.yul\":2132:2145   */\n      iszero\n        /* \"#utility.yul\":2125:2146   */\n      iszero\n        /* \"#utility.yul\":2114:2146   */\n      swap1\n      pop\n        /* \"#utility.yul\":2062:2152   */\n      swap2\n      swap1\n      pop\n      jump\t// out\n        /* \"#utility.yul\":2158:2257   */\n    tag_453:\n        /* \"#utility.yul\":2229:2250   */\n      tag_533\n        /* \"#utility.yul\":2244:2249   */\n      dup2\n        /* \"#utility.yul\":2229:2250   */\n      tag_452\n      jump\t// in\n    tag_533:\n        /* \"#utility.yul\":2224:2227   */\n      dup3\n        /* \"#utility.yul\":2217:2251   */\n      mstore\n        /* \"#utility.yul\":2158:2257   */\n      pop\n      pop\n      jump\t// out\n        /* \"#utility.yul\":2335:4198   */\n    tag_454:\n        /* \"#utility.yul\":2440:2443   */\n      0x00\n        /* \"#utility.yul\":2476:2482   */\n      0x0100\n        /* \"#utility.yul\":2471:2474   */\n      dup4\n        /* \"#utility.yul\":2467:2483   */\n      add\n        /* \"#utility.yul\":2563:2567   */\n      0x00\n        /* \"#utility.yul\":2556:2561   */\n      dup4\n        /* \"#utility.yul\":2552:2568   */\n      add\n        /* \"#utility.yul\":2546:2569   */\n      mload\n        /* \"#utility.yul\":2582:2645   */\n      tag_535\n        /* \"#utility.yul\":2639:2643   */\n      0x00\n        /* \"#utility.yul\":2634:2637   */\n      dup7\n        /* \"#utility.yul\":2630:2644   */\n      add\n        /* \"#utility.yul\":2616:2628   */\n      dup3\n        /* \"#utility.yul\":2582:2645   */\n      tag_443\n      jump\t// in\n    tag_535:\n        /* \"#utility.yul\":2493:2655   */\n      pop\n        /* \"#utility.yul\":2739:2743   */\n      0x20\n        /* \"#utility.yul\":2732:2737   */\n      dup4\n        /* \"#utility.yul\":2728:2744   */\n      add\n        /* \"#utility.yul\":2722:2745   */\n      mload\n        /* \"#utility.yul\":2758:2821   */\n      tag_536\n        /* \"#utility.yul\":2815:2819   */\n      0x20\n        /* \"#utility.yul\":2810:2813   */\n      dup7\n        /* \"#utility.yul\":2806:2820   */\n      add\n        /* \"#utility.yul\":2792:2804   */\n      dup3\n        /* \"#utility.yul\":2758:2821   */\n      tag_446\n      jump\t// in\n    tag_536:\n        /* \"#utility.yul\":2665:2831   */\n      pop\n        /* \"#utility.yul\":2914:2918   */\n      0x40\n        /* \"#utility.yul\":2907:2912   */\n      dup4\n        /* \"#utility.yul\":2903:2919   */\n      add\n        /* \"#utility.yul\":2897:2920   */\n      mload\n        /* \"#utility.yul\":2967:2970   */\n      dup5\n        /* \"#utility.yul\":2961:2965   */\n      dup3\n        /* \"#utility.yul\":2957:2971   */\n      sub\n        /* \"#utility.yul\":2950:2954   */\n      0x40\n        /* \"#utility.yul\":2945:2948   */\n      dup7\n        /* \"#utility.yul\":2941:2955   */\n      add\n        /* \"#utility.yul\":2934:2972   */\n      mstore\n        /* \"#utility.yul\":2993:3066   */\n      tag_537\n        /* \"#utility.yul\":3061:3065   */\n      dup3\n        /* \"#utility.yul\":3047:3059   */\n      dup3\n        /* \"#utility.yul\":2993:3066   */\n      tag_451\n      jump\t// in\n    tag_537:\n        /* \"#utility.yul\":2985:3066   */\n      swap2\n      pop\n        /* \"#utility.yul\":2841:3077   */\n      pop\n        /* \"#utility.yul\":3166:3170   */\n      0x60\n        /* \"#utility.yul\":3159:3164   */\n      dup4\n        /* \"#utility.yul\":3155:3171   */\n      add\n        /* \"#utility.yul\":3149:3172   */\n      mload\n        /* \"#utility.yul\":3219:3222   */\n      dup5\n        /* \"#utility.yul\":3213:3217   */\n      dup3\n        /* \"#utility.yul\":3209:3223   */\n      sub\n        /* \"#utility.yul\":3202:3206   */\n      0x60\n        /* \"#utility.yul\":3197:3200   */\n      dup7\n        /* \"#utility.yul\":3193:3207   */\n      add\n        /* \"#utility.yul\":3186:3224   */\n      mstore\n        /* \"#utility.yul\":3245:3318   */\n      tag_538\n        /* \"#utility.yul\":3313:3317   */\n      dup3\n        /* \"#utility.yul\":3299:3311   */\n      dup3\n        /* \"#utility.yul\":3245:3318   */\n      tag_451\n      jump\t// in\n    tag_538:\n        /* \"#utility.yul\":3237:3318   */\n      swap2\n      pop\n        /* \"#utility.yul\":3087:3329   */\n      pop\n        /* \"#utility.yul\":3412:3416   */\n      0x80\n        /* \"#utility.yul\":3405:3410   */\n      dup4\n        /* \"#utility.yul\":3401:3417   */\n      add\n        /* \"#utility.yul\":3395:3418   */\n      mload\n        /* \"#utility.yul\":3431:3494   */\n      tag_539\n        /* \"#utility.yul\":3488:3492   */\n      0x80\n        /* \"#utility.yul\":3483:3486   */\n      dup7\n        /* \"#utility.yul\":3479:3493   */\n      add\n        /* \"#utility.yul\":3465:3477   */\n      dup3\n        /* \"#utility.yul\":3431:3494   */\n      tag_443\n      jump\t// in\n    tag_539:\n        /* \"#utility.yul\":3339:3504   */\n      pop\n        /* \"#utility.yul\":3587:3591   */\n      0xa0\n        /* \"#utility.yul\":3580:3585   */\n      dup4\n        /* \"#utility.yul\":3576:3592   */\n      add\n        /* \"#utility.yul\":3570:3593   */\n      mload\n        /* \"#utility.yul\":3640:3643   */\n      dup5\n        /* \"#utility.yul\":3634:3638   */\n      dup3\n        /* \"#utility.yul\":3630:3644   */\n      sub\n        /* \"#utility.yul\":3623:3627   */\n      0xa0\n        /* \"#utility.yul\":3618:3621   */\n      dup7\n        /* \"#utility.yul\":3614:3628   */\n      add\n        /* \"#utility.yul\":3607:3645   */\n      mstore\n        /* \"#utility.yul\":3666:3739   */\n      tag_540\n        /* \"#utility.yul\":3734:3738   */\n      dup3\n        /* \"#utility.yul\":3720:3732   */\n      dup3\n        /* \"#utility.yul\":3666:3739   */\n      tag_451\n      jump\t// in\n    tag_540:\n        /* \"#utility.yul\":3658:3739   */\n      swap2\n      pop\n        /* \"#utility.yul\":3514:3750   */\n      pop\n        /* \"#utility.yul\":3835:3839   */\n      0xc0\n        /* \"#utility.yul\":3828:3833   */\n      dup4\n        /* \"#utility.yul\":3824:3840   */\n      add\n        /* \"#utility.yul\":3818:3841   */\n      mload\n        /* \"#utility.yul\":3854:3911   */\n      tag_541\n        /* \"#utility.yul\":3905:3909   */\n      0xc0\n        /* \"#utility.yul\":3900:3903   */\n      dup7\n        /* \"#utility.yul\":3896:3910   */\n      add\n        /* \"#utility.yul\":3882:3894   */\n      dup3\n        /* \"#utility.yul\":3854:3911   */\n      tag_453\n      jump\t// in\n    tag_541:\n        /* \"#utility.yul\":3760:3921   */\n      pop\n        /* \"#utility.yul\":4008:4012   */\n      0xe0\n        /* \"#utility.yul\":4001:4006   */\n      dup4\n        /* \"#utility.yul\":3997:4013   */\n      add\n        /* \"#utility.yul\":3991:4014   */\n      mload\n        /* \"#utility.yul\":4061:4064   */\n      dup5\n        /* \"#utility.yul\":4055:4059   */\n      dup3\n        /* \"#utility.yul\":4051:4065   */\n      sub\n        /* \"#utility.yul\":4044:4048   */\n      0xe0\n        /* \"#utility.yul\":4039:4042   */\n      dup7\n        /* \"#utility.yul\":4035:4049   */\n      add\n        /* \"#utility.yul\":4028:4066   */\n      mstore\n        /* \"#utility.yul\":4087:4160   */\n      tag_542\n        /* \"#utility.yul\":4155:4159   */\n      dup3\n        /* \"#utility.yul\":4141:4153   */\n      dup3\n        /* \"#utility.yul\":4087:4160   */\n      tag_451\n      jump\t// in\n    tag_542:\n        /* \"#utility.yul\":4079:4160   */\n      swap2\n      pop\n        /* \"#utility.yul\":3931:4171   */\n      pop\n        /* \"#utility.yul\":4188:4192   */\n      dup1\n        /* \"#utility.yul\":4181:4192   */\n      swap2\n      pop\n        /* \"#utility.yul\":2445:4198   */\n      pop\n        /* \"#utility.yul\":2335:4198   */\n      swap3\n      swap2\n      pop\n      pop\n      jump\t// out\n        /* \"#utility.yul\":4204:4452   */\n    tag_455:\n        /* \"#utility.yul\":4319:4329   */\n      0x00\n        /* \"#utility.yul\":4354:4446   */\n      tag_544\n        /* \"#utility.yul\":4442:4445   */\n      dup4\n        /* \"#utility.yul\":4434:4440   */\n      dup4\n        /* \"#utility.yul\":4354:4446   */\n      tag_454\n      jump\t// in\n    tag_544:\n        /* \"#utility.yul\":4340:4446   */\n      swap1\n      pop\n        /* \"#utility.yul\":4204:4452   */\n      swap3\n      swap2\n      pop\n      pop\n      jump\t// out\n        /* \"#utility.yul\":4458:4594   */\n    tag_456:\n        /* \"#utility.yul\":4551:4555   */\n      0x00\n        /* \"#utility.yul\":4583:4587   */\n      0x20\n        /* \"#utility.yul\":4578:4581   */\n      dup3\n        /* \"#utility.yul\":4574:4588   */\n      add\n        /* \"#utility.yul\":4566:4588   */\n      swap1\n      pop\n        /* \"#utility.yul\":4458:4594   */\n      swap2\n      swap1\n      pop\n      jump\t// out\n        /* \"#utility.yul\":4676:5771   */\n    tag_457:\n        /* \"#utility.yul\":4841:4844   */\n      0x00\n        /* \"#utility.yul\":4870:4947   */\n      tag_547\n        /* \"#utility.yul\":4941:4946   */\n      dup3\n        /* \"#utility.yul\":4870:4947   */\n      tag_439\n      jump\t// in\n    tag_547:\n        /* \"#utility.yul\":4963:5072   */\n      tag_548\n        /* \"#utility.yul\":5065:5071   */\n      dup2\n        /* \"#utility.yul\":5060:5063   */\n      dup6\n        /* \"#utility.yul\":4963:5072   */\n      tag_440\n      jump\t// in\n    tag_548:\n        /* \"#utility.yul\":4956:5072   */\n      swap4\n      pop\n        /* \"#utility.yul\":5098:5101   */\n      dup4\n        /* \"#utility.yul\":5143:5147   */\n      0x20\n        /* \"#utility.yul\":5135:5141   */\n      dup3\n        /* \"#utility.yul\":5131:5148   */\n      mul\n        /* \"#utility.yul\":5126:5129   */\n      dup6\n        /* \"#utility.yul\":5122:5149   */\n      add\n        /* \"#utility.yul\":5173:5252   */\n      tag_549\n        /* \"#utility.yul\":5246:5251   */\n      dup6\n        /* \"#utility.yul\":5173:5252   */\n      tag_441\n      jump\t// in\n    tag_549:\n        /* \"#utility.yul\":5275:5282   */\n      dup1\n        /* \"#utility.yul\":5306:5307   */\n      0x00\n        /* \"#utility.yul\":5291:5726   */\n    tag_550:\n        /* \"#utility.yul\":5316:5322   */\n      dup6\n        /* \"#utility.yul\":5313:5314   */\n      dup2\n        /* \"#utility.yul\":5310:5323   */\n      lt\n        /* \"#utility.yul\":5291:5726   */\n      iszero\n      tag_552\n      jumpi\n        /* \"#utility.yul\":5387:5396   */\n      dup5\n        /* \"#utility.yul\":5381:5385   */\n      dup5\n        /* \"#utility.yul\":5377:5397   */\n      sub\n        /* \"#utility.yul\":5372:5375   */\n      dup10\n        /* \"#utility.yul\":5365:5398   */\n      mstore\n        /* \"#utility.yul\":5438:5444   */\n      dup2\n        /* \"#utility.yul\":5432:5445   */\n      mload\n        /* \"#utility.yul\":5466:5576   */\n      tag_553\n        /* \"#utility.yul\":5571:5575   */\n      dup6\n        /* \"#utility.yul\":5556:5569   */\n      dup3\n        /* \"#utility.yul\":5466:5576   */\n      tag_455\n      jump\t// in\n    tag_553:\n        /* \"#utility.yul\":5458:5576   */\n      swap5\n      pop\n        /* \"#utility.yul\":5599:5682   */\n      tag_554\n        /* \"#utility.yul\":5675:5681   */\n      dup4\n        /* \"#utility.yul\":5599:5682   */\n      tag_456\n      jump\t// in\n    tag_554:\n        /* \"#utility.yul\":5589:5682   */\n      swap3\n      pop\n        /* \"#utility.yul\":5711:5715   */\n      0x20\n        /* \"#utility.yul\":5706:5709   */\n      dup11\n        /* \"#utility.yul\":5702:5716   */\n      add\n        /* \"#utility.yul\":5695:5716   */\n      swap10\n      pop\n        /* \"#utility.yul\":5351:5726   */\n      pop\n        /* \"#utility.yul\":5338:5339   */\n      0x01\n        /* \"#utility.yul\":5335:5336   */\n      dup2\n        /* \"#utility.yul\":5331:5340   */\n      add\n        /* \"#utility.yul\":5326:5340   */\n      swap1\n      pop\n        /* \"#utility.yul\":5291:5726   */\n      jump(tag_550)\n    tag_552:\n        /* \"#utility.yul\":5295:5309   */\n      pop\n        /* \"#utility.yul\":5742:5746   */\n      dup3\n        /* \"#utility.yul\":5735:5746   */\n      swap8\n      pop\n        /* \"#utility.yul\":5762:5765   */\n      dup8\n        /* \"#utility.yul\":5755:5765   */\n      swap6\n      pop\n        /* \"#utility.yul\":4846:5771   */\n      pop\n      pop\n      pop\n      pop\n      pop\n        /* \"#utility.yul\":4676:5771   */\n      swap3\n      swap2\n      pop\n      pop\n      jump\t// out\n        /* \"#utility.yul\":5777:6242   */\n    tag_27:\n        /* \"#utility.yul\":5966:5970   */\n      0x00\n        /* \"#utility.yul\":6004:6006   */\n      0x20\n        /* \"#utility.yul\":5993:6002   */\n      dup3\n        /* \"#utility.yul\":5989:6007   */\n      add\n        /* \"#utility.yul\":5981:6007   */\n      swap1\n      pop\n        /* \"#utility.yul\":6053:6062   */\n      dup2\n        /* \"#utility.yul\":6047:6051   */\n      dup2\n        /* \"#utility.yul\":6043:6063   */\n      sub\n        /* \"#utility.yul\":6039:6040   */\n      0x00\n        /* \"#utility.yul\":6028:6037   */\n      dup4\n        /* \"#utility.yul\":6024:6041   */\n      add\n        /* \"#utility.yul\":6017:6064   */\n      mstore\n        /* \"#utility.yul\":6081:6235   */\n      tag_556\n        /* \"#utility.yul\":6230:6234   */\n      dup2\n        /* \"#utility.yul\":6221:6227   */\n      dup5\n        /* \"#utility.yul\":6081:6235   */\n      tag_457\n      jump\t// in\n    tag_556:\n        /* \"#utility.yul\":6073:6235   */\n      swap1\n      pop\n        /* \"#utility.yul\":5777:6242   */\n      swap3\n      swap2\n      pop\n      pop\n      jump\t// out\n        /* \"#utility.yul\":6248:6323   */\n    tag_458:\n        /* \"#utility.yul\":6281:6287   */\n      0x00\n        /* \"#utility.yul\":6314:6316   */\n      0x40\n        /* \"#utility.yul\":6308:6317   */\n      mload\n        /* \"#utility.yul\":6298:6317   */\n      swap1\n      pop\n        /* \"#utility.yul\":6248:6323   */\n      swap1\n      jump\t// out\n        /* \"#utility.yul\":6329:6446   */\n    tag_459:\n        /* \"#utility.yul\":6438:6439   */\n      0x00\n        /* \"#utility.yul\":6435:6436   */\n      dup1\n        /* \"#utility.yul\":6428:6440   */\n      revert\n        /* \"#utility.yul\":6452:6569   */\n    tag_460:\n        /* \"#utility.yul\":6561:6562   */\n      0x00\n        /* \"#utility.yul\":6558:6559   */\n      dup1\n        /* \"#utility.yul\":6551:6563   */\n      revert\n        /* \"#utility.yul\":6575:6679   */\n    tag_461:\n        /* \"#utility.yul\":6620:6627   */\n      0x00\n        /* \"#utility.yul\":6649:6673   */\n      tag_561\n        /* \"#utility.yul\":6667:6672   */\n      dup3\n        /* \"#utility.yul\":6649:6673   */\n      tag_444\n      jump\t// in\n    tag_561:\n        /* \"#utility.yul\":6638:6673   */\n      swap1\n      pop\n        /* \"#utility.yul\":6575:6679   */\n      swap2\n      swap1\n      pop\n      jump\t// out\n        /* \"#utility.yul\":6685:6823   */\n    tag_462:\n        /* \"#utility.yul\":6766:6798   */\n      tag_563\n        /* \"#utility.yul\":6792:6797   */\n      dup2\n        /* \"#utility.yul\":6766:6798   */\n      tag_461\n      jump\t// in\n    tag_563:\n        /* \"#utility.yul\":6759:6764   */\n      dup2\n        /* \"#utility.yul\":6756:6799   */\n      eq\n        /* \"#utility.yul\":6746:6817   */\n      tag_564\n      jumpi\n        /* \"#utility.yul\":6813:6814   */\n      0x00\n        /* \"#utility.yul\":6810:6811   */\n      dup1\n        /* \"#utility.yul\":6803:6815   */\n      revert\n        /* \"#utility.yul\":6746:6817   */\n    tag_564:\n        /* \"#utility.yul\":6685:6823   */\n      pop\n      jump\t// out\n        /* \"#utility.yul\":6829:6984   */\n    tag_463:\n        /* \"#utility.yul\":6883:6888   */\n      0x00\n        /* \"#utility.yul\":6921:6927   */\n      dup2\n        /* \"#utility.yul\":6908:6928   */\n      calldataload\n        /* \"#utility.yul\":6899:6928   */\n      swap1\n      pop\n        /* \"#utility.yul\":6937:6978   */\n      tag_566\n        /* \"#utility.yul\":6972:6977   */\n      dup2\n        /* \"#utility.yul\":6937:6978   */\n      tag_462\n      jump\t// in\n    tag_566:\n        /* \"#utility.yul\":6829:6984   */\n      swap3\n      swap2\n      pop\n      pop\n      jump\t// out\n        /* \"#utility.yul\":6990:7335   */\n    tag_30:\n        /* \"#utility.yul\":7057:7063   */\n      0x00\n        /* \"#utility.yul\":7106:7108   */\n      0x20\n        /* \"#utility.yul\":7094:7103   */\n      dup3\n        /* \"#utility.yul\":7085:7092   */\n      dup5\n        /* \"#utility.yul\":7081:7104   */\n      sub\n        /* \"#utility.yul\":7077:7109   */\n      slt\n        /* \"#utility.yul\":7074:7193   */\n      iszero\n      tag_568\n      jumpi\n        /* \"#utility.yul\":7112:7191   */\n      tag_569\n      tag_459\n      jump\t// in\n    tag_569:\n        /* \"#utility.yul\":7074:7193   */\n    tag_568:\n        /* \"#utility.yul\":7232:7233   */\n      0x00\n        /* \"#utility.yul\":7257:7318   */\n      tag_570\n        /* \"#utility.yul\":7310:7317   */\n      dup5\n        /* \"#utility.yul\":7301:7307   */\n      dup3\n        /* \"#utility.yul\":7290:7299   */\n      dup6\n        /* \"#utility.yul\":7286:7308   */\n      add\n        /* \"#utility.yul\":7257:7318   */\n      tag_463\n      jump\t// in\n    tag_570:\n        /* \"#utility.yul\":7247:7318   */\n      swap2\n      pop\n        /* \"#utility.yul\":7203:7328   */\n      pop\n        /* \"#utility.yul\":6990:7335   */\n      swap3\n      swap2\n      pop\n      pop\n      jump\t// out\n        /* \"#utility.yul\":7341:7458   */\n    tag_464:\n        /* \"#utility.yul\":7450:7451   */\n      0x00\n        /* \"#utility.yul\":7447:7448   */\n      dup1\n        /* \"#utility.yul\":7440:7452   */\n      revert\n        /* \"#utility.yul\":7464:7581   */\n    tag_465:\n        /* \"#utility.yul\":7573:7574   */\n      0x00\n        /* \"#utility.yul\":7570:7571   */\n      dup1\n        /* \"#utility.yul\":7563:7575   */\n      revert\n        /* \"#utility.yul\":7587:7767   */\n    tag_187:\n        /* \"#utility.yul\":7635:7712   */\n      0x4e487b7100000000000000000000000000000000000000000000000000000000\n        /* \"#utility.yul\":7632:7633   */\n      0x00\n        /* \"#utility.yul\":7625:7713   */\n      mstore\n        /* \"#utility.yul\":7732:7736   */\n      0x41\n        /* \"#utility.yul\":7729:7730   */\n      0x04\n        /* \"#utility.yul\":7722:7737   */\n      mstore\n        /* \"#utility.yul\":7756:7760   */\n      0x24\n        /* \"#utility.yul\":7753:7754   */\n      0x00\n        /* \"#utility.yul\":7746:7761   */\n      revert\n        /* \"#utility.yul\":7773:8054   */\n    tag_466:\n        /* \"#utility.yul\":7856:7883   */\n      tag_575\n        /* \"#utility.yul\":7878:7882   */\n      dup3\n        /* \"#utility.yul\":7856:7883   */\n      tag_450\n      jump\t// in\n    tag_575:\n        /* \"#utility.yul\":7848:7854   */\n      dup2\n        /* \"#utility.yul\":7844:7884   */\n      add\n        /* \"#utility.yul\":7986:7992   */\n      dup2\n        /* \"#utility.yul\":7974:7984   */\n      dup2\n        /* \"#utility.yul\":7971:7993   */\n      lt\n        /* \"#utility.yul\":7950:7968   */\n      0xffffffffffffffff\n        /* \"#utility.yul\":7938:7948   */\n      dup3\n        /* \"#utility.yul\":7935:7969   */\n      gt\n        /* \"#utility.yul\":7932:7994   */\n      or\n        /* \"#utility.yul\":7929:8017   */\n      iszero\n      tag_576\n      jumpi\n        /* \"#utility.yul\":7997:8015   */\n      tag_577\n      tag_187\n      jump\t// in\n    tag_577:\n        /* \"#utility.yul\":7929:8017   */\n    tag_576:\n        /* \"#utility.yul\":8037:8047   */\n      dup1\n        /* \"#utility.yul\":8033:8035   */\n      0x40\n        /* \"#utility.yul\":8026:8048   */\n      mstore\n        /* \"#utility.yul\":7816:8054   */\n      pop\n        /* \"#utility.yul\":7773:8054   */\n      pop\n      pop\n      jump\t// out\n        /* \"#utility.yul\":8060:8189   */\n    tag_467:\n        /* \"#utility.yul\":8094:8100   */\n      0x00\n        /* \"#utility.yul\":8121:8141   */\n      tag_579\n      tag_458\n      jump\t// in\n    tag_579:\n        /* \"#utility.yul\":8111:8141   */\n      swap1\n      pop\n        /* \"#utility.yul\":8150:8183   */\n      tag_580\n        /* \"#utility.yul\":8178:8182   */\n      dup3\n        /* \"#utility.yul\":8170:8176   */\n      dup3\n        /* \"#utility.yul\":8150:8183   */\n      tag_466\n      jump\t// in\n    tag_580:\n        /* \"#utility.yul\":8060:8189   */\n      swap2\n      swap1\n      pop\n      jump\t// out\n        /* \"#utility.yul\":8195:8503   */\n    tag_468:\n        /* \"#utility.yul\":8257:8261   */\n      0x00\n        /* \"#utility.yul\":8347:8365   */\n      0xffffffffffffffff\n        /* \"#utility.yul\":8339:8345   */\n      dup3\n        /* \"#utility.yul\":8336:8366   */\n      gt\n        /* \"#utility.yul\":8333:8389   */\n      iszero\n      tag_582\n      jumpi\n        /* \"#utility.yul\":8369:8387   */\n      tag_583\n      tag_187\n      jump\t// in\n    tag_583:\n        /* \"#utility.yul\":8333:8389   */\n    tag_582:\n        /* \"#utility.yul\":8407:8436   */\n      tag_584\n        /* \"#utility.yul\":8429:8435   */\n      dup3\n        /* \"#utility.yul\":8407:8436   */\n      tag_450\n      jump\t// in\n    tag_584:\n        /* \"#utility.yul\":8399:8436   */\n      swap1\n      pop\n        /* \"#utility.yul\":8491:8495   */\n      0x20\n        /* \"#utility.yul\":8485:8489   */\n      dup2\n        /* \"#utility.yul\":8481:8496   */\n      add\n        /* \"#utility.yul\":8473:8496   */\n      swap1\n      pop\n        /* \"#utility.yul\":8195:8503   */\n      swap2\n      swap1\n      pop\n      jump\t// out\n        /* \"#utility.yul\":8509:8655   */\n    tag_469:\n        /* \"#utility.yul\":8606:8612   */\n      dup3\n        /* \"#utility.yul\":8601:8604   */\n      dup2\n        /* \"#utility.yul\":8596:8599   */\n      dup4\n        /* \"#utility.yul\":8583:8613   */\n      calldatacopy\n        /* \"#utility.yul\":8647:8648   */\n      0x00\n        /* \"#utility.yul\":8638:8644   */\n      dup4\n        /* \"#utility.yul\":8633:8636   */\n      dup4\n        /* \"#utility.yul\":8629:8645   */\n      add\n        /* \"#utility.yul\":8622:8649   */\n      mstore\n        /* \"#utility.yul\":8509:8655   */\n      pop\n      pop\n      pop\n      jump\t// out\n        /* \"#utility.yul\":8661:9086   */\n    tag_470:\n        /* \"#utility.yul\":8739:8744   */\n      0x00\n        /* \"#utility.yul\":8764:8830   */\n      tag_587\n        /* \"#utility.yul\":8780:8829   */\n      tag_588\n        /* \"#utility.yul\":8822:8828   */\n      dup5\n        /* \"#utility.yul\":8780:8829   */\n      tag_468\n      jump\t// in\n    tag_588:\n        /* \"#utility.yul\":8764:8830   */\n      tag_467\n      jump\t// in\n    tag_587:\n        /* \"#utility.yul\":8755:8830   */\n      swap1\n      pop\n        /* \"#utility.yul\":8853:8859   */\n      dup3\n        /* \"#utility.yul\":8846:8851   */\n      dup2\n        /* \"#utility.yul\":8839:8860   */\n      mstore\n        /* \"#utility.yul\":8891:8895   */\n      0x20\n        /* \"#utility.yul\":8884:8889   */\n      dup2\n        /* \"#utility.yul\":8880:8896   */\n      add\n        /* \"#utility.yul\":8929:8932   */\n      dup5\n        /* \"#utility.yul\":8920:8926   */\n      dup5\n        /* \"#utility.yul\":8915:8918   */\n      dup5\n        /* \"#utility.yul\":8911:8927   */\n      add\n        /* \"#utility.yul\":8908:8933   */\n      gt\n        /* \"#utility.yul\":8905:9017   */\n      iszero\n      tag_589\n      jumpi\n        /* \"#utility.yul\":8936:9015   */\n      tag_590\n      tag_465\n      jump\t// in\n    tag_590:\n        /* \"#utility.yul\":8905:9017   */\n    tag_589:\n        /* \"#utility.yul\":9026:9080   */\n      tag_591\n        /* \"#utility.yul\":9073:9079   */\n      dup5\n        /* \"#utility.yul\":9068:9071   */\n      dup3\n        /* \"#utility.yul\":9063:9066   */\n      dup6\n        /* \"#utility.yul\":9026:9080   */\n      tag_469\n      jump\t// in\n    tag_591:\n        /* \"#utility.yul\":8745:9086   */\n      pop\n        /* \"#utility.yul\":8661:9086   */\n      swap4\n      swap3\n      pop\n      pop\n      pop\n      jump\t// out\n        /* \"#utility.yul\":9106:9446   */\n    tag_471:\n        /* \"#utility.yul\":9162:9167   */\n      0x00\n        /* \"#utility.yul\":9211:9214   */\n      dup3\n        /* \"#utility.yul\":9204:9208   */\n      0x1f\n        /* \"#utility.yul\":9196:9202   */\n      dup4\n        /* \"#utility.yul\":9192:9209   */\n      add\n        /* \"#utility.yul\":9188:9215   */\n      slt\n        /* \"#utility.yul\":9178:9300   */\n      tag_593\n      jumpi\n        /* \"#utility.yul\":9219:9298   */\n      tag_594\n      tag_464\n      jump\t// in\n    tag_594:\n        /* \"#utility.yul\":9178:9300   */\n    tag_593:\n        /* \"#utility.yul\":9336:9342   */\n      dup2\n        /* \"#utility.yul\":9323:9343   */\n      calldataload\n        /* \"#utility.yul\":9361:9440   */\n      tag_595\n        /* \"#utility.yul\":9436:9439   */\n      dup5\n        /* \"#utility.yul\":9428:9434   */\n      dup3\n        /* \"#utility.yul\":9421:9425   */\n      0x20\n        /* \"#utility.yul\":9413:9419   */\n      dup7\n        /* \"#utility.yul\":9409:9426   */\n      add\n        /* \"#utility.yul\":9361:9440   */\n      tag_470\n      jump\t// in\n    tag_595:\n        /* \"#utility.yul\":9352:9440   */\n      swap2\n      pop\n        /* \"#utility.yul\":9168:9446   */\n      pop\n        /* \"#utility.yul\":9106:9446   */\n      swap3\n      swap2\n      pop\n      pop\n      jump\t// out\n        /* \"#utility.yul\":9452:10286   */\n    tag_35:\n        /* \"#utility.yul\":9540:9546   */\n      0x00\n        /* \"#utility.yul\":9548:9554   */\n      dup1\n        /* \"#utility.yul\":9597:9599   */\n      0x40\n        /* \"#utility.yul\":9585:9594   */\n      dup4\n        /* \"#utility.yul\":9576:9583   */\n      dup6\n        /* \"#utility.yul\":9572:9595   */\n      sub\n        /* \"#utility.yul\":9568:9600   */\n      slt\n        /* \"#utility.yul\":9565:9684   */\n      iszero\n      tag_597\n      jumpi\n        /* \"#utility.yul\":9603:9682   */\n      tag_598\n      tag_459\n      jump\t// in\n    tag_598:\n        /* \"#utility.yul\":9565:9684   */\n    tag_597:\n        /* \"#utility.yul\":9751:9752   */\n      0x00\n        /* \"#utility.yul\":9740:9749   */\n      dup4\n        /* \"#utility.yul\":9736:9753   */\n      add\n        /* \"#utility.yul\":9723:9754   */\n      calldataload\n        /* \"#utility.yul\":9781:9799   */\n      0xffffffffffffffff\n        /* \"#utility.yul\":9773:9779   */\n      dup2\n        /* \"#utility.yul\":9770:9800   */\n      gt\n        /* \"#utility.yul\":9767:9884   */\n      iszero\n      tag_599\n      jumpi\n        /* \"#utility.yul\":9803:9882   */\n      tag_600\n      tag_460\n      jump\t// in\n    tag_600:\n        /* \"#utility.yul\":9767:9884   */\n    tag_599:\n        /* \"#utility.yul\":9908:9971   */\n      tag_601\n        /* \"#utility.yul\":9963:9970   */\n      dup6\n        /* \"#utility.yul\":9954:9960   */\n      dup3\n        /* \"#utility.yul\":9943:9952   */\n      dup7\n        /* \"#utility.yul\":9939:9961   */\n      add\n        /* \"#utility.yul\":9908:9971   */\n      tag_471\n      jump\t// in\n    tag_601:\n        /* \"#utility.yul\":9898:9971   */\n      swap3\n      pop\n        /* \"#utility.yul\":9694:9981   */\n      pop\n        /* \"#utility.yul\":10048:10050   */\n      0x20\n        /* \"#utility.yul\":10037:10046   */\n      dup4\n        /* \"#utility.yul\":10033:10051   */\n      add\n        /* \"#utility.yul\":10020:10052   */\n      calldataload\n        /* \"#utility.yul\":10079:10097   */\n      0xffffffffffffffff\n        /* \"#utility.yul\":10071:10077   */\n      dup2\n        /* \"#utility.yul\":10068:10098   */\n      gt\n        /* \"#utility.yul\":10065:10182   */\n      iszero\n      tag_602\n      jumpi\n        /* \"#utility.yul\":10101:10180   */\n      tag_603\n      tag_460\n      jump\t// in\n    tag_603:\n        /* \"#utility.yul\":10065:10182   */\n    tag_602:\n        /* \"#utility.yul\":10206:10269   */\n      tag_604\n        /* \"#utility.yul\":10261:10268   */\n      dup6\n        /* \"#utility.yul\":10252:10258   */\n      dup3\n        /* \"#utility.yul\":10241:10250   */\n      dup7\n        /* \"#utility.yul\":10237:10259   */\n      add\n        /* \"#utility.yul\":10206:10269   */\n      tag_471\n      jump\t// in\n    tag_604:\n        /* \"#utility.yul\":10196:10269   */\n      swap2\n      pop\n        /* \"#utility.yul\":9991:10279   */\n      pop\n        /* \"#utility.yul\":9452:10286   */\n      swap3\n      pop\n      swap3\n      swap1\n      pop\n      jump\t// out\n        /* \"#utility.yul\":10292:10401   */\n    tag_472:\n        /* \"#utility.yul\":10373:10394   */\n      tag_606\n        /* \"#utility.yul\":10388:10393   */\n      dup2\n        /* \"#utility.yul\":10373:10394   */\n      tag_452\n      jump\t// in\n    tag_606:\n        /* \"#utility.yul\":10368:10371   */\n      dup3\n        /* \"#utility.yul\":10361:10395   */\n      mstore\n        /* \"#utility.yul\":10292:10401   */\n      pop\n      pop\n      jump\t// out\n        /* \"#utility.yul\":10407:10617   */\n    tag_38:\n        /* \"#utility.yul\":10494:10498   */\n      0x00\n        /* \"#utility.yul\":10532:10534   */\n      0x20\n        /* \"#utility.yul\":10521:10530   */\n      dup3\n        /* \"#utility.yul\":10517:10535   */\n      add\n        /* \"#utility.yul\":10509:10535   */\n      swap1\n      pop\n        /* \"#utility.yul\":10545:10610   */\n      tag_608\n        /* \"#utility.yul\":10607:10608   */\n      0x00\n        /* \"#utility.yul\":10596:10605   */\n      dup4\n        /* \"#utility.yul\":10592:10609   */\n      add\n        /* \"#utility.yul\":10583:10589   */\n      dup5\n        /* \"#utility.yul\":10545:10610   */\n      tag_472\n      jump\t// in\n    tag_608:\n        /* \"#utility.yul\":10407:10617   */\n      swap3\n      swap2\n      pop\n      pop\n      jump\t// out\n        /* \"#utility.yul\":10695:11552   */\n    tag_473:\n        /* \"#utility.yul\":10812:10815   */\n      0x00\n        /* \"#utility.yul\":10848:10852   */\n      0x60\n        /* \"#utility.yul\":10843:10846   */\n      dup4\n        /* \"#utility.yul\":10839:10853   */\n      add\n        /* \"#utility.yul\":10937:10941   */\n      0x00\n        /* \"#utility.yul\":10930:10935   */\n      dup4\n        /* \"#utility.yul\":10926:10942   */\n      add\n        /* \"#utility.yul\":10920:10943   */\n      mload\n        /* \"#utility.yul\":10990:10993   */\n      dup5\n        /* \"#utility.yul\":10984:10988   */\n      dup3\n        /* \"#utility.yul\":10980:10994   */\n      sub\n        /* \"#utility.yul\":10973:10977   */\n      0x00\n        /* \"#utility.yul\":10968:10971   */\n      dup7\n        /* \"#utility.yul\":10964:10978   */\n      add\n        /* \"#utility.yul\":10957:10995   */\n      mstore\n        /* \"#utility.yul\":11016:11089   */\n      tag_610\n        /* \"#utility.yul\":11084:11088   */\n      dup3\n        /* \"#utility.yul\":11070:11082   */\n      dup3\n        /* \"#utility.yul\":11016:11089   */\n      tag_451\n      jump\t// in\n    tag_610:\n        /* \"#utility.yul\":11008:11089   */\n      swap2\n      pop\n        /* \"#utility.yul\":10863:11100   */\n      pop\n        /* \"#utility.yul\":11182:11186   */\n      0x20\n        /* \"#utility.yul\":11175:11180   */\n      dup4\n        /* \"#utility.yul\":11171:11187   */\n      add\n        /* \"#utility.yul\":11165:11188   */\n      mload\n        /* \"#utility.yul\":11201:11264   */\n      tag_611\n        /* \"#utility.yul\":11258:11262   */\n      0x20\n        /* \"#utility.yul\":11253:11256   */\n      dup7\n        /* \"#utility.yul\":11249:11263   */\n      add\n        /* \"#utility.yul\":11235:11247   */\n      dup3\n        /* \"#utility.yul\":11201:11264   */\n      tag_446\n      jump\t// in\n    tag_611:\n        /* \"#utility.yul\":11110:11274   */\n      pop\n        /* \"#utility.yul\":11362:11366   */\n      0x40\n        /* \"#utility.yul\":11355:11360   */\n      dup4\n        /* \"#utility.yul\":11351:11367   */\n      add\n        /* \"#utility.yul\":11345:11368   */\n      mload\n        /* \"#utility.yul\":11415:11418   */\n      dup5\n        /* \"#utility.yul\":11409:11413   */\n      dup3\n        /* \"#utility.yul\":11405:11419   */\n      sub\n        /* \"#utility.yul\":11398:11402   */\n      0x40\n        /* \"#utility.yul\":11393:11396   */\n      dup7\n        /* \"#utility.yul\":11389:11403   */\n      add\n        /* \"#utility.yul\":11382:11420   */\n      mstore\n        /* \"#utility.yul\":11441:11514   */\n      tag_612\n        /* \"#utility.yul\":11509:11513   */\n      dup3\n        /* \"#utility.yul\":11495:11507   */\n      dup3\n        /* \"#utility.yul\":11441:11514   */\n      tag_451\n      jump\t// in\n    tag_612:\n        /* \"#utility.yul\":11433:11514   */\n      swap2\n      pop\n        /* \"#utility.yul\":11284:11525   */\n      pop\n        /* \"#utility.yul\":11542:11546   */\n      dup1\n        /* \"#utility.yul\":11535:11546   */\n      swap2\n      pop\n        /* \"#utility.yul\":10817:11552   */\n      pop\n        /* \"#utility.yul\":10695:11552   */\n      swap3\n      swap2\n      pop\n      pop\n      jump\t// out\n        /* \"#utility.yul\":11558:11927   */\n    tag_43:\n        /* \"#utility.yul\":11699:11703   */\n      0x00\n        /* \"#utility.yul\":11737:11739   */\n      0x20\n        /* \"#utility.yul\":11726:11735   */\n      dup3\n        /* \"#utility.yul\":11722:11740   */\n      add\n        /* \"#utility.yul\":11714:11740   */\n      swap1\n      pop\n        /* \"#utility.yul\":11786:11795   */\n      dup2\n        /* \"#utility.yul\":11780:11784   */\n      dup2\n        /* \"#utility.yul\":11776:11796   */\n      sub\n        /* \"#utility.yul\":11772:11773   */\n      0x00\n        /* \"#utility.yul\":11761:11770   */\n      dup4\n        /* \"#utility.yul\":11757:11774   */\n      add\n        /* \"#utility.yul\":11750:11797   */\n      mstore\n        /* \"#utility.yul\":11814:11920   */\n      tag_614\n        /* \"#utility.yul\":11915:11919   */\n      dup2\n        /* \"#utility.yul\":11906:11912   */\n      dup5\n        /* \"#utility.yul\":11814:11920   */\n      tag_473\n      jump\t// in\n    tag_614:\n        /* \"#utility.yul\":11806:11920   */\n      swap1\n      pop\n        /* \"#utility.yul\":11558:11927   */\n      swap3\n      swap2\n      pop\n      pop\n      jump\t// out\n        /* \"#utility.yul\":11933:12055   */\n    tag_474:\n        /* \"#utility.yul\":12006:12030   */\n      tag_616\n        /* \"#utility.yul\":12024:12029   */\n      dup2\n        /* \"#utility.yul\":12006:12030   */\n      tag_442\n      jump\t// in\n    tag_616:\n        /* \"#utility.yul\":11999:12004   */\n      dup2\n        /* \"#utility.yul\":11996:12031   */\n      eq\n        /* \"#utility.yul\":11986:12049   */\n      tag_617\n      jumpi\n        /* \"#utility.yul\":12045:12046   */\n      0x00\n        /* \"#utility.yul\":12042:12043   */\n      dup1\n        /* \"#utility.yul\":12035:12047   */\n      revert\n        /* \"#utility.yul\":11986:12049   */\n    tag_617:\n        /* \"#utility.yul\":11933:12055   */\n      pop\n      jump\t// out\n        /* \"#utility.yul\":12061:12200   */\n    tag_475:\n        /* \"#utility.yul\":12107:12112   */\n      0x00\n        /* \"#utility.yul\":12145:12151   */\n      dup2\n        /* \"#utility.yul\":12132:12152   */\n      calldataload\n        /* \"#utility.yul\":12123:12152   */\n      swap1\n      pop\n        /* \"#utility.yul\":12161:12194   */\n      tag_619\n        /* \"#utility.yul\":12188:12193   */\n      dup2\n        /* \"#utility.yul\":12161:12194   */\n      tag_474\n      jump\t// in\n    tag_619:\n        /* \"#utility.yul\":12061:12200   */\n      swap3\n      swap2\n      pop\n      pop\n      jump\t// out\n        /* \"#utility.yul\":12206:13837   */\n    tag_51:\n        /* \"#utility.yul\":12341:12347   */\n      0x00\n        /* \"#utility.yul\":12349:12355   */\n      dup1\n        /* \"#utility.yul\":12357:12363   */\n      0x00\n        /* \"#utility.yul\":12365:12371   */\n      dup1\n        /* \"#utility.yul\":12373:12379   */\n      0x00\n        /* \"#utility.yul\":12422:12425   */\n      0xa0\n        /* \"#utility.yul\":12410:12419   */\n      dup7\n        /* \"#utility.yul\":12401:12408   */\n      dup9\n        /* \"#utility.yul\":12397:12420   */\n      sub\n        /* \"#utility.yul\":12393:12426   */\n      slt\n        /* \"#utility.yul\":12390:12510   */\n      iszero\n      tag_621\n      jumpi\n        /* \"#utility.yul\":12429:12508   */\n      tag_622\n      tag_459\n      jump\t// in\n    tag_622:\n        /* \"#utility.yul\":12390:12510   */\n    tag_621:\n        /* \"#utility.yul\":12577:12578   */\n      0x00\n        /* \"#utility.yul\":12566:12575   */\n      dup7\n        /* \"#utility.yul\":12562:12579   */\n      add\n        /* \"#utility.yul\":12549:12580   */\n      calldataload\n        /* \"#utility.yul\":12607:12625   */\n      0xffffffffffffffff\n        /* \"#utility.yul\":12599:12605   */\n      dup2\n        /* \"#utility.yul\":12596:12626   */\n      gt\n        /* \"#utility.yul\":12593:12710   */\n      iszero\n      tag_623\n      jumpi\n        /* \"#utility.yul\":12629:12708   */\n      tag_624\n      tag_460\n      jump\t// in\n    tag_624:\n        /* \"#utility.yul\":12593:12710   */\n    tag_623:\n        /* \"#utility.yul\":12734:12797   */\n      tag_625\n        /* \"#utility.yul\":12789:12796   */\n      dup9\n        /* \"#utility.yul\":12780:12786   */\n      dup3\n        /* \"#utility.yul\":12769:12778   */\n      dup10\n        /* \"#utility.yul\":12765:12787   */\n      add\n        /* \"#utility.yul\":12734:12797   */\n      tag_471\n      jump\t// in\n    tag_625:\n        /* \"#utility.yul\":12724:12797   */\n      swap6\n      pop\n        /* \"#utility.yul\":12520:12807   */\n      pop\n        /* \"#utility.yul\":12874:12876   */\n      0x20\n        /* \"#utility.yul\":12863:12872   */\n      dup7\n        /* \"#utility.yul\":12859:12877   */\n      add\n        /* \"#utility.yul\":12846:12878   */\n      calldataload\n        /* \"#utility.yul\":12905:12923   */\n      0xffffffffffffffff\n        /* \"#utility.yul\":12897:12903   */\n      dup2\n        /* \"#utility.yul\":12894:12924   */\n      gt\n        /* \"#utility.yul\":12891:13008   */\n      iszero\n      tag_626\n      jumpi\n        /* \"#utility.yul\":12927:13006   */\n      tag_627\n      tag_460\n      jump\t// in\n    tag_627:\n        /* \"#utility.yul\":12891:13008   */\n    tag_626:\n        /* \"#utility.yul\":13032:13095   */\n      tag_628\n        /* \"#utility.yul\":13087:13094   */\n      dup9\n        /* \"#utility.yul\":13078:13084   */\n      dup3\n        /* \"#utility.yul\":13067:13076   */\n      dup10\n        /* \"#utility.yul\":13063:13085   */\n      add\n        /* \"#utility.yul\":13032:13095   */\n      tag_471\n      jump\t// in\n    tag_628:\n        /* \"#utility.yul\":13022:13095   */\n      swap5\n      pop\n        /* \"#utility.yul\":12817:13105   */\n      pop\n        /* \"#utility.yul\":13144:13146   */\n      0x40\n        /* \"#utility.yul\":13170:13223   */\n      tag_629\n        /* \"#utility.yul\":13215:13222   */\n      dup9\n        /* \"#utility.yul\":13206:13212   */\n      dup3\n        /* \"#utility.yul\":13195:13204   */\n      dup10\n        /* \"#utility.yul\":13191:13213   */\n      add\n        /* \"#utility.yul\":13170:13223   */\n      tag_475\n      jump\t// in\n    tag_629:\n        /* \"#utility.yul\":13160:13223   */\n      swap4\n      pop\n        /* \"#utility.yul\":13115:13233   */\n      pop\n        /* \"#utility.yul\":13300:13302   */\n      0x60\n        /* \"#utility.yul\":13289:13298   */\n      dup7\n        /* \"#utility.yul\":13285:13303   */\n      add\n        /* \"#utility.yul\":13272:13304   */\n      calldataload\n        /* \"#utility.yul\":13331:13349   */\n      0xffffffffffffffff\n        /* \"#utility.yul\":13323:13329   */\n      dup2\n        /* \"#utility.yul\":13320:13350   */\n      gt\n        /* \"#utility.yul\":13317:13434   */\n      iszero\n      tag_630\n      jumpi\n        /* \"#utility.yul\":13353:13432   */\n      tag_631\n      tag_460\n      jump\t// in\n    tag_631:\n        /* \"#utility.yul\":13317:13434   */\n    tag_630:\n        /* \"#utility.yul\":13458:13521   */\n      tag_632\n        /* \"#utility.yul\":13513:13520   */\n      dup9\n        /* \"#utility.yul\":13504:13510   */\n      dup3\n        /* \"#utility.yul\":13493:13502   */\n      dup10\n        /* \"#utility.yul\":13489:13511   */\n      add\n        /* \"#utility.yul\":13458:13521   */\n      tag_471\n      jump\t// in\n    tag_632:\n        /* \"#utility.yul\":13448:13521   */\n      swap3\n      pop\n        /* \"#utility.yul\":13243:13531   */\n      pop\n        /* \"#utility.yul\":13598:13601   */\n      0x80\n        /* \"#utility.yul\":13587:13596   */\n      dup7\n        /* \"#utility.yul\":13583:13602   */\n      add\n        /* \"#utility.yul\":13570:13603   */\n      calldataload\n        /* \"#utility.yul\":13630:13648   */\n      0xffffffffffffffff\n        /* \"#utility.yul\":13622:13628   */\n      dup2\n        /* \"#utility.yul\":13619:13649   */\n      gt\n        /* \"#utility.yul\":13616:13733   */\n      iszero\n      tag_633\n      jumpi\n        /* \"#utility.yul\":13652:13731   */\n      tag_634\n      tag_460\n      jump\t// in\n    tag_634:\n        /* \"#utility.yul\":13616:13733   */\n    tag_633:\n        /* \"#utility.yul\":13757:13820   */\n      tag_635\n        /* \"#utility.yul\":13812:13819   */\n      dup9\n        /* \"#utility.yul\":13803:13809   */\n      dup3\n        /* \"#utility.yul\":13792:13801   */\n      dup10\n        /* \"#utility.yul\":13788:13810   */\n      add\n        /* \"#utility.yul\":13757:13820   */\n      tag_471\n      jump\t// in\n    tag_635:\n        /* \"#utility.yul\":13747:13820   */\n      swap2\n      pop\n        /* \"#utility.yul\":13541:13830   */\n      pop\n        /* \"#utility.yul\":12206:13837   */\n      swap3\n      swap6\n      pop\n      swap3\n      swap6\n      swap1\n      swap4\n      pop\n      jump\t// out\n        /* \"#utility.yul\":13843:14172   */\n    tag_56:\n        /* \"#utility.yul\":13902:13908   */\n      0x00\n        /* \"#utility.yul\":13951:13953   */\n      0x20\n        /* \"#utility.yul\":13939:13948   */\n      dup3\n        /* \"#utility.yul\":13930:13937   */\n      dup5\n        /* \"#utility.yul\":13926:13949   */\n      sub\n        /* \"#utility.yul\":13922:13954   */\n      slt\n        /* \"#utility.yul\":13919:14038   */\n      iszero\n      tag_637\n      jumpi\n        /* \"#utility.yul\":13957:14036   */\n      tag_638\n      tag_459\n      jump\t// in\n    tag_638:\n        /* \"#utility.yul\":13919:14038   */\n    tag_637:\n        /* \"#utility.yul\":14077:14078   */\n      0x00\n        /* \"#utility.yul\":14102:14155   */\n      tag_639\n        /* \"#utility.yul\":14147:14154   */\n      dup5\n        /* \"#utility.yul\":14138:14144   */\n      dup3\n        /* \"#utility.yul\":14127:14136   */\n      dup6\n        /* \"#utility.yul\":14123:14145   */\n      add\n        /* \"#utility.yul\":14102:14155   */\n      tag_475\n      jump\t// in\n    tag_639:\n        /* \"#utility.yul\":14092:14155   */\n      swap2\n      pop\n        /* \"#utility.yul\":14048:14165   */\n      pop\n        /* \"#utility.yul\":13843:14172   */\n      swap3\n      swap2\n      pop\n      pop\n      jump\t// out\n        /* \"#utility.yul\":14178:14296   */\n    tag_476:\n        /* \"#utility.yul\":14265:14289   */\n      tag_641\n        /* \"#utility.yul\":14283:14288   */\n      dup2\n        /* \"#utility.yul\":14265:14289   */\n      tag_442\n      jump\t// in\n    tag_641:\n        /* \"#utility.yul\":14260:14263   */\n      dup3\n        /* \"#utility.yul\":14253:14290   */\n      mstore\n        /* \"#utility.yul\":14178:14296   */\n      pop\n      pop\n      jump\t// out\n        /* \"#utility.yul\":14302:14420   */\n    tag_477:\n        /* \"#utility.yul\":14389:14413   */\n      tag_643\n        /* \"#utility.yul\":14407:14412   */\n      dup2\n        /* \"#utility.yul\":14389:14413   */\n      tag_445\n      jump\t// in\n    tag_643:\n        /* \"#utility.yul\":14384:14387   */\n      dup3\n        /* \"#utility.yul\":14377:14414   */\n      mstore\n        /* \"#utility.yul\":14302:14420   */\n      pop\n      pop\n      jump\t// out\n        /* \"#utility.yul\":14426:14595   */\n    tag_478:\n        /* \"#utility.yul\":14510:14521   */\n      0x00\n        /* \"#utility.yul\":14544:14550   */\n      dup3\n        /* \"#utility.yul\":14539:14542   */\n      dup3\n        /* \"#utility.yul\":14532:14551   */\n      mstore\n        /* \"#utility.yul\":14584:14588   */\n      0x20\n        /* \"#utility.yul\":14579:14582   */\n      dup3\n        /* \"#utility.yul\":14575:14589   */\n      add\n        /* \"#utility.yul\":14560:14589   */\n      swap1\n      pop\n        /* \"#utility.yul\":14426:14595   */\n      swap3\n      swap2\n      pop\n      pop\n      jump\t// out\n        /* \"#utility.yul\":14601:14978   */\n    tag_479:\n        /* \"#utility.yul\":14689:14692   */\n      0x00\n        /* \"#utility.yul\":14717:14756   */\n      tag_646\n        /* \"#utility.yul\":14750:14755   */\n      dup3\n        /* \"#utility.yul\":14717:14756   */\n      tag_447\n      jump\t// in\n    tag_646:\n        /* \"#utility.yul\":14772:14843   */\n      tag_647\n        /* \"#utility.yul\":14836:14842   */\n      dup2\n        /* \"#utility.yul\":14831:14834   */\n      dup6\n        /* \"#utility.yul\":14772:14843   */\n      tag_478\n      jump\t// in\n    tag_647:\n        /* \"#utility.yul\":14765:14843   */\n      swap4\n      pop\n        /* \"#utility.yul\":14852:14917   */\n      tag_648\n        /* \"#utility.yul\":14910:14916   */\n      dup2\n        /* \"#utility.yul\":14905:14908   */\n      dup6\n        /* \"#utility.yul\":14898:14902   */\n      0x20\n        /* \"#utility.yul\":14891:14896   */\n      dup7\n        /* \"#utility.yul\":14887:14903   */\n      add\n        /* \"#utility.yul\":14852:14917   */\n      tag_449\n      jump\t// in\n    tag_648:\n        /* \"#utility.yul\":14942:14971   */\n      tag_649\n        /* \"#utility.yul\":14964:14970   */\n      dup2\n        /* \"#utility.yul\":14942:14971   */\n      tag_450\n      jump\t// in\n    tag_649:\n        /* \"#utility.yul\":14937:14940   */\n      dup5\n        /* \"#utility.yul\":14933:14972   */\n      add\n        /* \"#utility.yul\":14926:14972   */\n      swap2\n      pop\n        /* \"#utility.yul\":14693:14978   */\n      pop\n        /* \"#utility.yul\":14601:14978   */\n      swap3\n      swap2\n      pop\n      pop\n      jump\t// out\n        /* \"#utility.yul\":14984:16333   */\n    tag_59:\n        /* \"#utility.yul\":15347:15351   */\n      0x00\n        /* \"#utility.yul\":15385:15388   */\n      0x0100\n        /* \"#utility.yul\":15374:15383   */\n      dup3\n        /* \"#utility.yul\":15370:15389   */\n      add\n        /* \"#utility.yul\":15362:15389   */\n      swap1\n      pop\n        /* \"#utility.yul\":15399:15470   */\n      tag_651\n        /* \"#utility.yul\":15467:15468   */\n      0x00\n        /* \"#utility.yul\":15456:15465   */\n      dup4\n        /* \"#utility.yul\":15452:15469   */\n      add\n        /* \"#utility.yul\":15443:15449   */\n      dup12\n        /* \"#utility.yul\":15399:15470   */\n      tag_476\n      jump\t// in\n    tag_651:\n        /* \"#utility.yul\":15480:15552   */\n      tag_652\n        /* \"#utility.yul\":15548:15550   */\n      0x20\n        /* \"#utility.yul\":15537:15546   */\n      dup4\n        /* \"#utility.yul\":15533:15551   */\n      add\n        /* \"#utility.yul\":15524:15530   */\n      dup11\n        /* \"#utility.yul\":15480:15552   */\n      tag_477\n      jump\t// in\n    tag_652:\n        /* \"#utility.yul\":15599:15608   */\n      dup2\n        /* \"#utility.yul\":15593:15597   */\n      dup2\n        /* \"#utility.yul\":15589:15609   */\n      sub\n        /* \"#utility.yul\":15584:15586   */\n      0x40\n        /* \"#utility.yul\":15573:15582   */\n      dup4\n        /* \"#utility.yul\":15569:15587   */\n      add\n        /* \"#utility.yul\":15562:15610   */\n      mstore\n        /* \"#utility.yul\":15627:15705   */\n      tag_653\n        /* \"#utility.yul\":15700:15704   */\n      dup2\n        /* \"#utility.yul\":15691:15697   */\n      dup10\n        /* \"#utility.yul\":15627:15705   */\n      tag_479\n      jump\t// in\n    tag_653:\n        /* \"#utility.yul\":15619:15705   */\n      swap1\n      pop\n        /* \"#utility.yul\":15752:15761   */\n      dup2\n        /* \"#utility.yul\":15746:15750   */\n      dup2\n        /* \"#utility.yul\":15742:15762   */\n      sub\n        /* \"#utility.yul\":15737:15739   */\n      0x60\n        /* \"#utility.yul\":15726:15735   */\n      dup4\n        /* \"#utility.yul\":15722:15740   */\n      add\n        /* \"#utility.yul\":15715:15763   */\n      mstore\n        /* \"#utility.yul\":15780:15858   */\n      tag_654\n        /* \"#utility.yul\":15853:15857   */\n      dup2\n        /* \"#utility.yul\":15844:15850   */\n      dup9\n        /* \"#utility.yul\":15780:15858   */\n      tag_479\n      jump\t// in\n    tag_654:\n        /* \"#utility.yul\":15772:15858   */\n      swap1\n      pop\n        /* \"#utility.yul\":15868:15941   */\n      tag_655\n        /* \"#utility.yul\":15936:15939   */\n      0x80\n        /* \"#utility.yul\":15925:15934   */\n      dup4\n        /* \"#utility.yul\":15921:15940   */\n      add\n        /* \"#utility.yul\":15912:15918   */\n      dup8\n        /* \"#utility.yul\":15868:15941   */\n      tag_476\n      jump\t// in\n    tag_655:\n        /* \"#utility.yul\":15989:15998   */\n      dup2\n        /* \"#utility.yul\":15983:15987   */\n      dup2\n        /* \"#utility.yul\":15979:15999   */\n      sub\n        /* \"#utility.yul\":15973:15976   */\n      0xa0\n        /* \"#utility.yul\":15962:15971   */\n      dup4\n        /* \"#utility.yul\":15958:15977   */\n      add\n        /* \"#utility.yul\":15951:16000   */\n      mstore\n        /* \"#utility.yul\":16017:16095   */\n      tag_656\n        /* \"#utility.yul\":16090:16094   */\n      dup2\n        /* \"#utility.yul\":16081:16087   */\n      dup7\n        /* \"#utility.yul\":16017:16095   */\n      tag_479\n      jump\t// in\n    tag_656:\n        /* \"#utility.yul\":16009:16095   */\n      swap1\n      pop\n        /* \"#utility.yul\":16105:16172   */\n      tag_657\n        /* \"#utility.yul\":16167:16170   */\n      0xc0\n        /* \"#utility.yul\":16156:16165   */\n      dup4\n        /* \"#utility.yul\":16152:16171   */\n      add\n        /* \"#utility.yul\":16143:16149   */\n      dup6\n        /* \"#utility.yul\":16105:16172   */\n      tag_472\n      jump\t// in\n    tag_657:\n        /* \"#utility.yul\":16220:16229   */\n      dup2\n        /* \"#utility.yul\":16214:16218   */\n      dup2\n        /* \"#utility.yul\":16210:16230   */\n      sub\n        /* \"#utility.yul\":16204:16207   */\n      0xe0\n        /* \"#utility.yul\":16193:16202   */\n      dup4\n        /* \"#utility.yul\":16189:16208   */\n      add\n        /* \"#utility.yul\":16182:16231   */\n      mstore\n        /* \"#utility.yul\":16248:16326   */\n      tag_658\n        /* \"#utility.yul\":16321:16325   */\n      dup2\n        /* \"#utility.yul\":16312:16318   */\n      dup5\n        /* \"#utility.yul\":16248:16326   */\n      tag_479\n      jump\t// in\n    tag_658:\n        /* \"#utility.yul\":16240:16326   */\n      swap1\n      pop\n        /* \"#utility.yul\":14984:16333   */\n      swap10\n      swap9\n      pop\n      pop\n      pop\n      pop\n      pop\n      pop\n      pop\n      pop\n      pop\n      jump\t// out\n        /* \"#utility.yul\":16339:16963   */\n    tag_65:\n        /* \"#utility.yul\":16528:16532   */\n      0x00\n        /* \"#utility.yul\":16566:16568   */\n      0x60\n        /* \"#utility.yul\":16555:16564   */\n      dup3\n        /* \"#utility.yul\":16551:16569   */\n      add\n        /* \"#utility.yul\":16543:16569   */\n      swap1\n      pop\n        /* \"#utility.yul\":16615:16624   */\n      dup2\n        /* \"#utility.yul\":16609:16613   */\n      dup2\n        /* \"#utility.yul\":16605:16625   */\n      sub\n        /* \"#utility.yul\":16601:16602   */\n      0x00\n        /* \"#utility.yul\":16590:16599   */\n      dup4\n        /* \"#utility.yul\":16586:16603   */\n      add\n        /* \"#utility.yul\":16579:16626   */\n      mstore\n        /* \"#utility.yul\":16643:16721   */\n      tag_660\n        /* \"#utility.yul\":16716:16720   */\n      dup2\n        /* \"#utility.yul\":16707:16713   */\n      dup7\n        /* \"#utility.yul\":16643:16721   */\n      tag_479\n      jump\t// in\n    tag_660:\n        /* \"#utility.yul\":16635:16721   */\n      swap1\n      pop\n        /* \"#utility.yul\":16731:16803   */\n      tag_661\n        /* \"#utility.yul\":16799:16801   */\n      0x20\n        /* \"#utility.yul\":16788:16797   */\n      dup4\n        /* \"#utility.yul\":16784:16802   */\n      add\n        /* \"#utility.yul\":16775:16781   */\n      dup6\n        /* \"#utility.yul\":16731:16803   */\n      tag_477\n      jump\t// in\n    tag_661:\n        /* \"#utility.yul\":16850:16859   */\n      dup2\n        /* \"#utility.yul\":16844:16848   */\n      dup2\n        /* \"#utility.yul\":16840:16860   */\n      sub\n        /* \"#utility.yul\":16835:16837   */\n      0x40\n        /* \"#utility.yul\":16824:16833   */\n      dup4\n        /* \"#utility.yul\":16820:16838   */\n      add\n        /* \"#utility.yul\":16813:16861   */\n      mstore\n        /* \"#utility.yul\":16878:16956   */\n      tag_662\n        /* \"#utility.yul\":16951:16955   */\n      dup2\n        /* \"#utility.yul\":16942:16948   */\n      dup5\n        /* \"#utility.yul\":16878:16956   */\n      tag_479\n      jump\t// in\n    tag_662:\n        /* \"#utility.yul\":16870:16956   */\n      swap1\n      pop\n        /* \"#utility.yul\":16339:16963   */\n      swap5\n      swap4\n      pop\n      pop\n      pop\n      pop\n      jump\t// out\n        /* \"#utility.yul\":16969:17191   */\n    tag_70:\n        /* \"#utility.yul\":17062:17066   */\n      0x00\n        /* \"#utility.yul\":17100:17102   */\n      0x20\n        /* \"#utility.yul\":17089:17098   */\n      dup3\n        /* \"#utility.yul\":17085:17103   */\n      add\n        /* \"#utility.yul\":17077:17103   */\n      swap1\n      pop\n        /* \"#utility.yul\":17113:17184   */\n      tag_664\n        /* \"#utility.yul\":17181:17182   */\n      0x00\n        /* \"#utility.yul\":17170:17179   */\n      dup4\n        /* \"#utility.yul\":17166:17183   */\n      add\n        /* \"#utility.yul\":17157:17163   */\n      dup5\n        /* \"#utility.yul\":17113:17184   */\n      tag_476\n      jump\t// in\n    tag_664:\n        /* \"#utility.yul\":16969:17191   */\n      swap3\n      swap2\n      pop\n      pop\n      jump\t// out\n        /* \"#utility.yul\":17197:17849   */\n    tag_76:\n        /* \"#utility.yul\":17396:17400   */\n      0x00\n        /* \"#utility.yul\":17434:17437   */\n      0xa0\n        /* \"#utility.yul\":17423:17432   */\n      dup3\n        /* \"#utility.yul\":17419:17438   */\n      add\n        /* \"#utility.yul\":17411:17438   */\n      swap1\n      pop\n        /* \"#utility.yul\":17448:17519   */\n      tag_666\n        /* \"#utility.yul\":17516:17517   */\n      0x00\n        /* \"#utility.yul\":17505:17514   */\n      dup4\n        /* \"#utility.yul\":17501:17518   */\n      add\n        /* \"#utility.yul\":17492:17498   */\n      dup9\n        /* \"#utility.yul\":17448:17519   */\n      tag_477\n      jump\t// in\n    tag_666:\n        /* \"#utility.yul\":17529:17601   */\n      tag_667\n        /* \"#utility.yul\":17597:17599   */\n      0x20\n        /* \"#utility.yul\":17586:17595   */\n      dup4\n        /* \"#utility.yul\":17582:17600   */\n      add\n        /* \"#utility.yul\":17573:17579   */\n      dup8\n        /* \"#utility.yul\":17529:17601   */\n      tag_477\n      jump\t// in\n    tag_667:\n        /* \"#utility.yul\":17611:17683   */\n      tag_668\n        /* \"#utility.yul\":17679:17681   */\n      0x40\n        /* \"#utility.yul\":17668:17677   */\n      dup4\n        /* \"#utility.yul\":17664:17682   */\n      add\n        /* \"#utility.yul\":17655:17661   */\n      dup7\n        /* \"#utility.yul\":17611:17683   */\n      tag_476\n      jump\t// in\n    tag_668:\n        /* \"#utility.yul\":17693:17765   */\n      tag_669\n        /* \"#utility.yul\":17761:17763   */\n      0x60\n        /* \"#utility.yul\":17750:17759   */\n      dup4\n        /* \"#utility.yul\":17746:17764   */\n      add\n        /* \"#utility.yul\":17737:17743   */\n      dup6\n        /* \"#utility.yul\":17693:17765   */\n      tag_476\n      jump\t// in\n    tag_669:\n        /* \"#utility.yul\":17775:17842   */\n      tag_670\n        /* \"#utility.yul\":17837:17840   */\n      0x80\n        /* \"#utility.yul\":17826:17835   */\n      dup4\n        /* \"#utility.yul\":17822:17841   */\n      add\n        /* \"#utility.yul\":17813:17819   */\n      dup5\n        /* \"#utility.yul\":17775:17842   */\n      tag_472\n      jump\t// in\n    tag_670:\n        /* \"#utility.yul\":17197:17849   */\n      swap7\n      swap6\n      pop\n      pop\n      pop\n      pop\n      pop\n      pop\n      jump\t// out\n        /* \"#utility.yul\":17855:17996   */\n    tag_480:\n        /* \"#utility.yul\":17949:17955   */\n      0x00\n        /* \"#utility.yul\":17983:17988   */\n      dup2\n        /* \"#utility.yul\":17977:17989   */\n      mload\n        /* \"#utility.yul\":17967:17989   */\n      swap1\n      pop\n        /* \"#utility.yul\":17855:17996   */\n      swap2\n      swap1\n      pop\n      jump\t// out\n        /* \"#utility.yul\":18002:18213   */\n    tag_481:\n        /* \"#utility.yul\":18128:18139   */\n      0x00\n        /* \"#utility.yul\":18162:18168   */\n      dup3\n        /* \"#utility.yul\":18157:18160   */\n      dup3\n        /* \"#utility.yul\":18150:18169   */\n      mstore\n        /* \"#utility.yul\":18202:18206   */\n      0x20\n        /* \"#utility.yul\":18197:18200   */\n      dup3\n        /* \"#utility.yul\":18193:18207   */\n      add\n        /* \"#utility.yul\":18178:18207   */\n      swap1\n      pop\n        /* \"#utility.yul\":18002:18213   */\n      swap3\n      swap2\n      pop\n      pop\n      jump\t// out\n        /* \"#utility.yul\":18219:18378   */\n    tag_482:\n        /* \"#utility.yul\":18313:18317   */\n      0x00\n        /* \"#utility.yul\":18336:18339   */\n      dup2\n        /* \"#utility.yul\":18328:18339   */\n      swap1\n      pop\n        /* \"#utility.yul\":18366:18370   */\n      0x20\n        /* \"#utility.yul\":18361:18364   */\n      dup3\n        /* \"#utility.yul\":18357:18371   */\n      add\n        /* \"#utility.yul\":18349:18371   */\n      swap1\n      pop\n        /* \"#utility.yul\":18219:18378   */\n      swap2\n      swap1\n      pop\n      jump\t// out\n        /* \"#utility.yul\":18462:19488   */\n    tag_483:\n        /* \"#utility.yul\":18603:18607   */\n      0xa0\n        /* \"#utility.yul\":18598:18601   */\n      dup3\n        /* \"#utility.yul\":18594:18608   */\n      add\n        /* \"#utility.yul\":18690:18694   */\n      0x00\n        /* \"#utility.yul\":18683:18688   */\n      dup3\n        /* \"#utility.yul\":18679:18695   */\n      add\n        /* \"#utility.yul\":18673:18696   */\n      mload\n        /* \"#utility.yul\":18709:18772   */\n      tag_675\n        /* \"#utility.yul\":18766:18770   */\n      0x00\n        /* \"#utility.yul\":18761:18764   */\n      dup6\n        /* \"#utility.yul\":18757:18771   */\n      add\n        /* \"#utility.yul\":18743:18755   */\n      dup3\n        /* \"#utility.yul\":18709:18772   */\n      tag_446\n      jump\t// in\n    tag_675:\n        /* \"#utility.yul\":18618:18782   */\n      pop\n        /* \"#utility.yul\":18862:18866   */\n      0x20\n        /* \"#utility.yul\":18855:18860   */\n      dup3\n        /* \"#utility.yul\":18851:18867   */\n      add\n        /* \"#utility.yul\":18845:18868   */\n      mload\n        /* \"#utility.yul\":18881:18944   */\n      tag_676\n        /* \"#utility.yul\":18938:18942   */\n      0x20\n        /* \"#utility.yul\":18933:18936   */\n      dup6\n        /* \"#utility.yul\":18929:18943   */\n      add\n        /* \"#utility.yul\":18915:18927   */\n      dup3\n        /* \"#utility.yul\":18881:18944   */\n      tag_446\n      jump\t// in\n    tag_676:\n        /* \"#utility.yul\":18792:18954   */\n      pop\n        /* \"#utility.yul\":19041:19045   */\n      0x40\n        /* \"#utility.yul\":19034:19039   */\n      dup3\n        /* \"#utility.yul\":19030:19046   */\n      add\n        /* \"#utility.yul\":19024:19047   */\n      mload\n        /* \"#utility.yul\":19060:19123   */\n      tag_677\n        /* \"#utility.yul\":19117:19121   */\n      0x40\n        /* \"#utility.yul\":19112:19115   */\n      dup6\n        /* \"#utility.yul\":19108:19122   */\n      add\n        /* \"#utility.yul\":19094:19106   */\n      dup3\n        /* \"#utility.yul\":19060:19123   */\n      tag_443\n      jump\t// in\n    tag_677:\n        /* \"#utility.yul\":18964:19133   */\n      pop\n        /* \"#utility.yul\":19218:19222   */\n      0x60\n        /* \"#utility.yul\":19211:19216   */\n      dup3\n        /* \"#utility.yul\":19207:19223   */\n      add\n        /* \"#utility.yul\":19201:19224   */\n      mload\n        /* \"#utility.yul\":19237:19300   */\n      tag_678\n        /* \"#utility.yul\":19294:19298   */\n      0x60\n        /* \"#utility.yul\":19289:19292   */\n      dup6\n        /* \"#utility.yul\":19285:19299   */\n      add\n        /* \"#utility.yul\":19271:19283   */\n      dup3\n        /* \"#utility.yul\":19237:19300   */\n      tag_443\n      jump\t// in\n    tag_678:\n        /* \"#utility.yul\":19143:19310   */\n      pop\n        /* \"#utility.yul\":19395:19399   */\n      0x80\n        /* \"#utility.yul\":19388:19393   */\n      dup3\n        /* \"#utility.yul\":19384:19400   */\n      add\n        /* \"#utility.yul\":19378:19401   */\n      mload\n        /* \"#utility.yul\":19414:19471   */\n      tag_679\n        /* \"#utility.yul\":19465:19469   */\n      0x80\n        /* \"#utility.yul\":19460:19463   */\n      dup6\n        /* \"#utility.yul\":19456:19470   */\n      add\n        /* \"#utility.yul\":19442:19454   */\n      dup3\n        /* \"#utility.yul\":19414:19471   */\n      tag_453\n      jump\t// in\n    tag_679:\n        /* \"#utility.yul\":19320:19481   */\n      pop\n        /* \"#utility.yul\":18572:19488   */\n      pop\n        /* \"#utility.yul\":18462:19488   */\n      pop\n      pop\n      jump\t// out\n        /* \"#utility.yul\":19494:19781   */\n    tag_484:\n        /* \"#utility.yul\":19617:19627   */\n      0x00\n        /* \"#utility.yul\":19638:19738   */\n      tag_681\n        /* \"#utility.yul\":19734:19737   */\n      dup4\n        /* \"#utility.yul\":19726:19732   */\n      dup4\n        /* \"#utility.yul\":19638:19738   */\n      tag_483\n      jump\t// in\n    tag_681:\n        /* \"#utility.yul\":19770:19774   */\n      0xa0\n        /* \"#utility.yul\":19765:19768   */\n      dup4\n        /* \"#utility.yul\":19761:19775   */\n      add\n        /* \"#utility.yul\":19747:19775   */\n      swap1\n      pop\n        /* \"#utility.yul\":19494:19781   */\n      swap3\n      swap2\n      pop\n      pop\n      jump\t// out\n        /* \"#utility.yul\":19787:19927   */\n    tag_485:\n        /* \"#utility.yul\":19884:19888   */\n      0x00\n        /* \"#utility.yul\":19916:19920   */\n      0x20\n        /* \"#utility.yul\":19911:19914   */\n      dup3\n        /* \"#utility.yul\":19907:19921   */\n      add\n        /* \"#utility.yul\":19899:19921   */\n      swap1\n      pop\n        /* \"#utility.yul\":19787:19927   */\n      swap2\n      swap1\n      pop\n      jump\t// out\n        /* \"#utility.yul\":20015:20963   */\n    tag_486:\n        /* \"#utility.yul\":20188:20191   */\n      0x00\n        /* \"#utility.yul\":20217:20298   */\n      tag_684\n        /* \"#utility.yul\":20292:20297   */\n      dup3\n        /* \"#utility.yul\":20217:20298   */\n      tag_480\n      jump\t// in\n    tag_684:\n        /* \"#utility.yul\":20314:20427   */\n      tag_685\n        /* \"#utility.yul\":20420:20426   */\n      dup2\n        /* \"#utility.yul\":20415:20418   */\n      dup6\n        /* \"#utility.yul\":20314:20427   */\n      tag_481\n      jump\t// in\n    tag_685:\n        /* \"#utility.yul\":20307:20427   */\n      swap4\n      pop\n        /* \"#utility.yul\":20451:20534   */\n      tag_686\n        /* \"#utility.yul\":20528:20533   */\n      dup4\n        /* \"#utility.yul\":20451:20534   */\n      tag_482\n      jump\t// in\n    tag_686:\n        /* \"#utility.yul\":20557:20564   */\n      dup1\n        /* \"#utility.yul\":20588:20589   */\n      0x00\n        /* \"#utility.yul\":20573:20938   */\n    tag_687:\n        /* \"#utility.yul\":20598:20604   */\n      dup4\n        /* \"#utility.yul\":20595:20596   */\n      dup2\n        /* \"#utility.yul\":20592:20605   */\n      lt\n        /* \"#utility.yul\":20573:20938   */\n      iszero\n      tag_689\n      jumpi\n        /* \"#utility.yul\":20674:20680   */\n      dup2\n        /* \"#utility.yul\":20668:20681   */\n      mload\n        /* \"#utility.yul\":20701:20818   */\n      tag_690\n        /* \"#utility.yul\":20814:20817   */\n      dup9\n        /* \"#utility.yul\":20799:20812   */\n      dup3\n        /* \"#utility.yul\":20701:20818   */\n      tag_484\n      jump\t// in\n    tag_690:\n        /* \"#utility.yul\":20694:20818   */\n      swap8\n      pop\n        /* \"#utility.yul\":20841:20928   */\n      tag_691\n        /* \"#utility.yul\":20921:20927   */\n      dup4\n        /* \"#utility.yul\":20841:20928   */\n      tag_485\n      jump\t// in\n    tag_691:\n        /* \"#utility.yul\":20831:20928   */\n      swap3\n      pop\n        /* \"#utility.yul\":20633:20938   */\n      pop\n        /* \"#utility.yul\":20620:20621   */\n      0x01\n        /* \"#utility.yul\":20617:20618   */\n      dup2\n        /* \"#utility.yul\":20613:20622   */\n      add\n        /* \"#utility.yul\":20608:20622   */\n      swap1\n      pop\n        /* \"#utility.yul\":20573:20938   */\n      jump(tag_687)\n    tag_689:\n        /* \"#utility.yul\":20577:20591   */\n      pop\n        /* \"#utility.yul\":20954:20957   */\n      dup6\n        /* \"#utility.yul\":20947:20957   */\n      swap4\n      pop\n        /* \"#utility.yul\":20193:20963   */\n      pop\n      pop\n      pop\n        /* \"#utility.yul\":20015:20963   */\n      swap3\n      swap2\n      pop\n      pop\n      jump\t// out\n        /* \"#utility.yul\":20969:21450   */\n    tag_85:\n        /* \"#utility.yul\":21166:21170   */\n      0x00\n        /* \"#utility.yul\":21204:21206   */\n      0x20\n        /* \"#utility.yul\":21193:21202   */\n      dup3\n        /* \"#utility.yul\":21189:21207   */\n      add\n        /* \"#utility.yul\":21181:21207   */\n      swap1\n      pop\n        /* \"#utility.yul\":21253:21262   */\n      dup2\n        /* \"#utility.yul\":21247:21251   */\n      dup2\n        /* \"#utility.yul\":21243:21263   */\n      sub\n        /* \"#utility.yul\":21239:21240   */\n      0x00\n        /* \"#utility.yul\":21228:21237   */\n      dup4\n        /* \"#utility.yul\":21224:21241   */\n      add\n        /* \"#utility.yul\":21217:21264   */\n      mstore\n        /* \"#utility.yul\":21281:21443   */\n      tag_693\n        /* \"#utility.yul\":21438:21442   */\n      dup2\n        /* \"#utility.yul\":21429:21435   */\n      dup5\n        /* \"#utility.yul\":21281:21443   */\n      tag_486\n      jump\t// in\n    tag_693:\n        /* \"#utility.yul\":21273:21443   */\n      swap1\n      pop\n        /* \"#utility.yul\":20969:21450   */\n      swap3\n      swap2\n      pop\n      pop\n      jump\t// out\n        /* \"#utility.yul\":21528:23401   */\n    tag_487:\n        /* \"#utility.yul\":21643:21646   */\n      0x00\n        /* \"#utility.yul\":21679:21685   */\n      0x0100\n        /* \"#utility.yul\":21674:21677   */\n      dup4\n        /* \"#utility.yul\":21670:21686   */\n      add\n        /* \"#utility.yul\":21766:21770   */\n      0x00\n        /* \"#utility.yul\":21759:21764   */\n      dup4\n        /* \"#utility.yul\":21755:21771   */\n      add\n        /* \"#utility.yul\":21749:21772   */\n      mload\n        /* \"#utility.yul\":21785:21848   */\n      tag_695\n        /* \"#utility.yul\":21842:21846   */\n      0x00\n        /* \"#utility.yul\":21837:21840   */\n      dup7\n        /* \"#utility.yul\":21833:21847   */\n      add\n        /* \"#utility.yul\":21819:21831   */\n      dup3\n        /* \"#utility.yul\":21785:21848   */\n      tag_443\n      jump\t// in\n    tag_695:\n        /* \"#utility.yul\":21696:21858   */\n      pop\n        /* \"#utility.yul\":21942:21946   */\n      0x20\n        /* \"#utility.yul\":21935:21940   */\n      dup4\n        /* \"#utility.yul\":21931:21947   */\n      add\n        /* \"#utility.yul\":21925:21948   */\n      mload\n        /* \"#utility.yul\":21961:22024   */\n      tag_696\n        /* \"#utility.yul\":22018:22022   */\n      0x20\n        /* \"#utility.yul\":22013:22016   */\n      dup7\n        /* \"#utility.yul\":22009:22023   */\n      add\n        /* \"#utility.yul\":21995:22007   */\n      dup3\n        /* \"#utility.yul\":21961:22024   */\n      tag_446\n      jump\t// in\n    tag_696:\n        /* \"#utility.yul\":21868:22034   */\n      pop\n        /* \"#utility.yul\":22117:22121   */\n      0x40\n        /* \"#utility.yul\":22110:22115   */\n      dup4\n        /* \"#utility.yul\":22106:22122   */\n      add\n        /* \"#utility.yul\":22100:22123   */\n      mload\n        /* \"#utility.yul\":22170:22173   */\n      dup5\n        /* \"#utility.yul\":22164:22168   */\n      dup3\n        /* \"#utility.yul\":22160:22174   */\n      sub\n        /* \"#utility.yul\":22153:22157   */\n      0x40\n        /* \"#utility.yul\":22148:22151   */\n      dup7\n        /* \"#utility.yul\":22144:22158   */\n      add\n        /* \"#utility.yul\":22137:22175   */\n      mstore\n        /* \"#utility.yul\":22196:22269   */\n      tag_697\n        /* \"#utility.yul\":22264:22268   */\n      dup3\n        /* \"#utility.yul\":22250:22262   */\n      dup3\n        /* \"#utility.yul\":22196:22269   */\n      tag_451\n      jump\t// in\n    tag_697:\n        /* \"#utility.yul\":22188:22269   */\n      swap2\n      pop\n        /* \"#utility.yul\":22044:22280   */\n      pop\n        /* \"#utility.yul\":22369:22373   */\n      0x60\n        /* \"#utility.yul\":22362:22367   */\n      dup4\n        /* \"#utility.yul\":22358:22374   */\n      add\n        /* \"#utility.yul\":22352:22375   */\n      mload\n        /* \"#utility.yul\":22422:22425   */\n      dup5\n        /* \"#utility.yul\":22416:22420   */\n      dup3\n        /* \"#utility.yul\":22412:22426   */\n      sub\n        /* \"#utility.yul\":22405:22409   */\n      0x60\n        /* \"#utility.yul\":22400:22403   */\n      dup7\n        /* \"#utility.yul\":22396:22410   */\n      add\n        /* \"#utility.yul\":22389:22427   */\n      mstore\n        /* \"#utility.yul\":22448:22521   */\n      tag_698\n        /* \"#utility.yul\":22516:22520   */\n      dup3\n        /* \"#utility.yul\":22502:22514   */\n      dup3\n        /* \"#utility.yul\":22448:22521   */\n      tag_451\n      jump\t// in\n    tag_698:\n        /* \"#utility.yul\":22440:22521   */\n      swap2\n      pop\n        /* \"#utility.yul\":22290:22532   */\n      pop\n        /* \"#utility.yul\":22615:22619   */\n      0x80\n        /* \"#utility.yul\":22608:22613   */\n      dup4\n        /* \"#utility.yul\":22604:22620   */\n      add\n        /* \"#utility.yul\":22598:22621   */\n      mload\n        /* \"#utility.yul\":22634:22697   */\n      tag_699\n        /* \"#utility.yul\":22691:22695   */\n      0x80\n        /* \"#utility.yul\":22686:22689   */\n      dup7\n        /* \"#utility.yul\":22682:22696   */\n      add\n        /* \"#utility.yul\":22668:22680   */\n      dup3\n        /* \"#utility.yul\":22634:22697   */\n      tag_443\n      jump\t// in\n    tag_699:\n        /* \"#utility.yul\":22542:22707   */\n      pop\n        /* \"#utility.yul\":22790:22794   */\n      0xa0\n        /* \"#utility.yul\":22783:22788   */\n      dup4\n        /* \"#utility.yul\":22779:22795   */\n      add\n        /* \"#utility.yul\":22773:22796   */\n      mload\n        /* \"#utility.yul\":22843:22846   */\n      dup5\n        /* \"#utility.yul\":22837:22841   */\n      dup3\n        /* \"#utility.yul\":22833:22847   */\n      sub\n        /* \"#utility.yul\":22826:22830   */\n      0xa0\n        /* \"#utility.yul\":22821:22824   */\n      dup7\n        /* \"#utility.yul\":22817:22831   */\n      add\n        /* \"#utility.yul\":22810:22848   */\n      mstore\n        /* \"#utility.yul\":22869:22942   */\n      tag_700\n        /* \"#utility.yul\":22937:22941   */\n      dup3\n        /* \"#utility.yul\":22923:22935   */\n      dup3\n        /* \"#utility.yul\":22869:22942   */\n      tag_451\n      jump\t// in\n    tag_700:\n        /* \"#utility.yul\":22861:22942   */\n      swap2\n      pop\n        /* \"#utility.yul\":22717:22953   */\n      pop\n        /* \"#utility.yul\":23038:23042   */\n      0xc0\n        /* \"#utility.yul\":23031:23036   */\n      dup4\n        /* \"#utility.yul\":23027:23043   */\n      add\n        /* \"#utility.yul\":23021:23044   */\n      mload\n        /* \"#utility.yul\":23057:23114   */\n      tag_701\n        /* \"#utility.yul\":23108:23112   */\n      0xc0\n        /* \"#utility.yul\":23103:23106   */\n      dup7\n        /* \"#utility.yul\":23099:23113   */\n      add\n        /* \"#utility.yul\":23085:23097   */\n      dup3\n        /* \"#utility.yul\":23057:23114   */\n      tag_453\n      jump\t// in\n    tag_701:\n        /* \"#utility.yul\":22963:23124   */\n      pop\n        /* \"#utility.yul\":23211:23215   */\n      0xe0\n        /* \"#utility.yul\":23204:23209   */\n      dup4\n        /* \"#utility.yul\":23200:23216   */\n      add\n        /* \"#utility.yul\":23194:23217   */\n      mload\n        /* \"#utility.yul\":23264:23267   */\n      dup5\n        /* \"#utility.yul\":23258:23262   */\n      dup3\n        /* \"#utility.yul\":23254:23268   */\n      sub\n        /* \"#utility.yul\":23247:23251   */\n      0xe0\n        /* \"#utility.yul\":23242:23245   */\n      dup7\n        /* \"#utility.yul\":23238:23252   */\n      add\n        /* \"#utility.yul\":23231:23269   */\n      mstore\n        /* \"#utility.yul\":23290:23363   */\n      tag_702\n        /* \"#utility.yul\":23358:23362   */\n      dup3\n        /* \"#utility.yul\":23344:23356   */\n      dup3\n        /* \"#utility.yul\":23290:23363   */\n      tag_451\n      jump\t// in\n    tag_702:\n        /* \"#utility.yul\":23282:23363   */\n      swap2\n      pop\n        /* \"#utility.yul\":23134:23374   */\n      pop\n        /* \"#utility.yul\":23391:23395   */\n      dup1\n        /* \"#utility.yul\":23384:23395   */\n      swap2\n      pop\n        /* \"#utility.yul\":21648:23401   */\n      pop\n        /* \"#utility.yul\":21528:23401   */\n      swap3\n      swap2\n      pop\n      pop\n      jump\t// out\n        /* \"#utility.yul\":23407:23772   */\n    tag_91:\n        /* \"#utility.yul\":23546:23550   */\n      0x00\n        /* \"#utility.yul\":23584:23586   */\n      0x20\n        /* \"#utility.yul\":23573:23582   */\n      dup3\n        /* \"#utility.yul\":23569:23587   */\n      add\n        /* \"#utility.yul\":23561:23587   */\n      swap1\n      pop\n        /* \"#utility.yul\":23633:23642   */\n      dup2\n        /* \"#utility.yul\":23627:23631   */\n      dup2\n        /* \"#utility.yul\":23623:23643   */\n      sub\n        /* \"#utility.yul\":23619:23620   */\n      0x00\n        /* \"#utility.yul\":23608:23617   */\n      dup4\n        /* \"#utility.yul\":23604:23621   */\n      add\n        /* \"#utility.yul\":23597:23644   */\n      mstore\n        /* \"#utility.yul\":23661:23765   */\n      tag_704\n        /* \"#utility.yul\":23760:23764   */\n      dup2\n        /* \"#utility.yul\":23751:23757   */\n      dup5\n        /* \"#utility.yul\":23661:23765   */\n      tag_487\n      jump\t// in\n    tag_704:\n        /* \"#utility.yul\":23653:23765   */\n      swap1\n      pop\n        /* \"#utility.yul\":23407:23772   */\n      swap3\n      swap2\n      pop\n      pop\n      jump\t// out\n        /* \"#utility.yul\":23778:24287   */\n    tag_103:\n        /* \"#utility.yul\":23847:23853   */\n      0x00\n        /* \"#utility.yul\":23896:23898   */\n      0x20\n        /* \"#utility.yul\":23884:23893   */\n      dup3\n        /* \"#utility.yul\":23875:23882   */\n      dup5\n        /* \"#utility.yul\":23871:23894   */\n      sub\n        /* \"#utility.yul\":23867:23899   */\n      slt\n        /* \"#utility.yul\":23864:23983   */\n      iszero\n      tag_706\n      jumpi\n        /* \"#utility.yul\":23902:23981   */\n      tag_707\n      tag_459\n      jump\t// in\n    tag_707:\n        /* \"#utility.yul\":23864:23983   */\n    tag_706:\n        /* \"#utility.yul\":24050:24051   */\n      0x00\n        /* \"#utility.yul\":24039:24048   */\n      dup3\n        /* \"#utility.yul\":24035:24052   */\n      add\n        /* \"#utility.yul\":24022:24053   */\n      calldataload\n        /* \"#utility.yul\":24080:24098   */\n      0xffffffffffffffff\n        /* \"#utility.yul\":24072:24078   */\n      dup2\n        /* \"#utility.yul\":24069:24099   */\n      gt\n        /* \"#utility.yul\":24066:24183   */\n      iszero\n      tag_708\n      jumpi\n        /* \"#utility.yul\":24102:24181   */\n      tag_709\n      tag_460\n      jump\t// in\n    tag_709:\n        /* \"#utility.yul\":24066:24183   */\n    tag_708:\n        /* \"#utility.yul\":24207:24270   */\n      tag_710\n        /* \"#utility.yul\":24262:24269   */\n      dup5\n        /* \"#utility.yul\":24253:24259   */\n      dup3\n        /* \"#utility.yul\":24242:24251   */\n      dup6\n        /* \"#utility.yul\":24238:24260   */\n      add\n        /* \"#utility.yul\":24207:24270   */\n      tag_471\n      jump\t// in\n    tag_710:\n        /* \"#utility.yul\":24197:24270   */\n      swap2\n      pop\n        /* \"#utility.yul\":23993:24280   */\n      pop\n        /* \"#utility.yul\":23778:24287   */\n      swap3\n      swap2\n      pop\n      pop\n      jump\t// out\n        /* \"#utility.yul\":24293:24783   */\n    tag_113:\n        /* \"#utility.yul\":24369:24375   */\n      0x00\n        /* \"#utility.yul\":24377:24383   */\n      dup1\n        /* \"#utility.yul\":24426:24428   */\n      0x40\n        /* \"#utility.yul\":24414:24423   */\n      dup4\n        /* \"#utility.yul\":24405:24412   */\n      dup6\n        /* \"#utility.yul\":24401:24424   */\n      sub\n        /* \"#utility.yul\":24397:24429   */\n      slt\n        /* \"#utility.yul\":24394:24513   */\n      iszero\n      tag_712\n      jumpi\n        /* \"#utility.yul\":24432:24511   */\n      tag_713\n      tag_459\n      jump\t// in\n    tag_713:\n        /* \"#utility.yul\":24394:24513   */\n    tag_712:\n        /* \"#utility.yul\":24552:24553   */\n      0x00\n        /* \"#utility.yul\":24577:24638   */\n      tag_714\n        /* \"#utility.yul\":24630:24637   */\n      dup6\n        /* \"#utility.yul\":24621:24627   */\n      dup3\n        /* \"#utility.yul\":24610:24619   */\n      dup7\n        /* \"#utility.yul\":24606:24628   */\n      add\n        /* \"#utility.yul\":24577:24638   */\n      tag_463\n      jump\t// in\n    tag_714:\n        /* \"#utility.yul\":24567:24638   */\n      swap3\n      pop\n        /* \"#utility.yul\":24523:24648   */\n      pop\n        /* \"#utility.yul\":24687:24689   */\n      0x20\n        /* \"#utility.yul\":24713:24766   */\n      tag_715\n        /* \"#utility.yul\":24758:24765   */\n      dup6\n        /* \"#utility.yul\":24749:24755   */\n      dup3\n        /* \"#utility.yul\":24738:24747   */\n      dup7\n        /* \"#utility.yul\":24734:24756   */\n      add\n        /* \"#utility.yul\":24713:24766   */\n      tag_475\n      jump\t// in\n    tag_715:\n        /* \"#utility.yul\":24703:24766   */\n      swap2\n      pop\n        /* \"#utility.yul\":24658:24776   */\n      pop\n        /* \"#utility.yul\":24293:24783   */\n      swap3\n      pop\n      swap3\n      swap1\n      pop\n      jump\t// out\n        /* \"#utility.yul\":24789:24969   */\n    tag_488:\n        /* \"#utility.yul\":24837:24914   */\n      0x4e487b7100000000000000000000000000000000000000000000000000000000\n        /* \"#utility.yul\":24834:24835   */\n      0x00\n        /* \"#utility.yul\":24827:24915   */\n      mstore\n        /* \"#utility.yul\":24934:24938   */\n      0x22\n        /* \"#utility.yul\":24931:24932   */\n      0x04\n        /* \"#utility.yul\":24924:24939   */\n      mstore\n        /* \"#utility.yul\":24958:24962   */\n      0x24\n        /* \"#utility.yul\":24955:24956   */\n      0x00\n        /* \"#utility.yul\":24948:24963   */\n      revert\n        /* \"#utility.yul\":24975:25295   */\n    tag_121:\n        /* \"#utility.yul\":25019:25025   */\n      0x00\n        /* \"#utility.yul\":25056:25057   */\n      0x02\n        /* \"#utility.yul\":25050:25054   */\n      dup3\n        /* \"#utility.yul\":25046:25058   */\n      div\n        /* \"#utility.yul\":25036:25058   */\n      swap1\n      pop\n        /* \"#utility.yul\":25103:25104   */\n      0x01\n        /* \"#utility.yul\":25097:25101   */\n      dup3\n        /* \"#utility.yul\":25093:25105   */\n      and\n        /* \"#utility.yul\":25124:25142   */\n      dup1\n        /* \"#utility.yul\":25114:25195   */\n      tag_718\n      jumpi\n        /* \"#utility.yul\":25180:25184   */\n      0x7f\n        /* \"#utility.yul\":25172:25178   */\n      dup3\n        /* \"#utility.yul\":25168:25185   */\n      and\n        /* \"#utility.yul\":25158:25185   */\n      swap2\n      pop\n        /* \"#utility.yul\":25114:25195   */\n    tag_718:\n        /* \"#utility.yul\":25242:25244   */\n      0x20\n        /* \"#utility.yul\":25234:25240   */\n      dup3\n        /* \"#utility.yul\":25231:25245   */\n      lt\n        /* \"#utility.yul\":25211:25229   */\n      dup2\n        /* \"#utility.yul\":25208:25246   */\n      sub\n        /* \"#utility.yul\":25205:25289   */\n      tag_719\n      jumpi\n        /* \"#utility.yul\":25261:25279   */\n      tag_720\n      tag_488\n      jump\t// in\n    tag_720:\n        /* \"#utility.yul\":25205:25289   */\n    tag_719:\n        /* \"#utility.yul\":25026:25295   */\n      pop\n        /* \"#utility.yul\":24975:25295   */\n      swap2\n      swap1\n      pop\n      jump\t// out\n        /* \"#utility.yul\":25301:25481   */\n    tag_150:\n        /* \"#utility.yul\":25349:25426   */\n      0x4e487b7100000000000000000000000000000000000000000000000000000000\n        /* \"#utility.yul\":25346:25347   */\n      0x00\n        /* \"#utility.yul\":25339:25427   */\n      mstore\n        /* \"#utility.yul\":25446:25450   */\n      0x32\n        /* \"#utility.yul\":25443:25444   */\n      0x04\n        /* \"#utility.yul\":25436:25451   */\n      mstore\n        /* \"#utility.yul\":25470:25474   */\n      0x24\n        /* \"#utility.yul\":25467:25468   */\n      0x00\n        /* \"#utility.yul\":25460:25475   */\n      revert\n        /* \"#utility.yul\":25487:25667   */\n    tag_489:\n        /* \"#utility.yul\":25535:25612   */\n      0x4e487b7100000000000000000000000000000000000000000000000000000000\n        /* \"#utility.yul\":25532:25533   */\n      0x00\n        /* \"#utility.yul\":25525:25613   */\n      mstore\n        /* \"#utility.yul\":25632:25636   */\n      0x11\n        /* \"#utility.yul\":25629:25630   */\n      0x04\n        /* \"#utility.yul\":25622:25637   */\n      mstore\n        /* \"#utility.yul\":25656:25660   */\n      0x24\n        /* \"#utility.yul\":25653:25654   */\n      0x00\n        /* \"#utility.yul\":25646:25661   */\n      revert\n        /* \"#utility.yul\":25673:25906   */\n    tag_153:\n        /* \"#utility.yul\":25712:25715   */\n      0x00\n        /* \"#utility.yul\":25735:25759   */\n      tag_724\n        /* \"#utility.yul\":25753:25758   */\n      dup3\n        /* \"#utility.yul\":25735:25759   */\n      tag_442\n      jump\t// in\n    tag_724:\n        /* \"#utility.yul\":25726:25759   */\n      swap2\n      pop\n        /* \"#utility.yul\":25781:25847   */\n      0xffffffffffffffffffffffffffffffffffffffffffffffffffffffffffffffff\n        /* \"#utility.yul\":25774:25779   */\n      dup3\n        /* \"#utility.yul\":25771:25848   */\n      sub\n        /* \"#utility.yul\":25768:25871   */\n      tag_725\n      jumpi\n        /* \"#utility.yul\":25851:25869   */\n      tag_726\n      tag_489\n      jump\t// in\n    tag_726:\n        /* \"#utility.yul\":25768:25871   */\n    tag_725:\n        /* \"#utility.yul\":25898:25899   */\n      0x01\n        /* \"#utility.yul\":25891:25896   */\n      dup3\n        /* \"#utility.yul\":25887:25900   */\n      add\n        /* \"#utility.yul\":25880:25900   */\n      swap1\n      pop\n        /* \"#utility.yul\":25673:25906   */\n      swap2\n      swap1\n      pop\n      jump\t// out\n        /* \"#utility.yul\":25912:26053   */\n    tag_490:\n        /* \"#utility.yul\":25961:25965   */\n      0x00\n        /* \"#utility.yul\":25984:25987   */\n      dup2\n        /* \"#utility.yul\":25976:25987   */\n      swap1\n      pop\n        /* \"#utility.yul\":26007:26010   */\n      dup2\n        /* \"#utility.yul\":26004:26005   */\n      0x00\n        /* \"#utility.yul\":25997:26011   */\n      mstore\n        /* \"#utility.yul\":26041:26045   */\n      0x20\n        /* \"#utility.yul\":26038:26039   */\n      0x00\n        /* \"#utility.yul\":26028:26046   */\n      keccak256\n        /* \"#utility.yul\":26020:26046   */\n      swap1\n      pop\n        /* \"#utility.yul\":25912:26053   */\n      swap2\n      swap1\n      pop\n      jump\t// out\n        /* \"#utility.yul\":26059:26152   */\n    tag_491:\n        /* \"#utility.yul\":26096:26102   */\n      0x00\n        /* \"#utility.yul\":26143:26145   */\n      0x20\n        /* \"#utility.yul\":26138:26140   */\n      0x1f\n        /* \"#utility.yul\":26131:26136   */\n      dup4\n        /* \"#utility.yul\":26127:26141   */\n      add\n        /* \"#utility.yul\":26123:26146   */\n      div\n        /* \"#utility.yul\":26113:26146   */\n      swap1\n      pop\n        /* \"#utility.yul\":26059:26152   */\n      swap2\n      swap1\n      pop\n      jump\t// out\n        /* \"#utility.yul\":26158:26265   */\n    tag_492:\n        /* \"#utility.yul\":26202:26210   */\n      0x00\n        /* \"#utility.yul\":26252:26257   */\n      dup3\n        /* \"#utility.yul\":26246:26250   */\n      dup3\n        /* \"#utility.yul\":26242:26258   */\n      shl\n        /* \"#utility.yul\":26221:26258   */\n      swap1\n      pop\n        /* \"#utility.yul\":26158:26265   */\n      swap3\n      swap2\n      pop\n      pop\n      jump\t// out\n        /* \"#utility.yul\":26271:26664   */\n    tag_493:\n        /* \"#utility.yul\":26340:26346   */\n      0x00\n        /* \"#utility.yul\":26390:26391   */\n      0x08\n        /* \"#utility.yul\":26378:26388   */\n      dup4\n        /* \"#utility.yul\":26374:26392   */\n      mul\n        /* \"#utility.yul\":26413:26510   */\n      tag_731\n        /* \"#utility.yul\":26443:26509   */\n      0xffffffffffffffffffffffffffffffffffffffffffffffffffffffffffffffff\n        /* \"#utility.yul\":26432:26441   */\n      dup3\n        /* \"#utility.yul\":26413:26510   */\n      tag_492\n      jump\t// in\n    tag_731:\n        /* \"#utility.yul\":26531:26570   */\n      tag_732\n        /* \"#utility.yul\":26561:26569   */\n      dup7\n        /* \"#utility.yul\":26550:26559   */\n      dup4\n        /* \"#utility.yul\":26531:26570   */\n      tag_492\n      jump\t// in\n    tag_732:\n        /* \"#utility.yul\":26519:26570   */\n      swap6\n      pop\n        /* \"#utility.yul\":26603:26607   */\n      dup1\n        /* \"#utility.yul\":26599:26608   */\n      not\n        /* \"#utility.yul\":26592:26597   */\n      dup5\n        /* \"#utility.yul\":26588:26609   */\n      and\n        /* \"#utility.yul\":26579:26609   */\n      swap4\n      pop\n        /* \"#utility.yul\":26652:26656   */\n      dup1\n        /* \"#utility.yul\":26642:26650   */\n      dup7\n        /* \"#utility.yul\":26638:26657   */\n      and\n        /* \"#utility.yul\":26631:26636   */\n      dup5\n        /* \"#utility.yul\":26628:26658   */\n      or\n        /* \"#utility.yul\":26618:26658   */\n      swap3\n      pop\n        /* \"#utility.yul\":26347:26664   */\n      pop\n      pop\n        /* \"#utility.yul\":26271:26664   */\n      swap4\n      swap3\n      pop\n      pop\n      pop\n      jump\t// out\n        /* \"#utility.yul\":26670:26730   */\n    tag_494:\n        /* \"#utility.yul\":26698:26701   */\n      0x00\n        /* \"#utility.yul\":26719:26724   */\n      dup2\n        /* \"#utility.yul\":26712:26724   */\n      swap1\n      pop\n        /* \"#utility.yul\":26670:26730   */\n      swap2\n      swap1\n      pop\n      jump\t// out\n        /* \"#utility.yul\":26736:26878   */\n    tag_495:\n        /* \"#utility.yul\":26786:26795   */\n      0x00\n        /* \"#utility.yul\":26819:26872   */\n      tag_735\n        /* \"#utility.yul\":26837:26871   */\n      tag_736\n        /* \"#utility.yul\":26846:26870   */\n      tag_737\n        /* \"#utility.yul\":26864:26869   */\n      dup5\n        /* \"#utility.yul\":26846:26870   */\n      tag_442\n      jump\t// in\n    tag_737:\n        /* \"#utility.yul\":26837:26871   */\n      tag_494\n      jump\t// in\n    tag_736:\n        /* \"#utility.yul\":26819:26872   */\n      tag_442\n      jump\t// in\n    tag_735:\n        /* \"#utility.yul\":26806:26872   */\n      swap1\n      pop\n        /* \"#utility.yul\":26736:26878   */\n      swap2\n      swap1\n      pop\n      jump\t// out\n        /* \"#utility.yul\":26884:26959   */\n    tag_496:\n        /* \"#utility.yul\":26927:26930   */\n      0x00\n        /* \"#utility.yul\":26948:26953   */\n      dup2\n        /* \"#utility.yul\":26941:26953   */\n      swap1\n      pop\n        /* \"#utility.yul\":26884:26959   */\n      swap2\n      swap1\n      pop\n      jump\t// out\n        /* \"#utility.yul\":26965:27234   */\n    tag_497:\n        /* \"#utility.yul\":27075:27114   */\n      tag_740\n        /* \"#utility.yul\":27106:27113   */\n      dup4\n        /* \"#utility.yul\":27075:27114   */\n      tag_495\n      jump\t// in\n    tag_740:\n        /* \"#utility.yul\":27136:27227   */\n      tag_741\n        /* \"#utility.yul\":27185:27226   */\n      tag_742\n        /* \"#utility.yul\":27209:27225   */\n      dup3\n        /* \"#utility.yul\":27185:27226   */\n      tag_496\n      jump\t// in\n    tag_742:\n        /* \"#utility.yul\":27177:27183   */\n      dup5\n        /* \"#utility.yul\":27170:27174   */\n      dup5\n        /* \"#utility.yul\":27164:27175   */\n      sload\n        /* \"#utility.yul\":27136:27227   */\n      tag_493\n      jump\t// in\n    tag_741:\n        /* \"#utility.yul\":27130:27134   */\n      dup3\n        /* \"#utility.yul\":27123:27228   */\n      sstore\n        /* \"#utility.yul\":27041:27234   */\n      pop\n        /* \"#utility.yul\":26965:27234   */\n      pop\n      pop\n      pop\n      jump\t// out\n        /* \"#utility.yul\":27240:27313   */\n    tag_498:\n        /* \"#utility.yul\":27285:27288   */\n      0x00\n        /* \"#utility.yul\":27240:27313   */\n      swap1\n      jump\t// out\n        /* \"#utility.yul\":27319:27508   */\n    tag_499:\n        /* \"#utility.yul\":27396:27428   */\n      tag_745\n      tag_498\n      jump\t// in\n    tag_745:\n        /* \"#utility.yul\":27437:27502   */\n      tag_746\n        /* \"#utility.yul\":27495:27501   */\n      dup2\n        /* \"#utility.yul\":27487:27493   */\n      dup5\n        /* \"#utility.yul\":27481:27485   */\n      dup5\n        /* \"#utility.yul\":27437:27502   */\n      tag_497\n      jump\t// in\n    tag_746:\n        /* \"#utility.yul\":27372:27508   */\n      pop\n        /* \"#utility.yul\":27319:27508   */\n      pop\n      pop\n      jump\t// out\n        /* \"#utility.yul\":27514:27700   */\n    tag_500:\n        /* \"#utility.yul\":27574:27694   */\n    tag_748:\n        /* \"#utility.yul\":27591:27594   */\n      dup2\n        /* \"#utility.yul\":27584:27589   */\n      dup2\n        /* \"#utility.yul\":27581:27595   */\n      lt\n        /* \"#utility.yul\":27574:27694   */\n      iszero\n      tag_750\n      jumpi\n        /* \"#utility.yul\":27645:27684   */\n      tag_751\n        /* \"#utility.yul\":27682:27683   */\n      0x00\n        /* \"#utility.yul\":27675:27680   */\n      dup3\n        /* \"#utility.yul\":27645:27684   */\n      tag_499\n      jump\t// in\n    tag_751:\n        /* \"#utility.yul\":27618:27619   */\n      0x01\n        /* \"#utility.yul\":27611:27616   */\n      dup2\n        /* \"#utility.yul\":27607:27620   */\n      add\n        /* \"#utility.yul\":27598:27620   */\n      swap1\n      pop\n        /* \"#utility.yul\":27574:27694   */\n      jump(tag_748)\n    tag_750:\n        /* \"#utility.yul\":27514:27700   */\n      pop\n      pop\n      jump\t// out\n        /* \"#utility.yul\":27706:28249   */\n    tag_501:\n        /* \"#utility.yul\":27807:27809   */\n      0x1f\n        /* \"#utility.yul\":27802:27805   */\n      dup3\n        /* \"#utility.yul\":27799:27810   */\n      gt\n        /* \"#utility.yul\":27796:28242   */\n      iszero\n      tag_753\n      jumpi\n        /* \"#utility.yul\":27841:27879   */\n      tag_754\n        /* \"#utility.yul\":27873:27878   */\n      dup2\n        /* \"#utility.yul\":27841:27879   */\n      tag_490\n      jump\t// in\n    tag_754:\n        /* \"#utility.yul\":27925:27954   */\n      tag_755\n        /* \"#utility.yul\":27943:27953   */\n      dup5\n        /* \"#utility.yul\":27925:27954   */\n      tag_491\n      jump\t// in\n    tag_755:\n        /* \"#utility.yul\":27915:27923   */\n      dup2\n        /* \"#utility.yul\":27911:27955   */\n      add\n        /* \"#utility.yul\":28108:28110   */\n      0x20\n        /* \"#utility.yul\":28096:28106   */\n      dup6\n        /* \"#utility.yul\":28093:28111   */\n      lt\n        /* \"#utility.yul\":28090:28139   */\n      iszero\n      tag_756\n      jumpi\n        /* \"#utility.yul\":28129:28137   */\n      dup2\n        /* \"#utility.yul\":28114:28137   */\n      swap1\n      pop\n        /* \"#utility.yul\":28090:28139   */\n    tag_756:\n        /* \"#utility.yul\":28152:28232   */\n      tag_757\n        /* \"#utility.yul\":28208:28230   */\n      tag_758\n        /* \"#utility.yul\":28226:28229   */\n      dup6\n        /* \"#utility.yul\":28208:28230   */\n      tag_491\n      jump\t// in\n    tag_758:\n        /* \"#utility.yul\":28198:28206   */\n      dup4\n        /* \"#utility.yul\":28194:28231   */\n      add\n        /* \"#utility.yul\":28181:28192   */\n      dup3\n        /* \"#utility.yul\":28152:28232   */\n      tag_500\n      jump\t// in\n    tag_757:\n        /* \"#utility.yul\":27811:28242   */\n      pop\n      pop\n        /* \"#utility.yul\":27796:28242   */\n    tag_753:\n        /* \"#utility.yul\":27706:28249   */\n      pop\n      pop\n      pop\n      jump\t// out\n        /* \"#utility.yul\":28255:28372   */\n    tag_502:\n        /* \"#utility.yul\":28309:28317   */\n      0x00\n        /* \"#utility.yul\":28359:28364   */\n      dup3\n        /* \"#utility.yul\":28353:28357   */\n      dup3\n        /* \"#utility.yul\":28349:28365   */\n      shr\n        /* \"#utility.yul\":28328:28365   */\n      swap1\n      pop\n        /* \"#utility.yul\":28255:28372   */\n      swap3\n      swap2\n      pop\n      pop\n      jump\t// out\n        /* \"#utility.yul\":28378:28547   */\n    tag_503:\n        /* \"#utility.yul\":28422:28428   */\n      0x00\n        /* \"#utility.yul\":28455:28506   */\n      tag_761\n        /* \"#utility.yul\":28503:28504   */\n      0x00\n        /* \"#utility.yul\":28499:28505   */\n      not\n        /* \"#utility.yul\":28491:28496   */\n      dup5\n        /* \"#utility.yul\":28488:28489   */\n      0x08\n        /* \"#utility.yul\":28484:28497   */\n      mul\n        /* \"#utility.yul\":28455:28506   */\n      tag_502\n      jump\t// in\n    tag_761:\n        /* \"#utility.yul\":28451:28507   */\n      not\n        /* \"#utility.yul\":28536:28540   */\n      dup1\n        /* \"#utility.yul\":28530:28534   */\n      dup4\n        /* \"#utility.yul\":28526:28541   */\n      and\n        /* \"#utility.yul\":28516:28541   */\n      swap2\n      pop\n        /* \"#utility.yul\":28429:28547   */\n      pop\n        /* \"#utility.yul\":28378:28547   */\n      swap3\n      swap2\n      pop\n      pop\n      jump\t// out\n        /* \"#utility.yul\":28552:28847   */\n    tag_504:\n        /* \"#utility.yul\":28628:28632   */\n      0x00\n        /* \"#utility.yul\":28774:28803   */\n      tag_763\n        /* \"#utility.yul\":28799:28802   */\n      dup4\n        /* \"#utility.yul\":28793:28797   */\n      dup4\n        /* \"#utility.yul\":28774:28803   */\n      tag_503\n      jump\t// in\n    tag_763:\n        /* \"#utility.yul\":28766:28803   */\n      swap2\n      pop\n        /* \"#utility.yul\":28836:28839   */\n      dup3\n        /* \"#utility.yul\":28833:28834   */\n      0x02\n        /* \"#utility.yul\":28829:28840   */\n      mul\n        /* \"#utility.yul\":28823:28827   */\n      dup3\n        /* \"#utility.yul\":28820:28841   */\n      or\n        /* \"#utility.yul\":28812:28841   */\n      swap1\n      pop\n        /* \"#utility.yul\":28552:28847   */\n      swap3\n      swap2\n      pop\n      pop\n      jump\t// out\n        /* \"#utility.yul\":28852:30247   */\n    tag_175:\n        /* \"#utility.yul\":28969:29006   */\n      tag_765\n        /* \"#utility.yul\":29002:29005   */\n      dup3\n        /* \"#utility.yul\":28969:29006   */\n      tag_447\n      jump\t// in\n    tag_765:\n        /* \"#utility.yul\":29071:29089   */\n      0xffffffffffffffff\n        /* \"#utility.yul\":29063:29069   */\n      dup2\n        /* \"#utility.yul\":29060:29090   */\n      gt\n        /* \"#utility.yul\":29057:29113   */\n      iszero\n      tag_766\n      jumpi\n        /* \"#utility.yul\":29093:29111   */\n      tag_767\n      tag_187\n      jump\t// in\n    tag_767:\n        /* \"#utility.yul\":29057:29113   */\n    tag_766:\n        /* \"#utility.yul\":29137:29175   */\n      tag_768\n        /* \"#utility.yul\":29169:29173   */\n      dup3\n        /* \"#utility.yul\":29163:29174   */\n      sload\n        /* \"#utility.yul\":29137:29175   */\n      tag_121\n      jump\t// in\n    tag_768:\n        /* \"#utility.yul\":29222:29289   */\n      tag_769\n        /* \"#utility.yul\":29282:29288   */\n      dup3\n        /* \"#utility.yul\":29274:29280   */\n      dup3\n        /* \"#utility.yul\":29268:29272   */\n      dup6\n        /* \"#utility.yul\":29222:29289   */\n      tag_501\n      jump\t// in\n    tag_769:\n        /* \"#utility.yul\":29316:29317   */\n      0x00\n        /* \"#utility.yul\":29340:29344   */\n      0x20\n        /* \"#utility.yul\":29327:29344   */\n      swap1\n      pop\n        /* \"#utility.yul\":29372:29374   */\n      0x1f\n        /* \"#utility.yul\":29364:29370   */\n      dup4\n        /* \"#utility.yul\":29361:29375   */\n      gt\n        /* \"#utility.yul\":29389:29390   */\n      0x01\n        /* \"#utility.yul\":29384:30002   */\n      dup2\n      eq\n      tag_771\n      jumpi\n        /* \"#utility.yul\":30046:30047   */\n      0x00\n        /* \"#utility.yul\":30063:30069   */\n      dup5\n        /* \"#utility.yul\":30060:30137   */\n      iszero\n      tag_772\n      jumpi\n        /* \"#utility.yul\":30112:30121   */\n      dup3\n        /* \"#utility.yul\":30107:30110   */\n      dup8\n        /* \"#utility.yul\":30103:30122   */\n      add\n        /* \"#utility.yul\":30097:30123   */\n      mload\n        /* \"#utility.yul\":30088:30123   */\n      swap1\n      pop\n        /* \"#utility.yul\":30060:30137   */\n    tag_772:\n        /* \"#utility.yul\":30163:30230   */\n      tag_773\n        /* \"#utility.yul\":30223:30229   */\n      dup6\n        /* \"#utility.yul\":30216:30221   */\n      dup3\n        /* \"#utility.yul\":30163:30230   */\n      tag_504\n      jump\t// in\n    tag_773:\n        /* \"#utility.yul\":30157:30161   */\n      dup7\n        /* \"#utility.yul\":30150:30231   */\n      sstore\n        /* \"#utility.yul\":30019:30241   */\n      pop\n        /* \"#utility.yul\":29354:30241   */\n      jump(tag_770)\n        /* \"#utility.yul\":29384:30002   */\n    tag_771:\n        /* \"#utility.yul\":29436:29440   */\n      0x1f\n        /* \"#utility.yul\":29432:29441   */\n      not\n        /* \"#utility.yul\":29424:29430   */\n      dup5\n        /* \"#utility.yul\":29420:29442   */\n      and\n        /* \"#utility.yul\":29470:29507   */\n      tag_774\n        /* \"#utility.yul\":29502:29506   */\n      dup7\n        /* \"#utility.yul\":29470:29507   */\n      tag_490\n      jump\t// in\n    tag_774:\n        /* \"#utility.yul\":29529:29530   */\n      0x00\n        /* \"#utility.yul\":29543:29751   */\n    tag_775:\n        /* \"#utility.yul\":29557:29564   */\n      dup3\n        /* \"#utility.yul\":29554:29555   */\n      dup2\n        /* \"#utility.yul\":29551:29565   */\n      lt\n        /* \"#utility.yul\":29543:29751   */\n      iszero\n      tag_777\n      jumpi\n        /* \"#utility.yul\":29636:29645   */\n      dup5\n        /* \"#utility.yul\":29631:29634   */\n      dup10\n        /* \"#utility.yul\":29627:29646   */\n      add\n        /* \"#utility.yul\":29621:29647   */\n      mload\n        /* \"#utility.yul\":29613:29619   */\n      dup3\n        /* \"#utility.yul\":29606:29648   */\n      sstore\n        /* \"#utility.yul\":29687:29688   */\n      0x01\n        /* \"#utility.yul\":29679:29685   */\n      dup3\n        /* \"#utility.yul\":29675:29689   */\n      add\n        /* \"#utility.yul\":29665:29689   */\n      swap2\n      pop\n        /* \"#utility.yul\":29734:29736   */\n      0x20\n        /* \"#utility.yul\":29723:29732   */\n      dup6\n        /* \"#utility.yul\":29719:29737   */\n      add\n        /* \"#utility.yul\":29706:29737   */\n      swap5\n      pop\n        /* \"#utility.yul\":29580:29584   */\n      0x20\n        /* \"#utility.yul\":29577:29578   */\n      dup2\n        /* \"#utility.yul\":29573:29585   */\n      add\n        /* \"#utility.yul\":29568:29585   */\n      swap1\n      pop\n        /* \"#utility.yul\":29543:29751   */\n      jump(tag_775)\n    tag_777:\n        /* \"#utility.yul\":29779:29785   */\n      dup7\n        /* \"#utility.yul\":29770:29777   */\n      dup4\n        /* \"#utility.yul\":29767:29786   */\n      lt\n        /* \"#utility.yul\":29764:29943   */\n      iszero\n      tag_778\n      jumpi\n        /* \"#utility.yul\":29837:29846   */\n      dup5\n        /* \"#utility.yul\":29832:29835   */\n      dup10\n        /* \"#utility.yul\":29828:29847   */\n      add\n        /* \"#utility.yul\":29822:29848   */\n      mload\n        /* \"#utility.yul\":29880:29928   */\n      tag_779\n        /* \"#utility.yul\":29922:29926   */\n      0x1f\n        /* \"#utility.yul\":29914:29920   */\n      dup10\n        /* \"#utility.yul\":29910:29927   */\n      and\n        /* \"#utility.yul\":29899:29908   */\n      dup3\n        /* \"#utility.yul\":29880:29928   */\n      tag_503\n      jump\t// in\n    tag_779:\n        /* \"#utility.yul\":29872:29878   */\n      dup4\n        /* \"#utility.yul\":29865:29929   */\n      sstore\n        /* \"#utility.yul\":29787:29943   */\n      pop\n        /* \"#utility.yul\":29764:29943   */\n    tag_778:\n        /* \"#utility.yul\":29989:29990   */\n      0x01\n        /* \"#utility.yul\":29985:29986   */\n      0x02\n        /* \"#utility.yul\":29977:29983   */\n      dup9\n        /* \"#utility.yul\":29973:29987   */\n      mul\n        /* \"#utility.yul\":29969:29991   */\n      add\n        /* \"#utility.yul\":29963:29967   */\n      dup9\n        /* \"#utility.yul\":29956:29992   */\n      sstore\n        /* \"#utility.yul\":29391:30002   */\n      pop\n      pop\n      pop\n        /* \"#utility.yul\":29354:30241   */\n    tag_770:\n      pop\n        /* \"#utility.yul\":28944:30247   */\n      pop\n      pop\n      pop\n        /* \"#utility.yul\":28852:30247   */\n      pop\n      pop\n      jump\t// out\n        /* \"#utility.yul\":30253:30444   */\n    tag_289:\n        /* \"#utility.yul\":30293:30296   */\n      0x00\n        /* \"#utility.yul\":30312:30332   */\n      tag_781\n        /* \"#utility.yul\":30330:30331   */\n      dup3\n        /* \"#utility.yul\":30312:30332   */\n      tag_442\n      jump\t// in\n    tag_781:\n        /* \"#utility.yul\":30307:30332   */\n      swap2\n      pop\n        /* \"#utility.yul\":30346:30366   */\n      tag_782\n        /* \"#utility.yul\":30364:30365   */\n      dup4\n        /* \"#utility.yul\":30346:30366   */\n      tag_442\n      jump\t// in\n    tag_782:\n        /* \"#utility.yul\":30341:30366   */\n      swap3\n      pop\n        /* \"#utility.yul\":30389:30390   */\n      dup3\n        /* \"#utility.yul\":30386:30387   */\n      dup3\n        /* \"#utility.yul\":30382:30391   */\n      add\n        /* \"#utility.yul\":30375:30391   */\n      swap1\n      pop\n        /* \"#utility.yul\":30410:30413   */\n      dup1\n        /* \"#utility.yul\":30407:30408   */\n      dup3\n        /* \"#utility.yul\":30404:30414   */\n      gt\n        /* \"#utility.yul\":30401:30437   */\n      iszero\n      tag_783\n      jumpi\n        /* \"#utility.yul\":30417:30435   */\n      tag_784\n      tag_489\n      jump\t// in\n    tag_784:\n        /* \"#utility.yul\":30401:30437   */\n    tag_783:\n        /* \"#utility.yul\":30253:30444   */\n      swap3\n      swap2\n      pop\n      pop\n      jump\t// out\n        /* \"#utility.yul\":30450:30598   */\n    tag_505:\n        /* \"#utility.yul\":30552:30563   */\n      0x00\n        /* \"#utility.yul\":30589:30592   */\n      dup2\n        /* \"#utility.yul\":30574:30592   */\n      swap1\n      pop\n        /* \"#utility.yul\":30450:30598   */\n      swap3\n      swap2\n      pop\n      pop\n      jump\t// out\n        /* \"#utility.yul\":30604:30994   */\n    tag_506:\n        /* \"#utility.yul\":30710:30713   */\n      0x00\n        /* \"#utility.yul\":30738:30777   */\n      tag_787\n        /* \"#utility.yul\":30771:30776   */\n      dup3\n        /* \"#utility.yul\":30738:30777   */\n      tag_447\n      jump\t// in\n    tag_787:\n        /* \"#utility.yul\":30793:30882   */\n      tag_788\n        /* \"#utility.yul\":30875:30881   */\n      dup2\n        /* \"#utility.yul\":30870:30873   */\n      dup6\n        /* \"#utility.yul\":30793:30882   */\n      tag_505\n      jump\t// in\n    tag_788:\n        /* \"#utility.yul\":30786:30882   */\n      swap4\n      pop\n        /* \"#utility.yul\":30891:30956   */\n      tag_789\n        /* \"#utility.yul\":30949:30955   */\n      dup2\n        /* \"#utility.yul\":30944:30947   */\n      dup6\n        /* \"#utility.yul\":30937:30941   */\n      0x20\n        /* \"#utility.yul\":30930:30935   */\n      dup7\n        /* \"#utility.yul\":30926:30942   */\n      add\n        /* \"#utility.yul\":30891:30956   */\n      tag_449\n      jump\t// in\n    tag_789:\n        /* \"#utility.yul\":30981:30987   */\n      dup1\n        /* \"#utility.yul\":30976:30979   */\n      dup5\n        /* \"#utility.yul\":30972:30988   */\n      add\n        /* \"#utility.yul\":30965:30988   */\n      swap2\n      pop\n        /* \"#utility.yul\":30714:30994   */\n      pop\n        /* \"#utility.yul\":30604:30994   */\n      swap3\n      swap2\n      pop\n      pop\n      jump\t// out\n        /* \"#utility.yul\":31000:31275   */\n    tag_342:\n        /* \"#utility.yul\":31132:31135   */\n      0x00\n        /* \"#utility.yul\":31154:31249   */\n      tag_791\n        /* \"#utility.yul\":31245:31248   */\n      dup3\n        /* \"#utility.yul\":31236:31242   */\n      dup5\n        /* \"#utility.yul\":31154:31249   */\n      tag_506\n      jump\t// in\n    tag_791:\n        /* \"#utility.yul\":31147:31249   */\n      swap2\n      pop\n        /* \"#utility.yul\":31266:31269   */\n      dup2\n        /* \"#utility.yul\":31259:31269   */\n      swap1\n      pop\n        /* \"#utility.yul\":31000:31275   */\n      swap3\n      swap2\n      pop\n      pop\n      jump\t// out\n\n    auxdata: 0xa2646970667358221220f28ad21b7e25ac81eb797d438232180d28575b5ea7e49f332806367376508da964736f6c63430008120033\n}\n",
				"bytecode": {
					"linkReferences": {},
					"object": "60806040526200001b60036200002160201b6200203c1760201c565b6200002e565b6000816000018190555050565b613439806200003e6000396000f3fe6080604052600436106101095760003560e01c80637ec1061a11610095578063bed34bba11610064578063bed34bba14610393578063d6cfa440146103d0578063e44c76ea146103ec578063f70d205c14610429578063fb5d7a1f1461046657610109565b80637ec1061a146102bf578063809dab6a146103005780638e4a66801461032b578063b79367c41461035657610109565b80632cc59076116100dc5780632cc59076146101bd57806338880d55146101e85780633b342e8e146102115780634cea965e146102555780636f9fb98a1461029457610109565b806304e48bd11461010e5780630e61a0ee146101395780631fc25cdd1461015557806321527e5014610192575b600080fd5b34801561011a57600080fd5b50610123610482565b6040516101309190612765565b60405180910390f35b610153600480360381019061014e91906127d9565b6107af565b005b34801561016157600080fd5b5061017c6004803603810190610177919061293b565b610868565b60405161018991906129c2565b60405180910390f35b34801561019e57600080fd5b506101a7610ab5565b6040516101b49190612a34565b60405180910390f35b3480156101c957600080fd5b506101d2610ad1565b6040516101df9190612765565b60405180910390f35b3480156101f457600080fd5b5061020f600480360381019061020a9190612a82565b610f06565b005b34801561021d57600080fd5b5061023860048036038101906102339190612b6d565b611073565b60405161024c989796959493929190612c02565b60405180910390f35b34801561026157600080fd5b5061027c60048036038101906102779190612b6d565b611318565b60405161028b93929190612c9c565b60405180910390f35b3480156102a057600080fd5b506102a9611482565b6040516102b69190612ce1565b60405180910390f35b3480156102cb57600080fd5b506102e660048036038101906102e19190612b6d565b61148a565b6040516102f7959493929190612cfc565b60405180910390f35b34801561030c57600080fd5b5061031561151d565b6040516103229190612ce1565b60405180910390f35b34801561033757600080fd5b5061034061163a565b60405161034d9190612e66565b60405180910390f35b34801561036257600080fd5b5061037d60048036038101906103789190612b6d565b611817565b60405161038a9190612f4d565b60405180910390f35b34801561039f57600080fd5b506103ba60048036038101906103b5919061293b565b611b7e565b6040516103c791906129c2565b60405180910390f35b6103ea60048036038101906103e59190612b6d565b611bd7565b005b3480156103f857600080fd5b50610413600480360381019061040e9190612f6f565b611d41565b60405161042091906129c2565b60405180910390f35b34801561043557600080fd5b50610450600480360381019061044b9190612f6f565b611e84565b60405161045d91906129c2565b60405180910390f35b610480600480360381019061047b9190612fb8565b611ecf565b005b60606000805480602002602001604051908101604052809291908181526020016000905b828210156107a6578382906000526020600020906008020160405180610100016040529081600082015481526020016001820160009054906101000a900473ffffffffffffffffffffffffffffffffffffffff1673ffffffffffffffffffffffffffffffffffffffff1673ffffffffffffffffffffffffffffffffffffffff16815260200160028201805461053a90613027565b80601f016020809104026020016040519081016040528092919081815260200182805461056690613027565b80156105b35780601f10610588576101008083540402835291602001916105b3565b820191906000526020600020905b81548152906001019060200180831161059657829003601f168201915b505050505081526020016003820180546105cc90613027565b80601f01602080910402602001604051908101604052809291908181526020018280546105f890613027565b80156106455780601f1061061a57610100808354040283529160200191610645565b820191906000526020600020905b81548152906001019060200180831161062857829003601f168201915b505050505081526020016004820154815260200160058201805461066890613027565b80601f016020809104026020016040519081016040528092919081815260200182805461069490613027565b80156106e15780601f106106b6576101008083540402835291602001916106e1565b820191906000526020600020905b8154815290600101906020018083116106c457829003601f168201915b505050505081526020016006820160009054906101000a900460ff1615151515815260200160078201805461071590613027565b80601f016020809104026020016040519081016040528092919081815260200182805461074190613027565b801561078e5780601f106107635761010080835404028352916020019161078e565b820191906000526020600020905b81548152906001019060200180831161077157829003601f168201915b505050505081525050815260200190600101906104a6565b50505050905090565b60006107b961151d565b90508173ffffffffffffffffffffffffffffffffffffffff166108fc829081150290604051600060405180830381858888f19350505050158015610801573d6000803e3d6000fd5b5060005b6002805490508110156108635760016002828154811061082857610827613058565b5b906000526020600020906005020160040160006101000a81548160ff021916908315150217905550808061085b906130b6565b915050610805565b505050565b600080600090505b6001805490508110156109d8576109346001828154811061089457610893613058565b5b906000526020600020906003020160000180546108b090613027565b80601f01602080910402602001604051908101604052809291908181526020018280546108dc90613027565b80156109295780601f106108fe57610100808354040283529160200191610929565b820191906000526020600020905b81548152906001019060200180831161090c57829003601f168201915b505050505085611b7e565b15610943576000915050610aaf565b3373ffffffffffffffffffffffffffffffffffffffff166001828154811061096e5761096d613058565b5b906000526020600020906003020160010160009054906101000a900473ffffffffffffffffffffffffffffffffffffffff1673ffffffffffffffffffffffffffffffffffffffff16036109c5576000915050610aaf565b80806109d0906130b6565b915050610870565b50600160405180606001604052808581526020013373ffffffffffffffffffffffffffffffffffffffff1681526020018481525090806001815401808255809150506001900390600052602060002090600302016000909190919091506000820151816000019081610a4a91906132aa565b5060208201518160010160006101000a81548173ffffffffffffffffffffffffffffffffffffffff021916908373ffffffffffffffffffffffffffffffffffffffff1602179055506040820151816002019081610aa791906132aa565b505050600190505b92915050565b610abd612445565b6000610ac833612049565b90508091505090565b60606000610ade336122ae565b90506000808267ffffffffffffffff811115610afd57610afc612810565b5b604051908082528060200260200182016040528015610b3657816020015b610b2361247c565b815260200190600190039081610b1b5790505b50905060005b600080549050811015610efc573373ffffffffffffffffffffffffffffffffffffffff1660008281548110610b7457610b73613058565b5b906000526020600020906008020160010160009054906101000a900473ffffffffffffffffffffffffffffffffffffffff1673ffffffffffffffffffffffffffffffffffffffff1603610ee95760008181548110610bd557610bd4613058565b5b906000526020600020906008020160405180610100016040529081600082015481526020016001820160009054906101000a900473ffffffffffffffffffffffffffffffffffffffff1673ffffffffffffffffffffffffffffffffffffffff1673ffffffffffffffffffffffffffffffffffffffff168152602001600282018054610c5f90613027565b80601f0160208091040260200160405190810160405280929190818152602001828054610c8b90613027565b8015610cd85780601f10610cad57610100808354040283529160200191610cd8565b820191906000526020600020905b815481529060010190602001808311610cbb57829003601f168201915b50505050508152602001600382018054610cf190613027565b80601f0160208091040260200160405190810160405280929190818152602001828054610d1d90613027565b8015610d6a5780601f10610d3f57610100808354040283529160200191610d6a565b820191906000526020600020905b815481529060010190602001808311610d4d57829003601f168201915b5050505050815260200160048201548152602001600582018054610d8d90613027565b80601f0160208091040260200160405190810160405280929190818152602001828054610db990613027565b8015610e065780601f10610ddb57610100808354040283529160200191610e06565b820191906000526020600020905b815481529060010190602001808311610de957829003601f168201915b505050505081526020016006820160009054906101000a900460ff16151515158152602001600782018054610e3a90613027565b80601f0160208091040260200160405190810160405280929190818152602001828054610e6690613027565b8015610eb35780601f10610e8857610100808354040283529160200191610eb3565b820191906000526020600020905b815481529060010190602001808311610e9657829003601f168201915b505050505081525050828481518110610ecf57610ece613058565b5b60200260200101819052508280610ee5906130b6565b9350505b8080610ef4906130b6565b915050610b3c565b5080935050505090565b6000604051806101000160405280610f1e6003612369565b81526020013373ffffffffffffffffffffffffffffffffffffffff1681526020018781526020018681526020018581526020018481526020016000151581526020018381525090806001815401808255809150506001900390600052602060002090600802016000909190919091506000820151816000015560208201518160010160006101000a81548173ffffffffffffffffffffffffffffffffffffffff021916908373ffffffffffffffffffffffffffffffffffffffff1602179055506040820151816002019081610ff391906132aa565b50606082015181600301908161100991906132aa565b506080820151816004015560a082015181600501908161102991906132aa565b5060c08201518160060160006101000a81548160ff02191690831515021790555060e082015181600701908161105f91906132aa565b50505061106c6003612377565b5050505050565b6000818154811061108357600080fd5b90600052602060002090600802016000915090508060000154908060010160009054906101000a900473ffffffffffffffffffffffffffffffffffffffff16908060020180546110d290613027565b80601f01602080910402602001604051908101604052809291908181526020018280546110fe90613027565b801561114b5780601f106111205761010080835404028352916020019161114b565b820191906000526020600020905b81548152906001019060200180831161112e57829003601f168201915b50505050509080600301805461116090613027565b80601f016020809104026020016040519081016040528092919081815260200182805461118c90613027565b80156111d95780601f106111ae576101008083540402835291602001916111d9565b820191906000526020600020905b8154815290600101906020018083116111bc57829003601f168201915b5050505050908060040154908060050180546111f490613027565b80601f016020809104026020016040519081016040528092919081815260200182805461122090613027565b801561126d5780601f106112425761010080835404028352916020019161126d565b820191906000526020600020905b81548152906001019060200180831161125057829003601f168201915b5050505050908060060160009054906101000a900460ff169080600701805461129590613027565b80601f01602080910402602001604051908101604052809291908181526020018280546112c190613027565b801561130e5780601f106112e35761010080835404028352916020019161130e565b820191906000526020600020905b8154815290600101906020018083116112f157829003601f168201915b5050505050905088565b6001818154811061132857600080fd5b906000526020600020906003020160009150905080600001805461134b90613027565b80601f016020809104026020016040519081016040528092919081815260200182805461137790613027565b80156113c45780601f10611399576101008083540402835291602001916113c4565b820191906000526020600020905b8154815290600101906020018083116113a757829003601f168201915b5050505050908060010160009054906101000a900473ffffffffffffffffffffffffffffffffffffffff16908060020180546113ff90613027565b80601f016020809104026020016040519081016040528092919081815260200182805461142b90613027565b80156114785780601f1061144d57610100808354040283529160200191611478565b820191906000526020600020905b81548152906001019060200180831161145b57829003601f168201915b5050505050905083565b600047905090565b6002818154811061149a57600080fd5b90600052602060002090600502016000915090508060000160009054906101000a900473ffffffffffffffffffffffffffffffffffffffff16908060010160009054906101000a900473ffffffffffffffffffffffffffffffffffffffff16908060020154908060030154908060040160009054906101000a900460ff16905085565b60008060005b600280549050811015611632573373ffffffffffffffffffffffffffffffffffffffff166002828154811061155b5761155a613058565b5b906000526020600020906005020160010160009054906101000a900473ffffffffffffffffffffffffffffffffffffffff1673ffffffffffffffffffffffffffffffffffffffff161480156115e6575060001515600282815481106115c3576115c2613058565b5b906000526020600020906005020160040160009054906101000a900460ff161515145b1561161f57600281815481106115ff576115fe613058565b5b9060005260206000209060050201600301548261161c919061337c565b91505b808061162a906130b6565b915050611523565b508091505090565b6060806000805b60028054905081101561180e573373ffffffffffffffffffffffffffffffffffffffff166002828154811061167957611678613058565b5b906000526020600020906005020160010160009054906101000a900473ffffffffffffffffffffffffffffffffffffffff1673ffffffffffffffffffffffffffffffffffffffff16036117fb57600281815481106116da576116d9613058565b5b90600052602060002090600502016040518060a00160405290816000820160009054906101000a900473ffffffffffffffffffffffffffffffffffffffff1673ffffffffffffffffffffffffffffffffffffffff1673ffffffffffffffffffffffffffffffffffffffff1681526020016001820160009054906101000a900473ffffffffffffffffffffffffffffffffffffffff1673ffffffffffffffffffffffffffffffffffffffff1673ffffffffffffffffffffffffffffffffffffffff16815260200160028201548152602001600382015481526020016004820160009054906101000a900460ff1615151515815250508382815181106117e1576117e0613058565b5b602002602001018190525081806117f7906130b6565b9250505b8080611806906130b6565b915050611641565b50819250505090565b61181f61247c565b61182761247c565b60005b600080549050811015611b7457836000828154811061184c5761184b613058565b5b90600052602060002090600802016000015403611b61576000818154811061187757611876613058565b5b906000526020600020906008020160405180610100016040529081600082015481526020016001820160009054906101000a900473ffffffffffffffffffffffffffffffffffffffff1673ffffffffffffffffffffffffffffffffffffffff1673ffffffffffffffffffffffffffffffffffffffff16815260200160028201805461190190613027565b80601f016020809104026020016040519081016040528092919081815260200182805461192d90613027565b801561197a5780601f1061194f5761010080835404028352916020019161197a565b820191906000526020600020905b81548152906001019060200180831161195d57829003601f168201915b5050505050815260200160038201805461199390613027565b80601f01602080910402602001604051908101604052809291908181526020018280546119bf90613027565b8015611a0c5780601f106119e157610100808354040283529160200191611a0c565b820191906000526020600020905b8154815290600101906020018083116119ef57829003601f168201915b5050505050815260200160048201548152602001600582018054611a2f90613027565b80601f0160208091040260200160405190810160405280929190818152602001828054611a5b90613027565b8015611aa85780601f10611a7d57610100808354040283529160200191611aa8565b820191906000526020600020905b815481529060010190602001808311611a8b57829003601f168201915b505050505081526020016006820160009054906101000a900460ff16151515158152602001600782018054611adc90613027565b80601f0160208091040260200160405190810160405280929190818152602001828054611b0890613027565b8015611b555780601f10611b2a57610100808354040283529160200191611b55565b820191906000526020600020905b815481529060010190602001808311611b3857829003601f168201915b50505050508152505091505b8080611b6c906130b6565b91505061182a565b5080915050919050565b600081604051602001611b9191906133ec565b6040516020818303038152906040528051906020012083604051602001611bb891906133ec565b6040516020818303038152906040528051906020012014905092915050565b6000611be282611817565b905080608001513414611bf457600080fd5b60026040518060a001604052803373ffffffffffffffffffffffffffffffffffffffff168152602001836020015173ffffffffffffffffffffffffffffffffffffffff16815260200184815260200134815260200160001515815250908060018154018082558091505060019003906000526020600020906005020160009091909190915060008201518160000160006101000a81548173ffffffffffffffffffffffffffffffffffffffff021916908373ffffffffffffffffffffffffffffffffffffffff16021790555060208201518160010160006101000a81548173ffffffffffffffffffffffffffffffffffffffff021916908373ffffffffffffffffffffffffffffffffffffffff160217905550604082015181600201556060820151816003015560808201518160040160006101000a81548160ff02191690831515021790555050505050565b600080611d4d3361238d565b905060005b600180549050811015611e4557611e1660018281548110611d7657611d75613058565b5b90600052602060002090600302016000018054611d9290613027565b80601f0160208091040260200160405190810160405280929190818152602001828054611dbe90613027565b8015611e0b5780601f10611de057610100808354040283529160200191611e0b565b820191906000526020600020905b815481529060010190602001808311611dee57829003601f168201915b505050505085611b7e565b8015611e225750818114155b15611e3257600092505050611e7f565b8080611e3d906130b6565b915050611d52565b508260018281548110611e5b57611e5a613058565b5b90600052602060002090600302016000019081611e7891906132aa565b5060019150505b919050565b600080611e903361238d565b90508260018281548110611ea757611ea6613058565b5b90600052602060002090600302016002019081611ec491906132aa565b506001915050919050565b8173ffffffffffffffffffffffffffffffffffffffff1660028281548110611efa57611ef9613058565b5b906000526020600020906005020160010160009054906101000a900473ffffffffffffffffffffffffffffffffffffffff1673ffffffffffffffffffffffffffffffffffffffff16148015611f8557506000151560028281548110611f6257611f61613058565b5b906000526020600020906005020160040160009054906101000a900460ff161515145b611f8e57600080fd5b8173ffffffffffffffffffffffffffffffffffffffff166108fc60028381548110611fbc57611fbb613058565b5b9060005260206000209060050201600301549081150290604051600060405180830381858888f19350505050158015611ff9573d6000803e3d6000fd5b506001600282815481106120105761200f613058565b5b906000526020600020906005020160040160006101000a81548160ff0219169083151502179055505050565b6000816000018190555050565b612051612445565b60005b60018054905081101561229b578273ffffffffffffffffffffffffffffffffffffffff166001828154811061208c5761208b613058565b5b906000526020600020906003020160010160009054906101000a900473ffffffffffffffffffffffffffffffffffffffff1673ffffffffffffffffffffffffffffffffffffffff160361228857600181815481106120ed576120ec613058565b5b906000526020600020906003020160405180606001604052908160008201805461211690613027565b80601f016020809104026020016040519081016040528092919081815260200182805461214290613027565b801561218f5780601f106121645761010080835404028352916020019161218f565b820191906000526020600020905b81548152906001019060200180831161217257829003601f168201915b505050505081526020016001820160009054906101000a900473ffffffffffffffffffffffffffffffffffffffff1673ffffffffffffffffffffffffffffffffffffffff1673ffffffffffffffffffffffffffffffffffffffff1681526020016002820180546121fe90613027565b80601f016020809104026020016040519081016040528092919081815260200182805461222a90613027565b80156122775780601f1061224c57610100808354040283529160200191612277565b820191906000526020600020905b81548152906001019060200180831161225a57829003601f168201915b5050505050815250509150506122a9565b8080612293906130b6565b915050612054565b506122a4612445565b809150505b919050565b6000806000905060005b60008054905081101561235f578373ffffffffffffffffffffffffffffffffffffffff16600082815481106122f0576122ef613058565b5b906000526020600020906008020160010160009054906101000a900473ffffffffffffffffffffffffffffffffffffffff1673ffffffffffffffffffffffffffffffffffffffff160361234c578180612348906130b6565b9250505b8080612357906130b6565b9150506122b8565b5080915050919050565b600081600001549050919050565b6001816000016000828254019250508190555050565b600080600090505b600180549050811015612436578273ffffffffffffffffffffffffffffffffffffffff16600182815481106123cd576123cc613058565b5b906000526020600020906003020160010160009054906101000a900473ffffffffffffffffffffffffffffffffffffffff1673ffffffffffffffffffffffffffffffffffffffff16036124235780915050612440565b808061242e906130b6565b915050612395565b5060018054905090505b919050565b604051806060016040528060608152602001600073ffffffffffffffffffffffffffffffffffffffff168152602001606081525090565b60405180610100016040528060008152602001600073ffffffffffffffffffffffffffffffffffffffff16815260200160608152602001606081526020016000815260200160608152602001600015158152602001606081525090565b600081519050919050565b600082825260208201905092915050565b6000819050602082019050919050565b6000819050919050565b61251881612505565b82525050565b600073ffffffffffffffffffffffffffffffffffffffff82169050919050565b60006125498261251e565b9050919050565b6125598161253e565b82525050565b600081519050919050565b600082825260208201905092915050565b60005b8381101561259957808201518184015260208101905061257e565b60008484015250505050565b6000601f19601f8301169050919050565b60006125c18261255f565b6125cb818561256a565b93506125db81856020860161257b565b6125e4816125a5565b840191505092915050565b60008115159050919050565b612604816125ef565b82525050565b600061010083016000830151612623600086018261250f565b5060208301516126366020860182612550565b506040830151848203604086015261264e82826125b6565b9150506060830151848203606086015261266882826125b6565b915050608083015161267d608086018261250f565b5060a083015184820360a086015261269582826125b6565b91505060c08301516126aa60c08601826125fb565b5060e083015184820360e08601526126c282826125b6565b9150508091505092915050565b60006126db838361260a565b905092915050565b6000602082019050919050565b60006126fb826124d9565b61270581856124e4565b935083602082028501612717856124f5565b8060005b85811015612753578484038952815161273485826126cf565b945061273f836126e3565b925060208a0199505060018101905061271b565b50829750879550505050505092915050565b6000602082019050818103600083015261277f81846126f0565b905092915050565b6000604051905090565b600080fd5b600080fd5b60006127a68261251e565b9050919050565b6127b68161279b565b81146127c157600080fd5b50565b6000813590506127d3816127ad565b92915050565b6000602082840312156127ef576127ee612791565b5b60006127fd848285016127c4565b91505092915050565b600080fd5b600080fd5b7f4e487b7100000000000000000000000000000000000000000000000000000000600052604160045260246000fd5b612848826125a5565b810181811067ffffffffffffffff8211171561286757612866612810565b5b80604052505050565b600061287a612787565b9050612886828261283f565b919050565b600067ffffffffffffffff8211156128a6576128a5612810565b5b6128af826125a5565b9050602081019050919050565b82818337600083830152505050565b60006128de6128d98461288b565b612870565b9050828152602081018484840111156128fa576128f961280b565b5b6129058482856128bc565b509392505050565b600082601f83011261292257612921612806565b5b81356129328482602086016128cb565b91505092915050565b6000806040838503121561295257612951612791565b5b600083013567ffffffffffffffff8111156129705761296f612796565b5b61297c8582860161290d565b925050602083013567ffffffffffffffff81111561299d5761299c612796565b5b6129a98582860161290d565b9150509250929050565b6129bc816125ef565b82525050565b60006020820190506129d760008301846129b3565b92915050565b600060608301600083015184820360008601526129fa82826125b6565b9150506020830151612a0f6020860182612550565b5060408301518482036040860152612a2782826125b6565b9150508091505092915050565b60006020820190508181036000830152612a4e81846129dd565b905092915050565b612a5f81612505565b8114612a6a57600080fd5b50565b600081359050612a7c81612a56565b92915050565b600080600080600060a08688031215612a9e57612a9d612791565b5b600086013567ffffffffffffffff811115612abc57612abb612796565b5b612ac88882890161290d565b955050602086013567ffffffffffffffff811115612ae957612ae8612796565b5b612af58882890161290d565b9450506040612b0688828901612a6d565b935050606086013567ffffffffffffffff811115612b2757612b26612796565b5b612b338882890161290d565b925050608086013567ffffffffffffffff811115612b5457612b53612796565b5b612b608882890161290d565b9150509295509295909350565b600060208284031215612b8357612b82612791565b5b6000612b9184828501612a6d565b91505092915050565b612ba381612505565b82525050565b612bb28161253e565b82525050565b600082825260208201905092915050565b6000612bd48261255f565b612bde8185612bb8565b9350612bee81856020860161257b565b612bf7816125a5565b840191505092915050565b600061010082019050612c18600083018b612b9a565b612c25602083018a612ba9565b8181036040830152612c378189612bc9565b90508181036060830152612c4b8188612bc9565b9050612c5a6080830187612b9a565b81810360a0830152612c6c8186612bc9565b9050612c7b60c08301856129b3565b81810360e0830152612c8d8184612bc9565b90509998505050505050505050565b60006060820190508181036000830152612cb68186612bc9565b9050612cc56020830185612ba9565b8181036040830152612cd78184612bc9565b9050949350505050565b6000602082019050612cf66000830184612b9a565b92915050565b600060a082019050612d116000830188612ba9565b612d1e6020830187612ba9565b612d2b6040830186612b9a565b612d386060830185612b9a565b612d4560808301846129b3565b9695505050505050565b600081519050919050565b600082825260208201905092915050565b6000819050602082019050919050565b60a082016000820151612d916000850182612550565b506020820151612da46020850182612550565b506040820151612db7604085018261250f565b506060820151612dca606085018261250f565b506080820151612ddd60808501826125fb565b50505050565b6000612def8383612d7b565b60a08301905092915050565b6000602082019050919050565b6000612e1382612d4f565b612e1d8185612d5a565b9350612e2883612d6b565b8060005b83811015612e59578151612e408882612de3565b9750612e4b83612dfb565b925050600181019050612e2c565b5085935050505092915050565b60006020820190508181036000830152612e808184612e08565b905092915050565b600061010083016000830151612ea1600086018261250f565b506020830151612eb46020860182612550565b5060408301518482036040860152612ecc82826125b6565b91505060608301518482036060860152612ee682826125b6565b9150506080830151612efb608086018261250f565b5060a083015184820360a0860152612f1382826125b6565b91505060c0830151612f2860c08601826125fb565b5060e083015184820360e0860152612f4082826125b6565b9150508091505092915050565b60006020820190508181036000830152612f678184612e88565b905092915050565b600060208284031215612f8557612f84612791565b5b600082013567ffffffffffffffff811115612fa357612fa2612796565b5b612faf8482850161290d565b91505092915050565b60008060408385031215612fcf57612fce612791565b5b6000612fdd858286016127c4565b9250506020612fee85828601612a6d565b9150509250929050565b7f4e487b7100000000000000000000000000000000000000000000000000000000600052602260045260246000fd5b6000600282049050600182168061303f57607f821691505b60208210810361305257613051612ff8565b5b50919050565b7f4e487b7100000000000000000000000000000000000000000000000000000000600052603260045260246000fd5b7f4e487b7100000000000000000000000000000000000000000000000000000000600052601160045260246000fd5b60006130c182612505565b91507fffffffffffffffffffffffffffffffffffffffffffffffffffffffffffffffff82036130f3576130f2613087565b5b600182019050919050565b60008190508160005260206000209050919050565b60006020601f8301049050919050565b600082821b905092915050565b6000600883026131607fffffffffffffffffffffffffffffffffffffffffffffffffffffffffffffffff82613123565b61316a8683613123565b95508019841693508086168417925050509392505050565b6000819050919050565b60006131a76131a261319d84612505565b613182565b612505565b9050919050565b6000819050919050565b6131c18361318c565b6131d56131cd826131ae565b848454613130565b825550505050565b600090565b6131ea6131dd565b6131f58184846131b8565b505050565b5b818110156132195761320e6000826131e2565b6001810190506131fb565b5050565b601f82111561325e5761322f816130fe565b61323884613113565b81016020851015613247578190505b61325b61325385613113565b8301826131fa565b50505b505050565b600082821c905092915050565b600061328160001984600802613263565b1980831691505092915050565b600061329a8383613270565b9150826002028217905092915050565b6132b38261255f565b67ffffffffffffffff8111156132cc576132cb612810565b5b6132d68254613027565b6132e182828561321d565b600060209050601f8311600181146133145760008415613302578287015190505b61330c858261328e565b865550613374565b601f198416613322866130fe565b60005b8281101561334a57848901518255600182019150602085019450602081019050613325565b868310156133675784890151613363601f891682613270565b8355505b6001600288020188555050505b505050505050565b600061338782612505565b915061339283612505565b92508282019050808211156133aa576133a9613087565b5b92915050565b600081905092915050565b60006133c68261255f565b6133d081856133b0565b93506133e081856020860161257b565b80840191505092915050565b60006133f882846133bb565b91508190509291505056fea2646970667358221220f28ad21b7e25ac81eb797d438232180d28575b5ea7e49f332806367376508da964736f6c63430008120033",
					"opcodes": "PUSH1 0x80 PUSH1 0x40 MSTORE PUSH3 0x1B PUSH1 0x3 PUSH3 0x21 PUSH1 0x20 SHL PUSH3 0x203C OR PUSH1 0x20 SHR JUMP JUMPDEST PUSH3 0x2E JUMP JUMPDEST PUSH1 0x0 DUP2 PUSH1 0x0 ADD DUP2 SWAP1 SSTORE POP POP JUMP JUMPDEST PUSH2 0x3439 DUP1 PUSH3 0x3E PUSH1 0x0 CODECOPY PUSH1 0x0 RETURN INVALID PUSH1 0x80 PUSH1 0x40 MSTORE PUSH1 0x4 CALLDATASIZE LT PUSH2 0x109 JUMPI PUSH1 0x0 CALLDATALOAD PUSH1 0xE0 SHR DUP1 PUSH4 0x7EC1061A GT PUSH2 0x95 JUMPI DUP1 PUSH4 0xBED34BBA GT PUSH2 0x64 JUMPI DUP1 PUSH4 0xBED34BBA EQ PUSH2 0x393 JUMPI DUP1 PUSH4 0xD6CFA440 EQ PUSH2 0x3D0 JUMPI DUP1 PUSH4 0xE44C76EA EQ PUSH2 0x3EC JUMPI DUP1 PUSH4 0xF70D205C EQ PUSH2 0x429 JUMPI DUP1 PUSH4 0xFB5D7A1F EQ PUSH2 0x466 JUMPI PUSH2 0x109 JUMP JUMPDEST DUP1 PUSH4 0x7EC1061A EQ PUSH2 0x2BF JUMPI DUP1 PUSH4 0x809DAB6A EQ PUSH2 0x300 JUMPI DUP1 PUSH4 0x8E4A6680 EQ PUSH2 0x32B JUMPI DUP1 PUSH4 0xB79367C4 EQ PUSH2 0x356 JUMPI PUSH2 0x109 JUMP JUMPDEST DUP1 PUSH4 0x2CC59076 GT PUSH2 0xDC JUMPI DUP1 PUSH4 0x2CC59076 EQ PUSH2 0x1BD JUMPI DUP1 PUSH4 0x38880D55 EQ PUSH2 0x1E8 JUMPI DUP1 PUSH4 0x3B342E8E EQ PUSH2 0x211 JUMPI DUP1 PUSH4 0x4CEA965E EQ PUSH2 0x255 JUMPI DUP1 PUSH4 0x6F9FB98A EQ PUSH2 0x294 JUMPI PUSH2 0x109 JUMP JUMPDEST DUP1 PUSH4 0x4E48BD1 EQ PUSH2 0x10E JUMPI DUP1 PUSH4 0xE61A0EE EQ PUSH2 0x139 JUMPI DUP1 PUSH4 0x1FC25CDD EQ PUSH2 0x155 JUMPI DUP1 PUSH4 0x21527E50 EQ PUSH2 0x192 JUMPI JUMPDEST PUSH1 0x0 DUP1 REVERT JUMPDEST CALLVALUE DUP1 ISZERO PUSH2 0x11A JUMPI PUSH1 0x0 DUP1 REVERT JUMPDEST POP PUSH2 0x123 PUSH2 0x482 JUMP JUMPDEST PUSH1 0x40 MLOAD PUSH2 0x130 SWAP2 SWAP1 PUSH2 0x2765 JUMP JUMPDEST PUSH1 0x40 MLOAD DUP1 SWAP2 SUB SWAP1 RETURN JUMPDEST PUSH2 0x153 PUSH1 0x4 DUP1 CALLDATASIZE SUB DUP2 ADD SWAP1 PUSH2 0x14E SWAP2 SWAP1 PUSH2 0x27D9 JUMP JUMPDEST PUSH2 0x7AF JUMP JUMPDEST STOP JUMPDEST CALLVALUE DUP1 ISZERO PUSH2 0x161 JUMPI PUSH1 0x0 DUP1 REVERT JUMPDEST POP PUSH2 0x17C PUSH1 0x4 DUP1 CALLDATASIZE SUB DUP2 ADD SWAP1 PUSH2 0x177 SWAP2 SWAP1 PUSH2 0x293B JUMP JUMPDEST PUSH2 0x868 JUMP JUMPDEST PUSH1 0x40 MLOAD PUSH2 0x189 SWAP2 SWAP1 PUSH2 0x29C2 JUMP JUMPDEST PUSH1 0x40 MLOAD DUP1 SWAP2 SUB SWAP1 RETURN JUMPDEST CALLVALUE DUP1 ISZERO PUSH2 0x19E JUMPI PUSH1 0x0 DUP1 REVERT JUMPDEST POP PUSH2 0x1A7 PUSH2 0xAB5 JUMP JUMPDEST PUSH1 0x40 MLOAD PUSH2 0x1B4 SWAP2 SWAP1 PUSH2 0x2A34 JUMP JUMPDEST PUSH1 0x40 MLOAD DUP1 SWAP2 SUB SWAP1 RETURN JUMPDEST CALLVALUE DUP1 ISZERO PUSH2 0x1C9 JUMPI PUSH1 0x0 DUP1 REVERT JUMPDEST POP PUSH2 0x1D2 PUSH2 0xAD1 JUMP JUMPDEST PUSH1 0x40 MLOAD PUSH2 0x1DF SWAP2 SWAP1 PUSH2 0x2765 JUMP JUMPDEST PUSH1 0x40 MLOAD DUP1 SWAP2 SUB SWAP1 RETURN JUMPDEST CALLVALUE DUP1 ISZERO PUSH2 0x1F4 JUMPI PUSH1 0x0 DUP1 REVERT JUMPDEST POP PUSH2 0x20F PUSH1 0x4 DUP1 CALLDATASIZE SUB DUP2 ADD SWAP1 PUSH2 0x20A SWAP2 SWAP1 PUSH2 0x2A82 JUMP JUMPDEST PUSH2 0xF06 JUMP JUMPDEST STOP JUMPDEST CALLVALUE DUP1 ISZERO PUSH2 0x21D JUMPI PUSH1 0x0 DUP1 REVERT JUMPDEST POP PUSH2 0x238 PUSH1 0x4 DUP1 CALLDATASIZE SUB DUP2 ADD SWAP1 PUSH2 0x233 SWAP2 SWAP1 PUSH2 0x2B6D JUMP JUMPDEST PUSH2 0x1073 JUMP JUMPDEST PUSH1 0x40 MLOAD PUSH2 0x24C SWAP9 SWAP8 SWAP7 SWAP6 SWAP5 SWAP4 SWAP3 SWAP2 SWAP1 PUSH2 0x2C02 JUMP JUMPDEST PUSH1 0x40 MLOAD DUP1 SWAP2 SUB SWAP1 RETURN JUMPDEST CALLVALUE DUP1 ISZERO PUSH2 0x261 JUMPI PUSH1 0x0 DUP1 REVERT JUMPDEST POP PUSH2 0x27C PUSH1 0x4 DUP1 CALLDATASIZE SUB DUP2 ADD SWAP1 PUSH2 0x277 SWAP2 SWAP1 PUSH2 0x2B6D JUMP JUMPDEST PUSH2 0x1318 JUMP JUMPDEST PUSH1 0x40 MLOAD PUSH2 0x28B SWAP4 SWAP3 SWAP2 SWAP1 PUSH2 0x2C9C JUMP JUMPDEST PUSH1 0x40 MLOAD DUP1 SWAP2 SUB SWAP1 RETURN JUMPDEST CALLVALUE DUP1 ISZERO PUSH2 0x2A0 JUMPI PUSH1 0x0 DUP1 REVERT JUMPDEST POP PUSH2 0x2A9 PUSH2 0x1482 JUMP JUMPDEST PUSH1 0x40 MLOAD PUSH2 0x2B6 SWAP2 SWAP1 PUSH2 0x2CE1 JUMP JUMPDEST PUSH1 0x40 MLOAD DUP1 SWAP2 SUB SWAP1 RETURN JUMPDEST CALLVALUE DUP1 ISZERO PUSH2 0x2CB JUMPI PUSH1 0x0 DUP1 REVERT JUMPDEST POP PUSH2 0x2E6 PUSH1 0x4 DUP1 CALLDATASIZE SUB DUP2 ADD SWAP1 PUSH2 0x2E1 SWAP2 SWAP1 PUSH2 0x2B6D JUMP JUMPDEST PUSH2 0x148A JUMP JUMPDEST PUSH1 0x40 MLOAD PUSH2 0x2F7 SWAP6 SWAP5 SWAP4 SWAP3 SWAP2 SWAP1 PUSH2 0x2CFC JUMP JUMPDEST PUSH1 0x40 MLOAD DUP1 SWAP2 SUB SWAP1 RETURN JUMPDEST CALLVALUE DUP1 ISZERO PUSH2 0x30C JUMPI PUSH1 0x0 DUP1 REVERT JUMPDEST POP PUSH2 0x315 PUSH2 0x151D JUMP JUMPDEST PUSH1 0x40 MLOAD PUSH2 0x322 SWAP2 SWAP1 PUSH2 0x2CE1 JUMP JUMPDEST PUSH1 0x40 MLOAD DUP1 SWAP2 SUB SWAP1 RETURN JUMPDEST CALLVALUE DUP1 ISZERO PUSH2 0x337 JUMPI PUSH1 0x0 DUP1 REVERT JUMPDEST POP PUSH2 0x340 PUSH2 0x163A JUMP JUMPDEST PUSH1 0x40 MLOAD PUSH2 0x34D SWAP2 SWAP1 PUSH2 0x2E66 JUMP JUMPDEST PUSH1 0x40 MLOAD DUP1 SWAP2 SUB SWAP1 RETURN JUMPDEST CALLVALUE DUP1 ISZERO PUSH2 0x362 JUMPI PUSH1 0x0 DUP1 REVERT JUMPDEST POP PUSH2 0x37D PUSH1 0x4 DUP1 CALLDATASIZE SUB DUP2 ADD SWAP1 PUSH2 0x378 SWAP2 SWAP1 PUSH2 0x2B6D JUMP JUMPDEST PUSH2 0x1817 JUMP JUMPDEST PUSH1 0x40 MLOAD PUSH2 0x38A SWAP2 SWAP1 PUSH2 0x2F4D JUMP JUMPDEST PUSH1 0x40 MLOAD DUP1 SWAP2 SUB SWAP1 RETURN JUMPDEST CALLVALUE DUP1 ISZERO PUSH2 0x39F JUMPI PUSH1 0x0 DUP1 REVERT JUMPDEST POP PUSH2 0x3BA PUSH1 0x4 DUP1 CALLDATASIZE SUB DUP2 ADD SWAP1 PUSH2 0x3B5 SWAP2 SWAP1 PUSH2 0x293B JUMP JUMPDEST PUSH2 0x1B7E JUMP JUMPDEST PUSH1 0x40 MLOAD PUSH2 0x3C7 SWAP2 SWAP1 PUSH2 0x29C2 JUMP JUMPDEST PUSH1 0x40 MLOAD DUP1 SWAP2 SUB SWAP1 RETURN JUMPDEST PUSH2 0x3EA PUSH1 0x4 DUP1 CALLDATASIZE SUB DUP2 ADD SWAP1 PUSH2 0x3E5 SWAP2 SWAP1 PUSH2 0x2B6D JUMP JUMPDEST PUSH2 0x1BD7 JUMP JUMPDEST STOP JUMPDEST CALLVALUE DUP1 ISZERO PUSH2 0x3F8 JUMPI PUSH1 0x0 DUP1 REVERT JUMPDEST POP PUSH2 0x413 PUSH1 0x4 DUP1 CALLDATASIZE SUB DUP2 ADD SWAP1 PUSH2 0x40E SWAP2 SWAP1 PUSH2 0x2F6F JUMP JUMPDEST PUSH2 0x1D41 JUMP JUMPDEST PUSH1 0x40 MLOAD PUSH2 0x420 SWAP2 SWAP1 PUSH2 0x29C2 JUMP JUMPDEST PUSH1 0x40 MLOAD DUP1 SWAP2 SUB SWAP1 RETURN JUMPDEST CALLVALUE DUP1 ISZERO PUSH2 0x435 JUMPI PUSH1 0x0 DUP1 REVERT JUMPDEST POP PUSH2 0x450 PUSH1 0x4 DUP1 CALLDATASIZE SUB DUP2 ADD SWAP1 PUSH2 0x44B SWAP2 SWAP1 PUSH2 0x2F6F JUMP JUMPDEST PUSH2 0x1E84 JUMP JUMPDEST PUSH1 0x40 MLOAD PUSH2 0x45D SWAP2 SWAP1 PUSH2 0x29C2 JUMP JUMPDEST PUSH1 0x40 MLOAD DUP1 SWAP2 SUB SWAP1 RETURN JUMPDEST PUSH2 0x480 PUSH1 0x4 DUP1 CALLDATASIZE SUB DUP2 ADD SWAP1 PUSH2 0x47B SWAP2 SWAP1 PUSH2 0x2FB8 JUMP JUMPDEST PUSH2 0x1ECF JUMP JUMPDEST STOP JUMPDEST PUSH1 0x60 PUSH1 0x0 DUP1 SLOAD DUP1 PUSH1 0x20 MUL PUSH1 0x20 ADD PUSH1 0x40 MLOAD SWAP1 DUP2 ADD PUSH1 0x40 MSTORE DUP1 SWAP3 SWAP2 SWAP1 DUP2 DUP2 MSTORE PUSH1 0x20 ADD PUSH1 0x0 SWAP1 JUMPDEST DUP3 DUP3 LT ISZERO PUSH2 0x7A6 JUMPI DUP4 DUP3 SWAP1 PUSH1 0x0 MSTORE PUSH1 0x20 PUSH1 0x0 KECCAK256 SWAP1 PUSH1 0x8 MUL ADD PUSH1 0x40 MLOAD DUP1 PUSH2 0x100 ADD PUSH1 0x40 MSTORE SWAP1 DUP2 PUSH1 0x0 DUP3 ADD SLOAD DUP2 MSTORE PUSH1 0x20 ADD PUSH1 0x1 DUP3 ADD PUSH1 0x0 SWAP1 SLOAD SWAP1 PUSH2 0x100 EXP SWAP1 DIV PUSH20 0xFFFFFFFFFFFFFFFFFFFFFFFFFFFFFFFFFFFFFFFF AND PUSH20 0xFFFFFFFFFFFFFFFFFFFFFFFFFFFFFFFFFFFFFFFF AND PUSH20 0xFFFFFFFFFFFFFFFFFFFFFFFFFFFFFFFFFFFFFFFF AND DUP2 MSTORE PUSH1 0x20 ADD PUSH1 0x2 DUP3 ADD DUP1 SLOAD PUSH2 0x53A SWAP1 PUSH2 0x3027 JUMP JUMPDEST DUP1 PUSH1 0x1F ADD PUSH1 0x20 DUP1 SWAP2 DIV MUL PUSH1 0x20 ADD PUSH1 0x40 MLOAD SWAP1 DUP2 ADD PUSH1 0x40 MSTORE DUP1 SWAP3 SWAP2 SWAP1 DUP2 DUP2 MSTORE PUSH1 0x20 ADD DUP3 DUP1 SLOAD PUSH2 0x566 SWAP1 PUSH2 0x3027 JUMP JUMPDEST DUP1 ISZERO PUSH2 0x5B3 JUMPI DUP1 PUSH1 0x1F LT PUSH2 0x588 JUMPI PUSH2 0x100 DUP1 DUP4 SLOAD DIV MUL DUP4 MSTORE SWAP2 PUSH1 0x20 ADD SWAP2 PUSH2 0x5B3 JUMP JUMPDEST DUP3 ADD SWAP2 SWAP1 PUSH1 0x0 MSTORE PUSH1 0x20 PUSH1 0x0 KECCAK256 SWAP1 JUMPDEST DUP2 SLOAD DUP2 MSTORE SWAP1 PUSH1 0x1 ADD SWAP1 PUSH1 0x20 ADD DUP1 DUP4 GT PUSH2 0x596 JUMPI DUP3 SWAP1 SUB PUSH1 0x1F AND DUP3 ADD SWAP2 JUMPDEST POP POP POP POP POP DUP2 MSTORE PUSH1 0x20 ADD PUSH1 0x3 DUP3 ADD DUP1 SLOAD PUSH2 0x5CC SWAP1 PUSH2 0x3027 JUMP JUMPDEST DUP1 PUSH1 0x1F ADD PUSH1 0x20 DUP1 SWAP2 DIV MUL PUSH1 0x20 ADD PUSH1 0x40 MLOAD SWAP1 DUP2 ADD PUSH1 0x40 MSTORE DUP1 SWAP3 SWAP2 SWAP1 DUP2 DUP2 MSTORE PUSH1 0x20 ADD DUP3 DUP1 SLOAD PUSH2 0x5F8 SWAP1 PUSH2 0x3027 JUMP JUMPDEST DUP1 ISZERO PUSH2 0x645 JUMPI DUP1 PUSH1 0x1F LT PUSH2 0x61A JUMPI PUSH2 0x100 DUP1 DUP4 SLOAD DIV MUL DUP4 MSTORE SWAP2 PUSH1 0x20 ADD SWAP2 PUSH2 0x645 JUMP JUMPDEST DUP3 ADD SWAP2 SWAP1 PUSH1 0x0 MSTORE PUSH1 0x20 PUSH1 0x0 KECCAK256 SWAP1 JUMPDEST DUP2 SLOAD DUP2 MSTORE SWAP1 PUSH1 0x1 ADD SWAP1 PUSH1 0x20 ADD DUP1 DUP4 GT PUSH2 0x628 JUMPI DUP3 SWAP1 SUB PUSH1 0x1F AND DUP3 ADD SWAP2 JUMPDEST POP POP POP POP POP DUP2 MSTORE PUSH1 0x20 ADD PUSH1 0x4 DUP3 ADD SLOAD DUP2 MSTORE PUSH1 0x20 ADD PUSH1 0x5 DUP3 ADD DUP1 SLOAD PUSH2 0x668 SWAP1 PUSH2 0x3027 JUMP JUMPDEST DUP1 PUSH1 0x1F ADD PUSH1 0x20 DUP1 SWAP2 DIV MUL PUSH1 0x20 ADD PUSH1 0x40 MLOAD SWAP1 DUP2 ADD PUSH1 0x40 MSTORE DUP1 SWAP3 SWAP2 SWAP1 DUP2 DUP2 MSTORE PUSH1 0x20 ADD DUP3 DUP1 SLOAD PUSH2 0x694 SWAP1 PUSH2 0x3027 JUMP JUMPDEST DUP1 ISZERO PUSH2 0x6E1 JUMPI DUP1 PUSH1 0x1F LT PUSH2 0x6B6 JUMPI PUSH2 0x100 DUP1 DUP4 SLOAD DIV MUL DUP4 MSTORE SWAP2 PUSH1 0x20 ADD SWAP2 PUSH2 0x6E1 JUMP JUMPDEST DUP3 ADD SWAP2 SWAP1 PUSH1 0x0 MSTORE PUSH1 0x20 PUSH1 0x0 KECCAK256 SWAP1 JUMPDEST DUP2 SLOAD DUP2 MSTORE SWAP1 PUSH1 0x1 ADD SWAP1 PUSH1 0x20 ADD DUP1 DUP4 GT PUSH2 0x6C4 JUMPI DUP3 SWAP1 SUB PUSH1 0x1F AND DUP3 ADD SWAP2 JUMPDEST POP POP POP POP POP DUP2 MSTORE PUSH1 0x20 ADD PUSH1 0x6 DUP3 ADD PUSH1 0x0 SWAP1 SLOAD SWAP1 PUSH2 0x100 EXP SWAP1 DIV PUSH1 0xFF AND ISZERO ISZERO ISZERO ISZERO DUP2 MSTORE PUSH1 0x20 ADD PUSH1 0x7 DUP3 ADD DUP1 SLOAD PUSH2 0x715 SWAP1 PUSH2 0x3027 JUMP JUMPDEST DUP1 PUSH1 0x1F ADD PUSH1 0x20 DUP1 SWAP2 DIV MUL PUSH1 0x20 ADD PUSH1 0x40 MLOAD SWAP1 DUP2 ADD PUSH1 0x40 MSTORE DUP1 SWAP3 SWAP2 SWAP1 DUP2 DUP2 MSTORE PUSH1 0x20 ADD DUP3 DUP1 SLOAD PUSH2 0x741 SWAP1 PUSH2 0x3027 JUMP JUMPDEST DUP1 ISZERO PUSH2 0x78E JUMPI DUP1 PUSH1 0x1F LT PUSH2 0x763 JUMPI PUSH2 0x100 DUP1 DUP4 SLOAD DIV MUL DUP4 MSTORE SWAP2 PUSH1 0x20 ADD SWAP2 PUSH2 0x78E JUMP JUMPDEST DUP3 ADD SWAP2 SWAP1 PUSH1 0x0 MSTORE PUSH1 0x20 PUSH1 0x0 KECCAK256 SWAP1 JUMPDEST DUP2 SLOAD DUP2 MSTORE SWAP1 PUSH1 0x1 ADD SWAP1 PUSH1 0x20 ADD DUP1 DUP4 GT PUSH2 0x771 JUMPI DUP3 SWAP1 SUB PUSH1 0x1F AND DUP3 ADD SWAP2 JUMPDEST POP POP POP POP POP DUP2 MSTORE POP POP DUP2 MSTORE PUSH1 0x20 ADD SWAP1 PUSH1 0x1 ADD SWAP1 PUSH2 0x4A6 JUMP JUMPDEST POP POP POP POP SWAP1 POP SWAP1 JUMP JUMPDEST PUSH1 0x0 PUSH2 0x7B9 PUSH2 0x151D JUMP JUMPDEST SWAP1 POP DUP2 PUSH20 0xFFFFFFFFFFFFFFFFFFFFFFFFFFFFFFFFFFFFFFFF AND PUSH2 0x8FC DUP3 SWAP1 DUP2 ISZERO MUL SWAP1 PUSH1 0x40 MLOAD PUSH1 0x0 PUSH1 0x40 MLOAD DUP1 DUP4 SUB DUP2 DUP6 DUP9 DUP9 CALL SWAP4 POP POP POP POP ISZERO DUP1 ISZERO PUSH2 0x801 JUMPI RETURNDATASIZE PUSH1 0x0 DUP1 RETURNDATACOPY RETURNDATASIZE PUSH1 0x0 REVERT JUMPDEST POP PUSH1 0x0 JUMPDEST PUSH1 0x2 DUP1 SLOAD SWAP1 POP DUP2 LT ISZERO PUSH2 0x863 JUMPI PUSH1 0x1 PUSH1 0x2 DUP3 DUP2 SLOAD DUP2 LT PUSH2 0x828 JUMPI PUSH2 0x827 PUSH2 0x3058 JUMP JUMPDEST JUMPDEST SWAP1 PUSH1 0x0 MSTORE PUSH1 0x20 PUSH1 0x0 KECCAK256 SWAP1 PUSH1 0x5 MUL ADD PUSH1 0x4 ADD PUSH1 0x0 PUSH2 0x100 EXP DUP2 SLOAD DUP2 PUSH1 0xFF MUL NOT AND SWAP1 DUP4 ISZERO ISZERO MUL OR SWAP1 SSTORE POP DUP1 DUP1 PUSH2 0x85B SWAP1 PUSH2 0x30B6 JUMP JUMPDEST SWAP2 POP POP PUSH2 0x805 JUMP JUMPDEST POP POP POP JUMP JUMPDEST PUSH1 0x0 DUP1 PUSH1 0x0 SWAP1 POP JUMPDEST PUSH1 0x1 DUP1 SLOAD SWAP1 POP DUP2 LT ISZERO PUSH2 0x9D8 JUMPI PUSH2 0x934 PUSH1 0x1 DUP3 DUP2 SLOAD DUP2 LT PUSH2 0x894 JUMPI PUSH2 0x893 PUSH2 0x3058 JUMP JUMPDEST JUMPDEST SWAP1 PUSH1 0x0 MSTORE PUSH1 0x20 PUSH1 0x0 KECCAK256 SWAP1 PUSH1 0x3 MUL ADD PUSH1 0x0 ADD DUP1 SLOAD PUSH2 0x8B0 SWAP1 PUSH2 0x3027 JUMP JUMPDEST DUP1 PUSH1 0x1F ADD PUSH1 0x20 DUP1 SWAP2 DIV MUL PUSH1 0x20 ADD PUSH1 0x40 MLOAD SWAP1 DUP2 ADD PUSH1 0x40 MSTORE DUP1 SWAP3 SWAP2 SWAP1 DUP2 DUP2 MSTORE PUSH1 0x20 ADD DUP3 DUP1 SLOAD PUSH2 0x8DC SWAP1 PUSH2 0x3027 JUMP JUMPDEST DUP1 ISZERO PUSH2 0x929 JUMPI DUP1 PUSH1 0x1F LT PUSH2 0x8FE JUMPI PUSH2 0x100 DUP1 DUP4 SLOAD DIV MUL DUP4 MSTORE SWAP2 PUSH1 0x20 ADD SWAP2 PUSH2 0x929 JUMP JUMPDEST DUP3 ADD SWAP2 SWAP1 PUSH1 0x0 MSTORE PUSH1 0x20 PUSH1 0x0 KECCAK256 SWAP1 JUMPDEST DUP2 SLOAD DUP2 MSTORE SWAP1 PUSH1 0x1 ADD SWAP1 PUSH1 0x20 ADD DUP1 DUP4 GT PUSH2 0x90C JUMPI DUP3 SWAP1 SUB PUSH1 0x1F AND DUP3 ADD SWAP2 JUMPDEST POP POP POP POP POP DUP6 PUSH2 0x1B7E JUMP JUMPDEST ISZERO PUSH2 0x943 JUMPI PUSH1 0x0 SWAP2 POP POP PUSH2 0xAAF JUMP JUMPDEST CALLER PUSH20 0xFFFFFFFFFFFFFFFFFFFFFFFFFFFFFFFFFFFFFFFF AND PUSH1 0x1 DUP3 DUP2 SLOAD DUP2 LT PUSH2 0x96E JUMPI PUSH2 0x96D PUSH2 0x3058 JUMP JUMPDEST JUMPDEST SWAP1 PUSH1 0x0 MSTORE PUSH1 0x20 PUSH1 0x0 KECCAK256 SWAP1 PUSH1 0x3 MUL ADD PUSH1 0x1 ADD PUSH1 0x0 SWAP1 SLOAD SWAP1 PUSH2 0x100 EXP SWAP1 DIV PUSH20 0xFFFFFFFFFFFFFFFFFFFFFFFFFFFFFFFFFFFFFFFF AND PUSH20 0xFFFFFFFFFFFFFFFFFFFFFFFFFFFFFFFFFFFFFFFF AND SUB PUSH2 0x9C5 JUMPI PUSH1 0x0 SWAP2 POP POP PUSH2 0xAAF JUMP JUMPDEST DUP1 DUP1 PUSH2 0x9D0 SWAP1 PUSH2 0x30B6 JUMP JUMPDEST SWAP2 POP POP PUSH2 0x870 JUMP JUMPDEST POP PUSH1 0x1 PUSH1 0x40 MLOAD DUP1 PUSH1 0x60 ADD PUSH1 0x40 MSTORE DUP1 DUP6 DUP2 MSTORE PUSH1 0x20 ADD CALLER PUSH20 0xFFFFFFFFFFFFFFFFFFFFFFFFFFFFFFFFFFFFFFFF AND DUP2 MSTORE PUSH1 0x20 ADD DUP5 DUP2 MSTORE POP SWAP1 DUP1 PUSH1 0x1 DUP2 SLOAD ADD DUP1 DUP3 SSTORE DUP1 SWAP2 POP POP PUSH1 0x1 SWAP1 SUB SWAP1 PUSH1 0x0 MSTORE PUSH1 0x20 PUSH1 0x0 KECCAK256 SWAP1 PUSH1 0x3 MUL ADD PUSH1 0x0 SWAP1 SWAP2 SWAP1 SWAP2 SWAP1 SWAP2 POP PUSH1 0x0 DUP3 ADD MLOAD DUP2 PUSH1 0x0 ADD SWAP1 DUP2 PUSH2 0xA4A SWAP2 SWAP1 PUSH2 0x32AA JUMP JUMPDEST POP PUSH1 0x20 DUP3 ADD MLOAD DUP2 PUSH1 0x1 ADD PUSH1 0x0 PUSH2 0x100 EXP DUP2 SLOAD DUP2 PUSH20 0xFFFFFFFFFFFFFFFFFFFFFFFFFFFFFFFFFFFFFFFF MUL NOT AND SWAP1 DUP4 PUSH20 0xFFFFFFFFFFFFFFFFFFFFFFFFFFFFFFFFFFFFFFFF AND MUL OR SWAP1 SSTORE POP PUSH1 0x40 DUP3 ADD MLOAD DUP2 PUSH1 0x2 ADD SWAP1 DUP2 PUSH2 0xAA7 SWAP2 SWAP1 PUSH2 0x32AA JUMP JUMPDEST POP POP POP PUSH1 0x1 SWAP1 POP JUMPDEST SWAP3 SWAP2 POP POP JUMP JUMPDEST PUSH2 0xABD PUSH2 0x2445 JUMP JUMPDEST PUSH1 0x0 PUSH2 0xAC8 CALLER PUSH2 0x2049 JUMP JUMPDEST SWAP1 POP DUP1 SWAP2 POP POP SWAP1 JUMP JUMPDEST PUSH1 0x60 PUSH1 0x0 PUSH2 0xADE CALLER PUSH2 0x22AE JUMP JUMPDEST SWAP1 POP PUSH1 0x0 DUP1 DUP3 PUSH8 0xFFFFFFFFFFFFFFFF DUP2 GT ISZERO PUSH2 0xAFD JUMPI PUSH2 0xAFC PUSH2 0x2810 JUMP JUMPDEST JUMPDEST PUSH1 0x40 MLOAD SWAP1 DUP1 DUP3 MSTORE DUP1 PUSH1 0x20 MUL PUSH1 0x20 ADD DUP3 ADD PUSH1 0x40 MSTORE DUP1 ISZERO PUSH2 0xB36 JUMPI DUP2 PUSH1 0x20 ADD JUMPDEST PUSH2 0xB23 PUSH2 0x247C JUMP JUMPDEST DUP2 MSTORE PUSH1 0x20 ADD SWAP1 PUSH1 0x1 SWAP1 SUB SWAP1 DUP2 PUSH2 0xB1B JUMPI SWAP1 POP JUMPDEST POP SWAP1 POP PUSH1 0x0 JUMPDEST PUSH1 0x0 DUP1 SLOAD SWAP1 POP DUP2 LT ISZERO PUSH2 0xEFC JUMPI CALLER PUSH20 0xFFFFFFFFFFFFFFFFFFFFFFFFFFFFFFFFFFFFFFFF AND PUSH1 0x0 DUP3 DUP2 SLOAD DUP2 LT PUSH2 0xB74 JUMPI PUSH2 0xB73 PUSH2 0x3058 JUMP JUMPDEST JUMPDEST SWAP1 PUSH1 0x0 MSTORE PUSH1 0x20 PUSH1 0x0 KECCAK256 SWAP1 PUSH1 0x8 MUL ADD PUSH1 0x1 ADD PUSH1 0x0 SWAP1 SLOAD SWAP1 PUSH2 0x100 EXP SWAP1 DIV PUSH20 0xFFFFFFFFFFFFFFFFFFFFFFFFFFFFFFFFFFFFFFFF AND PUSH20 0xFFFFFFFFFFFFFFFFFFFFFFFFFFFFFFFFFFFFFFFF AND SUB PUSH2 0xEE9 JUMPI PUSH1 0x0 DUP2 DUP2 SLOAD DUP2 LT PUSH2 0xBD5 JUMPI PUSH2 0xBD4 PUSH2 0x3058 JUMP JUMPDEST JUMPDEST SWAP1 PUSH1 0x0 MSTORE PUSH1 0x20 PUSH1 0x0 KECCAK256 SWAP1 PUSH1 0x8 MUL ADD PUSH1 0x40 MLOAD DUP1 PUSH2 0x100 ADD PUSH1 0x40 MSTORE SWAP1 DUP2 PUSH1 0x0 DUP3 ADD SLOAD DUP2 MSTORE PUSH1 0x20 ADD PUSH1 0x1 DUP3 ADD PUSH1 0x0 SWAP1 SLOAD SWAP1 PUSH2 0x100 EXP SWAP1 DIV PUSH20 0xFFFFFFFFFFFFFFFFFFFFFFFFFFFFFFFFFFFFFFFF AND PUSH20 0xFFFFFFFFFFFFFFFFFFFFFFFFFFFFFFFFFFFFFFFF AND PUSH20 0xFFFFFFFFFFFFFFFFFFFFFFFFFFFFFFFFFFFFFFFF AND DUP2 MSTORE PUSH1 0x20 ADD PUSH1 0x2 DUP3 ADD DUP1 SLOAD PUSH2 0xC5F SWAP1 PUSH2 0x3027 JUMP JUMPDEST DUP1 PUSH1 0x1F ADD PUSH1 0x20 DUP1 SWAP2 DIV MUL PUSH1 0x20 ADD PUSH1 0x40 MLOAD SWAP1 DUP2 ADD PUSH1 0x40 MSTORE DUP1 SWAP3 SWAP2 SWAP1 DUP2 DUP2 MSTORE PUSH1 0x20 ADD DUP3 DUP1 SLOAD PUSH2 0xC8B SWAP1 PUSH2 0x3027 JUMP JUMPDEST DUP1 ISZERO PUSH2 0xCD8 JUMPI DUP1 PUSH1 0x1F LT PUSH2 0xCAD JUMPI PUSH2 0x100 DUP1 DUP4 SLOAD DIV MUL DUP4 MSTORE SWAP2 PUSH1 0x20 ADD SWAP2 PUSH2 0xCD8 JUMP JUMPDEST DUP3 ADD SWAP2 SWAP1 PUSH1 0x0 MSTORE PUSH1 0x20 PUSH1 0x0 KECCAK256 SWAP1 JUMPDEST DUP2 SLOAD DUP2 MSTORE SWAP1 PUSH1 0x1 ADD SWAP1 PUSH1 0x20 ADD DUP1 DUP4 GT PUSH2 0xCBB JUMPI DUP3 SWAP1 SUB PUSH1 0x1F AND DUP3 ADD SWAP2 JUMPDEST POP POP POP POP POP DUP2 MSTORE PUSH1 0x20 ADD PUSH1 0x3 DUP3 ADD DUP1 SLOAD PUSH2 0xCF1 SWAP1 PUSH2 0x3027 JUMP JUMPDEST DUP1 PUSH1 0x1F ADD PUSH1 0x20 DUP1 SWAP2 DIV MUL PUSH1 0x20 ADD PUSH1 0x40 MLOAD SWAP1 DUP2 ADD PUSH1 0x40 MSTORE DUP1 SWAP3 SWAP2 SWAP1 DUP2 DUP2 MSTORE PUSH1 0x20 ADD DUP3 DUP1 SLOAD PUSH2 0xD1D SWAP1 PUSH2 0x3027 JUMP JUMPDEST DUP1 ISZERO PUSH2 0xD6A JUMPI DUP1 PUSH1 0x1F LT PUSH2 0xD3F JUMPI PUSH2 0x100 DUP1 DUP4 SLOAD DIV MUL DUP4 MSTORE SWAP2 PUSH1 0x20 ADD SWAP2 PUSH2 0xD6A JUMP JUMPDEST DUP3 ADD SWAP2 SWAP1 PUSH1 0x0 MSTORE PUSH1 0x20 PUSH1 0x0 KECCAK256 SWAP1 JUMPDEST DUP2 SLOAD DUP2 MSTORE SWAP1 PUSH1 0x1 ADD SWAP1 PUSH1 0x20 ADD DUP1 DUP4 GT PUSH2 0xD4D JUMPI DUP3 SWAP1 SUB PUSH1 0x1F AND DUP3 ADD SWAP2 JUMPDEST POP POP POP POP POP DUP2 MSTORE PUSH1 0x20 ADD PUSH1 0x4 DUP3 ADD SLOAD DUP2 MSTORE PUSH1 0x20 ADD PUSH1 0x5 DUP3 ADD DUP1 SLOAD PUSH2 0xD8D SWAP1 PUSH2 0x3027 JUMP JUMPDEST DUP1 PUSH1 0x1F ADD PUSH1 0x20 DUP1 SWAP2 DIV MUL PUSH1 0x20 ADD PUSH1 0x40 MLOAD SWAP1 DUP2 ADD PUSH1 0x40 MSTORE DUP1 SWAP3 SWAP2 SWAP1 DUP2 DUP2 MSTORE PUSH1 0x20 ADD DUP3 DUP1 SLOAD PUSH2 0xDB9 SWAP1 PUSH2 0x3027 JUMP JUMPDEST DUP1 ISZERO PUSH2 0xE06 JUMPI DUP1 PUSH1 0x1F LT PUSH2 0xDDB JUMPI PUSH2 0x100 DUP1 DUP4 SLOAD DIV MUL DUP4 MSTORE SWAP2 PUSH1 0x20 ADD SWAP2 PUSH2 0xE06 JUMP JUMPDEST DUP3 ADD SWAP2 SWAP1 PUSH1 0x0 MSTORE PUSH1 0x20 PUSH1 0x0 KECCAK256 SWAP1 JUMPDEST DUP2 SLOAD DUP2 MSTORE SWAP1 PUSH1 0x1 ADD SWAP1 PUSH1 0x20 ADD DUP1 DUP4 GT PUSH2 0xDE9 JUMPI DUP3 SWAP1 SUB PUSH1 0x1F AND DUP3 ADD SWAP2 JUMPDEST POP POP POP POP POP DUP2 MSTORE PUSH1 0x20 ADD PUSH1 0x6 DUP3 ADD PUSH1 0x0 SWAP1 SLOAD SWAP1 PUSH2 0x100 EXP SWAP1 DIV PUSH1 0xFF AND ISZERO ISZERO ISZERO ISZERO DUP2 MSTORE PUSH1 0x20 ADD PUSH1 0x7 DUP3 ADD DUP1 SLOAD PUSH2 0xE3A SWAP1 PUSH2 0x3027 JUMP JUMPDEST DUP1 PUSH1 0x1F ADD PUSH1 0x20 DUP1 SWAP2 DIV MUL PUSH1 0x20 ADD PUSH1 0x40 MLOAD SWAP1 DUP2 ADD PUSH1 0x40 MSTORE DUP1 SWAP3 SWAP2 SWAP1 DUP2 DUP2 MSTORE PUSH1 0x20 ADD DUP3 DUP1 SLOAD PUSH2 0xE66 SWAP1 PUSH2 0x3027 JUMP JUMPDEST DUP1 ISZERO PUSH2 0xEB3 JUMPI DUP1 PUSH1 0x1F LT PUSH2 0xE88 JUMPI PUSH2 0x100 DUP1 DUP4 SLOAD DIV MUL DUP4 MSTORE SWAP2 PUSH1 0x20 ADD SWAP2 PUSH2 0xEB3 JUMP JUMPDEST DUP3 ADD SWAP2 SWAP1 PUSH1 0x0 MSTORE PUSH1 0x20 PUSH1 0x0 KECCAK256 SWAP1 JUMPDEST DUP2 SLOAD DUP2 MSTORE SWAP1 PUSH1 0x1 ADD SWAP1 PUSH1 0x20 ADD DUP1 DUP4 GT PUSH2 0xE96 JUMPI DUP3 SWAP1 SUB PUSH1 0x1F AND DUP3 ADD SWAP2 JUMPDEST POP POP POP POP POP DUP2 MSTORE POP POP DUP3 DUP5 DUP2 MLOAD DUP2 LT PUSH2 0xECF JUMPI PUSH2 0xECE PUSH2 0x3058 JUMP JUMPDEST JUMPDEST PUSH1 0x20 MUL PUSH1 0x20 ADD ADD DUP2 SWAP1 MSTORE POP DUP3 DUP1 PUSH2 0xEE5 SWAP1 PUSH2 0x30B6 JUMP JUMPDEST SWAP4 POP POP JUMPDEST DUP1 DUP1 PUSH2 0xEF4 SWAP1 PUSH2 0x30B6 JUMP JUMPDEST SWAP2 POP POP PUSH2 0xB3C JUMP JUMPDEST POP DUP1 SWAP4 POP POP POP POP SWAP1 JUMP JUMPDEST PUSH1 0x0 PUSH1 0x40 MLOAD DUP1 PUSH2 0x100 ADD PUSH1 0x40 MSTORE DUP1 PUSH2 0xF1E PUSH1 0x3 PUSH2 0x2369 JUMP JUMPDEST DUP2 MSTORE PUSH1 0x20 ADD CALLER PUSH20 0xFFFFFFFFFFFFFFFFFFFFFFFFFFFFFFFFFFFFFFFF AND DUP2 MSTORE PUSH1 0x20 ADD DUP8 DUP2 MSTORE PUSH1 0x20 ADD DUP7 DUP2 MSTORE PUSH1 0x20 ADD DUP6 DUP2 MSTORE PUSH1 0x20 ADD DUP5 DUP2 MSTORE PUSH1 0x20 ADD PUSH1 0x0 ISZERO ISZERO DUP2 MSTORE PUSH1 0x20 ADD DUP4 DUP2 MSTORE POP SWAP1 DUP1 PUSH1 0x1 DUP2 SLOAD ADD DUP1 DUP3 SSTORE DUP1 SWAP2 POP POP PUSH1 0x1 SWAP1 SUB SWAP1 PUSH1 0x0 MSTORE PUSH1 0x20 PUSH1 0x0 KECCAK256 SWAP1 PUSH1 0x8 MUL ADD PUSH1 0x0 SWAP1 SWAP2 SWAP1 SWAP2 SWAP1 SWAP2 POP PUSH1 0x0 DUP3 ADD MLOAD DUP2 PUSH1 0x0 ADD SSTORE PUSH1 0x20 DUP3 ADD MLOAD DUP2 PUSH1 0x1 ADD PUSH1 0x0 PUSH2 0x100 EXP DUP2 SLOAD DUP2 PUSH20 0xFFFFFFFFFFFFFFFFFFFFFFFFFFFFFFFFFFFFFFFF MUL NOT AND SWAP1 DUP4 PUSH20 0xFFFFFFFFFFFFFFFFFFFFFFFFFFFFFFFFFFFFFFFF AND MUL OR SWAP1 SSTORE POP PUSH1 0x40 DUP3 ADD MLOAD DUP2 PUSH1 0x2 ADD SWAP1 DUP2 PUSH2 0xFF3 SWAP2 SWAP1 PUSH2 0x32AA JUMP JUMPDEST POP PUSH1 0x60 DUP3 ADD MLOAD DUP2 PUSH1 0x3 ADD SWAP1 DUP2 PUSH2 0x1009 SWAP2 SWAP1 PUSH2 0x32AA JUMP JUMPDEST POP PUSH1 0x80 DUP3 ADD MLOAD DUP2 PUSH1 0x4 ADD SSTORE PUSH1 0xA0 DUP3 ADD MLOAD DUP2 PUSH1 0x5 ADD SWAP1 DUP2 PUSH2 0x1029 SWAP2 SWAP1 PUSH2 0x32AA JUMP JUMPDEST POP PUSH1 0xC0 DUP3 ADD MLOAD DUP2 PUSH1 0x6 ADD PUSH1 0x0 PUSH2 0x100 EXP DUP2 SLOAD DUP2 PUSH1 0xFF MUL NOT AND SWAP1 DUP4 ISZERO ISZERO MUL OR SWAP1 SSTORE POP PUSH1 0xE0 DUP3 ADD MLOAD DUP2 PUSH1 0x7 ADD SWAP1 DUP2 PUSH2 0x105F SWAP2 SWAP1 PUSH2 0x32AA JUMP JUMPDEST POP POP POP PUSH2 0x106C PUSH1 0x3 PUSH2 0x2377 JUMP JUMPDEST POP POP POP POP POP JUMP JUMPDEST PUSH1 0x0 DUP2 DUP2 SLOAD DUP2 LT PUSH2 0x1083 JUMPI PUSH1 0x0 DUP1 REVERT JUMPDEST SWAP1 PUSH1 0x0 MSTORE PUSH1 0x20 PUSH1 0x0 KECCAK256 SWAP1 PUSH1 0x8 MUL ADD PUSH1 0x0 SWAP2 POP SWAP1 POP DUP1 PUSH1 0x0 ADD SLOAD SWAP1 DUP1 PUSH1 0x1 ADD PUSH1 0x0 SWAP1 SLOAD SWAP1 PUSH2 0x100 EXP SWAP1 DIV PUSH20 0xFFFFFFFFFFFFFFFFFFFFFFFFFFFFFFFFFFFFFFFF AND SWAP1 DUP1 PUSH1 0x2 ADD DUP1 SLOAD PUSH2 0x10D2 SWAP1 PUSH2 0x3027 JUMP JUMPDEST DUP1 PUSH1 0x1F ADD PUSH1 0x20 DUP1 SWAP2 DIV MUL PUSH1 0x20 ADD PUSH1 0x40 MLOAD SWAP1 DUP2 ADD PUSH1 0x40 MSTORE DUP1 SWAP3 SWAP2 SWAP1 DUP2 DUP2 MSTORE PUSH1 0x20 ADD DUP3 DUP1 SLOAD PUSH2 0x10FE SWAP1 PUSH2 0x3027 JUMP JUMPDEST DUP1 ISZERO PUSH2 0x114B JUMPI DUP1 PUSH1 0x1F LT PUSH2 0x1120 JUMPI PUSH2 0x100 DUP1 DUP4 SLOAD DIV MUL DUP4 MSTORE SWAP2 PUSH1 0x20 ADD SWAP2 PUSH2 0x114B JUMP JUMPDEST DUP3 ADD SWAP2 SWAP1 PUSH1 0x0 MSTORE PUSH1 0x20 PUSH1 0x0 KECCAK256 SWAP1 JUMPDEST DUP2 SLOAD DUP2 MSTORE SWAP1 PUSH1 0x1 ADD SWAP1 PUSH1 0x20 ADD DUP1 DUP4 GT PUSH2 0x112E JUMPI DUP3 SWAP1 SUB PUSH1 0x1F AND DUP3 ADD SWAP2 JUMPDEST POP POP POP POP POP SWAP1 DUP1 PUSH1 0x3 ADD DUP1 SLOAD PUSH2 0x1160 SWAP1 PUSH2 0x3027 JUMP JUMPDEST DUP1 PUSH1 0x1F ADD PUSH1 0x20 DUP1 SWAP2 DIV MUL PUSH1 0x20 ADD PUSH1 0x40 MLOAD SWAP1 DUP2 ADD PUSH1 0x40 MSTORE DUP1 SWAP3 SWAP2 SWAP1 DUP2 DUP2 MSTORE PUSH1 0x20 ADD DUP3 DUP1 SLOAD PUSH2 0x118C SWAP1 PUSH2 0x3027 JUMP JUMPDEST DUP1 ISZERO PUSH2 0x11D9 JUMPI DUP1 PUSH1 0x1F LT PUSH2 0x11AE JUMPI PUSH2 0x100 DUP1 DUP4 SLOAD DIV MUL DUP4 MSTORE SWAP2 PUSH1 0x20 ADD SWAP2 PUSH2 0x11D9 JUMP JUMPDEST DUP3 ADD SWAP2 SWAP1 PUSH1 0x0 MSTORE PUSH1 0x20 PUSH1 0x0 KECCAK256 SWAP1 JUMPDEST DUP2 SLOAD DUP2 MSTORE SWAP1 PUSH1 0x1 ADD SWAP1 PUSH1 0x20 ADD DUP1 DUP4 GT PUSH2 0x11BC JUMPI DUP3 SWAP1 SUB PUSH1 0x1F AND DUP3 ADD SWAP2 JUMPDEST POP POP POP POP POP SWAP1 DUP1 PUSH1 0x4 ADD SLOAD SWAP1 DUP1 PUSH1 0x5 ADD DUP1 SLOAD PUSH2 0x11F4 SWAP1 PUSH2 0x3027 JUMP JUMPDEST DUP1 PUSH1 0x1F ADD PUSH1 0x20 DUP1 SWAP2 DIV MUL PUSH1 0x20 ADD PUSH1 0x40 MLOAD SWAP1 DUP2 ADD PUSH1 0x40 MSTORE DUP1 SWAP3 SWAP2 SWAP1 DUP2 DUP2 MSTORE PUSH1 0x20 ADD DUP3 DUP1 SLOAD PUSH2 0x1220 SWAP1 PUSH2 0x3027 JUMP JUMPDEST DUP1 ISZERO PUSH2 0x126D JUMPI DUP1 PUSH1 0x1F LT PUSH2 0x1242 JUMPI PUSH2 0x100 DUP1 DUP4 SLOAD DIV MUL DUP4 MSTORE SWAP2 PUSH1 0x20 ADD SWAP2 PUSH2 0x126D JUMP JUMPDEST DUP3 ADD SWAP2 SWAP1 PUSH1 0x0 MSTORE PUSH1 0x20 PUSH1 0x0 KECCAK256 SWAP1 JUMPDEST DUP2 SLOAD DUP2 MSTORE SWAP1 PUSH1 0x1 ADD SWAP1 PUSH1 0x20 ADD DUP1 DUP4 GT PUSH2 0x1250 JUMPI DUP3 SWAP1 SUB PUSH1 0x1F AND DUP3 ADD SWAP2 JUMPDEST POP POP POP POP POP SWAP1 DUP1 PUSH1 0x6 ADD PUSH1 0x0 SWAP1 SLOAD SWAP1 PUSH2 0x100 EXP SWAP1 DIV PUSH1 0xFF AND SWAP1 DUP1 PUSH1 0x7 ADD DUP1 SLOAD PUSH2 0x1295 SWAP1 PUSH2 0x3027 JUMP JUMPDEST DUP1 PUSH1 0x1F ADD PUSH1 0x20 DUP1 SWAP2 DIV MUL PUSH1 0x20 ADD PUSH1 0x40 MLOAD SWAP1 DUP2 ADD PUSH1 0x40 MSTORE DUP1 SWAP3 SWAP2 SWAP1 DUP2 DUP2 MSTORE PUSH1 0x20 ADD DUP3 DUP1 SLOAD PUSH2 0x12C1 SWAP1 PUSH2 0x3027 JUMP JUMPDEST DUP1 ISZERO PUSH2 0x130E JUMPI DUP1 PUSH1 0x1F LT PUSH2 0x12E3 JUMPI PUSH2 0x100 DUP1 DUP4 SLOAD DIV MUL DUP4 MSTORE SWAP2 PUSH1 0x20 ADD SWAP2 PUSH2 0x130E JUMP JUMPDEST DUP3 ADD SWAP2 SWAP1 PUSH1 0x0 MSTORE PUSH1 0x20 PUSH1 0x0 KECCAK256 SWAP1 JUMPDEST DUP2 SLOAD DUP2 MSTORE SWAP1 PUSH1 0x1 ADD SWAP1 PUSH1 0x20 ADD DUP1 DUP4 GT PUSH2 0x12F1 JUMPI DUP3 SWAP1 SUB PUSH1 0x1F AND DUP3 ADD SWAP2 JUMPDEST POP POP POP POP POP SWAP1 POP DUP9 JUMP JUMPDEST PUSH1 0x1 DUP2 DUP2 SLOAD DUP2 LT PUSH2 0x1328 JUMPI PUSH1 0x0 DUP1 REVERT JUMPDEST SWAP1 PUSH1 0x0 MSTORE PUSH1 0x20 PUSH1 0x0 KECCAK256 SWAP1 PUSH1 0x3 MUL ADD PUSH1 0x0 SWAP2 POP SWAP1 POP DUP1 PUSH1 0x0 ADD DUP1 SLOAD PUSH2 0x134B SWAP1 PUSH2 0x3027 JUMP JUMPDEST DUP1 PUSH1 0x1F ADD PUSH1 0x20 DUP1 SWAP2 DIV MUL PUSH1 0x20 ADD PUSH1 0x40 MLOAD SWAP1 DUP2 ADD PUSH1 0x40 MSTORE DUP1 SWAP3 SWAP2 SWAP1 DUP2 DUP2 MSTORE PUSH1 0x20 ADD DUP3 DUP1 SLOAD PUSH2 0x1377 SWAP1 PUSH2 0x3027 JUMP JUMPDEST DUP1 ISZERO PUSH2 0x13C4 JUMPI DUP1 PUSH1 0x1F LT PUSH2 0x1399 JUMPI PUSH2 0x100 DUP1 DUP4 SLOAD DIV MUL DUP4 MSTORE SWAP2 PUSH1 0x20 ADD SWAP2 PUSH2 0x13C4 JUMP JUMPDEST DUP3 ADD SWAP2 SWAP1 PUSH1 0x0 MSTORE PUSH1 0x20 PUSH1 0x0 KECCAK256 SWAP1 JUMPDEST DUP2 SLOAD DUP2 MSTORE SWAP1 PUSH1 0x1 ADD SWAP1 PUSH1 0x20 ADD DUP1 DUP4 GT PUSH2 0x13A7 JUMPI DUP3 SWAP1 SUB PUSH1 0x1F AND DUP3 ADD SWAP2 JUMPDEST POP POP POP POP POP SWAP1 DUP1 PUSH1 0x1 ADD PUSH1 0x0 SWAP1 SLOAD SWAP1 PUSH2 0x100 EXP SWAP1 DIV PUSH20 0xFFFFFFFFFFFFFFFFFFFFFFFFFFFFFFFFFFFFFFFF AND SWAP1 DUP1 PUSH1 0x2 ADD DUP1 SLOAD PUSH2 0x13FF SWAP1 PUSH2 0x3027 JUMP JUMPDEST DUP1 PUSH1 0x1F ADD PUSH1 0x20 DUP1 SWAP2 DIV MUL PUSH1 0x20 ADD PUSH1 0x40 MLOAD SWAP1 DUP2 ADD PUSH1 0x40 MSTORE DUP1 SWAP3 SWAP2 SWAP1 DUP2 DUP2 MSTORE PUSH1 0x20 ADD DUP3 DUP1 SLOAD PUSH2 0x142B SWAP1 PUSH2 0x3027 JUMP JUMPDEST DUP1 ISZERO PUSH2 0x1478 JUMPI DUP1 PUSH1 0x1F LT PUSH2 0x144D JUMPI PUSH2 0x100 DUP1 DUP4 SLOAD DIV MUL DUP4 MSTORE SWAP2 PUSH1 0x20 ADD SWAP2 PUSH2 0x1478 JUMP JUMPDEST DUP3 ADD SWAP2 SWAP1 PUSH1 0x0 MSTORE PUSH1 0x20 PUSH1 0x0 KECCAK256 SWAP1 JUMPDEST DUP2 SLOAD DUP2 MSTORE SWAP1 PUSH1 0x1 ADD SWAP1 PUSH1 0x20 ADD DUP1 DUP4 GT PUSH2 0x145B JUMPI DUP3 SWAP1 SUB PUSH1 0x1F AND DUP3 ADD SWAP2 JUMPDEST POP POP POP POP POP SWAP1 POP DUP4 JUMP JUMPDEST PUSH1 0x0 SELFBALANCE SWAP1 POP SWAP1 JUMP JUMPDEST PUSH1 0x2 DUP2 DUP2 SLOAD DUP2 LT PUSH2 0x149A JUMPI PUSH1 0x0 DUP1 REVERT JUMPDEST SWAP1 PUSH1 0x0 MSTORE PUSH1 0x20 PUSH1 0x0 KECCAK256 SWAP1 PUSH1 0x5 MUL ADD PUSH1 0x0 SWAP2 POP SWAP1 POP DUP1 PUSH1 0x0 ADD PUSH1 0x0 SWAP1 SLOAD SWAP1 PUSH2 0x100 EXP SWAP1 DIV PUSH20 0xFFFFFFFFFFFFFFFFFFFFFFFFFFFFFFFFFFFFFFFF AND SWAP1 DUP1 PUSH1 0x1 ADD PUSH1 0x0 SWAP1 SLOAD SWAP1 PUSH2 0x100 EXP SWAP1 DIV PUSH20 0xFFFFFFFFFFFFFFFFFFFFFFFFFFFFFFFFFFFFFFFF AND SWAP1 DUP1 PUSH1 0x2 ADD SLOAD SWAP1 DUP1 PUSH1 0x3 ADD SLOAD SWAP1 DUP1 PUSH1 0x4 ADD PUSH1 0x0 SWAP1 SLOAD SWAP1 PUSH2 0x100 EXP SWAP1 DIV PUSH1 0xFF AND SWAP1 POP DUP6 JUMP JUMPDEST PUSH1 0x0 DUP1 PUSH1 0x0 JUMPDEST PUSH1 0x2 DUP1 SLOAD SWAP1 POP DUP2 LT ISZERO PUSH2 0x1632 JUMPI CALLER PUSH20 0xFFFFFFFFFFFFFFFFFFFFFFFFFFFFFFFFFFFFFFFF AND PUSH1 0x2 DUP3 DUP2 SLOAD DUP2 LT PUSH2 0x155B JUMPI PUSH2 0x155A PUSH2 0x3058 JUMP JUMPDEST JUMPDEST SWAP1 PUSH1 0x0 MSTORE PUSH1 0x20 PUSH1 0x0 KECCAK256 SWAP1 PUSH1 0x5 MUL ADD PUSH1 0x1 ADD PUSH1 0x0 SWAP1 SLOAD SWAP1 PUSH2 0x100 EXP SWAP1 DIV PUSH20 0xFFFFFFFFFFFFFFFFFFFFFFFFFFFFFFFFFFFFFFFF AND PUSH20 0xFFFFFFFFFFFFFFFFFFFFFFFFFFFFFFFFFFFFFFFF AND EQ DUP1 ISZERO PUSH2 0x15E6 JUMPI POP PUSH1 0x0 ISZERO ISZERO PUSH1 0x2 DUP3 DUP2 SLOAD DUP2 LT PUSH2 0x15C3 JUMPI PUSH2 0x15C2 PUSH2 0x3058 JUMP JUMPDEST JUMPDEST SWAP1 PUSH1 0x0 MSTORE PUSH1 0x20 PUSH1 0x0 KECCAK256 SWAP1 PUSH1 0x5 MUL ADD PUSH1 0x4 ADD PUSH1 0x0 SWAP1 SLOAD SWAP1 PUSH2 0x100 EXP SWAP1 DIV PUSH1 0xFF AND ISZERO ISZERO EQ JUMPDEST ISZERO PUSH2 0x161F JUMPI PUSH1 0x2 DUP2 DUP2 SLOAD DUP2 LT PUSH2 0x15FF JUMPI PUSH2 0x15FE PUSH2 0x3058 JUMP JUMPDEST JUMPDEST SWAP1 PUSH1 0x0 MSTORE PUSH1 0x20 PUSH1 0x0 KECCAK256 SWAP1 PUSH1 0x5 MUL ADD PUSH1 0x3 ADD SLOAD DUP3 PUSH2 0x161C SWAP2 SWAP1 PUSH2 0x337C JUMP JUMPDEST SWAP2 POP JUMPDEST DUP1 DUP1 PUSH2 0x162A SWAP1 PUSH2 0x30B6 JUMP JUMPDEST SWAP2 POP POP PUSH2 0x1523 JUMP JUMPDEST POP DUP1 SWAP2 POP POP SWAP1 JUMP JUMPDEST PUSH1 0x60 DUP1 PUSH1 0x0 DUP1 JUMPDEST PUSH1 0x2 DUP1 SLOAD SWAP1 POP DUP2 LT ISZERO PUSH2 0x180E JUMPI CALLER PUSH20 0xFFFFFFFFFFFFFFFFFFFFFFFFFFFFFFFFFFFFFFFF AND PUSH1 0x2 DUP3 DUP2 SLOAD DUP2 LT PUSH2 0x1679 JUMPI PUSH2 0x1678 PUSH2 0x3058 JUMP JUMPDEST JUMPDEST SWAP1 PUSH1 0x0 MSTORE PUSH1 0x20 PUSH1 0x0 KECCAK256 SWAP1 PUSH1 0x5 MUL ADD PUSH1 0x1 ADD PUSH1 0x0 SWAP1 SLOAD SWAP1 PUSH2 0x100 EXP SWAP1 DIV PUSH20 0xFFFFFFFFFFFFFFFFFFFFFFFFFFFFFFFFFFFFFFFF AND PUSH20 0xFFFFFFFFFFFFFFFFFFFFFFFFFFFFFFFFFFFFFFFF AND SUB PUSH2 0x17FB JUMPI PUSH1 0x2 DUP2 DUP2 SLOAD DUP2 LT PUSH2 0x16DA JUMPI PUSH2 0x16D9 PUSH2 0x3058 JUMP JUMPDEST JUMPDEST SWAP1 PUSH1 0x0 MSTORE PUSH1 0x20 PUSH1 0x0 KECCAK256 SWAP1 PUSH1 0x5 MUL ADD PUSH1 0x40 MLOAD DUP1 PUSH1 0xA0 ADD PUSH1 0x40 MSTORE SWAP1 DUP2 PUSH1 0x0 DUP3 ADD PUSH1 0x0 SWAP1 SLOAD SWAP1 PUSH2 0x100 EXP SWAP1 DIV PUSH20 0xFFFFFFFFFFFFFFFFFFFFFFFFFFFFFFFFFFFFFFFF AND PUSH20 0xFFFFFFFFFFFFFFFFFFFFFFFFFFFFFFFFFFFFFFFF AND PUSH20 0xFFFFFFFFFFFFFFFFFFFFFFFFFFFFFFFFFFFFFFFF AND DUP2 MSTORE PUSH1 0x20 ADD PUSH1 0x1 DUP3 ADD PUSH1 0x0 SWAP1 SLOAD SWAP1 PUSH2 0x100 EXP SWAP1 DIV PUSH20 0xFFFFFFFFFFFFFFFFFFFFFFFFFFFFFFFFFFFFFFFF AND PUSH20 0xFFFFFFFFFFFFFFFFFFFFFFFFFFFFFFFFFFFFFFFF AND PUSH20 0xFFFFFFFFFFFFFFFFFFFFFFFFFFFFFFFFFFFFFFFF AND DUP2 MSTORE PUSH1 0x20 ADD PUSH1 0x2 DUP3 ADD SLOAD DUP2 MSTORE PUSH1 0x20 ADD PUSH1 0x3 DUP3 ADD SLOAD DUP2 MSTORE PUSH1 0x20 ADD PUSH1 0x4 DUP3 ADD PUSH1 0x0 SWAP1 SLOAD SWAP1 PUSH2 0x100 EXP SWAP1 DIV PUSH1 0xFF AND ISZERO ISZERO ISZERO ISZERO DUP2 MSTORE POP POP DUP4 DUP3 DUP2 MLOAD DUP2 LT PUSH2 0x17E1 JUMPI PUSH2 0x17E0 PUSH2 0x3058 JUMP JUMPDEST JUMPDEST PUSH1 0x20 MUL PUSH1 0x20 ADD ADD DUP2 SWAP1 MSTORE POP DUP2 DUP1 PUSH2 0x17F7 SWAP1 PUSH2 0x30B6 JUMP JUMPDEST SWAP3 POP POP JUMPDEST DUP1 DUP1 PUSH2 0x1806 SWAP1 PUSH2 0x30B6 JUMP JUMPDEST SWAP2 POP POP PUSH2 0x1641 JUMP JUMPDEST POP DUP2 SWAP3 POP POP POP SWAP1 JUMP JUMPDEST PUSH2 0x181F PUSH2 0x247C JUMP JUMPDEST PUSH2 0x1827 PUSH2 0x247C JUMP JUMPDEST PUSH1 0x0 JUMPDEST PUSH1 0x0 DUP1 SLOAD SWAP1 POP DUP2 LT ISZERO PUSH2 0x1B74 JUMPI DUP4 PUSH1 0x0 DUP3 DUP2 SLOAD DUP2 LT PUSH2 0x184C JUMPI PUSH2 0x184B PUSH2 0x3058 JUMP JUMPDEST JUMPDEST SWAP1 PUSH1 0x0 MSTORE PUSH1 0x20 PUSH1 0x0 KECCAK256 SWAP1 PUSH1 0x8 MUL ADD PUSH1 0x0 ADD SLOAD SUB PUSH2 0x1B61 JUMPI PUSH1 0x0 DUP2 DUP2 SLOAD DUP2 LT PUSH2 0x1877 JUMPI PUSH2 0x1876 PUSH2 0x3058 JUMP JUMPDEST JUMPDEST SWAP1 PUSH1 0x0 MSTORE PUSH1 0x20 PUSH1 0x0 KECCAK256 SWAP1 PUSH1 0x8 MUL ADD PUSH1 0x40 MLOAD DUP1 PUSH2 0x100 ADD PUSH1 0x40 MSTORE SWAP1 DUP2 PUSH1 0x0 DUP3 ADD SLOAD DUP2 MSTORE PUSH1 0x20 ADD PUSH1 0x1 DUP3 ADD PUSH1 0x0 SWAP1 SLOAD SWAP1 PUSH2 0x100 EXP SWAP1 DIV PUSH20 0xFFFFFFFFFFFFFFFFFFFFFFFFFFFFFFFFFFFFFFFF AND PUSH20 0xFFFFFFFFFFFFFFFFFFFFFFFFFFFFFFFFFFFFFFFF AND PUSH20 0xFFFFFFFFFFFFFFFFFFFFFFFFFFFFFFFFFFFFFFFF AND DUP2 MSTORE PUSH1 0x20 ADD PUSH1 0x2 DUP3 ADD DUP1 SLOAD PUSH2 0x1901 SWAP1 PUSH2 0x3027 JUMP JUMPDEST DUP1 PUSH1 0x1F ADD PUSH1 0x20 DUP1 SWAP2 DIV MUL PUSH1 0x20 ADD PUSH1 0x40 MLOAD SWAP1 DUP2 ADD PUSH1 0x40 MSTORE DUP1 SWAP3 SWAP2 SWAP1 DUP2 DUP2 MSTORE PUSH1 0x20 ADD DUP3 DUP1 SLOAD PUSH2 0x192D SWAP1 PUSH2 0x3027 JUMP JUMPDEST DUP1 ISZERO PUSH2 0x197A JUMPI DUP1 PUSH1 0x1F LT PUSH2 0x194F JUMPI PUSH2 0x100 DUP1 DUP4 SLOAD DIV MUL DUP4 MSTORE SWAP2 PUSH1 0x20 ADD SWAP2 PUSH2 0x197A JUMP JUMPDEST DUP3 ADD SWAP2 SWAP1 PUSH1 0x0 MSTORE PUSH1 0x20 PUSH1 0x0 KECCAK256 SWAP1 JUMPDEST DUP2 SLOAD DUP2 MSTORE SWAP1 PUSH1 0x1 ADD SWAP1 PUSH1 0x20 ADD DUP1 DUP4 GT PUSH2 0x195D JUMPI DUP3 SWAP1 SUB PUSH1 0x1F AND DUP3 ADD SWAP2 JUMPDEST POP POP POP POP POP DUP2 MSTORE PUSH1 0x20 ADD PUSH1 0x3 DUP3 ADD DUP1 SLOAD PUSH2 0x1993 SWAP1 PUSH2 0x3027 JUMP JUMPDEST DUP1 PUSH1 0x1F ADD PUSH1 0x20 DUP1 SWAP2 DIV MUL PUSH1 0x20 ADD PUSH1 0x40 MLOAD SWAP1 DUP2 ADD PUSH1 0x40 MSTORE DUP1 SWAP3 SWAP2 SWAP1 DUP2 DUP2 MSTORE PUSH1 0x20 ADD DUP3 DUP1 SLOAD PUSH2 0x19BF SWAP1 PUSH2 0x3027 JUMP JUMPDEST DUP1 ISZERO PUSH2 0x1A0C JUMPI DUP1 PUSH1 0x1F LT PUSH2 0x19E1 JUMPI PUSH2 0x100 DUP1 DUP4 SLOAD DIV MUL DUP4 MSTORE SWAP2 PUSH1 0x20 ADD SWAP2 PUSH2 0x1A0C JUMP JUMPDEST DUP3 ADD SWAP2 SWAP1 PUSH1 0x0 MSTORE PUSH1 0x20 PUSH1 0x0 KECCAK256 SWAP1 JUMPDEST DUP2 SLOAD DUP2 MSTORE SWAP1 PUSH1 0x1 ADD SWAP1 PUSH1 0x20 ADD DUP1 DUP4 GT PUSH2 0x19EF JUMPI DUP3 SWAP1 SUB PUSH1 0x1F AND DUP3 ADD SWAP2 JUMPDEST POP POP POP POP POP DUP2 MSTORE PUSH1 0x20 ADD PUSH1 0x4 DUP3 ADD SLOAD DUP2 MSTORE PUSH1 0x20 ADD PUSH1 0x5 DUP3 ADD DUP1 SLOAD PUSH2 0x1A2F SWAP1 PUSH2 0x3027 JUMP JUMPDEST DUP1 PUSH1 0x1F ADD PUSH1 0x20 DUP1 SWAP2 DIV MUL PUSH1 0x20 ADD PUSH1 0x40 MLOAD SWAP1 DUP2 ADD PUSH1 0x40 MSTORE DUP1 SWAP3 SWAP2 SWAP1 DUP2 DUP2 MSTORE PUSH1 0x20 ADD DUP3 DUP1 SLOAD PUSH2 0x1A5B SWAP1 PUSH2 0x3027 JUMP JUMPDEST DUP1 ISZERO PUSH2 0x1AA8 JUMPI DUP1 PUSH1 0x1F LT PUSH2 0x1A7D JUMPI PUSH2 0x100 DUP1 DUP4 SLOAD DIV MUL DUP4 MSTORE SWAP2 PUSH1 0x20 ADD SWAP2 PUSH2 0x1AA8 JUMP JUMPDEST DUP3 ADD SWAP2 SWAP1 PUSH1 0x0 MSTORE PUSH1 0x20 PUSH1 0x0 KECCAK256 SWAP1 JUMPDEST DUP2 SLOAD DUP2 MSTORE SWAP1 PUSH1 0x1 ADD SWAP1 PUSH1 0x20 ADD DUP1 DUP4 GT PUSH2 0x1A8B JUMPI DUP3 SWAP1 SUB PUSH1 0x1F AND DUP3 ADD SWAP2 JUMPDEST POP POP POP POP POP DUP2 MSTORE PUSH1 0x20 ADD PUSH1 0x6 DUP3 ADD PUSH1 0x0 SWAP1 SLOAD SWAP1 PUSH2 0x100 EXP SWAP1 DIV PUSH1 0xFF AND ISZERO ISZERO ISZERO ISZERO DUP2 MSTORE PUSH1 0x20 ADD PUSH1 0x7 DUP3 ADD DUP1 SLOAD PUSH2 0x1ADC SWAP1 PUSH2 0x3027 JUMP JUMPDEST DUP1 PUSH1 0x1F ADD PUSH1 0x20 DUP1 SWAP2 DIV MUL PUSH1 0x20 ADD PUSH1 0x40 MLOAD SWAP1 DUP2 ADD PUSH1 0x40 MSTORE DUP1 SWAP3 SWAP2 SWAP1 DUP2 DUP2 MSTORE PUSH1 0x20 ADD DUP3 DUP1 SLOAD PUSH2 0x1B08 SWAP1 PUSH2 0x3027 JUMP JUMPDEST DUP1 ISZERO PUSH2 0x1B55 JUMPI DUP1 PUSH1 0x1F LT PUSH2 0x1B2A JUMPI PUSH2 0x100 DUP1 DUP4 SLOAD DIV MUL DUP4 MSTORE SWAP2 PUSH1 0x20 ADD SWAP2 PUSH2 0x1B55 JUMP JUMPDEST DUP3 ADD SWAP2 SWAP1 PUSH1 0x0 MSTORE PUSH1 0x20 PUSH1 0x0 KECCAK256 SWAP1 JUMPDEST DUP2 SLOAD DUP2 MSTORE SWAP1 PUSH1 0x1 ADD SWAP1 PUSH1 0x20 ADD DUP1 DUP4 GT PUSH2 0x1B38 JUMPI DUP3 SWAP1 SUB PUSH1 0x1F AND DUP3 ADD SWAP2 JUMPDEST POP POP POP POP POP DUP2 MSTORE POP POP SWAP2 POP JUMPDEST DUP1 DUP1 PUSH2 0x1B6C SWAP1 PUSH2 0x30B6 JUMP JUMPDEST SWAP2 POP POP PUSH2 0x182A JUMP JUMPDEST POP DUP1 SWAP2 POP POP SWAP2 SWAP1 POP JUMP JUMPDEST PUSH1 0x0 DUP2 PUSH1 0x40 MLOAD PUSH1 0x20 ADD PUSH2 0x1B91 SWAP2 SWAP1 PUSH2 0x33EC JUMP JUMPDEST PUSH1 0x40 MLOAD PUSH1 0x20 DUP2 DUP4 SUB SUB DUP2 MSTORE SWAP1 PUSH1 0x40 MSTORE DUP1 MLOAD SWAP1 PUSH1 0x20 ADD KECCAK256 DUP4 PUSH1 0x40 MLOAD PUSH1 0x20 ADD PUSH2 0x1BB8 SWAP2 SWAP1 PUSH2 0x33EC JUMP JUMPDEST PUSH1 0x40 MLOAD PUSH1 0x20 DUP2 DUP4 SUB SUB DUP2 MSTORE SWAP1 PUSH1 0x40 MSTORE DUP1 MLOAD SWAP1 PUSH1 0x20 ADD KECCAK256 EQ SWAP1 POP SWAP3 SWAP2 POP POP JUMP JUMPDEST PUSH1 0x0 PUSH2 0x1BE2 DUP3 PUSH2 0x1817 JUMP JUMPDEST SWAP1 POP DUP1 PUSH1 0x80 ADD MLOAD CALLVALUE EQ PUSH2 0x1BF4 JUMPI PUSH1 0x0 DUP1 REVERT JUMPDEST PUSH1 0x2 PUSH1 0x40 MLOAD DUP1 PUSH1 0xA0 ADD PUSH1 0x40 MSTORE DUP1 CALLER PUSH20 0xFFFFFFFFFFFFFFFFFFFFFFFFFFFFFFFFFFFFFFFF AND DUP2 MSTORE PUSH1 0x20 ADD DUP4 PUSH1 0x20 ADD MLOAD PUSH20 0xFFFFFFFFFFFFFFFFFFFFFFFFFFFFFFFFFFFFFFFF AND DUP2 MSTORE PUSH1 0x20 ADD DUP5 DUP2 MSTORE PUSH1 0x20 ADD CALLVALUE DUP2 MSTORE PUSH1 0x20 ADD PUSH1 0x0 ISZERO ISZERO DUP2 MSTORE POP SWAP1 DUP1 PUSH1 0x1 DUP2 SLOAD ADD DUP1 DUP3 SSTORE DUP1 SWAP2 POP POP PUSH1 0x1 SWAP1 SUB SWAP1 PUSH1 0x0 MSTORE PUSH1 0x20 PUSH1 0x0 KECCAK256 SWAP1 PUSH1 0x5 MUL ADD PUSH1 0x0 SWAP1 SWAP2 SWAP1 SWAP2 SWAP1 SWAP2 POP PUSH1 0x0 DUP3 ADD MLOAD DUP2 PUSH1 0x0 ADD PUSH1 0x0 PUSH2 0x100 EXP DUP2 SLOAD DUP2 PUSH20 0xFFFFFFFFFFFFFFFFFFFFFFFFFFFFFFFFFFFFFFFF MUL NOT AND SWAP1 DUP4 PUSH20 0xFFFFFFFFFFFFFFFFFFFFFFFFFFFFFFFFFFFFFFFF AND MUL OR SWAP1 SSTORE POP PUSH1 0x20 DUP3 ADD MLOAD DUP2 PUSH1 0x1 ADD PUSH1 0x0 PUSH2 0x100 EXP DUP2 SLOAD DUP2 PUSH20 0xFFFFFFFFFFFFFFFFFFFFFFFFFFFFFFFFFFFFFFFF MUL NOT AND SWAP1 DUP4 PUSH20 0xFFFFFFFFFFFFFFFFFFFFFFFFFFFFFFFFFFFFFFFF AND MUL OR SWAP1 SSTORE POP PUSH1 0x40 DUP3 ADD MLOAD DUP2 PUSH1 0x2 ADD SSTORE PUSH1 0x60 DUP3 ADD MLOAD DUP2 PUSH1 0x3 ADD SSTORE PUSH1 0x80 DUP3 ADD MLOAD DUP2 PUSH1 0x4 ADD PUSH1 0x0 PUSH2 0x100 EXP DUP2 SLOAD DUP2 PUSH1 0xFF MUL NOT AND SWAP1 DUP4 ISZERO ISZERO MUL OR SWAP1 SSTORE POP POP POP POP POP JUMP JUMPDEST PUSH1 0x0 DUP1 PUSH2 0x1D4D CALLER PUSH2 0x238D JUMP JUMPDEST SWAP1 POP PUSH1 0x0 JUMPDEST PUSH1 0x1 DUP1 SLOAD SWAP1 POP DUP2 LT ISZERO PUSH2 0x1E45 JUMPI PUSH2 0x1E16 PUSH1 0x1 DUP3 DUP2 SLOAD DUP2 LT PUSH2 0x1D76 JUMPI PUSH2 0x1D75 PUSH2 0x3058 JUMP JUMPDEST JUMPDEST SWAP1 PUSH1 0x0 MSTORE PUSH1 0x20 PUSH1 0x0 KECCAK256 SWAP1 PUSH1 0x3 MUL ADD PUSH1 0x0 ADD DUP1 SLOAD PUSH2 0x1D92 SWAP1 PUSH2 0x3027 JUMP JUMPDEST DUP1 PUSH1 0x1F ADD PUSH1 0x20 DUP1 SWAP2 DIV MUL PUSH1 0x20 ADD PUSH1 0x40 MLOAD SWAP1 DUP2 ADD PUSH1 0x40 MSTORE DUP1 SWAP3 SWAP2 SWAP1 DUP2 DUP2 MSTORE PUSH1 0x20 ADD DUP3 DUP1 SLOAD PUSH2 0x1DBE SWAP1 PUSH2 0x3027 JUMP JUMPDEST DUP1 ISZERO PUSH2 0x1E0B JUMPI DUP1 PUSH1 0x1F LT PUSH2 0x1DE0 JUMPI PUSH2 0x100 DUP1 DUP4 SLOAD DIV MUL DUP4 MSTORE SWAP2 PUSH1 0x20 ADD SWAP2 PUSH2 0x1E0B JUMP JUMPDEST DUP3 ADD SWAP2 SWAP1 PUSH1 0x0 MSTORE PUSH1 0x20 PUSH1 0x0 KECCAK256 SWAP1 JUMPDEST DUP2 SLOAD DUP2 MSTORE SWAP1 PUSH1 0x1 ADD SWAP1 PUSH1 0x20 ADD DUP1 DUP4 GT PUSH2 0x1DEE JUMPI DUP3 SWAP1 SUB PUSH1 0x1F AND DUP3 ADD SWAP2 JUMPDEST POP POP POP POP POP DUP6 PUSH2 0x1B7E JUMP JUMPDEST DUP1 ISZERO PUSH2 0x1E22 JUMPI POP DUP2 DUP2 EQ ISZERO JUMPDEST ISZERO PUSH2 0x1E32 JUMPI PUSH1 0x0 SWAP3 POP POP POP PUSH2 0x1E7F JUMP JUMPDEST DUP1 DUP1 PUSH2 0x1E3D SWAP1 PUSH2 0x30B6 JUMP JUMPDEST SWAP2 POP POP PUSH2 0x1D52 JUMP JUMPDEST POP DUP3 PUSH1 0x1 DUP3 DUP2 SLOAD DUP2 LT PUSH2 0x1E5B JUMPI PUSH2 0x1E5A PUSH2 0x3058 JUMP JUMPDEST JUMPDEST SWAP1 PUSH1 0x0 MSTORE PUSH1 0x20 PUSH1 0x0 KECCAK256 SWAP1 PUSH1 0x3 MUL ADD PUSH1 0x0 ADD SWAP1 DUP2 PUSH2 0x1E78 SWAP2 SWAP1 PUSH2 0x32AA JUMP JUMPDEST POP PUSH1 0x1 SWAP2 POP POP JUMPDEST SWAP2 SWAP1 POP JUMP JUMPDEST PUSH1 0x0 DUP1 PUSH2 0x1E90 CALLER PUSH2 0x238D JUMP JUMPDEST SWAP1 POP DUP3 PUSH1 0x1 DUP3 DUP2 SLOAD DUP2 LT PUSH2 0x1EA7 JUMPI PUSH2 0x1EA6 PUSH2 0x3058 JUMP JUMPDEST JUMPDEST SWAP1 PUSH1 0x0 MSTORE PUSH1 0x20 PUSH1 0x0 KECCAK256 SWAP1 PUSH1 0x3 MUL ADD PUSH1 0x2 ADD SWAP1 DUP2 PUSH2 0x1EC4 SWAP2 SWAP1 PUSH2 0x32AA JUMP JUMPDEST POP PUSH1 0x1 SWAP2 POP POP SWAP2 SWAP1 POP JUMP JUMPDEST DUP2 PUSH20 0xFFFFFFFFFFFFFFFFFFFFFFFFFFFFFFFFFFFFFFFF AND PUSH1 0x2 DUP3 DUP2 SLOAD DUP2 LT PUSH2 0x1EFA JUMPI PUSH2 0x1EF9 PUSH2 0x3058 JUMP JUMPDEST JUMPDEST SWAP1 PUSH1 0x0 MSTORE PUSH1 0x20 PUSH1 0x0 KECCAK256 SWAP1 PUSH1 0x5 MUL ADD PUSH1 0x1 ADD PUSH1 0x0 SWAP1 SLOAD SWAP1 PUSH2 0x100 EXP SWAP1 DIV PUSH20 0xFFFFFFFFFFFFFFFFFFFFFFFFFFFFFFFFFFFFFFFF AND PUSH20 0xFFFFFFFFFFFFFFFFFFFFFFFFFFFFFFFFFFFFFFFF AND EQ DUP1 ISZERO PUSH2 0x1F85 JUMPI POP PUSH1 0x0 ISZERO ISZERO PUSH1 0x2 DUP3 DUP2 SLOAD DUP2 LT PUSH2 0x1F62 JUMPI PUSH2 0x1F61 PUSH2 0x3058 JUMP JUMPDEST JUMPDEST SWAP1 PUSH1 0x0 MSTORE PUSH1 0x20 PUSH1 0x0 KECCAK256 SWAP1 PUSH1 0x5 MUL ADD PUSH1 0x4 ADD PUSH1 0x0 SWAP1 SLOAD SWAP1 PUSH2 0x100 EXP SWAP1 DIV PUSH1 0xFF AND ISZERO ISZERO EQ JUMPDEST PUSH2 0x1F8E JUMPI PUSH1 0x0 DUP1 REVERT JUMPDEST DUP2 PUSH20 0xFFFFFFFFFFFFFFFFFFFFFFFFFFFFFFFFFFFFFFFF AND PUSH2 0x8FC PUSH1 0x2 DUP4 DUP2 SLOAD DUP2 LT PUSH2 0x1FBC JUMPI PUSH2 0x1FBB PUSH2 0x3058 JUMP JUMPDEST JUMPDEST SWAP1 PUSH1 0x0 MSTORE PUSH1 0x20 PUSH1 0x0 KECCAK256 SWAP1 PUSH1 0x5 MUL ADD PUSH1 0x3 ADD SLOAD SWAP1 DUP2 ISZERO MUL SWAP1 PUSH1 0x40 MLOAD PUSH1 0x0 PUSH1 0x40 MLOAD DUP1 DUP4 SUB DUP2 DUP6 DUP9 DUP9 CALL SWAP4 POP POP POP POP ISZERO DUP1 ISZERO PUSH2 0x1FF9 JUMPI RETURNDATASIZE PUSH1 0x0 DUP1 RETURNDATACOPY RETURNDATASIZE PUSH1 0x0 REVERT JUMPDEST POP PUSH1 0x1 PUSH1 0x2 DUP3 DUP2 SLOAD DUP2 LT PUSH2 0x2010 JUMPI PUSH2 0x200F PUSH2 0x3058 JUMP JUMPDEST JUMPDEST SWAP1 PUSH1 0x0 MSTORE PUSH1 0x20 PUSH1 0x0 KECCAK256 SWAP1 PUSH1 0x5 MUL ADD PUSH1 0x4 ADD PUSH1 0x0 PUSH2 0x100 EXP DUP2 SLOAD DUP2 PUSH1 0xFF MUL NOT AND SWAP1 DUP4 ISZERO ISZERO MUL OR SWAP1 SSTORE POP POP POP JUMP JUMPDEST PUSH1 0x0 DUP2 PUSH1 0x0 ADD DUP2 SWAP1 SSTORE POP POP JUMP JUMPDEST PUSH2 0x2051 PUSH2 0x2445 JUMP JUMPDEST PUSH1 0x0 JUMPDEST PUSH1 0x1 DUP1 SLOAD SWAP1 POP DUP2 LT ISZERO PUSH2 0x229B JUMPI DUP3 PUSH20 0xFFFFFFFFFFFFFFFFFFFFFFFFFFFFFFFFFFFFFFFF AND PUSH1 0x1 DUP3 DUP2 SLOAD DUP2 LT PUSH2 0x208C JUMPI PUSH2 0x208B PUSH2 0x3058 JUMP JUMPDEST JUMPDEST SWAP1 PUSH1 0x0 MSTORE PUSH1 0x20 PUSH1 0x0 KECCAK256 SWAP1 PUSH1 0x3 MUL ADD PUSH1 0x1 ADD PUSH1 0x0 SWAP1 SLOAD SWAP1 PUSH2 0x100 EXP SWAP1 DIV PUSH20 0xFFFFFFFFFFFFFFFFFFFFFFFFFFFFFFFFFFFFFFFF AND PUSH20 0xFFFFFFFFFFFFFFFFFFFFFFFFFFFFFFFFFFFFFFFF AND SUB PUSH2 0x2288 JUMPI PUSH1 0x1 DUP2 DUP2 SLOAD DUP2 LT PUSH2 0x20ED JUMPI PUSH2 0x20EC PUSH2 0x3058 JUMP JUMPDEST JUMPDEST SWAP1 PUSH1 0x0 MSTORE PUSH1 0x20 PUSH1 0x0 KECCAK256 SWAP1 PUSH1 0x3 MUL ADD PUSH1 0x40 MLOAD DUP1 PUSH1 0x60 ADD PUSH1 0x40 MSTORE SWAP1 DUP2 PUSH1 0x0 DUP3 ADD DUP1 SLOAD PUSH2 0x2116 SWAP1 PUSH2 0x3027 JUMP JUMPDEST DUP1 PUSH1 0x1F ADD PUSH1 0x20 DUP1 SWAP2 DIV MUL PUSH1 0x20 ADD PUSH1 0x40 MLOAD SWAP1 DUP2 ADD PUSH1 0x40 MSTORE DUP1 SWAP3 SWAP2 SWAP1 DUP2 DUP2 MSTORE PUSH1 0x20 ADD DUP3 DUP1 SLOAD PUSH2 0x2142 SWAP1 PUSH2 0x3027 JUMP JUMPDEST DUP1 ISZERO PUSH2 0x218F JUMPI DUP1 PUSH1 0x1F LT PUSH2 0x2164 JUMPI PUSH2 0x100 DUP1 DUP4 SLOAD DIV MUL DUP4 MSTORE SWAP2 PUSH1 0x20 ADD SWAP2 PUSH2 0x218F JUMP JUMPDEST DUP3 ADD SWAP2 SWAP1 PUSH1 0x0 MSTORE PUSH1 0x20 PUSH1 0x0 KECCAK256 SWAP1 JUMPDEST DUP2 SLOAD DUP2 MSTORE SWAP1 PUSH1 0x1 ADD SWAP1 PUSH1 0x20 ADD DUP1 DUP4 GT PUSH2 0x2172 JUMPI DUP3 SWAP1 SUB PUSH1 0x1F AND DUP3 ADD SWAP2 JUMPDEST POP POP POP POP POP DUP2 MSTORE PUSH1 0x20 ADD PUSH1 0x1 DUP3 ADD PUSH1 0x0 SWAP1 SLOAD SWAP1 PUSH2 0x100 EXP SWAP1 DIV PUSH20 0xFFFFFFFFFFFFFFFFFFFFFFFFFFFFFFFFFFFFFFFF AND PUSH20 0xFFFFFFFFFFFFFFFFFFFFFFFFFFFFFFFFFFFFFFFF AND PUSH20 0xFFFFFFFFFFFFFFFFFFFFFFFFFFFFFFFFFFFFFFFF AND DUP2 MSTORE PUSH1 0x20 ADD PUSH1 0x2 DUP3 ADD DUP1 SLOAD PUSH2 0x21FE SWAP1 PUSH2 0x3027 JUMP JUMPDEST DUP1 PUSH1 0x1F ADD PUSH1 0x20 DUP1 SWAP2 DIV MUL PUSH1 0x20 ADD PUSH1 0x40 MLOAD SWAP1 DUP2 ADD PUSH1 0x40 MSTORE DUP1 SWAP3 SWAP2 SWAP1 DUP2 DUP2 MSTORE PUSH1 0x20 ADD DUP3 DUP1 SLOAD PUSH2 0x222A SWAP1 PUSH2 0x3027 JUMP JUMPDEST DUP1 ISZERO PUSH2 0x2277 JUMPI DUP1 PUSH1 0x1F LT PUSH2 0x224C JUMPI PUSH2 0x100 DUP1 DUP4 SLOAD DIV MUL DUP4 MSTORE SWAP2 PUSH1 0x20 ADD SWAP2 PUSH2 0x2277 JUMP JUMPDEST DUP3 ADD SWAP2 SWAP1 PUSH1 0x0 MSTORE PUSH1 0x20 PUSH1 0x0 KECCAK256 SWAP1 JUMPDEST DUP2 SLOAD DUP2 MSTORE SWAP1 PUSH1 0x1 ADD SWAP1 PUSH1 0x20 ADD DUP1 DUP4 GT PUSH2 0x225A JUMPI DUP3 SWAP1 SUB PUSH1 0x1F AND DUP3 ADD SWAP2 JUMPDEST POP POP POP POP POP DUP2 MSTORE POP POP SWAP2 POP POP PUSH2 0x22A9 JUMP JUMPDEST DUP1 DUP1 PUSH2 0x2293 SWAP1 PUSH2 0x30B6 JUMP JUMPDEST SWAP2 POP POP PUSH2 0x2054 JUMP JUMPDEST POP PUSH2 0x22A4 PUSH2 0x2445 JUMP JUMPDEST DUP1 SWAP2 POP POP JUMPDEST SWAP2 SWAP1 POP JUMP JUMPDEST PUSH1 0x0 DUP1 PUSH1 0x0 SWAP1 POP PUSH1 0x0 JUMPDEST PUSH1 0x0 DUP1 SLOAD SWAP1 POP DUP2 LT ISZERO PUSH2 0x235F JUMPI DUP4 PUSH20 0xFFFFFFFFFFFFFFFFFFFFFFFFFFFFFFFFFFFFFFFF AND PUSH1 0x0 DUP3 DUP2 SLOAD DUP2 LT PUSH2 0x22F0 JUMPI PUSH2 0x22EF PUSH2 0x3058 JUMP JUMPDEST JUMPDEST SWAP1 PUSH1 0x0 MSTORE PUSH1 0x20 PUSH1 0x0 KECCAK256 SWAP1 PUSH1 0x8 MUL ADD PUSH1 0x1 ADD PUSH1 0x0 SWAP1 SLOAD SWAP1 PUSH2 0x100 EXP SWAP1 DIV PUSH20 0xFFFFFFFFFFFFFFFFFFFFFFFFFFFFFFFFFFFFFFFF AND PUSH20 0xFFFFFFFFFFFFFFFFFFFFFFFFFFFFFFFFFFFFFFFF AND SUB PUSH2 0x234C JUMPI DUP2 DUP1 PUSH2 0x2348 SWAP1 PUSH2 0x30B6 JUMP JUMPDEST SWAP3 POP POP JUMPDEST DUP1 DUP1 PUSH2 0x2357 SWAP1 PUSH2 0x30B6 JUMP JUMPDEST SWAP2 POP POP PUSH2 0x22B8 JUMP JUMPDEST POP DUP1 SWAP2 POP POP SWAP2 SWAP1 POP JUMP JUMPDEST PUSH1 0x0 DUP2 PUSH1 0x0 ADD SLOAD SWAP1 POP SWAP2 SWAP1 POP JUMP JUMPDEST PUSH1 0x1 DUP2 PUSH1 0x0 ADD PUSH1 0x0 DUP3 DUP3 SLOAD ADD SWAP3 POP POP DUP2 SWAP1 SSTORE POP POP JUMP JUMPDEST PUSH1 0x0 DUP1 PUSH1 0x0 SWAP1 POP JUMPDEST PUSH1 0x1 DUP1 SLOAD SWAP1 POP DUP2 LT ISZERO PUSH2 0x2436 JUMPI DUP3 PUSH20 0xFFFFFFFFFFFFFFFFFFFFFFFFFFFFFFFFFFFFFFFF AND PUSH1 0x1 DUP3 DUP2 SLOAD DUP2 LT PUSH2 0x23CD JUMPI PUSH2 0x23CC PUSH2 0x3058 JUMP JUMPDEST JUMPDEST SWAP1 PUSH1 0x0 MSTORE PUSH1 0x20 PUSH1 0x0 KECCAK256 SWAP1 PUSH1 0x3 MUL ADD PUSH1 0x1 ADD PUSH1 0x0 SWAP1 SLOAD SWAP1 PUSH2 0x100 EXP SWAP1 DIV PUSH20 0xFFFFFFFFFFFFFFFFFFFFFFFFFFFFFFFFFFFFFFFF AND PUSH20 0xFFFFFFFFFFFFFFFFFFFFFFFFFFFFFFFFFFFFFFFF AND SUB PUSH2 0x2423 JUMPI DUP1 SWAP2 POP POP PUSH2 0x2440 JUMP JUMPDEST DUP1 DUP1 PUSH2 0x242E SWAP1 PUSH2 0x30B6 JUMP JUMPDEST SWAP2 POP POP PUSH2 0x2395 JUMP JUMPDEST POP PUSH1 0x1 DUP1 SLOAD SWAP1 POP SWAP1 POP JUMPDEST SWAP2 SWAP1 POP JUMP JUMPDEST PUSH1 0x40 MLOAD DUP1 PUSH1 0x60 ADD PUSH1 0x40 MSTORE DUP1 PUSH1 0x60 DUP2 MSTORE PUSH1 0x20 ADD PUSH1 0x0 PUSH20 0xFFFFFFFFFFFFFFFFFFFFFFFFFFFFFFFFFFFFFFFF AND DUP2 MSTORE PUSH1 0x20 ADD PUSH1 0x60 DUP2 MSTORE POP SWAP1 JUMP JUMPDEST PUSH1 0x40 MLOAD DUP1 PUSH2 0x100 ADD PUSH1 0x40 MSTORE DUP1 PUSH1 0x0 DUP2 MSTORE PUSH1 0x20 ADD PUSH1 0x0 PUSH20 0xFFFFFFFFFFFFFFFFFFFFFFFFFFFFFFFFFFFFFFFF AND DUP2 MSTORE PUSH1 0x20 ADD PUSH1 0x60 DUP2 MSTORE PUSH1 0x20 ADD PUSH1 0x60 DUP2 MSTORE PUSH1 0x20 ADD PUSH1 0x0 DUP2 MSTORE PUSH1 0x20 ADD PUSH1 0x60 DUP2 MSTORE PUSH1 0x20 ADD PUSH1 0x0 ISZERO ISZERO DUP2 MSTORE PUSH1 0x20 ADD PUSH1 0x60 DUP2 MSTORE POP SWAP1 JUMP JUMPDEST PUSH1 0x0 DUP2 MLOAD SWAP1 POP SWAP2 SWAP1 POP JUMP JUMPDEST PUSH1 0x0 DUP3 DUP3 MSTORE PUSH1 0x20 DUP3 ADD SWAP1 POP SWAP3 SWAP2 POP POP JUMP JUMPDEST PUSH1 0x0 DUP2 SWAP1 POP PUSH1 0x20 DUP3 ADD SWAP1 POP SWAP2 SWAP1 POP JUMP JUMPDEST PUSH1 0x0 DUP2 SWAP1 POP SWAP2 SWAP1 POP JUMP JUMPDEST PUSH2 0x2518 DUP2 PUSH2 0x2505 JUMP JUMPDEST DUP3 MSTORE POP POP JUMP JUMPDEST PUSH1 0x0 PUSH20 0xFFFFFFFFFFFFFFFFFFFFFFFFFFFFFFFFFFFFFFFF DUP3 AND SWAP1 POP SWAP2 SWAP1 POP JUMP JUMPDEST PUSH1 0x0 PUSH2 0x2549 DUP3 PUSH2 0x251E JUMP JUMPDEST SWAP1 POP SWAP2 SWAP1 POP JUMP JUMPDEST PUSH2 0x2559 DUP2 PUSH2 0x253E JUMP JUMPDEST DUP3 MSTORE POP POP JUMP JUMPDEST PUSH1 0x0 DUP2 MLOAD SWAP1 POP SWAP2 SWAP1 POP JUMP JUMPDEST PUSH1 0x0 DUP3 DUP3 MSTORE PUSH1 0x20 DUP3 ADD SWAP1 POP SWAP3 SWAP2 POP POP JUMP JUMPDEST PUSH1 0x0 JUMPDEST DUP4 DUP2 LT ISZERO PUSH2 0x2599 JUMPI DUP1 DUP3 ADD MLOAD DUP2 DUP5 ADD MSTORE PUSH1 0x20 DUP2 ADD SWAP1 POP PUSH2 0x257E JUMP JUMPDEST PUSH1 0x0 DUP5 DUP5 ADD MSTORE POP POP POP POP JUMP JUMPDEST PUSH1 0x0 PUSH1 0x1F NOT PUSH1 0x1F DUP4 ADD AND SWAP1 POP SWAP2 SWAP1 POP JUMP JUMPDEST PUSH1 0x0 PUSH2 0x25C1 DUP3 PUSH2 0x255F JUMP JUMPDEST PUSH2 0x25CB DUP2 DUP6 PUSH2 0x256A JUMP JUMPDEST SWAP4 POP PUSH2 0x25DB DUP2 DUP6 PUSH1 0x20 DUP7 ADD PUSH2 0x257B JUMP JUMPDEST PUSH2 0x25E4 DUP2 PUSH2 0x25A5 JUMP JUMPDEST DUP5 ADD SWAP2 POP POP SWAP3 SWAP2 POP POP JUMP JUMPDEST PUSH1 0x0 DUP2 ISZERO ISZERO SWAP1 POP SWAP2 SWAP1 POP JUMP JUMPDEST PUSH2 0x2604 DUP2 PUSH2 0x25EF JUMP JUMPDEST DUP3 MSTORE POP POP JUMP JUMPDEST PUSH1 0x0 PUSH2 0x100 DUP4 ADD PUSH1 0x0 DUP4 ADD MLOAD PUSH2 0x2623 PUSH1 0x0 DUP7 ADD DUP3 PUSH2 0x250F JUMP JUMPDEST POP PUSH1 0x20 DUP4 ADD MLOAD PUSH2 0x2636 PUSH1 0x20 DUP7 ADD DUP3 PUSH2 0x2550 JUMP JUMPDEST POP PUSH1 0x40 DUP4 ADD MLOAD DUP5 DUP3 SUB PUSH1 0x40 DUP7 ADD MSTORE PUSH2 0x264E DUP3 DUP3 PUSH2 0x25B6 JUMP JUMPDEST SWAP2 POP POP PUSH1 0x60 DUP4 ADD MLOAD DUP5 DUP3 SUB PUSH1 0x60 DUP7 ADD MSTORE PUSH2 0x2668 DUP3 DUP3 PUSH2 0x25B6 JUMP JUMPDEST SWAP2 POP POP PUSH1 0x80 DUP4 ADD MLOAD PUSH2 0x267D PUSH1 0x80 DUP7 ADD DUP3 PUSH2 0x250F JUMP JUMPDEST POP PUSH1 0xA0 DUP4 ADD MLOAD DUP5 DUP3 SUB PUSH1 0xA0 DUP7 ADD MSTORE PUSH2 0x2695 DUP3 DUP3 PUSH2 0x25B6 JUMP JUMPDEST SWAP2 POP POP PUSH1 0xC0 DUP4 ADD MLOAD PUSH2 0x26AA PUSH1 0xC0 DUP7 ADD DUP3 PUSH2 0x25FB JUMP JUMPDEST POP PUSH1 0xE0 DUP4 ADD MLOAD DUP5 DUP3 SUB PUSH1 0xE0 DUP7 ADD MSTORE PUSH2 0x26C2 DUP3 DUP3 PUSH2 0x25B6 JUMP JUMPDEST SWAP2 POP POP DUP1 SWAP2 POP POP SWAP3 SWAP2 POP POP JUMP JUMPDEST PUSH1 0x0 PUSH2 0x26DB DUP4 DUP4 PUSH2 0x260A JUMP JUMPDEST SWAP1 POP SWAP3 SWAP2 POP POP JUMP JUMPDEST PUSH1 0x0 PUSH1 0x20 DUP3 ADD SWAP1 POP SWAP2 SWAP1 POP JUMP JUMPDEST PUSH1 0x0 PUSH2 0x26FB DUP3 PUSH2 0x24D9 JUMP JUMPDEST PUSH2 0x2705 DUP2 DUP6 PUSH2 0x24E4 JUMP JUMPDEST SWAP4 POP DUP4 PUSH1 0x20 DUP3 MUL DUP6 ADD PUSH2 0x2717 DUP6 PUSH2 0x24F5 JUMP JUMPDEST DUP1 PUSH1 0x0 JUMPDEST DUP6 DUP2 LT ISZERO PUSH2 0x2753 JUMPI DUP5 DUP5 SUB DUP10 MSTORE DUP2 MLOAD PUSH2 0x2734 DUP6 DUP3 PUSH2 0x26CF JUMP JUMPDEST SWAP5 POP PUSH2 0x273F DUP4 PUSH2 0x26E3 JUMP JUMPDEST SWAP3 POP PUSH1 0x20 DUP11 ADD SWAP10 POP POP PUSH1 0x1 DUP2 ADD SWAP1 POP PUSH2 0x271B JUMP JUMPDEST POP DUP3 SWAP8 POP DUP8 SWAP6 POP POP POP POP POP POP SWAP3 SWAP2 POP POP JUMP JUMPDEST PUSH1 0x0 PUSH1 0x20 DUP3 ADD SWAP1 POP DUP2 DUP2 SUB PUSH1 0x0 DUP4 ADD MSTORE PUSH2 0x277F DUP2 DUP5 PUSH2 0x26F0 JUMP JUMPDEST SWAP1 POP SWAP3 SWAP2 POP POP JUMP JUMPDEST PUSH1 0x0 PUSH1 0x40 MLOAD SWAP1 POP SWAP1 JUMP JUMPDEST PUSH1 0x0 DUP1 REVERT JUMPDEST PUSH1 0x0 DUP1 REVERT JUMPDEST PUSH1 0x0 PUSH2 0x27A6 DUP3 PUSH2 0x251E JUMP JUMPDEST SWAP1 POP SWAP2 SWAP1 POP JUMP JUMPDEST PUSH2 0x27B6 DUP2 PUSH2 0x279B JUMP JUMPDEST DUP2 EQ PUSH2 0x27C1 JUMPI PUSH1 0x0 DUP1 REVERT JUMPDEST POP JUMP JUMPDEST PUSH1 0x0 DUP2 CALLDATALOAD SWAP1 POP PUSH2 0x27D3 DUP2 PUSH2 0x27AD JUMP JUMPDEST SWAP3 SWAP2 POP POP JUMP JUMPDEST PUSH1 0x0 PUSH1 0x20 DUP3 DUP5 SUB SLT ISZERO PUSH2 0x27EF JUMPI PUSH2 0x27EE PUSH2 0x2791 JUMP JUMPDEST JUMPDEST PUSH1 0x0 PUSH2 0x27FD DUP5 DUP3 DUP6 ADD PUSH2 0x27C4 JUMP JUMPDEST SWAP2 POP POP SWAP3 SWAP2 POP POP JUMP JUMPDEST PUSH1 0x0 DUP1 REVERT JUMPDEST PUSH1 0x0 DUP1 REVERT JUMPDEST PUSH32 0x4E487B7100000000000000000000000000000000000000000000000000000000 PUSH1 0x0 MSTORE PUSH1 0x41 PUSH1 0x4 MSTORE PUSH1 0x24 PUSH1 0x0 REVERT JUMPDEST PUSH2 0x2848 DUP3 PUSH2 0x25A5 JUMP JUMPDEST DUP2 ADD DUP2 DUP2 LT PUSH8 0xFFFFFFFFFFFFFFFF DUP3 GT OR ISZERO PUSH2 0x2867 JUMPI PUSH2 0x2866 PUSH2 0x2810 JUMP JUMPDEST JUMPDEST DUP1 PUSH1 0x40 MSTORE POP POP POP JUMP JUMPDEST PUSH1 0x0 PUSH2 0x287A PUSH2 0x2787 JUMP JUMPDEST SWAP1 POP PUSH2 0x2886 DUP3 DUP3 PUSH2 0x283F JUMP JUMPDEST SWAP2 SWAP1 POP JUMP JUMPDEST PUSH1 0x0 PUSH8 0xFFFFFFFFFFFFFFFF DUP3 GT ISZERO PUSH2 0x28A6 JUMPI PUSH2 0x28A5 PUSH2 0x2810 JUMP JUMPDEST JUMPDEST PUSH2 0x28AF DUP3 PUSH2 0x25A5 JUMP JUMPDEST SWAP1 POP PUSH1 0x20 DUP2 ADD SWAP1 POP SWAP2 SWAP1 POP JUMP JUMPDEST DUP3 DUP2 DUP4 CALLDATACOPY PUSH1 0x0 DUP4 DUP4 ADD MSTORE POP POP POP JUMP JUMPDEST PUSH1 0x0 PUSH2 0x28DE PUSH2 0x28D9 DUP5 PUSH2 0x288B JUMP JUMPDEST PUSH2 0x2870 JUMP JUMPDEST SWAP1 POP DUP3 DUP2 MSTORE PUSH1 0x20 DUP2 ADD DUP5 DUP5 DUP5 ADD GT ISZERO PUSH2 0x28FA JUMPI PUSH2 0x28F9 PUSH2 0x280B JUMP JUMPDEST JUMPDEST PUSH2 0x2905 DUP5 DUP3 DUP6 PUSH2 0x28BC JUMP JUMPDEST POP SWAP4 SWAP3 POP POP POP JUMP JUMPDEST PUSH1 0x0 DUP3 PUSH1 0x1F DUP4 ADD SLT PUSH2 0x2922 JUMPI PUSH2 0x2921 PUSH2 0x2806 JUMP JUMPDEST JUMPDEST DUP2 CALLDATALOAD PUSH2 0x2932 DUP5 DUP3 PUSH1 0x20 DUP7 ADD PUSH2 0x28CB JUMP JUMPDEST SWAP2 POP POP SWAP3 SWAP2 POP POP JUMP JUMPDEST PUSH1 0x0 DUP1 PUSH1 0x40 DUP4 DUP6 SUB SLT ISZERO PUSH2 0x2952 JUMPI PUSH2 0x2951 PUSH2 0x2791 JUMP JUMPDEST JUMPDEST PUSH1 0x0 DUP4 ADD CALLDATALOAD PUSH8 0xFFFFFFFFFFFFFFFF DUP2 GT ISZERO PUSH2 0x2970 JUMPI PUSH2 0x296F PUSH2 0x2796 JUMP JUMPDEST JUMPDEST PUSH2 0x297C DUP6 DUP3 DUP7 ADD PUSH2 0x290D JUMP JUMPDEST SWAP3 POP POP PUSH1 0x20 DUP4 ADD CALLDATALOAD PUSH8 0xFFFFFFFFFFFFFFFF DUP2 GT ISZERO PUSH2 0x299D JUMPI PUSH2 0x299C PUSH2 0x2796 JUMP JUMPDEST JUMPDEST PUSH2 0x29A9 DUP6 DUP3 DUP7 ADD PUSH2 0x290D JUMP JUMPDEST SWAP2 POP POP SWAP3 POP SWAP3 SWAP1 POP JUMP JUMPDEST PUSH2 0x29BC DUP2 PUSH2 0x25EF JUMP JUMPDEST DUP3 MSTORE POP POP JUMP JUMPDEST PUSH1 0x0 PUSH1 0x20 DUP3 ADD SWAP1 POP PUSH2 0x29D7 PUSH1 0x0 DUP4 ADD DUP5 PUSH2 0x29B3 JUMP JUMPDEST SWAP3 SWAP2 POP POP JUMP JUMPDEST PUSH1 0x0 PUSH1 0x60 DUP4 ADD PUSH1 0x0 DUP4 ADD MLOAD DUP5 DUP3 SUB PUSH1 0x0 DUP7 ADD MSTORE PUSH2 0x29FA DUP3 DUP3 PUSH2 0x25B6 JUMP JUMPDEST SWAP2 POP POP PUSH1 0x20 DUP4 ADD MLOAD PUSH2 0x2A0F PUSH1 0x20 DUP7 ADD DUP3 PUSH2 0x2550 JUMP JUMPDEST POP PUSH1 0x40 DUP4 ADD MLOAD DUP5 DUP3 SUB PUSH1 0x40 DUP7 ADD MSTORE PUSH2 0x2A27 DUP3 DUP3 PUSH2 0x25B6 JUMP JUMPDEST SWAP2 POP POP DUP1 SWAP2 POP POP SWAP3 SWAP2 POP POP JUMP JUMPDEST PUSH1 0x0 PUSH1 0x20 DUP3 ADD SWAP1 POP DUP2 DUP2 SUB PUSH1 0x0 DUP4 ADD MSTORE PUSH2 0x2A4E DUP2 DUP5 PUSH2 0x29DD JUMP JUMPDEST SWAP1 POP SWAP3 SWAP2 POP POP JUMP JUMPDEST PUSH2 0x2A5F DUP2 PUSH2 0x2505 JUMP JUMPDEST DUP2 EQ PUSH2 0x2A6A JUMPI PUSH1 0x0 DUP1 REVERT JUMPDEST POP JUMP JUMPDEST PUSH1 0x0 DUP2 CALLDATALOAD SWAP1 POP PUSH2 0x2A7C DUP2 PUSH2 0x2A56 JUMP JUMPDEST SWAP3 SWAP2 POP POP JUMP JUMPDEST PUSH1 0x0 DUP1 PUSH1 0x0 DUP1 PUSH1 0x0 PUSH1 0xA0 DUP7 DUP9 SUB SLT ISZERO PUSH2 0x2A9E JUMPI PUSH2 0x2A9D PUSH2 0x2791 JUMP JUMPDEST JUMPDEST PUSH1 0x0 DUP7 ADD CALLDATALOAD PUSH8 0xFFFFFFFFFFFFFFFF DUP2 GT ISZERO PUSH2 0x2ABC JUMPI PUSH2 0x2ABB PUSH2 0x2796 JUMP JUMPDEST JUMPDEST PUSH2 0x2AC8 DUP9 DUP3 DUP10 ADD PUSH2 0x290D JUMP JUMPDEST SWAP6 POP POP PUSH1 0x20 DUP7 ADD CALLDATALOAD PUSH8 0xFFFFFFFFFFFFFFFF DUP2 GT ISZERO PUSH2 0x2AE9 JUMPI PUSH2 0x2AE8 PUSH2 0x2796 JUMP JUMPDEST JUMPDEST PUSH2 0x2AF5 DUP9 DUP3 DUP10 ADD PUSH2 0x290D JUMP JUMPDEST SWAP5 POP POP PUSH1 0x40 PUSH2 0x2B06 DUP9 DUP3 DUP10 ADD PUSH2 0x2A6D JUMP JUMPDEST SWAP4 POP POP PUSH1 0x60 DUP7 ADD CALLDATALOAD PUSH8 0xFFFFFFFFFFFFFFFF DUP2 GT ISZERO PUSH2 0x2B27 JUMPI PUSH2 0x2B26 PUSH2 0x2796 JUMP JUMPDEST JUMPDEST PUSH2 0x2B33 DUP9 DUP3 DUP10 ADD PUSH2 0x290D JUMP JUMPDEST SWAP3 POP POP PUSH1 0x80 DUP7 ADD CALLDATALOAD PUSH8 0xFFFFFFFFFFFFFFFF DUP2 GT ISZERO PUSH2 0x2B54 JUMPI PUSH2 0x2B53 PUSH2 0x2796 JUMP JUMPDEST JUMPDEST PUSH2 0x2B60 DUP9 DUP3 DUP10 ADD PUSH2 0x290D JUMP JUMPDEST SWAP2 POP POP SWAP3 SWAP6 POP SWAP3 SWAP6 SWAP1 SWAP4 POP JUMP JUMPDEST PUSH1 0x0 PUSH1 0x20 DUP3 DUP5 SUB SLT ISZERO PUSH2 0x2B83 JUMPI PUSH2 0x2B82 PUSH2 0x2791 JUMP JUMPDEST JUMPDEST PUSH1 0x0 PUSH2 0x2B91 DUP5 DUP3 DUP6 ADD PUSH2 0x2A6D JUMP JUMPDEST SWAP2 POP POP SWAP3 SWAP2 POP POP JUMP JUMPDEST PUSH2 0x2BA3 DUP2 PUSH2 0x2505 JUMP JUMPDEST DUP3 MSTORE POP POP JUMP JUMPDEST PUSH2 0x2BB2 DUP2 PUSH2 0x253E JUMP JUMPDEST DUP3 MSTORE POP POP JUMP JUMPDEST PUSH1 0x0 DUP3 DUP3 MSTORE PUSH1 0x20 DUP3 ADD SWAP1 POP SWAP3 SWAP2 POP POP JUMP JUMPDEST PUSH1 0x0 PUSH2 0x2BD4 DUP3 PUSH2 0x255F JUMP JUMPDEST PUSH2 0x2BDE DUP2 DUP6 PUSH2 0x2BB8 JUMP JUMPDEST SWAP4 POP PUSH2 0x2BEE DUP2 DUP6 PUSH1 0x20 DUP7 ADD PUSH2 0x257B JUMP JUMPDEST PUSH2 0x2BF7 DUP2 PUSH2 0x25A5 JUMP JUMPDEST DUP5 ADD SWAP2 POP POP SWAP3 SWAP2 POP POP JUMP JUMPDEST PUSH1 0x0 PUSH2 0x100 DUP3 ADD SWAP1 POP PUSH2 0x2C18 PUSH1 0x0 DUP4 ADD DUP12 PUSH2 0x2B9A JUMP JUMPDEST PUSH2 0x2C25 PUSH1 0x20 DUP4 ADD DUP11 PUSH2 0x2BA9 JUMP JUMPDEST DUP2 DUP2 SUB PUSH1 0x40 DUP4 ADD MSTORE PUSH2 0x2C37 DUP2 DUP10 PUSH2 0x2BC9 JUMP JUMPDEST SWAP1 POP DUP2 DUP2 SUB PUSH1 0x60 DUP4 ADD MSTORE PUSH2 0x2C4B DUP2 DUP9 PUSH2 0x2BC9 JUMP JUMPDEST SWAP1 POP PUSH2 0x2C5A PUSH1 0x80 DUP4 ADD DUP8 PUSH2 0x2B9A JUMP JUMPDEST DUP2 DUP2 SUB PUSH1 0xA0 DUP4 ADD MSTORE PUSH2 0x2C6C DUP2 DUP7 PUSH2 0x2BC9 JUMP JUMPDEST SWAP1 POP PUSH2 0x2C7B PUSH1 0xC0 DUP4 ADD DUP6 PUSH2 0x29B3 JUMP JUMPDEST DUP2 DUP2 SUB PUSH1 0xE0 DUP4 ADD MSTORE PUSH2 0x2C8D DUP2 DUP5 PUSH2 0x2BC9 JUMP JUMPDEST SWAP1 POP SWAP10 SWAP9 POP POP POP POP POP POP POP POP POP JUMP JUMPDEST PUSH1 0x0 PUSH1 0x60 DUP3 ADD SWAP1 POP DUP2 DUP2 SUB PUSH1 0x0 DUP4 ADD MSTORE PUSH2 0x2CB6 DUP2 DUP7 PUSH2 0x2BC9 JUMP JUMPDEST SWAP1 POP PUSH2 0x2CC5 PUSH1 0x20 DUP4 ADD DUP6 PUSH2 0x2BA9 JUMP JUMPDEST DUP2 DUP2 SUB PUSH1 0x40 DUP4 ADD MSTORE PUSH2 0x2CD7 DUP2 DUP5 PUSH2 0x2BC9 JUMP JUMPDEST SWAP1 POP SWAP5 SWAP4 POP POP POP POP JUMP JUMPDEST PUSH1 0x0 PUSH1 0x20 DUP3 ADD SWAP1 POP PUSH2 0x2CF6 PUSH1 0x0 DUP4 ADD DUP5 PUSH2 0x2B9A JUMP JUMPDEST SWAP3 SWAP2 POP POP JUMP JUMPDEST PUSH1 0x0 PUSH1 0xA0 DUP3 ADD SWAP1 POP PUSH2 0x2D11 PUSH1 0x0 DUP4 ADD DUP9 PUSH2 0x2BA9 JUMP JUMPDEST PUSH2 0x2D1E PUSH1 0x20 DUP4 ADD DUP8 PUSH2 0x2BA9 JUMP JUMPDEST PUSH2 0x2D2B PUSH1 0x40 DUP4 ADD DUP7 PUSH2 0x2B9A JUMP JUMPDEST PUSH2 0x2D38 PUSH1 0x60 DUP4 ADD DUP6 PUSH2 0x2B9A JUMP JUMPDEST PUSH2 0x2D45 PUSH1 0x80 DUP4 ADD DUP5 PUSH2 0x29B3 JUMP JUMPDEST SWAP7 SWAP6 POP POP POP POP POP POP JUMP JUMPDEST PUSH1 0x0 DUP2 MLOAD SWAP1 POP SWAP2 SWAP1 POP JUMP JUMPDEST PUSH1 0x0 DUP3 DUP3 MSTORE PUSH1 0x20 DUP3 ADD SWAP1 POP SWAP3 SWAP2 POP POP JUMP JUMPDEST PUSH1 0x0 DUP2 SWAP1 POP PUSH1 0x20 DUP3 ADD SWAP1 POP SWAP2 SWAP1 POP JUMP JUMPDEST PUSH1 0xA0 DUP3 ADD PUSH1 0x0 DUP3 ADD MLOAD PUSH2 0x2D91 PUSH1 0x0 DUP6 ADD DUP3 PUSH2 0x2550 JUMP JUMPDEST POP PUSH1 0x20 DUP3 ADD MLOAD PUSH2 0x2DA4 PUSH1 0x20 DUP6 ADD DUP3 PUSH2 0x2550 JUMP JUMPDEST POP PUSH1 0x40 DUP3 ADD MLOAD PUSH2 0x2DB7 PUSH1 0x40 DUP6 ADD DUP3 PUSH2 0x250F JUMP JUMPDEST POP PUSH1 0x60 DUP3 ADD MLOAD PUSH2 0x2DCA PUSH1 0x60 DUP6 ADD DUP3 PUSH2 0x250F JUMP JUMPDEST POP PUSH1 0x80 DUP3 ADD MLOAD PUSH2 0x2DDD PUSH1 0x80 DUP6 ADD DUP3 PUSH2 0x25FB JUMP JUMPDEST POP POP POP POP JUMP JUMPDEST PUSH1 0x0 PUSH2 0x2DEF DUP4 DUP4 PUSH2 0x2D7B JUMP JUMPDEST PUSH1 0xA0 DUP4 ADD SWAP1 POP SWAP3 SWAP2 POP POP JUMP JUMPDEST PUSH1 0x0 PUSH1 0x20 DUP3 ADD SWAP1 POP SWAP2 SWAP1 POP JUMP JUMPDEST PUSH1 0x0 PUSH2 0x2E13 DUP3 PUSH2 0x2D4F JUMP JUMPDEST PUSH2 0x2E1D DUP2 DUP6 PUSH2 0x2D5A JUMP JUMPDEST SWAP4 POP PUSH2 0x2E28 DUP4 PUSH2 0x2D6B JUMP JUMPDEST DUP1 PUSH1 0x0 JUMPDEST DUP4 DUP2 LT ISZERO PUSH2 0x2E59 JUMPI DUP2 MLOAD PUSH2 0x2E40 DUP9 DUP3 PUSH2 0x2DE3 JUMP JUMPDEST SWAP8 POP PUSH2 0x2E4B DUP4 PUSH2 0x2DFB JUMP JUMPDEST SWAP3 POP POP PUSH1 0x1 DUP2 ADD SWAP1 POP PUSH2 0x2E2C JUMP JUMPDEST POP DUP6 SWAP4 POP POP POP POP SWAP3 SWAP2 POP POP JUMP JUMPDEST PUSH1 0x0 PUSH1 0x20 DUP3 ADD SWAP1 POP DUP2 DUP2 SUB PUSH1 0x0 DUP4 ADD MSTORE PUSH2 0x2E80 DUP2 DUP5 PUSH2 0x2E08 JUMP JUMPDEST SWAP1 POP SWAP3 SWAP2 POP POP JUMP JUMPDEST PUSH1 0x0 PUSH2 0x100 DUP4 ADD PUSH1 0x0 DUP4 ADD MLOAD PUSH2 0x2EA1 PUSH1 0x0 DUP7 ADD DUP3 PUSH2 0x250F JUMP JUMPDEST POP PUSH1 0x20 DUP4 ADD MLOAD PUSH2 0x2EB4 PUSH1 0x20 DUP7 ADD DUP3 PUSH2 0x2550 JUMP JUMPDEST POP PUSH1 0x40 DUP4 ADD MLOAD DUP5 DUP3 SUB PUSH1 0x40 DUP7 ADD MSTORE PUSH2 0x2ECC DUP3 DUP3 PUSH2 0x25B6 JUMP JUMPDEST SWAP2 POP POP PUSH1 0x60 DUP4 ADD MLOAD DUP5 DUP3 SUB PUSH1 0x60 DUP7 ADD MSTORE PUSH2 0x2EE6 DUP3 DUP3 PUSH2 0x25B6 JUMP JUMPDEST SWAP2 POP POP PUSH1 0x80 DUP4 ADD MLOAD PUSH2 0x2EFB PUSH1 0x80 DUP7 ADD DUP3 PUSH2 0x250F JUMP JUMPDEST POP PUSH1 0xA0 DUP4 ADD MLOAD DUP5 DUP3 SUB PUSH1 0xA0 DUP7 ADD MSTORE PUSH2 0x2F13 DUP3 DUP3 PUSH2 0x25B6 JUMP JUMPDEST SWAP2 POP POP PUSH1 0xC0 DUP4 ADD MLOAD PUSH2 0x2F28 PUSH1 0xC0 DUP7 ADD DUP3 PUSH2 0x25FB JUMP JUMPDEST POP PUSH1 0xE0 DUP4 ADD MLOAD DUP5 DUP3 SUB PUSH1 0xE0 DUP7 ADD MSTORE PUSH2 0x2F40 DUP3 DUP3 PUSH2 0x25B6 JUMP JUMPDEST SWAP2 POP POP DUP1 SWAP2 POP POP SWAP3 SWAP2 POP POP JUMP JUMPDEST PUSH1 0x0 PUSH1 0x20 DUP3 ADD SWAP1 POP DUP2 DUP2 SUB PUSH1 0x0 DUP4 ADD MSTORE PUSH2 0x2F67 DUP2 DUP5 PUSH2 0x2E88 JUMP JUMPDEST SWAP1 POP SWAP3 SWAP2 POP POP JUMP JUMPDEST PUSH1 0x0 PUSH1 0x20 DUP3 DUP5 SUB SLT ISZERO PUSH2 0x2F85 JUMPI PUSH2 0x2F84 PUSH2 0x2791 JUMP JUMPDEST JUMPDEST PUSH1 0x0 DUP3 ADD CALLDATALOAD PUSH8 0xFFFFFFFFFFFFFFFF DUP2 GT ISZERO PUSH2 0x2FA3 JUMPI PUSH2 0x2FA2 PUSH2 0x2796 JUMP JUMPDEST JUMPDEST PUSH2 0x2FAF DUP5 DUP3 DUP6 ADD PUSH2 0x290D JUMP JUMPDEST SWAP2 POP POP SWAP3 SWAP2 POP POP JUMP JUMPDEST PUSH1 0x0 DUP1 PUSH1 0x40 DUP4 DUP6 SUB SLT ISZERO PUSH2 0x2FCF JUMPI PUSH2 0x2FCE PUSH2 0x2791 JUMP JUMPDEST JUMPDEST PUSH1 0x0 PUSH2 0x2FDD DUP6 DUP3 DUP7 ADD PUSH2 0x27C4 JUMP JUMPDEST SWAP3 POP POP PUSH1 0x20 PUSH2 0x2FEE DUP6 DUP3 DUP7 ADD PUSH2 0x2A6D JUMP JUMPDEST SWAP2 POP POP SWAP3 POP SWAP3 SWAP1 POP JUMP JUMPDEST PUSH32 0x4E487B7100000000000000000000000000000000000000000000000000000000 PUSH1 0x0 MSTORE PUSH1 0x22 PUSH1 0x4 MSTORE PUSH1 0x24 PUSH1 0x0 REVERT JUMPDEST PUSH1 0x0 PUSH1 0x2 DUP3 DIV SWAP1 POP PUSH1 0x1 DUP3 AND DUP1 PUSH2 0x303F JUMPI PUSH1 0x7F DUP3 AND SWAP2 POP JUMPDEST PUSH1 0x20 DUP3 LT DUP2 SUB PUSH2 0x3052 JUMPI PUSH2 0x3051 PUSH2 0x2FF8 JUMP JUMPDEST JUMPDEST POP SWAP2 SWAP1 POP JUMP JUMPDEST PUSH32 0x4E487B7100000000000000000000000000000000000000000000000000000000 PUSH1 0x0 MSTORE PUSH1 0x32 PUSH1 0x4 MSTORE PUSH1 0x24 PUSH1 0x0 REVERT JUMPDEST PUSH32 0x4E487B7100000000000000000000000000000000000000000000000000000000 PUSH1 0x0 MSTORE PUSH1 0x11 PUSH1 0x4 MSTORE PUSH1 0x24 PUSH1 0x0 REVERT JUMPDEST PUSH1 0x0 PUSH2 0x30C1 DUP3 PUSH2 0x2505 JUMP JUMPDEST SWAP2 POP PUSH32 0xFFFFFFFFFFFFFFFFFFFFFFFFFFFFFFFFFFFFFFFFFFFFFFFFFFFFFFFFFFFFFFFF DUP3 SUB PUSH2 0x30F3 JUMPI PUSH2 0x30F2 PUSH2 0x3087 JUMP JUMPDEST JUMPDEST PUSH1 0x1 DUP3 ADD SWAP1 POP SWAP2 SWAP1 POP JUMP JUMPDEST PUSH1 0x0 DUP2 SWAP1 POP DUP2 PUSH1 0x0 MSTORE PUSH1 0x20 PUSH1 0x0 KECCAK256 SWAP1 POP SWAP2 SWAP1 POP JUMP JUMPDEST PUSH1 0x0 PUSH1 0x20 PUSH1 0x1F DUP4 ADD DIV SWAP1 POP SWAP2 SWAP1 POP JUMP JUMPDEST PUSH1 0x0 DUP3 DUP3 SHL SWAP1 POP SWAP3 SWAP2 POP POP JUMP JUMPDEST PUSH1 0x0 PUSH1 0x8 DUP4 MUL PUSH2 0x3160 PUSH32 0xFFFFFFFFFFFFFFFFFFFFFFFFFFFFFFFFFFFFFFFFFFFFFFFFFFFFFFFFFFFFFFFF DUP3 PUSH2 0x3123 JUMP JUMPDEST PUSH2 0x316A DUP7 DUP4 PUSH2 0x3123 JUMP JUMPDEST SWAP6 POP DUP1 NOT DUP5 AND SWAP4 POP DUP1 DUP7 AND DUP5 OR SWAP3 POP POP POP SWAP4 SWAP3 POP POP POP JUMP JUMPDEST PUSH1 0x0 DUP2 SWAP1 POP SWAP2 SWAP1 POP JUMP JUMPDEST PUSH1 0x0 PUSH2 0x31A7 PUSH2 0x31A2 PUSH2 0x319D DUP5 PUSH2 0x2505 JUMP JUMPDEST PUSH2 0x3182 JUMP JUMPDEST PUSH2 0x2505 JUMP JUMPDEST SWAP1 POP SWAP2 SWAP1 POP JUMP JUMPDEST PUSH1 0x0 DUP2 SWAP1 POP SWAP2 SWAP1 POP JUMP JUMPDEST PUSH2 0x31C1 DUP4 PUSH2 0x318C JUMP JUMPDEST PUSH2 0x31D5 PUSH2 0x31CD DUP3 PUSH2 0x31AE JUMP JUMPDEST DUP5 DUP5 SLOAD PUSH2 0x3130 JUMP JUMPDEST DUP3 SSTORE POP POP POP POP JUMP JUMPDEST PUSH1 0x0 SWAP1 JUMP JUMPDEST PUSH2 0x31EA PUSH2 0x31DD JUMP JUMPDEST PUSH2 0x31F5 DUP2 DUP5 DUP5 PUSH2 0x31B8 JUMP JUMPDEST POP POP POP JUMP JUMPDEST JUMPDEST DUP2 DUP2 LT ISZERO PUSH2 0x3219 JUMPI PUSH2 0x320E PUSH1 0x0 DUP3 PUSH2 0x31E2 JUMP JUMPDEST PUSH1 0x1 DUP2 ADD SWAP1 POP PUSH2 0x31FB JUMP JUMPDEST POP POP JUMP JUMPDEST PUSH1 0x1F DUP3 GT ISZERO PUSH2 0x325E JUMPI PUSH2 0x322F DUP2 PUSH2 0x30FE JUMP JUMPDEST PUSH2 0x3238 DUP5 PUSH2 0x3113 JUMP JUMPDEST DUP2 ADD PUSH1 0x20 DUP6 LT ISZERO PUSH2 0x3247 JUMPI DUP2 SWAP1 POP JUMPDEST PUSH2 0x325B PUSH2 0x3253 DUP6 PUSH2 0x3113 JUMP JUMPDEST DUP4 ADD DUP3 PUSH2 0x31FA JUMP JUMPDEST POP POP JUMPDEST POP POP POP JUMP JUMPDEST PUSH1 0x0 DUP3 DUP3 SHR SWAP1 POP SWAP3 SWAP2 POP POP JUMP JUMPDEST PUSH1 0x0 PUSH2 0x3281 PUSH1 0x0 NOT DUP5 PUSH1 0x8 MUL PUSH2 0x3263 JUMP JUMPDEST NOT DUP1 DUP4 AND SWAP2 POP POP SWAP3 SWAP2 POP POP JUMP JUMPDEST PUSH1 0x0 PUSH2 0x329A DUP4 DUP4 PUSH2 0x3270 JUMP JUMPDEST SWAP2 POP DUP3 PUSH1 0x2 MUL DUP3 OR SWAP1 POP SWAP3 SWAP2 POP POP JUMP JUMPDEST PUSH2 0x32B3 DUP3 PUSH2 0x255F JUMP JUMPDEST PUSH8 0xFFFFFFFFFFFFFFFF DUP2 GT ISZERO PUSH2 0x32CC JUMPI PUSH2 0x32CB PUSH2 0x2810 JUMP JUMPDEST JUMPDEST PUSH2 0x32D6 DUP3 SLOAD PUSH2 0x3027 JUMP JUMPDEST PUSH2 0x32E1 DUP3 DUP3 DUP6 PUSH2 0x321D JUMP JUMPDEST PUSH1 0x0 PUSH1 0x20 SWAP1 POP PUSH1 0x1F DUP4 GT PUSH1 0x1 DUP2 EQ PUSH2 0x3314 JUMPI PUSH1 0x0 DUP5 ISZERO PUSH2 0x3302 JUMPI DUP3 DUP8 ADD MLOAD SWAP1 POP JUMPDEST PUSH2 0x330C DUP6 DUP3 PUSH2 0x328E JUMP JUMPDEST DUP7 SSTORE POP PUSH2 0x3374 JUMP JUMPDEST PUSH1 0x1F NOT DUP5 AND PUSH2 0x3322 DUP7 PUSH2 0x30FE JUMP JUMPDEST PUSH1 0x0 JUMPDEST DUP3 DUP2 LT ISZERO PUSH2 0x334A JUMPI DUP5 DUP10 ADD MLOAD DUP3 SSTORE PUSH1 0x1 DUP3 ADD SWAP2 POP PUSH1 0x20 DUP6 ADD SWAP5 POP PUSH1 0x20 DUP2 ADD SWAP1 POP PUSH2 0x3325 JUMP JUMPDEST DUP7 DUP4 LT ISZERO PUSH2 0x3367 JUMPI DUP5 DUP10 ADD MLOAD PUSH2 0x3363 PUSH1 0x1F DUP10 AND DUP3 PUSH2 0x3270 JUMP JUMPDEST DUP4 SSTORE POP JUMPDEST PUSH1 0x1 PUSH1 0x2 DUP9 MUL ADD DUP9 SSTORE POP POP POP JUMPDEST POP POP POP POP POP POP JUMP JUMPDEST PUSH1 0x0 PUSH2 0x3387 DUP3 PUSH2 0x2505 JUMP JUMPDEST SWAP2 POP PUSH2 0x3392 DUP4 PUSH2 0x2505 JUMP JUMPDEST SWAP3 POP DUP3 DUP3 ADD SWAP1 POP DUP1 DUP3 GT ISZERO PUSH2 0x33AA JUMPI PUSH2 0x33A9 PUSH2 0x3087 JUMP JUMPDEST JUMPDEST SWAP3 SWAP2 POP POP JUMP JUMPDEST PUSH1 0x0 DUP2 SWAP1 POP SWAP3 SWAP2 POP POP JUMP JUMPDEST PUSH1 0x0 PUSH2 0x33C6 DUP3 PUSH2 0x255F JUMP JUMPDEST PUSH2 0x33D0 DUP2 DUP6 PUSH2 0x33B0 JUMP JUMPDEST SWAP4 POP PUSH2 0x33E0 DUP2 DUP6 PUSH1 0x20 DUP7 ADD PUSH2 0x257B JUMP JUMPDEST DUP1 DUP5 ADD SWAP2 POP POP SWAP3 SWAP2 POP POP JUMP JUMPDEST PUSH1 0x0 PUSH2 0x33F8 DUP3 DUP5 PUSH2 0x33BB JUMP JUMPDEST SWAP2 POP DUP2 SWAP1 POP SWAP3 SWAP2 POP POP JUMP INVALID LOG2 PUSH5 0x6970667358 0x22 SLT KECCAK256 CALLCODE DUP11 0xD2 SHL PUSH31 0x25AC81EB797D438232180D28575B5EA7E49F332806367376508DA964736F6C PUSH4 0x43000812 STOP CALLER "
				},
				"gasEstimates": {
					"creation": {
						"codeDepositCost": "2673800",
						"executionCost": "infinite",
						"totalCost": "infinite"
					},
					"external": {
						"ContentBuys(uint256)": "infinite",
						"Contents(uint256)": "infinite",
						"Profiles(uint256)": "infinite",
						"buyContent(uint256)": "infinite",
						"compareStrings(string,string)": "infinite",
						"createNewContent(string,string,uint256,string,string)": "infinite",
						"createNewProfile(string,string)": "infinite",
						"getAllBalanceForCreator(address)": "infinite",
						"getAllCourses()": "infinite",
						"getAvailableBalance()": "infinite",
						"getBalanceForSingleBuy(address,uint256)": "infinite",
						"getBuysFromAuthor()": "infinite",
						"getContractBalance()": "450",
						"getCourseDetail(uint256)": "infinite",
						"getMyCourses()": "infinite",
						"getMyProfile()": "infinite",
						"setProfileHandle(string)": "infinite",
						"setProfileImage(string)": "infinite"
					},
					"internal": {
						"getProficeIndexByAddress(address)": "infinite",
						"getProfileByAddress(address)": "infinite",
						"getUserCoursesLen(address)": "infinite"
					}
				},
				"methodIdentifiers": {
					"ContentBuys(uint256)": "7ec1061a",
					"Contents(uint256)": "3b342e8e",
					"Profiles(uint256)": "4cea965e",
					"buyContent(uint256)": "d6cfa440",
					"compareStrings(string,string)": "bed34bba",
					"createNewContent(string,string,uint256,string,string)": "38880d55",
					"createNewProfile(string,string)": "1fc25cdd",
					"getAllBalanceForCreator(address)": "0e61a0ee",
					"getAllCourses()": "04e48bd1",
					"getAvailableBalance()": "809dab6a",
					"getBalanceForSingleBuy(address,uint256)": "fb5d7a1f",
					"getBuysFromAuthor()": "8e4a6680",
					"getContractBalance()": "6f9fb98a",
					"getCourseDetail(uint256)": "b79367c4",
					"getMyCourses()": "2cc59076",
					"getMyProfile()": "21527e50",
					"setProfileHandle(string)": "e44c76ea",
					"setProfileImage(string)": "f70d205c"
				}
			},
			"storageLayout": {
				"storage": [
					{
						"astId": 119,
						"contract": "contracts/CreatorsContent.sol:CreatorsContent",
						"label": "Contents",
						"offset": 0,
						"slot": "0",
						"type": "t_array(t_struct(Content)97_storage)dyn_storage"
					},
					{
						"astId": 123,
						"contract": "contracts/CreatorsContent.sol:CreatorsContent",
						"label": "Profiles",
						"offset": 0,
						"slot": "1",
						"type": "t_array(t_struct(Profile)104_storage)dyn_storage"
					},
					{
						"astId": 127,
						"contract": "contracts/CreatorsContent.sol:CreatorsContent",
						"label": "ContentBuys",
						"offset": 0,
						"slot": "2",
						"type": "t_array(t_struct(ContentBuy)115_storage)dyn_storage"
					},
					{
						"astId": 130,
						"contract": "contracts/CreatorsContent.sol:CreatorsContent",
						"label": "idCourses",
						"offset": 0,
						"slot": "3",
						"type": "t_struct(Counter)5_storage"
					}
				],
				"types": {
					"t_address": {
						"encoding": "inplace",
						"label": "address",
						"numberOfBytes": "20"
					},
					"t_array(t_struct(Content)97_storage)dyn_storage": {
						"base": "t_struct(Content)97_storage",
						"encoding": "dynamic_array",
						"label": "struct CreatorsContent.Content[]",
						"numberOfBytes": "32"
					},
					"t_array(t_struct(ContentBuy)115_storage)dyn_storage": {
						"base": "t_struct(ContentBuy)115_storage",
						"encoding": "dynamic_array",
						"label": "struct CreatorsContent.ContentBuy[]",
						"numberOfBytes": "32"
					},
					"t_array(t_struct(Profile)104_storage)dyn_storage": {
						"base": "t_struct(Profile)104_storage",
						"encoding": "dynamic_array",
						"label": "struct CreatorsContent.Profile[]",
						"numberOfBytes": "32"
					},
					"t_bool": {
						"encoding": "inplace",
						"label": "bool",
						"numberOfBytes": "1"
					},
					"t_string_storage": {
						"encoding": "bytes",
						"label": "string",
						"numberOfBytes": "32"
					},
					"t_struct(Content)97_storage": {
						"encoding": "inplace",
						"label": "struct CreatorsContent.Content",
						"members": [
							{
								"astId": 82,
								"contract": "contracts/CreatorsContent.sol:CreatorsContent",
								"label": "id",
								"offset": 0,
								"slot": "0",
								"type": "t_uint256"
							},
							{
								"astId": 84,
								"contract": "contracts/CreatorsContent.sol:CreatorsContent",
								"label": "author",
								"offset": 0,
								"slot": "1",
								"type": "t_address"
							},
							{
								"astId": 86,
								"contract": "contracts/CreatorsContent.sol:CreatorsContent",
								"label": "title",
								"offset": 0,
								"slot": "2",
								"type": "t_string_storage"
							},
							{
								"astId": 88,
								"contract": "contracts/CreatorsContent.sol:CreatorsContent",
								"label": "description",
								"offset": 0,
								"slot": "3",
								"type": "t_string_storage"
							},
							{
								"astId": 90,
								"contract": "contracts/CreatorsContent.sol:CreatorsContent",
								"label": "price",
								"offset": 0,
								"slot": "4",
								"type": "t_uint256"
							},
							{
								"astId": 92,
								"contract": "contracts/CreatorsContent.sol:CreatorsContent",
								"label": "video",
								"offset": 0,
								"slot": "5",
								"type": "t_string_storage"
							},
							{
								"astId": 94,
								"contract": "contracts/CreatorsContent.sol:CreatorsContent",
								"label": "deleted",
								"offset": 0,
								"slot": "6",
								"type": "t_bool"
							},
							{
								"astId": 96,
								"contract": "contracts/CreatorsContent.sol:CreatorsContent",
								"label": "mainImage",
								"offset": 0,
								"slot": "7",
								"type": "t_string_storage"
							}
						],
						"numberOfBytes": "256"
					},
					"t_struct(ContentBuy)115_storage": {
						"encoding": "inplace",
						"label": "struct CreatorsContent.ContentBuy",
						"members": [
							{
								"astId": 106,
								"contract": "contracts/CreatorsContent.sol:CreatorsContent",
								"label": "from",
								"offset": 0,
								"slot": "0",
								"type": "t_address"
							},
							{
								"astId": 108,
								"contract": "contracts/CreatorsContent.sol:CreatorsContent",
								"label": "to",
								"offset": 0,
								"slot": "1",
								"type": "t_address"
							},
							{
								"astId": 110,
								"contract": "contracts/CreatorsContent.sol:CreatorsContent",
								"label": "idContent",
								"offset": 0,
								"slot": "2",
								"type": "t_uint256"
							},
							{
								"astId": 112,
								"contract": "contracts/CreatorsContent.sol:CreatorsContent",
								"label": "ammount",
								"offset": 0,
								"slot": "3",
								"type": "t_uint256"
							},
							{
								"astId": 114,
								"contract": "contracts/CreatorsContent.sol:CreatorsContent",
								"label": "isPayed",
								"offset": 0,
								"slot": "4",
								"type": "t_bool"
							}
						],
						"numberOfBytes": "160"
					},
					"t_struct(Counter)5_storage": {
						"encoding": "inplace",
						"label": "struct Counters.Counter",
						"members": [
							{
								"astId": 4,
								"contract": "contracts/CreatorsContent.sol:CreatorsContent",
								"label": "_value",
								"offset": 0,
								"slot": "0",
								"type": "t_uint256"
							}
						],
						"numberOfBytes": "32"
					},
					"t_struct(Profile)104_storage": {
						"encoding": "inplace",
						"label": "struct CreatorsContent.Profile",
						"members": [
							{
								"astId": 99,
								"contract": "contracts/CreatorsContent.sol:CreatorsContent",
								"label": "handle",
								"offset": 0,
								"slot": "0",
								"type": "t_string_storage"
							},
							{
								"astId": 101,
								"contract": "contracts/CreatorsContent.sol:CreatorsContent",
								"label": "addr",
								"offset": 0,
								"slot": "1",
								"type": "t_address"
							},
							{
								"astId": 103,
								"contract": "contracts/CreatorsContent.sol:CreatorsContent",
								"label": "profilePic",
								"offset": 0,
								"slot": "2",
								"type": "t_string_storage"
							}
						],
						"numberOfBytes": "96"
					},
					"t_uint256": {
						"encoding": "inplace",
						"label": "uint256",
						"numberOfBytes": "32"
					}
				}
			},
			"userdoc": {
				"kind": "user",
				"methods": {},
				"version": 1
			}
		}
	}
}